{
	"contracts/salary.sol": {
		"salary": {
			"abi": [
				{
					"inputs": [],
					"stateMutability": "nonpayable",
					"type": "constructor"
				},
				{
					"inputs": [
						{
							"internalType": "uint256",
							"name": "",
							"type": "uint256"
						}
					],
					"name": "AllEmployes",
					"outputs": [
						{
							"internalType": "string",
							"name": "name",
							"type": "string"
						},
						{
							"internalType": "uint256",
							"name": "role",
							"type": "uint256"
						},
						{
							"internalType": "uint256",
							"name": "Id_No",
							"type": "uint256"
						},
						{
							"internalType": "address payable",
							"name": "account_No",
							"type": "address"
						},
						{
							"internalType": "bool",
							"name": "paid_status",
							"type": "bool"
						}
					],
					"stateMutability": "view",
					"type": "function"
				},
				{
					"inputs": [
						{
							"internalType": "address",
							"name": "_account_No",
							"type": "address"
						},
						{
							"internalType": "uint256",
							"name": "ChangePosition",
							"type": "uint256"
						}
					],
					"name": "ChangePostion",
					"outputs": [],
					"stateMutability": "nonpayable",
					"type": "function"
				},
				{
					"inputs": [
						{
							"internalType": "address",
							"name": "_account_No",
							"type": "address"
						}
					],
					"name": "CheckSalaryStatus",
					"outputs": [
						{
							"internalType": "bool",
							"name": "status",
							"type": "bool"
						}
					],
					"stateMutability": "view",
					"type": "function"
				},
				{
					"inputs": [
						{
							"internalType": "string",
							"name": "name",
							"type": "string"
						},
						{
							"internalType": "uint256",
							"name": "role",
							"type": "uint256"
						},
						{
							"internalType": "uint256",
							"name": "_Id_No",
							"type": "uint256"
						},
						{
							"internalType": "address payable",
							"name": "_account_No",
							"type": "address"
						},
						{
							"internalType": "bool",
							"name": "_paidStatus",
							"type": "bool"
						}
					],
					"name": "Employe_Registration",
					"outputs": [],
					"stateMutability": "nonpayable",
					"type": "function"
				},
				{
					"inputs": [
						{
							"internalType": "address",
							"name": "",
							"type": "address"
						}
					],
					"name": "GetEmployeeDetails",
					"outputs": [
						{
							"internalType": "string",
							"name": "name",
							"type": "string"
						},
						{
							"internalType": "uint256",
							"name": "role",
							"type": "uint256"
						},
						{
							"internalType": "uint256",
							"name": "Id_No",
							"type": "uint256"
						},
						{
							"internalType": "address payable",
							"name": "account_No",
							"type": "address"
						},
						{
							"internalType": "bool",
							"name": "paid_status",
							"type": "bool"
						}
					],
					"stateMutability": "view",
					"type": "function"
				},
				{
					"inputs": [
						{
							"internalType": "address",
							"name": "_account_No",
							"type": "address"
						}
					],
					"name": "RemoveEmployee",
					"outputs": [
						{
							"internalType": "bool",
							"name": "status",
							"type": "bool"
						}
					],
					"stateMutability": "nonpayable",
					"type": "function"
				},
				{
					"inputs": [],
					"name": "admin",
					"outputs": [
						{
							"internalType": "address",
							"name": "",
							"type": "address"
						}
					],
					"stateMutability": "view",
					"type": "function"
				},
				{
					"inputs": [],
					"name": "changePaidStatus",
					"outputs": [],
					"stateMutability": "nonpayable",
					"type": "function"
				},
				{
					"inputs": [
						{
							"internalType": "address payable",
							"name": "_ToEmployeAddress",
							"type": "address"
						},
						{
							"internalType": "uint256",
							"name": "_amount",
							"type": "uint256"
						}
					],
					"name": "sendingSalaries",
					"outputs": [
						{
							"internalType": "uint256",
							"name": "",
							"type": "uint256"
						}
					],
					"stateMutability": "payable",
					"type": "function"
				},
				{
					"inputs": [],
					"name": "sendingSalariesToEmployee",
					"outputs": [],
					"stateMutability": "payable",
					"type": "function"
				}
			],
			"devdoc": {
				"kind": "dev",
				"methods": {},
				"version": 1
			},
			"evm": {
				"assembly": "    /* \"contracts/salary.sol\":65:4756  contract salary{\r... */\n  mstore(0x40, 0x80)\n    /* \"contracts/salary.sol\":329:346  20000000000000000 */\n  0x470de4df820000\n    /* \"contracts/salary.sol\":311:346  uint  SalaryOfP1= 20000000000000000 */\n  0x01\n  sstore\n    /* \"contracts/salary.sol\":379:396  30000000000000000 */\n  0x6a94d74f430000\n    /* \"contracts/salary.sol\":362:396  uint  SalaryOfP2=30000000000000000 */\n  0x02\n  sstore\n    /* \"contracts/salary.sol\":160:210  constructor (){\r... */\n  callvalue\n  dup1\n  iszero\n  tag_1\n  jumpi\n  0x00\n  dup1\n  revert\ntag_1:\n  pop\n    /* \"contracts/salary.sol\":196:206  msg.sender */\n  caller\n    /* \"contracts/salary.sol\":189:194  admin */\n  0x00\n  dup1\n    /* \"contracts/salary.sol\":189:206  admin= msg.sender */\n  0x0100\n  exp\n  dup2\n  sload\n  dup2\n  0xffffffffffffffffffffffffffffffffffffffff\n  mul\n  not\n  and\n  swap1\n  dup4\n  0xffffffffffffffffffffffffffffffffffffffff\n  and\n  mul\n  or\n  swap1\n  sstore\n  pop\n    /* \"contracts/salary.sol\":65:4756  contract salary{\r... */\n  dataSize(sub_0)\n  dup1\n  dataOffset(sub_0)\n  0x00\n  codecopy\n  0x00\n  return\nstop\n\nsub_0: assembly {\n        /* \"contracts/salary.sol\":65:4756  contract salary{\r... */\n      mstore(0x40, 0x80)\n      jumpi(tag_1, lt(calldatasize, 0x04))\n      shr(0xe0, calldataload(0x00))\n      dup1\n      0xb58f421c\n      gt\n      tag_12\n      jumpi\n      dup1\n      0xb58f421c\n      eq\n      tag_7\n      jumpi\n      dup1\n      0xba0ce2bb\n      eq\n      tag_8\n      jumpi\n      dup1\n      0xd17106b7\n      eq\n      tag_9\n      jumpi\n      dup1\n      0xe66a458e\n      eq\n      tag_10\n      jumpi\n      dup1\n      0xf851a440\n      eq\n      tag_11\n      jumpi\n      jump(tag_1)\n    tag_12:\n      dup1\n      0x026f119a\n      eq\n      tag_2\n      jumpi\n      dup1\n      0x04b642a4\n      eq\n      tag_3\n      jumpi\n      dup1\n      0x18c7a051\n      eq\n      tag_4\n      jumpi\n      dup1\n      0x52d6abdc\n      eq\n      tag_5\n      jumpi\n      dup1\n      0x7a7e4369\n      eq\n      tag_6\n      jumpi\n    tag_1:\n      0x00\n      dup1\n      revert\n        /* \"contracts/salary.sol\":2894:3077  function changePaidStatus() public  onlyAdmin{\r... */\n    tag_2:\n      callvalue\n      dup1\n      iszero\n      tag_13\n      jumpi\n      0x00\n      dup1\n      revert\n    tag_13:\n      pop\n      tag_14\n      tag_15\n      jump\t// in\n    tag_14:\n      stop\n        /* \"contracts/salary.sol\":1729:2332  function sendingSalariesToEmployee() public  payable  onlyAdmin {\r... */\n    tag_3:\n      tag_16\n      tag_17\n      jump\t// in\n    tag_16:\n      stop\n        /* \"contracts/salary.sol\":2360:2850  function sendingSalaries(address payable  _ToEmployeAddress ,uint _amount)  public onlyAdmin  payable   returns   (uint256){\r... */\n    tag_4:\n      tag_18\n      0x04\n      dup1\n      calldatasize\n      sub\n      dup2\n      add\n      swap1\n      tag_19\n      swap2\n      swap1\n      tag_20\n      jump\t// in\n    tag_19:\n      tag_21\n      jump\t// in\n    tag_18:\n      mload(0x40)\n      tag_22\n      swap2\n      swap1\n      tag_23\n      jump\t// in\n    tag_22:\n      mload(0x40)\n      dup1\n      swap2\n      sub\n      swap1\n      return\n        /* \"contracts/salary.sol\":4121:4751  function RemoveEmployee ( address  _account_No) public onlyAdmin returns (bool status){\r... */\n    tag_5:\n      callvalue\n      dup1\n      iszero\n      tag_24\n      jumpi\n      0x00\n      dup1\n      revert\n    tag_24:\n      pop\n      tag_25\n      0x04\n      dup1\n      calldatasize\n      sub\n      dup2\n      add\n      swap1\n      tag_26\n      swap2\n      swap1\n      tag_27\n      jump\t// in\n    tag_26:\n      tag_28\n      jump\t// in\n    tag_25:\n      mload(0x40)\n      tag_29\n      swap2\n      swap1\n      tag_30\n      jump\t// in\n    tag_29:\n      mload(0x40)\n      dup1\n      swap2\n      sub\n      swap1\n      return\n        /* \"contracts/salary.sol\":1132:1669  function Employe_Registration (string memory name,  uint role,uint _Id_No,address payable _account_No, bool _paidStatus) public   {\r... */\n    tag_6:\n      callvalue\n      dup1\n      iszero\n      tag_31\n      jumpi\n      0x00\n      dup1\n      revert\n    tag_31:\n      pop\n      tag_32\n      0x04\n      dup1\n      calldatasize\n      sub\n      dup2\n      add\n      swap1\n      tag_33\n      swap2\n      swap1\n      tag_34\n      jump\t// in\n    tag_33:\n      tag_35\n      jump\t// in\n    tag_32:\n      stop\n        /* \"contracts/salary.sol\":700:729  Employe [] public AllEmployes */\n    tag_7:\n      callvalue\n      dup1\n      iszero\n      tag_36\n      jumpi\n      0x00\n      dup1\n      revert\n    tag_36:\n      pop\n      tag_37\n      0x04\n      dup1\n      calldatasize\n      sub\n      dup2\n      add\n      swap1\n      tag_38\n      swap2\n      swap1\n      tag_39\n      jump\t// in\n    tag_38:\n      tag_40\n      jump\t// in\n    tag_37:\n      mload(0x40)\n      tag_41\n      swap6\n      swap5\n      swap4\n      swap3\n      swap2\n      swap1\n      tag_42\n      jump\t// in\n    tag_41:\n      mload(0x40)\n      dup1\n      swap2\n      sub\n      swap1\n      return\n        /* \"contracts/salary.sol\":3135:3544  function CheckSalaryStatus (address _account_No)  public onlyAdmin view  returns (bool status){\r... */\n    tag_8:\n      callvalue\n      dup1\n      iszero\n      tag_43\n      jumpi\n      0x00\n      dup1\n      revert\n    tag_43:\n      pop\n      tag_44\n      0x04\n      dup1\n      calldatasize\n      sub\n      dup2\n      add\n      swap1\n      tag_45\n      swap2\n      swap1\n      tag_27\n      jump\t// in\n    tag_45:\n      tag_46\n      jump\t// in\n    tag_44:\n      mload(0x40)\n      tag_47\n      swap2\n      swap1\n      tag_30\n      jump\t// in\n    tag_47:\n      mload(0x40)\n      dup1\n      swap2\n      sub\n      swap1\n      return\n        /* \"contracts/salary.sol\":618:670  mapping (address=>Employe) public GetEmployeeDetails */\n    tag_9:\n      callvalue\n      dup1\n      iszero\n      tag_48\n      jumpi\n      0x00\n      dup1\n      revert\n    tag_48:\n      pop\n      tag_49\n      0x04\n      dup1\n      calldatasize\n      sub\n      dup2\n      add\n      swap1\n      tag_50\n      swap2\n      swap1\n      tag_27\n      jump\t// in\n    tag_50:\n      tag_51\n      jump\t// in\n    tag_49:\n      mload(0x40)\n      tag_52\n      swap6\n      swap5\n      swap4\n      swap3\n      swap2\n      swap1\n      tag_42\n      jump\t// in\n    tag_52:\n      mload(0x40)\n      dup1\n      swap2\n      sub\n      swap1\n      return\n        /* \"contracts/salary.sol\":3595:4084  function ChangePostion( address _account_No, uint256   ChangePosition) public onlyAdmin {\r... */\n    tag_10:\n      callvalue\n      dup1\n      iszero\n      tag_53\n      jumpi\n      0x00\n      dup1\n      revert\n    tag_53:\n      pop\n      tag_54\n      0x04\n      dup1\n      calldatasize\n      sub\n      dup2\n      add\n      swap1\n      tag_55\n      swap2\n      swap1\n      tag_56\n      jump\t// in\n    tag_55:\n      tag_57\n      jump\t// in\n    tag_54:\n      stop\n        /* \"contracts/salary.sol\":123:143  address public admin */\n    tag_11:\n      callvalue\n      dup1\n      iszero\n      tag_58\n      jumpi\n      0x00\n      dup1\n      revert\n    tag_58:\n      pop\n      tag_59\n      tag_60\n      jump\t// in\n    tag_59:\n      mload(0x40)\n      tag_61\n      swap2\n      swap1\n      tag_62\n      jump\t// in\n    tag_61:\n      mload(0x40)\n      dup1\n      swap2\n      sub\n      swap1\n      return\n        /* \"contracts/salary.sol\":2894:3077  function changePaidStatus() public  onlyAdmin{\r... */\n    tag_15:\n        /* \"contracts/salary.sol\":795:800  admin */\n      0x00\n      dup1\n      sload\n      swap1\n      0x0100\n      exp\n      swap1\n      div\n      0xffffffffffffffffffffffffffffffffffffffff\n      and\n        /* \"contracts/salary.sol\":783:800  msg.sender==admin */\n      0xffffffffffffffffffffffffffffffffffffffff\n      and\n        /* \"contracts/salary.sol\":783:793  msg.sender */\n      caller\n        /* \"contracts/salary.sol\":783:800  msg.sender==admin */\n      0xffffffffffffffffffffffffffffffffffffffff\n      and\n      eq\n        /* \"contracts/salary.sol\":775:826  require(msg.sender==admin,\"you don't have rights \") */\n      tag_64\n      jumpi\n      mload(0x40)\n      0x08c379a000000000000000000000000000000000000000000000000000000000\n      dup2\n      mstore\n      0x04\n      add\n      tag_65\n      swap1\n      tag_66\n      jump\t// in\n    tag_65:\n      mload(0x40)\n      dup1\n      swap2\n      sub\n      swap1\n      revert\n    tag_64:\n        /* \"contracts/salary.sol\":2954:2960  uint i */\n      0x00\n        /* \"contracts/salary.sol\":2950:3070  for(uint i=0; i<AllEmployes.length;i++){\r... */\n    tag_68:\n        /* \"contracts/salary.sol\":2966:2977  AllEmployes */\n      0x04\n        /* \"contracts/salary.sol\":2966:2984  AllEmployes.length */\n      dup1\n      sload\n      swap1\n      pop\n        /* \"contracts/salary.sol\":2964:2965  i */\n      dup2\n        /* \"contracts/salary.sol\":2964:2984  i<AllEmployes.length */\n      lt\n        /* \"contracts/salary.sol\":2950:3070  for(uint i=0; i<AllEmployes.length;i++){\r... */\n      iszero\n      tag_69\n      jumpi\n        /* \"contracts/salary.sol\":3032:3043  AllEmployes */\n      0x04\n        /* \"contracts/salary.sol\":3044:3045  i */\n      dup2\n        /* \"contracts/salary.sol\":3032:3046  AllEmployes[i] */\n      dup2\n      sload\n      dup2\n      lt\n      tag_71\n      jumpi\n      tag_72\n      tag_73\n      jump\t// in\n    tag_72:\n    tag_71:\n      swap1\n      0x00\n      mstore\n      keccak256(0x00, 0x20)\n      swap1\n      0x04\n      mul\n      add\n        /* \"contracts/salary.sol\":3032:3058  AllEmployes[i].paid_status */\n      0x03\n      add\n      0x14\n      swap1\n      sload\n      swap1\n      0x0100\n      exp\n      swap1\n      div\n      0xff\n      and\n        /* \"contracts/salary.sol\":3031:3058  !AllEmployes[i].paid_status */\n      iszero\n        /* \"contracts/salary.sol\":3004:3015  AllEmployes */\n      0x04\n        /* \"contracts/salary.sol\":3016:3017  i */\n      dup3\n        /* \"contracts/salary.sol\":3004:3018  AllEmployes[i] */\n      dup2\n      sload\n      dup2\n      lt\n      tag_75\n      jumpi\n      tag_76\n      tag_73\n      jump\t// in\n    tag_76:\n    tag_75:\n      swap1\n      0x00\n      mstore\n      keccak256(0x00, 0x20)\n      swap1\n      0x04\n      mul\n      add\n        /* \"contracts/salary.sol\":3004:3030  AllEmployes[i].paid_status */\n      0x03\n      add\n      0x14\n        /* \"contracts/salary.sol\":3004:3058  AllEmployes[i].paid_status=!AllEmployes[i].paid_status */\n      0x0100\n      exp\n      dup2\n      sload\n      dup2\n      0xff\n      mul\n      not\n      and\n      swap1\n      dup4\n      iszero\n      iszero\n      mul\n      or\n      swap1\n      sstore\n      pop\n        /* \"contracts/salary.sol\":2985:2988  i++ */\n      dup1\n      dup1\n      tag_78\n      swap1\n      tag_79\n      jump\t// in\n    tag_78:\n      swap2\n      pop\n      pop\n        /* \"contracts/salary.sol\":2950:3070  for(uint i=0; i<AllEmployes.length;i++){\r... */\n      jump(tag_68)\n    tag_69:\n      pop\n        /* \"contracts/salary.sol\":2894:3077  function changePaidStatus() public  onlyAdmin{\r... */\n      jump\t// out\n        /* \"contracts/salary.sol\":1729:2332  function sendingSalariesToEmployee() public  payable  onlyAdmin {\r... */\n    tag_17:\n        /* \"contracts/salary.sol\":795:800  admin */\n      0x00\n      dup1\n      sload\n      swap1\n      0x0100\n      exp\n      swap1\n      div\n      0xffffffffffffffffffffffffffffffffffffffff\n      and\n        /* \"contracts/salary.sol\":783:800  msg.sender==admin */\n      0xffffffffffffffffffffffffffffffffffffffff\n      and\n        /* \"contracts/salary.sol\":783:793  msg.sender */\n      caller\n        /* \"contracts/salary.sol\":783:800  msg.sender==admin */\n      0xffffffffffffffffffffffffffffffffffffffff\n      and\n      eq\n        /* \"contracts/salary.sol\":775:826  require(msg.sender==admin,\"you don't have rights \") */\n      tag_81\n      jumpi\n      mload(0x40)\n      0x08c379a000000000000000000000000000000000000000000000000000000000\n      dup2\n      mstore\n      0x04\n      add\n      tag_82\n      swap1\n      tag_66\n      jump\t// in\n    tag_82:\n      mload(0x40)\n      dup1\n      swap2\n      sub\n      swap1\n      revert\n    tag_81:\n        /* \"contracts/salary.sol\":1818:1827  uint256 i */\n      0x00\n        /* \"contracts/salary.sol\":1814:2325  for(uint256 i= 0; i<AllEmployes.length; i++){\r... */\n    tag_84:\n        /* \"contracts/salary.sol\":1834:1845  AllEmployes */\n      0x04\n        /* \"contracts/salary.sol\":1834:1852  AllEmployes.length */\n      dup1\n      sload\n      swap1\n      pop\n        /* \"contracts/salary.sol\":1832:1833  i */\n      dup2\n        /* \"contracts/salary.sol\":1832:1852  i<AllEmployes.length */\n      lt\n        /* \"contracts/salary.sol\":1814:2325  for(uint256 i= 0; i<AllEmployes.length; i++){\r... */\n      iszero\n      tag_85\n      jumpi\n        /* \"contracts/salary.sol\":1875:1886  AllEmployes */\n      0x04\n        /* \"contracts/salary.sol\":1887:1888  i */\n      dup2\n        /* \"contracts/salary.sol\":1875:1889  AllEmployes[i] */\n      dup2\n      sload\n      dup2\n      lt\n      tag_87\n      jumpi\n      tag_88\n      tag_73\n      jump\t// in\n    tag_88:\n    tag_87:\n      swap1\n      0x00\n      mstore\n      keccak256(0x00, 0x20)\n      swap1\n      0x04\n      mul\n      add\n        /* \"contracts/salary.sol\":1875:1901  AllEmployes[i].paid_status */\n      0x03\n      add\n      0x14\n      swap1\n      sload\n      swap1\n      0x0100\n      exp\n      swap1\n      div\n      0xff\n      and\n        /* \"contracts/salary.sol\":1870:2314  if (!AllEmployes[i].paid_status)\r... */\n      tag_90\n      jumpi\n        /* \"contracts/salary.sol\":1957:1958  1 */\n      0x01\n        /* \"contracts/salary.sol\":1934:1945  AllEmployes */\n      0x04\n        /* \"contracts/salary.sol\":1946:1947  i */\n      dup3\n        /* \"contracts/salary.sol\":1934:1948  AllEmployes[i] */\n      dup2\n      sload\n      dup2\n      lt\n      tag_91\n      jumpi\n      tag_92\n      tag_73\n      jump\t// in\n    tag_92:\n    tag_91:\n      swap1\n      0x00\n      mstore\n      keccak256(0x00, 0x20)\n      swap1\n      0x04\n      mul\n      add\n        /* \"contracts/salary.sol\":1934:1953  AllEmployes[i].role */\n      0x01\n      add\n      sload\n        /* \"contracts/salary.sol\":1934:1958  AllEmployes[i].role == 1 */\n      eq\n        /* \"contracts/salary.sol\":1930:2303  if( AllEmployes[i].role == 1)\r... */\n      iszero\n      tag_94\n      jumpi\n        /* \"contracts/salary.sol\":1992:2045  sendingSalaries(AllEmployes[i].account_No,SalaryOfP1) */\n      tag_95\n        /* \"contracts/salary.sol\":2008:2019  AllEmployes */\n      0x04\n        /* \"contracts/salary.sol\":2020:2021  i */\n      dup3\n        /* \"contracts/salary.sol\":2008:2022  AllEmployes[i] */\n      dup2\n      sload\n      dup2\n      lt\n      tag_96\n      jumpi\n      tag_97\n      tag_73\n      jump\t// in\n    tag_97:\n    tag_96:\n      swap1\n      0x00\n      mstore\n      keccak256(0x00, 0x20)\n      swap1\n      0x04\n      mul\n      add\n        /* \"contracts/salary.sol\":2008:2033  AllEmployes[i].account_No */\n      0x03\n      add\n      0x00\n      swap1\n      sload\n      swap1\n      0x0100\n      exp\n      swap1\n      div\n      0xffffffffffffffffffffffffffffffffffffffff\n      and\n        /* \"contracts/salary.sol\":2034:2044  SalaryOfP1 */\n      sload(0x01)\n        /* \"contracts/salary.sol\":1992:2007  sendingSalaries */\n      tag_21\n        /* \"contracts/salary.sol\":1992:2045  sendingSalaries(AllEmployes[i].account_No,SalaryOfP1) */\n      jump\t// in\n    tag_95:\n      pop\n        /* \"contracts/salary.sol\":2091:2095  true */\n      0x01\n        /* \"contracts/salary.sol\":2064:2075  AllEmployes */\n      0x04\n        /* \"contracts/salary.sol\":2076:2077  i */\n      dup3\n        /* \"contracts/salary.sol\":2064:2078  AllEmployes[i] */\n      dup2\n      sload\n      dup2\n      lt\n      tag_99\n      jumpi\n      tag_100\n      tag_73\n      jump\t// in\n    tag_100:\n    tag_99:\n      swap1\n      0x00\n      mstore\n      keccak256(0x00, 0x20)\n      swap1\n      0x04\n      mul\n      add\n        /* \"contracts/salary.sol\":2064:2090  AllEmployes[i].paid_status */\n      0x03\n      add\n      0x14\n        /* \"contracts/salary.sol\":2064:2095  AllEmployes[i].paid_status=true */\n      0x0100\n      exp\n      dup2\n      sload\n      dup2\n      0xff\n      mul\n      not\n      and\n      swap1\n      dup4\n      iszero\n      iszero\n      mul\n      or\n      swap1\n      sstore\n      pop\n        /* \"contracts/salary.sol\":1930:2303  if( AllEmployes[i].role == 1)\r... */\n      jump(tag_102)\n    tag_94:\n        /* \"contracts/salary.sol\":2161:2162  2 */\n      0x02\n        /* \"contracts/salary.sol\":2138:2149  AllEmployes */\n      0x04\n        /* \"contracts/salary.sol\":2150:2151  i */\n      dup3\n        /* \"contracts/salary.sol\":2138:2152  AllEmployes[i] */\n      dup2\n      sload\n      dup2\n      lt\n      tag_103\n      jumpi\n      tag_104\n      tag_73\n      jump\t// in\n    tag_104:\n    tag_103:\n      swap1\n      0x00\n      mstore\n      keccak256(0x00, 0x20)\n      swap1\n      0x04\n      mul\n      add\n        /* \"contracts/salary.sol\":2138:2157  AllEmployes[i].role */\n      0x01\n      add\n      sload\n        /* \"contracts/salary.sol\":2138:2162  AllEmployes[i].role == 2 */\n      eq\n        /* \"contracts/salary.sol\":2134:2303  if (AllEmployes[i].role == 2 ){\r... */\n      iszero\n      tag_106\n      jumpi\n        /* \"contracts/salary.sol\":2183:2236  sendingSalaries(AllEmployes[i].account_No,SalaryOfP2) */\n      tag_107\n        /* \"contracts/salary.sol\":2199:2210  AllEmployes */\n      0x04\n        /* \"contracts/salary.sol\":2211:2212  i */\n      dup3\n        /* \"contracts/salary.sol\":2199:2213  AllEmployes[i] */\n      dup2\n      sload\n      dup2\n      lt\n      tag_108\n      jumpi\n      tag_109\n      tag_73\n      jump\t// in\n    tag_109:\n    tag_108:\n      swap1\n      0x00\n      mstore\n      keccak256(0x00, 0x20)\n      swap1\n      0x04\n      mul\n      add\n        /* \"contracts/salary.sol\":2199:2224  AllEmployes[i].account_No */\n      0x03\n      add\n      0x00\n      swap1\n      sload\n      swap1\n      0x0100\n      exp\n      swap1\n      div\n      0xffffffffffffffffffffffffffffffffffffffff\n      and\n        /* \"contracts/salary.sol\":2225:2235  SalaryOfP2 */\n      sload(0x02)\n        /* \"contracts/salary.sol\":2183:2198  sendingSalaries */\n      tag_21\n        /* \"contracts/salary.sol\":2183:2236  sendingSalaries(AllEmployes[i].account_No,SalaryOfP2) */\n      jump\t// in\n    tag_107:\n      pop\n        /* \"contracts/salary.sol\":2282:2286  true */\n      0x01\n        /* \"contracts/salary.sol\":2255:2266  AllEmployes */\n      0x04\n        /* \"contracts/salary.sol\":2267:2268  i */\n      dup3\n        /* \"contracts/salary.sol\":2255:2269  AllEmployes[i] */\n      dup2\n      sload\n      dup2\n      lt\n      tag_111\n      jumpi\n      tag_112\n      tag_73\n      jump\t// in\n    tag_112:\n    tag_111:\n      swap1\n      0x00\n      mstore\n      keccak256(0x00, 0x20)\n      swap1\n      0x04\n      mul\n      add\n        /* \"contracts/salary.sol\":2255:2281  AllEmployes[i].paid_status */\n      0x03\n      add\n      0x14\n        /* \"contracts/salary.sol\":2255:2286  AllEmployes[i].paid_status=true */\n      0x0100\n      exp\n      dup2\n      sload\n      dup2\n      0xff\n      mul\n      not\n      and\n      swap1\n      dup4\n      iszero\n      iszero\n      mul\n      or\n      swap1\n      sstore\n      pop\n        /* \"contracts/salary.sol\":2134:2303  if (AllEmployes[i].role == 2 ){\r... */\n    tag_106:\n        /* \"contracts/salary.sol\":1930:2303  if( AllEmployes[i].role == 1)\r... */\n    tag_102:\n        /* \"contracts/salary.sol\":1870:2314  if (!AllEmployes[i].paid_status)\r... */\n    tag_90:\n        /* \"contracts/salary.sol\":1854:1857  i++ */\n      dup1\n      dup1\n      tag_114\n      swap1\n      tag_79\n      jump\t// in\n    tag_114:\n      swap2\n      pop\n      pop\n        /* \"contracts/salary.sol\":1814:2325  for(uint256 i= 0; i<AllEmployes.length; i++){\r... */\n      jump(tag_84)\n    tag_85:\n      pop\n        /* \"contracts/salary.sol\":1729:2332  function sendingSalariesToEmployee() public  payable  onlyAdmin {\r... */\n      jump\t// out\n        /* \"contracts/salary.sol\":2360:2850  function sendingSalaries(address payable  _ToEmployeAddress ,uint _amount)  public onlyAdmin  payable   returns   (uint256){\r... */\n    tag_21:\n        /* \"contracts/salary.sol\":2475:2482  uint256 */\n      0x00\n        /* \"contracts/salary.sol\":795:800  admin */\n      dup1\n      0x00\n      swap1\n      sload\n      swap1\n      0x0100\n      exp\n      swap1\n      div\n      0xffffffffffffffffffffffffffffffffffffffff\n      and\n        /* \"contracts/salary.sol\":783:800  msg.sender==admin */\n      0xffffffffffffffffffffffffffffffffffffffff\n      and\n        /* \"contracts/salary.sol\":783:793  msg.sender */\n      caller\n        /* \"contracts/salary.sol\":783:800  msg.sender==admin */\n      0xffffffffffffffffffffffffffffffffffffffff\n      and\n      eq\n        /* \"contracts/salary.sol\":775:826  require(msg.sender==admin,\"you don't have rights \") */\n      tag_116\n      jumpi\n      mload(0x40)\n      0x08c379a000000000000000000000000000000000000000000000000000000000\n      dup2\n      mstore\n      0x04\n      add\n      tag_117\n      swap1\n      tag_66\n      jump\t// in\n    tag_117:\n      mload(0x40)\n      dup1\n      swap2\n      sub\n      swap1\n      revert\n    tag_116:\n        /* \"contracts/salary.sol\":2503:2521  GetEmployeeDetails */\n      0x03\n        /* \"contracts/salary.sol\":2503:2540  GetEmployeeDetails[_ToEmployeAddress] */\n      0x00\n        /* \"contracts/salary.sol\":2522:2539  _ToEmployeAddress */\n      dup5\n        /* \"contracts/salary.sol\":2503:2540  GetEmployeeDetails[_ToEmployeAddress] */\n      0xffffffffffffffffffffffffffffffffffffffff\n      and\n      0xffffffffffffffffffffffffffffffffffffffff\n      and\n      dup2\n      mstore\n      0x20\n      add\n      swap1\n      dup2\n      mstore\n      0x20\n      add\n      0x00\n      keccak256\n        /* \"contracts/salary.sol\":2503:2552  GetEmployeeDetails[_ToEmployeAddress].paid_status */\n      0x03\n      add\n      0x14\n      swap1\n      sload\n      swap1\n      0x0100\n      exp\n      swap1\n      div\n      0xff\n      and\n        /* \"contracts/salary.sol\":2502:2552  !GetEmployeeDetails[_ToEmployeAddress].paid_status */\n      iszero\n        /* \"contracts/salary.sol\":2494:2581  require(!GetEmployeeDetails[_ToEmployeAddress].paid_status,\"Salary already is creited\") */\n      tag_119\n      jumpi\n      mload(0x40)\n      0x08c379a000000000000000000000000000000000000000000000000000000000\n      dup2\n      mstore\n      0x04\n      add\n      tag_120\n      swap1\n      tag_121\n      jump\t// in\n    tag_120:\n      mload(0x40)\n      dup1\n      swap2\n      sub\n      swap1\n      revert\n    tag_119:\n        /* \"contracts/salary.sol\":2594:2606  bool sending */\n      0x00\n        /* \"contracts/salary.sol\":2609:2626  _ToEmployeAddress */\n      dup4\n        /* \"contracts/salary.sol\":2609:2631  _ToEmployeAddress.send */\n      0xffffffffffffffffffffffffffffffffffffffff\n      and\n        /* \"contracts/salary.sol\":2609:2640  _ToEmployeAddress.send(_amount) */\n      0x08fc\n        /* \"contracts/salary.sol\":2632:2639  _amount */\n      dup5\n        /* \"contracts/salary.sol\":2609:2640  _ToEmployeAddress.send(_amount) */\n      swap1\n      dup2\n      iszero\n      mul\n      swap1\n      mload(0x40)\n      0x00\n      mload(0x40)\n      dup1\n      dup4\n      sub\n      dup2\n      dup6\n      dup9\n      dup9\n      call\n      swap4\n      pop\n      pop\n      pop\n      pop\n        /* \"contracts/salary.sol\":2594:2640  bool sending = _ToEmployeAddress.send(_amount) */\n      swap1\n      pop\n        /* \"contracts/salary.sol\":2659:2666  sending */\n      dup1\n        /* \"contracts/salary.sol\":2651:2690  require(sending,\"Failed to send ETHER\") */\n      tag_123\n      jumpi\n      mload(0x40)\n      0x08c379a000000000000000000000000000000000000000000000000000000000\n      dup2\n      mstore\n      0x04\n      add\n      tag_124\n      swap1\n      tag_125\n      jump\t// in\n    tag_124:\n      mload(0x40)\n      dup1\n      swap2\n      sub\n      swap1\n      revert\n    tag_123:\n        /* \"contracts/salary.sol\":2771:2787  uint256  balanne */\n      0x00\n        /* \"contracts/salary.sol\":2789:2810  address(this).balance */\n      selfbalance\n        /* \"contracts/salary.sol\":2771:2810  uint256  balanne= address(this).balance */\n      swap1\n      pop\n        /* \"contracts/salary.sol\":2828:2835  balanne */\n      dup1\n        /* \"contracts/salary.sol\":2821:2835  return balanne */\n      swap3\n      pop\n      pop\n      pop\n        /* \"contracts/salary.sol\":2360:2850  function sendingSalaries(address payable  _ToEmployeAddress ,uint _amount)  public onlyAdmin  payable   returns   (uint256){\r... */\n      swap3\n      swap2\n      pop\n      pop\n      jump\t// out\n        /* \"contracts/salary.sol\":4121:4751  function RemoveEmployee ( address  _account_No) public onlyAdmin returns (bool status){\r... */\n    tag_28:\n        /* \"contracts/salary.sol\":4195:4206  bool status */\n      0x00\n        /* \"contracts/salary.sol\":795:800  admin */\n      dup1\n      0x00\n      swap1\n      sload\n      swap1\n      0x0100\n      exp\n      swap1\n      div\n      0xffffffffffffffffffffffffffffffffffffffff\n      and\n        /* \"contracts/salary.sol\":783:800  msg.sender==admin */\n      0xffffffffffffffffffffffffffffffffffffffff\n      and\n        /* \"contracts/salary.sol\":783:793  msg.sender */\n      caller\n        /* \"contracts/salary.sol\":783:800  msg.sender==admin */\n      0xffffffffffffffffffffffffffffffffffffffff\n      and\n      eq\n        /* \"contracts/salary.sol\":775:826  require(msg.sender==admin,\"you don't have rights \") */\n      tag_127\n      jumpi\n      mload(0x40)\n      0x08c379a000000000000000000000000000000000000000000000000000000000\n      dup2\n      mstore\n      0x04\n      add\n      tag_128\n      swap1\n      tag_66\n      jump\t// in\n    tag_128:\n      mload(0x40)\n      dup1\n      swap2\n      sub\n      swap1\n      revert\n    tag_127:\n        /* \"contracts/salary.sol\":4215:4228  uint256 count */\n      0x00\n        /* \"contracts/salary.sol\":4238:4266  Employe memory RemoveEmploye */\n      tag_130\n      tag_131\n      jump\t// in\n    tag_130:\n        /* \"contracts/salary.sol\":4281:4290  uint256 i */\n      0x00\n        /* \"contracts/salary.sol\":4295:4306  AllEmployes */\n      0x04\n        /* \"contracts/salary.sol\":4295:4313  AllEmployes.length */\n      dup1\n      sload\n      swap1\n      pop\n        /* \"contracts/salary.sol\":4293:4294  i */\n      dup2\n        /* \"contracts/salary.sol\":4293:4313  i<AllEmployes.length */\n      lt\n        /* \"contracts/salary.sol\":4276:4747  for (uint256 i=0;i<AllEmployes.length; i++ ){\r... */\n      iszero\n      tag_133\n      jumpi\n        /* \"contracts/salary.sol\":4367:4378  _account_No */\n      dup5\n        /* \"contracts/salary.sol\":4339:4378  AllEmployes[i].account_No ==_account_No */\n      0xffffffffffffffffffffffffffffffffffffffff\n      and\n        /* \"contracts/salary.sol\":4339:4350  AllEmployes */\n      0x04\n        /* \"contracts/salary.sol\":4351:4352  i */\n      dup3\n        /* \"contracts/salary.sol\":4339:4353  AllEmployes[i] */\n      dup2\n      sload\n      dup2\n      lt\n      tag_135\n      jumpi\n      tag_136\n      tag_73\n      jump\t// in\n    tag_136:\n    tag_135:\n      swap1\n      0x00\n      mstore\n      keccak256(0x00, 0x20)\n      swap1\n      0x04\n      mul\n      add\n        /* \"contracts/salary.sol\":4339:4364  AllEmployes[i].account_No */\n      0x03\n      add\n      0x00\n      swap1\n      sload\n      swap1\n      0x0100\n      exp\n      swap1\n      div\n      0xffffffffffffffffffffffffffffffffffffffff\n      and\n        /* \"contracts/salary.sol\":4339:4378  AllEmployes[i].account_No ==_account_No */\n      0xffffffffffffffffffffffffffffffffffffffff\n      and\n      eq\n        /* \"contracts/salary.sol\":4336:4596  if(AllEmployes[i].account_No ==_account_No){\r... */\n      iszero\n      tag_138\n      jumpi\n        /* \"contracts/salary.sol\":4410:4423  RemoveEmploye */\n      dup2\n        /* \"contracts/salary.sol\":4395:4406  AllEmployes */\n      0x04\n        /* \"contracts/salary.sol\":4407:4408  i */\n      dup3\n        /* \"contracts/salary.sol\":4395:4409  AllEmployes[i] */\n      dup2\n      sload\n      dup2\n      lt\n      tag_139\n      jumpi\n      tag_140\n      tag_73\n      jump\t// in\n    tag_140:\n    tag_139:\n      swap1\n      0x00\n      mstore\n      keccak256(0x00, 0x20)\n      swap1\n      0x04\n      mul\n      add\n        /* \"contracts/salary.sol\":4395:4423  AllEmployes[i]=RemoveEmploye */\n      0x00\n      dup3\n      add\n      mload\n      dup2\n      0x00\n      add\n      swap1\n      dup1\n      mload\n      swap1\n      0x20\n      add\n      swap1\n      tag_142\n      swap3\n      swap2\n      swap1\n      tag_143\n      jump\t// in\n    tag_142:\n      pop\n      0x20\n      dup3\n      add\n      mload\n      dup2\n      0x01\n      add\n      sstore\n      0x40\n      dup3\n      add\n      mload\n      dup2\n      0x02\n      add\n      sstore\n      0x60\n      dup3\n      add\n      mload\n      dup2\n      0x03\n      add\n      exp(0x0100, 0x00)\n      dup2\n      sload\n      dup2\n      0xffffffffffffffffffffffffffffffffffffffff\n      mul\n      not\n      and\n      swap1\n      dup4\n      0xffffffffffffffffffffffffffffffffffffffff\n      and\n      mul\n      or\n      swap1\n      sstore\n      pop\n      0x80\n      dup3\n      add\n      mload\n      dup2\n      0x03\n      add\n      exp(0x0100, 0x14)\n      dup2\n      sload\n      dup2\n      0xff\n      mul\n      not\n      and\n      swap1\n      dup4\n      iszero\n      iszero\n      mul\n      or\n      swap1\n      sstore\n      pop\n      swap1\n      pop\n      pop\n        /* \"contracts/salary.sol\":4454:4465  AllEmployes */\n      0x04\n        /* \"contracts/salary.sol\":4485:4486  1 */\n      0x01\n        /* \"contracts/salary.sol\":4466:4477  AllEmployes */\n      0x04\n        /* \"contracts/salary.sol\":4466:4484  AllEmployes.length */\n      dup1\n      sload\n      swap1\n      pop\n        /* \"contracts/salary.sol\":4466:4486  AllEmployes.length-1 */\n      tag_144\n      swap2\n      swap1\n      tag_145\n      jump\t// in\n    tag_144:\n        /* \"contracts/salary.sol\":4454:4487  AllEmployes[AllEmployes.length-1] */\n      dup2\n      sload\n      dup2\n      lt\n      tag_146\n      jumpi\n      tag_147\n      tag_73\n      jump\t// in\n    tag_147:\n    tag_146:\n      swap1\n      0x00\n      mstore\n      keccak256(0x00, 0x20)\n      swap1\n      0x04\n      mul\n      add\n        /* \"contracts/salary.sol\":4439:4450  AllEmployes */\n      0x04\n        /* \"contracts/salary.sol\":4451:4452  i */\n      dup3\n        /* \"contracts/salary.sol\":4439:4453  AllEmployes[i] */\n      dup2\n      sload\n      dup2\n      lt\n      tag_149\n      jumpi\n      tag_150\n      tag_73\n      jump\t// in\n    tag_150:\n    tag_149:\n      swap1\n      0x00\n      mstore\n      keccak256(0x00, 0x20)\n      swap1\n      0x04\n      mul\n      add\n        /* \"contracts/salary.sol\":4439:4487  AllEmployes[i]=AllEmployes[AllEmployes.length-1] */\n      0x00\n      dup3\n      add\n      dup2\n      0x00\n      add\n      swap1\n      dup1\n      sload\n      tag_152\n      swap1\n      tag_153\n      jump\t// in\n    tag_152:\n      tag_154\n      swap3\n      swap2\n      swap1\n      tag_155\n      jump\t// in\n    tag_154:\n      pop\n      0x01\n      dup3\n      add\n      sload\n      dup2\n      0x01\n      add\n      sstore\n      0x02\n      dup3\n      add\n      sload\n      dup2\n      0x02\n      add\n      sstore\n      0x03\n      dup3\n      add\n      0x00\n      swap1\n      sload\n      swap1\n      0x0100\n      exp\n      swap1\n      div\n      0xffffffffffffffffffffffffffffffffffffffff\n      and\n      dup2\n      0x03\n      add\n      exp(0x0100, 0x00)\n      dup2\n      sload\n      dup2\n      0xffffffffffffffffffffffffffffffffffffffff\n      mul\n      not\n      and\n      swap1\n      dup4\n      0xffffffffffffffffffffffffffffffffffffffff\n      and\n      mul\n      or\n      swap1\n      sstore\n      pop\n      0x03\n      dup3\n      add\n      0x14\n      swap1\n      sload\n      swap1\n      0x0100\n      exp\n      swap1\n      div\n      0xff\n      and\n      dup2\n      0x03\n      add\n      exp(0x0100, 0x14)\n      dup2\n      sload\n      dup2\n      0xff\n      mul\n      not\n      and\n      swap1\n      dup4\n      iszero\n      iszero\n      mul\n      or\n      swap1\n      sstore\n      pop\n      swap1\n      pop\n      pop\n        /* \"contracts/salary.sol\":4537:4550  RemoveEmploye */\n      dup2\n        /* \"contracts/salary.sol\":4503:4514  AllEmployes */\n      0x04\n        /* \"contracts/salary.sol\":4534:4535  1 */\n      0x01\n        /* \"contracts/salary.sol\":4515:4526  AllEmployes */\n      0x04\n        /* \"contracts/salary.sol\":4515:4533  AllEmployes.length */\n      dup1\n      sload\n      swap1\n      pop\n        /* \"contracts/salary.sol\":4515:4535  AllEmployes.length-1 */\n      tag_156\n      swap2\n      swap1\n      tag_145\n      jump\t// in\n    tag_156:\n        /* \"contracts/salary.sol\":4503:4536  AllEmployes[AllEmployes.length-1] */\n      dup2\n      sload\n      dup2\n      lt\n      tag_157\n      jumpi\n      tag_158\n      tag_73\n      jump\t// in\n    tag_158:\n    tag_157:\n      swap1\n      0x00\n      mstore\n      keccak256(0x00, 0x20)\n      swap1\n      0x04\n      mul\n      add\n        /* \"contracts/salary.sol\":4503:4550  AllEmployes[AllEmployes.length-1]=RemoveEmploye */\n      0x00\n      dup3\n      add\n      mload\n      dup2\n      0x00\n      add\n      swap1\n      dup1\n      mload\n      swap1\n      0x20\n      add\n      swap1\n      tag_160\n      swap3\n      swap2\n      swap1\n      tag_143\n      jump\t// in\n    tag_160:\n      pop\n      0x20\n      dup3\n      add\n      mload\n      dup2\n      0x01\n      add\n      sstore\n      0x40\n      dup3\n      add\n      mload\n      dup2\n      0x02\n      add\n      sstore\n      0x60\n      dup3\n      add\n      mload\n      dup2\n      0x03\n      add\n      exp(0x0100, 0x00)\n      dup2\n      sload\n      dup2\n      0xffffffffffffffffffffffffffffffffffffffff\n      mul\n      not\n      and\n      swap1\n      dup4\n      0xffffffffffffffffffffffffffffffffffffffff\n      and\n      mul\n      or\n      swap1\n      sstore\n      pop\n      0x80\n      dup3\n      add\n      mload\n      dup2\n      0x03\n      add\n      exp(0x0100, 0x14)\n      dup2\n      sload\n      dup2\n      0xff\n      mul\n      not\n      and\n      swap1\n      dup4\n      iszero\n      iszero\n      mul\n      or\n      swap1\n      sstore\n      pop\n      swap1\n      pop\n      pop\n        /* \"contracts/salary.sol\":4566:4577  AllEmployes */\n      0x04\n        /* \"contracts/salary.sol\":4566:4583  AllEmployes.pop() */\n      dup1\n      sload\n      dup1\n      tag_161\n      jumpi\n      tag_162\n      tag_163\n      jump\t// in\n    tag_162:\n    tag_161:\n      0x01\n      swap1\n      sub\n      dup2\n      dup2\n      swap1\n      0x00\n      mstore\n      keccak256(0x00, 0x20)\n      swap1\n      0x04\n      mul\n      add\n      0x00\n      dup1\n      dup3\n      add\n      0x00\n      tag_165\n      swap2\n      swap1\n      tag_166\n      jump\t// in\n    tag_165:\n      0x01\n      dup3\n      add\n      0x00\n      swap1\n      sstore\n      0x02\n      dup3\n      add\n      0x00\n      swap1\n      sstore\n      0x03\n      dup3\n      add\n      exp(0x0100, 0x00)\n      dup2\n      sload\n      swap1\n      0xffffffffffffffffffffffffffffffffffffffff\n      mul\n      not\n      and\n      swap1\n      sstore\n      0x03\n      dup3\n      add\n      exp(0x0100, 0x14)\n      dup2\n      sload\n      swap1\n      0xff\n      mul\n      not\n      and\n      swap1\n      sstore\n      pop\n      pop\n      swap1\n      sstore\n        /* \"contracts/salary.sol\":4336:4596  if(AllEmployes[i].account_No ==_account_No){\r... */\n    tag_138:\n        /* \"contracts/salary.sol\":4614:4615  1 */\n      0x01\n        /* \"contracts/salary.sol\":4607:4615  count+=1 */\n      dup4\n      tag_167\n      swap2\n      swap1\n      tag_168\n      jump\t// in\n    tag_167:\n      swap3\n      pop\n        /* \"contracts/salary.sol\":4654:4659  count */\n      dup3\n        /* \"contracts/salary.sol\":4632:4643  AllEmployes */\n      0x04\n        /* \"contracts/salary.sol\":4632:4650  AllEmployes.length */\n      dup1\n      sload\n      swap1\n      pop\n        /* \"contracts/salary.sol\":4632:4659  AllEmployes.length == count */\n      eq\n        /* \"contracts/salary.sol\":4629:4717  if(AllEmployes.length == count){\r... */\n      iszero\n      tag_169\n      jumpi\n        /* \"contracts/salary.sol\":4676:4704  revert(\"employee not found\") */\n      mload(0x40)\n      0x08c379a000000000000000000000000000000000000000000000000000000000\n      dup2\n      mstore\n      0x04\n      add\n      tag_170\n      swap1\n      tag_171\n      jump\t// in\n    tag_170:\n      mload(0x40)\n      dup1\n      swap2\n      sub\n      swap1\n      revert\n        /* \"contracts/salary.sol\":4629:4717  if(AllEmployes.length == count){\r... */\n    tag_169:\n        /* \"contracts/salary.sol\":4734:4738  true */\n      0x01\n        /* \"contracts/salary.sol\":4727:4738  return true */\n      swap4\n      pop\n      pop\n      pop\n      pop\n      jump(tag_129)\n        /* \"contracts/salary.sol\":4276:4747  for (uint256 i=0;i<AllEmployes.length; i++ ){\r... */\n    tag_133:\n      pop\n        /* \"contracts/salary.sol\":4207:4751  {\r... */\n      pop\n      pop\n        /* \"contracts/salary.sol\":838:839  _ */\n    tag_129:\n        /* \"contracts/salary.sol\":4121:4751  function RemoveEmployee ( address  _account_No) public onlyAdmin returns (bool status){\r... */\n      swap2\n      swap1\n      pop\n      jump\t// out\n        /* \"contracts/salary.sol\":1132:1669  function Employe_Registration (string memory name,  uint role,uint _Id_No,address payable _account_No, bool _paidStatus) public   {\r... */\n    tag_35:\n        /* \"contracts/salary.sol\":1327:1338  _account_No */\n      dup2\n        /* \"contracts/salary.sol\":1281:1338  GetEmployeeDetails[_account_No].account_No != _account_No */\n      0xffffffffffffffffffffffffffffffffffffffff\n      and\n        /* \"contracts/salary.sol\":1281:1299  GetEmployeeDetails */\n      0x03\n        /* \"contracts/salary.sol\":1281:1312  GetEmployeeDetails[_account_No] */\n      0x00\n        /* \"contracts/salary.sol\":1300:1311  _account_No */\n      dup5\n        /* \"contracts/salary.sol\":1281:1312  GetEmployeeDetails[_account_No] */\n      0xffffffffffffffffffffffffffffffffffffffff\n      and\n      0xffffffffffffffffffffffffffffffffffffffff\n      and\n      dup2\n      mstore\n      0x20\n      add\n      swap1\n      dup2\n      mstore\n      0x20\n      add\n      0x00\n      keccak256\n        /* \"contracts/salary.sol\":1281:1323  GetEmployeeDetails[_account_No].account_No */\n      0x03\n      add\n      0x00\n      swap1\n      sload\n      swap1\n      0x0100\n      exp\n      swap1\n      div\n      0xffffffffffffffffffffffffffffffffffffffff\n      and\n        /* \"contracts/salary.sol\":1281:1338  GetEmployeeDetails[_account_No].account_No != _account_No */\n      0xffffffffffffffffffffffffffffffffffffffff\n      and\n      eq\n      iszero\n        /* \"contracts/salary.sol\":1273:1363  require(GetEmployeeDetails[_account_No].account_No != _account_No,\"user already register\") */\n      tag_174\n      jumpi\n      mload(0x40)\n      0x08c379a000000000000000000000000000000000000000000000000000000000\n      dup2\n      mstore\n      0x04\n      add\n      tag_175\n      swap1\n      tag_176\n      jump\t// in\n    tag_175:\n      mload(0x40)\n      dup1\n      swap2\n      sub\n      swap1\n      revert\n    tag_174:\n        /* \"contracts/salary.sol\":1374:1398  Employe storage  employe */\n      0x00\n        /* \"contracts/salary.sol\":1401:1419  GetEmployeeDetails */\n      0x03\n        /* \"contracts/salary.sol\":1401:1432  GetEmployeeDetails[_account_No] */\n      0x00\n        /* \"contracts/salary.sol\":1420:1431  _account_No */\n      dup5\n        /* \"contracts/salary.sol\":1401:1432  GetEmployeeDetails[_account_No] */\n      0xffffffffffffffffffffffffffffffffffffffff\n      and\n      0xffffffffffffffffffffffffffffffffffffffff\n      and\n      dup2\n      mstore\n      0x20\n      add\n      swap1\n      dup2\n      mstore\n      0x20\n      add\n      0x00\n      keccak256\n        /* \"contracts/salary.sol\":1374:1432  Employe storage  employe = GetEmployeeDetails[_account_No] */\n      swap1\n      pop\n        /* \"contracts/salary.sol\":1456:1460  name */\n      dup6\n        /* \"contracts/salary.sol\":1443:1450  employe */\n      dup2\n        /* \"contracts/salary.sol\":1443:1455  employe.name */\n      0x00\n      add\n        /* \"contracts/salary.sol\":1443:1460  employe.name=name */\n      swap1\n      dup1\n      mload\n      swap1\n      0x20\n      add\n      swap1\n      tag_177\n      swap3\n      swap2\n      swap1\n      tag_143\n      jump\t// in\n    tag_177:\n      pop\n        /* \"contracts/salary.sol\":1484:1488  role */\n      dup5\n        /* \"contracts/salary.sol\":1471:1478  employe */\n      dup2\n        /* \"contracts/salary.sol\":1471:1483  employe.role */\n      0x01\n      add\n        /* \"contracts/salary.sol\":1471:1488  employe.role=role */\n      dup2\n      swap1\n      sstore\n      pop\n        /* \"contracts/salary.sol\":1513:1519  _Id_No */\n      dup4\n        /* \"contracts/salary.sol\":1499:1506  employe */\n      dup2\n        /* \"contracts/salary.sol\":1499:1512  employe.Id_No */\n      0x02\n      add\n        /* \"contracts/salary.sol\":1499:1519  employe.Id_No=_Id_No */\n      dup2\n      swap1\n      sstore\n      pop\n        /* \"contracts/salary.sol\":1549:1560  _account_No */\n      dup3\n        /* \"contracts/salary.sol\":1530:1537  employe */\n      dup2\n        /* \"contracts/salary.sol\":1530:1548  employe.account_No */\n      0x03\n      add\n      0x00\n        /* \"contracts/salary.sol\":1530:1560  employe.account_No=_account_No */\n      0x0100\n      exp\n      dup2\n      sload\n      dup2\n      0xffffffffffffffffffffffffffffffffffffffff\n      mul\n      not\n      and\n      swap1\n      dup4\n      0xffffffffffffffffffffffffffffffffffffffff\n      and\n      mul\n      or\n      swap1\n      sstore\n      pop\n        /* \"contracts/salary.sol\":1591:1602  _paidStatus */\n      dup2\n        /* \"contracts/salary.sol\":1571:1578  employe */\n      dup2\n        /* \"contracts/salary.sol\":1571:1590  employe.paid_status */\n      0x03\n      add\n      0x14\n        /* \"contracts/salary.sol\":1571:1602  employe.paid_status=_paidStatus */\n      0x0100\n      exp\n      dup2\n      sload\n      dup2\n      0xff\n      mul\n      not\n      and\n      swap1\n      dup4\n      iszero\n      iszero\n      mul\n      or\n      swap1\n      sstore\n      pop\n        /* \"contracts/salary.sol\":1626:1637  AllEmployes */\n      0x04\n        /* \"contracts/salary.sol\":1643:1650  employe */\n      dup2\n        /* \"contracts/salary.sol\":1626:1651  AllEmployes.push(employe) */\n      swap1\n      dup1\n      0x01\n      dup2\n      sload\n      add\n      dup1\n      dup3\n      sstore\n      dup1\n      swap2\n      pop\n      pop\n      0x01\n      swap1\n      sub\n      swap1\n      0x00\n      mstore\n      keccak256(0x00, 0x20)\n      swap1\n      0x04\n      mul\n      add\n      0x00\n      swap1\n      swap2\n      swap1\n      swap2\n      swap1\n      swap2\n      pop\n      0x00\n      dup3\n      add\n      dup2\n      0x00\n      add\n      swap1\n      dup1\n      sload\n      tag_179\n      swap1\n      tag_153\n      jump\t// in\n    tag_179:\n      tag_180\n      swap3\n      swap2\n      swap1\n      tag_155\n      jump\t// in\n    tag_180:\n      pop\n      0x01\n      dup3\n      add\n      sload\n      dup2\n      0x01\n      add\n      sstore\n      0x02\n      dup3\n      add\n      sload\n      dup2\n      0x02\n      add\n      sstore\n      0x03\n      dup3\n      add\n      0x00\n      swap1\n      sload\n      swap1\n      0x0100\n      exp\n      swap1\n      div\n      0xffffffffffffffffffffffffffffffffffffffff\n      and\n      dup2\n      0x03\n      add\n      exp(0x0100, 0x00)\n      dup2\n      sload\n      dup2\n      0xffffffffffffffffffffffffffffffffffffffff\n      mul\n      not\n      and\n      swap1\n      dup4\n      0xffffffffffffffffffffffffffffffffffffffff\n      and\n      mul\n      or\n      swap1\n      sstore\n      pop\n      0x03\n      dup3\n      add\n      0x14\n      swap1\n      sload\n      swap1\n      0x0100\n      exp\n      swap1\n      div\n      0xff\n      and\n      dup2\n      0x03\n      add\n      exp(0x0100, 0x14)\n      dup2\n      sload\n      dup2\n      0xff\n      mul\n      not\n      and\n      swap1\n      dup4\n      iszero\n      iszero\n      mul\n      or\n      swap1\n      sstore\n      pop\n      pop\n      pop\n        /* \"contracts/salary.sol\":1262:1669  {\r... */\n      pop\n        /* \"contracts/salary.sol\":1132:1669  function Employe_Registration (string memory name,  uint role,uint _Id_No,address payable _account_No, bool _paidStatus) public   {\r... */\n      pop\n      pop\n      pop\n      pop\n      pop\n      jump\t// out\n        /* \"contracts/salary.sol\":700:729  Employe [] public AllEmployes */\n    tag_40:\n      0x04\n      dup2\n      dup2\n      sload\n      dup2\n      lt\n      tag_181\n      jumpi\n      0x00\n      dup1\n      revert\n    tag_181:\n      swap1\n      0x00\n      mstore\n      keccak256(0x00, 0x20)\n      swap1\n      0x04\n      mul\n      add\n      0x00\n      swap2\n      pop\n      swap1\n      pop\n      dup1\n      0x00\n      add\n      dup1\n      sload\n      tag_183\n      swap1\n      tag_153\n      jump\t// in\n    tag_183:\n      dup1\n      0x1f\n      add\n      0x20\n      dup1\n      swap2\n      div\n      mul\n      0x20\n      add\n      mload(0x40)\n      swap1\n      dup2\n      add\n      0x40\n      mstore\n      dup1\n      swap3\n      swap2\n      swap1\n      dup2\n      dup2\n      mstore\n      0x20\n      add\n      dup3\n      dup1\n      sload\n      tag_184\n      swap1\n      tag_153\n      jump\t// in\n    tag_184:\n      dup1\n      iszero\n      tag_185\n      jumpi\n      dup1\n      0x1f\n      lt\n      tag_186\n      jumpi\n      0x0100\n      dup1\n      dup4\n      sload\n      div\n      mul\n      dup4\n      mstore\n      swap2\n      0x20\n      add\n      swap2\n      jump(tag_185)\n    tag_186:\n      dup3\n      add\n      swap2\n      swap1\n      0x00\n      mstore\n      keccak256(0x00, 0x20)\n      swap1\n    tag_187:\n      dup2\n      sload\n      dup2\n      mstore\n      swap1\n      0x01\n      add\n      swap1\n      0x20\n      add\n      dup1\n      dup4\n      gt\n      tag_187\n      jumpi\n      dup3\n      swap1\n      sub\n      0x1f\n      and\n      dup3\n      add\n      swap2\n    tag_185:\n      pop\n      pop\n      pop\n      pop\n      pop\n      swap1\n      dup1\n      0x01\n      add\n      sload\n      swap1\n      dup1\n      0x02\n      add\n      sload\n      swap1\n      dup1\n      0x03\n      add\n      0x00\n      swap1\n      sload\n      swap1\n      0x0100\n      exp\n      swap1\n      div\n      0xffffffffffffffffffffffffffffffffffffffff\n      and\n      swap1\n      dup1\n      0x03\n      add\n      0x14\n      swap1\n      sload\n      swap1\n      0x0100\n      exp\n      swap1\n      div\n      0xff\n      and\n      swap1\n      pop\n      dup6\n      jump\t// out\n        /* \"contracts/salary.sol\":3135:3544  function CheckSalaryStatus (address _account_No)  public onlyAdmin view  returns (bool status){\r... */\n    tag_46:\n        /* \"contracts/salary.sol\":3217:3228  bool status */\n      0x00\n        /* \"contracts/salary.sol\":795:800  admin */\n      dup1\n      0x00\n      swap1\n      sload\n      swap1\n      0x0100\n      exp\n      swap1\n      div\n      0xffffffffffffffffffffffffffffffffffffffff\n      and\n        /* \"contracts/salary.sol\":783:800  msg.sender==admin */\n      0xffffffffffffffffffffffffffffffffffffffff\n      and\n        /* \"contracts/salary.sol\":783:793  msg.sender */\n      caller\n        /* \"contracts/salary.sol\":783:800  msg.sender==admin */\n      0xffffffffffffffffffffffffffffffffffffffff\n      and\n      eq\n        /* \"contracts/salary.sol\":775:826  require(msg.sender==admin,\"you don't have rights \") */\n      tag_189\n      jumpi\n      mload(0x40)\n      0x08c379a000000000000000000000000000000000000000000000000000000000\n      dup2\n      mstore\n      0x04\n      add\n      tag_190\n      swap1\n      tag_66\n      jump\t// in\n    tag_190:\n      mload(0x40)\n      dup1\n      swap2\n      sub\n      swap1\n      revert\n    tag_189:\n        /* \"contracts/salary.sol\":3238:3251  uint256 count */\n      0x00\n        /* \"contracts/salary.sol\":3270:3276  uint i */\n      dup1\n        /* \"contracts/salary.sol\":3265:3539  for (uint i=0;i<AllEmployes.length; i++ ){\r... */\n    tag_192:\n        /* \"contracts/salary.sol\":3281:3292  AllEmployes */\n      0x04\n        /* \"contracts/salary.sol\":3281:3299  AllEmployes.length */\n      dup1\n      sload\n      swap1\n      pop\n        /* \"contracts/salary.sol\":3279:3280  i */\n      dup2\n        /* \"contracts/salary.sol\":3279:3299  i<AllEmployes.length */\n      lt\n        /* \"contracts/salary.sol\":3265:3539  for (uint i=0;i<AllEmployes.length; i++ ){\r... */\n      iszero\n      tag_193\n      jumpi\n        /* \"contracts/salary.sol\":3349:3360  _account_No */\n      dup4\n        /* \"contracts/salary.sol\":3321:3360  AllEmployes[i].account_No ==_account_No */\n      0xffffffffffffffffffffffffffffffffffffffff\n      and\n        /* \"contracts/salary.sol\":3321:3332  AllEmployes */\n      0x04\n        /* \"contracts/salary.sol\":3333:3334  i */\n      dup3\n        /* \"contracts/salary.sol\":3321:3335  AllEmployes[i] */\n      dup2\n      sload\n      dup2\n      lt\n      tag_195\n      jumpi\n      tag_196\n      tag_73\n      jump\t// in\n    tag_196:\n    tag_195:\n      swap1\n      0x00\n      mstore\n      keccak256(0x00, 0x20)\n      swap1\n      0x04\n      mul\n      add\n        /* \"contracts/salary.sol\":3321:3346  AllEmployes[i].account_No */\n      0x03\n      add\n      0x00\n      swap1\n      sload\n      swap1\n      0x0100\n      exp\n      swap1\n      div\n      0xffffffffffffffffffffffffffffffffffffffff\n      and\n        /* \"contracts/salary.sol\":3321:3360  AllEmployes[i].account_No ==_account_No */\n      0xffffffffffffffffffffffffffffffffffffffff\n      and\n      eq\n        /* \"contracts/salary.sol\":3318:3422  if(AllEmployes[i].account_No ==_account_No){\r... */\n      iszero\n      tag_198\n      jumpi\n        /* \"contracts/salary.sol\":3383:3394  AllEmployes */\n      0x04\n        /* \"contracts/salary.sol\":3395:3396  i */\n      dup2\n        /* \"contracts/salary.sol\":3383:3397  AllEmployes[i] */\n      dup2\n      sload\n      dup2\n      lt\n      tag_199\n      jumpi\n      tag_200\n      tag_73\n      jump\t// in\n    tag_200:\n    tag_199:\n      swap1\n      0x00\n      mstore\n      keccak256(0x00, 0x20)\n      swap1\n      0x04\n      mul\n      add\n        /* \"contracts/salary.sol\":3383:3409  AllEmployes[i].paid_status */\n      0x03\n      add\n      0x14\n      swap1\n      sload\n      swap1\n      0x0100\n      exp\n      swap1\n      div\n      0xff\n      and\n        /* \"contracts/salary.sol\":3376:3409  return AllEmployes[i].paid_status */\n      swap3\n      pop\n      pop\n      pop\n      jump(tag_191)\n        /* \"contracts/salary.sol\":3318:3422  if(AllEmployes[i].account_No ==_account_No){\r... */\n    tag_198:\n        /* \"contracts/salary.sol\":3438:3439  1 */\n      0x01\n        /* \"contracts/salary.sol\":3431:3439  count+=1 */\n      dup3\n      tag_202\n      swap2\n      swap1\n      tag_168\n      jump\t// in\n    tag_202:\n      swap2\n      pop\n        /* \"contracts/salary.sol\":3471:3476  count */\n      dup2\n        /* \"contracts/salary.sol\":3449:3460  AllEmployes */\n      0x04\n        /* \"contracts/salary.sol\":3449:3467  AllEmployes.length */\n      dup1\n      sload\n      swap1\n      pop\n        /* \"contracts/salary.sol\":3449:3476  AllEmployes.length == count */\n      eq\n        /* \"contracts/salary.sol\":3446:3534  if(AllEmployes.length == count){\r... */\n      iszero\n      tag_203\n      jumpi\n        /* \"contracts/salary.sol\":3493:3521  revert(\"employee not found\") */\n      mload(0x40)\n      0x08c379a000000000000000000000000000000000000000000000000000000000\n      dup2\n      mstore\n      0x04\n      add\n      tag_204\n      swap1\n      tag_171\n      jump\t// in\n    tag_204:\n      mload(0x40)\n      dup1\n      swap2\n      sub\n      swap1\n      revert\n        /* \"contracts/salary.sol\":3446:3534  if(AllEmployes.length == count){\r... */\n    tag_203:\n        /* \"contracts/salary.sol\":3301:3304  i++ */\n      dup1\n      dup1\n      tag_205\n      swap1\n      tag_79\n      jump\t// in\n    tag_205:\n      swap2\n      pop\n      pop\n        /* \"contracts/salary.sol\":3265:3539  for (uint i=0;i<AllEmployes.length; i++ ){\r... */\n      jump(tag_192)\n    tag_193:\n      pop\n        /* \"contracts/salary.sol\":3229:3544  {\r... */\n      pop\n        /* \"contracts/salary.sol\":838:839  _ */\n    tag_191:\n        /* \"contracts/salary.sol\":3135:3544  function CheckSalaryStatus (address _account_No)  public onlyAdmin view  returns (bool status){\r... */\n      swap2\n      swap1\n      pop\n      jump\t// out\n        /* \"contracts/salary.sol\":618:670  mapping (address=>Employe) public GetEmployeeDetails */\n    tag_51:\n      mstore(0x20, 0x03)\n      dup1\n      0x00\n      mstore\n      keccak256(0x00, 0x40)\n      0x00\n      swap2\n      pop\n      swap1\n      pop\n      dup1\n      0x00\n      add\n      dup1\n      sload\n      tag_206\n      swap1\n      tag_153\n      jump\t// in\n    tag_206:\n      dup1\n      0x1f\n      add\n      0x20\n      dup1\n      swap2\n      div\n      mul\n      0x20\n      add\n      mload(0x40)\n      swap1\n      dup2\n      add\n      0x40\n      mstore\n      dup1\n      swap3\n      swap2\n      swap1\n      dup2\n      dup2\n      mstore\n      0x20\n      add\n      dup3\n      dup1\n      sload\n      tag_207\n      swap1\n      tag_153\n      jump\t// in\n    tag_207:\n      dup1\n      iszero\n      tag_208\n      jumpi\n      dup1\n      0x1f\n      lt\n      tag_209\n      jumpi\n      0x0100\n      dup1\n      dup4\n      sload\n      div\n      mul\n      dup4\n      mstore\n      swap2\n      0x20\n      add\n      swap2\n      jump(tag_208)\n    tag_209:\n      dup3\n      add\n      swap2\n      swap1\n      0x00\n      mstore\n      keccak256(0x00, 0x20)\n      swap1\n    tag_210:\n      dup2\n      sload\n      dup2\n      mstore\n      swap1\n      0x01\n      add\n      swap1\n      0x20\n      add\n      dup1\n      dup4\n      gt\n      tag_210\n      jumpi\n      dup3\n      swap1\n      sub\n      0x1f\n      and\n      dup3\n      add\n      swap2\n    tag_208:\n      pop\n      pop\n      pop\n      pop\n      pop\n      swap1\n      dup1\n      0x01\n      add\n      sload\n      swap1\n      dup1\n      0x02\n      add\n      sload\n      swap1\n      dup1\n      0x03\n      add\n      0x00\n      swap1\n      sload\n      swap1\n      0x0100\n      exp\n      swap1\n      div\n      0xffffffffffffffffffffffffffffffffffffffff\n      and\n      swap1\n      dup1\n      0x03\n      add\n      0x14\n      swap1\n      sload\n      swap1\n      0x0100\n      exp\n      swap1\n      div\n      0xff\n      and\n      swap1\n      pop\n      dup6\n      jump\t// out\n        /* \"contracts/salary.sol\":3595:4084  function ChangePostion( address _account_No, uint256   ChangePosition) public onlyAdmin {\r... */\n    tag_57:\n        /* \"contracts/salary.sol\":795:800  admin */\n      0x00\n      dup1\n      sload\n      swap1\n      0x0100\n      exp\n      swap1\n      div\n      0xffffffffffffffffffffffffffffffffffffffff\n      and\n        /* \"contracts/salary.sol\":783:800  msg.sender==admin */\n      0xffffffffffffffffffffffffffffffffffffffff\n      and\n        /* \"contracts/salary.sol\":783:793  msg.sender */\n      caller\n        /* \"contracts/salary.sol\":783:800  msg.sender==admin */\n      0xffffffffffffffffffffffffffffffffffffffff\n      and\n      eq\n        /* \"contracts/salary.sol\":775:826  require(msg.sender==admin,\"you don't have rights \") */\n      tag_212\n      jumpi\n      mload(0x40)\n      0x08c379a000000000000000000000000000000000000000000000000000000000\n      dup2\n      mstore\n      0x04\n      add\n      tag_213\n      swap1\n      tag_66\n      jump\t// in\n    tag_213:\n      mload(0x40)\n      dup1\n      swap2\n      sub\n      swap1\n      revert\n    tag_212:\n        /* \"contracts/salary.sol\":3691:3704  uint256 count */\n      0x00\n        /* \"contracts/salary.sol\":3775:3789  ChangePosition */\n      dup2\n        /* \"contracts/salary.sol\":3738:3756  GetEmployeeDetails */\n      0x03\n        /* \"contracts/salary.sol\":3738:3769  GetEmployeeDetails[_account_No] */\n      0x00\n        /* \"contracts/salary.sol\":3757:3768  _account_No */\n      dup6\n        /* \"contracts/salary.sol\":3738:3769  GetEmployeeDetails[_account_No] */\n      0xffffffffffffffffffffffffffffffffffffffff\n      and\n      0xffffffffffffffffffffffffffffffffffffffff\n      and\n      dup2\n      mstore\n      0x20\n      add\n      swap1\n      dup2\n      mstore\n      0x20\n      add\n      0x00\n      keccak256\n        /* \"contracts/salary.sol\":3738:3774  GetEmployeeDetails[_account_No].role */\n      0x01\n      add\n        /* \"contracts/salary.sol\":3738:3789  GetEmployeeDetails[_account_No].role=ChangePosition */\n      dup2\n      swap1\n      sstore\n      pop\n        /* \"contracts/salary.sol\":3806:3812  uint i */\n      0x00\n        /* \"contracts/salary.sol\":3801:4075  for (uint i=0;i<AllEmployes.length; i++ ){\r... */\n    tag_215:\n        /* \"contracts/salary.sol\":3817:3828  AllEmployes */\n      0x04\n        /* \"contracts/salary.sol\":3817:3835  AllEmployes.length */\n      dup1\n      sload\n      swap1\n      pop\n        /* \"contracts/salary.sol\":3815:3816  i */\n      dup2\n        /* \"contracts/salary.sol\":3815:3835  i<AllEmployes.length */\n      lt\n        /* \"contracts/salary.sol\":3801:4075  for (uint i=0;i<AllEmployes.length; i++ ){\r... */\n      iszero\n      tag_216\n      jumpi\n        /* \"contracts/salary.sol\":3885:3896  _account_No */\n      dup4\n        /* \"contracts/salary.sol\":3857:3896  AllEmployes[i].account_No ==_account_No */\n      0xffffffffffffffffffffffffffffffffffffffff\n      and\n        /* \"contracts/salary.sol\":3857:3868  AllEmployes */\n      0x04\n        /* \"contracts/salary.sol\":3869:3870  i */\n      dup3\n        /* \"contracts/salary.sol\":3857:3871  AllEmployes[i] */\n      dup2\n      sload\n      dup2\n      lt\n      tag_218\n      jumpi\n      tag_219\n      tag_73\n      jump\t// in\n    tag_219:\n    tag_218:\n      swap1\n      0x00\n      mstore\n      keccak256(0x00, 0x20)\n      swap1\n      0x04\n      mul\n      add\n        /* \"contracts/salary.sol\":3857:3882  AllEmployes[i].account_No */\n      0x03\n      add\n      0x00\n      swap1\n      sload\n      swap1\n      0x0100\n      exp\n      swap1\n      div\n      0xffffffffffffffffffffffffffffffffffffffff\n      and\n        /* \"contracts/salary.sol\":3857:3896  AllEmployes[i].account_No ==_account_No */\n      0xffffffffffffffffffffffffffffffffffffffff\n      and\n      eq\n        /* \"contracts/salary.sol\":3854:3958  if(AllEmployes[i].account_No ==_account_No){\r... */\n      iszero\n      tag_221\n      jumpi\n        /* \"contracts/salary.sol\":3931:3945  ChangePosition */\n      dup3\n        /* \"contracts/salary.sol\":3911:3922  AllEmployes */\n      0x04\n        /* \"contracts/salary.sol\":3923:3924  i */\n      dup3\n        /* \"contracts/salary.sol\":3911:3925  AllEmployes[i] */\n      dup2\n      sload\n      dup2\n      lt\n      tag_222\n      jumpi\n      tag_223\n      tag_73\n      jump\t// in\n    tag_223:\n    tag_222:\n      swap1\n      0x00\n      mstore\n      keccak256(0x00, 0x20)\n      swap1\n      0x04\n      mul\n      add\n        /* \"contracts/salary.sol\":3911:3930  AllEmployes[i].role */\n      0x01\n      add\n        /* \"contracts/salary.sol\":3911:3945  AllEmployes[i].role=ChangePosition */\n      dup2\n      swap1\n      sstore\n      pop\n        /* \"contracts/salary.sol\":3854:3958  if(AllEmployes[i].account_No ==_account_No){\r... */\n    tag_221:\n        /* \"contracts/salary.sol\":3974:3975  1 */\n      0x01\n        /* \"contracts/salary.sol\":3967:3975  count+=1 */\n      dup3\n      tag_225\n      swap2\n      swap1\n      tag_168\n      jump\t// in\n    tag_225:\n      swap2\n      pop\n        /* \"contracts/salary.sol\":4007:4012  count */\n      dup2\n        /* \"contracts/salary.sol\":3985:3996  AllEmployes */\n      0x04\n        /* \"contracts/salary.sol\":3985:4003  AllEmployes.length */\n      dup1\n      sload\n      swap1\n      pop\n        /* \"contracts/salary.sol\":3985:4012  AllEmployes.length == count */\n      eq\n        /* \"contracts/salary.sol\":3982:4070  if(AllEmployes.length == count){\r... */\n      iszero\n      tag_226\n      jumpi\n        /* \"contracts/salary.sol\":4029:4057  revert(\"employee not found\") */\n      mload(0x40)\n      0x08c379a000000000000000000000000000000000000000000000000000000000\n      dup2\n      mstore\n      0x04\n      add\n      tag_227\n      swap1\n      tag_171\n      jump\t// in\n    tag_227:\n      mload(0x40)\n      dup1\n      swap2\n      sub\n      swap1\n      revert\n        /* \"contracts/salary.sol\":3982:4070  if(AllEmployes.length == count){\r... */\n    tag_226:\n        /* \"contracts/salary.sol\":3837:3840  i++ */\n      dup1\n      dup1\n      tag_228\n      swap1\n      tag_79\n      jump\t// in\n    tag_228:\n      swap2\n      pop\n      pop\n        /* \"contracts/salary.sol\":3801:4075  for (uint i=0;i<AllEmployes.length; i++ ){\r... */\n      jump(tag_215)\n    tag_216:\n      pop\n        /* \"contracts/salary.sol\":3683:4084  {\r... */\n      pop\n        /* \"contracts/salary.sol\":3595:4084  function ChangePostion( address _account_No, uint256   ChangePosition) public onlyAdmin {\r... */\n      pop\n      pop\n      jump\t// out\n        /* \"contracts/salary.sol\":123:143  address public admin */\n    tag_60:\n      0x00\n      dup1\n      sload\n      swap1\n      0x0100\n      exp\n      swap1\n      div\n      0xffffffffffffffffffffffffffffffffffffffff\n      and\n      dup2\n      jump\t// out\n    tag_131:\n      mload(0x40)\n      dup1\n      0xa0\n      add\n      0x40\n      mstore\n      dup1\n      0x60\n      dup2\n      mstore\n      0x20\n      add\n      0x00\n      dup2\n      mstore\n      0x20\n      add\n      0x00\n      dup2\n      mstore\n      0x20\n      add\n      and(0xffffffffffffffffffffffffffffffffffffffff, 0x00)\n      dup2\n      mstore\n      0x20\n      add\n      iszero(iszero(0x00))\n      dup2\n      mstore\n      pop\n      swap1\n      jump\t// out\n    tag_143:\n      dup3\n      dup1\n      sload\n      tag_229\n      swap1\n      tag_153\n      jump\t// in\n    tag_229:\n      swap1\n      0x00\n      mstore\n      keccak256(0x00, 0x20)\n      swap1\n      0x1f\n      add\n      0x20\n      swap1\n      div\n      dup2\n      add\n      swap3\n      dup3\n      tag_231\n      jumpi\n      0x00\n      dup6\n      sstore\n      jump(tag_230)\n    tag_231:\n      dup3\n      0x1f\n      lt\n      tag_232\n      jumpi\n      dup1\n      mload\n      not(0xff)\n      and\n      dup4\n      dup1\n      add\n      or\n      dup6\n      sstore\n      jump(tag_230)\n    tag_232:\n      dup3\n      dup1\n      add\n      0x01\n      add\n      dup6\n      sstore\n      dup3\n      iszero\n      tag_230\n      jumpi\n      swap2\n      dup3\n      add\n    tag_233:\n      dup3\n      dup2\n      gt\n      iszero\n      tag_234\n      jumpi\n      dup3\n      mload\n      dup3\n      sstore\n      swap2\n      0x20\n      add\n      swap2\n      swap1\n      0x01\n      add\n      swap1\n      jump(tag_233)\n    tag_234:\n    tag_230:\n      pop\n      swap1\n      pop\n      tag_235\n      swap2\n      swap1\n      tag_236\n      jump\t// in\n    tag_235:\n      pop\n      swap1\n      jump\t// out\n    tag_155:\n      dup3\n      dup1\n      sload\n      tag_237\n      swap1\n      tag_153\n      jump\t// in\n    tag_237:\n      swap1\n      0x00\n      mstore\n      keccak256(0x00, 0x20)\n      swap1\n      0x1f\n      add\n      0x20\n      swap1\n      div\n      dup2\n      add\n      swap3\n      dup3\n      tag_239\n      jumpi\n      0x00\n      dup6\n      sstore\n      jump(tag_238)\n    tag_239:\n      dup3\n      0x1f\n      lt\n      tag_240\n      jumpi\n      dup1\n      sload\n      dup6\n      sstore\n      jump(tag_238)\n    tag_240:\n      dup3\n      dup1\n      add\n      0x01\n      add\n      dup6\n      sstore\n      dup3\n      iszero\n      tag_238\n      jumpi\n      0x00\n      mstore\n      keccak256(0x00, 0x20)\n      swap2\n      0x1f\n      add\n      0x20\n      swap1\n      div\n      dup3\n      add\n    tag_241:\n      dup3\n      dup2\n      gt\n      iszero\n      tag_242\n      jumpi\n      dup3\n      sload\n      dup3\n      sstore\n      swap2\n      0x01\n      add\n      swap2\n      swap1\n      0x01\n      add\n      swap1\n      jump(tag_241)\n    tag_242:\n    tag_238:\n      pop\n      swap1\n      pop\n      tag_243\n      swap2\n      swap1\n      tag_236\n      jump\t// in\n    tag_243:\n      pop\n      swap1\n      jump\t// out\n    tag_166:\n      pop\n      dup1\n      sload\n      tag_244\n      swap1\n      tag_153\n      jump\t// in\n    tag_244:\n      0x00\n      dup3\n      sstore\n      dup1\n      0x1f\n      lt\n      tag_246\n      jumpi\n      pop\n      jump(tag_245)\n    tag_246:\n      0x1f\n      add\n      0x20\n      swap1\n      div\n      swap1\n      0x00\n      mstore\n      keccak256(0x00, 0x20)\n      swap1\n      dup2\n      add\n      swap1\n      tag_247\n      swap2\n      swap1\n      tag_236\n      jump\t// in\n    tag_247:\n    tag_245:\n      pop\n      jump\t// out\n    tag_236:\n    tag_248:\n      dup1\n      dup3\n      gt\n      iszero\n      tag_249\n      jumpi\n      0x00\n      dup2\n      0x00\n      swap1\n      sstore\n      pop\n      0x01\n      add\n      jump(tag_248)\n    tag_249:\n      pop\n      swap1\n      jump\t// out\n        /* \"#utility.yul\":7:419   */\n    tag_251:\n        /* \"#utility.yul\":85:90   */\n      0x00\n        /* \"#utility.yul\":110:176   */\n      tag_253\n        /* \"#utility.yul\":126:175   */\n      tag_254\n        /* \"#utility.yul\":168:174   */\n      dup5\n        /* \"#utility.yul\":126:175   */\n      tag_255\n      jump\t// in\n    tag_254:\n        /* \"#utility.yul\":110:176   */\n      tag_256\n      jump\t// in\n    tag_253:\n        /* \"#utility.yul\":101:176   */\n      swap1\n      pop\n        /* \"#utility.yul\":199:205   */\n      dup3\n        /* \"#utility.yul\":192:197   */\n      dup2\n        /* \"#utility.yul\":185:206   */\n      mstore\n        /* \"#utility.yul\":237:241   */\n      0x20\n        /* \"#utility.yul\":230:235   */\n      dup2\n        /* \"#utility.yul\":226:242   */\n      add\n        /* \"#utility.yul\":275:278   */\n      dup5\n        /* \"#utility.yul\":266:272   */\n      dup5\n        /* \"#utility.yul\":261:264   */\n      dup5\n        /* \"#utility.yul\":257:273   */\n      add\n        /* \"#utility.yul\":254:279   */\n      gt\n        /* \"#utility.yul\":251:363   */\n      iszero\n      tag_257\n      jumpi\n        /* \"#utility.yul\":282:361   */\n      tag_258\n      tag_259\n      jump\t// in\n    tag_258:\n        /* \"#utility.yul\":251:363   */\n    tag_257:\n        /* \"#utility.yul\":372:413   */\n      tag_260\n        /* \"#utility.yul\":406:412   */\n      dup5\n        /* \"#utility.yul\":401:404   */\n      dup3\n        /* \"#utility.yul\":396:399   */\n      dup6\n        /* \"#utility.yul\":372:413   */\n      tag_261\n      jump\t// in\n    tag_260:\n        /* \"#utility.yul\":91:419   */\n      pop\n        /* \"#utility.yul\":7:419   */\n      swap4\n      swap3\n      pop\n      pop\n      pop\n      jump\t// out\n        /* \"#utility.yul\":425:564   */\n    tag_262:\n        /* \"#utility.yul\":471:476   */\n      0x00\n        /* \"#utility.yul\":509:515   */\n      dup2\n        /* \"#utility.yul\":496:516   */\n      calldataload\n        /* \"#utility.yul\":487:516   */\n      swap1\n      pop\n        /* \"#utility.yul\":525:558   */\n      tag_264\n        /* \"#utility.yul\":552:557   */\n      dup2\n        /* \"#utility.yul\":525:558   */\n      tag_265\n      jump\t// in\n    tag_264:\n        /* \"#utility.yul\":425:564   */\n      swap3\n      swap2\n      pop\n      pop\n      jump\t// out\n        /* \"#utility.yul\":570:725   */\n    tag_266:\n        /* \"#utility.yul\":624:629   */\n      0x00\n        /* \"#utility.yul\":662:668   */\n      dup2\n        /* \"#utility.yul\":649:669   */\n      calldataload\n        /* \"#utility.yul\":640:669   */\n      swap1\n      pop\n        /* \"#utility.yul\":678:719   */\n      tag_268\n        /* \"#utility.yul\":713:718   */\n      dup2\n        /* \"#utility.yul\":678:719   */\n      tag_269\n      jump\t// in\n    tag_268:\n        /* \"#utility.yul\":570:725   */\n      swap3\n      swap2\n      pop\n      pop\n      jump\t// out\n        /* \"#utility.yul\":731:864   */\n    tag_270:\n        /* \"#utility.yul\":774:779   */\n      0x00\n        /* \"#utility.yul\":812:818   */\n      dup2\n        /* \"#utility.yul\":799:819   */\n      calldataload\n        /* \"#utility.yul\":790:819   */\n      swap1\n      pop\n        /* \"#utility.yul\":828:858   */\n      tag_272\n        /* \"#utility.yul\":852:857   */\n      dup2\n        /* \"#utility.yul\":828:858   */\n      tag_273\n      jump\t// in\n    tag_272:\n        /* \"#utility.yul\":731:864   */\n      swap3\n      swap2\n      pop\n      pop\n      jump\t// out\n        /* \"#utility.yul\":884:1224   */\n    tag_274:\n        /* \"#utility.yul\":940:945   */\n      0x00\n        /* \"#utility.yul\":989:992   */\n      dup3\n        /* \"#utility.yul\":982:986   */\n      0x1f\n        /* \"#utility.yul\":974:980   */\n      dup4\n        /* \"#utility.yul\":970:987   */\n      add\n        /* \"#utility.yul\":966:993   */\n      slt\n        /* \"#utility.yul\":956:1078   */\n      tag_276\n      jumpi\n        /* \"#utility.yul\":997:1076   */\n      tag_277\n      tag_278\n      jump\t// in\n    tag_277:\n        /* \"#utility.yul\":956:1078   */\n    tag_276:\n        /* \"#utility.yul\":1114:1120   */\n      dup2\n        /* \"#utility.yul\":1101:1121   */\n      calldataload\n        /* \"#utility.yul\":1139:1218   */\n      tag_279\n        /* \"#utility.yul\":1214:1217   */\n      dup5\n        /* \"#utility.yul\":1206:1212   */\n      dup3\n        /* \"#utility.yul\":1199:1203   */\n      0x20\n        /* \"#utility.yul\":1191:1197   */\n      dup7\n        /* \"#utility.yul\":1187:1204   */\n      add\n        /* \"#utility.yul\":1139:1218   */\n      tag_251\n      jump\t// in\n    tag_279:\n        /* \"#utility.yul\":1130:1218   */\n      swap2\n      pop\n        /* \"#utility.yul\":946:1224   */\n      pop\n        /* \"#utility.yul\":884:1224   */\n      swap3\n      swap2\n      pop\n      pop\n      jump\t// out\n        /* \"#utility.yul\":1230:1369   */\n    tag_280:\n        /* \"#utility.yul\":1276:1281   */\n      0x00\n        /* \"#utility.yul\":1314:1320   */\n      dup2\n        /* \"#utility.yul\":1301:1321   */\n      calldataload\n        /* \"#utility.yul\":1292:1321   */\n      swap1\n      pop\n        /* \"#utility.yul\":1330:1363   */\n      tag_282\n        /* \"#utility.yul\":1357:1362   */\n      dup2\n        /* \"#utility.yul\":1330:1363   */\n      tag_283\n      jump\t// in\n    tag_282:\n        /* \"#utility.yul\":1230:1369   */\n      swap3\n      swap2\n      pop\n      pop\n      jump\t// out\n        /* \"#utility.yul\":1375:1704   */\n    tag_27:\n        /* \"#utility.yul\":1434:1440   */\n      0x00\n        /* \"#utility.yul\":1483:1485   */\n      0x20\n        /* \"#utility.yul\":1471:1480   */\n      dup3\n        /* \"#utility.yul\":1462:1469   */\n      dup5\n        /* \"#utility.yul\":1458:1481   */\n      sub\n        /* \"#utility.yul\":1454:1486   */\n      slt\n        /* \"#utility.yul\":1451:1570   */\n      iszero\n      tag_285\n      jumpi\n        /* \"#utility.yul\":1489:1568   */\n      tag_286\n      tag_287\n      jump\t// in\n    tag_286:\n        /* \"#utility.yul\":1451:1570   */\n    tag_285:\n        /* \"#utility.yul\":1609:1610   */\n      0x00\n        /* \"#utility.yul\":1634:1687   */\n      tag_288\n        /* \"#utility.yul\":1679:1686   */\n      dup5\n        /* \"#utility.yul\":1670:1676   */\n      dup3\n        /* \"#utility.yul\":1659:1668   */\n      dup6\n        /* \"#utility.yul\":1655:1677   */\n      add\n        /* \"#utility.yul\":1634:1687   */\n      tag_262\n      jump\t// in\n    tag_288:\n        /* \"#utility.yul\":1624:1687   */\n      swap2\n      pop\n        /* \"#utility.yul\":1580:1697   */\n      pop\n        /* \"#utility.yul\":1375:1704   */\n      swap3\n      swap2\n      pop\n      pop\n      jump\t// out\n        /* \"#utility.yul\":1710:2200   */\n    tag_20:\n        /* \"#utility.yul\":1786:1792   */\n      0x00\n        /* \"#utility.yul\":1794:1800   */\n      dup1\n        /* \"#utility.yul\":1843:1845   */\n      0x40\n        /* \"#utility.yul\":1831:1840   */\n      dup4\n        /* \"#utility.yul\":1822:1829   */\n      dup6\n        /* \"#utility.yul\":1818:1841   */\n      sub\n        /* \"#utility.yul\":1814:1846   */\n      slt\n        /* \"#utility.yul\":1811:1930   */\n      iszero\n      tag_290\n      jumpi\n        /* \"#utility.yul\":1849:1928   */\n      tag_291\n      tag_287\n      jump\t// in\n    tag_291:\n        /* \"#utility.yul\":1811:1930   */\n    tag_290:\n        /* \"#utility.yul\":1969:1970   */\n      0x00\n        /* \"#utility.yul\":1994:2055   */\n      tag_292\n        /* \"#utility.yul\":2047:2054   */\n      dup6\n        /* \"#utility.yul\":2038:2044   */\n      dup3\n        /* \"#utility.yul\":2027:2036   */\n      dup7\n        /* \"#utility.yul\":2023:2045   */\n      add\n        /* \"#utility.yul\":1994:2055   */\n      tag_266\n      jump\t// in\n    tag_292:\n        /* \"#utility.yul\":1984:2055   */\n      swap3\n      pop\n        /* \"#utility.yul\":1940:2065   */\n      pop\n        /* \"#utility.yul\":2104:2106   */\n      0x20\n        /* \"#utility.yul\":2130:2183   */\n      tag_293\n        /* \"#utility.yul\":2175:2182   */\n      dup6\n        /* \"#utility.yul\":2166:2172   */\n      dup3\n        /* \"#utility.yul\":2155:2164   */\n      dup7\n        /* \"#utility.yul\":2151:2173   */\n      add\n        /* \"#utility.yul\":2130:2183   */\n      tag_280\n      jump\t// in\n    tag_293:\n        /* \"#utility.yul\":2120:2183   */\n      swap2\n      pop\n        /* \"#utility.yul\":2075:2193   */\n      pop\n        /* \"#utility.yul\":1710:2200   */\n      swap3\n      pop\n      swap3\n      swap1\n      pop\n      jump\t// out\n        /* \"#utility.yul\":2206:2680   */\n    tag_56:\n        /* \"#utility.yul\":2274:2280   */\n      0x00\n        /* \"#utility.yul\":2282:2288   */\n      dup1\n        /* \"#utility.yul\":2331:2333   */\n      0x40\n        /* \"#utility.yul\":2319:2328   */\n      dup4\n        /* \"#utility.yul\":2310:2317   */\n      dup6\n        /* \"#utility.yul\":2306:2329   */\n      sub\n        /* \"#utility.yul\":2302:2334   */\n      slt\n        /* \"#utility.yul\":2299:2418   */\n      iszero\n      tag_295\n      jumpi\n        /* \"#utility.yul\":2337:2416   */\n      tag_296\n      tag_287\n      jump\t// in\n    tag_296:\n        /* \"#utility.yul\":2299:2418   */\n    tag_295:\n        /* \"#utility.yul\":2457:2458   */\n      0x00\n        /* \"#utility.yul\":2482:2535   */\n      tag_297\n        /* \"#utility.yul\":2527:2534   */\n      dup6\n        /* \"#utility.yul\":2518:2524   */\n      dup3\n        /* \"#utility.yul\":2507:2516   */\n      dup7\n        /* \"#utility.yul\":2503:2525   */\n      add\n        /* \"#utility.yul\":2482:2535   */\n      tag_262\n      jump\t// in\n    tag_297:\n        /* \"#utility.yul\":2472:2535   */\n      swap3\n      pop\n        /* \"#utility.yul\":2428:2545   */\n      pop\n        /* \"#utility.yul\":2584:2586   */\n      0x20\n        /* \"#utility.yul\":2610:2663   */\n      tag_298\n        /* \"#utility.yul\":2655:2662   */\n      dup6\n        /* \"#utility.yul\":2646:2652   */\n      dup3\n        /* \"#utility.yul\":2635:2644   */\n      dup7\n        /* \"#utility.yul\":2631:2653   */\n      add\n        /* \"#utility.yul\":2610:2663   */\n      tag_280\n      jump\t// in\n    tag_298:\n        /* \"#utility.yul\":2600:2663   */\n      swap2\n      pop\n        /* \"#utility.yul\":2555:2673   */\n      pop\n        /* \"#utility.yul\":2206:2680   */\n      swap3\n      pop\n      swap3\n      swap1\n      pop\n      jump\t// out\n        /* \"#utility.yul\":2686:3787   */\n    tag_34:\n        /* \"#utility.yul\":2796:2802   */\n      0x00\n        /* \"#utility.yul\":2804:2810   */\n      dup1\n        /* \"#utility.yul\":2812:2818   */\n      0x00\n        /* \"#utility.yul\":2820:2826   */\n      dup1\n        /* \"#utility.yul\":2828:2834   */\n      0x00\n        /* \"#utility.yul\":2877:2880   */\n      0xa0\n        /* \"#utility.yul\":2865:2874   */\n      dup7\n        /* \"#utility.yul\":2856:2863   */\n      dup9\n        /* \"#utility.yul\":2852:2875   */\n      sub\n        /* \"#utility.yul\":2848:2881   */\n      slt\n        /* \"#utility.yul\":2845:2965   */\n      iszero\n      tag_300\n      jumpi\n        /* \"#utility.yul\":2884:2963   */\n      tag_301\n      tag_287\n      jump\t// in\n    tag_301:\n        /* \"#utility.yul\":2845:2965   */\n    tag_300:\n        /* \"#utility.yul\":3032:3033   */\n      0x00\n        /* \"#utility.yul\":3021:3030   */\n      dup7\n        /* \"#utility.yul\":3017:3034   */\n      add\n        /* \"#utility.yul\":3004:3035   */\n      calldataload\n        /* \"#utility.yul\":3062:3080   */\n      0xffffffffffffffff\n        /* \"#utility.yul\":3054:3060   */\n      dup2\n        /* \"#utility.yul\":3051:3081   */\n      gt\n        /* \"#utility.yul\":3048:3165   */\n      iszero\n      tag_302\n      jumpi\n        /* \"#utility.yul\":3084:3163   */\n      tag_303\n      tag_304\n      jump\t// in\n    tag_303:\n        /* \"#utility.yul\":3048:3165   */\n    tag_302:\n        /* \"#utility.yul\":3189:3252   */\n      tag_305\n        /* \"#utility.yul\":3244:3251   */\n      dup9\n        /* \"#utility.yul\":3235:3241   */\n      dup3\n        /* \"#utility.yul\":3224:3233   */\n      dup10\n        /* \"#utility.yul\":3220:3242   */\n      add\n        /* \"#utility.yul\":3189:3252   */\n      tag_274\n      jump\t// in\n    tag_305:\n        /* \"#utility.yul\":3179:3252   */\n      swap6\n      pop\n        /* \"#utility.yul\":2975:3262   */\n      pop\n        /* \"#utility.yul\":3301:3303   */\n      0x20\n        /* \"#utility.yul\":3327:3380   */\n      tag_306\n        /* \"#utility.yul\":3372:3379   */\n      dup9\n        /* \"#utility.yul\":3363:3369   */\n      dup3\n        /* \"#utility.yul\":3352:3361   */\n      dup10\n        /* \"#utility.yul\":3348:3370   */\n      add\n        /* \"#utility.yul\":3327:3380   */\n      tag_280\n      jump\t// in\n    tag_306:\n        /* \"#utility.yul\":3317:3380   */\n      swap5\n      pop\n        /* \"#utility.yul\":3272:3390   */\n      pop\n        /* \"#utility.yul\":3429:3431   */\n      0x40\n        /* \"#utility.yul\":3455:3508   */\n      tag_307\n        /* \"#utility.yul\":3500:3507   */\n      dup9\n        /* \"#utility.yul\":3491:3497   */\n      dup3\n        /* \"#utility.yul\":3480:3489   */\n      dup10\n        /* \"#utility.yul\":3476:3498   */\n      add\n        /* \"#utility.yul\":3455:3508   */\n      tag_280\n      jump\t// in\n    tag_307:\n        /* \"#utility.yul\":3445:3508   */\n      swap4\n      pop\n        /* \"#utility.yul\":3400:3518   */\n      pop\n        /* \"#utility.yul\":3557:3559   */\n      0x60\n        /* \"#utility.yul\":3583:3644   */\n      tag_308\n        /* \"#utility.yul\":3636:3643   */\n      dup9\n        /* \"#utility.yul\":3627:3633   */\n      dup3\n        /* \"#utility.yul\":3616:3625   */\n      dup10\n        /* \"#utility.yul\":3612:3634   */\n      add\n        /* \"#utility.yul\":3583:3644   */\n      tag_266\n      jump\t// in\n    tag_308:\n        /* \"#utility.yul\":3573:3644   */\n      swap3\n      pop\n        /* \"#utility.yul\":3528:3654   */\n      pop\n        /* \"#utility.yul\":3693:3696   */\n      0x80\n        /* \"#utility.yul\":3720:3770   */\n      tag_309\n        /* \"#utility.yul\":3762:3769   */\n      dup9\n        /* \"#utility.yul\":3753:3759   */\n      dup3\n        /* \"#utility.yul\":3742:3751   */\n      dup10\n        /* \"#utility.yul\":3738:3760   */\n      add\n        /* \"#utility.yul\":3720:3770   */\n      tag_270\n      jump\t// in\n    tag_309:\n        /* \"#utility.yul\":3710:3770   */\n      swap2\n      pop\n        /* \"#utility.yul\":3664:3780   */\n      pop\n        /* \"#utility.yul\":2686:3787   */\n      swap3\n      swap6\n      pop\n      swap3\n      swap6\n      swap1\n      swap4\n      pop\n      jump\t// out\n        /* \"#utility.yul\":3793:4122   */\n    tag_39:\n        /* \"#utility.yul\":3852:3858   */\n      0x00\n        /* \"#utility.yul\":3901:3903   */\n      0x20\n        /* \"#utility.yul\":3889:3898   */\n      dup3\n        /* \"#utility.yul\":3880:3887   */\n      dup5\n        /* \"#utility.yul\":3876:3899   */\n      sub\n        /* \"#utility.yul\":3872:3904   */\n      slt\n        /* \"#utility.yul\":3869:3988   */\n      iszero\n      tag_311\n      jumpi\n        /* \"#utility.yul\":3907:3986   */\n      tag_312\n      tag_287\n      jump\t// in\n    tag_312:\n        /* \"#utility.yul\":3869:3988   */\n    tag_311:\n        /* \"#utility.yul\":4027:4028   */\n      0x00\n        /* \"#utility.yul\":4052:4105   */\n      tag_313\n        /* \"#utility.yul\":4097:4104   */\n      dup5\n        /* \"#utility.yul\":4088:4094   */\n      dup3\n        /* \"#utility.yul\":4077:4086   */\n      dup6\n        /* \"#utility.yul\":4073:4095   */\n      add\n        /* \"#utility.yul\":4052:4105   */\n      tag_280\n      jump\t// in\n    tag_313:\n        /* \"#utility.yul\":4042:4105   */\n      swap2\n      pop\n        /* \"#utility.yul\":3998:4115   */\n      pop\n        /* \"#utility.yul\":3793:4122   */\n      swap3\n      swap2\n      pop\n      pop\n      jump\t// out\n        /* \"#utility.yul\":4128:4270   */\n    tag_314:\n        /* \"#utility.yul\":4231:4263   */\n      tag_316\n        /* \"#utility.yul\":4257:4262   */\n      dup2\n        /* \"#utility.yul\":4231:4263   */\n      tag_317\n      jump\t// in\n    tag_316:\n        /* \"#utility.yul\":4226:4229   */\n      dup3\n        /* \"#utility.yul\":4219:4264   */\n      mstore\n        /* \"#utility.yul\":4128:4270   */\n      pop\n      pop\n      jump\t// out\n        /* \"#utility.yul\":4276:4394   */\n    tag_318:\n        /* \"#utility.yul\":4363:4387   */\n      tag_320\n        /* \"#utility.yul\":4381:4386   */\n      dup2\n        /* \"#utility.yul\":4363:4387   */\n      tag_321\n      jump\t// in\n    tag_320:\n        /* \"#utility.yul\":4358:4361   */\n      dup3\n        /* \"#utility.yul\":4351:4388   */\n      mstore\n        /* \"#utility.yul\":4276:4394   */\n      pop\n      pop\n      jump\t// out\n        /* \"#utility.yul\":4400:4509   */\n    tag_322:\n        /* \"#utility.yul\":4481:4502   */\n      tag_324\n        /* \"#utility.yul\":4496:4501   */\n      dup2\n        /* \"#utility.yul\":4481:4502   */\n      tag_325\n      jump\t// in\n    tag_324:\n        /* \"#utility.yul\":4476:4479   */\n      dup3\n        /* \"#utility.yul\":4469:4503   */\n      mstore\n        /* \"#utility.yul\":4400:4509   */\n      pop\n      pop\n      jump\t// out\n        /* \"#utility.yul\":4515:4879   */\n    tag_326:\n        /* \"#utility.yul\":4603:4606   */\n      0x00\n        /* \"#utility.yul\":4631:4670   */\n      tag_328\n        /* \"#utility.yul\":4664:4669   */\n      dup3\n        /* \"#utility.yul\":4631:4670   */\n      tag_329\n      jump\t// in\n    tag_328:\n        /* \"#utility.yul\":4686:4757   */\n      tag_330\n        /* \"#utility.yul\":4750:4756   */\n      dup2\n        /* \"#utility.yul\":4745:4748   */\n      dup6\n        /* \"#utility.yul\":4686:4757   */\n      tag_331\n      jump\t// in\n    tag_330:\n        /* \"#utility.yul\":4679:4757   */\n      swap4\n      pop\n        /* \"#utility.yul\":4766:4818   */\n      tag_332\n        /* \"#utility.yul\":4811:4817   */\n      dup2\n        /* \"#utility.yul\":4806:4809   */\n      dup6\n        /* \"#utility.yul\":4799:4803   */\n      0x20\n        /* \"#utility.yul\":4792:4797   */\n      dup7\n        /* \"#utility.yul\":4788:4804   */\n      add\n        /* \"#utility.yul\":4766:4818   */\n      tag_333\n      jump\t// in\n    tag_332:\n        /* \"#utility.yul\":4843:4872   */\n      tag_334\n        /* \"#utility.yul\":4865:4871   */\n      dup2\n        /* \"#utility.yul\":4843:4872   */\n      tag_335\n      jump\t// in\n    tag_334:\n        /* \"#utility.yul\":4838:4841   */\n      dup5\n        /* \"#utility.yul\":4834:4873   */\n      add\n        /* \"#utility.yul\":4827:4873   */\n      swap2\n      pop\n        /* \"#utility.yul\":4607:4879   */\n      pop\n        /* \"#utility.yul\":4515:4879   */\n      swap3\n      swap2\n      pop\n      pop\n      jump\t// out\n        /* \"#utility.yul\":4885:5251   */\n    tag_336:\n        /* \"#utility.yul\":5027:5030   */\n      0x00\n        /* \"#utility.yul\":5048:5115   */\n      tag_338\n        /* \"#utility.yul\":5112:5114   */\n      0x14\n        /* \"#utility.yul\":5107:5110   */\n      dup4\n        /* \"#utility.yul\":5048:5115   */\n      tag_331\n      jump\t// in\n    tag_338:\n        /* \"#utility.yul\":5041:5115   */\n      swap2\n      pop\n        /* \"#utility.yul\":5124:5217   */\n      tag_339\n        /* \"#utility.yul\":5213:5216   */\n      dup3\n        /* \"#utility.yul\":5124:5217   */\n      tag_340\n      jump\t// in\n    tag_339:\n        /* \"#utility.yul\":5242:5244   */\n      0x20\n        /* \"#utility.yul\":5237:5240   */\n      dup3\n        /* \"#utility.yul\":5233:5245   */\n      add\n        /* \"#utility.yul\":5226:5245   */\n      swap1\n      pop\n        /* \"#utility.yul\":4885:5251   */\n      swap2\n      swap1\n      pop\n      jump\t// out\n        /* \"#utility.yul\":5257:5623   */\n    tag_341:\n        /* \"#utility.yul\":5399:5402   */\n      0x00\n        /* \"#utility.yul\":5420:5487   */\n      tag_343\n        /* \"#utility.yul\":5484:5486   */\n      0x16\n        /* \"#utility.yul\":5479:5482   */\n      dup4\n        /* \"#utility.yul\":5420:5487   */\n      tag_331\n      jump\t// in\n    tag_343:\n        /* \"#utility.yul\":5413:5487   */\n      swap2\n      pop\n        /* \"#utility.yul\":5496:5589   */\n      tag_344\n        /* \"#utility.yul\":5585:5588   */\n      dup3\n        /* \"#utility.yul\":5496:5589   */\n      tag_345\n      jump\t// in\n    tag_344:\n        /* \"#utility.yul\":5614:5616   */\n      0x20\n        /* \"#utility.yul\":5609:5612   */\n      dup3\n        /* \"#utility.yul\":5605:5617   */\n      add\n        /* \"#utility.yul\":5598:5617   */\n      swap1\n      pop\n        /* \"#utility.yul\":5257:5623   */\n      swap2\n      swap1\n      pop\n      jump\t// out\n        /* \"#utility.yul\":5629:5995   */\n    tag_346:\n        /* \"#utility.yul\":5771:5774   */\n      0x00\n        /* \"#utility.yul\":5792:5859   */\n      tag_348\n        /* \"#utility.yul\":5856:5858   */\n      0x19\n        /* \"#utility.yul\":5851:5854   */\n      dup4\n        /* \"#utility.yul\":5792:5859   */\n      tag_331\n      jump\t// in\n    tag_348:\n        /* \"#utility.yul\":5785:5859   */\n      swap2\n      pop\n        /* \"#utility.yul\":5868:5961   */\n      tag_349\n        /* \"#utility.yul\":5957:5960   */\n      dup3\n        /* \"#utility.yul\":5868:5961   */\n      tag_350\n      jump\t// in\n    tag_349:\n        /* \"#utility.yul\":5986:5988   */\n      0x20\n        /* \"#utility.yul\":5981:5984   */\n      dup3\n        /* \"#utility.yul\":5977:5989   */\n      add\n        /* \"#utility.yul\":5970:5989   */\n      swap1\n      pop\n        /* \"#utility.yul\":5629:5995   */\n      swap2\n      swap1\n      pop\n      jump\t// out\n        /* \"#utility.yul\":6001:6367   */\n    tag_351:\n        /* \"#utility.yul\":6143:6146   */\n      0x00\n        /* \"#utility.yul\":6164:6231   */\n      tag_353\n        /* \"#utility.yul\":6228:6230   */\n      0x15\n        /* \"#utility.yul\":6223:6226   */\n      dup4\n        /* \"#utility.yul\":6164:6231   */\n      tag_331\n      jump\t// in\n    tag_353:\n        /* \"#utility.yul\":6157:6231   */\n      swap2\n      pop\n        /* \"#utility.yul\":6240:6333   */\n      tag_354\n        /* \"#utility.yul\":6329:6332   */\n      dup3\n        /* \"#utility.yul\":6240:6333   */\n      tag_355\n      jump\t// in\n    tag_354:\n        /* \"#utility.yul\":6358:6360   */\n      0x20\n        /* \"#utility.yul\":6353:6356   */\n      dup3\n        /* \"#utility.yul\":6349:6361   */\n      add\n        /* \"#utility.yul\":6342:6361   */\n      swap1\n      pop\n        /* \"#utility.yul\":6001:6367   */\n      swap2\n      swap1\n      pop\n      jump\t// out\n        /* \"#utility.yul\":6373:6739   */\n    tag_356:\n        /* \"#utility.yul\":6515:6518   */\n      0x00\n        /* \"#utility.yul\":6536:6603   */\n      tag_358\n        /* \"#utility.yul\":6600:6602   */\n      0x12\n        /* \"#utility.yul\":6595:6598   */\n      dup4\n        /* \"#utility.yul\":6536:6603   */\n      tag_331\n      jump\t// in\n    tag_358:\n        /* \"#utility.yul\":6529:6603   */\n      swap2\n      pop\n        /* \"#utility.yul\":6612:6705   */\n      tag_359\n        /* \"#utility.yul\":6701:6704   */\n      dup3\n        /* \"#utility.yul\":6612:6705   */\n      tag_360\n      jump\t// in\n    tag_359:\n        /* \"#utility.yul\":6730:6732   */\n      0x20\n        /* \"#utility.yul\":6725:6728   */\n      dup3\n        /* \"#utility.yul\":6721:6733   */\n      add\n        /* \"#utility.yul\":6714:6733   */\n      swap1\n      pop\n        /* \"#utility.yul\":6373:6739   */\n      swap2\n      swap1\n      pop\n      jump\t// out\n        /* \"#utility.yul\":6745:6863   */\n    tag_361:\n        /* \"#utility.yul\":6832:6856   */\n      tag_363\n        /* \"#utility.yul\":6850:6855   */\n      dup2\n        /* \"#utility.yul\":6832:6856   */\n      tag_364\n      jump\t// in\n    tag_363:\n        /* \"#utility.yul\":6827:6830   */\n      dup3\n        /* \"#utility.yul\":6820:6857   */\n      mstore\n        /* \"#utility.yul\":6745:6863   */\n      pop\n      pop\n      jump\t// out\n        /* \"#utility.yul\":6869:7091   */\n    tag_62:\n        /* \"#utility.yul\":6962:6966   */\n      0x00\n        /* \"#utility.yul\":7000:7002   */\n      0x20\n        /* \"#utility.yul\":6989:6998   */\n      dup3\n        /* \"#utility.yul\":6985:7003   */\n      add\n        /* \"#utility.yul\":6977:7003   */\n      swap1\n      pop\n        /* \"#utility.yul\":7013:7084   */\n      tag_366\n        /* \"#utility.yul\":7081:7082   */\n      0x00\n        /* \"#utility.yul\":7070:7079   */\n      dup4\n        /* \"#utility.yul\":7066:7083   */\n      add\n        /* \"#utility.yul\":7057:7063   */\n      dup5\n        /* \"#utility.yul\":7013:7084   */\n      tag_318\n      jump\t// in\n    tag_366:\n        /* \"#utility.yul\":6869:7091   */\n      swap3\n      swap2\n      pop\n      pop\n      jump\t// out\n        /* \"#utility.yul\":7097:7307   */\n    tag_30:\n        /* \"#utility.yul\":7184:7188   */\n      0x00\n        /* \"#utility.yul\":7222:7224   */\n      0x20\n        /* \"#utility.yul\":7211:7220   */\n      dup3\n        /* \"#utility.yul\":7207:7225   */\n      add\n        /* \"#utility.yul\":7199:7225   */\n      swap1\n      pop\n        /* \"#utility.yul\":7235:7300   */\n      tag_368\n        /* \"#utility.yul\":7297:7298   */\n      0x00\n        /* \"#utility.yul\":7286:7295   */\n      dup4\n        /* \"#utility.yul\":7282:7299   */\n      add\n        /* \"#utility.yul\":7273:7279   */\n      dup5\n        /* \"#utility.yul\":7235:7300   */\n      tag_322\n      jump\t// in\n    tag_368:\n        /* \"#utility.yul\":7097:7307   */\n      swap3\n      swap2\n      pop\n      pop\n      jump\t// out\n        /* \"#utility.yul\":7313:8088   */\n    tag_42:\n        /* \"#utility.yul\":7548:7552   */\n      0x00\n        /* \"#utility.yul\":7586:7589   */\n      0xa0\n        /* \"#utility.yul\":7575:7584   */\n      dup3\n        /* \"#utility.yul\":7571:7590   */\n      add\n        /* \"#utility.yul\":7563:7590   */\n      swap1\n      pop\n        /* \"#utility.yul\":7636:7645   */\n      dup2\n        /* \"#utility.yul\":7630:7634   */\n      dup2\n        /* \"#utility.yul\":7626:7646   */\n      sub\n        /* \"#utility.yul\":7622:7623   */\n      0x00\n        /* \"#utility.yul\":7611:7620   */\n      dup4\n        /* \"#utility.yul\":7607:7624   */\n      add\n        /* \"#utility.yul\":7600:7647   */\n      mstore\n        /* \"#utility.yul\":7664:7742   */\n      tag_370\n        /* \"#utility.yul\":7737:7741   */\n      dup2\n        /* \"#utility.yul\":7728:7734   */\n      dup9\n        /* \"#utility.yul\":7664:7742   */\n      tag_326\n      jump\t// in\n    tag_370:\n        /* \"#utility.yul\":7656:7742   */\n      swap1\n      pop\n        /* \"#utility.yul\":7752:7824   */\n      tag_371\n        /* \"#utility.yul\":7820:7822   */\n      0x20\n        /* \"#utility.yul\":7809:7818   */\n      dup4\n        /* \"#utility.yul\":7805:7823   */\n      add\n        /* \"#utility.yul\":7796:7802   */\n      dup8\n        /* \"#utility.yul\":7752:7824   */\n      tag_361\n      jump\t// in\n    tag_371:\n        /* \"#utility.yul\":7834:7906   */\n      tag_372\n        /* \"#utility.yul\":7902:7904   */\n      0x40\n        /* \"#utility.yul\":7891:7900   */\n      dup4\n        /* \"#utility.yul\":7887:7905   */\n      add\n        /* \"#utility.yul\":7878:7884   */\n      dup7\n        /* \"#utility.yul\":7834:7906   */\n      tag_361\n      jump\t// in\n    tag_372:\n        /* \"#utility.yul\":7916:8004   */\n      tag_373\n        /* \"#utility.yul\":8000:8002   */\n      0x60\n        /* \"#utility.yul\":7989:7998   */\n      dup4\n        /* \"#utility.yul\":7985:8003   */\n      add\n        /* \"#utility.yul\":7976:7982   */\n      dup6\n        /* \"#utility.yul\":7916:8004   */\n      tag_314\n      jump\t// in\n    tag_373:\n        /* \"#utility.yul\":8014:8081   */\n      tag_374\n        /* \"#utility.yul\":8076:8079   */\n      0x80\n        /* \"#utility.yul\":8065:8074   */\n      dup4\n        /* \"#utility.yul\":8061:8080   */\n      add\n        /* \"#utility.yul\":8052:8058   */\n      dup5\n        /* \"#utility.yul\":8014:8081   */\n      tag_322\n      jump\t// in\n    tag_374:\n        /* \"#utility.yul\":7313:8088   */\n      swap7\n      swap6\n      pop\n      pop\n      pop\n      pop\n      pop\n      pop\n      jump\t// out\n        /* \"#utility.yul\":8094:8513   */\n    tag_125:\n        /* \"#utility.yul\":8260:8264   */\n      0x00\n        /* \"#utility.yul\":8298:8300   */\n      0x20\n        /* \"#utility.yul\":8287:8296   */\n      dup3\n        /* \"#utility.yul\":8283:8301   */\n      add\n        /* \"#utility.yul\":8275:8301   */\n      swap1\n      pop\n        /* \"#utility.yul\":8347:8356   */\n      dup2\n        /* \"#utility.yul\":8341:8345   */\n      dup2\n        /* \"#utility.yul\":8337:8357   */\n      sub\n        /* \"#utility.yul\":8333:8334   */\n      0x00\n        /* \"#utility.yul\":8322:8331   */\n      dup4\n        /* \"#utility.yul\":8318:8335   */\n      add\n        /* \"#utility.yul\":8311:8358   */\n      mstore\n        /* \"#utility.yul\":8375:8506   */\n      tag_376\n        /* \"#utility.yul\":8501:8505   */\n      dup2\n        /* \"#utility.yul\":8375:8506   */\n      tag_336\n      jump\t// in\n    tag_376:\n        /* \"#utility.yul\":8367:8506   */\n      swap1\n      pop\n        /* \"#utility.yul\":8094:8513   */\n      swap2\n      swap1\n      pop\n      jump\t// out\n        /* \"#utility.yul\":8519:8938   */\n    tag_66:\n        /* \"#utility.yul\":8685:8689   */\n      0x00\n        /* \"#utility.yul\":8723:8725   */\n      0x20\n        /* \"#utility.yul\":8712:8721   */\n      dup3\n        /* \"#utility.yul\":8708:8726   */\n      add\n        /* \"#utility.yul\":8700:8726   */\n      swap1\n      pop\n        /* \"#utility.yul\":8772:8781   */\n      dup2\n        /* \"#utility.yul\":8766:8770   */\n      dup2\n        /* \"#utility.yul\":8762:8782   */\n      sub\n        /* \"#utility.yul\":8758:8759   */\n      0x00\n        /* \"#utility.yul\":8747:8756   */\n      dup4\n        /* \"#utility.yul\":8743:8760   */\n      add\n        /* \"#utility.yul\":8736:8783   */\n      mstore\n        /* \"#utility.yul\":8800:8931   */\n      tag_378\n        /* \"#utility.yul\":8926:8930   */\n      dup2\n        /* \"#utility.yul\":8800:8931   */\n      tag_341\n      jump\t// in\n    tag_378:\n        /* \"#utility.yul\":8792:8931   */\n      swap1\n      pop\n        /* \"#utility.yul\":8519:8938   */\n      swap2\n      swap1\n      pop\n      jump\t// out\n        /* \"#utility.yul\":8944:9363   */\n    tag_121:\n        /* \"#utility.yul\":9110:9114   */\n      0x00\n        /* \"#utility.yul\":9148:9150   */\n      0x20\n        /* \"#utility.yul\":9137:9146   */\n      dup3\n        /* \"#utility.yul\":9133:9151   */\n      add\n        /* \"#utility.yul\":9125:9151   */\n      swap1\n      pop\n        /* \"#utility.yul\":9197:9206   */\n      dup2\n        /* \"#utility.yul\":9191:9195   */\n      dup2\n        /* \"#utility.yul\":9187:9207   */\n      sub\n        /* \"#utility.yul\":9183:9184   */\n      0x00\n        /* \"#utility.yul\":9172:9181   */\n      dup4\n        /* \"#utility.yul\":9168:9185   */\n      add\n        /* \"#utility.yul\":9161:9208   */\n      mstore\n        /* \"#utility.yul\":9225:9356   */\n      tag_380\n        /* \"#utility.yul\":9351:9355   */\n      dup2\n        /* \"#utility.yul\":9225:9356   */\n      tag_346\n      jump\t// in\n    tag_380:\n        /* \"#utility.yul\":9217:9356   */\n      swap1\n      pop\n        /* \"#utility.yul\":8944:9363   */\n      swap2\n      swap1\n      pop\n      jump\t// out\n        /* \"#utility.yul\":9369:9788   */\n    tag_176:\n        /* \"#utility.yul\":9535:9539   */\n      0x00\n        /* \"#utility.yul\":9573:9575   */\n      0x20\n        /* \"#utility.yul\":9562:9571   */\n      dup3\n        /* \"#utility.yul\":9558:9576   */\n      add\n        /* \"#utility.yul\":9550:9576   */\n      swap1\n      pop\n        /* \"#utility.yul\":9622:9631   */\n      dup2\n        /* \"#utility.yul\":9616:9620   */\n      dup2\n        /* \"#utility.yul\":9612:9632   */\n      sub\n        /* \"#utility.yul\":9608:9609   */\n      0x00\n        /* \"#utility.yul\":9597:9606   */\n      dup4\n        /* \"#utility.yul\":9593:9610   */\n      add\n        /* \"#utility.yul\":9586:9633   */\n      mstore\n        /* \"#utility.yul\":9650:9781   */\n      tag_382\n        /* \"#utility.yul\":9776:9780   */\n      dup2\n        /* \"#utility.yul\":9650:9781   */\n      tag_351\n      jump\t// in\n    tag_382:\n        /* \"#utility.yul\":9642:9781   */\n      swap1\n      pop\n        /* \"#utility.yul\":9369:9788   */\n      swap2\n      swap1\n      pop\n      jump\t// out\n        /* \"#utility.yul\":9794:10213   */\n    tag_171:\n        /* \"#utility.yul\":9960:9964   */\n      0x00\n        /* \"#utility.yul\":9998:10000   */\n      0x20\n        /* \"#utility.yul\":9987:9996   */\n      dup3\n        /* \"#utility.yul\":9983:10001   */\n      add\n        /* \"#utility.yul\":9975:10001   */\n      swap1\n      pop\n        /* \"#utility.yul\":10047:10056   */\n      dup2\n        /* \"#utility.yul\":10041:10045   */\n      dup2\n        /* \"#utility.yul\":10037:10057   */\n      sub\n        /* \"#utility.yul\":10033:10034   */\n      0x00\n        /* \"#utility.yul\":10022:10031   */\n      dup4\n        /* \"#utility.yul\":10018:10035   */\n      add\n        /* \"#utility.yul\":10011:10058   */\n      mstore\n        /* \"#utility.yul\":10075:10206   */\n      tag_384\n        /* \"#utility.yul\":10201:10205   */\n      dup2\n        /* \"#utility.yul\":10075:10206   */\n      tag_356\n      jump\t// in\n    tag_384:\n        /* \"#utility.yul\":10067:10206   */\n      swap1\n      pop\n        /* \"#utility.yul\":9794:10213   */\n      swap2\n      swap1\n      pop\n      jump\t// out\n        /* \"#utility.yul\":10219:10441   */\n    tag_23:\n        /* \"#utility.yul\":10312:10316   */\n      0x00\n        /* \"#utility.yul\":10350:10352   */\n      0x20\n        /* \"#utility.yul\":10339:10348   */\n      dup3\n        /* \"#utility.yul\":10335:10353   */\n      add\n        /* \"#utility.yul\":10327:10353   */\n      swap1\n      pop\n        /* \"#utility.yul\":10363:10434   */\n      tag_386\n        /* \"#utility.yul\":10431:10432   */\n      0x00\n        /* \"#utility.yul\":10420:10429   */\n      dup4\n        /* \"#utility.yul\":10416:10433   */\n      add\n        /* \"#utility.yul\":10407:10413   */\n      dup5\n        /* \"#utility.yul\":10363:10434   */\n      tag_361\n      jump\t// in\n    tag_386:\n        /* \"#utility.yul\":10219:10441   */\n      swap3\n      swap2\n      pop\n      pop\n      jump\t// out\n        /* \"#utility.yul\":10447:10576   */\n    tag_256:\n        /* \"#utility.yul\":10481:10487   */\n      0x00\n        /* \"#utility.yul\":10508:10528   */\n      tag_388\n      tag_389\n      jump\t// in\n    tag_388:\n        /* \"#utility.yul\":10498:10528   */\n      swap1\n      pop\n        /* \"#utility.yul\":10537:10570   */\n      tag_390\n        /* \"#utility.yul\":10565:10569   */\n      dup3\n        /* \"#utility.yul\":10557:10563   */\n      dup3\n        /* \"#utility.yul\":10537:10570   */\n      tag_391\n      jump\t// in\n    tag_390:\n        /* \"#utility.yul\":10447:10576   */\n      swap2\n      swap1\n      pop\n      jump\t// out\n        /* \"#utility.yul\":10582:10657   */\n    tag_389:\n        /* \"#utility.yul\":10615:10621   */\n      0x00\n        /* \"#utility.yul\":10648:10650   */\n      0x40\n        /* \"#utility.yul\":10642:10651   */\n      mload\n        /* \"#utility.yul\":10632:10651   */\n      swap1\n      pop\n        /* \"#utility.yul\":10582:10657   */\n      swap1\n      jump\t// out\n        /* \"#utility.yul\":10663:10971   */\n    tag_255:\n        /* \"#utility.yul\":10725:10729   */\n      0x00\n        /* \"#utility.yul\":10815:10833   */\n      0xffffffffffffffff\n        /* \"#utility.yul\":10807:10813   */\n      dup3\n        /* \"#utility.yul\":10804:10834   */\n      gt\n        /* \"#utility.yul\":10801:10857   */\n      iszero\n      tag_394\n      jumpi\n        /* \"#utility.yul\":10837:10855   */\n      tag_395\n      tag_396\n      jump\t// in\n    tag_395:\n        /* \"#utility.yul\":10801:10857   */\n    tag_394:\n        /* \"#utility.yul\":10875:10904   */\n      tag_397\n        /* \"#utility.yul\":10897:10903   */\n      dup3\n        /* \"#utility.yul\":10875:10904   */\n      tag_335\n      jump\t// in\n    tag_397:\n        /* \"#utility.yul\":10867:10904   */\n      swap1\n      pop\n        /* \"#utility.yul\":10959:10963   */\n      0x20\n        /* \"#utility.yul\":10953:10957   */\n      dup2\n        /* \"#utility.yul\":10949:10964   */\n      add\n        /* \"#utility.yul\":10941:10964   */\n      swap1\n      pop\n        /* \"#utility.yul\":10663:10971   */\n      swap2\n      swap1\n      pop\n      jump\t// out\n        /* \"#utility.yul\":10977:11076   */\n    tag_329:\n        /* \"#utility.yul\":11029:11035   */\n      0x00\n        /* \"#utility.yul\":11063:11068   */\n      dup2\n        /* \"#utility.yul\":11057:11069   */\n      mload\n        /* \"#utility.yul\":11047:11069   */\n      swap1\n      pop\n        /* \"#utility.yul\":10977:11076   */\n      swap2\n      swap1\n      pop\n      jump\t// out\n        /* \"#utility.yul\":11082:11251   */\n    tag_331:\n        /* \"#utility.yul\":11166:11177   */\n      0x00\n        /* \"#utility.yul\":11200:11206   */\n      dup3\n        /* \"#utility.yul\":11195:11198   */\n      dup3\n        /* \"#utility.yul\":11188:11207   */\n      mstore\n        /* \"#utility.yul\":11240:11244   */\n      0x20\n        /* \"#utility.yul\":11235:11238   */\n      dup3\n        /* \"#utility.yul\":11231:11245   */\n      add\n        /* \"#utility.yul\":11216:11245   */\n      swap1\n      pop\n        /* \"#utility.yul\":11082:11251   */\n      swap3\n      swap2\n      pop\n      pop\n      jump\t// out\n        /* \"#utility.yul\":11257:11562   */\n    tag_168:\n        /* \"#utility.yul\":11297:11300   */\n      0x00\n        /* \"#utility.yul\":11316:11336   */\n      tag_401\n        /* \"#utility.yul\":11334:11335   */\n      dup3\n        /* \"#utility.yul\":11316:11336   */\n      tag_364\n      jump\t// in\n    tag_401:\n        /* \"#utility.yul\":11311:11336   */\n      swap2\n      pop\n        /* \"#utility.yul\":11350:11370   */\n      tag_402\n        /* \"#utility.yul\":11368:11369   */\n      dup4\n        /* \"#utility.yul\":11350:11370   */\n      tag_364\n      jump\t// in\n    tag_402:\n        /* \"#utility.yul\":11345:11370   */\n      swap3\n      pop\n        /* \"#utility.yul\":11504:11505   */\n      dup3\n        /* \"#utility.yul\":11436:11502   */\n      0xffffffffffffffffffffffffffffffffffffffffffffffffffffffffffffffff\n        /* \"#utility.yul\":11432:11506   */\n      sub\n        /* \"#utility.yul\":11429:11430   */\n      dup3\n        /* \"#utility.yul\":11426:11507   */\n      gt\n        /* \"#utility.yul\":11423:11530   */\n      iszero\n      tag_403\n      jumpi\n        /* \"#utility.yul\":11510:11528   */\n      tag_404\n      tag_405\n      jump\t// in\n    tag_404:\n        /* \"#utility.yul\":11423:11530   */\n    tag_403:\n        /* \"#utility.yul\":11554:11555   */\n      dup3\n        /* \"#utility.yul\":11551:11552   */\n      dup3\n        /* \"#utility.yul\":11547:11556   */\n      add\n        /* \"#utility.yul\":11540:11556   */\n      swap1\n      pop\n        /* \"#utility.yul\":11257:11562   */\n      swap3\n      swap2\n      pop\n      pop\n      jump\t// out\n        /* \"#utility.yul\":11568:11759   */\n    tag_145:\n        /* \"#utility.yul\":11608:11612   */\n      0x00\n        /* \"#utility.yul\":11628:11648   */\n      tag_407\n        /* \"#utility.yul\":11646:11647   */\n      dup3\n        /* \"#utility.yul\":11628:11648   */\n      tag_364\n      jump\t// in\n    tag_407:\n        /* \"#utility.yul\":11623:11648   */\n      swap2\n      pop\n        /* \"#utility.yul\":11662:11682   */\n      tag_408\n        /* \"#utility.yul\":11680:11681   */\n      dup4\n        /* \"#utility.yul\":11662:11682   */\n      tag_364\n      jump\t// in\n    tag_408:\n        /* \"#utility.yul\":11657:11682   */\n      swap3\n      pop\n        /* \"#utility.yul\":11701:11702   */\n      dup3\n        /* \"#utility.yul\":11698:11699   */\n      dup3\n        /* \"#utility.yul\":11695:11703   */\n      lt\n        /* \"#utility.yul\":11692:11726   */\n      iszero\n      tag_409\n      jumpi\n        /* \"#utility.yul\":11706:11724   */\n      tag_410\n      tag_405\n      jump\t// in\n    tag_410:\n        /* \"#utility.yul\":11692:11726   */\n    tag_409:\n        /* \"#utility.yul\":11751:11752   */\n      dup3\n        /* \"#utility.yul\":11748:11749   */\n      dup3\n        /* \"#utility.yul\":11744:11753   */\n      sub\n        /* \"#utility.yul\":11736:11753   */\n      swap1\n      pop\n        /* \"#utility.yul\":11568:11759   */\n      swap3\n      swap2\n      pop\n      pop\n      jump\t// out\n        /* \"#utility.yul\":11765:11861   */\n    tag_321:\n        /* \"#utility.yul\":11802:11809   */\n      0x00\n        /* \"#utility.yul\":11831:11855   */\n      tag_412\n        /* \"#utility.yul\":11849:11854   */\n      dup3\n        /* \"#utility.yul\":11831:11855   */\n      tag_413\n      jump\t// in\n    tag_412:\n        /* \"#utility.yul\":11820:11855   */\n      swap1\n      pop\n        /* \"#utility.yul\":11765:11861   */\n      swap2\n      swap1\n      pop\n      jump\t// out\n        /* \"#utility.yul\":11867:11971   */\n    tag_317:\n        /* \"#utility.yul\":11912:11919   */\n      0x00\n        /* \"#utility.yul\":11941:11965   */\n      tag_415\n        /* \"#utility.yul\":11959:11964   */\n      dup3\n        /* \"#utility.yul\":11941:11965   */\n      tag_413\n      jump\t// in\n    tag_415:\n        /* \"#utility.yul\":11930:11965   */\n      swap1\n      pop\n        /* \"#utility.yul\":11867:11971   */\n      swap2\n      swap1\n      pop\n      jump\t// out\n        /* \"#utility.yul\":11977:12067   */\n    tag_325:\n        /* \"#utility.yul\":12011:12018   */\n      0x00\n        /* \"#utility.yul\":12054:12059   */\n      dup2\n        /* \"#utility.yul\":12047:12060   */\n      iszero\n        /* \"#utility.yul\":12040:12061   */\n      iszero\n        /* \"#utility.yul\":12029:12061   */\n      swap1\n      pop\n        /* \"#utility.yul\":11977:12067   */\n      swap2\n      swap1\n      pop\n      jump\t// out\n        /* \"#utility.yul\":12073:12199   */\n    tag_413:\n        /* \"#utility.yul\":12110:12117   */\n      0x00\n        /* \"#utility.yul\":12150:12192   */\n      0xffffffffffffffffffffffffffffffffffffffff\n        /* \"#utility.yul\":12143:12148   */\n      dup3\n        /* \"#utility.yul\":12139:12193   */\n      and\n        /* \"#utility.yul\":12128:12193   */\n      swap1\n      pop\n        /* \"#utility.yul\":12073:12199   */\n      swap2\n      swap1\n      pop\n      jump\t// out\n        /* \"#utility.yul\":12205:12282   */\n    tag_364:\n        /* \"#utility.yul\":12242:12249   */\n      0x00\n        /* \"#utility.yul\":12271:12276   */\n      dup2\n        /* \"#utility.yul\":12260:12276   */\n      swap1\n      pop\n        /* \"#utility.yul\":12205:12282   */\n      swap2\n      swap1\n      pop\n      jump\t// out\n        /* \"#utility.yul\":12288:12442   */\n    tag_261:\n        /* \"#utility.yul\":12372:12378   */\n      dup3\n        /* \"#utility.yul\":12367:12370   */\n      dup2\n        /* \"#utility.yul\":12362:12365   */\n      dup4\n        /* \"#utility.yul\":12349:12379   */\n      calldatacopy\n        /* \"#utility.yul\":12434:12435   */\n      0x00\n        /* \"#utility.yul\":12425:12431   */\n      dup4\n        /* \"#utility.yul\":12420:12423   */\n      dup4\n        /* \"#utility.yul\":12416:12432   */\n      add\n        /* \"#utility.yul\":12409:12436   */\n      mstore\n        /* \"#utility.yul\":12288:12442   */\n      pop\n      pop\n      pop\n      jump\t// out\n        /* \"#utility.yul\":12448:12755   */\n    tag_333:\n        /* \"#utility.yul\":12516:12517   */\n      0x00\n        /* \"#utility.yul\":12526:12639   */\n    tag_421:\n        /* \"#utility.yul\":12540:12546   */\n      dup4\n        /* \"#utility.yul\":12537:12538   */\n      dup2\n        /* \"#utility.yul\":12534:12547   */\n      lt\n        /* \"#utility.yul\":12526:12639   */\n      iszero\n      tag_423\n      jumpi\n        /* \"#utility.yul\":12625:12626   */\n      dup1\n        /* \"#utility.yul\":12620:12623   */\n      dup3\n        /* \"#utility.yul\":12616:12627   */\n      add\n        /* \"#utility.yul\":12610:12628   */\n      mload\n        /* \"#utility.yul\":12606:12607   */\n      dup2\n        /* \"#utility.yul\":12601:12604   */\n      dup5\n        /* \"#utility.yul\":12597:12608   */\n      add\n        /* \"#utility.yul\":12590:12629   */\n      mstore\n        /* \"#utility.yul\":12562:12564   */\n      0x20\n        /* \"#utility.yul\":12559:12560   */\n      dup2\n        /* \"#utility.yul\":12555:12565   */\n      add\n        /* \"#utility.yul\":12550:12565   */\n      swap1\n      pop\n        /* \"#utility.yul\":12526:12639   */\n      jump(tag_421)\n    tag_423:\n        /* \"#utility.yul\":12657:12663   */\n      dup4\n        /* \"#utility.yul\":12654:12655   */\n      dup2\n        /* \"#utility.yul\":12651:12664   */\n      gt\n        /* \"#utility.yul\":12648:12749   */\n      iszero\n      tag_424\n      jumpi\n        /* \"#utility.yul\":12737:12738   */\n      0x00\n        /* \"#utility.yul\":12728:12734   */\n      dup5\n        /* \"#utility.yul\":12723:12726   */\n      dup5\n        /* \"#utility.yul\":12719:12735   */\n      add\n        /* \"#utility.yul\":12712:12739   */\n      mstore\n        /* \"#utility.yul\":12648:12749   */\n    tag_424:\n        /* \"#utility.yul\":12497:12755   */\n      pop\n        /* \"#utility.yul\":12448:12755   */\n      pop\n      pop\n      pop\n      jump\t// out\n        /* \"#utility.yul\":12761:13081   */\n    tag_153:\n        /* \"#utility.yul\":12805:12811   */\n      0x00\n        /* \"#utility.yul\":12842:12843   */\n      0x02\n        /* \"#utility.yul\":12836:12840   */\n      dup3\n        /* \"#utility.yul\":12832:12844   */\n      div\n        /* \"#utility.yul\":12822:12844   */\n      swap1\n      pop\n        /* \"#utility.yul\":12889:12890   */\n      0x01\n        /* \"#utility.yul\":12883:12887   */\n      dup3\n        /* \"#utility.yul\":12879:12891   */\n      and\n        /* \"#utility.yul\":12910:12928   */\n      dup1\n        /* \"#utility.yul\":12900:12981   */\n      tag_426\n      jumpi\n        /* \"#utility.yul\":12966:12970   */\n      0x7f\n        /* \"#utility.yul\":12958:12964   */\n      dup3\n        /* \"#utility.yul\":12954:12971   */\n      and\n        /* \"#utility.yul\":12944:12971   */\n      swap2\n      pop\n        /* \"#utility.yul\":12900:12981   */\n    tag_426:\n        /* \"#utility.yul\":13028:13030   */\n      0x20\n        /* \"#utility.yul\":13020:13026   */\n      dup3\n        /* \"#utility.yul\":13017:13031   */\n      lt\n        /* \"#utility.yul\":12997:13015   */\n      dup2\n        /* \"#utility.yul\":12994:13032   */\n      eq\n        /* \"#utility.yul\":12991:13075   */\n      iszero\n      tag_427\n      jumpi\n        /* \"#utility.yul\":13047:13065   */\n      tag_428\n      tag_429\n      jump\t// in\n    tag_428:\n        /* \"#utility.yul\":12991:13075   */\n    tag_427:\n        /* \"#utility.yul\":12812:13081   */\n      pop\n        /* \"#utility.yul\":12761:13081   */\n      swap2\n      swap1\n      pop\n      jump\t// out\n        /* \"#utility.yul\":13087:13368   */\n    tag_391:\n        /* \"#utility.yul\":13170:13197   */\n      tag_431\n        /* \"#utility.yul\":13192:13196   */\n      dup3\n        /* \"#utility.yul\":13170:13197   */\n      tag_335\n      jump\t// in\n    tag_431:\n        /* \"#utility.yul\":13162:13168   */\n      dup2\n        /* \"#utility.yul\":13158:13198   */\n      add\n        /* \"#utility.yul\":13300:13306   */\n      dup2\n        /* \"#utility.yul\":13288:13298   */\n      dup2\n        /* \"#utility.yul\":13285:13307   */\n      lt\n        /* \"#utility.yul\":13264:13282   */\n      0xffffffffffffffff\n        /* \"#utility.yul\":13252:13262   */\n      dup3\n        /* \"#utility.yul\":13249:13283   */\n      gt\n        /* \"#utility.yul\":13246:13308   */\n      or\n        /* \"#utility.yul\":13243:13331   */\n      iszero\n      tag_432\n      jumpi\n        /* \"#utility.yul\":13311:13329   */\n      tag_433\n      tag_396\n      jump\t// in\n    tag_433:\n        /* \"#utility.yul\":13243:13331   */\n    tag_432:\n        /* \"#utility.yul\":13351:13361   */\n      dup1\n        /* \"#utility.yul\":13347:13349   */\n      0x40\n        /* \"#utility.yul\":13340:13362   */\n      mstore\n        /* \"#utility.yul\":13130:13368   */\n      pop\n        /* \"#utility.yul\":13087:13368   */\n      pop\n      pop\n      jump\t// out\n        /* \"#utility.yul\":13374:13607   */\n    tag_79:\n        /* \"#utility.yul\":13413:13416   */\n      0x00\n        /* \"#utility.yul\":13436:13460   */\n      tag_435\n        /* \"#utility.yul\":13454:13459   */\n      dup3\n        /* \"#utility.yul\":13436:13460   */\n      tag_364\n      jump\t// in\n    tag_435:\n        /* \"#utility.yul\":13427:13460   */\n      swap2\n      pop\n        /* \"#utility.yul\":13482:13548   */\n      0xffffffffffffffffffffffffffffffffffffffffffffffffffffffffffffffff\n        /* \"#utility.yul\":13475:13480   */\n      dup3\n        /* \"#utility.yul\":13472:13549   */\n      eq\n        /* \"#utility.yul\":13469:13572   */\n      iszero\n      tag_436\n      jumpi\n        /* \"#utility.yul\":13552:13570   */\n      tag_437\n      tag_405\n      jump\t// in\n    tag_437:\n        /* \"#utility.yul\":13469:13572   */\n    tag_436:\n        /* \"#utility.yul\":13599:13600   */\n      0x01\n        /* \"#utility.yul\":13592:13597   */\n      dup3\n        /* \"#utility.yul\":13588:13601   */\n      add\n        /* \"#utility.yul\":13581:13601   */\n      swap1\n      pop\n        /* \"#utility.yul\":13374:13607   */\n      swap2\n      swap1\n      pop\n      jump\t// out\n        /* \"#utility.yul\":13613:13793   */\n    tag_405:\n        /* \"#utility.yul\":13661:13738   */\n      0x4e487b7100000000000000000000000000000000000000000000000000000000\n        /* \"#utility.yul\":13658:13659   */\n      0x00\n        /* \"#utility.yul\":13651:13739   */\n      mstore\n        /* \"#utility.yul\":13758:13762   */\n      0x11\n        /* \"#utility.yul\":13755:13756   */\n      0x04\n        /* \"#utility.yul\":13748:13763   */\n      mstore\n        /* \"#utility.yul\":13782:13786   */\n      0x24\n        /* \"#utility.yul\":13779:13780   */\n      0x00\n        /* \"#utility.yul\":13772:13787   */\n      revert\n        /* \"#utility.yul\":13799:13979   */\n    tag_429:\n        /* \"#utility.yul\":13847:13924   */\n      0x4e487b7100000000000000000000000000000000000000000000000000000000\n        /* \"#utility.yul\":13844:13845   */\n      0x00\n        /* \"#utility.yul\":13837:13925   */\n      mstore\n        /* \"#utility.yul\":13944:13948   */\n      0x22\n        /* \"#utility.yul\":13941:13942   */\n      0x04\n        /* \"#utility.yul\":13934:13949   */\n      mstore\n        /* \"#utility.yul\":13968:13972   */\n      0x24\n        /* \"#utility.yul\":13965:13966   */\n      0x00\n        /* \"#utility.yul\":13958:13973   */\n      revert\n        /* \"#utility.yul\":13985:14165   */\n    tag_163:\n        /* \"#utility.yul\":14033:14110   */\n      0x4e487b7100000000000000000000000000000000000000000000000000000000\n        /* \"#utility.yul\":14030:14031   */\n      0x00\n        /* \"#utility.yul\":14023:14111   */\n      mstore\n        /* \"#utility.yul\":14130:14134   */\n      0x31\n        /* \"#utility.yul\":14127:14128   */\n      0x04\n        /* \"#utility.yul\":14120:14135   */\n      mstore\n        /* \"#utility.yul\":14154:14158   */\n      0x24\n        /* \"#utility.yul\":14151:14152   */\n      0x00\n        /* \"#utility.yul\":14144:14159   */\n      revert\n        /* \"#utility.yul\":14171:14351   */\n    tag_73:\n        /* \"#utility.yul\":14219:14296   */\n      0x4e487b7100000000000000000000000000000000000000000000000000000000\n        /* \"#utility.yul\":14216:14217   */\n      0x00\n        /* \"#utility.yul\":14209:14297   */\n      mstore\n        /* \"#utility.yul\":14316:14320   */\n      0x32\n        /* \"#utility.yul\":14313:14314   */\n      0x04\n        /* \"#utility.yul\":14306:14321   */\n      mstore\n        /* \"#utility.yul\":14340:14344   */\n      0x24\n        /* \"#utility.yul\":14337:14338   */\n      0x00\n        /* \"#utility.yul\":14330:14345   */\n      revert\n        /* \"#utility.yul\":14357:14537   */\n    tag_396:\n        /* \"#utility.yul\":14405:14482   */\n      0x4e487b7100000000000000000000000000000000000000000000000000000000\n        /* \"#utility.yul\":14402:14403   */\n      0x00\n        /* \"#utility.yul\":14395:14483   */\n      mstore\n        /* \"#utility.yul\":14502:14506   */\n      0x41\n        /* \"#utility.yul\":14499:14500   */\n      0x04\n        /* \"#utility.yul\":14492:14507   */\n      mstore\n        /* \"#utility.yul\":14526:14530   */\n      0x24\n        /* \"#utility.yul\":14523:14524   */\n      0x00\n        /* \"#utility.yul\":14516:14531   */\n      revert\n        /* \"#utility.yul\":14543:14660   */\n    tag_278:\n        /* \"#utility.yul\":14652:14653   */\n      0x00\n        /* \"#utility.yul\":14649:14650   */\n      dup1\n        /* \"#utility.yul\":14642:14654   */\n      revert\n        /* \"#utility.yul\":14666:14783   */\n    tag_259:\n        /* \"#utility.yul\":14775:14776   */\n      0x00\n        /* \"#utility.yul\":14772:14773   */\n      dup1\n        /* \"#utility.yul\":14765:14777   */\n      revert\n        /* \"#utility.yul\":14789:14906   */\n    tag_304:\n        /* \"#utility.yul\":14898:14899   */\n      0x00\n        /* \"#utility.yul\":14895:14896   */\n      dup1\n        /* \"#utility.yul\":14888:14900   */\n      revert\n        /* \"#utility.yul\":14912:15029   */\n    tag_287:\n        /* \"#utility.yul\":15021:15022   */\n      0x00\n        /* \"#utility.yul\":15018:15019   */\n      dup1\n        /* \"#utility.yul\":15011:15023   */\n      revert\n        /* \"#utility.yul\":15035:15137   */\n    tag_335:\n        /* \"#utility.yul\":15076:15082   */\n      0x00\n        /* \"#utility.yul\":15127:15129   */\n      0x1f\n        /* \"#utility.yul\":15123:15130   */\n      not\n        /* \"#utility.yul\":15118:15120   */\n      0x1f\n        /* \"#utility.yul\":15111:15116   */\n      dup4\n        /* \"#utility.yul\":15107:15121   */\n      add\n        /* \"#utility.yul\":15103:15131   */\n      and\n        /* \"#utility.yul\":15093:15131   */\n      swap1\n      pop\n        /* \"#utility.yul\":15035:15137   */\n      swap2\n      swap1\n      pop\n      jump\t// out\n        /* \"#utility.yul\":15143:15313   */\n    tag_340:\n        /* \"#utility.yul\":15283:15305   */\n      0x4661696c656420746f2073656e64204554484552000000000000000000000000\n        /* \"#utility.yul\":15279:15280   */\n      0x00\n        /* \"#utility.yul\":15271:15277   */\n      dup3\n        /* \"#utility.yul\":15267:15281   */\n      add\n        /* \"#utility.yul\":15260:15306   */\n      mstore\n        /* \"#utility.yul\":15143:15313   */\n      pop\n      jump\t// out\n        /* \"#utility.yul\":15319:15491   */\n    tag_345:\n        /* \"#utility.yul\":15459:15483   */\n      0x796f7520646f6e27742068617665207269676874732000000000000000000000\n        /* \"#utility.yul\":15455:15456   */\n      0x00\n        /* \"#utility.yul\":15447:15453   */\n      dup3\n        /* \"#utility.yul\":15443:15457   */\n      add\n        /* \"#utility.yul\":15436:15484   */\n      mstore\n        /* \"#utility.yul\":15319:15491   */\n      pop\n      jump\t// out\n        /* \"#utility.yul\":15497:15672   */\n    tag_350:\n        /* \"#utility.yul\":15637:15664   */\n      0x53616c61727920616c7265616479206973206372656974656400000000000000\n        /* \"#utility.yul\":15633:15634   */\n      0x00\n        /* \"#utility.yul\":15625:15631   */\n      dup3\n        /* \"#utility.yul\":15621:15635   */\n      add\n        /* \"#utility.yul\":15614:15665   */\n      mstore\n        /* \"#utility.yul\":15497:15672   */\n      pop\n      jump\t// out\n        /* \"#utility.yul\":15678:15849   */\n    tag_355:\n        /* \"#utility.yul\":15818:15841   */\n      0x7573657220616c72656164792072656769737465720000000000000000000000\n        /* \"#utility.yul\":15814:15815   */\n      0x00\n        /* \"#utility.yul\":15806:15812   */\n      dup3\n        /* \"#utility.yul\":15802:15816   */\n      add\n        /* \"#utility.yul\":15795:15842   */\n      mstore\n        /* \"#utility.yul\":15678:15849   */\n      pop\n      jump\t// out\n        /* \"#utility.yul\":15855:16023   */\n    tag_360:\n        /* \"#utility.yul\":15995:16015   */\n      0x656d706c6f796565206e6f7420666f756e640000000000000000000000000000\n        /* \"#utility.yul\":15991:15992   */\n      0x00\n        /* \"#utility.yul\":15983:15989   */\n      dup3\n        /* \"#utility.yul\":15979:15993   */\n      add\n        /* \"#utility.yul\":15972:16016   */\n      mstore\n        /* \"#utility.yul\":15855:16023   */\n      pop\n      jump\t// out\n        /* \"#utility.yul\":16029:16151   */\n    tag_265:\n        /* \"#utility.yul\":16102:16126   */\n      tag_454\n        /* \"#utility.yul\":16120:16125   */\n      dup2\n        /* \"#utility.yul\":16102:16126   */\n      tag_321\n      jump\t// in\n    tag_454:\n        /* \"#utility.yul\":16095:16100   */\n      dup2\n        /* \"#utility.yul\":16092:16127   */\n      eq\n        /* \"#utility.yul\":16082:16145   */\n      tag_455\n      jumpi\n        /* \"#utility.yul\":16141:16142   */\n      0x00\n        /* \"#utility.yul\":16138:16139   */\n      dup1\n        /* \"#utility.yul\":16131:16143   */\n      revert\n        /* \"#utility.yul\":16082:16145   */\n    tag_455:\n        /* \"#utility.yul\":16029:16151   */\n      pop\n      jump\t// out\n        /* \"#utility.yul\":16157:16295   */\n    tag_269:\n        /* \"#utility.yul\":16238:16270   */\n      tag_457\n        /* \"#utility.yul\":16264:16269   */\n      dup2\n        /* \"#utility.yul\":16238:16270   */\n      tag_317\n      jump\t// in\n    tag_457:\n        /* \"#utility.yul\":16231:16236   */\n      dup2\n        /* \"#utility.yul\":16228:16271   */\n      eq\n        /* \"#utility.yul\":16218:16289   */\n      tag_458\n      jumpi\n        /* \"#utility.yul\":16285:16286   */\n      0x00\n        /* \"#utility.yul\":16282:16283   */\n      dup1\n        /* \"#utility.yul\":16275:16287   */\n      revert\n        /* \"#utility.yul\":16218:16289   */\n    tag_458:\n        /* \"#utility.yul\":16157:16295   */\n      pop\n      jump\t// out\n        /* \"#utility.yul\":16301:16417   */\n    tag_273:\n        /* \"#utility.yul\":16371:16392   */\n      tag_460\n        /* \"#utility.yul\":16386:16391   */\n      dup2\n        /* \"#utility.yul\":16371:16392   */\n      tag_325\n      jump\t// in\n    tag_460:\n        /* \"#utility.yul\":16364:16369   */\n      dup2\n        /* \"#utility.yul\":16361:16393   */\n      eq\n        /* \"#utility.yul\":16351:16411   */\n      tag_461\n      jumpi\n        /* \"#utility.yul\":16407:16408   */\n      0x00\n        /* \"#utility.yul\":16404:16405   */\n      dup1\n        /* \"#utility.yul\":16397:16409   */\n      revert\n        /* \"#utility.yul\":16351:16411   */\n    tag_461:\n        /* \"#utility.yul\":16301:16417   */\n      pop\n      jump\t// out\n        /* \"#utility.yul\":16423:16545   */\n    tag_283:\n        /* \"#utility.yul\":16496:16520   */\n      tag_463\n        /* \"#utility.yul\":16514:16519   */\n      dup2\n        /* \"#utility.yul\":16496:16520   */\n      tag_364\n      jump\t// in\n    tag_463:\n        /* \"#utility.yul\":16489:16494   */\n      dup2\n        /* \"#utility.yul\":16486:16521   */\n      eq\n        /* \"#utility.yul\":16476:16539   */\n      tag_464\n      jumpi\n        /* \"#utility.yul\":16535:16536   */\n      0x00\n        /* \"#utility.yul\":16532:16533   */\n      dup1\n        /* \"#utility.yul\":16525:16537   */\n      revert\n        /* \"#utility.yul\":16476:16539   */\n    tag_464:\n        /* \"#utility.yul\":16423:16545   */\n      pop\n      jump\t// out\n\n    auxdata: 0xa2646970667358221220c031a450a6eacc205b874c6d11ca71a3118ecf315ca92ba66a50481c34d7b78e64736f6c63430008070033\n}\n",
				"bytecode": {
					"linkReferences": {},
					"object": "608060405266470de4df820000600155666a94d74f43000060025534801561002657600080fd5b50336000806101000a81548173ffffffffffffffffffffffffffffffffffffffff021916908373ffffffffffffffffffffffffffffffffffffffff160217905550611fd8806100766000396000f3fe6080604052600436106100915760003560e01c8063b58f421c11610059578063b58f421c1461014d578063ba0ce2bb1461018e578063d17106b7146101cb578063e66a458e1461020c578063f851a4401461023557610091565b8063026f119a1461009657806304b642a4146100ad57806318c7a051146100b757806352d6abdc146100e75780637a7e436914610124575b600080fd5b3480156100a257600080fd5b506100ab610260565b005b6100b5610384565b005b6100d160048036038101906100cc9190611772565b6105f3565b6040516100de9190611b0a565b60405180910390f35b3480156100f357600080fd5b5061010e60048036038101906101099190611745565b61079d565b60405161011b91906119f5565b60405180910390f35b34801561013057600080fd5b5061014b600480360381019061014691906117f2565b610c60565b005b34801561015957600080fd5b50610174600480360381019061016f9190611889565b610efc565b604051610185959493929190611a10565b60405180910390f35b34801561019a57600080fd5b506101b560048036038101906101b09190611745565b610ff7565b6040516101c291906119f5565b60405180910390f35b3480156101d757600080fd5b506101f260048036038101906101ed9190611745565b6111c0565b604051610203959493929190611a10565b60405180910390f35b34801561021857600080fd5b50610233600480360381019061022e91906117b2565b6112ab565b005b34801561024157600080fd5b5061024a6114a6565b60405161025791906119da565b60405180910390f35b60008054906101000a900473ffffffffffffffffffffffffffffffffffffffff1673ffffffffffffffffffffffffffffffffffffffff163373ffffffffffffffffffffffffffffffffffffffff16146102ee576040517f08c379a00000000000000000000000000000000000000000000000000000000081526004016102e590611a8a565b60405180910390fd5b60005b600480549050811015610381576004818154811061031257610311611df6565b5b906000526020600020906004020160030160149054906101000a900460ff16156004828154811061034657610345611df6565b5b906000526020600020906004020160030160146101000a81548160ff021916908315150217905550808061037990611d20565b9150506102f1565b50565b60008054906101000a900473ffffffffffffffffffffffffffffffffffffffff1673ffffffffffffffffffffffffffffffffffffffff163373ffffffffffffffffffffffffffffffffffffffff1614610412576040517f08c379a000000000000000000000000000000000000000000000000000000000815260040161040990611a8a565b60405180910390fd5b60005b6004805490508110156105f0576004818154811061043657610435611df6565b5b906000526020600020906004020160030160149054906101000a900460ff166105dd5760016004828154811061046f5761046e611df6565b5b906000526020600020906004020160010154141561051c576104d86004828154811061049e5761049d611df6565b5b906000526020600020906004020160030160009054906101000a900473ffffffffffffffffffffffffffffffffffffffff166001546105f3565b506001600482815481106104ef576104ee611df6565b5b906000526020600020906004020160030160146101000a81548160ff0219169083151502179055506105dc565b60026004828154811061053257610531611df6565b5b90600052602060002090600402016001015414156105db5761059b6004828154811061056157610560611df6565b5b906000526020600020906004020160030160009054906101000a900473ffffffffffffffffffffffffffffffffffffffff166002546105f3565b506001600482815481106105b2576105b1611df6565b5b906000526020600020906004020160030160146101000a81548160ff0219169083151502179055505b5b5b80806105e890611d20565b915050610415565b50565b60008060009054906101000a900473ffffffffffffffffffffffffffffffffffffffff1673ffffffffffffffffffffffffffffffffffffffff163373ffffffffffffffffffffffffffffffffffffffff1614610684576040517f08c379a000000000000000000000000000000000000000000000000000000000815260040161067b90611a8a565b60405180910390fd5b600360008473ffffffffffffffffffffffffffffffffffffffff1673ffffffffffffffffffffffffffffffffffffffff16815260200190815260200160002060030160149054906101000a900460ff1615610714576040517f08c379a000000000000000000000000000000000000000000000000000000000815260040161070b90611aaa565b60405180910390fd5b60008373ffffffffffffffffffffffffffffffffffffffff166108fc849081150290604051600060405180830381858888f1935050505090508061078d576040517f08c379a000000000000000000000000000000000000000000000000000000000815260040161078490611a6a565b60405180910390fd5b6000479050809250505092915050565b60008060009054906101000a900473ffffffffffffffffffffffffffffffffffffffff1673ffffffffffffffffffffffffffffffffffffffff163373ffffffffffffffffffffffffffffffffffffffff161461082e576040517f08c379a000000000000000000000000000000000000000000000000000000000815260040161082590611a8a565b60405180910390fd5b60006108386114ca565b6000600480549050811015610c57578473ffffffffffffffffffffffffffffffffffffffff166004828154811061087257610871611df6565b5b906000526020600020906004020160030160009054906101000a900473ffffffffffffffffffffffffffffffffffffffff1673ffffffffffffffffffffffffffffffffffffffff161415610bf45781600482815481106108d5576108d4611df6565b5b906000526020600020906004020160008201518160000190805190602001906108ff929190611511565b50602082015181600101556040820151816002015560608201518160030160006101000a81548173ffffffffffffffffffffffffffffffffffffffff021916908373ffffffffffffffffffffffffffffffffffffffff16021790555060808201518160030160146101000a81548160ff021916908315150217905550905050600460016004805490506109929190611bed565b815481106109a3576109a2611df6565b5b9060005260206000209060040201600482815481106109c5576109c4611df6565b5b906000526020600020906004020160008201816000019080546109e790611cbd565b6109f2929190611597565b5060018201548160010155600282015481600201556003820160009054906101000a900473ffffffffffffffffffffffffffffffffffffffff168160030160006101000a81548173ffffffffffffffffffffffffffffffffffffffff021916908373ffffffffffffffffffffffffffffffffffffffff1602179055506003820160149054906101000a900460ff168160030160146101000a81548160ff0219169083151502179055509050508160046001600480549050610ab39190611bed565b81548110610ac457610ac3611df6565b5b90600052602060002090600402016000820151816000019080519060200190610aee929190611511565b50602082015181600101556040820151816002015560608201518160030160006101000a81548173ffffffffffffffffffffffffffffffffffffffff021916908373ffffffffffffffffffffffffffffffffffffffff16021790555060808201518160030160146101000a81548160ff0219169083151502179055509050506004805480610b7f57610b7e611dc7565b5b600190038181906000526020600020906004020160008082016000610ba49190611624565b600182016000905560028201600090556003820160006101000a81549073ffffffffffffffffffffffffffffffffffffffff02191690556003820160146101000a81549060ff0219169055505090555b600183610c019190611b97565b9250826004805490501415610c4b576040517f08c379a0000000000000000000000000000000000000000000000000000000008152600401610c4290611aea565b60405180910390fd5b60019350505050610c5b565b5050505b919050565b8173ffffffffffffffffffffffffffffffffffffffff16600360008473ffffffffffffffffffffffffffffffffffffffff1673ffffffffffffffffffffffffffffffffffffffff16815260200190815260200160002060030160009054906101000a900473ffffffffffffffffffffffffffffffffffffffff1673ffffffffffffffffffffffffffffffffffffffff161415610d31576040517f08c379a0000000000000000000000000000000000000000000000000000000008152600401610d2890611aca565b60405180910390fd5b6000600360008473ffffffffffffffffffffffffffffffffffffffff1673ffffffffffffffffffffffffffffffffffffffff168152602001908152602001600020905085816000019080519060200190610d8c929190611511565b50848160010181905550838160020181905550828160030160006101000a81548173ffffffffffffffffffffffffffffffffffffffff021916908373ffffffffffffffffffffffffffffffffffffffff160217905550818160030160146101000a81548160ff02191690831515021790555060048190806001815401808255809150506001900390600052602060002090600402016000909190919091506000820181600001908054610e3e90611cbd565b610e49929190611597565b5060018201548160010155600282015481600201556003820160009054906101000a900473ffffffffffffffffffffffffffffffffffffffff168160030160006101000a81548173ffffffffffffffffffffffffffffffffffffffff021916908373ffffffffffffffffffffffffffffffffffffffff1602179055506003820160149054906101000a900460ff168160030160146101000a81548160ff0219169083151502179055505050505050505050565b60048181548110610f0c57600080fd5b9060005260206000209060040201600091509050806000018054610f2f90611cbd565b80601f0160208091040260200160405190810160405280929190818152602001828054610f5b90611cbd565b8015610fa85780601f10610f7d57610100808354040283529160200191610fa8565b820191906000526020600020905b815481529060010190602001808311610f8b57829003601f168201915b5050505050908060010154908060020154908060030160009054906101000a900473ffffffffffffffffffffffffffffffffffffffff16908060030160149054906101000a900460ff16905085565b60008060009054906101000a900473ffffffffffffffffffffffffffffffffffffffff1673ffffffffffffffffffffffffffffffffffffffff163373ffffffffffffffffffffffffffffffffffffffff1614611088576040517f08c379a000000000000000000000000000000000000000000000000000000000815260040161107f90611a8a565b60405180910390fd5b6000805b6004805490508110156111b8578373ffffffffffffffffffffffffffffffffffffffff16600482815481106110c4576110c3611df6565b5b906000526020600020906004020160030160009054906101000a900473ffffffffffffffffffffffffffffffffffffffff1673ffffffffffffffffffffffffffffffffffffffff16141561114e576004818154811061112657611125611df6565b5b906000526020600020906004020160030160149054906101000a900460ff16925050506111bb565b60018261115b9190611b97565b91508160048054905014156111a5576040517f08c379a000000000000000000000000000000000000000000000000000000000815260040161119c90611aea565b60405180910390fd5b80806111b090611d20565b91505061108c565b50505b919050565b60036020528060005260406000206000915090508060000180546111e390611cbd565b80601f016020809104026020016040519081016040528092919081815260200182805461120f90611cbd565b801561125c5780601f106112315761010080835404028352916020019161125c565b820191906000526020600020905b81548152906001019060200180831161123f57829003601f168201915b5050505050908060010154908060020154908060030160009054906101000a900473ffffffffffffffffffffffffffffffffffffffff16908060030160149054906101000a900460ff16905085565b60008054906101000a900473ffffffffffffffffffffffffffffffffffffffff1673ffffffffffffffffffffffffffffffffffffffff163373ffffffffffffffffffffffffffffffffffffffff1614611339576040517f08c379a000000000000000000000000000000000000000000000000000000000815260040161133090611a8a565b60405180910390fd5b600081600360008573ffffffffffffffffffffffffffffffffffffffff1673ffffffffffffffffffffffffffffffffffffffff1681526020019081526020016000206001018190555060005b6004805490508110156114a0578373ffffffffffffffffffffffffffffffffffffffff16600482815481106113bd576113bc611df6565b5b906000526020600020906004020160030160009054906101000a900473ffffffffffffffffffffffffffffffffffffffff1673ffffffffffffffffffffffffffffffffffffffff1614156114365782600482815481106114205761141f611df6565b5b9060005260206000209060040201600101819055505b6001826114439190611b97565b915081600480549050141561148d576040517f08c379a000000000000000000000000000000000000000000000000000000000815260040161148490611aea565b60405180910390fd5b808061149890611d20565b915050611385565b50505050565b60008054906101000a900473ffffffffffffffffffffffffffffffffffffffff1681565b6040518060a00160405280606081526020016000815260200160008152602001600073ffffffffffffffffffffffffffffffffffffffff1681526020016000151581525090565b82805461151d90611cbd565b90600052602060002090601f01602090048101928261153f5760008555611586565b82601f1061155857805160ff1916838001178555611586565b82800160010185558215611586579182015b8281111561158557825182559160200191906001019061156a565b5b5090506115939190611664565b5090565b8280546115a390611cbd565b90600052602060002090601f0160209004810192826115c55760008555611613565b82601f106115d65780548555611613565b8280016001018555821561161357600052602060002091601f016020900482015b828111156116125782548255916001019190600101906115f7565b5b5090506116209190611664565b5090565b50805461163090611cbd565b6000825580601f106116425750611661565b601f0160209004906000526020600020908101906116609190611664565b5b50565b5b8082111561167d576000816000905550600101611665565b5090565b600061169461168f84611b4a565b611b25565b9050828152602081018484840111156116b0576116af611e59565b5b6116bb848285611c7b565b509392505050565b6000813590506116d281611f46565b92915050565b6000813590506116e781611f5d565b92915050565b6000813590506116fc81611f74565b92915050565b600082601f83011261171757611716611e54565b5b8135611727848260208601611681565b91505092915050565b60008135905061173f81611f8b565b92915050565b60006020828403121561175b5761175a611e63565b5b6000611769848285016116c3565b91505092915050565b6000806040838503121561178957611788611e63565b5b6000611797858286016116d8565b92505060206117a885828601611730565b9150509250929050565b600080604083850312156117c9576117c8611e63565b5b60006117d7858286016116c3565b92505060206117e885828601611730565b9150509250929050565b600080600080600060a0868803121561180e5761180d611e63565b5b600086013567ffffffffffffffff81111561182c5761182b611e5e565b5b61183888828901611702565b955050602061184988828901611730565b945050604061185a88828901611730565b935050606061186b888289016116d8565b925050608061187c888289016116ed565b9150509295509295909350565b60006020828403121561189f5761189e611e63565b5b60006118ad84828501611730565b91505092915050565b6118bf81611c33565b82525050565b6118ce81611c21565b82525050565b6118dd81611c45565b82525050565b60006118ee82611b7b565b6118f88185611b86565b9350611908818560208601611c8a565b61191181611e68565b840191505092915050565b6000611929601483611b86565b915061193482611e79565b602082019050919050565b600061194c601683611b86565b915061195782611ea2565b602082019050919050565b600061196f601983611b86565b915061197a82611ecb565b602082019050919050565b6000611992601583611b86565b915061199d82611ef4565b602082019050919050565b60006119b5601283611b86565b91506119c082611f1d565b602082019050919050565b6119d481611c71565b82525050565b60006020820190506119ef60008301846118c5565b92915050565b6000602082019050611a0a60008301846118d4565b92915050565b600060a0820190508181036000830152611a2a81886118e3565b9050611a3960208301876119cb565b611a4660408301866119cb565b611a5360608301856118b6565b611a6060808301846118d4565b9695505050505050565b60006020820190508181036000830152611a838161191c565b9050919050565b60006020820190508181036000830152611aa38161193f565b9050919050565b60006020820190508181036000830152611ac381611962565b9050919050565b60006020820190508181036000830152611ae381611985565b9050919050565b60006020820190508181036000830152611b03816119a8565b9050919050565b6000602082019050611b1f60008301846119cb565b92915050565b6000611b2f611b40565b9050611b3b8282611cef565b919050565b6000604051905090565b600067ffffffffffffffff821115611b6557611b64611e25565b5b611b6e82611e68565b9050602081019050919050565b600081519050919050565b600082825260208201905092915050565b6000611ba282611c71565b9150611bad83611c71565b9250827fffffffffffffffffffffffffffffffffffffffffffffffffffffffffffffffff03821115611be257611be1611d69565b5b828201905092915050565b6000611bf882611c71565b9150611c0383611c71565b925082821015611c1657611c15611d69565b5b828203905092915050565b6000611c2c82611c51565b9050919050565b6000611c3e82611c51565b9050919050565b60008115159050919050565b600073ffffffffffffffffffffffffffffffffffffffff82169050919050565b6000819050919050565b82818337600083830152505050565b60005b83811015611ca8578082015181840152602081019050611c8d565b83811115611cb7576000848401525b50505050565b60006002820490506001821680611cd557607f821691505b60208210811415611ce957611ce8611d98565b5b50919050565b611cf882611e68565b810181811067ffffffffffffffff82111715611d1757611d16611e25565b5b80604052505050565b6000611d2b82611c71565b91507fffffffffffffffffffffffffffffffffffffffffffffffffffffffffffffffff821415611d5e57611d5d611d69565b5b600182019050919050565b7f4e487b7100000000000000000000000000000000000000000000000000000000600052601160045260246000fd5b7f4e487b7100000000000000000000000000000000000000000000000000000000600052602260045260246000fd5b7f4e487b7100000000000000000000000000000000000000000000000000000000600052603160045260246000fd5b7f4e487b7100000000000000000000000000000000000000000000000000000000600052603260045260246000fd5b7f4e487b7100000000000000000000000000000000000000000000000000000000600052604160045260246000fd5b600080fd5b600080fd5b600080fd5b600080fd5b6000601f19601f8301169050919050565b7f4661696c656420746f2073656e64204554484552000000000000000000000000600082015250565b7f796f7520646f6e27742068617665207269676874732000000000000000000000600082015250565b7f53616c61727920616c7265616479206973206372656974656400000000000000600082015250565b7f7573657220616c72656164792072656769737465720000000000000000000000600082015250565b7f656d706c6f796565206e6f7420666f756e640000000000000000000000000000600082015250565b611f4f81611c21565b8114611f5a57600080fd5b50565b611f6681611c33565b8114611f7157600080fd5b50565b611f7d81611c45565b8114611f8857600080fd5b50565b611f9481611c71565b8114611f9f57600080fd5b5056fea2646970667358221220c031a450a6eacc205b874c6d11ca71a3118ecf315ca92ba66a50481c34d7b78e64736f6c63430008070033",
					"opcodes": "PUSH1 0x80 PUSH1 0x40 MSTORE PUSH7 0x470DE4DF820000 PUSH1 0x1 SSTORE PUSH7 0x6A94D74F430000 PUSH1 0x2 SSTORE CALLVALUE DUP1 ISZERO PUSH2 0x26 JUMPI PUSH1 0x0 DUP1 REVERT JUMPDEST POP CALLER PUSH1 0x0 DUP1 PUSH2 0x100 EXP DUP2 SLOAD DUP2 PUSH20 0xFFFFFFFFFFFFFFFFFFFFFFFFFFFFFFFFFFFFFFFF MUL NOT AND SWAP1 DUP4 PUSH20 0xFFFFFFFFFFFFFFFFFFFFFFFFFFFFFFFFFFFFFFFF AND MUL OR SWAP1 SSTORE POP PUSH2 0x1FD8 DUP1 PUSH2 0x76 PUSH1 0x0 CODECOPY PUSH1 0x0 RETURN INVALID PUSH1 0x80 PUSH1 0x40 MSTORE PUSH1 0x4 CALLDATASIZE LT PUSH2 0x91 JUMPI PUSH1 0x0 CALLDATALOAD PUSH1 0xE0 SHR DUP1 PUSH4 0xB58F421C GT PUSH2 0x59 JUMPI DUP1 PUSH4 0xB58F421C EQ PUSH2 0x14D JUMPI DUP1 PUSH4 0xBA0CE2BB EQ PUSH2 0x18E JUMPI DUP1 PUSH4 0xD17106B7 EQ PUSH2 0x1CB JUMPI DUP1 PUSH4 0xE66A458E EQ PUSH2 0x20C JUMPI DUP1 PUSH4 0xF851A440 EQ PUSH2 0x235 JUMPI PUSH2 0x91 JUMP JUMPDEST DUP1 PUSH4 0x26F119A EQ PUSH2 0x96 JUMPI DUP1 PUSH4 0x4B642A4 EQ PUSH2 0xAD JUMPI DUP1 PUSH4 0x18C7A051 EQ PUSH2 0xB7 JUMPI DUP1 PUSH4 0x52D6ABDC EQ PUSH2 0xE7 JUMPI DUP1 PUSH4 0x7A7E4369 EQ PUSH2 0x124 JUMPI JUMPDEST PUSH1 0x0 DUP1 REVERT JUMPDEST CALLVALUE DUP1 ISZERO PUSH2 0xA2 JUMPI PUSH1 0x0 DUP1 REVERT JUMPDEST POP PUSH2 0xAB PUSH2 0x260 JUMP JUMPDEST STOP JUMPDEST PUSH2 0xB5 PUSH2 0x384 JUMP JUMPDEST STOP JUMPDEST PUSH2 0xD1 PUSH1 0x4 DUP1 CALLDATASIZE SUB DUP2 ADD SWAP1 PUSH2 0xCC SWAP2 SWAP1 PUSH2 0x1772 JUMP JUMPDEST PUSH2 0x5F3 JUMP JUMPDEST PUSH1 0x40 MLOAD PUSH2 0xDE SWAP2 SWAP1 PUSH2 0x1B0A JUMP JUMPDEST PUSH1 0x40 MLOAD DUP1 SWAP2 SUB SWAP1 RETURN JUMPDEST CALLVALUE DUP1 ISZERO PUSH2 0xF3 JUMPI PUSH1 0x0 DUP1 REVERT JUMPDEST POP PUSH2 0x10E PUSH1 0x4 DUP1 CALLDATASIZE SUB DUP2 ADD SWAP1 PUSH2 0x109 SWAP2 SWAP1 PUSH2 0x1745 JUMP JUMPDEST PUSH2 0x79D JUMP JUMPDEST PUSH1 0x40 MLOAD PUSH2 0x11B SWAP2 SWAP1 PUSH2 0x19F5 JUMP JUMPDEST PUSH1 0x40 MLOAD DUP1 SWAP2 SUB SWAP1 RETURN JUMPDEST CALLVALUE DUP1 ISZERO PUSH2 0x130 JUMPI PUSH1 0x0 DUP1 REVERT JUMPDEST POP PUSH2 0x14B PUSH1 0x4 DUP1 CALLDATASIZE SUB DUP2 ADD SWAP1 PUSH2 0x146 SWAP2 SWAP1 PUSH2 0x17F2 JUMP JUMPDEST PUSH2 0xC60 JUMP JUMPDEST STOP JUMPDEST CALLVALUE DUP1 ISZERO PUSH2 0x159 JUMPI PUSH1 0x0 DUP1 REVERT JUMPDEST POP PUSH2 0x174 PUSH1 0x4 DUP1 CALLDATASIZE SUB DUP2 ADD SWAP1 PUSH2 0x16F SWAP2 SWAP1 PUSH2 0x1889 JUMP JUMPDEST PUSH2 0xEFC JUMP JUMPDEST PUSH1 0x40 MLOAD PUSH2 0x185 SWAP6 SWAP5 SWAP4 SWAP3 SWAP2 SWAP1 PUSH2 0x1A10 JUMP JUMPDEST PUSH1 0x40 MLOAD DUP1 SWAP2 SUB SWAP1 RETURN JUMPDEST CALLVALUE DUP1 ISZERO PUSH2 0x19A JUMPI PUSH1 0x0 DUP1 REVERT JUMPDEST POP PUSH2 0x1B5 PUSH1 0x4 DUP1 CALLDATASIZE SUB DUP2 ADD SWAP1 PUSH2 0x1B0 SWAP2 SWAP1 PUSH2 0x1745 JUMP JUMPDEST PUSH2 0xFF7 JUMP JUMPDEST PUSH1 0x40 MLOAD PUSH2 0x1C2 SWAP2 SWAP1 PUSH2 0x19F5 JUMP JUMPDEST PUSH1 0x40 MLOAD DUP1 SWAP2 SUB SWAP1 RETURN JUMPDEST CALLVALUE DUP1 ISZERO PUSH2 0x1D7 JUMPI PUSH1 0x0 DUP1 REVERT JUMPDEST POP PUSH2 0x1F2 PUSH1 0x4 DUP1 CALLDATASIZE SUB DUP2 ADD SWAP1 PUSH2 0x1ED SWAP2 SWAP1 PUSH2 0x1745 JUMP JUMPDEST PUSH2 0x11C0 JUMP JUMPDEST PUSH1 0x40 MLOAD PUSH2 0x203 SWAP6 SWAP5 SWAP4 SWAP3 SWAP2 SWAP1 PUSH2 0x1A10 JUMP JUMPDEST PUSH1 0x40 MLOAD DUP1 SWAP2 SUB SWAP1 RETURN JUMPDEST CALLVALUE DUP1 ISZERO PUSH2 0x218 JUMPI PUSH1 0x0 DUP1 REVERT JUMPDEST POP PUSH2 0x233 PUSH1 0x4 DUP1 CALLDATASIZE SUB DUP2 ADD SWAP1 PUSH2 0x22E SWAP2 SWAP1 PUSH2 0x17B2 JUMP JUMPDEST PUSH2 0x12AB JUMP JUMPDEST STOP JUMPDEST CALLVALUE DUP1 ISZERO PUSH2 0x241 JUMPI PUSH1 0x0 DUP1 REVERT JUMPDEST POP PUSH2 0x24A PUSH2 0x14A6 JUMP JUMPDEST PUSH1 0x40 MLOAD PUSH2 0x257 SWAP2 SWAP1 PUSH2 0x19DA JUMP JUMPDEST PUSH1 0x40 MLOAD DUP1 SWAP2 SUB SWAP1 RETURN JUMPDEST PUSH1 0x0 DUP1 SLOAD SWAP1 PUSH2 0x100 EXP SWAP1 DIV PUSH20 0xFFFFFFFFFFFFFFFFFFFFFFFFFFFFFFFFFFFFFFFF AND PUSH20 0xFFFFFFFFFFFFFFFFFFFFFFFFFFFFFFFFFFFFFFFF AND CALLER PUSH20 0xFFFFFFFFFFFFFFFFFFFFFFFFFFFFFFFFFFFFFFFF AND EQ PUSH2 0x2EE JUMPI PUSH1 0x40 MLOAD PUSH32 0x8C379A000000000000000000000000000000000000000000000000000000000 DUP2 MSTORE PUSH1 0x4 ADD PUSH2 0x2E5 SWAP1 PUSH2 0x1A8A JUMP JUMPDEST PUSH1 0x40 MLOAD DUP1 SWAP2 SUB SWAP1 REVERT JUMPDEST PUSH1 0x0 JUMPDEST PUSH1 0x4 DUP1 SLOAD SWAP1 POP DUP2 LT ISZERO PUSH2 0x381 JUMPI PUSH1 0x4 DUP2 DUP2 SLOAD DUP2 LT PUSH2 0x312 JUMPI PUSH2 0x311 PUSH2 0x1DF6 JUMP JUMPDEST JUMPDEST SWAP1 PUSH1 0x0 MSTORE PUSH1 0x20 PUSH1 0x0 KECCAK256 SWAP1 PUSH1 0x4 MUL ADD PUSH1 0x3 ADD PUSH1 0x14 SWAP1 SLOAD SWAP1 PUSH2 0x100 EXP SWAP1 DIV PUSH1 0xFF AND ISZERO PUSH1 0x4 DUP3 DUP2 SLOAD DUP2 LT PUSH2 0x346 JUMPI PUSH2 0x345 PUSH2 0x1DF6 JUMP JUMPDEST JUMPDEST SWAP1 PUSH1 0x0 MSTORE PUSH1 0x20 PUSH1 0x0 KECCAK256 SWAP1 PUSH1 0x4 MUL ADD PUSH1 0x3 ADD PUSH1 0x14 PUSH2 0x100 EXP DUP2 SLOAD DUP2 PUSH1 0xFF MUL NOT AND SWAP1 DUP4 ISZERO ISZERO MUL OR SWAP1 SSTORE POP DUP1 DUP1 PUSH2 0x379 SWAP1 PUSH2 0x1D20 JUMP JUMPDEST SWAP2 POP POP PUSH2 0x2F1 JUMP JUMPDEST POP JUMP JUMPDEST PUSH1 0x0 DUP1 SLOAD SWAP1 PUSH2 0x100 EXP SWAP1 DIV PUSH20 0xFFFFFFFFFFFFFFFFFFFFFFFFFFFFFFFFFFFFFFFF AND PUSH20 0xFFFFFFFFFFFFFFFFFFFFFFFFFFFFFFFFFFFFFFFF AND CALLER PUSH20 0xFFFFFFFFFFFFFFFFFFFFFFFFFFFFFFFFFFFFFFFF AND EQ PUSH2 0x412 JUMPI PUSH1 0x40 MLOAD PUSH32 0x8C379A000000000000000000000000000000000000000000000000000000000 DUP2 MSTORE PUSH1 0x4 ADD PUSH2 0x409 SWAP1 PUSH2 0x1A8A JUMP JUMPDEST PUSH1 0x40 MLOAD DUP1 SWAP2 SUB SWAP1 REVERT JUMPDEST PUSH1 0x0 JUMPDEST PUSH1 0x4 DUP1 SLOAD SWAP1 POP DUP2 LT ISZERO PUSH2 0x5F0 JUMPI PUSH1 0x4 DUP2 DUP2 SLOAD DUP2 LT PUSH2 0x436 JUMPI PUSH2 0x435 PUSH2 0x1DF6 JUMP JUMPDEST JUMPDEST SWAP1 PUSH1 0x0 MSTORE PUSH1 0x20 PUSH1 0x0 KECCAK256 SWAP1 PUSH1 0x4 MUL ADD PUSH1 0x3 ADD PUSH1 0x14 SWAP1 SLOAD SWAP1 PUSH2 0x100 EXP SWAP1 DIV PUSH1 0xFF AND PUSH2 0x5DD JUMPI PUSH1 0x1 PUSH1 0x4 DUP3 DUP2 SLOAD DUP2 LT PUSH2 0x46F JUMPI PUSH2 0x46E PUSH2 0x1DF6 JUMP JUMPDEST JUMPDEST SWAP1 PUSH1 0x0 MSTORE PUSH1 0x20 PUSH1 0x0 KECCAK256 SWAP1 PUSH1 0x4 MUL ADD PUSH1 0x1 ADD SLOAD EQ ISZERO PUSH2 0x51C JUMPI PUSH2 0x4D8 PUSH1 0x4 DUP3 DUP2 SLOAD DUP2 LT PUSH2 0x49E JUMPI PUSH2 0x49D PUSH2 0x1DF6 JUMP JUMPDEST JUMPDEST SWAP1 PUSH1 0x0 MSTORE PUSH1 0x20 PUSH1 0x0 KECCAK256 SWAP1 PUSH1 0x4 MUL ADD PUSH1 0x3 ADD PUSH1 0x0 SWAP1 SLOAD SWAP1 PUSH2 0x100 EXP SWAP1 DIV PUSH20 0xFFFFFFFFFFFFFFFFFFFFFFFFFFFFFFFFFFFFFFFF AND PUSH1 0x1 SLOAD PUSH2 0x5F3 JUMP JUMPDEST POP PUSH1 0x1 PUSH1 0x4 DUP3 DUP2 SLOAD DUP2 LT PUSH2 0x4EF JUMPI PUSH2 0x4EE PUSH2 0x1DF6 JUMP JUMPDEST JUMPDEST SWAP1 PUSH1 0x0 MSTORE PUSH1 0x20 PUSH1 0x0 KECCAK256 SWAP1 PUSH1 0x4 MUL ADD PUSH1 0x3 ADD PUSH1 0x14 PUSH2 0x100 EXP DUP2 SLOAD DUP2 PUSH1 0xFF MUL NOT AND SWAP1 DUP4 ISZERO ISZERO MUL OR SWAP1 SSTORE POP PUSH2 0x5DC JUMP JUMPDEST PUSH1 0x2 PUSH1 0x4 DUP3 DUP2 SLOAD DUP2 LT PUSH2 0x532 JUMPI PUSH2 0x531 PUSH2 0x1DF6 JUMP JUMPDEST JUMPDEST SWAP1 PUSH1 0x0 MSTORE PUSH1 0x20 PUSH1 0x0 KECCAK256 SWAP1 PUSH1 0x4 MUL ADD PUSH1 0x1 ADD SLOAD EQ ISZERO PUSH2 0x5DB JUMPI PUSH2 0x59B PUSH1 0x4 DUP3 DUP2 SLOAD DUP2 LT PUSH2 0x561 JUMPI PUSH2 0x560 PUSH2 0x1DF6 JUMP JUMPDEST JUMPDEST SWAP1 PUSH1 0x0 MSTORE PUSH1 0x20 PUSH1 0x0 KECCAK256 SWAP1 PUSH1 0x4 MUL ADD PUSH1 0x3 ADD PUSH1 0x0 SWAP1 SLOAD SWAP1 PUSH2 0x100 EXP SWAP1 DIV PUSH20 0xFFFFFFFFFFFFFFFFFFFFFFFFFFFFFFFFFFFFFFFF AND PUSH1 0x2 SLOAD PUSH2 0x5F3 JUMP JUMPDEST POP PUSH1 0x1 PUSH1 0x4 DUP3 DUP2 SLOAD DUP2 LT PUSH2 0x5B2 JUMPI PUSH2 0x5B1 PUSH2 0x1DF6 JUMP JUMPDEST JUMPDEST SWAP1 PUSH1 0x0 MSTORE PUSH1 0x20 PUSH1 0x0 KECCAK256 SWAP1 PUSH1 0x4 MUL ADD PUSH1 0x3 ADD PUSH1 0x14 PUSH2 0x100 EXP DUP2 SLOAD DUP2 PUSH1 0xFF MUL NOT AND SWAP1 DUP4 ISZERO ISZERO MUL OR SWAP1 SSTORE POP JUMPDEST JUMPDEST JUMPDEST DUP1 DUP1 PUSH2 0x5E8 SWAP1 PUSH2 0x1D20 JUMP JUMPDEST SWAP2 POP POP PUSH2 0x415 JUMP JUMPDEST POP JUMP JUMPDEST PUSH1 0x0 DUP1 PUSH1 0x0 SWAP1 SLOAD SWAP1 PUSH2 0x100 EXP SWAP1 DIV PUSH20 0xFFFFFFFFFFFFFFFFFFFFFFFFFFFFFFFFFFFFFFFF AND PUSH20 0xFFFFFFFFFFFFFFFFFFFFFFFFFFFFFFFFFFFFFFFF AND CALLER PUSH20 0xFFFFFFFFFFFFFFFFFFFFFFFFFFFFFFFFFFFFFFFF AND EQ PUSH2 0x684 JUMPI PUSH1 0x40 MLOAD PUSH32 0x8C379A000000000000000000000000000000000000000000000000000000000 DUP2 MSTORE PUSH1 0x4 ADD PUSH2 0x67B SWAP1 PUSH2 0x1A8A JUMP JUMPDEST PUSH1 0x40 MLOAD DUP1 SWAP2 SUB SWAP1 REVERT JUMPDEST PUSH1 0x3 PUSH1 0x0 DUP5 PUSH20 0xFFFFFFFFFFFFFFFFFFFFFFFFFFFFFFFFFFFFFFFF AND PUSH20 0xFFFFFFFFFFFFFFFFFFFFFFFFFFFFFFFFFFFFFFFF AND DUP2 MSTORE PUSH1 0x20 ADD SWAP1 DUP2 MSTORE PUSH1 0x20 ADD PUSH1 0x0 KECCAK256 PUSH1 0x3 ADD PUSH1 0x14 SWAP1 SLOAD SWAP1 PUSH2 0x100 EXP SWAP1 DIV PUSH1 0xFF AND ISZERO PUSH2 0x714 JUMPI PUSH1 0x40 MLOAD PUSH32 0x8C379A000000000000000000000000000000000000000000000000000000000 DUP2 MSTORE PUSH1 0x4 ADD PUSH2 0x70B SWAP1 PUSH2 0x1AAA JUMP JUMPDEST PUSH1 0x40 MLOAD DUP1 SWAP2 SUB SWAP1 REVERT JUMPDEST PUSH1 0x0 DUP4 PUSH20 0xFFFFFFFFFFFFFFFFFFFFFFFFFFFFFFFFFFFFFFFF AND PUSH2 0x8FC DUP5 SWAP1 DUP2 ISZERO MUL SWAP1 PUSH1 0x40 MLOAD PUSH1 0x0 PUSH1 0x40 MLOAD DUP1 DUP4 SUB DUP2 DUP6 DUP9 DUP9 CALL SWAP4 POP POP POP POP SWAP1 POP DUP1 PUSH2 0x78D JUMPI PUSH1 0x40 MLOAD PUSH32 0x8C379A000000000000000000000000000000000000000000000000000000000 DUP2 MSTORE PUSH1 0x4 ADD PUSH2 0x784 SWAP1 PUSH2 0x1A6A JUMP JUMPDEST PUSH1 0x40 MLOAD DUP1 SWAP2 SUB SWAP1 REVERT JUMPDEST PUSH1 0x0 SELFBALANCE SWAP1 POP DUP1 SWAP3 POP POP POP SWAP3 SWAP2 POP POP JUMP JUMPDEST PUSH1 0x0 DUP1 PUSH1 0x0 SWAP1 SLOAD SWAP1 PUSH2 0x100 EXP SWAP1 DIV PUSH20 0xFFFFFFFFFFFFFFFFFFFFFFFFFFFFFFFFFFFFFFFF AND PUSH20 0xFFFFFFFFFFFFFFFFFFFFFFFFFFFFFFFFFFFFFFFF AND CALLER PUSH20 0xFFFFFFFFFFFFFFFFFFFFFFFFFFFFFFFFFFFFFFFF AND EQ PUSH2 0x82E JUMPI PUSH1 0x40 MLOAD PUSH32 0x8C379A000000000000000000000000000000000000000000000000000000000 DUP2 MSTORE PUSH1 0x4 ADD PUSH2 0x825 SWAP1 PUSH2 0x1A8A JUMP JUMPDEST PUSH1 0x40 MLOAD DUP1 SWAP2 SUB SWAP1 REVERT JUMPDEST PUSH1 0x0 PUSH2 0x838 PUSH2 0x14CA JUMP JUMPDEST PUSH1 0x0 PUSH1 0x4 DUP1 SLOAD SWAP1 POP DUP2 LT ISZERO PUSH2 0xC57 JUMPI DUP5 PUSH20 0xFFFFFFFFFFFFFFFFFFFFFFFFFFFFFFFFFFFFFFFF AND PUSH1 0x4 DUP3 DUP2 SLOAD DUP2 LT PUSH2 0x872 JUMPI PUSH2 0x871 PUSH2 0x1DF6 JUMP JUMPDEST JUMPDEST SWAP1 PUSH1 0x0 MSTORE PUSH1 0x20 PUSH1 0x0 KECCAK256 SWAP1 PUSH1 0x4 MUL ADD PUSH1 0x3 ADD PUSH1 0x0 SWAP1 SLOAD SWAP1 PUSH2 0x100 EXP SWAP1 DIV PUSH20 0xFFFFFFFFFFFFFFFFFFFFFFFFFFFFFFFFFFFFFFFF AND PUSH20 0xFFFFFFFFFFFFFFFFFFFFFFFFFFFFFFFFFFFFFFFF AND EQ ISZERO PUSH2 0xBF4 JUMPI DUP2 PUSH1 0x4 DUP3 DUP2 SLOAD DUP2 LT PUSH2 0x8D5 JUMPI PUSH2 0x8D4 PUSH2 0x1DF6 JUMP JUMPDEST JUMPDEST SWAP1 PUSH1 0x0 MSTORE PUSH1 0x20 PUSH1 0x0 KECCAK256 SWAP1 PUSH1 0x4 MUL ADD PUSH1 0x0 DUP3 ADD MLOAD DUP2 PUSH1 0x0 ADD SWAP1 DUP1 MLOAD SWAP1 PUSH1 0x20 ADD SWAP1 PUSH2 0x8FF SWAP3 SWAP2 SWAP1 PUSH2 0x1511 JUMP JUMPDEST POP PUSH1 0x20 DUP3 ADD MLOAD DUP2 PUSH1 0x1 ADD SSTORE PUSH1 0x40 DUP3 ADD MLOAD DUP2 PUSH1 0x2 ADD SSTORE PUSH1 0x60 DUP3 ADD MLOAD DUP2 PUSH1 0x3 ADD PUSH1 0x0 PUSH2 0x100 EXP DUP2 SLOAD DUP2 PUSH20 0xFFFFFFFFFFFFFFFFFFFFFFFFFFFFFFFFFFFFFFFF MUL NOT AND SWAP1 DUP4 PUSH20 0xFFFFFFFFFFFFFFFFFFFFFFFFFFFFFFFFFFFFFFFF AND MUL OR SWAP1 SSTORE POP PUSH1 0x80 DUP3 ADD MLOAD DUP2 PUSH1 0x3 ADD PUSH1 0x14 PUSH2 0x100 EXP DUP2 SLOAD DUP2 PUSH1 0xFF MUL NOT AND SWAP1 DUP4 ISZERO ISZERO MUL OR SWAP1 SSTORE POP SWAP1 POP POP PUSH1 0x4 PUSH1 0x1 PUSH1 0x4 DUP1 SLOAD SWAP1 POP PUSH2 0x992 SWAP2 SWAP1 PUSH2 0x1BED JUMP JUMPDEST DUP2 SLOAD DUP2 LT PUSH2 0x9A3 JUMPI PUSH2 0x9A2 PUSH2 0x1DF6 JUMP JUMPDEST JUMPDEST SWAP1 PUSH1 0x0 MSTORE PUSH1 0x20 PUSH1 0x0 KECCAK256 SWAP1 PUSH1 0x4 MUL ADD PUSH1 0x4 DUP3 DUP2 SLOAD DUP2 LT PUSH2 0x9C5 JUMPI PUSH2 0x9C4 PUSH2 0x1DF6 JUMP JUMPDEST JUMPDEST SWAP1 PUSH1 0x0 MSTORE PUSH1 0x20 PUSH1 0x0 KECCAK256 SWAP1 PUSH1 0x4 MUL ADD PUSH1 0x0 DUP3 ADD DUP2 PUSH1 0x0 ADD SWAP1 DUP1 SLOAD PUSH2 0x9E7 SWAP1 PUSH2 0x1CBD JUMP JUMPDEST PUSH2 0x9F2 SWAP3 SWAP2 SWAP1 PUSH2 0x1597 JUMP JUMPDEST POP PUSH1 0x1 DUP3 ADD SLOAD DUP2 PUSH1 0x1 ADD SSTORE PUSH1 0x2 DUP3 ADD SLOAD DUP2 PUSH1 0x2 ADD SSTORE PUSH1 0x3 DUP3 ADD PUSH1 0x0 SWAP1 SLOAD SWAP1 PUSH2 0x100 EXP SWAP1 DIV PUSH20 0xFFFFFFFFFFFFFFFFFFFFFFFFFFFFFFFFFFFFFFFF AND DUP2 PUSH1 0x3 ADD PUSH1 0x0 PUSH2 0x100 EXP DUP2 SLOAD DUP2 PUSH20 0xFFFFFFFFFFFFFFFFFFFFFFFFFFFFFFFFFFFFFFFF MUL NOT AND SWAP1 DUP4 PUSH20 0xFFFFFFFFFFFFFFFFFFFFFFFFFFFFFFFFFFFFFFFF AND MUL OR SWAP1 SSTORE POP PUSH1 0x3 DUP3 ADD PUSH1 0x14 SWAP1 SLOAD SWAP1 PUSH2 0x100 EXP SWAP1 DIV PUSH1 0xFF AND DUP2 PUSH1 0x3 ADD PUSH1 0x14 PUSH2 0x100 EXP DUP2 SLOAD DUP2 PUSH1 0xFF MUL NOT AND SWAP1 DUP4 ISZERO ISZERO MUL OR SWAP1 SSTORE POP SWAP1 POP POP DUP2 PUSH1 0x4 PUSH1 0x1 PUSH1 0x4 DUP1 SLOAD SWAP1 POP PUSH2 0xAB3 SWAP2 SWAP1 PUSH2 0x1BED JUMP JUMPDEST DUP2 SLOAD DUP2 LT PUSH2 0xAC4 JUMPI PUSH2 0xAC3 PUSH2 0x1DF6 JUMP JUMPDEST JUMPDEST SWAP1 PUSH1 0x0 MSTORE PUSH1 0x20 PUSH1 0x0 KECCAK256 SWAP1 PUSH1 0x4 MUL ADD PUSH1 0x0 DUP3 ADD MLOAD DUP2 PUSH1 0x0 ADD SWAP1 DUP1 MLOAD SWAP1 PUSH1 0x20 ADD SWAP1 PUSH2 0xAEE SWAP3 SWAP2 SWAP1 PUSH2 0x1511 JUMP JUMPDEST POP PUSH1 0x20 DUP3 ADD MLOAD DUP2 PUSH1 0x1 ADD SSTORE PUSH1 0x40 DUP3 ADD MLOAD DUP2 PUSH1 0x2 ADD SSTORE PUSH1 0x60 DUP3 ADD MLOAD DUP2 PUSH1 0x3 ADD PUSH1 0x0 PUSH2 0x100 EXP DUP2 SLOAD DUP2 PUSH20 0xFFFFFFFFFFFFFFFFFFFFFFFFFFFFFFFFFFFFFFFF MUL NOT AND SWAP1 DUP4 PUSH20 0xFFFFFFFFFFFFFFFFFFFFFFFFFFFFFFFFFFFFFFFF AND MUL OR SWAP1 SSTORE POP PUSH1 0x80 DUP3 ADD MLOAD DUP2 PUSH1 0x3 ADD PUSH1 0x14 PUSH2 0x100 EXP DUP2 SLOAD DUP2 PUSH1 0xFF MUL NOT AND SWAP1 DUP4 ISZERO ISZERO MUL OR SWAP1 SSTORE POP SWAP1 POP POP PUSH1 0x4 DUP1 SLOAD DUP1 PUSH2 0xB7F JUMPI PUSH2 0xB7E PUSH2 0x1DC7 JUMP JUMPDEST JUMPDEST PUSH1 0x1 SWAP1 SUB DUP2 DUP2 SWAP1 PUSH1 0x0 MSTORE PUSH1 0x20 PUSH1 0x0 KECCAK256 SWAP1 PUSH1 0x4 MUL ADD PUSH1 0x0 DUP1 DUP3 ADD PUSH1 0x0 PUSH2 0xBA4 SWAP2 SWAP1 PUSH2 0x1624 JUMP JUMPDEST PUSH1 0x1 DUP3 ADD PUSH1 0x0 SWAP1 SSTORE PUSH1 0x2 DUP3 ADD PUSH1 0x0 SWAP1 SSTORE PUSH1 0x3 DUP3 ADD PUSH1 0x0 PUSH2 0x100 EXP DUP2 SLOAD SWAP1 PUSH20 0xFFFFFFFFFFFFFFFFFFFFFFFFFFFFFFFFFFFFFFFF MUL NOT AND SWAP1 SSTORE PUSH1 0x3 DUP3 ADD PUSH1 0x14 PUSH2 0x100 EXP DUP2 SLOAD SWAP1 PUSH1 0xFF MUL NOT AND SWAP1 SSTORE POP POP SWAP1 SSTORE JUMPDEST PUSH1 0x1 DUP4 PUSH2 0xC01 SWAP2 SWAP1 PUSH2 0x1B97 JUMP JUMPDEST SWAP3 POP DUP3 PUSH1 0x4 DUP1 SLOAD SWAP1 POP EQ ISZERO PUSH2 0xC4B JUMPI PUSH1 0x40 MLOAD PUSH32 0x8C379A000000000000000000000000000000000000000000000000000000000 DUP2 MSTORE PUSH1 0x4 ADD PUSH2 0xC42 SWAP1 PUSH2 0x1AEA JUMP JUMPDEST PUSH1 0x40 MLOAD DUP1 SWAP2 SUB SWAP1 REVERT JUMPDEST PUSH1 0x1 SWAP4 POP POP POP POP PUSH2 0xC5B JUMP JUMPDEST POP POP POP JUMPDEST SWAP2 SWAP1 POP JUMP JUMPDEST DUP2 PUSH20 0xFFFFFFFFFFFFFFFFFFFFFFFFFFFFFFFFFFFFFFFF AND PUSH1 0x3 PUSH1 0x0 DUP5 PUSH20 0xFFFFFFFFFFFFFFFFFFFFFFFFFFFFFFFFFFFFFFFF AND PUSH20 0xFFFFFFFFFFFFFFFFFFFFFFFFFFFFFFFFFFFFFFFF AND DUP2 MSTORE PUSH1 0x20 ADD SWAP1 DUP2 MSTORE PUSH1 0x20 ADD PUSH1 0x0 KECCAK256 PUSH1 0x3 ADD PUSH1 0x0 SWAP1 SLOAD SWAP1 PUSH2 0x100 EXP SWAP1 DIV PUSH20 0xFFFFFFFFFFFFFFFFFFFFFFFFFFFFFFFFFFFFFFFF AND PUSH20 0xFFFFFFFFFFFFFFFFFFFFFFFFFFFFFFFFFFFFFFFF AND EQ ISZERO PUSH2 0xD31 JUMPI PUSH1 0x40 MLOAD PUSH32 0x8C379A000000000000000000000000000000000000000000000000000000000 DUP2 MSTORE PUSH1 0x4 ADD PUSH2 0xD28 SWAP1 PUSH2 0x1ACA JUMP JUMPDEST PUSH1 0x40 MLOAD DUP1 SWAP2 SUB SWAP1 REVERT JUMPDEST PUSH1 0x0 PUSH1 0x3 PUSH1 0x0 DUP5 PUSH20 0xFFFFFFFFFFFFFFFFFFFFFFFFFFFFFFFFFFFFFFFF AND PUSH20 0xFFFFFFFFFFFFFFFFFFFFFFFFFFFFFFFFFFFFFFFF AND DUP2 MSTORE PUSH1 0x20 ADD SWAP1 DUP2 MSTORE PUSH1 0x20 ADD PUSH1 0x0 KECCAK256 SWAP1 POP DUP6 DUP2 PUSH1 0x0 ADD SWAP1 DUP1 MLOAD SWAP1 PUSH1 0x20 ADD SWAP1 PUSH2 0xD8C SWAP3 SWAP2 SWAP1 PUSH2 0x1511 JUMP JUMPDEST POP DUP5 DUP2 PUSH1 0x1 ADD DUP2 SWAP1 SSTORE POP DUP4 DUP2 PUSH1 0x2 ADD DUP2 SWAP1 SSTORE POP DUP3 DUP2 PUSH1 0x3 ADD PUSH1 0x0 PUSH2 0x100 EXP DUP2 SLOAD DUP2 PUSH20 0xFFFFFFFFFFFFFFFFFFFFFFFFFFFFFFFFFFFFFFFF MUL NOT AND SWAP1 DUP4 PUSH20 0xFFFFFFFFFFFFFFFFFFFFFFFFFFFFFFFFFFFFFFFF AND MUL OR SWAP1 SSTORE POP DUP2 DUP2 PUSH1 0x3 ADD PUSH1 0x14 PUSH2 0x100 EXP DUP2 SLOAD DUP2 PUSH1 0xFF MUL NOT AND SWAP1 DUP4 ISZERO ISZERO MUL OR SWAP1 SSTORE POP PUSH1 0x4 DUP2 SWAP1 DUP1 PUSH1 0x1 DUP2 SLOAD ADD DUP1 DUP3 SSTORE DUP1 SWAP2 POP POP PUSH1 0x1 SWAP1 SUB SWAP1 PUSH1 0x0 MSTORE PUSH1 0x20 PUSH1 0x0 KECCAK256 SWAP1 PUSH1 0x4 MUL ADD PUSH1 0x0 SWAP1 SWAP2 SWAP1 SWAP2 SWAP1 SWAP2 POP PUSH1 0x0 DUP3 ADD DUP2 PUSH1 0x0 ADD SWAP1 DUP1 SLOAD PUSH2 0xE3E SWAP1 PUSH2 0x1CBD JUMP JUMPDEST PUSH2 0xE49 SWAP3 SWAP2 SWAP1 PUSH2 0x1597 JUMP JUMPDEST POP PUSH1 0x1 DUP3 ADD SLOAD DUP2 PUSH1 0x1 ADD SSTORE PUSH1 0x2 DUP3 ADD SLOAD DUP2 PUSH1 0x2 ADD SSTORE PUSH1 0x3 DUP3 ADD PUSH1 0x0 SWAP1 SLOAD SWAP1 PUSH2 0x100 EXP SWAP1 DIV PUSH20 0xFFFFFFFFFFFFFFFFFFFFFFFFFFFFFFFFFFFFFFFF AND DUP2 PUSH1 0x3 ADD PUSH1 0x0 PUSH2 0x100 EXP DUP2 SLOAD DUP2 PUSH20 0xFFFFFFFFFFFFFFFFFFFFFFFFFFFFFFFFFFFFFFFF MUL NOT AND SWAP1 DUP4 PUSH20 0xFFFFFFFFFFFFFFFFFFFFFFFFFFFFFFFFFFFFFFFF AND MUL OR SWAP1 SSTORE POP PUSH1 0x3 DUP3 ADD PUSH1 0x14 SWAP1 SLOAD SWAP1 PUSH2 0x100 EXP SWAP1 DIV PUSH1 0xFF AND DUP2 PUSH1 0x3 ADD PUSH1 0x14 PUSH2 0x100 EXP DUP2 SLOAD DUP2 PUSH1 0xFF MUL NOT AND SWAP1 DUP4 ISZERO ISZERO MUL OR SWAP1 SSTORE POP POP POP POP POP POP POP POP POP JUMP JUMPDEST PUSH1 0x4 DUP2 DUP2 SLOAD DUP2 LT PUSH2 0xF0C JUMPI PUSH1 0x0 DUP1 REVERT JUMPDEST SWAP1 PUSH1 0x0 MSTORE PUSH1 0x20 PUSH1 0x0 KECCAK256 SWAP1 PUSH1 0x4 MUL ADD PUSH1 0x0 SWAP2 POP SWAP1 POP DUP1 PUSH1 0x0 ADD DUP1 SLOAD PUSH2 0xF2F SWAP1 PUSH2 0x1CBD JUMP JUMPDEST DUP1 PUSH1 0x1F ADD PUSH1 0x20 DUP1 SWAP2 DIV MUL PUSH1 0x20 ADD PUSH1 0x40 MLOAD SWAP1 DUP2 ADD PUSH1 0x40 MSTORE DUP1 SWAP3 SWAP2 SWAP1 DUP2 DUP2 MSTORE PUSH1 0x20 ADD DUP3 DUP1 SLOAD PUSH2 0xF5B SWAP1 PUSH2 0x1CBD JUMP JUMPDEST DUP1 ISZERO PUSH2 0xFA8 JUMPI DUP1 PUSH1 0x1F LT PUSH2 0xF7D JUMPI PUSH2 0x100 DUP1 DUP4 SLOAD DIV MUL DUP4 MSTORE SWAP2 PUSH1 0x20 ADD SWAP2 PUSH2 0xFA8 JUMP JUMPDEST DUP3 ADD SWAP2 SWAP1 PUSH1 0x0 MSTORE PUSH1 0x20 PUSH1 0x0 KECCAK256 SWAP1 JUMPDEST DUP2 SLOAD DUP2 MSTORE SWAP1 PUSH1 0x1 ADD SWAP1 PUSH1 0x20 ADD DUP1 DUP4 GT PUSH2 0xF8B JUMPI DUP3 SWAP1 SUB PUSH1 0x1F AND DUP3 ADD SWAP2 JUMPDEST POP POP POP POP POP SWAP1 DUP1 PUSH1 0x1 ADD SLOAD SWAP1 DUP1 PUSH1 0x2 ADD SLOAD SWAP1 DUP1 PUSH1 0x3 ADD PUSH1 0x0 SWAP1 SLOAD SWAP1 PUSH2 0x100 EXP SWAP1 DIV PUSH20 0xFFFFFFFFFFFFFFFFFFFFFFFFFFFFFFFFFFFFFFFF AND SWAP1 DUP1 PUSH1 0x3 ADD PUSH1 0x14 SWAP1 SLOAD SWAP1 PUSH2 0x100 EXP SWAP1 DIV PUSH1 0xFF AND SWAP1 POP DUP6 JUMP JUMPDEST PUSH1 0x0 DUP1 PUSH1 0x0 SWAP1 SLOAD SWAP1 PUSH2 0x100 EXP SWAP1 DIV PUSH20 0xFFFFFFFFFFFFFFFFFFFFFFFFFFFFFFFFFFFFFFFF AND PUSH20 0xFFFFFFFFFFFFFFFFFFFFFFFFFFFFFFFFFFFFFFFF AND CALLER PUSH20 0xFFFFFFFFFFFFFFFFFFFFFFFFFFFFFFFFFFFFFFFF AND EQ PUSH2 0x1088 JUMPI PUSH1 0x40 MLOAD PUSH32 0x8C379A000000000000000000000000000000000000000000000000000000000 DUP2 MSTORE PUSH1 0x4 ADD PUSH2 0x107F SWAP1 PUSH2 0x1A8A JUMP JUMPDEST PUSH1 0x40 MLOAD DUP1 SWAP2 SUB SWAP1 REVERT JUMPDEST PUSH1 0x0 DUP1 JUMPDEST PUSH1 0x4 DUP1 SLOAD SWAP1 POP DUP2 LT ISZERO PUSH2 0x11B8 JUMPI DUP4 PUSH20 0xFFFFFFFFFFFFFFFFFFFFFFFFFFFFFFFFFFFFFFFF AND PUSH1 0x4 DUP3 DUP2 SLOAD DUP2 LT PUSH2 0x10C4 JUMPI PUSH2 0x10C3 PUSH2 0x1DF6 JUMP JUMPDEST JUMPDEST SWAP1 PUSH1 0x0 MSTORE PUSH1 0x20 PUSH1 0x0 KECCAK256 SWAP1 PUSH1 0x4 MUL ADD PUSH1 0x3 ADD PUSH1 0x0 SWAP1 SLOAD SWAP1 PUSH2 0x100 EXP SWAP1 DIV PUSH20 0xFFFFFFFFFFFFFFFFFFFFFFFFFFFFFFFFFFFFFFFF AND PUSH20 0xFFFFFFFFFFFFFFFFFFFFFFFFFFFFFFFFFFFFFFFF AND EQ ISZERO PUSH2 0x114E JUMPI PUSH1 0x4 DUP2 DUP2 SLOAD DUP2 LT PUSH2 0x1126 JUMPI PUSH2 0x1125 PUSH2 0x1DF6 JUMP JUMPDEST JUMPDEST SWAP1 PUSH1 0x0 MSTORE PUSH1 0x20 PUSH1 0x0 KECCAK256 SWAP1 PUSH1 0x4 MUL ADD PUSH1 0x3 ADD PUSH1 0x14 SWAP1 SLOAD SWAP1 PUSH2 0x100 EXP SWAP1 DIV PUSH1 0xFF AND SWAP3 POP POP POP PUSH2 0x11BB JUMP JUMPDEST PUSH1 0x1 DUP3 PUSH2 0x115B SWAP2 SWAP1 PUSH2 0x1B97 JUMP JUMPDEST SWAP2 POP DUP2 PUSH1 0x4 DUP1 SLOAD SWAP1 POP EQ ISZERO PUSH2 0x11A5 JUMPI PUSH1 0x40 MLOAD PUSH32 0x8C379A000000000000000000000000000000000000000000000000000000000 DUP2 MSTORE PUSH1 0x4 ADD PUSH2 0x119C SWAP1 PUSH2 0x1AEA JUMP JUMPDEST PUSH1 0x40 MLOAD DUP1 SWAP2 SUB SWAP1 REVERT JUMPDEST DUP1 DUP1 PUSH2 0x11B0 SWAP1 PUSH2 0x1D20 JUMP JUMPDEST SWAP2 POP POP PUSH2 0x108C JUMP JUMPDEST POP POP JUMPDEST SWAP2 SWAP1 POP JUMP JUMPDEST PUSH1 0x3 PUSH1 0x20 MSTORE DUP1 PUSH1 0x0 MSTORE PUSH1 0x40 PUSH1 0x0 KECCAK256 PUSH1 0x0 SWAP2 POP SWAP1 POP DUP1 PUSH1 0x0 ADD DUP1 SLOAD PUSH2 0x11E3 SWAP1 PUSH2 0x1CBD JUMP JUMPDEST DUP1 PUSH1 0x1F ADD PUSH1 0x20 DUP1 SWAP2 DIV MUL PUSH1 0x20 ADD PUSH1 0x40 MLOAD SWAP1 DUP2 ADD PUSH1 0x40 MSTORE DUP1 SWAP3 SWAP2 SWAP1 DUP2 DUP2 MSTORE PUSH1 0x20 ADD DUP3 DUP1 SLOAD PUSH2 0x120F SWAP1 PUSH2 0x1CBD JUMP JUMPDEST DUP1 ISZERO PUSH2 0x125C JUMPI DUP1 PUSH1 0x1F LT PUSH2 0x1231 JUMPI PUSH2 0x100 DUP1 DUP4 SLOAD DIV MUL DUP4 MSTORE SWAP2 PUSH1 0x20 ADD SWAP2 PUSH2 0x125C JUMP JUMPDEST DUP3 ADD SWAP2 SWAP1 PUSH1 0x0 MSTORE PUSH1 0x20 PUSH1 0x0 KECCAK256 SWAP1 JUMPDEST DUP2 SLOAD DUP2 MSTORE SWAP1 PUSH1 0x1 ADD SWAP1 PUSH1 0x20 ADD DUP1 DUP4 GT PUSH2 0x123F JUMPI DUP3 SWAP1 SUB PUSH1 0x1F AND DUP3 ADD SWAP2 JUMPDEST POP POP POP POP POP SWAP1 DUP1 PUSH1 0x1 ADD SLOAD SWAP1 DUP1 PUSH1 0x2 ADD SLOAD SWAP1 DUP1 PUSH1 0x3 ADD PUSH1 0x0 SWAP1 SLOAD SWAP1 PUSH2 0x100 EXP SWAP1 DIV PUSH20 0xFFFFFFFFFFFFFFFFFFFFFFFFFFFFFFFFFFFFFFFF AND SWAP1 DUP1 PUSH1 0x3 ADD PUSH1 0x14 SWAP1 SLOAD SWAP1 PUSH2 0x100 EXP SWAP1 DIV PUSH1 0xFF AND SWAP1 POP DUP6 JUMP JUMPDEST PUSH1 0x0 DUP1 SLOAD SWAP1 PUSH2 0x100 EXP SWAP1 DIV PUSH20 0xFFFFFFFFFFFFFFFFFFFFFFFFFFFFFFFFFFFFFFFF AND PUSH20 0xFFFFFFFFFFFFFFFFFFFFFFFFFFFFFFFFFFFFFFFF AND CALLER PUSH20 0xFFFFFFFFFFFFFFFFFFFFFFFFFFFFFFFFFFFFFFFF AND EQ PUSH2 0x1339 JUMPI PUSH1 0x40 MLOAD PUSH32 0x8C379A000000000000000000000000000000000000000000000000000000000 DUP2 MSTORE PUSH1 0x4 ADD PUSH2 0x1330 SWAP1 PUSH2 0x1A8A JUMP JUMPDEST PUSH1 0x40 MLOAD DUP1 SWAP2 SUB SWAP1 REVERT JUMPDEST PUSH1 0x0 DUP2 PUSH1 0x3 PUSH1 0x0 DUP6 PUSH20 0xFFFFFFFFFFFFFFFFFFFFFFFFFFFFFFFFFFFFFFFF AND PUSH20 0xFFFFFFFFFFFFFFFFFFFFFFFFFFFFFFFFFFFFFFFF AND DUP2 MSTORE PUSH1 0x20 ADD SWAP1 DUP2 MSTORE PUSH1 0x20 ADD PUSH1 0x0 KECCAK256 PUSH1 0x1 ADD DUP2 SWAP1 SSTORE POP PUSH1 0x0 JUMPDEST PUSH1 0x4 DUP1 SLOAD SWAP1 POP DUP2 LT ISZERO PUSH2 0x14A0 JUMPI DUP4 PUSH20 0xFFFFFFFFFFFFFFFFFFFFFFFFFFFFFFFFFFFFFFFF AND PUSH1 0x4 DUP3 DUP2 SLOAD DUP2 LT PUSH2 0x13BD JUMPI PUSH2 0x13BC PUSH2 0x1DF6 JUMP JUMPDEST JUMPDEST SWAP1 PUSH1 0x0 MSTORE PUSH1 0x20 PUSH1 0x0 KECCAK256 SWAP1 PUSH1 0x4 MUL ADD PUSH1 0x3 ADD PUSH1 0x0 SWAP1 SLOAD SWAP1 PUSH2 0x100 EXP SWAP1 DIV PUSH20 0xFFFFFFFFFFFFFFFFFFFFFFFFFFFFFFFFFFFFFFFF AND PUSH20 0xFFFFFFFFFFFFFFFFFFFFFFFFFFFFFFFFFFFFFFFF AND EQ ISZERO PUSH2 0x1436 JUMPI DUP3 PUSH1 0x4 DUP3 DUP2 SLOAD DUP2 LT PUSH2 0x1420 JUMPI PUSH2 0x141F PUSH2 0x1DF6 JUMP JUMPDEST JUMPDEST SWAP1 PUSH1 0x0 MSTORE PUSH1 0x20 PUSH1 0x0 KECCAK256 SWAP1 PUSH1 0x4 MUL ADD PUSH1 0x1 ADD DUP2 SWAP1 SSTORE POP JUMPDEST PUSH1 0x1 DUP3 PUSH2 0x1443 SWAP2 SWAP1 PUSH2 0x1B97 JUMP JUMPDEST SWAP2 POP DUP2 PUSH1 0x4 DUP1 SLOAD SWAP1 POP EQ ISZERO PUSH2 0x148D JUMPI PUSH1 0x40 MLOAD PUSH32 0x8C379A000000000000000000000000000000000000000000000000000000000 DUP2 MSTORE PUSH1 0x4 ADD PUSH2 0x1484 SWAP1 PUSH2 0x1AEA JUMP JUMPDEST PUSH1 0x40 MLOAD DUP1 SWAP2 SUB SWAP1 REVERT JUMPDEST DUP1 DUP1 PUSH2 0x1498 SWAP1 PUSH2 0x1D20 JUMP JUMPDEST SWAP2 POP POP PUSH2 0x1385 JUMP JUMPDEST POP POP POP POP JUMP JUMPDEST PUSH1 0x0 DUP1 SLOAD SWAP1 PUSH2 0x100 EXP SWAP1 DIV PUSH20 0xFFFFFFFFFFFFFFFFFFFFFFFFFFFFFFFFFFFFFFFF AND DUP2 JUMP JUMPDEST PUSH1 0x40 MLOAD DUP1 PUSH1 0xA0 ADD PUSH1 0x40 MSTORE DUP1 PUSH1 0x60 DUP2 MSTORE PUSH1 0x20 ADD PUSH1 0x0 DUP2 MSTORE PUSH1 0x20 ADD PUSH1 0x0 DUP2 MSTORE PUSH1 0x20 ADD PUSH1 0x0 PUSH20 0xFFFFFFFFFFFFFFFFFFFFFFFFFFFFFFFFFFFFFFFF AND DUP2 MSTORE PUSH1 0x20 ADD PUSH1 0x0 ISZERO ISZERO DUP2 MSTORE POP SWAP1 JUMP JUMPDEST DUP3 DUP1 SLOAD PUSH2 0x151D SWAP1 PUSH2 0x1CBD JUMP JUMPDEST SWAP1 PUSH1 0x0 MSTORE PUSH1 0x20 PUSH1 0x0 KECCAK256 SWAP1 PUSH1 0x1F ADD PUSH1 0x20 SWAP1 DIV DUP2 ADD SWAP3 DUP3 PUSH2 0x153F JUMPI PUSH1 0x0 DUP6 SSTORE PUSH2 0x1586 JUMP JUMPDEST DUP3 PUSH1 0x1F LT PUSH2 0x1558 JUMPI DUP1 MLOAD PUSH1 0xFF NOT AND DUP4 DUP1 ADD OR DUP6 SSTORE PUSH2 0x1586 JUMP JUMPDEST DUP3 DUP1 ADD PUSH1 0x1 ADD DUP6 SSTORE DUP3 ISZERO PUSH2 0x1586 JUMPI SWAP2 DUP3 ADD JUMPDEST DUP3 DUP2 GT ISZERO PUSH2 0x1585 JUMPI DUP3 MLOAD DUP3 SSTORE SWAP2 PUSH1 0x20 ADD SWAP2 SWAP1 PUSH1 0x1 ADD SWAP1 PUSH2 0x156A JUMP JUMPDEST JUMPDEST POP SWAP1 POP PUSH2 0x1593 SWAP2 SWAP1 PUSH2 0x1664 JUMP JUMPDEST POP SWAP1 JUMP JUMPDEST DUP3 DUP1 SLOAD PUSH2 0x15A3 SWAP1 PUSH2 0x1CBD JUMP JUMPDEST SWAP1 PUSH1 0x0 MSTORE PUSH1 0x20 PUSH1 0x0 KECCAK256 SWAP1 PUSH1 0x1F ADD PUSH1 0x20 SWAP1 DIV DUP2 ADD SWAP3 DUP3 PUSH2 0x15C5 JUMPI PUSH1 0x0 DUP6 SSTORE PUSH2 0x1613 JUMP JUMPDEST DUP3 PUSH1 0x1F LT PUSH2 0x15D6 JUMPI DUP1 SLOAD DUP6 SSTORE PUSH2 0x1613 JUMP JUMPDEST DUP3 DUP1 ADD PUSH1 0x1 ADD DUP6 SSTORE DUP3 ISZERO PUSH2 0x1613 JUMPI PUSH1 0x0 MSTORE PUSH1 0x20 PUSH1 0x0 KECCAK256 SWAP2 PUSH1 0x1F ADD PUSH1 0x20 SWAP1 DIV DUP3 ADD JUMPDEST DUP3 DUP2 GT ISZERO PUSH2 0x1612 JUMPI DUP3 SLOAD DUP3 SSTORE SWAP2 PUSH1 0x1 ADD SWAP2 SWAP1 PUSH1 0x1 ADD SWAP1 PUSH2 0x15F7 JUMP JUMPDEST JUMPDEST POP SWAP1 POP PUSH2 0x1620 SWAP2 SWAP1 PUSH2 0x1664 JUMP JUMPDEST POP SWAP1 JUMP JUMPDEST POP DUP1 SLOAD PUSH2 0x1630 SWAP1 PUSH2 0x1CBD JUMP JUMPDEST PUSH1 0x0 DUP3 SSTORE DUP1 PUSH1 0x1F LT PUSH2 0x1642 JUMPI POP PUSH2 0x1661 JUMP JUMPDEST PUSH1 0x1F ADD PUSH1 0x20 SWAP1 DIV SWAP1 PUSH1 0x0 MSTORE PUSH1 0x20 PUSH1 0x0 KECCAK256 SWAP1 DUP2 ADD SWAP1 PUSH2 0x1660 SWAP2 SWAP1 PUSH2 0x1664 JUMP JUMPDEST JUMPDEST POP JUMP JUMPDEST JUMPDEST DUP1 DUP3 GT ISZERO PUSH2 0x167D JUMPI PUSH1 0x0 DUP2 PUSH1 0x0 SWAP1 SSTORE POP PUSH1 0x1 ADD PUSH2 0x1665 JUMP JUMPDEST POP SWAP1 JUMP JUMPDEST PUSH1 0x0 PUSH2 0x1694 PUSH2 0x168F DUP5 PUSH2 0x1B4A JUMP JUMPDEST PUSH2 0x1B25 JUMP JUMPDEST SWAP1 POP DUP3 DUP2 MSTORE PUSH1 0x20 DUP2 ADD DUP5 DUP5 DUP5 ADD GT ISZERO PUSH2 0x16B0 JUMPI PUSH2 0x16AF PUSH2 0x1E59 JUMP JUMPDEST JUMPDEST PUSH2 0x16BB DUP5 DUP3 DUP6 PUSH2 0x1C7B JUMP JUMPDEST POP SWAP4 SWAP3 POP POP POP JUMP JUMPDEST PUSH1 0x0 DUP2 CALLDATALOAD SWAP1 POP PUSH2 0x16D2 DUP2 PUSH2 0x1F46 JUMP JUMPDEST SWAP3 SWAP2 POP POP JUMP JUMPDEST PUSH1 0x0 DUP2 CALLDATALOAD SWAP1 POP PUSH2 0x16E7 DUP2 PUSH2 0x1F5D JUMP JUMPDEST SWAP3 SWAP2 POP POP JUMP JUMPDEST PUSH1 0x0 DUP2 CALLDATALOAD SWAP1 POP PUSH2 0x16FC DUP2 PUSH2 0x1F74 JUMP JUMPDEST SWAP3 SWAP2 POP POP JUMP JUMPDEST PUSH1 0x0 DUP3 PUSH1 0x1F DUP4 ADD SLT PUSH2 0x1717 JUMPI PUSH2 0x1716 PUSH2 0x1E54 JUMP JUMPDEST JUMPDEST DUP2 CALLDATALOAD PUSH2 0x1727 DUP5 DUP3 PUSH1 0x20 DUP7 ADD PUSH2 0x1681 JUMP JUMPDEST SWAP2 POP POP SWAP3 SWAP2 POP POP JUMP JUMPDEST PUSH1 0x0 DUP2 CALLDATALOAD SWAP1 POP PUSH2 0x173F DUP2 PUSH2 0x1F8B JUMP JUMPDEST SWAP3 SWAP2 POP POP JUMP JUMPDEST PUSH1 0x0 PUSH1 0x20 DUP3 DUP5 SUB SLT ISZERO PUSH2 0x175B JUMPI PUSH2 0x175A PUSH2 0x1E63 JUMP JUMPDEST JUMPDEST PUSH1 0x0 PUSH2 0x1769 DUP5 DUP3 DUP6 ADD PUSH2 0x16C3 JUMP JUMPDEST SWAP2 POP POP SWAP3 SWAP2 POP POP JUMP JUMPDEST PUSH1 0x0 DUP1 PUSH1 0x40 DUP4 DUP6 SUB SLT ISZERO PUSH2 0x1789 JUMPI PUSH2 0x1788 PUSH2 0x1E63 JUMP JUMPDEST JUMPDEST PUSH1 0x0 PUSH2 0x1797 DUP6 DUP3 DUP7 ADD PUSH2 0x16D8 JUMP JUMPDEST SWAP3 POP POP PUSH1 0x20 PUSH2 0x17A8 DUP6 DUP3 DUP7 ADD PUSH2 0x1730 JUMP JUMPDEST SWAP2 POP POP SWAP3 POP SWAP3 SWAP1 POP JUMP JUMPDEST PUSH1 0x0 DUP1 PUSH1 0x40 DUP4 DUP6 SUB SLT ISZERO PUSH2 0x17C9 JUMPI PUSH2 0x17C8 PUSH2 0x1E63 JUMP JUMPDEST JUMPDEST PUSH1 0x0 PUSH2 0x17D7 DUP6 DUP3 DUP7 ADD PUSH2 0x16C3 JUMP JUMPDEST SWAP3 POP POP PUSH1 0x20 PUSH2 0x17E8 DUP6 DUP3 DUP7 ADD PUSH2 0x1730 JUMP JUMPDEST SWAP2 POP POP SWAP3 POP SWAP3 SWAP1 POP JUMP JUMPDEST PUSH1 0x0 DUP1 PUSH1 0x0 DUP1 PUSH1 0x0 PUSH1 0xA0 DUP7 DUP9 SUB SLT ISZERO PUSH2 0x180E JUMPI PUSH2 0x180D PUSH2 0x1E63 JUMP JUMPDEST JUMPDEST PUSH1 0x0 DUP7 ADD CALLDATALOAD PUSH8 0xFFFFFFFFFFFFFFFF DUP2 GT ISZERO PUSH2 0x182C JUMPI PUSH2 0x182B PUSH2 0x1E5E JUMP JUMPDEST JUMPDEST PUSH2 0x1838 DUP9 DUP3 DUP10 ADD PUSH2 0x1702 JUMP JUMPDEST SWAP6 POP POP PUSH1 0x20 PUSH2 0x1849 DUP9 DUP3 DUP10 ADD PUSH2 0x1730 JUMP JUMPDEST SWAP5 POP POP PUSH1 0x40 PUSH2 0x185A DUP9 DUP3 DUP10 ADD PUSH2 0x1730 JUMP JUMPDEST SWAP4 POP POP PUSH1 0x60 PUSH2 0x186B DUP9 DUP3 DUP10 ADD PUSH2 0x16D8 JUMP JUMPDEST SWAP3 POP POP PUSH1 0x80 PUSH2 0x187C DUP9 DUP3 DUP10 ADD PUSH2 0x16ED JUMP JUMPDEST SWAP2 POP POP SWAP3 SWAP6 POP SWAP3 SWAP6 SWAP1 SWAP4 POP JUMP JUMPDEST PUSH1 0x0 PUSH1 0x20 DUP3 DUP5 SUB SLT ISZERO PUSH2 0x189F JUMPI PUSH2 0x189E PUSH2 0x1E63 JUMP JUMPDEST JUMPDEST PUSH1 0x0 PUSH2 0x18AD DUP5 DUP3 DUP6 ADD PUSH2 0x1730 JUMP JUMPDEST SWAP2 POP POP SWAP3 SWAP2 POP POP JUMP JUMPDEST PUSH2 0x18BF DUP2 PUSH2 0x1C33 JUMP JUMPDEST DUP3 MSTORE POP POP JUMP JUMPDEST PUSH2 0x18CE DUP2 PUSH2 0x1C21 JUMP JUMPDEST DUP3 MSTORE POP POP JUMP JUMPDEST PUSH2 0x18DD DUP2 PUSH2 0x1C45 JUMP JUMPDEST DUP3 MSTORE POP POP JUMP JUMPDEST PUSH1 0x0 PUSH2 0x18EE DUP3 PUSH2 0x1B7B JUMP JUMPDEST PUSH2 0x18F8 DUP2 DUP6 PUSH2 0x1B86 JUMP JUMPDEST SWAP4 POP PUSH2 0x1908 DUP2 DUP6 PUSH1 0x20 DUP7 ADD PUSH2 0x1C8A JUMP JUMPDEST PUSH2 0x1911 DUP2 PUSH2 0x1E68 JUMP JUMPDEST DUP5 ADD SWAP2 POP POP SWAP3 SWAP2 POP POP JUMP JUMPDEST PUSH1 0x0 PUSH2 0x1929 PUSH1 0x14 DUP4 PUSH2 0x1B86 JUMP JUMPDEST SWAP2 POP PUSH2 0x1934 DUP3 PUSH2 0x1E79 JUMP JUMPDEST PUSH1 0x20 DUP3 ADD SWAP1 POP SWAP2 SWAP1 POP JUMP JUMPDEST PUSH1 0x0 PUSH2 0x194C PUSH1 0x16 DUP4 PUSH2 0x1B86 JUMP JUMPDEST SWAP2 POP PUSH2 0x1957 DUP3 PUSH2 0x1EA2 JUMP JUMPDEST PUSH1 0x20 DUP3 ADD SWAP1 POP SWAP2 SWAP1 POP JUMP JUMPDEST PUSH1 0x0 PUSH2 0x196F PUSH1 0x19 DUP4 PUSH2 0x1B86 JUMP JUMPDEST SWAP2 POP PUSH2 0x197A DUP3 PUSH2 0x1ECB JUMP JUMPDEST PUSH1 0x20 DUP3 ADD SWAP1 POP SWAP2 SWAP1 POP JUMP JUMPDEST PUSH1 0x0 PUSH2 0x1992 PUSH1 0x15 DUP4 PUSH2 0x1B86 JUMP JUMPDEST SWAP2 POP PUSH2 0x199D DUP3 PUSH2 0x1EF4 JUMP JUMPDEST PUSH1 0x20 DUP3 ADD SWAP1 POP SWAP2 SWAP1 POP JUMP JUMPDEST PUSH1 0x0 PUSH2 0x19B5 PUSH1 0x12 DUP4 PUSH2 0x1B86 JUMP JUMPDEST SWAP2 POP PUSH2 0x19C0 DUP3 PUSH2 0x1F1D JUMP JUMPDEST PUSH1 0x20 DUP3 ADD SWAP1 POP SWAP2 SWAP1 POP JUMP JUMPDEST PUSH2 0x19D4 DUP2 PUSH2 0x1C71 JUMP JUMPDEST DUP3 MSTORE POP POP JUMP JUMPDEST PUSH1 0x0 PUSH1 0x20 DUP3 ADD SWAP1 POP PUSH2 0x19EF PUSH1 0x0 DUP4 ADD DUP5 PUSH2 0x18C5 JUMP JUMPDEST SWAP3 SWAP2 POP POP JUMP JUMPDEST PUSH1 0x0 PUSH1 0x20 DUP3 ADD SWAP1 POP PUSH2 0x1A0A PUSH1 0x0 DUP4 ADD DUP5 PUSH2 0x18D4 JUMP JUMPDEST SWAP3 SWAP2 POP POP JUMP JUMPDEST PUSH1 0x0 PUSH1 0xA0 DUP3 ADD SWAP1 POP DUP2 DUP2 SUB PUSH1 0x0 DUP4 ADD MSTORE PUSH2 0x1A2A DUP2 DUP9 PUSH2 0x18E3 JUMP JUMPDEST SWAP1 POP PUSH2 0x1A39 PUSH1 0x20 DUP4 ADD DUP8 PUSH2 0x19CB JUMP JUMPDEST PUSH2 0x1A46 PUSH1 0x40 DUP4 ADD DUP7 PUSH2 0x19CB JUMP JUMPDEST PUSH2 0x1A53 PUSH1 0x60 DUP4 ADD DUP6 PUSH2 0x18B6 JUMP JUMPDEST PUSH2 0x1A60 PUSH1 0x80 DUP4 ADD DUP5 PUSH2 0x18D4 JUMP JUMPDEST SWAP7 SWAP6 POP POP POP POP POP POP JUMP JUMPDEST PUSH1 0x0 PUSH1 0x20 DUP3 ADD SWAP1 POP DUP2 DUP2 SUB PUSH1 0x0 DUP4 ADD MSTORE PUSH2 0x1A83 DUP2 PUSH2 0x191C JUMP JUMPDEST SWAP1 POP SWAP2 SWAP1 POP JUMP JUMPDEST PUSH1 0x0 PUSH1 0x20 DUP3 ADD SWAP1 POP DUP2 DUP2 SUB PUSH1 0x0 DUP4 ADD MSTORE PUSH2 0x1AA3 DUP2 PUSH2 0x193F JUMP JUMPDEST SWAP1 POP SWAP2 SWAP1 POP JUMP JUMPDEST PUSH1 0x0 PUSH1 0x20 DUP3 ADD SWAP1 POP DUP2 DUP2 SUB PUSH1 0x0 DUP4 ADD MSTORE PUSH2 0x1AC3 DUP2 PUSH2 0x1962 JUMP JUMPDEST SWAP1 POP SWAP2 SWAP1 POP JUMP JUMPDEST PUSH1 0x0 PUSH1 0x20 DUP3 ADD SWAP1 POP DUP2 DUP2 SUB PUSH1 0x0 DUP4 ADD MSTORE PUSH2 0x1AE3 DUP2 PUSH2 0x1985 JUMP JUMPDEST SWAP1 POP SWAP2 SWAP1 POP JUMP JUMPDEST PUSH1 0x0 PUSH1 0x20 DUP3 ADD SWAP1 POP DUP2 DUP2 SUB PUSH1 0x0 DUP4 ADD MSTORE PUSH2 0x1B03 DUP2 PUSH2 0x19A8 JUMP JUMPDEST SWAP1 POP SWAP2 SWAP1 POP JUMP JUMPDEST PUSH1 0x0 PUSH1 0x20 DUP3 ADD SWAP1 POP PUSH2 0x1B1F PUSH1 0x0 DUP4 ADD DUP5 PUSH2 0x19CB JUMP JUMPDEST SWAP3 SWAP2 POP POP JUMP JUMPDEST PUSH1 0x0 PUSH2 0x1B2F PUSH2 0x1B40 JUMP JUMPDEST SWAP1 POP PUSH2 0x1B3B DUP3 DUP3 PUSH2 0x1CEF JUMP JUMPDEST SWAP2 SWAP1 POP JUMP JUMPDEST PUSH1 0x0 PUSH1 0x40 MLOAD SWAP1 POP SWAP1 JUMP JUMPDEST PUSH1 0x0 PUSH8 0xFFFFFFFFFFFFFFFF DUP3 GT ISZERO PUSH2 0x1B65 JUMPI PUSH2 0x1B64 PUSH2 0x1E25 JUMP JUMPDEST JUMPDEST PUSH2 0x1B6E DUP3 PUSH2 0x1E68 JUMP JUMPDEST SWAP1 POP PUSH1 0x20 DUP2 ADD SWAP1 POP SWAP2 SWAP1 POP JUMP JUMPDEST PUSH1 0x0 DUP2 MLOAD SWAP1 POP SWAP2 SWAP1 POP JUMP JUMPDEST PUSH1 0x0 DUP3 DUP3 MSTORE PUSH1 0x20 DUP3 ADD SWAP1 POP SWAP3 SWAP2 POP POP JUMP JUMPDEST PUSH1 0x0 PUSH2 0x1BA2 DUP3 PUSH2 0x1C71 JUMP JUMPDEST SWAP2 POP PUSH2 0x1BAD DUP4 PUSH2 0x1C71 JUMP JUMPDEST SWAP3 POP DUP3 PUSH32 0xFFFFFFFFFFFFFFFFFFFFFFFFFFFFFFFFFFFFFFFFFFFFFFFFFFFFFFFFFFFFFFFF SUB DUP3 GT ISZERO PUSH2 0x1BE2 JUMPI PUSH2 0x1BE1 PUSH2 0x1D69 JUMP JUMPDEST JUMPDEST DUP3 DUP3 ADD SWAP1 POP SWAP3 SWAP2 POP POP JUMP JUMPDEST PUSH1 0x0 PUSH2 0x1BF8 DUP3 PUSH2 0x1C71 JUMP JUMPDEST SWAP2 POP PUSH2 0x1C03 DUP4 PUSH2 0x1C71 JUMP JUMPDEST SWAP3 POP DUP3 DUP3 LT ISZERO PUSH2 0x1C16 JUMPI PUSH2 0x1C15 PUSH2 0x1D69 JUMP JUMPDEST JUMPDEST DUP3 DUP3 SUB SWAP1 POP SWAP3 SWAP2 POP POP JUMP JUMPDEST PUSH1 0x0 PUSH2 0x1C2C DUP3 PUSH2 0x1C51 JUMP JUMPDEST SWAP1 POP SWAP2 SWAP1 POP JUMP JUMPDEST PUSH1 0x0 PUSH2 0x1C3E DUP3 PUSH2 0x1C51 JUMP JUMPDEST SWAP1 POP SWAP2 SWAP1 POP JUMP JUMPDEST PUSH1 0x0 DUP2 ISZERO ISZERO SWAP1 POP SWAP2 SWAP1 POP JUMP JUMPDEST PUSH1 0x0 PUSH20 0xFFFFFFFFFFFFFFFFFFFFFFFFFFFFFFFFFFFFFFFF DUP3 AND SWAP1 POP SWAP2 SWAP1 POP JUMP JUMPDEST PUSH1 0x0 DUP2 SWAP1 POP SWAP2 SWAP1 POP JUMP JUMPDEST DUP3 DUP2 DUP4 CALLDATACOPY PUSH1 0x0 DUP4 DUP4 ADD MSTORE POP POP POP JUMP JUMPDEST PUSH1 0x0 JUMPDEST DUP4 DUP2 LT ISZERO PUSH2 0x1CA8 JUMPI DUP1 DUP3 ADD MLOAD DUP2 DUP5 ADD MSTORE PUSH1 0x20 DUP2 ADD SWAP1 POP PUSH2 0x1C8D JUMP JUMPDEST DUP4 DUP2 GT ISZERO PUSH2 0x1CB7 JUMPI PUSH1 0x0 DUP5 DUP5 ADD MSTORE JUMPDEST POP POP POP POP JUMP JUMPDEST PUSH1 0x0 PUSH1 0x2 DUP3 DIV SWAP1 POP PUSH1 0x1 DUP3 AND DUP1 PUSH2 0x1CD5 JUMPI PUSH1 0x7F DUP3 AND SWAP2 POP JUMPDEST PUSH1 0x20 DUP3 LT DUP2 EQ ISZERO PUSH2 0x1CE9 JUMPI PUSH2 0x1CE8 PUSH2 0x1D98 JUMP JUMPDEST JUMPDEST POP SWAP2 SWAP1 POP JUMP JUMPDEST PUSH2 0x1CF8 DUP3 PUSH2 0x1E68 JUMP JUMPDEST DUP2 ADD DUP2 DUP2 LT PUSH8 0xFFFFFFFFFFFFFFFF DUP3 GT OR ISZERO PUSH2 0x1D17 JUMPI PUSH2 0x1D16 PUSH2 0x1E25 JUMP JUMPDEST JUMPDEST DUP1 PUSH1 0x40 MSTORE POP POP POP JUMP JUMPDEST PUSH1 0x0 PUSH2 0x1D2B DUP3 PUSH2 0x1C71 JUMP JUMPDEST SWAP2 POP PUSH32 0xFFFFFFFFFFFFFFFFFFFFFFFFFFFFFFFFFFFFFFFFFFFFFFFFFFFFFFFFFFFFFFFF DUP3 EQ ISZERO PUSH2 0x1D5E JUMPI PUSH2 0x1D5D PUSH2 0x1D69 JUMP JUMPDEST JUMPDEST PUSH1 0x1 DUP3 ADD SWAP1 POP SWAP2 SWAP1 POP JUMP JUMPDEST PUSH32 0x4E487B7100000000000000000000000000000000000000000000000000000000 PUSH1 0x0 MSTORE PUSH1 0x11 PUSH1 0x4 MSTORE PUSH1 0x24 PUSH1 0x0 REVERT JUMPDEST PUSH32 0x4E487B7100000000000000000000000000000000000000000000000000000000 PUSH1 0x0 MSTORE PUSH1 0x22 PUSH1 0x4 MSTORE PUSH1 0x24 PUSH1 0x0 REVERT JUMPDEST PUSH32 0x4E487B7100000000000000000000000000000000000000000000000000000000 PUSH1 0x0 MSTORE PUSH1 0x31 PUSH1 0x4 MSTORE PUSH1 0x24 PUSH1 0x0 REVERT JUMPDEST PUSH32 0x4E487B7100000000000000000000000000000000000000000000000000000000 PUSH1 0x0 MSTORE PUSH1 0x32 PUSH1 0x4 MSTORE PUSH1 0x24 PUSH1 0x0 REVERT JUMPDEST PUSH32 0x4E487B7100000000000000000000000000000000000000000000000000000000 PUSH1 0x0 MSTORE PUSH1 0x41 PUSH1 0x4 MSTORE PUSH1 0x24 PUSH1 0x0 REVERT JUMPDEST PUSH1 0x0 DUP1 REVERT JUMPDEST PUSH1 0x0 DUP1 REVERT JUMPDEST PUSH1 0x0 DUP1 REVERT JUMPDEST PUSH1 0x0 DUP1 REVERT JUMPDEST PUSH1 0x0 PUSH1 0x1F NOT PUSH1 0x1F DUP4 ADD AND SWAP1 POP SWAP2 SWAP1 POP JUMP JUMPDEST PUSH32 0x4661696C656420746F2073656E64204554484552000000000000000000000000 PUSH1 0x0 DUP3 ADD MSTORE POP JUMP JUMPDEST PUSH32 0x796F7520646F6E27742068617665207269676874732000000000000000000000 PUSH1 0x0 DUP3 ADD MSTORE POP JUMP JUMPDEST PUSH32 0x53616C61727920616C7265616479206973206372656974656400000000000000 PUSH1 0x0 DUP3 ADD MSTORE POP JUMP JUMPDEST PUSH32 0x7573657220616C72656164792072656769737465720000000000000000000000 PUSH1 0x0 DUP3 ADD MSTORE POP JUMP JUMPDEST PUSH32 0x656D706C6F796565206E6F7420666F756E640000000000000000000000000000 PUSH1 0x0 DUP3 ADD MSTORE POP JUMP JUMPDEST PUSH2 0x1F4F DUP2 PUSH2 0x1C21 JUMP JUMPDEST DUP2 EQ PUSH2 0x1F5A JUMPI PUSH1 0x0 DUP1 REVERT JUMPDEST POP JUMP JUMPDEST PUSH2 0x1F66 DUP2 PUSH2 0x1C33 JUMP JUMPDEST DUP2 EQ PUSH2 0x1F71 JUMPI PUSH1 0x0 DUP1 REVERT JUMPDEST POP JUMP JUMPDEST PUSH2 0x1F7D DUP2 PUSH2 0x1C45 JUMP JUMPDEST DUP2 EQ PUSH2 0x1F88 JUMPI PUSH1 0x0 DUP1 REVERT JUMPDEST POP JUMP JUMPDEST PUSH2 0x1F94 DUP2 PUSH2 0x1C71 JUMP JUMPDEST DUP2 EQ PUSH2 0x1F9F JUMPI PUSH1 0x0 DUP1 REVERT JUMPDEST POP JUMP INVALID LOG2 PUSH5 0x6970667358 0x22 SLT KECCAK256 0xC0 BALANCE LOG4 POP 0xA6 0xEA 0xCC KECCAK256 JUMPDEST DUP8 0x4C PUSH14 0x11CA71A3118ECF315CA92BA66A50 BASEFEE SHR CALLVALUE 0xD7 0xB7 DUP15 PUSH5 0x736F6C6343 STOP ADDMOD SMOD STOP CALLER "
				},
				"gasEstimates": {
					"creation": {
						"codeDepositCost": "1630400",
						"executionCost": "70186",
						"totalCost": "1700586"
					},
					"external": {
						"AllEmployes(uint256)": "infinite",
						"ChangePostion(address,uint256)": "infinite",
						"CheckSalaryStatus(address)": "infinite",
						"Employe_Registration(string,uint256,uint256,address,bool)": "infinite",
						"GetEmployeeDetails(address)": "infinite",
						"RemoveEmployee(address)": "infinite",
						"admin()": "2599",
						"changePaidStatus()": "infinite",
						"sendingSalaries(address,uint256)": "infinite",
						"sendingSalariesToEmployee()": "infinite"
					}
				},
				"methodIdentifiers": {
					"AllEmployes(uint256)": "b58f421c",
					"ChangePostion(address,uint256)": "e66a458e",
					"CheckSalaryStatus(address)": "ba0ce2bb",
					"Employe_Registration(string,uint256,uint256,address,bool)": "7a7e4369",
					"GetEmployeeDetails(address)": "d17106b7",
					"RemoveEmployee(address)": "52d6abdc",
					"admin()": "f851a440",
					"changePaidStatus()": "026f119a",
					"sendingSalaries(address,uint256)": "18c7a051",
					"sendingSalariesToEmployee()": "04b642a4"
				}
			},
			"storageLayout": {
				"storage": [
					{
						"astId": 3,
						"contract": "contracts/salary.sol:salary",
						"label": "admin",
						"offset": 0,
						"slot": "0",
						"type": "t_address"
					},
					{
						"astId": 15,
						"contract": "contracts/salary.sol:salary",
						"label": "SalaryOfP1",
						"offset": 0,
						"slot": "1",
						"type": "t_uint256"
					},
					{
						"astId": 18,
						"contract": "contracts/salary.sol:salary",
						"label": "SalaryOfP2",
						"offset": 0,
						"slot": "2",
						"type": "t_uint256"
					},
					{
						"astId": 34,
						"contract": "contracts/salary.sol:salary",
						"label": "GetEmployeeDetails",
						"offset": 0,
						"slot": "3",
						"type": "t_mapping(t_address,t_struct(Employe)29_storage)"
					},
					{
						"astId": 38,
						"contract": "contracts/salary.sol:salary",
						"label": "AllEmployes",
						"offset": 0,
						"slot": "4",
						"type": "t_array(t_struct(Employe)29_storage)dyn_storage"
					}
				],
				"types": {
					"t_address": {
						"encoding": "inplace",
						"label": "address",
						"numberOfBytes": "20"
					},
					"t_address_payable": {
						"encoding": "inplace",
						"label": "address payable",
						"numberOfBytes": "20"
					},
					"t_array(t_struct(Employe)29_storage)dyn_storage": {
						"base": "t_struct(Employe)29_storage",
						"encoding": "dynamic_array",
						"label": "struct salary.Employe[]",
						"numberOfBytes": "32"
					},
					"t_bool": {
						"encoding": "inplace",
						"label": "bool",
						"numberOfBytes": "1"
					},
					"t_mapping(t_address,t_struct(Employe)29_storage)": {
						"encoding": "mapping",
						"key": "t_address",
						"label": "mapping(address => struct salary.Employe)",
						"numberOfBytes": "32",
						"value": "t_struct(Employe)29_storage"
					},
					"t_string_storage": {
						"encoding": "bytes",
						"label": "string",
						"numberOfBytes": "32"
					},
					"t_struct(Employe)29_storage": {
						"encoding": "inplace",
						"label": "struct salary.Employe",
						"members": [
							{
								"astId": 20,
								"contract": "contracts/salary.sol:salary",
								"label": "name",
								"offset": 0,
								"slot": "0",
								"type": "t_string_storage"
							},
							{
								"astId": 22,
								"contract": "contracts/salary.sol:salary",
								"label": "role",
								"offset": 0,
								"slot": "1",
								"type": "t_uint256"
							},
							{
								"astId": 24,
								"contract": "contracts/salary.sol:salary",
								"label": "Id_No",
								"offset": 0,
								"slot": "2",
								"type": "t_uint256"
							},
							{
								"astId": 26,
								"contract": "contracts/salary.sol:salary",
								"label": "account_No",
								"offset": 0,
								"slot": "3",
								"type": "t_address_payable"
							},
							{
								"astId": 28,
								"contract": "contracts/salary.sol:salary",
								"label": "paid_status",
								"offset": 20,
								"slot": "3",
								"type": "t_bool"
							}
						],
						"numberOfBytes": "128"
					},
					"t_uint256": {
						"encoding": "inplace",
						"label": "uint256",
						"numberOfBytes": "32"
					}
				}
			},
			"userdoc": {
				"kind": "user",
				"methods": {
					"Employe_Registration(string,uint256,uint256,address,bool)": {
						"notice": "0xb2309adF6FD227cd04fcAa5546E1375B2BC65Da0"
					}
				},
				"version": 1
			}
		}
	}
}