{
	"contracts/salary.sol": {
		"salary": {
			"abi": [
				{
					"inputs": [],
					"stateMutability": "nonpayable",
					"type": "constructor"
				},
				{
					"inputs": [
						{
							"internalType": "uint256",
							"name": "",
							"type": "uint256"
						}
					],
					"name": "AllEmployes",
					"outputs": [
						{
							"internalType": "string",
							"name": "name",
							"type": "string"
						},
						{
							"internalType": "string",
							"name": "role",
							"type": "string"
						},
						{
							"internalType": "uint256",
							"name": "Id_No",
							"type": "uint256"
						},
						{
							"internalType": "address payable",
							"name": "account_No",
							"type": "address"
						},
						{
							"internalType": "bool",
							"name": "paid_status",
							"type": "bool"
						}
					],
					"stateMutability": "view",
					"type": "function"
				},
				{
					"inputs": [
						{
							"internalType": "address",
							"name": "_account_No",
							"type": "address"
						},
						{
							"internalType": "string",
							"name": "ChangePosition",
							"type": "string"
						}
					],
					"name": "ChangePostion",
					"outputs": [],
					"stateMutability": "nonpayable",
					"type": "function"
				},
				{
					"inputs": [
						{
							"internalType": "address",
							"name": "",
							"type": "address"
						}
					],
					"name": "GetEmployeeDetails",
					"outputs": [
						{
							"internalType": "string",
							"name": "name",
							"type": "string"
						},
						{
							"internalType": "string",
							"name": "role",
							"type": "string"
						},
						{
							"internalType": "uint256",
							"name": "Id_No",
							"type": "uint256"
						},
						{
							"internalType": "address payable",
							"name": "account_No",
							"type": "address"
						},
						{
							"internalType": "bool",
							"name": "paid_status",
							"type": "bool"
						}
					],
					"stateMutability": "view",
					"type": "function"
				},
				{
					"inputs": [],
					"name": "admin",
					"outputs": [
						{
							"internalType": "address",
							"name": "",
							"type": "address"
						}
					],
					"stateMutability": "view",
					"type": "function"
				}
			],
			"devdoc": {
				"kind": "dev",
				"methods": {},
				"version": 1
			},
			"evm": {
				"assembly": "    /* \"contracts/salary.sol\":65:4906  contract salary{\r... */\n  mstore(0x40, 0x80)\n    /* \"contracts/salary.sol\":329:346  20000000000000000 */\n  0x470de4df820000\n    /* \"contracts/salary.sol\":311:346  uint  SalaryOfP1= 20000000000000000 */\n  0x01\n  sstore\n    /* \"contracts/salary.sol\":379:396  30000000000000000 */\n  0x6a94d74f430000\n    /* \"contracts/salary.sol\":362:396  uint  SalaryOfP2=30000000000000000 */\n  0x02\n  sstore\n    /* \"contracts/salary.sol\":160:210  constructor (){\r... */\n  callvalue\n  dup1\n  iszero\n  tag_1\n  jumpi\n  0x00\n  dup1\n  revert\ntag_1:\n  pop\n    /* \"contracts/salary.sol\":196:206  msg.sender */\n  caller\n    /* \"contracts/salary.sol\":189:194  admin */\n  0x00\n  dup1\n    /* \"contracts/salary.sol\":189:206  admin= msg.sender */\n  0x0100\n  exp\n  dup2\n  sload\n  dup2\n  0xffffffffffffffffffffffffffffffffffffffff\n  mul\n  not\n  and\n  swap1\n  dup4\n  0xffffffffffffffffffffffffffffffffffffffff\n  and\n  mul\n  or\n  swap1\n  sstore\n  pop\n    /* \"contracts/salary.sol\":65:4906  contract salary{\r... */\n  dataSize(sub_0)\n  dup1\n  dataOffset(sub_0)\n  0x00\n  codecopy\n  0x00\n  return\nstop\n\nsub_0: assembly {\n        /* \"contracts/salary.sol\":65:4906  contract salary{\r... */\n      mstore(0x40, 0x80)\n      callvalue\n      dup1\n      iszero\n      tag_1\n      jumpi\n      0x00\n      dup1\n      revert\n    tag_1:\n      pop\n      jumpi(tag_2, lt(calldatasize, 0x04))\n      shr(0xe0, calldataload(0x00))\n      dup1\n      0x3d24cc45\n      eq\n      tag_3\n      jumpi\n      dup1\n      0xb58f421c\n      eq\n      tag_4\n      jumpi\n      dup1\n      0xd17106b7\n      eq\n      tag_5\n      jumpi\n      dup1\n      0xf851a440\n      eq\n      tag_6\n      jumpi\n    tag_2:\n      0x00\n      dup1\n      revert\n        /* \"contracts/salary.sol\":3681:4183  function ChangePostion( address _account_No, string memory   ChangePosition) public onlyAdmin {\r... */\n    tag_3:\n      tag_7\n      0x04\n      dup1\n      calldatasize\n      sub\n      dup2\n      add\n      swap1\n      tag_8\n      swap2\n      swap1\n      tag_9\n      jump\t// in\n    tag_8:\n      tag_10\n      jump\t// in\n    tag_7:\n      stop\n        /* \"contracts/salary.sol\":702:731  Employe [] public AllEmployes */\n    tag_4:\n      tag_11\n      0x04\n      dup1\n      calldatasize\n      sub\n      dup2\n      add\n      swap1\n      tag_12\n      swap2\n      swap1\n      tag_13\n      jump\t// in\n    tag_12:\n      tag_14\n      jump\t// in\n    tag_11:\n      mload(0x40)\n      tag_15\n      swap6\n      swap5\n      swap4\n      swap3\n      swap2\n      swap1\n      tag_16\n      jump\t// in\n    tag_15:\n      mload(0x40)\n      dup1\n      swap2\n      sub\n      swap1\n      return\n        /* \"contracts/salary.sol\":620:672  mapping (address=>Employe) public GetEmployeeDetails */\n    tag_5:\n      tag_17\n      0x04\n      dup1\n      calldatasize\n      sub\n      dup2\n      add\n      swap1\n      tag_18\n      swap2\n      swap1\n      tag_19\n      jump\t// in\n    tag_18:\n      tag_20\n      jump\t// in\n    tag_17:\n      mload(0x40)\n      tag_21\n      swap6\n      swap5\n      swap4\n      swap3\n      swap2\n      swap1\n      tag_16\n      jump\t// in\n    tag_21:\n      mload(0x40)\n      dup1\n      swap2\n      sub\n      swap1\n      return\n        /* \"contracts/salary.sol\":123:143  address public admin */\n    tag_6:\n      tag_22\n      tag_23\n      jump\t// in\n    tag_22:\n      mload(0x40)\n      tag_24\n      swap2\n      swap1\n      tag_25\n      jump\t// in\n    tag_24:\n      mload(0x40)\n      dup1\n      swap2\n      sub\n      swap1\n      return\n        /* \"contracts/salary.sol\":3681:4183  function ChangePostion( address _account_No, string memory   ChangePosition) public onlyAdmin {\r... */\n    tag_10:\n        /* \"contracts/salary.sol\":797:802  admin */\n      0x00\n      dup1\n      sload\n      swap1\n      0x0100\n      exp\n      swap1\n      div\n      0xffffffffffffffffffffffffffffffffffffffff\n      and\n        /* \"contracts/salary.sol\":785:802  msg.sender==admin */\n      0xffffffffffffffffffffffffffffffffffffffff\n      and\n        /* \"contracts/salary.sol\":785:795  msg.sender */\n      caller\n        /* \"contracts/salary.sol\":785:802  msg.sender==admin */\n      0xffffffffffffffffffffffffffffffffffffffff\n      and\n      eq\n        /* \"contracts/salary.sol\":777:828  require(msg.sender==admin,\"you don't have rights \") */\n      tag_27\n      jumpi\n      mload(0x40)\n      0x08c379a000000000000000000000000000000000000000000000000000000000\n      dup2\n      mstore\n      0x04\n      add\n      tag_28\n      swap1\n      tag_29\n      jump\t// in\n    tag_28:\n      mload(0x40)\n      dup1\n      swap2\n      sub\n      swap1\n      revert\n    tag_27:\n        /* \"contracts/salary.sol\":3783:3796  uint256 count */\n      0x00\n        /* \"contracts/salary.sol\":3867:3881  ChangePosition */\n      dup2\n        /* \"contracts/salary.sol\":3830:3848  GetEmployeeDetails */\n      0x03\n        /* \"contracts/salary.sol\":3830:3861  GetEmployeeDetails[_account_No] */\n      0x00\n        /* \"contracts/salary.sol\":3849:3860  _account_No */\n      dup6\n        /* \"contracts/salary.sol\":3830:3861  GetEmployeeDetails[_account_No] */\n      0xffffffffffffffffffffffffffffffffffffffff\n      and\n      0xffffffffffffffffffffffffffffffffffffffff\n      and\n      dup2\n      mstore\n      0x20\n      add\n      swap1\n      dup2\n      mstore\n      0x20\n      add\n      0x00\n      keccak256\n        /* \"contracts/salary.sol\":3830:3866  GetEmployeeDetails[_account_No].role */\n      0x01\n      add\n        /* \"contracts/salary.sol\":3830:3881  GetEmployeeDetails[_account_No].role=ChangePosition */\n      swap1\n      dup1\n      mload\n      swap1\n      0x20\n      add\n      swap1\n      tag_31\n      swap3\n      swap2\n      swap1\n      tag_32\n      jump\t// in\n    tag_31:\n      pop\n        /* \"contracts/salary.sol\":3898:3904  uint i */\n      0x00\n        /* \"contracts/salary.sol\":3893:4167  for (uint i=0;i<AllEmployes.length; i++ ){\r... */\n    tag_33:\n        /* \"contracts/salary.sol\":3909:3920  AllEmployes */\n      0x04\n        /* \"contracts/salary.sol\":3909:3927  AllEmployes.length */\n      dup1\n      sload\n      swap1\n      pop\n        /* \"contracts/salary.sol\":3907:3908  i */\n      dup2\n        /* \"contracts/salary.sol\":3907:3927  i<AllEmployes.length */\n      lt\n        /* \"contracts/salary.sol\":3893:4167  for (uint i=0;i<AllEmployes.length; i++ ){\r... */\n      iszero\n      tag_34\n      jumpi\n        /* \"contracts/salary.sol\":3977:3988  _account_No */\n      dup4\n        /* \"contracts/salary.sol\":3949:3988  AllEmployes[i].account_No ==_account_No */\n      0xffffffffffffffffffffffffffffffffffffffff\n      and\n        /* \"contracts/salary.sol\":3949:3960  AllEmployes */\n      0x04\n        /* \"contracts/salary.sol\":3961:3962  i */\n      dup3\n        /* \"contracts/salary.sol\":3949:3963  AllEmployes[i] */\n      dup2\n      sload\n      dup2\n      lt\n      tag_36\n      jumpi\n      tag_37\n      tag_38\n      jump\t// in\n    tag_37:\n    tag_36:\n      swap1\n      0x00\n      mstore\n      keccak256(0x00, 0x20)\n      swap1\n      0x04\n      mul\n      add\n        /* \"contracts/salary.sol\":3949:3974  AllEmployes[i].account_No */\n      0x03\n      add\n      0x00\n      swap1\n      sload\n      swap1\n      0x0100\n      exp\n      swap1\n      div\n      0xffffffffffffffffffffffffffffffffffffffff\n      and\n        /* \"contracts/salary.sol\":3949:3988  AllEmployes[i].account_No ==_account_No */\n      0xffffffffffffffffffffffffffffffffffffffff\n      and\n      eq\n        /* \"contracts/salary.sol\":3946:4050  if(AllEmployes[i].account_No ==_account_No){\r... */\n      iszero\n      tag_40\n      jumpi\n        /* \"contracts/salary.sol\":4023:4037  ChangePosition */\n      dup3\n        /* \"contracts/salary.sol\":4003:4014  AllEmployes */\n      0x04\n        /* \"contracts/salary.sol\":4015:4016  i */\n      dup3\n        /* \"contracts/salary.sol\":4003:4017  AllEmployes[i] */\n      dup2\n      sload\n      dup2\n      lt\n      tag_41\n      jumpi\n      tag_42\n      tag_38\n      jump\t// in\n    tag_42:\n    tag_41:\n      swap1\n      0x00\n      mstore\n      keccak256(0x00, 0x20)\n      swap1\n      0x04\n      mul\n      add\n        /* \"contracts/salary.sol\":4003:4022  AllEmployes[i].role */\n      0x01\n      add\n        /* \"contracts/salary.sol\":4003:4037  AllEmployes[i].role=ChangePosition */\n      swap1\n      dup1\n      mload\n      swap1\n      0x20\n      add\n      swap1\n      tag_44\n      swap3\n      swap2\n      swap1\n      tag_32\n      jump\t// in\n    tag_44:\n      pop\n        /* \"contracts/salary.sol\":3946:4050  if(AllEmployes[i].account_No ==_account_No){\r... */\n    tag_40:\n        /* \"contracts/salary.sol\":4066:4067  1 */\n      0x01\n        /* \"contracts/salary.sol\":4059:4067  count+=1 */\n      dup3\n      tag_45\n      swap2\n      swap1\n      tag_46\n      jump\t// in\n    tag_45:\n      swap2\n      pop\n        /* \"contracts/salary.sol\":4099:4104  count */\n      dup2\n        /* \"contracts/salary.sol\":4077:4088  AllEmployes */\n      0x04\n        /* \"contracts/salary.sol\":4077:4095  AllEmployes.length */\n      dup1\n      sload\n      swap1\n      pop\n        /* \"contracts/salary.sol\":4077:4104  AllEmployes.length == count */\n      eq\n        /* \"contracts/salary.sol\":4074:4162  if(AllEmployes.length == count){\r... */\n      iszero\n      tag_47\n      jumpi\n        /* \"contracts/salary.sol\":4121:4149  revert(\"employee not found\") */\n      mload(0x40)\n      0x08c379a000000000000000000000000000000000000000000000000000000000\n      dup2\n      mstore\n      0x04\n      add\n      tag_48\n      swap1\n      tag_49\n      jump\t// in\n    tag_48:\n      mload(0x40)\n      dup1\n      swap2\n      sub\n      swap1\n      revert\n        /* \"contracts/salary.sol\":4074:4162  if(AllEmployes.length == count){\r... */\n    tag_47:\n        /* \"contracts/salary.sol\":3929:3932  i++ */\n      dup1\n      dup1\n      tag_50\n      swap1\n      tag_51\n      jump\t// in\n    tag_50:\n      swap2\n      pop\n      pop\n        /* \"contracts/salary.sol\":3893:4167  for (uint i=0;i<AllEmployes.length; i++ ){\r... */\n      jump(tag_33)\n    tag_34:\n      pop\n        /* \"contracts/salary.sol\":3775:4183  {\r... */\n      pop\n        /* \"contracts/salary.sol\":3681:4183  function ChangePostion( address _account_No, string memory   ChangePosition) public onlyAdmin {\r... */\n      pop\n      pop\n      jump\t// out\n        /* \"contracts/salary.sol\":702:731  Employe [] public AllEmployes */\n    tag_14:\n      0x04\n      dup2\n      dup2\n      sload\n      dup2\n      lt\n      tag_52\n      jumpi\n      0x00\n      dup1\n      revert\n    tag_52:\n      swap1\n      0x00\n      mstore\n      keccak256(0x00, 0x20)\n      swap1\n      0x04\n      mul\n      add\n      0x00\n      swap2\n      pop\n      swap1\n      pop\n      dup1\n      0x00\n      add\n      dup1\n      sload\n      tag_54\n      swap1\n      tag_55\n      jump\t// in\n    tag_54:\n      dup1\n      0x1f\n      add\n      0x20\n      dup1\n      swap2\n      div\n      mul\n      0x20\n      add\n      mload(0x40)\n      swap1\n      dup2\n      add\n      0x40\n      mstore\n      dup1\n      swap3\n      swap2\n      swap1\n      dup2\n      dup2\n      mstore\n      0x20\n      add\n      dup3\n      dup1\n      sload\n      tag_56\n      swap1\n      tag_55\n      jump\t// in\n    tag_56:\n      dup1\n      iszero\n      tag_57\n      jumpi\n      dup1\n      0x1f\n      lt\n      tag_58\n      jumpi\n      0x0100\n      dup1\n      dup4\n      sload\n      div\n      mul\n      dup4\n      mstore\n      swap2\n      0x20\n      add\n      swap2\n      jump(tag_57)\n    tag_58:\n      dup3\n      add\n      swap2\n      swap1\n      0x00\n      mstore\n      keccak256(0x00, 0x20)\n      swap1\n    tag_59:\n      dup2\n      sload\n      dup2\n      mstore\n      swap1\n      0x01\n      add\n      swap1\n      0x20\n      add\n      dup1\n      dup4\n      gt\n      tag_59\n      jumpi\n      dup3\n      swap1\n      sub\n      0x1f\n      and\n      dup3\n      add\n      swap2\n    tag_57:\n      pop\n      pop\n      pop\n      pop\n      pop\n      swap1\n      dup1\n      0x01\n      add\n      dup1\n      sload\n      tag_60\n      swap1\n      tag_55\n      jump\t// in\n    tag_60:\n      dup1\n      0x1f\n      add\n      0x20\n      dup1\n      swap2\n      div\n      mul\n      0x20\n      add\n      mload(0x40)\n      swap1\n      dup2\n      add\n      0x40\n      mstore\n      dup1\n      swap3\n      swap2\n      swap1\n      dup2\n      dup2\n      mstore\n      0x20\n      add\n      dup3\n      dup1\n      sload\n      tag_61\n      swap1\n      tag_55\n      jump\t// in\n    tag_61:\n      dup1\n      iszero\n      tag_62\n      jumpi\n      dup1\n      0x1f\n      lt\n      tag_63\n      jumpi\n      0x0100\n      dup1\n      dup4\n      sload\n      div\n      mul\n      dup4\n      mstore\n      swap2\n      0x20\n      add\n      swap2\n      jump(tag_62)\n    tag_63:\n      dup3\n      add\n      swap2\n      swap1\n      0x00\n      mstore\n      keccak256(0x00, 0x20)\n      swap1\n    tag_64:\n      dup2\n      sload\n      dup2\n      mstore\n      swap1\n      0x01\n      add\n      swap1\n      0x20\n      add\n      dup1\n      dup4\n      gt\n      tag_64\n      jumpi\n      dup3\n      swap1\n      sub\n      0x1f\n      and\n      dup3\n      add\n      swap2\n    tag_62:\n      pop\n      pop\n      pop\n      pop\n      pop\n      swap1\n      dup1\n      0x02\n      add\n      sload\n      swap1\n      dup1\n      0x03\n      add\n      0x00\n      swap1\n      sload\n      swap1\n      0x0100\n      exp\n      swap1\n      div\n      0xffffffffffffffffffffffffffffffffffffffff\n      and\n      swap1\n      dup1\n      0x03\n      add\n      0x14\n      swap1\n      sload\n      swap1\n      0x0100\n      exp\n      swap1\n      div\n      0xff\n      and\n      swap1\n      pop\n      dup6\n      jump\t// out\n        /* \"contracts/salary.sol\":620:672  mapping (address=>Employe) public GetEmployeeDetails */\n    tag_20:\n      mstore(0x20, 0x03)\n      dup1\n      0x00\n      mstore\n      keccak256(0x00, 0x40)\n      0x00\n      swap2\n      pop\n      swap1\n      pop\n      dup1\n      0x00\n      add\n      dup1\n      sload\n      tag_65\n      swap1\n      tag_55\n      jump\t// in\n    tag_65:\n      dup1\n      0x1f\n      add\n      0x20\n      dup1\n      swap2\n      div\n      mul\n      0x20\n      add\n      mload(0x40)\n      swap1\n      dup2\n      add\n      0x40\n      mstore\n      dup1\n      swap3\n      swap2\n      swap1\n      dup2\n      dup2\n      mstore\n      0x20\n      add\n      dup3\n      dup1\n      sload\n      tag_66\n      swap1\n      tag_55\n      jump\t// in\n    tag_66:\n      dup1\n      iszero\n      tag_67\n      jumpi\n      dup1\n      0x1f\n      lt\n      tag_68\n      jumpi\n      0x0100\n      dup1\n      dup4\n      sload\n      div\n      mul\n      dup4\n      mstore\n      swap2\n      0x20\n      add\n      swap2\n      jump(tag_67)\n    tag_68:\n      dup3\n      add\n      swap2\n      swap1\n      0x00\n      mstore\n      keccak256(0x00, 0x20)\n      swap1\n    tag_69:\n      dup2\n      sload\n      dup2\n      mstore\n      swap1\n      0x01\n      add\n      swap1\n      0x20\n      add\n      dup1\n      dup4\n      gt\n      tag_69\n      jumpi\n      dup3\n      swap1\n      sub\n      0x1f\n      and\n      dup3\n      add\n      swap2\n    tag_67:\n      pop\n      pop\n      pop\n      pop\n      pop\n      swap1\n      dup1\n      0x01\n      add\n      dup1\n      sload\n      tag_70\n      swap1\n      tag_55\n      jump\t// in\n    tag_70:\n      dup1\n      0x1f\n      add\n      0x20\n      dup1\n      swap2\n      div\n      mul\n      0x20\n      add\n      mload(0x40)\n      swap1\n      dup2\n      add\n      0x40\n      mstore\n      dup1\n      swap3\n      swap2\n      swap1\n      dup2\n      dup2\n      mstore\n      0x20\n      add\n      dup3\n      dup1\n      sload\n      tag_71\n      swap1\n      tag_55\n      jump\t// in\n    tag_71:\n      dup1\n      iszero\n      tag_72\n      jumpi\n      dup1\n      0x1f\n      lt\n      tag_73\n      jumpi\n      0x0100\n      dup1\n      dup4\n      sload\n      div\n      mul\n      dup4\n      mstore\n      swap2\n      0x20\n      add\n      swap2\n      jump(tag_72)\n    tag_73:\n      dup3\n      add\n      swap2\n      swap1\n      0x00\n      mstore\n      keccak256(0x00, 0x20)\n      swap1\n    tag_74:\n      dup2\n      sload\n      dup2\n      mstore\n      swap1\n      0x01\n      add\n      swap1\n      0x20\n      add\n      dup1\n      dup4\n      gt\n      tag_74\n      jumpi\n      dup3\n      swap1\n      sub\n      0x1f\n      and\n      dup3\n      add\n      swap2\n    tag_72:\n      pop\n      pop\n      pop\n      pop\n      pop\n      swap1\n      dup1\n      0x02\n      add\n      sload\n      swap1\n      dup1\n      0x03\n      add\n      0x00\n      swap1\n      sload\n      swap1\n      0x0100\n      exp\n      swap1\n      div\n      0xffffffffffffffffffffffffffffffffffffffff\n      and\n      swap1\n      dup1\n      0x03\n      add\n      0x14\n      swap1\n      sload\n      swap1\n      0x0100\n      exp\n      swap1\n      div\n      0xff\n      and\n      swap1\n      pop\n      dup6\n      jump\t// out\n        /* \"contracts/salary.sol\":123:143  address public admin */\n    tag_23:\n      0x00\n      dup1\n      sload\n      swap1\n      0x0100\n      exp\n      swap1\n      div\n      0xffffffffffffffffffffffffffffffffffffffff\n      and\n      dup2\n      jump\t// out\n    tag_32:\n      dup3\n      dup1\n      sload\n      tag_75\n      swap1\n      tag_55\n      jump\t// in\n    tag_75:\n      swap1\n      0x00\n      mstore\n      keccak256(0x00, 0x20)\n      swap1\n      0x1f\n      add\n      0x20\n      swap1\n      div\n      dup2\n      add\n      swap3\n      dup3\n      tag_77\n      jumpi\n      0x00\n      dup6\n      sstore\n      jump(tag_76)\n    tag_77:\n      dup3\n      0x1f\n      lt\n      tag_78\n      jumpi\n      dup1\n      mload\n      not(0xff)\n      and\n      dup4\n      dup1\n      add\n      or\n      dup6\n      sstore\n      jump(tag_76)\n    tag_78:\n      dup3\n      dup1\n      add\n      0x01\n      add\n      dup6\n      sstore\n      dup3\n      iszero\n      tag_76\n      jumpi\n      swap2\n      dup3\n      add\n    tag_79:\n      dup3\n      dup2\n      gt\n      iszero\n      tag_80\n      jumpi\n      dup3\n      mload\n      dup3\n      sstore\n      swap2\n      0x20\n      add\n      swap2\n      swap1\n      0x01\n      add\n      swap1\n      jump(tag_79)\n    tag_80:\n    tag_76:\n      pop\n      swap1\n      pop\n      tag_81\n      swap2\n      swap1\n      tag_82\n      jump\t// in\n    tag_81:\n      pop\n      swap1\n      jump\t// out\n    tag_82:\n    tag_83:\n      dup1\n      dup3\n      gt\n      iszero\n      tag_84\n      jumpi\n      0x00\n      dup2\n      0x00\n      swap1\n      sstore\n      pop\n      0x01\n      add\n      jump(tag_83)\n    tag_84:\n      pop\n      swap1\n      jump\t// out\n        /* \"#utility.yul\":7:419   */\n    tag_86:\n        /* \"#utility.yul\":85:90   */\n      0x00\n        /* \"#utility.yul\":110:176   */\n      tag_88\n        /* \"#utility.yul\":126:175   */\n      tag_89\n        /* \"#utility.yul\":168:174   */\n      dup5\n        /* \"#utility.yul\":126:175   */\n      tag_90\n      jump\t// in\n    tag_89:\n        /* \"#utility.yul\":110:176   */\n      tag_91\n      jump\t// in\n    tag_88:\n        /* \"#utility.yul\":101:176   */\n      swap1\n      pop\n        /* \"#utility.yul\":199:205   */\n      dup3\n        /* \"#utility.yul\":192:197   */\n      dup2\n        /* \"#utility.yul\":185:206   */\n      mstore\n        /* \"#utility.yul\":237:241   */\n      0x20\n        /* \"#utility.yul\":230:235   */\n      dup2\n        /* \"#utility.yul\":226:242   */\n      add\n        /* \"#utility.yul\":275:278   */\n      dup5\n        /* \"#utility.yul\":266:272   */\n      dup5\n        /* \"#utility.yul\":261:264   */\n      dup5\n        /* \"#utility.yul\":257:273   */\n      add\n        /* \"#utility.yul\":254:279   */\n      gt\n        /* \"#utility.yul\":251:363   */\n      iszero\n      tag_92\n      jumpi\n        /* \"#utility.yul\":282:361   */\n      tag_93\n      tag_94\n      jump\t// in\n    tag_93:\n        /* \"#utility.yul\":251:363   */\n    tag_92:\n        /* \"#utility.yul\":372:413   */\n      tag_95\n        /* \"#utility.yul\":406:412   */\n      dup5\n        /* \"#utility.yul\":401:404   */\n      dup3\n        /* \"#utility.yul\":396:399   */\n      dup6\n        /* \"#utility.yul\":372:413   */\n      tag_96\n      jump\t// in\n    tag_95:\n        /* \"#utility.yul\":91:419   */\n      pop\n        /* \"#utility.yul\":7:419   */\n      swap4\n      swap3\n      pop\n      pop\n      pop\n      jump\t// out\n        /* \"#utility.yul\":425:564   */\n    tag_97:\n        /* \"#utility.yul\":471:476   */\n      0x00\n        /* \"#utility.yul\":509:515   */\n      dup2\n        /* \"#utility.yul\":496:516   */\n      calldataload\n        /* \"#utility.yul\":487:516   */\n      swap1\n      pop\n        /* \"#utility.yul\":525:558   */\n      tag_99\n        /* \"#utility.yul\":552:557   */\n      dup2\n        /* \"#utility.yul\":525:558   */\n      tag_100\n      jump\t// in\n    tag_99:\n        /* \"#utility.yul\":425:564   */\n      swap3\n      swap2\n      pop\n      pop\n      jump\t// out\n        /* \"#utility.yul\":584:924   */\n    tag_101:\n        /* \"#utility.yul\":640:645   */\n      0x00\n        /* \"#utility.yul\":689:692   */\n      dup3\n        /* \"#utility.yul\":682:686   */\n      0x1f\n        /* \"#utility.yul\":674:680   */\n      dup4\n        /* \"#utility.yul\":670:687   */\n      add\n        /* \"#utility.yul\":666:693   */\n      slt\n        /* \"#utility.yul\":656:778   */\n      tag_103\n      jumpi\n        /* \"#utility.yul\":697:776   */\n      tag_104\n      tag_105\n      jump\t// in\n    tag_104:\n        /* \"#utility.yul\":656:778   */\n    tag_103:\n        /* \"#utility.yul\":814:820   */\n      dup2\n        /* \"#utility.yul\":801:821   */\n      calldataload\n        /* \"#utility.yul\":839:918   */\n      tag_106\n        /* \"#utility.yul\":914:917   */\n      dup5\n        /* \"#utility.yul\":906:912   */\n      dup3\n        /* \"#utility.yul\":899:903   */\n      0x20\n        /* \"#utility.yul\":891:897   */\n      dup7\n        /* \"#utility.yul\":887:904   */\n      add\n        /* \"#utility.yul\":839:918   */\n      tag_86\n      jump\t// in\n    tag_106:\n        /* \"#utility.yul\":830:918   */\n      swap2\n      pop\n        /* \"#utility.yul\":646:924   */\n      pop\n        /* \"#utility.yul\":584:924   */\n      swap3\n      swap2\n      pop\n      pop\n      jump\t// out\n        /* \"#utility.yul\":930:1069   */\n    tag_107:\n        /* \"#utility.yul\":976:981   */\n      0x00\n        /* \"#utility.yul\":1014:1020   */\n      dup2\n        /* \"#utility.yul\":1001:1021   */\n      calldataload\n        /* \"#utility.yul\":992:1021   */\n      swap1\n      pop\n        /* \"#utility.yul\":1030:1063   */\n      tag_109\n        /* \"#utility.yul\":1057:1062   */\n      dup2\n        /* \"#utility.yul\":1030:1063   */\n      tag_110\n      jump\t// in\n    tag_109:\n        /* \"#utility.yul\":930:1069   */\n      swap3\n      swap2\n      pop\n      pop\n      jump\t// out\n        /* \"#utility.yul\":1075:1404   */\n    tag_19:\n        /* \"#utility.yul\":1134:1140   */\n      0x00\n        /* \"#utility.yul\":1183:1185   */\n      0x20\n        /* \"#utility.yul\":1171:1180   */\n      dup3\n        /* \"#utility.yul\":1162:1169   */\n      dup5\n        /* \"#utility.yul\":1158:1181   */\n      sub\n        /* \"#utility.yul\":1154:1186   */\n      slt\n        /* \"#utility.yul\":1151:1270   */\n      iszero\n      tag_112\n      jumpi\n        /* \"#utility.yul\":1189:1268   */\n      tag_113\n      tag_114\n      jump\t// in\n    tag_113:\n        /* \"#utility.yul\":1151:1270   */\n    tag_112:\n        /* \"#utility.yul\":1309:1310   */\n      0x00\n        /* \"#utility.yul\":1334:1387   */\n      tag_115\n        /* \"#utility.yul\":1379:1386   */\n      dup5\n        /* \"#utility.yul\":1370:1376   */\n      dup3\n        /* \"#utility.yul\":1359:1368   */\n      dup6\n        /* \"#utility.yul\":1355:1377   */\n      add\n        /* \"#utility.yul\":1334:1387   */\n      tag_97\n      jump\t// in\n    tag_115:\n        /* \"#utility.yul\":1324:1387   */\n      swap2\n      pop\n        /* \"#utility.yul\":1280:1397   */\n      pop\n        /* \"#utility.yul\":1075:1404   */\n      swap3\n      swap2\n      pop\n      pop\n      jump\t// out\n        /* \"#utility.yul\":1410:2064   */\n    tag_9:\n        /* \"#utility.yul\":1488:1494   */\n      0x00\n        /* \"#utility.yul\":1496:1502   */\n      dup1\n        /* \"#utility.yul\":1545:1547   */\n      0x40\n        /* \"#utility.yul\":1533:1542   */\n      dup4\n        /* \"#utility.yul\":1524:1531   */\n      dup6\n        /* \"#utility.yul\":1520:1543   */\n      sub\n        /* \"#utility.yul\":1516:1548   */\n      slt\n        /* \"#utility.yul\":1513:1632   */\n      iszero\n      tag_117\n      jumpi\n        /* \"#utility.yul\":1551:1630   */\n      tag_118\n      tag_114\n      jump\t// in\n    tag_118:\n        /* \"#utility.yul\":1513:1632   */\n    tag_117:\n        /* \"#utility.yul\":1671:1672   */\n      0x00\n        /* \"#utility.yul\":1696:1749   */\n      tag_119\n        /* \"#utility.yul\":1741:1748   */\n      dup6\n        /* \"#utility.yul\":1732:1738   */\n      dup3\n        /* \"#utility.yul\":1721:1730   */\n      dup7\n        /* \"#utility.yul\":1717:1739   */\n      add\n        /* \"#utility.yul\":1696:1749   */\n      tag_97\n      jump\t// in\n    tag_119:\n        /* \"#utility.yul\":1686:1749   */\n      swap3\n      pop\n        /* \"#utility.yul\":1642:1759   */\n      pop\n        /* \"#utility.yul\":1826:1828   */\n      0x20\n        /* \"#utility.yul\":1815:1824   */\n      dup4\n        /* \"#utility.yul\":1811:1829   */\n      add\n        /* \"#utility.yul\":1798:1830   */\n      calldataload\n        /* \"#utility.yul\":1857:1875   */\n      0xffffffffffffffff\n        /* \"#utility.yul\":1849:1855   */\n      dup2\n        /* \"#utility.yul\":1846:1876   */\n      gt\n        /* \"#utility.yul\":1843:1960   */\n      iszero\n      tag_120\n      jumpi\n        /* \"#utility.yul\":1879:1958   */\n      tag_121\n      tag_122\n      jump\t// in\n    tag_121:\n        /* \"#utility.yul\":1843:1960   */\n    tag_120:\n        /* \"#utility.yul\":1984:2047   */\n      tag_123\n        /* \"#utility.yul\":2039:2046   */\n      dup6\n        /* \"#utility.yul\":2030:2036   */\n      dup3\n        /* \"#utility.yul\":2019:2028   */\n      dup7\n        /* \"#utility.yul\":2015:2037   */\n      add\n        /* \"#utility.yul\":1984:2047   */\n      tag_101\n      jump\t// in\n    tag_123:\n        /* \"#utility.yul\":1974:2047   */\n      swap2\n      pop\n        /* \"#utility.yul\":1769:2057   */\n      pop\n        /* \"#utility.yul\":1410:2064   */\n      swap3\n      pop\n      swap3\n      swap1\n      pop\n      jump\t// out\n        /* \"#utility.yul\":2070:2399   */\n    tag_13:\n        /* \"#utility.yul\":2129:2135   */\n      0x00\n        /* \"#utility.yul\":2178:2180   */\n      0x20\n        /* \"#utility.yul\":2166:2175   */\n      dup3\n        /* \"#utility.yul\":2157:2164   */\n      dup5\n        /* \"#utility.yul\":2153:2176   */\n      sub\n        /* \"#utility.yul\":2149:2181   */\n      slt\n        /* \"#utility.yul\":2146:2265   */\n      iszero\n      tag_125\n      jumpi\n        /* \"#utility.yul\":2184:2263   */\n      tag_126\n      tag_114\n      jump\t// in\n    tag_126:\n        /* \"#utility.yul\":2146:2265   */\n    tag_125:\n        /* \"#utility.yul\":2304:2305   */\n      0x00\n        /* \"#utility.yul\":2329:2382   */\n      tag_127\n        /* \"#utility.yul\":2374:2381   */\n      dup5\n        /* \"#utility.yul\":2365:2371   */\n      dup3\n        /* \"#utility.yul\":2354:2363   */\n      dup6\n        /* \"#utility.yul\":2350:2372   */\n      add\n        /* \"#utility.yul\":2329:2382   */\n      tag_107\n      jump\t// in\n    tag_127:\n        /* \"#utility.yul\":2319:2382   */\n      swap2\n      pop\n        /* \"#utility.yul\":2275:2392   */\n      pop\n        /* \"#utility.yul\":2070:2399   */\n      swap3\n      swap2\n      pop\n      pop\n      jump\t// out\n        /* \"#utility.yul\":2405:2547   */\n    tag_128:\n        /* \"#utility.yul\":2508:2540   */\n      tag_130\n        /* \"#utility.yul\":2534:2539   */\n      dup2\n        /* \"#utility.yul\":2508:2540   */\n      tag_131\n      jump\t// in\n    tag_130:\n        /* \"#utility.yul\":2503:2506   */\n      dup3\n        /* \"#utility.yul\":2496:2541   */\n      mstore\n        /* \"#utility.yul\":2405:2547   */\n      pop\n      pop\n      jump\t// out\n        /* \"#utility.yul\":2553:2671   */\n    tag_132:\n        /* \"#utility.yul\":2640:2664   */\n      tag_134\n        /* \"#utility.yul\":2658:2663   */\n      dup2\n        /* \"#utility.yul\":2640:2664   */\n      tag_135\n      jump\t// in\n    tag_134:\n        /* \"#utility.yul\":2635:2638   */\n      dup3\n        /* \"#utility.yul\":2628:2665   */\n      mstore\n        /* \"#utility.yul\":2553:2671   */\n      pop\n      pop\n      jump\t// out\n        /* \"#utility.yul\":2677:2786   */\n    tag_136:\n        /* \"#utility.yul\":2758:2779   */\n      tag_138\n        /* \"#utility.yul\":2773:2778   */\n      dup2\n        /* \"#utility.yul\":2758:2779   */\n      tag_139\n      jump\t// in\n    tag_138:\n        /* \"#utility.yul\":2753:2756   */\n      dup3\n        /* \"#utility.yul\":2746:2780   */\n      mstore\n        /* \"#utility.yul\":2677:2786   */\n      pop\n      pop\n      jump\t// out\n        /* \"#utility.yul\":2792:3156   */\n    tag_140:\n        /* \"#utility.yul\":2880:2883   */\n      0x00\n        /* \"#utility.yul\":2908:2947   */\n      tag_142\n        /* \"#utility.yul\":2941:2946   */\n      dup3\n        /* \"#utility.yul\":2908:2947   */\n      tag_143\n      jump\t// in\n    tag_142:\n        /* \"#utility.yul\":2963:3034   */\n      tag_144\n        /* \"#utility.yul\":3027:3033   */\n      dup2\n        /* \"#utility.yul\":3022:3025   */\n      dup6\n        /* \"#utility.yul\":2963:3034   */\n      tag_145\n      jump\t// in\n    tag_144:\n        /* \"#utility.yul\":2956:3034   */\n      swap4\n      pop\n        /* \"#utility.yul\":3043:3095   */\n      tag_146\n        /* \"#utility.yul\":3088:3094   */\n      dup2\n        /* \"#utility.yul\":3083:3086   */\n      dup6\n        /* \"#utility.yul\":3076:3080   */\n      0x20\n        /* \"#utility.yul\":3069:3074   */\n      dup7\n        /* \"#utility.yul\":3065:3081   */\n      add\n        /* \"#utility.yul\":3043:3095   */\n      tag_147\n      jump\t// in\n    tag_146:\n        /* \"#utility.yul\":3120:3149   */\n      tag_148\n        /* \"#utility.yul\":3142:3148   */\n      dup2\n        /* \"#utility.yul\":3120:3149   */\n      tag_149\n      jump\t// in\n    tag_148:\n        /* \"#utility.yul\":3115:3118   */\n      dup5\n        /* \"#utility.yul\":3111:3150   */\n      add\n        /* \"#utility.yul\":3104:3150   */\n      swap2\n      pop\n        /* \"#utility.yul\":2884:3156   */\n      pop\n        /* \"#utility.yul\":2792:3156   */\n      swap3\n      swap2\n      pop\n      pop\n      jump\t// out\n        /* \"#utility.yul\":3162:3528   */\n    tag_150:\n        /* \"#utility.yul\":3304:3307   */\n      0x00\n        /* \"#utility.yul\":3325:3392   */\n      tag_152\n        /* \"#utility.yul\":3389:3391   */\n      0x16\n        /* \"#utility.yul\":3384:3387   */\n      dup4\n        /* \"#utility.yul\":3325:3392   */\n      tag_145\n      jump\t// in\n    tag_152:\n        /* \"#utility.yul\":3318:3392   */\n      swap2\n      pop\n        /* \"#utility.yul\":3401:3494   */\n      tag_153\n        /* \"#utility.yul\":3490:3493   */\n      dup3\n        /* \"#utility.yul\":3401:3494   */\n      tag_154\n      jump\t// in\n    tag_153:\n        /* \"#utility.yul\":3519:3521   */\n      0x20\n        /* \"#utility.yul\":3514:3517   */\n      dup3\n        /* \"#utility.yul\":3510:3522   */\n      add\n        /* \"#utility.yul\":3503:3522   */\n      swap1\n      pop\n        /* \"#utility.yul\":3162:3528   */\n      swap2\n      swap1\n      pop\n      jump\t// out\n        /* \"#utility.yul\":3534:3900   */\n    tag_155:\n        /* \"#utility.yul\":3676:3679   */\n      0x00\n        /* \"#utility.yul\":3697:3764   */\n      tag_157\n        /* \"#utility.yul\":3761:3763   */\n      0x12\n        /* \"#utility.yul\":3756:3759   */\n      dup4\n        /* \"#utility.yul\":3697:3764   */\n      tag_145\n      jump\t// in\n    tag_157:\n        /* \"#utility.yul\":3690:3764   */\n      swap2\n      pop\n        /* \"#utility.yul\":3773:3866   */\n      tag_158\n        /* \"#utility.yul\":3862:3865   */\n      dup3\n        /* \"#utility.yul\":3773:3866   */\n      tag_159\n      jump\t// in\n    tag_158:\n        /* \"#utility.yul\":3891:3893   */\n      0x20\n        /* \"#utility.yul\":3886:3889   */\n      dup3\n        /* \"#utility.yul\":3882:3894   */\n      add\n        /* \"#utility.yul\":3875:3894   */\n      swap1\n      pop\n        /* \"#utility.yul\":3534:3900   */\n      swap2\n      swap1\n      pop\n      jump\t// out\n        /* \"#utility.yul\":3906:4024   */\n    tag_160:\n        /* \"#utility.yul\":3993:4017   */\n      tag_162\n        /* \"#utility.yul\":4011:4016   */\n      dup2\n        /* \"#utility.yul\":3993:4017   */\n      tag_163\n      jump\t// in\n    tag_162:\n        /* \"#utility.yul\":3988:3991   */\n      dup3\n        /* \"#utility.yul\":3981:4018   */\n      mstore\n        /* \"#utility.yul\":3906:4024   */\n      pop\n      pop\n      jump\t// out\n        /* \"#utility.yul\":4030:4252   */\n    tag_25:\n        /* \"#utility.yul\":4123:4127   */\n      0x00\n        /* \"#utility.yul\":4161:4163   */\n      0x20\n        /* \"#utility.yul\":4150:4159   */\n      dup3\n        /* \"#utility.yul\":4146:4164   */\n      add\n        /* \"#utility.yul\":4138:4164   */\n      swap1\n      pop\n        /* \"#utility.yul\":4174:4245   */\n      tag_165\n        /* \"#utility.yul\":4242:4243   */\n      0x00\n        /* \"#utility.yul\":4231:4240   */\n      dup4\n        /* \"#utility.yul\":4227:4244   */\n      add\n        /* \"#utility.yul\":4218:4224   */\n      dup5\n        /* \"#utility.yul\":4174:4245   */\n      tag_132\n      jump\t// in\n    tag_165:\n        /* \"#utility.yul\":4030:4252   */\n      swap3\n      swap2\n      pop\n      pop\n      jump\t// out\n        /* \"#utility.yul\":4258:5124   */\n    tag_16:\n        /* \"#utility.yul\":4513:4517   */\n      0x00\n        /* \"#utility.yul\":4551:4554   */\n      0xa0\n        /* \"#utility.yul\":4540:4549   */\n      dup3\n        /* \"#utility.yul\":4536:4555   */\n      add\n        /* \"#utility.yul\":4528:4555   */\n      swap1\n      pop\n        /* \"#utility.yul\":4601:4610   */\n      dup2\n        /* \"#utility.yul\":4595:4599   */\n      dup2\n        /* \"#utility.yul\":4591:4611   */\n      sub\n        /* \"#utility.yul\":4587:4588   */\n      0x00\n        /* \"#utility.yul\":4576:4585   */\n      dup4\n        /* \"#utility.yul\":4572:4589   */\n      add\n        /* \"#utility.yul\":4565:4612   */\n      mstore\n        /* \"#utility.yul\":4629:4707   */\n      tag_167\n        /* \"#utility.yul\":4702:4706   */\n      dup2\n        /* \"#utility.yul\":4693:4699   */\n      dup9\n        /* \"#utility.yul\":4629:4707   */\n      tag_140\n      jump\t// in\n    tag_167:\n        /* \"#utility.yul\":4621:4707   */\n      swap1\n      pop\n        /* \"#utility.yul\":4754:4763   */\n      dup2\n        /* \"#utility.yul\":4748:4752   */\n      dup2\n        /* \"#utility.yul\":4744:4764   */\n      sub\n        /* \"#utility.yul\":4739:4741   */\n      0x20\n        /* \"#utility.yul\":4728:4737   */\n      dup4\n        /* \"#utility.yul\":4724:4742   */\n      add\n        /* \"#utility.yul\":4717:4765   */\n      mstore\n        /* \"#utility.yul\":4782:4860   */\n      tag_168\n        /* \"#utility.yul\":4855:4859   */\n      dup2\n        /* \"#utility.yul\":4846:4852   */\n      dup8\n        /* \"#utility.yul\":4782:4860   */\n      tag_140\n      jump\t// in\n    tag_168:\n        /* \"#utility.yul\":4774:4860   */\n      swap1\n      pop\n        /* \"#utility.yul\":4870:4942   */\n      tag_169\n        /* \"#utility.yul\":4938:4940   */\n      0x40\n        /* \"#utility.yul\":4927:4936   */\n      dup4\n        /* \"#utility.yul\":4923:4941   */\n      add\n        /* \"#utility.yul\":4914:4920   */\n      dup7\n        /* \"#utility.yul\":4870:4942   */\n      tag_160\n      jump\t// in\n    tag_169:\n        /* \"#utility.yul\":4952:5040   */\n      tag_170\n        /* \"#utility.yul\":5036:5038   */\n      0x60\n        /* \"#utility.yul\":5025:5034   */\n      dup4\n        /* \"#utility.yul\":5021:5039   */\n      add\n        /* \"#utility.yul\":5012:5018   */\n      dup6\n        /* \"#utility.yul\":4952:5040   */\n      tag_128\n      jump\t// in\n    tag_170:\n        /* \"#utility.yul\":5050:5117   */\n      tag_171\n        /* \"#utility.yul\":5112:5115   */\n      0x80\n        /* \"#utility.yul\":5101:5110   */\n      dup4\n        /* \"#utility.yul\":5097:5116   */\n      add\n        /* \"#utility.yul\":5088:5094   */\n      dup5\n        /* \"#utility.yul\":5050:5117   */\n      tag_136\n      jump\t// in\n    tag_171:\n        /* \"#utility.yul\":4258:5124   */\n      swap7\n      swap6\n      pop\n      pop\n      pop\n      pop\n      pop\n      pop\n      jump\t// out\n        /* \"#utility.yul\":5130:5549   */\n    tag_29:\n        /* \"#utility.yul\":5296:5300   */\n      0x00\n        /* \"#utility.yul\":5334:5336   */\n      0x20\n        /* \"#utility.yul\":5323:5332   */\n      dup3\n        /* \"#utility.yul\":5319:5337   */\n      add\n        /* \"#utility.yul\":5311:5337   */\n      swap1\n      pop\n        /* \"#utility.yul\":5383:5392   */\n      dup2\n        /* \"#utility.yul\":5377:5381   */\n      dup2\n        /* \"#utility.yul\":5373:5393   */\n      sub\n        /* \"#utility.yul\":5369:5370   */\n      0x00\n        /* \"#utility.yul\":5358:5367   */\n      dup4\n        /* \"#utility.yul\":5354:5371   */\n      add\n        /* \"#utility.yul\":5347:5394   */\n      mstore\n        /* \"#utility.yul\":5411:5542   */\n      tag_173\n        /* \"#utility.yul\":5537:5541   */\n      dup2\n        /* \"#utility.yul\":5411:5542   */\n      tag_150\n      jump\t// in\n    tag_173:\n        /* \"#utility.yul\":5403:5542   */\n      swap1\n      pop\n        /* \"#utility.yul\":5130:5549   */\n      swap2\n      swap1\n      pop\n      jump\t// out\n        /* \"#utility.yul\":5555:5974   */\n    tag_49:\n        /* \"#utility.yul\":5721:5725   */\n      0x00\n        /* \"#utility.yul\":5759:5761   */\n      0x20\n        /* \"#utility.yul\":5748:5757   */\n      dup3\n        /* \"#utility.yul\":5744:5762   */\n      add\n        /* \"#utility.yul\":5736:5762   */\n      swap1\n      pop\n        /* \"#utility.yul\":5808:5817   */\n      dup2\n        /* \"#utility.yul\":5802:5806   */\n      dup2\n        /* \"#utility.yul\":5798:5818   */\n      sub\n        /* \"#utility.yul\":5794:5795   */\n      0x00\n        /* \"#utility.yul\":5783:5792   */\n      dup4\n        /* \"#utility.yul\":5779:5796   */\n      add\n        /* \"#utility.yul\":5772:5819   */\n      mstore\n        /* \"#utility.yul\":5836:5967   */\n      tag_175\n        /* \"#utility.yul\":5962:5966   */\n      dup2\n        /* \"#utility.yul\":5836:5967   */\n      tag_155\n      jump\t// in\n    tag_175:\n        /* \"#utility.yul\":5828:5967   */\n      swap1\n      pop\n        /* \"#utility.yul\":5555:5974   */\n      swap2\n      swap1\n      pop\n      jump\t// out\n        /* \"#utility.yul\":5980:6109   */\n    tag_91:\n        /* \"#utility.yul\":6014:6020   */\n      0x00\n        /* \"#utility.yul\":6041:6061   */\n      tag_177\n      tag_178\n      jump\t// in\n    tag_177:\n        /* \"#utility.yul\":6031:6061   */\n      swap1\n      pop\n        /* \"#utility.yul\":6070:6103   */\n      tag_179\n        /* \"#utility.yul\":6098:6102   */\n      dup3\n        /* \"#utility.yul\":6090:6096   */\n      dup3\n        /* \"#utility.yul\":6070:6103   */\n      tag_180\n      jump\t// in\n    tag_179:\n        /* \"#utility.yul\":5980:6109   */\n      swap2\n      swap1\n      pop\n      jump\t// out\n        /* \"#utility.yul\":6115:6190   */\n    tag_178:\n        /* \"#utility.yul\":6148:6154   */\n      0x00\n        /* \"#utility.yul\":6181:6183   */\n      0x40\n        /* \"#utility.yul\":6175:6184   */\n      mload\n        /* \"#utility.yul\":6165:6184   */\n      swap1\n      pop\n        /* \"#utility.yul\":6115:6190   */\n      swap1\n      jump\t// out\n        /* \"#utility.yul\":6196:6504   */\n    tag_90:\n        /* \"#utility.yul\":6258:6262   */\n      0x00\n        /* \"#utility.yul\":6348:6366   */\n      0xffffffffffffffff\n        /* \"#utility.yul\":6340:6346   */\n      dup3\n        /* \"#utility.yul\":6337:6367   */\n      gt\n        /* \"#utility.yul\":6334:6390   */\n      iszero\n      tag_183\n      jumpi\n        /* \"#utility.yul\":6370:6388   */\n      tag_184\n      tag_185\n      jump\t// in\n    tag_184:\n        /* \"#utility.yul\":6334:6390   */\n    tag_183:\n        /* \"#utility.yul\":6408:6437   */\n      tag_186\n        /* \"#utility.yul\":6430:6436   */\n      dup3\n        /* \"#utility.yul\":6408:6437   */\n      tag_149\n      jump\t// in\n    tag_186:\n        /* \"#utility.yul\":6400:6437   */\n      swap1\n      pop\n        /* \"#utility.yul\":6492:6496   */\n      0x20\n        /* \"#utility.yul\":6486:6490   */\n      dup2\n        /* \"#utility.yul\":6482:6497   */\n      add\n        /* \"#utility.yul\":6474:6497   */\n      swap1\n      pop\n        /* \"#utility.yul\":6196:6504   */\n      swap2\n      swap1\n      pop\n      jump\t// out\n        /* \"#utility.yul\":6510:6609   */\n    tag_143:\n        /* \"#utility.yul\":6562:6568   */\n      0x00\n        /* \"#utility.yul\":6596:6601   */\n      dup2\n        /* \"#utility.yul\":6590:6602   */\n      mload\n        /* \"#utility.yul\":6580:6602   */\n      swap1\n      pop\n        /* \"#utility.yul\":6510:6609   */\n      swap2\n      swap1\n      pop\n      jump\t// out\n        /* \"#utility.yul\":6615:6784   */\n    tag_145:\n        /* \"#utility.yul\":6699:6710   */\n      0x00\n        /* \"#utility.yul\":6733:6739   */\n      dup3\n        /* \"#utility.yul\":6728:6731   */\n      dup3\n        /* \"#utility.yul\":6721:6740   */\n      mstore\n        /* \"#utility.yul\":6773:6777   */\n      0x20\n        /* \"#utility.yul\":6768:6771   */\n      dup3\n        /* \"#utility.yul\":6764:6778   */\n      add\n        /* \"#utility.yul\":6749:6778   */\n      swap1\n      pop\n        /* \"#utility.yul\":6615:6784   */\n      swap3\n      swap2\n      pop\n      pop\n      jump\t// out\n        /* \"#utility.yul\":6790:7095   */\n    tag_46:\n        /* \"#utility.yul\":6830:6833   */\n      0x00\n        /* \"#utility.yul\":6849:6869   */\n      tag_190\n        /* \"#utility.yul\":6867:6868   */\n      dup3\n        /* \"#utility.yul\":6849:6869   */\n      tag_163\n      jump\t// in\n    tag_190:\n        /* \"#utility.yul\":6844:6869   */\n      swap2\n      pop\n        /* \"#utility.yul\":6883:6903   */\n      tag_191\n        /* \"#utility.yul\":6901:6902   */\n      dup4\n        /* \"#utility.yul\":6883:6903   */\n      tag_163\n      jump\t// in\n    tag_191:\n        /* \"#utility.yul\":6878:6903   */\n      swap3\n      pop\n        /* \"#utility.yul\":7037:7038   */\n      dup3\n        /* \"#utility.yul\":6969:7035   */\n      0xffffffffffffffffffffffffffffffffffffffffffffffffffffffffffffffff\n        /* \"#utility.yul\":6965:7039   */\n      sub\n        /* \"#utility.yul\":6962:6963   */\n      dup3\n        /* \"#utility.yul\":6959:7040   */\n      gt\n        /* \"#utility.yul\":6956:7063   */\n      iszero\n      tag_192\n      jumpi\n        /* \"#utility.yul\":7043:7061   */\n      tag_193\n      tag_194\n      jump\t// in\n    tag_193:\n        /* \"#utility.yul\":6956:7063   */\n    tag_192:\n        /* \"#utility.yul\":7087:7088   */\n      dup3\n        /* \"#utility.yul\":7084:7085   */\n      dup3\n        /* \"#utility.yul\":7080:7089   */\n      add\n        /* \"#utility.yul\":7073:7089   */\n      swap1\n      pop\n        /* \"#utility.yul\":6790:7095   */\n      swap3\n      swap2\n      pop\n      pop\n      jump\t// out\n        /* \"#utility.yul\":7101:7197   */\n    tag_135:\n        /* \"#utility.yul\":7138:7145   */\n      0x00\n        /* \"#utility.yul\":7167:7191   */\n      tag_196\n        /* \"#utility.yul\":7185:7190   */\n      dup3\n        /* \"#utility.yul\":7167:7191   */\n      tag_197\n      jump\t// in\n    tag_196:\n        /* \"#utility.yul\":7156:7191   */\n      swap1\n      pop\n        /* \"#utility.yul\":7101:7197   */\n      swap2\n      swap1\n      pop\n      jump\t// out\n        /* \"#utility.yul\":7203:7307   */\n    tag_131:\n        /* \"#utility.yul\":7248:7255   */\n      0x00\n        /* \"#utility.yul\":7277:7301   */\n      tag_199\n        /* \"#utility.yul\":7295:7300   */\n      dup3\n        /* \"#utility.yul\":7277:7301   */\n      tag_197\n      jump\t// in\n    tag_199:\n        /* \"#utility.yul\":7266:7301   */\n      swap1\n      pop\n        /* \"#utility.yul\":7203:7307   */\n      swap2\n      swap1\n      pop\n      jump\t// out\n        /* \"#utility.yul\":7313:7403   */\n    tag_139:\n        /* \"#utility.yul\":7347:7354   */\n      0x00\n        /* \"#utility.yul\":7390:7395   */\n      dup2\n        /* \"#utility.yul\":7383:7396   */\n      iszero\n        /* \"#utility.yul\":7376:7397   */\n      iszero\n        /* \"#utility.yul\":7365:7397   */\n      swap1\n      pop\n        /* \"#utility.yul\":7313:7403   */\n      swap2\n      swap1\n      pop\n      jump\t// out\n        /* \"#utility.yul\":7409:7535   */\n    tag_197:\n        /* \"#utility.yul\":7446:7453   */\n      0x00\n        /* \"#utility.yul\":7486:7528   */\n      0xffffffffffffffffffffffffffffffffffffffff\n        /* \"#utility.yul\":7479:7484   */\n      dup3\n        /* \"#utility.yul\":7475:7529   */\n      and\n        /* \"#utility.yul\":7464:7529   */\n      swap1\n      pop\n        /* \"#utility.yul\":7409:7535   */\n      swap2\n      swap1\n      pop\n      jump\t// out\n        /* \"#utility.yul\":7541:7618   */\n    tag_163:\n        /* \"#utility.yul\":7578:7585   */\n      0x00\n        /* \"#utility.yul\":7607:7612   */\n      dup2\n        /* \"#utility.yul\":7596:7612   */\n      swap1\n      pop\n        /* \"#utility.yul\":7541:7618   */\n      swap2\n      swap1\n      pop\n      jump\t// out\n        /* \"#utility.yul\":7624:7778   */\n    tag_96:\n        /* \"#utility.yul\":7708:7714   */\n      dup3\n        /* \"#utility.yul\":7703:7706   */\n      dup2\n        /* \"#utility.yul\":7698:7701   */\n      dup4\n        /* \"#utility.yul\":7685:7715   */\n      calldatacopy\n        /* \"#utility.yul\":7770:7771   */\n      0x00\n        /* \"#utility.yul\":7761:7767   */\n      dup4\n        /* \"#utility.yul\":7756:7759   */\n      dup4\n        /* \"#utility.yul\":7752:7768   */\n      add\n        /* \"#utility.yul\":7745:7772   */\n      mstore\n        /* \"#utility.yul\":7624:7778   */\n      pop\n      pop\n      pop\n      jump\t// out\n        /* \"#utility.yul\":7784:8091   */\n    tag_147:\n        /* \"#utility.yul\":7852:7853   */\n      0x00\n        /* \"#utility.yul\":7862:7975   */\n    tag_205:\n        /* \"#utility.yul\":7876:7882   */\n      dup4\n        /* \"#utility.yul\":7873:7874   */\n      dup2\n        /* \"#utility.yul\":7870:7883   */\n      lt\n        /* \"#utility.yul\":7862:7975   */\n      iszero\n      tag_207\n      jumpi\n        /* \"#utility.yul\":7961:7962   */\n      dup1\n        /* \"#utility.yul\":7956:7959   */\n      dup3\n        /* \"#utility.yul\":7952:7963   */\n      add\n        /* \"#utility.yul\":7946:7964   */\n      mload\n        /* \"#utility.yul\":7942:7943   */\n      dup2\n        /* \"#utility.yul\":7937:7940   */\n      dup5\n        /* \"#utility.yul\":7933:7944   */\n      add\n        /* \"#utility.yul\":7926:7965   */\n      mstore\n        /* \"#utility.yul\":7898:7900   */\n      0x20\n        /* \"#utility.yul\":7895:7896   */\n      dup2\n        /* \"#utility.yul\":7891:7901   */\n      add\n        /* \"#utility.yul\":7886:7901   */\n      swap1\n      pop\n        /* \"#utility.yul\":7862:7975   */\n      jump(tag_205)\n    tag_207:\n        /* \"#utility.yul\":7993:7999   */\n      dup4\n        /* \"#utility.yul\":7990:7991   */\n      dup2\n        /* \"#utility.yul\":7987:8000   */\n      gt\n        /* \"#utility.yul\":7984:8085   */\n      iszero\n      tag_208\n      jumpi\n        /* \"#utility.yul\":8073:8074   */\n      0x00\n        /* \"#utility.yul\":8064:8070   */\n      dup5\n        /* \"#utility.yul\":8059:8062   */\n      dup5\n        /* \"#utility.yul\":8055:8071   */\n      add\n        /* \"#utility.yul\":8048:8075   */\n      mstore\n        /* \"#utility.yul\":7984:8085   */\n    tag_208:\n        /* \"#utility.yul\":7833:8091   */\n      pop\n        /* \"#utility.yul\":7784:8091   */\n      pop\n      pop\n      pop\n      jump\t// out\n        /* \"#utility.yul\":8097:8417   */\n    tag_55:\n        /* \"#utility.yul\":8141:8147   */\n      0x00\n        /* \"#utility.yul\":8178:8179   */\n      0x02\n        /* \"#utility.yul\":8172:8176   */\n      dup3\n        /* \"#utility.yul\":8168:8180   */\n      div\n        /* \"#utility.yul\":8158:8180   */\n      swap1\n      pop\n        /* \"#utility.yul\":8225:8226   */\n      0x01\n        /* \"#utility.yul\":8219:8223   */\n      dup3\n        /* \"#utility.yul\":8215:8227   */\n      and\n        /* \"#utility.yul\":8246:8264   */\n      dup1\n        /* \"#utility.yul\":8236:8317   */\n      tag_210\n      jumpi\n        /* \"#utility.yul\":8302:8306   */\n      0x7f\n        /* \"#utility.yul\":8294:8300   */\n      dup3\n        /* \"#utility.yul\":8290:8307   */\n      and\n        /* \"#utility.yul\":8280:8307   */\n      swap2\n      pop\n        /* \"#utility.yul\":8236:8317   */\n    tag_210:\n        /* \"#utility.yul\":8364:8366   */\n      0x20\n        /* \"#utility.yul\":8356:8362   */\n      dup3\n        /* \"#utility.yul\":8353:8367   */\n      lt\n        /* \"#utility.yul\":8333:8351   */\n      dup2\n        /* \"#utility.yul\":8330:8368   */\n      eq\n        /* \"#utility.yul\":8327:8411   */\n      iszero\n      tag_211\n      jumpi\n        /* \"#utility.yul\":8383:8401   */\n      tag_212\n      tag_213\n      jump\t// in\n    tag_212:\n        /* \"#utility.yul\":8327:8411   */\n    tag_211:\n        /* \"#utility.yul\":8148:8417   */\n      pop\n        /* \"#utility.yul\":8097:8417   */\n      swap2\n      swap1\n      pop\n      jump\t// out\n        /* \"#utility.yul\":8423:8704   */\n    tag_180:\n        /* \"#utility.yul\":8506:8533   */\n      tag_215\n        /* \"#utility.yul\":8528:8532   */\n      dup3\n        /* \"#utility.yul\":8506:8533   */\n      tag_149\n      jump\t// in\n    tag_215:\n        /* \"#utility.yul\":8498:8504   */\n      dup2\n        /* \"#utility.yul\":8494:8534   */\n      add\n        /* \"#utility.yul\":8636:8642   */\n      dup2\n        /* \"#utility.yul\":8624:8634   */\n      dup2\n        /* \"#utility.yul\":8621:8643   */\n      lt\n        /* \"#utility.yul\":8600:8618   */\n      0xffffffffffffffff\n        /* \"#utility.yul\":8588:8598   */\n      dup3\n        /* \"#utility.yul\":8585:8619   */\n      gt\n        /* \"#utility.yul\":8582:8644   */\n      or\n        /* \"#utility.yul\":8579:8667   */\n      iszero\n      tag_216\n      jumpi\n        /* \"#utility.yul\":8647:8665   */\n      tag_217\n      tag_185\n      jump\t// in\n    tag_217:\n        /* \"#utility.yul\":8579:8667   */\n    tag_216:\n        /* \"#utility.yul\":8687:8697   */\n      dup1\n        /* \"#utility.yul\":8683:8685   */\n      0x40\n        /* \"#utility.yul\":8676:8698   */\n      mstore\n        /* \"#utility.yul\":8466:8704   */\n      pop\n        /* \"#utility.yul\":8423:8704   */\n      pop\n      pop\n      jump\t// out\n        /* \"#utility.yul\":8710:8943   */\n    tag_51:\n        /* \"#utility.yul\":8749:8752   */\n      0x00\n        /* \"#utility.yul\":8772:8796   */\n      tag_219\n        /* \"#utility.yul\":8790:8795   */\n      dup3\n        /* \"#utility.yul\":8772:8796   */\n      tag_163\n      jump\t// in\n    tag_219:\n        /* \"#utility.yul\":8763:8796   */\n      swap2\n      pop\n        /* \"#utility.yul\":8818:8884   */\n      0xffffffffffffffffffffffffffffffffffffffffffffffffffffffffffffffff\n        /* \"#utility.yul\":8811:8816   */\n      dup3\n        /* \"#utility.yul\":8808:8885   */\n      eq\n        /* \"#utility.yul\":8805:8908   */\n      iszero\n      tag_220\n      jumpi\n        /* \"#utility.yul\":8888:8906   */\n      tag_221\n      tag_194\n      jump\t// in\n    tag_221:\n        /* \"#utility.yul\":8805:8908   */\n    tag_220:\n        /* \"#utility.yul\":8935:8936   */\n      0x01\n        /* \"#utility.yul\":8928:8933   */\n      dup3\n        /* \"#utility.yul\":8924:8937   */\n      add\n        /* \"#utility.yul\":8917:8937   */\n      swap1\n      pop\n        /* \"#utility.yul\":8710:8943   */\n      swap2\n      swap1\n      pop\n      jump\t// out\n        /* \"#utility.yul\":8949:9129   */\n    tag_194:\n        /* \"#utility.yul\":8997:9074   */\n      0x4e487b7100000000000000000000000000000000000000000000000000000000\n        /* \"#utility.yul\":8994:8995   */\n      0x00\n        /* \"#utility.yul\":8987:9075   */\n      mstore\n        /* \"#utility.yul\":9094:9098   */\n      0x11\n        /* \"#utility.yul\":9091:9092   */\n      0x04\n        /* \"#utility.yul\":9084:9099   */\n      mstore\n        /* \"#utility.yul\":9118:9122   */\n      0x24\n        /* \"#utility.yul\":9115:9116   */\n      0x00\n        /* \"#utility.yul\":9108:9123   */\n      revert\n        /* \"#utility.yul\":9135:9315   */\n    tag_213:\n        /* \"#utility.yul\":9183:9260   */\n      0x4e487b7100000000000000000000000000000000000000000000000000000000\n        /* \"#utility.yul\":9180:9181   */\n      0x00\n        /* \"#utility.yul\":9173:9261   */\n      mstore\n        /* \"#utility.yul\":9280:9284   */\n      0x22\n        /* \"#utility.yul\":9277:9278   */\n      0x04\n        /* \"#utility.yul\":9270:9285   */\n      mstore\n        /* \"#utility.yul\":9304:9308   */\n      0x24\n        /* \"#utility.yul\":9301:9302   */\n      0x00\n        /* \"#utility.yul\":9294:9309   */\n      revert\n        /* \"#utility.yul\":9321:9501   */\n    tag_38:\n        /* \"#utility.yul\":9369:9446   */\n      0x4e487b7100000000000000000000000000000000000000000000000000000000\n        /* \"#utility.yul\":9366:9367   */\n      0x00\n        /* \"#utility.yul\":9359:9447   */\n      mstore\n        /* \"#utility.yul\":9466:9470   */\n      0x32\n        /* \"#utility.yul\":9463:9464   */\n      0x04\n        /* \"#utility.yul\":9456:9471   */\n      mstore\n        /* \"#utility.yul\":9490:9494   */\n      0x24\n        /* \"#utility.yul\":9487:9488   */\n      0x00\n        /* \"#utility.yul\":9480:9495   */\n      revert\n        /* \"#utility.yul\":9507:9687   */\n    tag_185:\n        /* \"#utility.yul\":9555:9632   */\n      0x4e487b7100000000000000000000000000000000000000000000000000000000\n        /* \"#utility.yul\":9552:9553   */\n      0x00\n        /* \"#utility.yul\":9545:9633   */\n      mstore\n        /* \"#utility.yul\":9652:9656   */\n      0x41\n        /* \"#utility.yul\":9649:9650   */\n      0x04\n        /* \"#utility.yul\":9642:9657   */\n      mstore\n        /* \"#utility.yul\":9676:9680   */\n      0x24\n        /* \"#utility.yul\":9673:9674   */\n      0x00\n        /* \"#utility.yul\":9666:9681   */\n      revert\n        /* \"#utility.yul\":9693:9810   */\n    tag_105:\n        /* \"#utility.yul\":9802:9803   */\n      0x00\n        /* \"#utility.yul\":9799:9800   */\n      dup1\n        /* \"#utility.yul\":9792:9804   */\n      revert\n        /* \"#utility.yul\":9816:9933   */\n    tag_94:\n        /* \"#utility.yul\":9925:9926   */\n      0x00\n        /* \"#utility.yul\":9922:9923   */\n      dup1\n        /* \"#utility.yul\":9915:9927   */\n      revert\n        /* \"#utility.yul\":9939:10056   */\n    tag_122:\n        /* \"#utility.yul\":10048:10049   */\n      0x00\n        /* \"#utility.yul\":10045:10046   */\n      dup1\n        /* \"#utility.yul\":10038:10050   */\n      revert\n        /* \"#utility.yul\":10062:10179   */\n    tag_114:\n        /* \"#utility.yul\":10171:10172   */\n      0x00\n        /* \"#utility.yul\":10168:10169   */\n      dup1\n        /* \"#utility.yul\":10161:10173   */\n      revert\n        /* \"#utility.yul\":10185:10287   */\n    tag_149:\n        /* \"#utility.yul\":10226:10232   */\n      0x00\n        /* \"#utility.yul\":10277:10279   */\n      0x1f\n        /* \"#utility.yul\":10273:10280   */\n      not\n        /* \"#utility.yul\":10268:10270   */\n      0x1f\n        /* \"#utility.yul\":10261:10266   */\n      dup4\n        /* \"#utility.yul\":10257:10271   */\n      add\n        /* \"#utility.yul\":10253:10281   */\n      and\n        /* \"#utility.yul\":10243:10281   */\n      swap1\n      pop\n        /* \"#utility.yul\":10185:10287   */\n      swap2\n      swap1\n      pop\n      jump\t// out\n        /* \"#utility.yul\":10293:10465   */\n    tag_154:\n        /* \"#utility.yul\":10433:10457   */\n      0x796f7520646f6e27742068617665207269676874732000000000000000000000\n        /* \"#utility.yul\":10429:10430   */\n      0x00\n        /* \"#utility.yul\":10421:10427   */\n      dup3\n        /* \"#utility.yul\":10417:10431   */\n      add\n        /* \"#utility.yul\":10410:10458   */\n      mstore\n        /* \"#utility.yul\":10293:10465   */\n      pop\n      jump\t// out\n        /* \"#utility.yul\":10471:10639   */\n    tag_159:\n        /* \"#utility.yul\":10611:10631   */\n      0x656d706c6f796565206e6f7420666f756e640000000000000000000000000000\n        /* \"#utility.yul\":10607:10608   */\n      0x00\n        /* \"#utility.yul\":10599:10605   */\n      dup3\n        /* \"#utility.yul\":10595:10609   */\n      add\n        /* \"#utility.yul\":10588:10632   */\n      mstore\n        /* \"#utility.yul\":10471:10639   */\n      pop\n      jump\t// out\n        /* \"#utility.yul\":10645:10767   */\n    tag_100:\n        /* \"#utility.yul\":10718:10742   */\n      tag_234\n        /* \"#utility.yul\":10736:10741   */\n      dup2\n        /* \"#utility.yul\":10718:10742   */\n      tag_135\n      jump\t// in\n    tag_234:\n        /* \"#utility.yul\":10711:10716   */\n      dup2\n        /* \"#utility.yul\":10708:10743   */\n      eq\n        /* \"#utility.yul\":10698:10761   */\n      tag_235\n      jumpi\n        /* \"#utility.yul\":10757:10758   */\n      0x00\n        /* \"#utility.yul\":10754:10755   */\n      dup1\n        /* \"#utility.yul\":10747:10759   */\n      revert\n        /* \"#utility.yul\":10698:10761   */\n    tag_235:\n        /* \"#utility.yul\":10645:10767   */\n      pop\n      jump\t// out\n        /* \"#utility.yul\":10773:10895   */\n    tag_110:\n        /* \"#utility.yul\":10846:10870   */\n      tag_237\n        /* \"#utility.yul\":10864:10869   */\n      dup2\n        /* \"#utility.yul\":10846:10870   */\n      tag_163\n      jump\t// in\n    tag_237:\n        /* \"#utility.yul\":10839:10844   */\n      dup2\n        /* \"#utility.yul\":10836:10871   */\n      eq\n        /* \"#utility.yul\":10826:10889   */\n      tag_238\n      jumpi\n        /* \"#utility.yul\":10885:10886   */\n      0x00\n        /* \"#utility.yul\":10882:10883   */\n      dup1\n        /* \"#utility.yul\":10875:10887   */\n      revert\n        /* \"#utility.yul\":10826:10889   */\n    tag_238:\n        /* \"#utility.yul\":10773:10895   */\n      pop\n      jump\t// out\n\n    auxdata: 0xa264697066735822122067605eacb74e944cf3c3a13de43f43d918cf53801b29f6dabb6484f82f505acc64736f6c63430008070033\n}\n",
				"bytecode": {
					"linkReferences": {},
					"object": "608060405266470de4df820000600155666a94d74f43000060025534801561002657600080fd5b50336000806101000a81548173ffffffffffffffffffffffffffffffffffffffff021916908373ffffffffffffffffffffffffffffffffffffffff160217905550610d39806100766000396000f3fe608060405234801561001057600080fd5b506004361061004c5760003560e01c80633d24cc4514610051578063b58f421c1461006d578063d17106b7146100a1578063f851a440146100d5575b600080fd5b61006b60048036038101906100669190610792565b6100f3565b005b610087600480360381019061008291906107ee565b61030e565b6040516100989594939291906108f1565b60405180910390f35b6100bb60048036038101906100b69190610765565b610491565b6040516100cc9594939291906108f1565b60405180910390f35b6100dd610604565b6040516100ea91906108d6565b60405180910390f35b60008054906101000a900473ffffffffffffffffffffffffffffffffffffffff1673ffffffffffffffffffffffffffffffffffffffff163373ffffffffffffffffffffffffffffffffffffffff1614610181576040517f08c379a000000000000000000000000000000000000000000000000000000000815260040161017890610952565b60405180910390fd5b600081600360008573ffffffffffffffffffffffffffffffffffffffff1673ffffffffffffffffffffffffffffffffffffffff16815260200190815260200160002060010190805190602001906101d9929190610628565b5060005b600480549050811015610308578373ffffffffffffffffffffffffffffffffffffffff166004828154811061021557610214610c00565b5b906000526020600020906004020160030160009054906101000a900473ffffffffffffffffffffffffffffffffffffffff1673ffffffffffffffffffffffffffffffffffffffff16141561029e57826004828154811061027857610277610c00565b5b9060005260206000209060040201600101908051906020019061029c929190610628565b505b6001826102ab9190610a04565b91508160048054905014156102f5576040517f08c379a00000000000000000000000000000000000000000000000000000000081526004016102ec90610972565b60405180910390fd5b808061030090610b59565b9150506101dd565b50505050565b6004818154811061031e57600080fd5b906000526020600020906004020160009150905080600001805461034190610af6565b80601f016020809104026020016040519081016040528092919081815260200182805461036d90610af6565b80156103ba5780601f1061038f576101008083540402835291602001916103ba565b820191906000526020600020905b81548152906001019060200180831161039d57829003601f168201915b5050505050908060010180546103cf90610af6565b80601f01602080910402602001604051908101604052809291908181526020018280546103fb90610af6565b80156104485780601f1061041d57610100808354040283529160200191610448565b820191906000526020600020905b81548152906001019060200180831161042b57829003601f168201915b5050505050908060020154908060030160009054906101000a900473ffffffffffffffffffffffffffffffffffffffff16908060030160149054906101000a900460ff16905085565b60036020528060005260406000206000915090508060000180546104b490610af6565b80601f01602080910402602001604051908101604052809291908181526020018280546104e090610af6565b801561052d5780601f106105025761010080835404028352916020019161052d565b820191906000526020600020905b81548152906001019060200180831161051057829003601f168201915b50505050509080600101805461054290610af6565b80601f016020809104026020016040519081016040528092919081815260200182805461056e90610af6565b80156105bb5780601f10610590576101008083540402835291602001916105bb565b820191906000526020600020905b81548152906001019060200180831161059e57829003601f168201915b5050505050908060020154908060030160009054906101000a900473ffffffffffffffffffffffffffffffffffffffff16908060030160149054906101000a900460ff16905085565b60008054906101000a900473ffffffffffffffffffffffffffffffffffffffff1681565b82805461063490610af6565b90600052602060002090601f016020900481019282610656576000855561069d565b82601f1061066f57805160ff191683800117855561069d565b8280016001018555821561069d579182015b8281111561069c578251825591602001919060010190610681565b5b5090506106aa91906106ae565b5090565b5b808211156106c75760008160009055506001016106af565b5090565b60006106de6106d9846109b7565b610992565b9050828152602081018484840111156106fa576106f9610c63565b5b610705848285610ab4565b509392505050565b60008135905061071c81610cd5565b92915050565b600082601f83011261073757610736610c5e565b5b81356107478482602086016106cb565b91505092915050565b60008135905061075f81610cec565b92915050565b60006020828403121561077b5761077a610c6d565b5b60006107898482850161070d565b91505092915050565b600080604083850312156107a9576107a8610c6d565b5b60006107b78582860161070d565b925050602083013567ffffffffffffffff8111156107d8576107d7610c68565b5b6107e485828601610722565b9150509250929050565b60006020828403121561080457610803610c6d565b5b600061081284828501610750565b91505092915050565b61082481610a6c565b82525050565b61083381610a5a565b82525050565b61084281610a7e565b82525050565b6000610853826109e8565b61085d81856109f3565b935061086d818560208601610ac3565b61087681610c72565b840191505092915050565b600061088e6016836109f3565b915061089982610c83565b602082019050919050565b60006108b16012836109f3565b91506108bc82610cac565b602082019050919050565b6108d081610aaa565b82525050565b60006020820190506108eb600083018461082a565b92915050565b600060a082019050818103600083015261090b8188610848565b9050818103602083015261091f8187610848565b905061092e60408301866108c7565b61093b606083018561081b565b6109486080830184610839565b9695505050505050565b6000602082019050818103600083015261096b81610881565b9050919050565b6000602082019050818103600083015261098b816108a4565b9050919050565b600061099c6109ad565b90506109a88282610b28565b919050565b6000604051905090565b600067ffffffffffffffff8211156109d2576109d1610c2f565b5b6109db82610c72565b9050602081019050919050565b600081519050919050565b600082825260208201905092915050565b6000610a0f82610aaa565b9150610a1a83610aaa565b9250827fffffffffffffffffffffffffffffffffffffffffffffffffffffffffffffffff03821115610a4f57610a4e610ba2565b5b828201905092915050565b6000610a6582610a8a565b9050919050565b6000610a7782610a8a565b9050919050565b60008115159050919050565b600073ffffffffffffffffffffffffffffffffffffffff82169050919050565b6000819050919050565b82818337600083830152505050565b60005b83811015610ae1578082015181840152602081019050610ac6565b83811115610af0576000848401525b50505050565b60006002820490506001821680610b0e57607f821691505b60208210811415610b2257610b21610bd1565b5b50919050565b610b3182610c72565b810181811067ffffffffffffffff82111715610b5057610b4f610c2f565b5b80604052505050565b6000610b6482610aaa565b91507fffffffffffffffffffffffffffffffffffffffffffffffffffffffffffffffff821415610b9757610b96610ba2565b5b600182019050919050565b7f4e487b7100000000000000000000000000000000000000000000000000000000600052601160045260246000fd5b7f4e487b7100000000000000000000000000000000000000000000000000000000600052602260045260246000fd5b7f4e487b7100000000000000000000000000000000000000000000000000000000600052603260045260246000fd5b7f4e487b7100000000000000000000000000000000000000000000000000000000600052604160045260246000fd5b600080fd5b600080fd5b600080fd5b600080fd5b6000601f19601f8301169050919050565b7f796f7520646f6e27742068617665207269676874732000000000000000000000600082015250565b7f656d706c6f796565206e6f7420666f756e640000000000000000000000000000600082015250565b610cde81610a5a565b8114610ce957600080fd5b50565b610cf581610aaa565b8114610d0057600080fd5b5056fea264697066735822122067605eacb74e944cf3c3a13de43f43d918cf53801b29f6dabb6484f82f505acc64736f6c63430008070033",
					"opcodes": "PUSH1 0x80 PUSH1 0x40 MSTORE PUSH7 0x470DE4DF820000 PUSH1 0x1 SSTORE PUSH7 0x6A94D74F430000 PUSH1 0x2 SSTORE CALLVALUE DUP1 ISZERO PUSH2 0x26 JUMPI PUSH1 0x0 DUP1 REVERT JUMPDEST POP CALLER PUSH1 0x0 DUP1 PUSH2 0x100 EXP DUP2 SLOAD DUP2 PUSH20 0xFFFFFFFFFFFFFFFFFFFFFFFFFFFFFFFFFFFFFFFF MUL NOT AND SWAP1 DUP4 PUSH20 0xFFFFFFFFFFFFFFFFFFFFFFFFFFFFFFFFFFFFFFFF AND MUL OR SWAP1 SSTORE POP PUSH2 0xD39 DUP1 PUSH2 0x76 PUSH1 0x0 CODECOPY PUSH1 0x0 RETURN INVALID PUSH1 0x80 PUSH1 0x40 MSTORE CALLVALUE DUP1 ISZERO PUSH2 0x10 JUMPI PUSH1 0x0 DUP1 REVERT JUMPDEST POP PUSH1 0x4 CALLDATASIZE LT PUSH2 0x4C JUMPI PUSH1 0x0 CALLDATALOAD PUSH1 0xE0 SHR DUP1 PUSH4 0x3D24CC45 EQ PUSH2 0x51 JUMPI DUP1 PUSH4 0xB58F421C EQ PUSH2 0x6D JUMPI DUP1 PUSH4 0xD17106B7 EQ PUSH2 0xA1 JUMPI DUP1 PUSH4 0xF851A440 EQ PUSH2 0xD5 JUMPI JUMPDEST PUSH1 0x0 DUP1 REVERT JUMPDEST PUSH2 0x6B PUSH1 0x4 DUP1 CALLDATASIZE SUB DUP2 ADD SWAP1 PUSH2 0x66 SWAP2 SWAP1 PUSH2 0x792 JUMP JUMPDEST PUSH2 0xF3 JUMP JUMPDEST STOP JUMPDEST PUSH2 0x87 PUSH1 0x4 DUP1 CALLDATASIZE SUB DUP2 ADD SWAP1 PUSH2 0x82 SWAP2 SWAP1 PUSH2 0x7EE JUMP JUMPDEST PUSH2 0x30E JUMP JUMPDEST PUSH1 0x40 MLOAD PUSH2 0x98 SWAP6 SWAP5 SWAP4 SWAP3 SWAP2 SWAP1 PUSH2 0x8F1 JUMP JUMPDEST PUSH1 0x40 MLOAD DUP1 SWAP2 SUB SWAP1 RETURN JUMPDEST PUSH2 0xBB PUSH1 0x4 DUP1 CALLDATASIZE SUB DUP2 ADD SWAP1 PUSH2 0xB6 SWAP2 SWAP1 PUSH2 0x765 JUMP JUMPDEST PUSH2 0x491 JUMP JUMPDEST PUSH1 0x40 MLOAD PUSH2 0xCC SWAP6 SWAP5 SWAP4 SWAP3 SWAP2 SWAP1 PUSH2 0x8F1 JUMP JUMPDEST PUSH1 0x40 MLOAD DUP1 SWAP2 SUB SWAP1 RETURN JUMPDEST PUSH2 0xDD PUSH2 0x604 JUMP JUMPDEST PUSH1 0x40 MLOAD PUSH2 0xEA SWAP2 SWAP1 PUSH2 0x8D6 JUMP JUMPDEST PUSH1 0x40 MLOAD DUP1 SWAP2 SUB SWAP1 RETURN JUMPDEST PUSH1 0x0 DUP1 SLOAD SWAP1 PUSH2 0x100 EXP SWAP1 DIV PUSH20 0xFFFFFFFFFFFFFFFFFFFFFFFFFFFFFFFFFFFFFFFF AND PUSH20 0xFFFFFFFFFFFFFFFFFFFFFFFFFFFFFFFFFFFFFFFF AND CALLER PUSH20 0xFFFFFFFFFFFFFFFFFFFFFFFFFFFFFFFFFFFFFFFF AND EQ PUSH2 0x181 JUMPI PUSH1 0x40 MLOAD PUSH32 0x8C379A000000000000000000000000000000000000000000000000000000000 DUP2 MSTORE PUSH1 0x4 ADD PUSH2 0x178 SWAP1 PUSH2 0x952 JUMP JUMPDEST PUSH1 0x40 MLOAD DUP1 SWAP2 SUB SWAP1 REVERT JUMPDEST PUSH1 0x0 DUP2 PUSH1 0x3 PUSH1 0x0 DUP6 PUSH20 0xFFFFFFFFFFFFFFFFFFFFFFFFFFFFFFFFFFFFFFFF AND PUSH20 0xFFFFFFFFFFFFFFFFFFFFFFFFFFFFFFFFFFFFFFFF AND DUP2 MSTORE PUSH1 0x20 ADD SWAP1 DUP2 MSTORE PUSH1 0x20 ADD PUSH1 0x0 KECCAK256 PUSH1 0x1 ADD SWAP1 DUP1 MLOAD SWAP1 PUSH1 0x20 ADD SWAP1 PUSH2 0x1D9 SWAP3 SWAP2 SWAP1 PUSH2 0x628 JUMP JUMPDEST POP PUSH1 0x0 JUMPDEST PUSH1 0x4 DUP1 SLOAD SWAP1 POP DUP2 LT ISZERO PUSH2 0x308 JUMPI DUP4 PUSH20 0xFFFFFFFFFFFFFFFFFFFFFFFFFFFFFFFFFFFFFFFF AND PUSH1 0x4 DUP3 DUP2 SLOAD DUP2 LT PUSH2 0x215 JUMPI PUSH2 0x214 PUSH2 0xC00 JUMP JUMPDEST JUMPDEST SWAP1 PUSH1 0x0 MSTORE PUSH1 0x20 PUSH1 0x0 KECCAK256 SWAP1 PUSH1 0x4 MUL ADD PUSH1 0x3 ADD PUSH1 0x0 SWAP1 SLOAD SWAP1 PUSH2 0x100 EXP SWAP1 DIV PUSH20 0xFFFFFFFFFFFFFFFFFFFFFFFFFFFFFFFFFFFFFFFF AND PUSH20 0xFFFFFFFFFFFFFFFFFFFFFFFFFFFFFFFFFFFFFFFF AND EQ ISZERO PUSH2 0x29E JUMPI DUP3 PUSH1 0x4 DUP3 DUP2 SLOAD DUP2 LT PUSH2 0x278 JUMPI PUSH2 0x277 PUSH2 0xC00 JUMP JUMPDEST JUMPDEST SWAP1 PUSH1 0x0 MSTORE PUSH1 0x20 PUSH1 0x0 KECCAK256 SWAP1 PUSH1 0x4 MUL ADD PUSH1 0x1 ADD SWAP1 DUP1 MLOAD SWAP1 PUSH1 0x20 ADD SWAP1 PUSH2 0x29C SWAP3 SWAP2 SWAP1 PUSH2 0x628 JUMP JUMPDEST POP JUMPDEST PUSH1 0x1 DUP3 PUSH2 0x2AB SWAP2 SWAP1 PUSH2 0xA04 JUMP JUMPDEST SWAP2 POP DUP2 PUSH1 0x4 DUP1 SLOAD SWAP1 POP EQ ISZERO PUSH2 0x2F5 JUMPI PUSH1 0x40 MLOAD PUSH32 0x8C379A000000000000000000000000000000000000000000000000000000000 DUP2 MSTORE PUSH1 0x4 ADD PUSH2 0x2EC SWAP1 PUSH2 0x972 JUMP JUMPDEST PUSH1 0x40 MLOAD DUP1 SWAP2 SUB SWAP1 REVERT JUMPDEST DUP1 DUP1 PUSH2 0x300 SWAP1 PUSH2 0xB59 JUMP JUMPDEST SWAP2 POP POP PUSH2 0x1DD JUMP JUMPDEST POP POP POP POP JUMP JUMPDEST PUSH1 0x4 DUP2 DUP2 SLOAD DUP2 LT PUSH2 0x31E JUMPI PUSH1 0x0 DUP1 REVERT JUMPDEST SWAP1 PUSH1 0x0 MSTORE PUSH1 0x20 PUSH1 0x0 KECCAK256 SWAP1 PUSH1 0x4 MUL ADD PUSH1 0x0 SWAP2 POP SWAP1 POP DUP1 PUSH1 0x0 ADD DUP1 SLOAD PUSH2 0x341 SWAP1 PUSH2 0xAF6 JUMP JUMPDEST DUP1 PUSH1 0x1F ADD PUSH1 0x20 DUP1 SWAP2 DIV MUL PUSH1 0x20 ADD PUSH1 0x40 MLOAD SWAP1 DUP2 ADD PUSH1 0x40 MSTORE DUP1 SWAP3 SWAP2 SWAP1 DUP2 DUP2 MSTORE PUSH1 0x20 ADD DUP3 DUP1 SLOAD PUSH2 0x36D SWAP1 PUSH2 0xAF6 JUMP JUMPDEST DUP1 ISZERO PUSH2 0x3BA JUMPI DUP1 PUSH1 0x1F LT PUSH2 0x38F JUMPI PUSH2 0x100 DUP1 DUP4 SLOAD DIV MUL DUP4 MSTORE SWAP2 PUSH1 0x20 ADD SWAP2 PUSH2 0x3BA JUMP JUMPDEST DUP3 ADD SWAP2 SWAP1 PUSH1 0x0 MSTORE PUSH1 0x20 PUSH1 0x0 KECCAK256 SWAP1 JUMPDEST DUP2 SLOAD DUP2 MSTORE SWAP1 PUSH1 0x1 ADD SWAP1 PUSH1 0x20 ADD DUP1 DUP4 GT PUSH2 0x39D JUMPI DUP3 SWAP1 SUB PUSH1 0x1F AND DUP3 ADD SWAP2 JUMPDEST POP POP POP POP POP SWAP1 DUP1 PUSH1 0x1 ADD DUP1 SLOAD PUSH2 0x3CF SWAP1 PUSH2 0xAF6 JUMP JUMPDEST DUP1 PUSH1 0x1F ADD PUSH1 0x20 DUP1 SWAP2 DIV MUL PUSH1 0x20 ADD PUSH1 0x40 MLOAD SWAP1 DUP2 ADD PUSH1 0x40 MSTORE DUP1 SWAP3 SWAP2 SWAP1 DUP2 DUP2 MSTORE PUSH1 0x20 ADD DUP3 DUP1 SLOAD PUSH2 0x3FB SWAP1 PUSH2 0xAF6 JUMP JUMPDEST DUP1 ISZERO PUSH2 0x448 JUMPI DUP1 PUSH1 0x1F LT PUSH2 0x41D JUMPI PUSH2 0x100 DUP1 DUP4 SLOAD DIV MUL DUP4 MSTORE SWAP2 PUSH1 0x20 ADD SWAP2 PUSH2 0x448 JUMP JUMPDEST DUP3 ADD SWAP2 SWAP1 PUSH1 0x0 MSTORE PUSH1 0x20 PUSH1 0x0 KECCAK256 SWAP1 JUMPDEST DUP2 SLOAD DUP2 MSTORE SWAP1 PUSH1 0x1 ADD SWAP1 PUSH1 0x20 ADD DUP1 DUP4 GT PUSH2 0x42B JUMPI DUP3 SWAP1 SUB PUSH1 0x1F AND DUP3 ADD SWAP2 JUMPDEST POP POP POP POP POP SWAP1 DUP1 PUSH1 0x2 ADD SLOAD SWAP1 DUP1 PUSH1 0x3 ADD PUSH1 0x0 SWAP1 SLOAD SWAP1 PUSH2 0x100 EXP SWAP1 DIV PUSH20 0xFFFFFFFFFFFFFFFFFFFFFFFFFFFFFFFFFFFFFFFF AND SWAP1 DUP1 PUSH1 0x3 ADD PUSH1 0x14 SWAP1 SLOAD SWAP1 PUSH2 0x100 EXP SWAP1 DIV PUSH1 0xFF AND SWAP1 POP DUP6 JUMP JUMPDEST PUSH1 0x3 PUSH1 0x20 MSTORE DUP1 PUSH1 0x0 MSTORE PUSH1 0x40 PUSH1 0x0 KECCAK256 PUSH1 0x0 SWAP2 POP SWAP1 POP DUP1 PUSH1 0x0 ADD DUP1 SLOAD PUSH2 0x4B4 SWAP1 PUSH2 0xAF6 JUMP JUMPDEST DUP1 PUSH1 0x1F ADD PUSH1 0x20 DUP1 SWAP2 DIV MUL PUSH1 0x20 ADD PUSH1 0x40 MLOAD SWAP1 DUP2 ADD PUSH1 0x40 MSTORE DUP1 SWAP3 SWAP2 SWAP1 DUP2 DUP2 MSTORE PUSH1 0x20 ADD DUP3 DUP1 SLOAD PUSH2 0x4E0 SWAP1 PUSH2 0xAF6 JUMP JUMPDEST DUP1 ISZERO PUSH2 0x52D JUMPI DUP1 PUSH1 0x1F LT PUSH2 0x502 JUMPI PUSH2 0x100 DUP1 DUP4 SLOAD DIV MUL DUP4 MSTORE SWAP2 PUSH1 0x20 ADD SWAP2 PUSH2 0x52D JUMP JUMPDEST DUP3 ADD SWAP2 SWAP1 PUSH1 0x0 MSTORE PUSH1 0x20 PUSH1 0x0 KECCAK256 SWAP1 JUMPDEST DUP2 SLOAD DUP2 MSTORE SWAP1 PUSH1 0x1 ADD SWAP1 PUSH1 0x20 ADD DUP1 DUP4 GT PUSH2 0x510 JUMPI DUP3 SWAP1 SUB PUSH1 0x1F AND DUP3 ADD SWAP2 JUMPDEST POP POP POP POP POP SWAP1 DUP1 PUSH1 0x1 ADD DUP1 SLOAD PUSH2 0x542 SWAP1 PUSH2 0xAF6 JUMP JUMPDEST DUP1 PUSH1 0x1F ADD PUSH1 0x20 DUP1 SWAP2 DIV MUL PUSH1 0x20 ADD PUSH1 0x40 MLOAD SWAP1 DUP2 ADD PUSH1 0x40 MSTORE DUP1 SWAP3 SWAP2 SWAP1 DUP2 DUP2 MSTORE PUSH1 0x20 ADD DUP3 DUP1 SLOAD PUSH2 0x56E SWAP1 PUSH2 0xAF6 JUMP JUMPDEST DUP1 ISZERO PUSH2 0x5BB JUMPI DUP1 PUSH1 0x1F LT PUSH2 0x590 JUMPI PUSH2 0x100 DUP1 DUP4 SLOAD DIV MUL DUP4 MSTORE SWAP2 PUSH1 0x20 ADD SWAP2 PUSH2 0x5BB JUMP JUMPDEST DUP3 ADD SWAP2 SWAP1 PUSH1 0x0 MSTORE PUSH1 0x20 PUSH1 0x0 KECCAK256 SWAP1 JUMPDEST DUP2 SLOAD DUP2 MSTORE SWAP1 PUSH1 0x1 ADD SWAP1 PUSH1 0x20 ADD DUP1 DUP4 GT PUSH2 0x59E JUMPI DUP3 SWAP1 SUB PUSH1 0x1F AND DUP3 ADD SWAP2 JUMPDEST POP POP POP POP POP SWAP1 DUP1 PUSH1 0x2 ADD SLOAD SWAP1 DUP1 PUSH1 0x3 ADD PUSH1 0x0 SWAP1 SLOAD SWAP1 PUSH2 0x100 EXP SWAP1 DIV PUSH20 0xFFFFFFFFFFFFFFFFFFFFFFFFFFFFFFFFFFFFFFFF AND SWAP1 DUP1 PUSH1 0x3 ADD PUSH1 0x14 SWAP1 SLOAD SWAP1 PUSH2 0x100 EXP SWAP1 DIV PUSH1 0xFF AND SWAP1 POP DUP6 JUMP JUMPDEST PUSH1 0x0 DUP1 SLOAD SWAP1 PUSH2 0x100 EXP SWAP1 DIV PUSH20 0xFFFFFFFFFFFFFFFFFFFFFFFFFFFFFFFFFFFFFFFF AND DUP2 JUMP JUMPDEST DUP3 DUP1 SLOAD PUSH2 0x634 SWAP1 PUSH2 0xAF6 JUMP JUMPDEST SWAP1 PUSH1 0x0 MSTORE PUSH1 0x20 PUSH1 0x0 KECCAK256 SWAP1 PUSH1 0x1F ADD PUSH1 0x20 SWAP1 DIV DUP2 ADD SWAP3 DUP3 PUSH2 0x656 JUMPI PUSH1 0x0 DUP6 SSTORE PUSH2 0x69D JUMP JUMPDEST DUP3 PUSH1 0x1F LT PUSH2 0x66F JUMPI DUP1 MLOAD PUSH1 0xFF NOT AND DUP4 DUP1 ADD OR DUP6 SSTORE PUSH2 0x69D JUMP JUMPDEST DUP3 DUP1 ADD PUSH1 0x1 ADD DUP6 SSTORE DUP3 ISZERO PUSH2 0x69D JUMPI SWAP2 DUP3 ADD JUMPDEST DUP3 DUP2 GT ISZERO PUSH2 0x69C JUMPI DUP3 MLOAD DUP3 SSTORE SWAP2 PUSH1 0x20 ADD SWAP2 SWAP1 PUSH1 0x1 ADD SWAP1 PUSH2 0x681 JUMP JUMPDEST JUMPDEST POP SWAP1 POP PUSH2 0x6AA SWAP2 SWAP1 PUSH2 0x6AE JUMP JUMPDEST POP SWAP1 JUMP JUMPDEST JUMPDEST DUP1 DUP3 GT ISZERO PUSH2 0x6C7 JUMPI PUSH1 0x0 DUP2 PUSH1 0x0 SWAP1 SSTORE POP PUSH1 0x1 ADD PUSH2 0x6AF JUMP JUMPDEST POP SWAP1 JUMP JUMPDEST PUSH1 0x0 PUSH2 0x6DE PUSH2 0x6D9 DUP5 PUSH2 0x9B7 JUMP JUMPDEST PUSH2 0x992 JUMP JUMPDEST SWAP1 POP DUP3 DUP2 MSTORE PUSH1 0x20 DUP2 ADD DUP5 DUP5 DUP5 ADD GT ISZERO PUSH2 0x6FA JUMPI PUSH2 0x6F9 PUSH2 0xC63 JUMP JUMPDEST JUMPDEST PUSH2 0x705 DUP5 DUP3 DUP6 PUSH2 0xAB4 JUMP JUMPDEST POP SWAP4 SWAP3 POP POP POP JUMP JUMPDEST PUSH1 0x0 DUP2 CALLDATALOAD SWAP1 POP PUSH2 0x71C DUP2 PUSH2 0xCD5 JUMP JUMPDEST SWAP3 SWAP2 POP POP JUMP JUMPDEST PUSH1 0x0 DUP3 PUSH1 0x1F DUP4 ADD SLT PUSH2 0x737 JUMPI PUSH2 0x736 PUSH2 0xC5E JUMP JUMPDEST JUMPDEST DUP2 CALLDATALOAD PUSH2 0x747 DUP5 DUP3 PUSH1 0x20 DUP7 ADD PUSH2 0x6CB JUMP JUMPDEST SWAP2 POP POP SWAP3 SWAP2 POP POP JUMP JUMPDEST PUSH1 0x0 DUP2 CALLDATALOAD SWAP1 POP PUSH2 0x75F DUP2 PUSH2 0xCEC JUMP JUMPDEST SWAP3 SWAP2 POP POP JUMP JUMPDEST PUSH1 0x0 PUSH1 0x20 DUP3 DUP5 SUB SLT ISZERO PUSH2 0x77B JUMPI PUSH2 0x77A PUSH2 0xC6D JUMP JUMPDEST JUMPDEST PUSH1 0x0 PUSH2 0x789 DUP5 DUP3 DUP6 ADD PUSH2 0x70D JUMP JUMPDEST SWAP2 POP POP SWAP3 SWAP2 POP POP JUMP JUMPDEST PUSH1 0x0 DUP1 PUSH1 0x40 DUP4 DUP6 SUB SLT ISZERO PUSH2 0x7A9 JUMPI PUSH2 0x7A8 PUSH2 0xC6D JUMP JUMPDEST JUMPDEST PUSH1 0x0 PUSH2 0x7B7 DUP6 DUP3 DUP7 ADD PUSH2 0x70D JUMP JUMPDEST SWAP3 POP POP PUSH1 0x20 DUP4 ADD CALLDATALOAD PUSH8 0xFFFFFFFFFFFFFFFF DUP2 GT ISZERO PUSH2 0x7D8 JUMPI PUSH2 0x7D7 PUSH2 0xC68 JUMP JUMPDEST JUMPDEST PUSH2 0x7E4 DUP6 DUP3 DUP7 ADD PUSH2 0x722 JUMP JUMPDEST SWAP2 POP POP SWAP3 POP SWAP3 SWAP1 POP JUMP JUMPDEST PUSH1 0x0 PUSH1 0x20 DUP3 DUP5 SUB SLT ISZERO PUSH2 0x804 JUMPI PUSH2 0x803 PUSH2 0xC6D JUMP JUMPDEST JUMPDEST PUSH1 0x0 PUSH2 0x812 DUP5 DUP3 DUP6 ADD PUSH2 0x750 JUMP JUMPDEST SWAP2 POP POP SWAP3 SWAP2 POP POP JUMP JUMPDEST PUSH2 0x824 DUP2 PUSH2 0xA6C JUMP JUMPDEST DUP3 MSTORE POP POP JUMP JUMPDEST PUSH2 0x833 DUP2 PUSH2 0xA5A JUMP JUMPDEST DUP3 MSTORE POP POP JUMP JUMPDEST PUSH2 0x842 DUP2 PUSH2 0xA7E JUMP JUMPDEST DUP3 MSTORE POP POP JUMP JUMPDEST PUSH1 0x0 PUSH2 0x853 DUP3 PUSH2 0x9E8 JUMP JUMPDEST PUSH2 0x85D DUP2 DUP6 PUSH2 0x9F3 JUMP JUMPDEST SWAP4 POP PUSH2 0x86D DUP2 DUP6 PUSH1 0x20 DUP7 ADD PUSH2 0xAC3 JUMP JUMPDEST PUSH2 0x876 DUP2 PUSH2 0xC72 JUMP JUMPDEST DUP5 ADD SWAP2 POP POP SWAP3 SWAP2 POP POP JUMP JUMPDEST PUSH1 0x0 PUSH2 0x88E PUSH1 0x16 DUP4 PUSH2 0x9F3 JUMP JUMPDEST SWAP2 POP PUSH2 0x899 DUP3 PUSH2 0xC83 JUMP JUMPDEST PUSH1 0x20 DUP3 ADD SWAP1 POP SWAP2 SWAP1 POP JUMP JUMPDEST PUSH1 0x0 PUSH2 0x8B1 PUSH1 0x12 DUP4 PUSH2 0x9F3 JUMP JUMPDEST SWAP2 POP PUSH2 0x8BC DUP3 PUSH2 0xCAC JUMP JUMPDEST PUSH1 0x20 DUP3 ADD SWAP1 POP SWAP2 SWAP1 POP JUMP JUMPDEST PUSH2 0x8D0 DUP2 PUSH2 0xAAA JUMP JUMPDEST DUP3 MSTORE POP POP JUMP JUMPDEST PUSH1 0x0 PUSH1 0x20 DUP3 ADD SWAP1 POP PUSH2 0x8EB PUSH1 0x0 DUP4 ADD DUP5 PUSH2 0x82A JUMP JUMPDEST SWAP3 SWAP2 POP POP JUMP JUMPDEST PUSH1 0x0 PUSH1 0xA0 DUP3 ADD SWAP1 POP DUP2 DUP2 SUB PUSH1 0x0 DUP4 ADD MSTORE PUSH2 0x90B DUP2 DUP9 PUSH2 0x848 JUMP JUMPDEST SWAP1 POP DUP2 DUP2 SUB PUSH1 0x20 DUP4 ADD MSTORE PUSH2 0x91F DUP2 DUP8 PUSH2 0x848 JUMP JUMPDEST SWAP1 POP PUSH2 0x92E PUSH1 0x40 DUP4 ADD DUP7 PUSH2 0x8C7 JUMP JUMPDEST PUSH2 0x93B PUSH1 0x60 DUP4 ADD DUP6 PUSH2 0x81B JUMP JUMPDEST PUSH2 0x948 PUSH1 0x80 DUP4 ADD DUP5 PUSH2 0x839 JUMP JUMPDEST SWAP7 SWAP6 POP POP POP POP POP POP JUMP JUMPDEST PUSH1 0x0 PUSH1 0x20 DUP3 ADD SWAP1 POP DUP2 DUP2 SUB PUSH1 0x0 DUP4 ADD MSTORE PUSH2 0x96B DUP2 PUSH2 0x881 JUMP JUMPDEST SWAP1 POP SWAP2 SWAP1 POP JUMP JUMPDEST PUSH1 0x0 PUSH1 0x20 DUP3 ADD SWAP1 POP DUP2 DUP2 SUB PUSH1 0x0 DUP4 ADD MSTORE PUSH2 0x98B DUP2 PUSH2 0x8A4 JUMP JUMPDEST SWAP1 POP SWAP2 SWAP1 POP JUMP JUMPDEST PUSH1 0x0 PUSH2 0x99C PUSH2 0x9AD JUMP JUMPDEST SWAP1 POP PUSH2 0x9A8 DUP3 DUP3 PUSH2 0xB28 JUMP JUMPDEST SWAP2 SWAP1 POP JUMP JUMPDEST PUSH1 0x0 PUSH1 0x40 MLOAD SWAP1 POP SWAP1 JUMP JUMPDEST PUSH1 0x0 PUSH8 0xFFFFFFFFFFFFFFFF DUP3 GT ISZERO PUSH2 0x9D2 JUMPI PUSH2 0x9D1 PUSH2 0xC2F JUMP JUMPDEST JUMPDEST PUSH2 0x9DB DUP3 PUSH2 0xC72 JUMP JUMPDEST SWAP1 POP PUSH1 0x20 DUP2 ADD SWAP1 POP SWAP2 SWAP1 POP JUMP JUMPDEST PUSH1 0x0 DUP2 MLOAD SWAP1 POP SWAP2 SWAP1 POP JUMP JUMPDEST PUSH1 0x0 DUP3 DUP3 MSTORE PUSH1 0x20 DUP3 ADD SWAP1 POP SWAP3 SWAP2 POP POP JUMP JUMPDEST PUSH1 0x0 PUSH2 0xA0F DUP3 PUSH2 0xAAA JUMP JUMPDEST SWAP2 POP PUSH2 0xA1A DUP4 PUSH2 0xAAA JUMP JUMPDEST SWAP3 POP DUP3 PUSH32 0xFFFFFFFFFFFFFFFFFFFFFFFFFFFFFFFFFFFFFFFFFFFFFFFFFFFFFFFFFFFFFFFF SUB DUP3 GT ISZERO PUSH2 0xA4F JUMPI PUSH2 0xA4E PUSH2 0xBA2 JUMP JUMPDEST JUMPDEST DUP3 DUP3 ADD SWAP1 POP SWAP3 SWAP2 POP POP JUMP JUMPDEST PUSH1 0x0 PUSH2 0xA65 DUP3 PUSH2 0xA8A JUMP JUMPDEST SWAP1 POP SWAP2 SWAP1 POP JUMP JUMPDEST PUSH1 0x0 PUSH2 0xA77 DUP3 PUSH2 0xA8A JUMP JUMPDEST SWAP1 POP SWAP2 SWAP1 POP JUMP JUMPDEST PUSH1 0x0 DUP2 ISZERO ISZERO SWAP1 POP SWAP2 SWAP1 POP JUMP JUMPDEST PUSH1 0x0 PUSH20 0xFFFFFFFFFFFFFFFFFFFFFFFFFFFFFFFFFFFFFFFF DUP3 AND SWAP1 POP SWAP2 SWAP1 POP JUMP JUMPDEST PUSH1 0x0 DUP2 SWAP1 POP SWAP2 SWAP1 POP JUMP JUMPDEST DUP3 DUP2 DUP4 CALLDATACOPY PUSH1 0x0 DUP4 DUP4 ADD MSTORE POP POP POP JUMP JUMPDEST PUSH1 0x0 JUMPDEST DUP4 DUP2 LT ISZERO PUSH2 0xAE1 JUMPI DUP1 DUP3 ADD MLOAD DUP2 DUP5 ADD MSTORE PUSH1 0x20 DUP2 ADD SWAP1 POP PUSH2 0xAC6 JUMP JUMPDEST DUP4 DUP2 GT ISZERO PUSH2 0xAF0 JUMPI PUSH1 0x0 DUP5 DUP5 ADD MSTORE JUMPDEST POP POP POP POP JUMP JUMPDEST PUSH1 0x0 PUSH1 0x2 DUP3 DIV SWAP1 POP PUSH1 0x1 DUP3 AND DUP1 PUSH2 0xB0E JUMPI PUSH1 0x7F DUP3 AND SWAP2 POP JUMPDEST PUSH1 0x20 DUP3 LT DUP2 EQ ISZERO PUSH2 0xB22 JUMPI PUSH2 0xB21 PUSH2 0xBD1 JUMP JUMPDEST JUMPDEST POP SWAP2 SWAP1 POP JUMP JUMPDEST PUSH2 0xB31 DUP3 PUSH2 0xC72 JUMP JUMPDEST DUP2 ADD DUP2 DUP2 LT PUSH8 0xFFFFFFFFFFFFFFFF DUP3 GT OR ISZERO PUSH2 0xB50 JUMPI PUSH2 0xB4F PUSH2 0xC2F JUMP JUMPDEST JUMPDEST DUP1 PUSH1 0x40 MSTORE POP POP POP JUMP JUMPDEST PUSH1 0x0 PUSH2 0xB64 DUP3 PUSH2 0xAAA JUMP JUMPDEST SWAP2 POP PUSH32 0xFFFFFFFFFFFFFFFFFFFFFFFFFFFFFFFFFFFFFFFFFFFFFFFFFFFFFFFFFFFFFFFF DUP3 EQ ISZERO PUSH2 0xB97 JUMPI PUSH2 0xB96 PUSH2 0xBA2 JUMP JUMPDEST JUMPDEST PUSH1 0x1 DUP3 ADD SWAP1 POP SWAP2 SWAP1 POP JUMP JUMPDEST PUSH32 0x4E487B7100000000000000000000000000000000000000000000000000000000 PUSH1 0x0 MSTORE PUSH1 0x11 PUSH1 0x4 MSTORE PUSH1 0x24 PUSH1 0x0 REVERT JUMPDEST PUSH32 0x4E487B7100000000000000000000000000000000000000000000000000000000 PUSH1 0x0 MSTORE PUSH1 0x22 PUSH1 0x4 MSTORE PUSH1 0x24 PUSH1 0x0 REVERT JUMPDEST PUSH32 0x4E487B7100000000000000000000000000000000000000000000000000000000 PUSH1 0x0 MSTORE PUSH1 0x32 PUSH1 0x4 MSTORE PUSH1 0x24 PUSH1 0x0 REVERT JUMPDEST PUSH32 0x4E487B7100000000000000000000000000000000000000000000000000000000 PUSH1 0x0 MSTORE PUSH1 0x41 PUSH1 0x4 MSTORE PUSH1 0x24 PUSH1 0x0 REVERT JUMPDEST PUSH1 0x0 DUP1 REVERT JUMPDEST PUSH1 0x0 DUP1 REVERT JUMPDEST PUSH1 0x0 DUP1 REVERT JUMPDEST PUSH1 0x0 DUP1 REVERT JUMPDEST PUSH1 0x0 PUSH1 0x1F NOT PUSH1 0x1F DUP4 ADD AND SWAP1 POP SWAP2 SWAP1 POP JUMP JUMPDEST PUSH32 0x796F7520646F6E27742068617665207269676874732000000000000000000000 PUSH1 0x0 DUP3 ADD MSTORE POP JUMP JUMPDEST PUSH32 0x656D706C6F796565206E6F7420666F756E640000000000000000000000000000 PUSH1 0x0 DUP3 ADD MSTORE POP JUMP JUMPDEST PUSH2 0xCDE DUP2 PUSH2 0xA5A JUMP JUMPDEST DUP2 EQ PUSH2 0xCE9 JUMPI PUSH1 0x0 DUP1 REVERT JUMPDEST POP JUMP JUMPDEST PUSH2 0xCF5 DUP2 PUSH2 0xAAA JUMP JUMPDEST DUP2 EQ PUSH2 0xD00 JUMPI PUSH1 0x0 DUP1 REVERT JUMPDEST POP JUMP INVALID LOG2 PUSH5 0x6970667358 0x22 SLT KECCAK256 PUSH8 0x605EACB74E944CF3 0xC3 LOG1 RETURNDATASIZE 0xE4 EXTCODEHASH NUMBER 0xD9 XOR 0xCF MSTORE8 DUP1 SHL 0x29 0xF6 0xDA 0xBB PUSH5 0x84F82F505A 0xCC PUSH5 0x736F6C6343 STOP ADDMOD SMOD STOP CALLER "
				},
				"gasEstimates": {
					"creation": {
						"codeDepositCost": "677000",
						"executionCost": "69186",
						"totalCost": "746186"
					},
					"external": {
						"AllEmployes(uint256)": "infinite",
						"ChangePostion(address,string)": "infinite",
						"GetEmployeeDetails(address)": "infinite",
						"admin()": "2555"
					}
				},
				"methodIdentifiers": {
					"AllEmployes(uint256)": "b58f421c",
					"ChangePostion(address,string)": "3d24cc45",
					"GetEmployeeDetails(address)": "d17106b7",
					"admin()": "f851a440"
				}
			},
			"storageLayout": {
				"storage": [
					{
						"astId": 3,
						"contract": "contracts/salary.sol:salary",
						"label": "admin",
						"offset": 0,
						"slot": "0",
						"type": "t_address"
					},
					{
						"astId": 15,
						"contract": "contracts/salary.sol:salary",
						"label": "SalaryOfP1",
						"offset": 0,
						"slot": "1",
						"type": "t_uint256"
					},
					{
						"astId": 18,
						"contract": "contracts/salary.sol:salary",
						"label": "SalaryOfP2",
						"offset": 0,
						"slot": "2",
						"type": "t_uint256"
					},
					{
						"astId": 34,
						"contract": "contracts/salary.sol:salary",
						"label": "GetEmployeeDetails",
						"offset": 0,
						"slot": "3",
						"type": "t_mapping(t_address,t_struct(Employe)29_storage)"
					},
					{
						"astId": 38,
						"contract": "contracts/salary.sol:salary",
						"label": "AllEmployes",
						"offset": 0,
						"slot": "4",
						"type": "t_array(t_struct(Employe)29_storage)dyn_storage"
					}
				],
				"types": {
					"t_address": {
						"encoding": "inplace",
						"label": "address",
						"numberOfBytes": "20"
					},
					"t_address_payable": {
						"encoding": "inplace",
						"label": "address payable",
						"numberOfBytes": "20"
					},
					"t_array(t_struct(Employe)29_storage)dyn_storage": {
						"base": "t_struct(Employe)29_storage",
						"encoding": "dynamic_array",
						"label": "struct salary.Employe[]",
						"numberOfBytes": "32"
					},
					"t_bool": {
						"encoding": "inplace",
						"label": "bool",
						"numberOfBytes": "1"
					},
					"t_mapping(t_address,t_struct(Employe)29_storage)": {
						"encoding": "mapping",
						"key": "t_address",
						"label": "mapping(address => struct salary.Employe)",
						"numberOfBytes": "32",
						"value": "t_struct(Employe)29_storage"
					},
					"t_string_storage": {
						"encoding": "bytes",
						"label": "string",
						"numberOfBytes": "32"
					},
					"t_struct(Employe)29_storage": {
						"encoding": "inplace",
						"label": "struct salary.Employe",
						"members": [
							{
								"astId": 20,
								"contract": "contracts/salary.sol:salary",
								"label": "name",
								"offset": 0,
								"slot": "0",
								"type": "t_string_storage"
							},
							{
								"astId": 22,
								"contract": "contracts/salary.sol:salary",
								"label": "role",
								"offset": 0,
								"slot": "1",
								"type": "t_string_storage"
							},
							{
								"astId": 24,
								"contract": "contracts/salary.sol:salary",
								"label": "Id_No",
								"offset": 0,
								"slot": "2",
								"type": "t_uint256"
							},
							{
								"astId": 26,
								"contract": "contracts/salary.sol:salary",
								"label": "account_No",
								"offset": 0,
								"slot": "3",
								"type": "t_address_payable"
							},
							{
								"astId": 28,
								"contract": "contracts/salary.sol:salary",
								"label": "paid_status",
								"offset": 20,
								"slot": "3",
								"type": "t_bool"
							}
						],
						"numberOfBytes": "128"
					},
					"t_uint256": {
						"encoding": "inplace",
						"label": "uint256",
						"numberOfBytes": "32"
					}
				}
			},
			"userdoc": {
				"kind": "user",
				"methods": {
					"ChangePostion(address,string)": {
						"notice": "0xb2309adF6FD227cd04fcAa5546E1375B2BC65Da0"
					}
				},
				"version": 1
			}
		}
	}
}