{
	"contracts/salary.sol": {
		"salary": {
			"abi": [
				{
					"inputs": [],
					"stateMutability": "nonpayable",
					"type": "constructor"
				},
				{
					"inputs": [
						{
							"internalType": "uint256",
							"name": "",
							"type": "uint256"
						}
					],
					"name": "AllEmployes",
					"outputs": [
						{
							"internalType": "string",
							"name": "name",
							"type": "string"
						},
						{
							"internalType": "uint256",
							"name": "role",
							"type": "uint256"
						},
						{
							"internalType": "uint256",
							"name": "Id_No",
							"type": "uint256"
						},
						{
							"internalType": "address payable",
							"name": "account_No",
							"type": "address"
						},
						{
							"internalType": "bool",
							"name": "paid_status",
							"type": "bool"
						}
					],
					"stateMutability": "view",
					"type": "function"
				},
				{
					"inputs": [
						{
							"internalType": "string",
							"name": "name",
							"type": "string"
						},
						{
							"internalType": "uint256",
							"name": "role",
							"type": "uint256"
						},
						{
							"internalType": "uint256",
							"name": "_Id_No",
							"type": "uint256"
						},
						{
							"internalType": "address payable",
							"name": "_account_No",
							"type": "address"
						},
						{
							"internalType": "bool",
							"name": "_paidStatus",
							"type": "bool"
						}
					],
					"name": "Employe_Registration",
					"outputs": [],
					"stateMutability": "nonpayable",
					"type": "function"
				},
				{
					"inputs": [
						{
							"internalType": "address",
							"name": "",
							"type": "address"
						}
					],
					"name": "GetEmployeeDetails",
					"outputs": [
						{
							"internalType": "string",
							"name": "name",
							"type": "string"
						},
						{
							"internalType": "uint256",
							"name": "role",
							"type": "uint256"
						},
						{
							"internalType": "uint256",
							"name": "Id_No",
							"type": "uint256"
						},
						{
							"internalType": "address payable",
							"name": "account_No",
							"type": "address"
						},
						{
							"internalType": "bool",
							"name": "paid_status",
							"type": "bool"
						}
					],
					"stateMutability": "view",
					"type": "function"
				},
				{
					"inputs": [],
					"name": "admin",
					"outputs": [
						{
							"internalType": "address",
							"name": "",
							"type": "address"
						}
					],
					"stateMutability": "view",
					"type": "function"
				},
				{
					"inputs": [
						{
							"internalType": "address payable",
							"name": "_ToEmployeAddress",
							"type": "address"
						},
						{
							"internalType": "uint256",
							"name": "_amount",
							"type": "uint256"
						}
					],
					"name": "sendingSalaries",
					"outputs": [
						{
							"internalType": "uint256",
							"name": "",
							"type": "uint256"
						}
					],
					"stateMutability": "payable",
					"type": "function"
				},
				{
					"inputs": [],
					"name": "sendingSalariesToEmployee",
					"outputs": [],
					"stateMutability": "nonpayable",
					"type": "function"
				}
			],
			"devdoc": {
				"kind": "dev",
				"methods": {},
				"version": 1
			},
			"evm": {
				"assembly": "    /* \"contracts/salary.sol\":65:4849  contract salary{\r... */\n  mstore(0x40, 0x80)\n    /* \"contracts/salary.sol\":329:346  20000000000000000 */\n  0x470de4df820000\n    /* \"contracts/salary.sol\":311:346  uint  SalaryOfP1= 20000000000000000 */\n  0x01\n  sstore\n    /* \"contracts/salary.sol\":379:396  30000000000000000 */\n  0x6a94d74f430000\n    /* \"contracts/salary.sol\":362:396  uint  SalaryOfP2=30000000000000000 */\n  0x02\n  sstore\n    /* \"contracts/salary.sol\":160:210  constructor (){\r... */\n  callvalue\n  dup1\n  iszero\n  tag_1\n  jumpi\n  0x00\n  dup1\n  revert\ntag_1:\n  pop\n    /* \"contracts/salary.sol\":196:206  msg.sender */\n  caller\n    /* \"contracts/salary.sol\":189:194  admin */\n  0x00\n  dup1\n    /* \"contracts/salary.sol\":189:206  admin= msg.sender */\n  0x0100\n  exp\n  dup2\n  sload\n  dup2\n  0xffffffffffffffffffffffffffffffffffffffff\n  mul\n  not\n  and\n  swap1\n  dup4\n  0xffffffffffffffffffffffffffffffffffffffff\n  and\n  mul\n  or\n  swap1\n  sstore\n  pop\n    /* \"contracts/salary.sol\":65:4849  contract salary{\r... */\n  dataSize(sub_0)\n  dup1\n  dataOffset(sub_0)\n  0x00\n  codecopy\n  0x00\n  return\nstop\n\nsub_0: assembly {\n        /* \"contracts/salary.sol\":65:4849  contract salary{\r... */\n      mstore(0x40, 0x80)\n      jumpi(tag_1, lt(calldatasize, 0x04))\n      shr(0xe0, calldataload(0x00))\n      dup1\n      0x04b642a4\n      eq\n      tag_2\n      jumpi\n      dup1\n      0x18c7a051\n      eq\n      tag_3\n      jumpi\n      dup1\n      0x7a7e4369\n      eq\n      tag_4\n      jumpi\n      dup1\n      0xb58f421c\n      eq\n      tag_5\n      jumpi\n      dup1\n      0xd17106b7\n      eq\n      tag_6\n      jumpi\n      dup1\n      0xf851a440\n      eq\n      tag_7\n      jumpi\n    tag_1:\n      0x00\n      dup1\n      revert\n        /* \"contracts/salary.sol\":1729:2324  function sendingSalariesToEmployee() public   onlyAdmin {\r... */\n    tag_2:\n      callvalue\n      dup1\n      iszero\n      tag_8\n      jumpi\n      0x00\n      dup1\n      revert\n    tag_8:\n      pop\n      tag_9\n      tag_10\n      jump\t// in\n    tag_9:\n      stop\n        /* \"contracts/salary.sol\":2352:2787  function sendingSalaries(address payable  _ToEmployeAddress ,uint _amount)  public onlyAdmin  payable   returns  (uint){\r... */\n    tag_3:\n      tag_11\n      0x04\n      dup1\n      calldatasize\n      sub\n      dup2\n      add\n      swap1\n      tag_12\n      swap2\n      swap1\n      tag_13\n      jump\t// in\n    tag_12:\n      tag_14\n      jump\t// in\n    tag_11:\n      mload(0x40)\n      tag_15\n      swap2\n      swap1\n      tag_16\n      jump\t// in\n    tag_15:\n      mload(0x40)\n      dup1\n      swap2\n      sub\n      swap1\n      return\n        /* \"contracts/salary.sol\":1132:1669  function Employe_Registration (string memory name,  uint role,uint _Id_No,address payable _account_No, bool _paidStatus) public   {\r... */\n    tag_4:\n      callvalue\n      dup1\n      iszero\n      tag_17\n      jumpi\n      0x00\n      dup1\n      revert\n    tag_17:\n      pop\n      tag_18\n      0x04\n      dup1\n      calldatasize\n      sub\n      dup2\n      add\n      swap1\n      tag_19\n      swap2\n      swap1\n      tag_20\n      jump\t// in\n    tag_19:\n      tag_21\n      jump\t// in\n    tag_18:\n      stop\n        /* \"contracts/salary.sol\":700:729  Employe [] public AllEmployes */\n    tag_5:\n      callvalue\n      dup1\n      iszero\n      tag_22\n      jumpi\n      0x00\n      dup1\n      revert\n    tag_22:\n      pop\n      tag_23\n      0x04\n      dup1\n      calldatasize\n      sub\n      dup2\n      add\n      swap1\n      tag_24\n      swap2\n      swap1\n      tag_25\n      jump\t// in\n    tag_24:\n      tag_26\n      jump\t// in\n    tag_23:\n      mload(0x40)\n      tag_27\n      swap6\n      swap5\n      swap4\n      swap3\n      swap2\n      swap1\n      tag_28\n      jump\t// in\n    tag_27:\n      mload(0x40)\n      dup1\n      swap2\n      sub\n      swap1\n      return\n        /* \"contracts/salary.sol\":618:670  mapping (address=>Employe) public GetEmployeeDetails */\n    tag_6:\n      callvalue\n      dup1\n      iszero\n      tag_29\n      jumpi\n      0x00\n      dup1\n      revert\n    tag_29:\n      pop\n      tag_30\n      0x04\n      dup1\n      calldatasize\n      sub\n      dup2\n      add\n      swap1\n      tag_31\n      swap2\n      swap1\n      tag_32\n      jump\t// in\n    tag_31:\n      tag_33\n      jump\t// in\n    tag_30:\n      mload(0x40)\n      tag_34\n      swap6\n      swap5\n      swap4\n      swap3\n      swap2\n      swap1\n      tag_28\n      jump\t// in\n    tag_34:\n      mload(0x40)\n      dup1\n      swap2\n      sub\n      swap1\n      return\n        /* \"contracts/salary.sol\":123:143  address public admin */\n    tag_7:\n      callvalue\n      dup1\n      iszero\n      tag_35\n      jumpi\n      0x00\n      dup1\n      revert\n    tag_35:\n      pop\n      tag_36\n      tag_37\n      jump\t// in\n    tag_36:\n      mload(0x40)\n      tag_38\n      swap2\n      swap1\n      tag_39\n      jump\t// in\n    tag_38:\n      mload(0x40)\n      dup1\n      swap2\n      sub\n      swap1\n      return\n        /* \"contracts/salary.sol\":1729:2324  function sendingSalariesToEmployee() public   onlyAdmin {\r... */\n    tag_10:\n        /* \"contracts/salary.sol\":795:800  admin */\n      0x00\n      dup1\n      sload\n      swap1\n      0x0100\n      exp\n      swap1\n      div\n      0xffffffffffffffffffffffffffffffffffffffff\n      and\n        /* \"contracts/salary.sol\":783:800  msg.sender==admin */\n      0xffffffffffffffffffffffffffffffffffffffff\n      and\n        /* \"contracts/salary.sol\":783:793  msg.sender */\n      caller\n        /* \"contracts/salary.sol\":783:800  msg.sender==admin */\n      0xffffffffffffffffffffffffffffffffffffffff\n      and\n      eq\n        /* \"contracts/salary.sol\":775:826  require(msg.sender==admin,\"you don't have rights \") */\n      tag_41\n      jumpi\n      mload(0x40)\n      0x08c379a000000000000000000000000000000000000000000000000000000000\n      dup2\n      mstore\n      0x04\n      add\n      tag_42\n      swap1\n      tag_43\n      jump\t// in\n    tag_42:\n      mload(0x40)\n      dup1\n      swap2\n      sub\n      swap1\n      revert\n    tag_41:\n        /* \"contracts/salary.sol\":1810:1819  uint256 i */\n      0x00\n        /* \"contracts/salary.sol\":1806:2317  for(uint256 i= 0; i<AllEmployes.length; i++){\r... */\n    tag_45:\n        /* \"contracts/salary.sol\":1826:1837  AllEmployes */\n      0x04\n        /* \"contracts/salary.sol\":1826:1844  AllEmployes.length */\n      dup1\n      sload\n      swap1\n      pop\n        /* \"contracts/salary.sol\":1824:1825  i */\n      dup2\n        /* \"contracts/salary.sol\":1824:1844  i<AllEmployes.length */\n      lt\n        /* \"contracts/salary.sol\":1806:2317  for(uint256 i= 0; i<AllEmployes.length; i++){\r... */\n      iszero\n      tag_46\n      jumpi\n        /* \"contracts/salary.sol\":1867:1878  AllEmployes */\n      0x04\n        /* \"contracts/salary.sol\":1879:1880  i */\n      dup2\n        /* \"contracts/salary.sol\":1867:1881  AllEmployes[i] */\n      dup2\n      sload\n      dup2\n      lt\n      tag_48\n      jumpi\n      tag_49\n      tag_50\n      jump\t// in\n    tag_49:\n    tag_48:\n      swap1\n      0x00\n      mstore\n      keccak256(0x00, 0x20)\n      swap1\n      0x04\n      mul\n      add\n        /* \"contracts/salary.sol\":1867:1893  AllEmployes[i].paid_status */\n      0x03\n      add\n      0x14\n      swap1\n      sload\n      swap1\n      0x0100\n      exp\n      swap1\n      div\n      0xff\n      and\n        /* \"contracts/salary.sol\":1862:2306  if (!AllEmployes[i].paid_status)\r... */\n      tag_52\n      jumpi\n        /* \"contracts/salary.sol\":1949:1950  1 */\n      0x01\n        /* \"contracts/salary.sol\":1926:1937  AllEmployes */\n      0x04\n        /* \"contracts/salary.sol\":1938:1939  i */\n      dup3\n        /* \"contracts/salary.sol\":1926:1940  AllEmployes[i] */\n      dup2\n      sload\n      dup2\n      lt\n      tag_53\n      jumpi\n      tag_54\n      tag_50\n      jump\t// in\n    tag_54:\n    tag_53:\n      swap1\n      0x00\n      mstore\n      keccak256(0x00, 0x20)\n      swap1\n      0x04\n      mul\n      add\n        /* \"contracts/salary.sol\":1926:1945  AllEmployes[i].role */\n      0x01\n      add\n      sload\n        /* \"contracts/salary.sol\":1926:1950  AllEmployes[i].role == 1 */\n      eq\n        /* \"contracts/salary.sol\":1922:2295  if( AllEmployes[i].role == 1)\r... */\n      iszero\n      tag_56\n      jumpi\n        /* \"contracts/salary.sol\":1984:2037  sendingSalaries(AllEmployes[i].account_No,SalaryOfP1) */\n      tag_57\n        /* \"contracts/salary.sol\":2000:2011  AllEmployes */\n      0x04\n        /* \"contracts/salary.sol\":2012:2013  i */\n      dup3\n        /* \"contracts/salary.sol\":2000:2014  AllEmployes[i] */\n      dup2\n      sload\n      dup2\n      lt\n      tag_58\n      jumpi\n      tag_59\n      tag_50\n      jump\t// in\n    tag_59:\n    tag_58:\n      swap1\n      0x00\n      mstore\n      keccak256(0x00, 0x20)\n      swap1\n      0x04\n      mul\n      add\n        /* \"contracts/salary.sol\":2000:2025  AllEmployes[i].account_No */\n      0x03\n      add\n      0x00\n      swap1\n      sload\n      swap1\n      0x0100\n      exp\n      swap1\n      div\n      0xffffffffffffffffffffffffffffffffffffffff\n      and\n        /* \"contracts/salary.sol\":2026:2036  SalaryOfP1 */\n      sload(0x01)\n        /* \"contracts/salary.sol\":1984:1999  sendingSalaries */\n      tag_14\n        /* \"contracts/salary.sol\":1984:2037  sendingSalaries(AllEmployes[i].account_No,SalaryOfP1) */\n      jump\t// in\n    tag_57:\n      pop\n        /* \"contracts/salary.sol\":2083:2087  true */\n      0x01\n        /* \"contracts/salary.sol\":2056:2067  AllEmployes */\n      0x04\n        /* \"contracts/salary.sol\":2068:2069  i */\n      dup3\n        /* \"contracts/salary.sol\":2056:2070  AllEmployes[i] */\n      dup2\n      sload\n      dup2\n      lt\n      tag_61\n      jumpi\n      tag_62\n      tag_50\n      jump\t// in\n    tag_62:\n    tag_61:\n      swap1\n      0x00\n      mstore\n      keccak256(0x00, 0x20)\n      swap1\n      0x04\n      mul\n      add\n        /* \"contracts/salary.sol\":2056:2082  AllEmployes[i].paid_status */\n      0x03\n      add\n      0x14\n        /* \"contracts/salary.sol\":2056:2087  AllEmployes[i].paid_status=true */\n      0x0100\n      exp\n      dup2\n      sload\n      dup2\n      0xff\n      mul\n      not\n      and\n      swap1\n      dup4\n      iszero\n      iszero\n      mul\n      or\n      swap1\n      sstore\n      pop\n        /* \"contracts/salary.sol\":1922:2295  if( AllEmployes[i].role == 1)\r... */\n      jump(tag_64)\n    tag_56:\n        /* \"contracts/salary.sol\":2153:2154  2 */\n      0x02\n        /* \"contracts/salary.sol\":2130:2141  AllEmployes */\n      0x04\n        /* \"contracts/salary.sol\":2142:2143  i */\n      dup3\n        /* \"contracts/salary.sol\":2130:2144  AllEmployes[i] */\n      dup2\n      sload\n      dup2\n      lt\n      tag_65\n      jumpi\n      tag_66\n      tag_50\n      jump\t// in\n    tag_66:\n    tag_65:\n      swap1\n      0x00\n      mstore\n      keccak256(0x00, 0x20)\n      swap1\n      0x04\n      mul\n      add\n        /* \"contracts/salary.sol\":2130:2149  AllEmployes[i].role */\n      0x01\n      add\n      sload\n        /* \"contracts/salary.sol\":2130:2154  AllEmployes[i].role == 2 */\n      eq\n        /* \"contracts/salary.sol\":2126:2295  if (AllEmployes[i].role == 2 ){\r... */\n      iszero\n      tag_68\n      jumpi\n        /* \"contracts/salary.sol\":2175:2228  sendingSalaries(AllEmployes[i].account_No,SalaryOfP2) */\n      tag_69\n        /* \"contracts/salary.sol\":2191:2202  AllEmployes */\n      0x04\n        /* \"contracts/salary.sol\":2203:2204  i */\n      dup3\n        /* \"contracts/salary.sol\":2191:2205  AllEmployes[i] */\n      dup2\n      sload\n      dup2\n      lt\n      tag_70\n      jumpi\n      tag_71\n      tag_50\n      jump\t// in\n    tag_71:\n    tag_70:\n      swap1\n      0x00\n      mstore\n      keccak256(0x00, 0x20)\n      swap1\n      0x04\n      mul\n      add\n        /* \"contracts/salary.sol\":2191:2216  AllEmployes[i].account_No */\n      0x03\n      add\n      0x00\n      swap1\n      sload\n      swap1\n      0x0100\n      exp\n      swap1\n      div\n      0xffffffffffffffffffffffffffffffffffffffff\n      and\n        /* \"contracts/salary.sol\":2217:2227  SalaryOfP2 */\n      sload(0x02)\n        /* \"contracts/salary.sol\":2175:2190  sendingSalaries */\n      tag_14\n        /* \"contracts/salary.sol\":2175:2228  sendingSalaries(AllEmployes[i].account_No,SalaryOfP2) */\n      jump\t// in\n    tag_69:\n      pop\n        /* \"contracts/salary.sol\":2274:2278  true */\n      0x01\n        /* \"contracts/salary.sol\":2247:2258  AllEmployes */\n      0x04\n        /* \"contracts/salary.sol\":2259:2260  i */\n      dup3\n        /* \"contracts/salary.sol\":2247:2261  AllEmployes[i] */\n      dup2\n      sload\n      dup2\n      lt\n      tag_73\n      jumpi\n      tag_74\n      tag_50\n      jump\t// in\n    tag_74:\n    tag_73:\n      swap1\n      0x00\n      mstore\n      keccak256(0x00, 0x20)\n      swap1\n      0x04\n      mul\n      add\n        /* \"contracts/salary.sol\":2247:2273  AllEmployes[i].paid_status */\n      0x03\n      add\n      0x14\n        /* \"contracts/salary.sol\":2247:2278  AllEmployes[i].paid_status=true */\n      0x0100\n      exp\n      dup2\n      sload\n      dup2\n      0xff\n      mul\n      not\n      and\n      swap1\n      dup4\n      iszero\n      iszero\n      mul\n      or\n      swap1\n      sstore\n      pop\n        /* \"contracts/salary.sol\":2126:2295  if (AllEmployes[i].role == 2 ){\r... */\n    tag_68:\n        /* \"contracts/salary.sol\":1922:2295  if( AllEmployes[i].role == 1)\r... */\n    tag_64:\n        /* \"contracts/salary.sol\":1862:2306  if (!AllEmployes[i].paid_status)\r... */\n    tag_52:\n        /* \"contracts/salary.sol\":1846:1849  i++ */\n      dup1\n      dup1\n      tag_76\n      swap1\n      tag_77\n      jump\t// in\n    tag_76:\n      swap2\n      pop\n      pop\n        /* \"contracts/salary.sol\":1806:2317  for(uint256 i= 0; i<AllEmployes.length; i++){\r... */\n      jump(tag_45)\n    tag_46:\n      pop\n        /* \"contracts/salary.sol\":1729:2324  function sendingSalariesToEmployee() public   onlyAdmin {\r... */\n      jump\t// out\n        /* \"contracts/salary.sol\":2352:2787  function sendingSalaries(address payable  _ToEmployeAddress ,uint _amount)  public onlyAdmin  payable   returns  (uint){\r... */\n    tag_14:\n        /* \"contracts/salary.sol\":2466:2470  uint */\n      0x00\n        /* \"contracts/salary.sol\":795:800  admin */\n      dup1\n      0x00\n      swap1\n      sload\n      swap1\n      0x0100\n      exp\n      swap1\n      div\n      0xffffffffffffffffffffffffffffffffffffffff\n      and\n        /* \"contracts/salary.sol\":783:800  msg.sender==admin */\n      0xffffffffffffffffffffffffffffffffffffffff\n      and\n        /* \"contracts/salary.sol\":783:793  msg.sender */\n      caller\n        /* \"contracts/salary.sol\":783:800  msg.sender==admin */\n      0xffffffffffffffffffffffffffffffffffffffff\n      and\n      eq\n        /* \"contracts/salary.sol\":775:826  require(msg.sender==admin,\"you don't have rights \") */\n      tag_79\n      jumpi\n      mload(0x40)\n      0x08c379a000000000000000000000000000000000000000000000000000000000\n      dup2\n      mstore\n      0x04\n      add\n      tag_80\n      swap1\n      tag_43\n      jump\t// in\n    tag_80:\n      mload(0x40)\n      dup1\n      swap2\n      sub\n      swap1\n      revert\n    tag_79:\n        /* \"contracts/salary.sol\":2491:2509  GetEmployeeDetails */\n      0x03\n        /* \"contracts/salary.sol\":2491:2528  GetEmployeeDetails[_ToEmployeAddress] */\n      0x00\n        /* \"contracts/salary.sol\":2510:2527  _ToEmployeAddress */\n      dup5\n        /* \"contracts/salary.sol\":2491:2528  GetEmployeeDetails[_ToEmployeAddress] */\n      0xffffffffffffffffffffffffffffffffffffffff\n      and\n      0xffffffffffffffffffffffffffffffffffffffff\n      and\n      dup2\n      mstore\n      0x20\n      add\n      swap1\n      dup2\n      mstore\n      0x20\n      add\n      0x00\n      keccak256\n        /* \"contracts/salary.sol\":2491:2540  GetEmployeeDetails[_ToEmployeAddress].paid_status */\n      0x03\n      add\n      0x14\n      swap1\n      sload\n      swap1\n      0x0100\n      exp\n      swap1\n      div\n      0xff\n      and\n        /* \"contracts/salary.sol\":2490:2540  !GetEmployeeDetails[_ToEmployeAddress].paid_status */\n      iszero\n        /* \"contracts/salary.sol\":2482:2569  require(!GetEmployeeDetails[_ToEmployeAddress].paid_status,\"Salary already is creited\") */\n      tag_82\n      jumpi\n      mload(0x40)\n      0x08c379a000000000000000000000000000000000000000000000000000000000\n      dup2\n      mstore\n      0x04\n      add\n      tag_83\n      swap1\n      tag_84\n      jump\t// in\n    tag_83:\n      mload(0x40)\n      dup1\n      swap2\n      sub\n      swap1\n      revert\n    tag_82:\n        /* \"contracts/salary.sol\":2582:2594  bool sending */\n      0x00\n        /* \"contracts/salary.sol\":2597:2614  _ToEmployeAddress */\n      dup4\n        /* \"contracts/salary.sol\":2597:2619  _ToEmployeAddress.send */\n      0xffffffffffffffffffffffffffffffffffffffff\n      and\n        /* \"contracts/salary.sol\":2597:2628  _ToEmployeAddress.send(_amount) */\n      0x08fc\n        /* \"contracts/salary.sol\":2620:2627  _amount */\n      dup5\n        /* \"contracts/salary.sol\":2597:2628  _ToEmployeAddress.send(_amount) */\n      swap1\n      dup2\n      iszero\n      mul\n      swap1\n      mload(0x40)\n      0x00\n      mload(0x40)\n      dup1\n      dup4\n      sub\n      dup2\n      dup6\n      dup9\n      dup9\n      call\n      swap4\n      pop\n      pop\n      pop\n      pop\n        /* \"contracts/salary.sol\":2582:2628  bool sending = _ToEmployeAddress.send(_amount) */\n      swap1\n      pop\n        /* \"contracts/salary.sol\":2647:2654  sending */\n      dup1\n        /* \"contracts/salary.sol\":2639:2678  require(sending,\"Failed to send ETHER\") */\n      tag_86\n      jumpi\n      mload(0x40)\n      0x08c379a000000000000000000000000000000000000000000000000000000000\n      dup2\n      mstore\n      0x04\n      add\n      tag_87\n      swap1\n      tag_88\n      jump\t// in\n    tag_87:\n      mload(0x40)\n      dup1\n      swap2\n      sub\n      swap1\n      revert\n    tag_86:\n        /* \"contracts/salary.sol\":2765:2774  msg.value */\n      callvalue\n        /* \"contracts/salary.sol\":2757:2774  return  msg.value */\n      swap2\n      pop\n      pop\n        /* \"contracts/salary.sol\":2352:2787  function sendingSalaries(address payable  _ToEmployeAddress ,uint _amount)  public onlyAdmin  payable   returns  (uint){\r... */\n      swap3\n      swap2\n      pop\n      pop\n      jump\t// out\n        /* \"contracts/salary.sol\":1132:1669  function Employe_Registration (string memory name,  uint role,uint _Id_No,address payable _account_No, bool _paidStatus) public   {\r... */\n    tag_21:\n        /* \"contracts/salary.sol\":1327:1338  _account_No */\n      dup2\n        /* \"contracts/salary.sol\":1281:1338  GetEmployeeDetails[_account_No].account_No != _account_No */\n      0xffffffffffffffffffffffffffffffffffffffff\n      and\n        /* \"contracts/salary.sol\":1281:1299  GetEmployeeDetails */\n      0x03\n        /* \"contracts/salary.sol\":1281:1312  GetEmployeeDetails[_account_No] */\n      0x00\n        /* \"contracts/salary.sol\":1300:1311  _account_No */\n      dup5\n        /* \"contracts/salary.sol\":1281:1312  GetEmployeeDetails[_account_No] */\n      0xffffffffffffffffffffffffffffffffffffffff\n      and\n      0xffffffffffffffffffffffffffffffffffffffff\n      and\n      dup2\n      mstore\n      0x20\n      add\n      swap1\n      dup2\n      mstore\n      0x20\n      add\n      0x00\n      keccak256\n        /* \"contracts/salary.sol\":1281:1323  GetEmployeeDetails[_account_No].account_No */\n      0x03\n      add\n      0x00\n      swap1\n      sload\n      swap1\n      0x0100\n      exp\n      swap1\n      div\n      0xffffffffffffffffffffffffffffffffffffffff\n      and\n        /* \"contracts/salary.sol\":1281:1338  GetEmployeeDetails[_account_No].account_No != _account_No */\n      0xffffffffffffffffffffffffffffffffffffffff\n      and\n      eq\n      iszero\n        /* \"contracts/salary.sol\":1273:1363  require(GetEmployeeDetails[_account_No].account_No != _account_No,\"user already register\") */\n      tag_90\n      jumpi\n      mload(0x40)\n      0x08c379a000000000000000000000000000000000000000000000000000000000\n      dup2\n      mstore\n      0x04\n      add\n      tag_91\n      swap1\n      tag_92\n      jump\t// in\n    tag_91:\n      mload(0x40)\n      dup1\n      swap2\n      sub\n      swap1\n      revert\n    tag_90:\n        /* \"contracts/salary.sol\":1374:1398  Employe storage  employe */\n      0x00\n        /* \"contracts/salary.sol\":1401:1419  GetEmployeeDetails */\n      0x03\n        /* \"contracts/salary.sol\":1401:1432  GetEmployeeDetails[_account_No] */\n      0x00\n        /* \"contracts/salary.sol\":1420:1431  _account_No */\n      dup5\n        /* \"contracts/salary.sol\":1401:1432  GetEmployeeDetails[_account_No] */\n      0xffffffffffffffffffffffffffffffffffffffff\n      and\n      0xffffffffffffffffffffffffffffffffffffffff\n      and\n      dup2\n      mstore\n      0x20\n      add\n      swap1\n      dup2\n      mstore\n      0x20\n      add\n      0x00\n      keccak256\n        /* \"contracts/salary.sol\":1374:1432  Employe storage  employe = GetEmployeeDetails[_account_No] */\n      swap1\n      pop\n        /* \"contracts/salary.sol\":1456:1460  name */\n      dup6\n        /* \"contracts/salary.sol\":1443:1450  employe */\n      dup2\n        /* \"contracts/salary.sol\":1443:1455  employe.name */\n      0x00\n      add\n        /* \"contracts/salary.sol\":1443:1460  employe.name=name */\n      swap1\n      dup1\n      mload\n      swap1\n      0x20\n      add\n      swap1\n      tag_93\n      swap3\n      swap2\n      swap1\n      tag_94\n      jump\t// in\n    tag_93:\n      pop\n        /* \"contracts/salary.sol\":1484:1488  role */\n      dup5\n        /* \"contracts/salary.sol\":1471:1478  employe */\n      dup2\n        /* \"contracts/salary.sol\":1471:1483  employe.role */\n      0x01\n      add\n        /* \"contracts/salary.sol\":1471:1488  employe.role=role */\n      dup2\n      swap1\n      sstore\n      pop\n        /* \"contracts/salary.sol\":1513:1519  _Id_No */\n      dup4\n        /* \"contracts/salary.sol\":1499:1506  employe */\n      dup2\n        /* \"contracts/salary.sol\":1499:1512  employe.Id_No */\n      0x02\n      add\n        /* \"contracts/salary.sol\":1499:1519  employe.Id_No=_Id_No */\n      dup2\n      swap1\n      sstore\n      pop\n        /* \"contracts/salary.sol\":1549:1560  _account_No */\n      dup3\n        /* \"contracts/salary.sol\":1530:1537  employe */\n      dup2\n        /* \"contracts/salary.sol\":1530:1548  employe.account_No */\n      0x03\n      add\n      0x00\n        /* \"contracts/salary.sol\":1530:1560  employe.account_No=_account_No */\n      0x0100\n      exp\n      dup2\n      sload\n      dup2\n      0xffffffffffffffffffffffffffffffffffffffff\n      mul\n      not\n      and\n      swap1\n      dup4\n      0xffffffffffffffffffffffffffffffffffffffff\n      and\n      mul\n      or\n      swap1\n      sstore\n      pop\n        /* \"contracts/salary.sol\":1591:1602  _paidStatus */\n      dup2\n        /* \"contracts/salary.sol\":1571:1578  employe */\n      dup2\n        /* \"contracts/salary.sol\":1571:1590  employe.paid_status */\n      0x03\n      add\n      0x14\n        /* \"contracts/salary.sol\":1571:1602  employe.paid_status=_paidStatus */\n      0x0100\n      exp\n      dup2\n      sload\n      dup2\n      0xff\n      mul\n      not\n      and\n      swap1\n      dup4\n      iszero\n      iszero\n      mul\n      or\n      swap1\n      sstore\n      pop\n        /* \"contracts/salary.sol\":1626:1637  AllEmployes */\n      0x04\n        /* \"contracts/salary.sol\":1643:1650  employe */\n      dup2\n        /* \"contracts/salary.sol\":1626:1651  AllEmployes.push(employe) */\n      swap1\n      dup1\n      0x01\n      dup2\n      sload\n      add\n      dup1\n      dup3\n      sstore\n      dup1\n      swap2\n      pop\n      pop\n      0x01\n      swap1\n      sub\n      swap1\n      0x00\n      mstore\n      keccak256(0x00, 0x20)\n      swap1\n      0x04\n      mul\n      add\n      0x00\n      swap1\n      swap2\n      swap1\n      swap2\n      swap1\n      swap2\n      pop\n      0x00\n      dup3\n      add\n      dup2\n      0x00\n      add\n      swap1\n      dup1\n      sload\n      tag_96\n      swap1\n      tag_97\n      jump\t// in\n    tag_96:\n      tag_98\n      swap3\n      swap2\n      swap1\n      tag_99\n      jump\t// in\n    tag_98:\n      pop\n      0x01\n      dup3\n      add\n      sload\n      dup2\n      0x01\n      add\n      sstore\n      0x02\n      dup3\n      add\n      sload\n      dup2\n      0x02\n      add\n      sstore\n      0x03\n      dup3\n      add\n      0x00\n      swap1\n      sload\n      swap1\n      0x0100\n      exp\n      swap1\n      div\n      0xffffffffffffffffffffffffffffffffffffffff\n      and\n      dup2\n      0x03\n      add\n      exp(0x0100, 0x00)\n      dup2\n      sload\n      dup2\n      0xffffffffffffffffffffffffffffffffffffffff\n      mul\n      not\n      and\n      swap1\n      dup4\n      0xffffffffffffffffffffffffffffffffffffffff\n      and\n      mul\n      or\n      swap1\n      sstore\n      pop\n      0x03\n      dup3\n      add\n      0x14\n      swap1\n      sload\n      swap1\n      0x0100\n      exp\n      swap1\n      div\n      0xff\n      and\n      dup2\n      0x03\n      add\n      exp(0x0100, 0x14)\n      dup2\n      sload\n      dup2\n      0xff\n      mul\n      not\n      and\n      swap1\n      dup4\n      iszero\n      iszero\n      mul\n      or\n      swap1\n      sstore\n      pop\n      pop\n      pop\n        /* \"contracts/salary.sol\":1262:1669  {\r... */\n      pop\n        /* \"contracts/salary.sol\":1132:1669  function Employe_Registration (string memory name,  uint role,uint _Id_No,address payable _account_No, bool _paidStatus) public   {\r... */\n      pop\n      pop\n      pop\n      pop\n      pop\n      jump\t// out\n        /* \"contracts/salary.sol\":700:729  Employe [] public AllEmployes */\n    tag_26:\n      0x04\n      dup2\n      dup2\n      sload\n      dup2\n      lt\n      tag_100\n      jumpi\n      0x00\n      dup1\n      revert\n    tag_100:\n      swap1\n      0x00\n      mstore\n      keccak256(0x00, 0x20)\n      swap1\n      0x04\n      mul\n      add\n      0x00\n      swap2\n      pop\n      swap1\n      pop\n      dup1\n      0x00\n      add\n      dup1\n      sload\n      tag_102\n      swap1\n      tag_97\n      jump\t// in\n    tag_102:\n      dup1\n      0x1f\n      add\n      0x20\n      dup1\n      swap2\n      div\n      mul\n      0x20\n      add\n      mload(0x40)\n      swap1\n      dup2\n      add\n      0x40\n      mstore\n      dup1\n      swap3\n      swap2\n      swap1\n      dup2\n      dup2\n      mstore\n      0x20\n      add\n      dup3\n      dup1\n      sload\n      tag_103\n      swap1\n      tag_97\n      jump\t// in\n    tag_103:\n      dup1\n      iszero\n      tag_104\n      jumpi\n      dup1\n      0x1f\n      lt\n      tag_105\n      jumpi\n      0x0100\n      dup1\n      dup4\n      sload\n      div\n      mul\n      dup4\n      mstore\n      swap2\n      0x20\n      add\n      swap2\n      jump(tag_104)\n    tag_105:\n      dup3\n      add\n      swap2\n      swap1\n      0x00\n      mstore\n      keccak256(0x00, 0x20)\n      swap1\n    tag_106:\n      dup2\n      sload\n      dup2\n      mstore\n      swap1\n      0x01\n      add\n      swap1\n      0x20\n      add\n      dup1\n      dup4\n      gt\n      tag_106\n      jumpi\n      dup3\n      swap1\n      sub\n      0x1f\n      and\n      dup3\n      add\n      swap2\n    tag_104:\n      pop\n      pop\n      pop\n      pop\n      pop\n      swap1\n      dup1\n      0x01\n      add\n      sload\n      swap1\n      dup1\n      0x02\n      add\n      sload\n      swap1\n      dup1\n      0x03\n      add\n      0x00\n      swap1\n      sload\n      swap1\n      0x0100\n      exp\n      swap1\n      div\n      0xffffffffffffffffffffffffffffffffffffffff\n      and\n      swap1\n      dup1\n      0x03\n      add\n      0x14\n      swap1\n      sload\n      swap1\n      0x0100\n      exp\n      swap1\n      div\n      0xff\n      and\n      swap1\n      pop\n      dup6\n      jump\t// out\n        /* \"contracts/salary.sol\":618:670  mapping (address=>Employe) public GetEmployeeDetails */\n    tag_33:\n      mstore(0x20, 0x03)\n      dup1\n      0x00\n      mstore\n      keccak256(0x00, 0x40)\n      0x00\n      swap2\n      pop\n      swap1\n      pop\n      dup1\n      0x00\n      add\n      dup1\n      sload\n      tag_107\n      swap1\n      tag_97\n      jump\t// in\n    tag_107:\n      dup1\n      0x1f\n      add\n      0x20\n      dup1\n      swap2\n      div\n      mul\n      0x20\n      add\n      mload(0x40)\n      swap1\n      dup2\n      add\n      0x40\n      mstore\n      dup1\n      swap3\n      swap2\n      swap1\n      dup2\n      dup2\n      mstore\n      0x20\n      add\n      dup3\n      dup1\n      sload\n      tag_108\n      swap1\n      tag_97\n      jump\t// in\n    tag_108:\n      dup1\n      iszero\n      tag_109\n      jumpi\n      dup1\n      0x1f\n      lt\n      tag_110\n      jumpi\n      0x0100\n      dup1\n      dup4\n      sload\n      div\n      mul\n      dup4\n      mstore\n      swap2\n      0x20\n      add\n      swap2\n      jump(tag_109)\n    tag_110:\n      dup3\n      add\n      swap2\n      swap1\n      0x00\n      mstore\n      keccak256(0x00, 0x20)\n      swap1\n    tag_111:\n      dup2\n      sload\n      dup2\n      mstore\n      swap1\n      0x01\n      add\n      swap1\n      0x20\n      add\n      dup1\n      dup4\n      gt\n      tag_111\n      jumpi\n      dup3\n      swap1\n      sub\n      0x1f\n      and\n      dup3\n      add\n      swap2\n    tag_109:\n      pop\n      pop\n      pop\n      pop\n      pop\n      swap1\n      dup1\n      0x01\n      add\n      sload\n      swap1\n      dup1\n      0x02\n      add\n      sload\n      swap1\n      dup1\n      0x03\n      add\n      0x00\n      swap1\n      sload\n      swap1\n      0x0100\n      exp\n      swap1\n      div\n      0xffffffffffffffffffffffffffffffffffffffff\n      and\n      swap1\n      dup1\n      0x03\n      add\n      0x14\n      swap1\n      sload\n      swap1\n      0x0100\n      exp\n      swap1\n      div\n      0xff\n      and\n      swap1\n      pop\n      dup6\n      jump\t// out\n        /* \"contracts/salary.sol\":123:143  address public admin */\n    tag_37:\n      0x00\n      dup1\n      sload\n      swap1\n      0x0100\n      exp\n      swap1\n      div\n      0xffffffffffffffffffffffffffffffffffffffff\n      and\n      dup2\n      jump\t// out\n    tag_94:\n      dup3\n      dup1\n      sload\n      tag_112\n      swap1\n      tag_97\n      jump\t// in\n    tag_112:\n      swap1\n      0x00\n      mstore\n      keccak256(0x00, 0x20)\n      swap1\n      0x1f\n      add\n      0x20\n      swap1\n      div\n      dup2\n      add\n      swap3\n      dup3\n      tag_114\n      jumpi\n      0x00\n      dup6\n      sstore\n      jump(tag_113)\n    tag_114:\n      dup3\n      0x1f\n      lt\n      tag_115\n      jumpi\n      dup1\n      mload\n      not(0xff)\n      and\n      dup4\n      dup1\n      add\n      or\n      dup6\n      sstore\n      jump(tag_113)\n    tag_115:\n      dup3\n      dup1\n      add\n      0x01\n      add\n      dup6\n      sstore\n      dup3\n      iszero\n      tag_113\n      jumpi\n      swap2\n      dup3\n      add\n    tag_116:\n      dup3\n      dup2\n      gt\n      iszero\n      tag_117\n      jumpi\n      dup3\n      mload\n      dup3\n      sstore\n      swap2\n      0x20\n      add\n      swap2\n      swap1\n      0x01\n      add\n      swap1\n      jump(tag_116)\n    tag_117:\n    tag_113:\n      pop\n      swap1\n      pop\n      tag_118\n      swap2\n      swap1\n      tag_119\n      jump\t// in\n    tag_118:\n      pop\n      swap1\n      jump\t// out\n    tag_99:\n      dup3\n      dup1\n      sload\n      tag_120\n      swap1\n      tag_97\n      jump\t// in\n    tag_120:\n      swap1\n      0x00\n      mstore\n      keccak256(0x00, 0x20)\n      swap1\n      0x1f\n      add\n      0x20\n      swap1\n      div\n      dup2\n      add\n      swap3\n      dup3\n      tag_122\n      jumpi\n      0x00\n      dup6\n      sstore\n      jump(tag_121)\n    tag_122:\n      dup3\n      0x1f\n      lt\n      tag_123\n      jumpi\n      dup1\n      sload\n      dup6\n      sstore\n      jump(tag_121)\n    tag_123:\n      dup3\n      dup1\n      add\n      0x01\n      add\n      dup6\n      sstore\n      dup3\n      iszero\n      tag_121\n      jumpi\n      0x00\n      mstore\n      keccak256(0x00, 0x20)\n      swap2\n      0x1f\n      add\n      0x20\n      swap1\n      div\n      dup3\n      add\n    tag_124:\n      dup3\n      dup2\n      gt\n      iszero\n      tag_125\n      jumpi\n      dup3\n      sload\n      dup3\n      sstore\n      swap2\n      0x01\n      add\n      swap2\n      swap1\n      0x01\n      add\n      swap1\n      jump(tag_124)\n    tag_125:\n    tag_121:\n      pop\n      swap1\n      pop\n      tag_126\n      swap2\n      swap1\n      tag_119\n      jump\t// in\n    tag_126:\n      pop\n      swap1\n      jump\t// out\n    tag_119:\n    tag_127:\n      dup1\n      dup3\n      gt\n      iszero\n      tag_128\n      jumpi\n      0x00\n      dup2\n      0x00\n      swap1\n      sstore\n      pop\n      0x01\n      add\n      jump(tag_127)\n    tag_128:\n      pop\n      swap1\n      jump\t// out\n        /* \"#utility.yul\":7:419   */\n    tag_130:\n        /* \"#utility.yul\":85:90   */\n      0x00\n        /* \"#utility.yul\":110:176   */\n      tag_132\n        /* \"#utility.yul\":126:175   */\n      tag_133\n        /* \"#utility.yul\":168:174   */\n      dup5\n        /* \"#utility.yul\":126:175   */\n      tag_134\n      jump\t// in\n    tag_133:\n        /* \"#utility.yul\":110:176   */\n      tag_135\n      jump\t// in\n    tag_132:\n        /* \"#utility.yul\":101:176   */\n      swap1\n      pop\n        /* \"#utility.yul\":199:205   */\n      dup3\n        /* \"#utility.yul\":192:197   */\n      dup2\n        /* \"#utility.yul\":185:206   */\n      mstore\n        /* \"#utility.yul\":237:241   */\n      0x20\n        /* \"#utility.yul\":230:235   */\n      dup2\n        /* \"#utility.yul\":226:242   */\n      add\n        /* \"#utility.yul\":275:278   */\n      dup5\n        /* \"#utility.yul\":266:272   */\n      dup5\n        /* \"#utility.yul\":261:264   */\n      dup5\n        /* \"#utility.yul\":257:273   */\n      add\n        /* \"#utility.yul\":254:279   */\n      gt\n        /* \"#utility.yul\":251:363   */\n      iszero\n      tag_136\n      jumpi\n        /* \"#utility.yul\":282:361   */\n      tag_137\n      tag_138\n      jump\t// in\n    tag_137:\n        /* \"#utility.yul\":251:363   */\n    tag_136:\n        /* \"#utility.yul\":372:413   */\n      tag_139\n        /* \"#utility.yul\":406:412   */\n      dup5\n        /* \"#utility.yul\":401:404   */\n      dup3\n        /* \"#utility.yul\":396:399   */\n      dup6\n        /* \"#utility.yul\":372:413   */\n      tag_140\n      jump\t// in\n    tag_139:\n        /* \"#utility.yul\":91:419   */\n      pop\n        /* \"#utility.yul\":7:419   */\n      swap4\n      swap3\n      pop\n      pop\n      pop\n      jump\t// out\n        /* \"#utility.yul\":425:564   */\n    tag_141:\n        /* \"#utility.yul\":471:476   */\n      0x00\n        /* \"#utility.yul\":509:515   */\n      dup2\n        /* \"#utility.yul\":496:516   */\n      calldataload\n        /* \"#utility.yul\":487:516   */\n      swap1\n      pop\n        /* \"#utility.yul\":525:558   */\n      tag_143\n        /* \"#utility.yul\":552:557   */\n      dup2\n        /* \"#utility.yul\":525:558   */\n      tag_144\n      jump\t// in\n    tag_143:\n        /* \"#utility.yul\":425:564   */\n      swap3\n      swap2\n      pop\n      pop\n      jump\t// out\n        /* \"#utility.yul\":570:725   */\n    tag_145:\n        /* \"#utility.yul\":624:629   */\n      0x00\n        /* \"#utility.yul\":662:668   */\n      dup2\n        /* \"#utility.yul\":649:669   */\n      calldataload\n        /* \"#utility.yul\":640:669   */\n      swap1\n      pop\n        /* \"#utility.yul\":678:719   */\n      tag_147\n        /* \"#utility.yul\":713:718   */\n      dup2\n        /* \"#utility.yul\":678:719   */\n      tag_148\n      jump\t// in\n    tag_147:\n        /* \"#utility.yul\":570:725   */\n      swap3\n      swap2\n      pop\n      pop\n      jump\t// out\n        /* \"#utility.yul\":731:864   */\n    tag_149:\n        /* \"#utility.yul\":774:779   */\n      0x00\n        /* \"#utility.yul\":812:818   */\n      dup2\n        /* \"#utility.yul\":799:819   */\n      calldataload\n        /* \"#utility.yul\":790:819   */\n      swap1\n      pop\n        /* \"#utility.yul\":828:858   */\n      tag_151\n        /* \"#utility.yul\":852:857   */\n      dup2\n        /* \"#utility.yul\":828:858   */\n      tag_152\n      jump\t// in\n    tag_151:\n        /* \"#utility.yul\":731:864   */\n      swap3\n      swap2\n      pop\n      pop\n      jump\t// out\n        /* \"#utility.yul\":884:1224   */\n    tag_153:\n        /* \"#utility.yul\":940:945   */\n      0x00\n        /* \"#utility.yul\":989:992   */\n      dup3\n        /* \"#utility.yul\":982:986   */\n      0x1f\n        /* \"#utility.yul\":974:980   */\n      dup4\n        /* \"#utility.yul\":970:987   */\n      add\n        /* \"#utility.yul\":966:993   */\n      slt\n        /* \"#utility.yul\":956:1078   */\n      tag_155\n      jumpi\n        /* \"#utility.yul\":997:1076   */\n      tag_156\n      tag_157\n      jump\t// in\n    tag_156:\n        /* \"#utility.yul\":956:1078   */\n    tag_155:\n        /* \"#utility.yul\":1114:1120   */\n      dup2\n        /* \"#utility.yul\":1101:1121   */\n      calldataload\n        /* \"#utility.yul\":1139:1218   */\n      tag_158\n        /* \"#utility.yul\":1214:1217   */\n      dup5\n        /* \"#utility.yul\":1206:1212   */\n      dup3\n        /* \"#utility.yul\":1199:1203   */\n      0x20\n        /* \"#utility.yul\":1191:1197   */\n      dup7\n        /* \"#utility.yul\":1187:1204   */\n      add\n        /* \"#utility.yul\":1139:1218   */\n      tag_130\n      jump\t// in\n    tag_158:\n        /* \"#utility.yul\":1130:1218   */\n      swap2\n      pop\n        /* \"#utility.yul\":946:1224   */\n      pop\n        /* \"#utility.yul\":884:1224   */\n      swap3\n      swap2\n      pop\n      pop\n      jump\t// out\n        /* \"#utility.yul\":1230:1369   */\n    tag_159:\n        /* \"#utility.yul\":1276:1281   */\n      0x00\n        /* \"#utility.yul\":1314:1320   */\n      dup2\n        /* \"#utility.yul\":1301:1321   */\n      calldataload\n        /* \"#utility.yul\":1292:1321   */\n      swap1\n      pop\n        /* \"#utility.yul\":1330:1363   */\n      tag_161\n        /* \"#utility.yul\":1357:1362   */\n      dup2\n        /* \"#utility.yul\":1330:1363   */\n      tag_162\n      jump\t// in\n    tag_161:\n        /* \"#utility.yul\":1230:1369   */\n      swap3\n      swap2\n      pop\n      pop\n      jump\t// out\n        /* \"#utility.yul\":1375:1704   */\n    tag_32:\n        /* \"#utility.yul\":1434:1440   */\n      0x00\n        /* \"#utility.yul\":1483:1485   */\n      0x20\n        /* \"#utility.yul\":1471:1480   */\n      dup3\n        /* \"#utility.yul\":1462:1469   */\n      dup5\n        /* \"#utility.yul\":1458:1481   */\n      sub\n        /* \"#utility.yul\":1454:1486   */\n      slt\n        /* \"#utility.yul\":1451:1570   */\n      iszero\n      tag_164\n      jumpi\n        /* \"#utility.yul\":1489:1568   */\n      tag_165\n      tag_166\n      jump\t// in\n    tag_165:\n        /* \"#utility.yul\":1451:1570   */\n    tag_164:\n        /* \"#utility.yul\":1609:1610   */\n      0x00\n        /* \"#utility.yul\":1634:1687   */\n      tag_167\n        /* \"#utility.yul\":1679:1686   */\n      dup5\n        /* \"#utility.yul\":1670:1676   */\n      dup3\n        /* \"#utility.yul\":1659:1668   */\n      dup6\n        /* \"#utility.yul\":1655:1677   */\n      add\n        /* \"#utility.yul\":1634:1687   */\n      tag_141\n      jump\t// in\n    tag_167:\n        /* \"#utility.yul\":1624:1687   */\n      swap2\n      pop\n        /* \"#utility.yul\":1580:1697   */\n      pop\n        /* \"#utility.yul\":1375:1704   */\n      swap3\n      swap2\n      pop\n      pop\n      jump\t// out\n        /* \"#utility.yul\":1710:2200   */\n    tag_13:\n        /* \"#utility.yul\":1786:1792   */\n      0x00\n        /* \"#utility.yul\":1794:1800   */\n      dup1\n        /* \"#utility.yul\":1843:1845   */\n      0x40\n        /* \"#utility.yul\":1831:1840   */\n      dup4\n        /* \"#utility.yul\":1822:1829   */\n      dup6\n        /* \"#utility.yul\":1818:1841   */\n      sub\n        /* \"#utility.yul\":1814:1846   */\n      slt\n        /* \"#utility.yul\":1811:1930   */\n      iszero\n      tag_169\n      jumpi\n        /* \"#utility.yul\":1849:1928   */\n      tag_170\n      tag_166\n      jump\t// in\n    tag_170:\n        /* \"#utility.yul\":1811:1930   */\n    tag_169:\n        /* \"#utility.yul\":1969:1970   */\n      0x00\n        /* \"#utility.yul\":1994:2055   */\n      tag_171\n        /* \"#utility.yul\":2047:2054   */\n      dup6\n        /* \"#utility.yul\":2038:2044   */\n      dup3\n        /* \"#utility.yul\":2027:2036   */\n      dup7\n        /* \"#utility.yul\":2023:2045   */\n      add\n        /* \"#utility.yul\":1994:2055   */\n      tag_145\n      jump\t// in\n    tag_171:\n        /* \"#utility.yul\":1984:2055   */\n      swap3\n      pop\n        /* \"#utility.yul\":1940:2065   */\n      pop\n        /* \"#utility.yul\":2104:2106   */\n      0x20\n        /* \"#utility.yul\":2130:2183   */\n      tag_172\n        /* \"#utility.yul\":2175:2182   */\n      dup6\n        /* \"#utility.yul\":2166:2172   */\n      dup3\n        /* \"#utility.yul\":2155:2164   */\n      dup7\n        /* \"#utility.yul\":2151:2173   */\n      add\n        /* \"#utility.yul\":2130:2183   */\n      tag_159\n      jump\t// in\n    tag_172:\n        /* \"#utility.yul\":2120:2183   */\n      swap2\n      pop\n        /* \"#utility.yul\":2075:2193   */\n      pop\n        /* \"#utility.yul\":1710:2200   */\n      swap3\n      pop\n      swap3\n      swap1\n      pop\n      jump\t// out\n        /* \"#utility.yul\":2206:3307   */\n    tag_20:\n        /* \"#utility.yul\":2316:2322   */\n      0x00\n        /* \"#utility.yul\":2324:2330   */\n      dup1\n        /* \"#utility.yul\":2332:2338   */\n      0x00\n        /* \"#utility.yul\":2340:2346   */\n      dup1\n        /* \"#utility.yul\":2348:2354   */\n      0x00\n        /* \"#utility.yul\":2397:2400   */\n      0xa0\n        /* \"#utility.yul\":2385:2394   */\n      dup7\n        /* \"#utility.yul\":2376:2383   */\n      dup9\n        /* \"#utility.yul\":2372:2395   */\n      sub\n        /* \"#utility.yul\":2368:2401   */\n      slt\n        /* \"#utility.yul\":2365:2485   */\n      iszero\n      tag_174\n      jumpi\n        /* \"#utility.yul\":2404:2483   */\n      tag_175\n      tag_166\n      jump\t// in\n    tag_175:\n        /* \"#utility.yul\":2365:2485   */\n    tag_174:\n        /* \"#utility.yul\":2552:2553   */\n      0x00\n        /* \"#utility.yul\":2541:2550   */\n      dup7\n        /* \"#utility.yul\":2537:2554   */\n      add\n        /* \"#utility.yul\":2524:2555   */\n      calldataload\n        /* \"#utility.yul\":2582:2600   */\n      0xffffffffffffffff\n        /* \"#utility.yul\":2574:2580   */\n      dup2\n        /* \"#utility.yul\":2571:2601   */\n      gt\n        /* \"#utility.yul\":2568:2685   */\n      iszero\n      tag_176\n      jumpi\n        /* \"#utility.yul\":2604:2683   */\n      tag_177\n      tag_178\n      jump\t// in\n    tag_177:\n        /* \"#utility.yul\":2568:2685   */\n    tag_176:\n        /* \"#utility.yul\":2709:2772   */\n      tag_179\n        /* \"#utility.yul\":2764:2771   */\n      dup9\n        /* \"#utility.yul\":2755:2761   */\n      dup3\n        /* \"#utility.yul\":2744:2753   */\n      dup10\n        /* \"#utility.yul\":2740:2762   */\n      add\n        /* \"#utility.yul\":2709:2772   */\n      tag_153\n      jump\t// in\n    tag_179:\n        /* \"#utility.yul\":2699:2772   */\n      swap6\n      pop\n        /* \"#utility.yul\":2495:2782   */\n      pop\n        /* \"#utility.yul\":2821:2823   */\n      0x20\n        /* \"#utility.yul\":2847:2900   */\n      tag_180\n        /* \"#utility.yul\":2892:2899   */\n      dup9\n        /* \"#utility.yul\":2883:2889   */\n      dup3\n        /* \"#utility.yul\":2872:2881   */\n      dup10\n        /* \"#utility.yul\":2868:2890   */\n      add\n        /* \"#utility.yul\":2847:2900   */\n      tag_159\n      jump\t// in\n    tag_180:\n        /* \"#utility.yul\":2837:2900   */\n      swap5\n      pop\n        /* \"#utility.yul\":2792:2910   */\n      pop\n        /* \"#utility.yul\":2949:2951   */\n      0x40\n        /* \"#utility.yul\":2975:3028   */\n      tag_181\n        /* \"#utility.yul\":3020:3027   */\n      dup9\n        /* \"#utility.yul\":3011:3017   */\n      dup3\n        /* \"#utility.yul\":3000:3009   */\n      dup10\n        /* \"#utility.yul\":2996:3018   */\n      add\n        /* \"#utility.yul\":2975:3028   */\n      tag_159\n      jump\t// in\n    tag_181:\n        /* \"#utility.yul\":2965:3028   */\n      swap4\n      pop\n        /* \"#utility.yul\":2920:3038   */\n      pop\n        /* \"#utility.yul\":3077:3079   */\n      0x60\n        /* \"#utility.yul\":3103:3164   */\n      tag_182\n        /* \"#utility.yul\":3156:3163   */\n      dup9\n        /* \"#utility.yul\":3147:3153   */\n      dup3\n        /* \"#utility.yul\":3136:3145   */\n      dup10\n        /* \"#utility.yul\":3132:3154   */\n      add\n        /* \"#utility.yul\":3103:3164   */\n      tag_145\n      jump\t// in\n    tag_182:\n        /* \"#utility.yul\":3093:3164   */\n      swap3\n      pop\n        /* \"#utility.yul\":3048:3174   */\n      pop\n        /* \"#utility.yul\":3213:3216   */\n      0x80\n        /* \"#utility.yul\":3240:3290   */\n      tag_183\n        /* \"#utility.yul\":3282:3289   */\n      dup9\n        /* \"#utility.yul\":3273:3279   */\n      dup3\n        /* \"#utility.yul\":3262:3271   */\n      dup10\n        /* \"#utility.yul\":3258:3280   */\n      add\n        /* \"#utility.yul\":3240:3290   */\n      tag_149\n      jump\t// in\n    tag_183:\n        /* \"#utility.yul\":3230:3290   */\n      swap2\n      pop\n        /* \"#utility.yul\":3184:3300   */\n      pop\n        /* \"#utility.yul\":2206:3307   */\n      swap3\n      swap6\n      pop\n      swap3\n      swap6\n      swap1\n      swap4\n      pop\n      jump\t// out\n        /* \"#utility.yul\":3313:3642   */\n    tag_25:\n        /* \"#utility.yul\":3372:3378   */\n      0x00\n        /* \"#utility.yul\":3421:3423   */\n      0x20\n        /* \"#utility.yul\":3409:3418   */\n      dup3\n        /* \"#utility.yul\":3400:3407   */\n      dup5\n        /* \"#utility.yul\":3396:3419   */\n      sub\n        /* \"#utility.yul\":3392:3424   */\n      slt\n        /* \"#utility.yul\":3389:3508   */\n      iszero\n      tag_185\n      jumpi\n        /* \"#utility.yul\":3427:3506   */\n      tag_186\n      tag_166\n      jump\t// in\n    tag_186:\n        /* \"#utility.yul\":3389:3508   */\n    tag_185:\n        /* \"#utility.yul\":3547:3548   */\n      0x00\n        /* \"#utility.yul\":3572:3625   */\n      tag_187\n        /* \"#utility.yul\":3617:3624   */\n      dup5\n        /* \"#utility.yul\":3608:3614   */\n      dup3\n        /* \"#utility.yul\":3597:3606   */\n      dup6\n        /* \"#utility.yul\":3593:3615   */\n      add\n        /* \"#utility.yul\":3572:3625   */\n      tag_159\n      jump\t// in\n    tag_187:\n        /* \"#utility.yul\":3562:3625   */\n      swap2\n      pop\n        /* \"#utility.yul\":3518:3635   */\n      pop\n        /* \"#utility.yul\":3313:3642   */\n      swap3\n      swap2\n      pop\n      pop\n      jump\t// out\n        /* \"#utility.yul\":3648:3790   */\n    tag_188:\n        /* \"#utility.yul\":3751:3783   */\n      tag_190\n        /* \"#utility.yul\":3777:3782   */\n      dup2\n        /* \"#utility.yul\":3751:3783   */\n      tag_191\n      jump\t// in\n    tag_190:\n        /* \"#utility.yul\":3746:3749   */\n      dup3\n        /* \"#utility.yul\":3739:3784   */\n      mstore\n        /* \"#utility.yul\":3648:3790   */\n      pop\n      pop\n      jump\t// out\n        /* \"#utility.yul\":3796:3914   */\n    tag_192:\n        /* \"#utility.yul\":3883:3907   */\n      tag_194\n        /* \"#utility.yul\":3901:3906   */\n      dup2\n        /* \"#utility.yul\":3883:3907   */\n      tag_195\n      jump\t// in\n    tag_194:\n        /* \"#utility.yul\":3878:3881   */\n      dup3\n        /* \"#utility.yul\":3871:3908   */\n      mstore\n        /* \"#utility.yul\":3796:3914   */\n      pop\n      pop\n      jump\t// out\n        /* \"#utility.yul\":3920:4029   */\n    tag_196:\n        /* \"#utility.yul\":4001:4022   */\n      tag_198\n        /* \"#utility.yul\":4016:4021   */\n      dup2\n        /* \"#utility.yul\":4001:4022   */\n      tag_199\n      jump\t// in\n    tag_198:\n        /* \"#utility.yul\":3996:3999   */\n      dup3\n        /* \"#utility.yul\":3989:4023   */\n      mstore\n        /* \"#utility.yul\":3920:4029   */\n      pop\n      pop\n      jump\t// out\n        /* \"#utility.yul\":4035:4399   */\n    tag_200:\n        /* \"#utility.yul\":4123:4126   */\n      0x00\n        /* \"#utility.yul\":4151:4190   */\n      tag_202\n        /* \"#utility.yul\":4184:4189   */\n      dup3\n        /* \"#utility.yul\":4151:4190   */\n      tag_203\n      jump\t// in\n    tag_202:\n        /* \"#utility.yul\":4206:4277   */\n      tag_204\n        /* \"#utility.yul\":4270:4276   */\n      dup2\n        /* \"#utility.yul\":4265:4268   */\n      dup6\n        /* \"#utility.yul\":4206:4277   */\n      tag_205\n      jump\t// in\n    tag_204:\n        /* \"#utility.yul\":4199:4277   */\n      swap4\n      pop\n        /* \"#utility.yul\":4286:4338   */\n      tag_206\n        /* \"#utility.yul\":4331:4337   */\n      dup2\n        /* \"#utility.yul\":4326:4329   */\n      dup6\n        /* \"#utility.yul\":4319:4323   */\n      0x20\n        /* \"#utility.yul\":4312:4317   */\n      dup7\n        /* \"#utility.yul\":4308:4324   */\n      add\n        /* \"#utility.yul\":4286:4338   */\n      tag_207\n      jump\t// in\n    tag_206:\n        /* \"#utility.yul\":4363:4392   */\n      tag_208\n        /* \"#utility.yul\":4385:4391   */\n      dup2\n        /* \"#utility.yul\":4363:4392   */\n      tag_209\n      jump\t// in\n    tag_208:\n        /* \"#utility.yul\":4358:4361   */\n      dup5\n        /* \"#utility.yul\":4354:4393   */\n      add\n        /* \"#utility.yul\":4347:4393   */\n      swap2\n      pop\n        /* \"#utility.yul\":4127:4399   */\n      pop\n        /* \"#utility.yul\":4035:4399   */\n      swap3\n      swap2\n      pop\n      pop\n      jump\t// out\n        /* \"#utility.yul\":4405:4771   */\n    tag_210:\n        /* \"#utility.yul\":4547:4550   */\n      0x00\n        /* \"#utility.yul\":4568:4635   */\n      tag_212\n        /* \"#utility.yul\":4632:4634   */\n      0x14\n        /* \"#utility.yul\":4627:4630   */\n      dup4\n        /* \"#utility.yul\":4568:4635   */\n      tag_205\n      jump\t// in\n    tag_212:\n        /* \"#utility.yul\":4561:4635   */\n      swap2\n      pop\n        /* \"#utility.yul\":4644:4737   */\n      tag_213\n        /* \"#utility.yul\":4733:4736   */\n      dup3\n        /* \"#utility.yul\":4644:4737   */\n      tag_214\n      jump\t// in\n    tag_213:\n        /* \"#utility.yul\":4762:4764   */\n      0x20\n        /* \"#utility.yul\":4757:4760   */\n      dup3\n        /* \"#utility.yul\":4753:4765   */\n      add\n        /* \"#utility.yul\":4746:4765   */\n      swap1\n      pop\n        /* \"#utility.yul\":4405:4771   */\n      swap2\n      swap1\n      pop\n      jump\t// out\n        /* \"#utility.yul\":4777:5143   */\n    tag_215:\n        /* \"#utility.yul\":4919:4922   */\n      0x00\n        /* \"#utility.yul\":4940:5007   */\n      tag_217\n        /* \"#utility.yul\":5004:5006   */\n      0x16\n        /* \"#utility.yul\":4999:5002   */\n      dup4\n        /* \"#utility.yul\":4940:5007   */\n      tag_205\n      jump\t// in\n    tag_217:\n        /* \"#utility.yul\":4933:5007   */\n      swap2\n      pop\n        /* \"#utility.yul\":5016:5109   */\n      tag_218\n        /* \"#utility.yul\":5105:5108   */\n      dup3\n        /* \"#utility.yul\":5016:5109   */\n      tag_219\n      jump\t// in\n    tag_218:\n        /* \"#utility.yul\":5134:5136   */\n      0x20\n        /* \"#utility.yul\":5129:5132   */\n      dup3\n        /* \"#utility.yul\":5125:5137   */\n      add\n        /* \"#utility.yul\":5118:5137   */\n      swap1\n      pop\n        /* \"#utility.yul\":4777:5143   */\n      swap2\n      swap1\n      pop\n      jump\t// out\n        /* \"#utility.yul\":5149:5515   */\n    tag_220:\n        /* \"#utility.yul\":5291:5294   */\n      0x00\n        /* \"#utility.yul\":5312:5379   */\n      tag_222\n        /* \"#utility.yul\":5376:5378   */\n      0x19\n        /* \"#utility.yul\":5371:5374   */\n      dup4\n        /* \"#utility.yul\":5312:5379   */\n      tag_205\n      jump\t// in\n    tag_222:\n        /* \"#utility.yul\":5305:5379   */\n      swap2\n      pop\n        /* \"#utility.yul\":5388:5481   */\n      tag_223\n        /* \"#utility.yul\":5477:5480   */\n      dup3\n        /* \"#utility.yul\":5388:5481   */\n      tag_224\n      jump\t// in\n    tag_223:\n        /* \"#utility.yul\":5506:5508   */\n      0x20\n        /* \"#utility.yul\":5501:5504   */\n      dup3\n        /* \"#utility.yul\":5497:5509   */\n      add\n        /* \"#utility.yul\":5490:5509   */\n      swap1\n      pop\n        /* \"#utility.yul\":5149:5515   */\n      swap2\n      swap1\n      pop\n      jump\t// out\n        /* \"#utility.yul\":5521:5887   */\n    tag_225:\n        /* \"#utility.yul\":5663:5666   */\n      0x00\n        /* \"#utility.yul\":5684:5751   */\n      tag_227\n        /* \"#utility.yul\":5748:5750   */\n      0x15\n        /* \"#utility.yul\":5743:5746   */\n      dup4\n        /* \"#utility.yul\":5684:5751   */\n      tag_205\n      jump\t// in\n    tag_227:\n        /* \"#utility.yul\":5677:5751   */\n      swap2\n      pop\n        /* \"#utility.yul\":5760:5853   */\n      tag_228\n        /* \"#utility.yul\":5849:5852   */\n      dup3\n        /* \"#utility.yul\":5760:5853   */\n      tag_229\n      jump\t// in\n    tag_228:\n        /* \"#utility.yul\":5878:5880   */\n      0x20\n        /* \"#utility.yul\":5873:5876   */\n      dup3\n        /* \"#utility.yul\":5869:5881   */\n      add\n        /* \"#utility.yul\":5862:5881   */\n      swap1\n      pop\n        /* \"#utility.yul\":5521:5887   */\n      swap2\n      swap1\n      pop\n      jump\t// out\n        /* \"#utility.yul\":5893:6011   */\n    tag_230:\n        /* \"#utility.yul\":5980:6004   */\n      tag_232\n        /* \"#utility.yul\":5998:6003   */\n      dup2\n        /* \"#utility.yul\":5980:6004   */\n      tag_233\n      jump\t// in\n    tag_232:\n        /* \"#utility.yul\":5975:5978   */\n      dup3\n        /* \"#utility.yul\":5968:6005   */\n      mstore\n        /* \"#utility.yul\":5893:6011   */\n      pop\n      pop\n      jump\t// out\n        /* \"#utility.yul\":6017:6239   */\n    tag_39:\n        /* \"#utility.yul\":6110:6114   */\n      0x00\n        /* \"#utility.yul\":6148:6150   */\n      0x20\n        /* \"#utility.yul\":6137:6146   */\n      dup3\n        /* \"#utility.yul\":6133:6151   */\n      add\n        /* \"#utility.yul\":6125:6151   */\n      swap1\n      pop\n        /* \"#utility.yul\":6161:6232   */\n      tag_235\n        /* \"#utility.yul\":6229:6230   */\n      0x00\n        /* \"#utility.yul\":6218:6227   */\n      dup4\n        /* \"#utility.yul\":6214:6231   */\n      add\n        /* \"#utility.yul\":6205:6211   */\n      dup5\n        /* \"#utility.yul\":6161:6232   */\n      tag_192\n      jump\t// in\n    tag_235:\n        /* \"#utility.yul\":6017:6239   */\n      swap3\n      swap2\n      pop\n      pop\n      jump\t// out\n        /* \"#utility.yul\":6245:7020   */\n    tag_28:\n        /* \"#utility.yul\":6480:6484   */\n      0x00\n        /* \"#utility.yul\":6518:6521   */\n      0xa0\n        /* \"#utility.yul\":6507:6516   */\n      dup3\n        /* \"#utility.yul\":6503:6522   */\n      add\n        /* \"#utility.yul\":6495:6522   */\n      swap1\n      pop\n        /* \"#utility.yul\":6568:6577   */\n      dup2\n        /* \"#utility.yul\":6562:6566   */\n      dup2\n        /* \"#utility.yul\":6558:6578   */\n      sub\n        /* \"#utility.yul\":6554:6555   */\n      0x00\n        /* \"#utility.yul\":6543:6552   */\n      dup4\n        /* \"#utility.yul\":6539:6556   */\n      add\n        /* \"#utility.yul\":6532:6579   */\n      mstore\n        /* \"#utility.yul\":6596:6674   */\n      tag_237\n        /* \"#utility.yul\":6669:6673   */\n      dup2\n        /* \"#utility.yul\":6660:6666   */\n      dup9\n        /* \"#utility.yul\":6596:6674   */\n      tag_200\n      jump\t// in\n    tag_237:\n        /* \"#utility.yul\":6588:6674   */\n      swap1\n      pop\n        /* \"#utility.yul\":6684:6756   */\n      tag_238\n        /* \"#utility.yul\":6752:6754   */\n      0x20\n        /* \"#utility.yul\":6741:6750   */\n      dup4\n        /* \"#utility.yul\":6737:6755   */\n      add\n        /* \"#utility.yul\":6728:6734   */\n      dup8\n        /* \"#utility.yul\":6684:6756   */\n      tag_230\n      jump\t// in\n    tag_238:\n        /* \"#utility.yul\":6766:6838   */\n      tag_239\n        /* \"#utility.yul\":6834:6836   */\n      0x40\n        /* \"#utility.yul\":6823:6832   */\n      dup4\n        /* \"#utility.yul\":6819:6837   */\n      add\n        /* \"#utility.yul\":6810:6816   */\n      dup7\n        /* \"#utility.yul\":6766:6838   */\n      tag_230\n      jump\t// in\n    tag_239:\n        /* \"#utility.yul\":6848:6936   */\n      tag_240\n        /* \"#utility.yul\":6932:6934   */\n      0x60\n        /* \"#utility.yul\":6921:6930   */\n      dup4\n        /* \"#utility.yul\":6917:6935   */\n      add\n        /* \"#utility.yul\":6908:6914   */\n      dup6\n        /* \"#utility.yul\":6848:6936   */\n      tag_188\n      jump\t// in\n    tag_240:\n        /* \"#utility.yul\":6946:7013   */\n      tag_241\n        /* \"#utility.yul\":7008:7011   */\n      0x80\n        /* \"#utility.yul\":6997:7006   */\n      dup4\n        /* \"#utility.yul\":6993:7012   */\n      add\n        /* \"#utility.yul\":6984:6990   */\n      dup5\n        /* \"#utility.yul\":6946:7013   */\n      tag_196\n      jump\t// in\n    tag_241:\n        /* \"#utility.yul\":6245:7020   */\n      swap7\n      swap6\n      pop\n      pop\n      pop\n      pop\n      pop\n      pop\n      jump\t// out\n        /* \"#utility.yul\":7026:7445   */\n    tag_88:\n        /* \"#utility.yul\":7192:7196   */\n      0x00\n        /* \"#utility.yul\":7230:7232   */\n      0x20\n        /* \"#utility.yul\":7219:7228   */\n      dup3\n        /* \"#utility.yul\":7215:7233   */\n      add\n        /* \"#utility.yul\":7207:7233   */\n      swap1\n      pop\n        /* \"#utility.yul\":7279:7288   */\n      dup2\n        /* \"#utility.yul\":7273:7277   */\n      dup2\n        /* \"#utility.yul\":7269:7289   */\n      sub\n        /* \"#utility.yul\":7265:7266   */\n      0x00\n        /* \"#utility.yul\":7254:7263   */\n      dup4\n        /* \"#utility.yul\":7250:7267   */\n      add\n        /* \"#utility.yul\":7243:7290   */\n      mstore\n        /* \"#utility.yul\":7307:7438   */\n      tag_243\n        /* \"#utility.yul\":7433:7437   */\n      dup2\n        /* \"#utility.yul\":7307:7438   */\n      tag_210\n      jump\t// in\n    tag_243:\n        /* \"#utility.yul\":7299:7438   */\n      swap1\n      pop\n        /* \"#utility.yul\":7026:7445   */\n      swap2\n      swap1\n      pop\n      jump\t// out\n        /* \"#utility.yul\":7451:7870   */\n    tag_43:\n        /* \"#utility.yul\":7617:7621   */\n      0x00\n        /* \"#utility.yul\":7655:7657   */\n      0x20\n        /* \"#utility.yul\":7644:7653   */\n      dup3\n        /* \"#utility.yul\":7640:7658   */\n      add\n        /* \"#utility.yul\":7632:7658   */\n      swap1\n      pop\n        /* \"#utility.yul\":7704:7713   */\n      dup2\n        /* \"#utility.yul\":7698:7702   */\n      dup2\n        /* \"#utility.yul\":7694:7714   */\n      sub\n        /* \"#utility.yul\":7690:7691   */\n      0x00\n        /* \"#utility.yul\":7679:7688   */\n      dup4\n        /* \"#utility.yul\":7675:7692   */\n      add\n        /* \"#utility.yul\":7668:7715   */\n      mstore\n        /* \"#utility.yul\":7732:7863   */\n      tag_245\n        /* \"#utility.yul\":7858:7862   */\n      dup2\n        /* \"#utility.yul\":7732:7863   */\n      tag_215\n      jump\t// in\n    tag_245:\n        /* \"#utility.yul\":7724:7863   */\n      swap1\n      pop\n        /* \"#utility.yul\":7451:7870   */\n      swap2\n      swap1\n      pop\n      jump\t// out\n        /* \"#utility.yul\":7876:8295   */\n    tag_84:\n        /* \"#utility.yul\":8042:8046   */\n      0x00\n        /* \"#utility.yul\":8080:8082   */\n      0x20\n        /* \"#utility.yul\":8069:8078   */\n      dup3\n        /* \"#utility.yul\":8065:8083   */\n      add\n        /* \"#utility.yul\":8057:8083   */\n      swap1\n      pop\n        /* \"#utility.yul\":8129:8138   */\n      dup2\n        /* \"#utility.yul\":8123:8127   */\n      dup2\n        /* \"#utility.yul\":8119:8139   */\n      sub\n        /* \"#utility.yul\":8115:8116   */\n      0x00\n        /* \"#utility.yul\":8104:8113   */\n      dup4\n        /* \"#utility.yul\":8100:8117   */\n      add\n        /* \"#utility.yul\":8093:8140   */\n      mstore\n        /* \"#utility.yul\":8157:8288   */\n      tag_247\n        /* \"#utility.yul\":8283:8287   */\n      dup2\n        /* \"#utility.yul\":8157:8288   */\n      tag_220\n      jump\t// in\n    tag_247:\n        /* \"#utility.yul\":8149:8288   */\n      swap1\n      pop\n        /* \"#utility.yul\":7876:8295   */\n      swap2\n      swap1\n      pop\n      jump\t// out\n        /* \"#utility.yul\":8301:8720   */\n    tag_92:\n        /* \"#utility.yul\":8467:8471   */\n      0x00\n        /* \"#utility.yul\":8505:8507   */\n      0x20\n        /* \"#utility.yul\":8494:8503   */\n      dup3\n        /* \"#utility.yul\":8490:8508   */\n      add\n        /* \"#utility.yul\":8482:8508   */\n      swap1\n      pop\n        /* \"#utility.yul\":8554:8563   */\n      dup2\n        /* \"#utility.yul\":8548:8552   */\n      dup2\n        /* \"#utility.yul\":8544:8564   */\n      sub\n        /* \"#utility.yul\":8540:8541   */\n      0x00\n        /* \"#utility.yul\":8529:8538   */\n      dup4\n        /* \"#utility.yul\":8525:8542   */\n      add\n        /* \"#utility.yul\":8518:8565   */\n      mstore\n        /* \"#utility.yul\":8582:8713   */\n      tag_249\n        /* \"#utility.yul\":8708:8712   */\n      dup2\n        /* \"#utility.yul\":8582:8713   */\n      tag_225\n      jump\t// in\n    tag_249:\n        /* \"#utility.yul\":8574:8713   */\n      swap1\n      pop\n        /* \"#utility.yul\":8301:8720   */\n      swap2\n      swap1\n      pop\n      jump\t// out\n        /* \"#utility.yul\":8726:8948   */\n    tag_16:\n        /* \"#utility.yul\":8819:8823   */\n      0x00\n        /* \"#utility.yul\":8857:8859   */\n      0x20\n        /* \"#utility.yul\":8846:8855   */\n      dup3\n        /* \"#utility.yul\":8842:8860   */\n      add\n        /* \"#utility.yul\":8834:8860   */\n      swap1\n      pop\n        /* \"#utility.yul\":8870:8941   */\n      tag_251\n        /* \"#utility.yul\":8938:8939   */\n      0x00\n        /* \"#utility.yul\":8927:8936   */\n      dup4\n        /* \"#utility.yul\":8923:8940   */\n      add\n        /* \"#utility.yul\":8914:8920   */\n      dup5\n        /* \"#utility.yul\":8870:8941   */\n      tag_230\n      jump\t// in\n    tag_251:\n        /* \"#utility.yul\":8726:8948   */\n      swap3\n      swap2\n      pop\n      pop\n      jump\t// out\n        /* \"#utility.yul\":8954:9083   */\n    tag_135:\n        /* \"#utility.yul\":8988:8994   */\n      0x00\n        /* \"#utility.yul\":9015:9035   */\n      tag_253\n      tag_254\n      jump\t// in\n    tag_253:\n        /* \"#utility.yul\":9005:9035   */\n      swap1\n      pop\n        /* \"#utility.yul\":9044:9077   */\n      tag_255\n        /* \"#utility.yul\":9072:9076   */\n      dup3\n        /* \"#utility.yul\":9064:9070   */\n      dup3\n        /* \"#utility.yul\":9044:9077   */\n      tag_256\n      jump\t// in\n    tag_255:\n        /* \"#utility.yul\":8954:9083   */\n      swap2\n      swap1\n      pop\n      jump\t// out\n        /* \"#utility.yul\":9089:9164   */\n    tag_254:\n        /* \"#utility.yul\":9122:9128   */\n      0x00\n        /* \"#utility.yul\":9155:9157   */\n      0x40\n        /* \"#utility.yul\":9149:9158   */\n      mload\n        /* \"#utility.yul\":9139:9158   */\n      swap1\n      pop\n        /* \"#utility.yul\":9089:9164   */\n      swap1\n      jump\t// out\n        /* \"#utility.yul\":9170:9478   */\n    tag_134:\n        /* \"#utility.yul\":9232:9236   */\n      0x00\n        /* \"#utility.yul\":9322:9340   */\n      0xffffffffffffffff\n        /* \"#utility.yul\":9314:9320   */\n      dup3\n        /* \"#utility.yul\":9311:9341   */\n      gt\n        /* \"#utility.yul\":9308:9364   */\n      iszero\n      tag_259\n      jumpi\n        /* \"#utility.yul\":9344:9362   */\n      tag_260\n      tag_261\n      jump\t// in\n    tag_260:\n        /* \"#utility.yul\":9308:9364   */\n    tag_259:\n        /* \"#utility.yul\":9382:9411   */\n      tag_262\n        /* \"#utility.yul\":9404:9410   */\n      dup3\n        /* \"#utility.yul\":9382:9411   */\n      tag_209\n      jump\t// in\n    tag_262:\n        /* \"#utility.yul\":9374:9411   */\n      swap1\n      pop\n        /* \"#utility.yul\":9466:9470   */\n      0x20\n        /* \"#utility.yul\":9460:9464   */\n      dup2\n        /* \"#utility.yul\":9456:9471   */\n      add\n        /* \"#utility.yul\":9448:9471   */\n      swap1\n      pop\n        /* \"#utility.yul\":9170:9478   */\n      swap2\n      swap1\n      pop\n      jump\t// out\n        /* \"#utility.yul\":9484:9583   */\n    tag_203:\n        /* \"#utility.yul\":9536:9542   */\n      0x00\n        /* \"#utility.yul\":9570:9575   */\n      dup2\n        /* \"#utility.yul\":9564:9576   */\n      mload\n        /* \"#utility.yul\":9554:9576   */\n      swap1\n      pop\n        /* \"#utility.yul\":9484:9583   */\n      swap2\n      swap1\n      pop\n      jump\t// out\n        /* \"#utility.yul\":9589:9758   */\n    tag_205:\n        /* \"#utility.yul\":9673:9684   */\n      0x00\n        /* \"#utility.yul\":9707:9713   */\n      dup3\n        /* \"#utility.yul\":9702:9705   */\n      dup3\n        /* \"#utility.yul\":9695:9714   */\n      mstore\n        /* \"#utility.yul\":9747:9751   */\n      0x20\n        /* \"#utility.yul\":9742:9745   */\n      dup3\n        /* \"#utility.yul\":9738:9752   */\n      add\n        /* \"#utility.yul\":9723:9752   */\n      swap1\n      pop\n        /* \"#utility.yul\":9589:9758   */\n      swap3\n      swap2\n      pop\n      pop\n      jump\t// out\n        /* \"#utility.yul\":9764:9860   */\n    tag_195:\n        /* \"#utility.yul\":9801:9808   */\n      0x00\n        /* \"#utility.yul\":9830:9854   */\n      tag_266\n        /* \"#utility.yul\":9848:9853   */\n      dup3\n        /* \"#utility.yul\":9830:9854   */\n      tag_267\n      jump\t// in\n    tag_266:\n        /* \"#utility.yul\":9819:9854   */\n      swap1\n      pop\n        /* \"#utility.yul\":9764:9860   */\n      swap2\n      swap1\n      pop\n      jump\t// out\n        /* \"#utility.yul\":9866:9970   */\n    tag_191:\n        /* \"#utility.yul\":9911:9918   */\n      0x00\n        /* \"#utility.yul\":9940:9964   */\n      tag_269\n        /* \"#utility.yul\":9958:9963   */\n      dup3\n        /* \"#utility.yul\":9940:9964   */\n      tag_267\n      jump\t// in\n    tag_269:\n        /* \"#utility.yul\":9929:9964   */\n      swap1\n      pop\n        /* \"#utility.yul\":9866:9970   */\n      swap2\n      swap1\n      pop\n      jump\t// out\n        /* \"#utility.yul\":9976:10066   */\n    tag_199:\n        /* \"#utility.yul\":10010:10017   */\n      0x00\n        /* \"#utility.yul\":10053:10058   */\n      dup2\n        /* \"#utility.yul\":10046:10059   */\n      iszero\n        /* \"#utility.yul\":10039:10060   */\n      iszero\n        /* \"#utility.yul\":10028:10060   */\n      swap1\n      pop\n        /* \"#utility.yul\":9976:10066   */\n      swap2\n      swap1\n      pop\n      jump\t// out\n        /* \"#utility.yul\":10072:10198   */\n    tag_267:\n        /* \"#utility.yul\":10109:10116   */\n      0x00\n        /* \"#utility.yul\":10149:10191   */\n      0xffffffffffffffffffffffffffffffffffffffff\n        /* \"#utility.yul\":10142:10147   */\n      dup3\n        /* \"#utility.yul\":10138:10192   */\n      and\n        /* \"#utility.yul\":10127:10192   */\n      swap1\n      pop\n        /* \"#utility.yul\":10072:10198   */\n      swap2\n      swap1\n      pop\n      jump\t// out\n        /* \"#utility.yul\":10204:10281   */\n    tag_233:\n        /* \"#utility.yul\":10241:10248   */\n      0x00\n        /* \"#utility.yul\":10270:10275   */\n      dup2\n        /* \"#utility.yul\":10259:10275   */\n      swap1\n      pop\n        /* \"#utility.yul\":10204:10281   */\n      swap2\n      swap1\n      pop\n      jump\t// out\n        /* \"#utility.yul\":10287:10441   */\n    tag_140:\n        /* \"#utility.yul\":10371:10377   */\n      dup3\n        /* \"#utility.yul\":10366:10369   */\n      dup2\n        /* \"#utility.yul\":10361:10364   */\n      dup4\n        /* \"#utility.yul\":10348:10378   */\n      calldatacopy\n        /* \"#utility.yul\":10433:10434   */\n      0x00\n        /* \"#utility.yul\":10424:10430   */\n      dup4\n        /* \"#utility.yul\":10419:10422   */\n      dup4\n        /* \"#utility.yul\":10415:10431   */\n      add\n        /* \"#utility.yul\":10408:10435   */\n      mstore\n        /* \"#utility.yul\":10287:10441   */\n      pop\n      pop\n      pop\n      jump\t// out\n        /* \"#utility.yul\":10447:10754   */\n    tag_207:\n        /* \"#utility.yul\":10515:10516   */\n      0x00\n        /* \"#utility.yul\":10525:10638   */\n    tag_275:\n        /* \"#utility.yul\":10539:10545   */\n      dup4\n        /* \"#utility.yul\":10536:10537   */\n      dup2\n        /* \"#utility.yul\":10533:10546   */\n      lt\n        /* \"#utility.yul\":10525:10638   */\n      iszero\n      tag_277\n      jumpi\n        /* \"#utility.yul\":10624:10625   */\n      dup1\n        /* \"#utility.yul\":10619:10622   */\n      dup3\n        /* \"#utility.yul\":10615:10626   */\n      add\n        /* \"#utility.yul\":10609:10627   */\n      mload\n        /* \"#utility.yul\":10605:10606   */\n      dup2\n        /* \"#utility.yul\":10600:10603   */\n      dup5\n        /* \"#utility.yul\":10596:10607   */\n      add\n        /* \"#utility.yul\":10589:10628   */\n      mstore\n        /* \"#utility.yul\":10561:10563   */\n      0x20\n        /* \"#utility.yul\":10558:10559   */\n      dup2\n        /* \"#utility.yul\":10554:10564   */\n      add\n        /* \"#utility.yul\":10549:10564   */\n      swap1\n      pop\n        /* \"#utility.yul\":10525:10638   */\n      jump(tag_275)\n    tag_277:\n        /* \"#utility.yul\":10656:10662   */\n      dup4\n        /* \"#utility.yul\":10653:10654   */\n      dup2\n        /* \"#utility.yul\":10650:10663   */\n      gt\n        /* \"#utility.yul\":10647:10748   */\n      iszero\n      tag_278\n      jumpi\n        /* \"#utility.yul\":10736:10737   */\n      0x00\n        /* \"#utility.yul\":10727:10733   */\n      dup5\n        /* \"#utility.yul\":10722:10725   */\n      dup5\n        /* \"#utility.yul\":10718:10734   */\n      add\n        /* \"#utility.yul\":10711:10738   */\n      mstore\n        /* \"#utility.yul\":10647:10748   */\n    tag_278:\n        /* \"#utility.yul\":10496:10754   */\n      pop\n        /* \"#utility.yul\":10447:10754   */\n      pop\n      pop\n      pop\n      jump\t// out\n        /* \"#utility.yul\":10760:11080   */\n    tag_97:\n        /* \"#utility.yul\":10804:10810   */\n      0x00\n        /* \"#utility.yul\":10841:10842   */\n      0x02\n        /* \"#utility.yul\":10835:10839   */\n      dup3\n        /* \"#utility.yul\":10831:10843   */\n      div\n        /* \"#utility.yul\":10821:10843   */\n      swap1\n      pop\n        /* \"#utility.yul\":10888:10889   */\n      0x01\n        /* \"#utility.yul\":10882:10886   */\n      dup3\n        /* \"#utility.yul\":10878:10890   */\n      and\n        /* \"#utility.yul\":10909:10927   */\n      dup1\n        /* \"#utility.yul\":10899:10980   */\n      tag_280\n      jumpi\n        /* \"#utility.yul\":10965:10969   */\n      0x7f\n        /* \"#utility.yul\":10957:10963   */\n      dup3\n        /* \"#utility.yul\":10953:10970   */\n      and\n        /* \"#utility.yul\":10943:10970   */\n      swap2\n      pop\n        /* \"#utility.yul\":10899:10980   */\n    tag_280:\n        /* \"#utility.yul\":11027:11029   */\n      0x20\n        /* \"#utility.yul\":11019:11025   */\n      dup3\n        /* \"#utility.yul\":11016:11030   */\n      lt\n        /* \"#utility.yul\":10996:11014   */\n      dup2\n        /* \"#utility.yul\":10993:11031   */\n      eq\n        /* \"#utility.yul\":10990:11074   */\n      iszero\n      tag_281\n      jumpi\n        /* \"#utility.yul\":11046:11064   */\n      tag_282\n      tag_283\n      jump\t// in\n    tag_282:\n        /* \"#utility.yul\":10990:11074   */\n    tag_281:\n        /* \"#utility.yul\":10811:11080   */\n      pop\n        /* \"#utility.yul\":10760:11080   */\n      swap2\n      swap1\n      pop\n      jump\t// out\n        /* \"#utility.yul\":11086:11367   */\n    tag_256:\n        /* \"#utility.yul\":11169:11196   */\n      tag_285\n        /* \"#utility.yul\":11191:11195   */\n      dup3\n        /* \"#utility.yul\":11169:11196   */\n      tag_209\n      jump\t// in\n    tag_285:\n        /* \"#utility.yul\":11161:11167   */\n      dup2\n        /* \"#utility.yul\":11157:11197   */\n      add\n        /* \"#utility.yul\":11299:11305   */\n      dup2\n        /* \"#utility.yul\":11287:11297   */\n      dup2\n        /* \"#utility.yul\":11284:11306   */\n      lt\n        /* \"#utility.yul\":11263:11281   */\n      0xffffffffffffffff\n        /* \"#utility.yul\":11251:11261   */\n      dup3\n        /* \"#utility.yul\":11248:11282   */\n      gt\n        /* \"#utility.yul\":11245:11307   */\n      or\n        /* \"#utility.yul\":11242:11330   */\n      iszero\n      tag_286\n      jumpi\n        /* \"#utility.yul\":11310:11328   */\n      tag_287\n      tag_261\n      jump\t// in\n    tag_287:\n        /* \"#utility.yul\":11242:11330   */\n    tag_286:\n        /* \"#utility.yul\":11350:11360   */\n      dup1\n        /* \"#utility.yul\":11346:11348   */\n      0x40\n        /* \"#utility.yul\":11339:11361   */\n      mstore\n        /* \"#utility.yul\":11129:11367   */\n      pop\n        /* \"#utility.yul\":11086:11367   */\n      pop\n      pop\n      jump\t// out\n        /* \"#utility.yul\":11373:11606   */\n    tag_77:\n        /* \"#utility.yul\":11412:11415   */\n      0x00\n        /* \"#utility.yul\":11435:11459   */\n      tag_289\n        /* \"#utility.yul\":11453:11458   */\n      dup3\n        /* \"#utility.yul\":11435:11459   */\n      tag_233\n      jump\t// in\n    tag_289:\n        /* \"#utility.yul\":11426:11459   */\n      swap2\n      pop\n        /* \"#utility.yul\":11481:11547   */\n      0xffffffffffffffffffffffffffffffffffffffffffffffffffffffffffffffff\n        /* \"#utility.yul\":11474:11479   */\n      dup3\n        /* \"#utility.yul\":11471:11548   */\n      eq\n        /* \"#utility.yul\":11468:11571   */\n      iszero\n      tag_290\n      jumpi\n        /* \"#utility.yul\":11551:11569   */\n      tag_291\n      tag_292\n      jump\t// in\n    tag_291:\n        /* \"#utility.yul\":11468:11571   */\n    tag_290:\n        /* \"#utility.yul\":11598:11599   */\n      0x01\n        /* \"#utility.yul\":11591:11596   */\n      dup3\n        /* \"#utility.yul\":11587:11600   */\n      add\n        /* \"#utility.yul\":11580:11600   */\n      swap1\n      pop\n        /* \"#utility.yul\":11373:11606   */\n      swap2\n      swap1\n      pop\n      jump\t// out\n        /* \"#utility.yul\":11612:11792   */\n    tag_292:\n        /* \"#utility.yul\":11660:11737   */\n      0x4e487b7100000000000000000000000000000000000000000000000000000000\n        /* \"#utility.yul\":11657:11658   */\n      0x00\n        /* \"#utility.yul\":11650:11738   */\n      mstore\n        /* \"#utility.yul\":11757:11761   */\n      0x11\n        /* \"#utility.yul\":11754:11755   */\n      0x04\n        /* \"#utility.yul\":11747:11762   */\n      mstore\n        /* \"#utility.yul\":11781:11785   */\n      0x24\n        /* \"#utility.yul\":11778:11779   */\n      0x00\n        /* \"#utility.yul\":11771:11786   */\n      revert\n        /* \"#utility.yul\":11798:11978   */\n    tag_283:\n        /* \"#utility.yul\":11846:11923   */\n      0x4e487b7100000000000000000000000000000000000000000000000000000000\n        /* \"#utility.yul\":11843:11844   */\n      0x00\n        /* \"#utility.yul\":11836:11924   */\n      mstore\n        /* \"#utility.yul\":11943:11947   */\n      0x22\n        /* \"#utility.yul\":11940:11941   */\n      0x04\n        /* \"#utility.yul\":11933:11948   */\n      mstore\n        /* \"#utility.yul\":11967:11971   */\n      0x24\n        /* \"#utility.yul\":11964:11965   */\n      0x00\n        /* \"#utility.yul\":11957:11972   */\n      revert\n        /* \"#utility.yul\":11984:12164   */\n    tag_50:\n        /* \"#utility.yul\":12032:12109   */\n      0x4e487b7100000000000000000000000000000000000000000000000000000000\n        /* \"#utility.yul\":12029:12030   */\n      0x00\n        /* \"#utility.yul\":12022:12110   */\n      mstore\n        /* \"#utility.yul\":12129:12133   */\n      0x32\n        /* \"#utility.yul\":12126:12127   */\n      0x04\n        /* \"#utility.yul\":12119:12134   */\n      mstore\n        /* \"#utility.yul\":12153:12157   */\n      0x24\n        /* \"#utility.yul\":12150:12151   */\n      0x00\n        /* \"#utility.yul\":12143:12158   */\n      revert\n        /* \"#utility.yul\":12170:12350   */\n    tag_261:\n        /* \"#utility.yul\":12218:12295   */\n      0x4e487b7100000000000000000000000000000000000000000000000000000000\n        /* \"#utility.yul\":12215:12216   */\n      0x00\n        /* \"#utility.yul\":12208:12296   */\n      mstore\n        /* \"#utility.yul\":12315:12319   */\n      0x41\n        /* \"#utility.yul\":12312:12313   */\n      0x04\n        /* \"#utility.yul\":12305:12320   */\n      mstore\n        /* \"#utility.yul\":12339:12343   */\n      0x24\n        /* \"#utility.yul\":12336:12337   */\n      0x00\n        /* \"#utility.yul\":12329:12344   */\n      revert\n        /* \"#utility.yul\":12356:12473   */\n    tag_157:\n        /* \"#utility.yul\":12465:12466   */\n      0x00\n        /* \"#utility.yul\":12462:12463   */\n      dup1\n        /* \"#utility.yul\":12455:12467   */\n      revert\n        /* \"#utility.yul\":12479:12596   */\n    tag_138:\n        /* \"#utility.yul\":12588:12589   */\n      0x00\n        /* \"#utility.yul\":12585:12586   */\n      dup1\n        /* \"#utility.yul\":12578:12590   */\n      revert\n        /* \"#utility.yul\":12602:12719   */\n    tag_178:\n        /* \"#utility.yul\":12711:12712   */\n      0x00\n        /* \"#utility.yul\":12708:12709   */\n      dup1\n        /* \"#utility.yul\":12701:12713   */\n      revert\n        /* \"#utility.yul\":12725:12842   */\n    tag_166:\n        /* \"#utility.yul\":12834:12835   */\n      0x00\n        /* \"#utility.yul\":12831:12832   */\n      dup1\n        /* \"#utility.yul\":12824:12836   */\n      revert\n        /* \"#utility.yul\":12848:12950   */\n    tag_209:\n        /* \"#utility.yul\":12889:12895   */\n      0x00\n        /* \"#utility.yul\":12940:12942   */\n      0x1f\n        /* \"#utility.yul\":12936:12943   */\n      not\n        /* \"#utility.yul\":12931:12933   */\n      0x1f\n        /* \"#utility.yul\":12924:12929   */\n      dup4\n        /* \"#utility.yul\":12920:12934   */\n      add\n        /* \"#utility.yul\":12916:12944   */\n      and\n        /* \"#utility.yul\":12906:12944   */\n      swap1\n      pop\n        /* \"#utility.yul\":12848:12950   */\n      swap2\n      swap1\n      pop\n      jump\t// out\n        /* \"#utility.yul\":12956:13126   */\n    tag_214:\n        /* \"#utility.yul\":13096:13118   */\n      0x4661696c656420746f2073656e64204554484552000000000000000000000000\n        /* \"#utility.yul\":13092:13093   */\n      0x00\n        /* \"#utility.yul\":13084:13090   */\n      dup3\n        /* \"#utility.yul\":13080:13094   */\n      add\n        /* \"#utility.yul\":13073:13119   */\n      mstore\n        /* \"#utility.yul\":12956:13126   */\n      pop\n      jump\t// out\n        /* \"#utility.yul\":13132:13304   */\n    tag_219:\n        /* \"#utility.yul\":13272:13296   */\n      0x796f7520646f6e27742068617665207269676874732000000000000000000000\n        /* \"#utility.yul\":13268:13269   */\n      0x00\n        /* \"#utility.yul\":13260:13266   */\n      dup3\n        /* \"#utility.yul\":13256:13270   */\n      add\n        /* \"#utility.yul\":13249:13297   */\n      mstore\n        /* \"#utility.yul\":13132:13304   */\n      pop\n      jump\t// out\n        /* \"#utility.yul\":13310:13485   */\n    tag_224:\n        /* \"#utility.yul\":13450:13477   */\n      0x53616c61727920616c7265616479206973206372656974656400000000000000\n        /* \"#utility.yul\":13446:13447   */\n      0x00\n        /* \"#utility.yul\":13438:13444   */\n      dup3\n        /* \"#utility.yul\":13434:13448   */\n      add\n        /* \"#utility.yul\":13427:13478   */\n      mstore\n        /* \"#utility.yul\":13310:13485   */\n      pop\n      jump\t// out\n        /* \"#utility.yul\":13491:13662   */\n    tag_229:\n        /* \"#utility.yul\":13631:13654   */\n      0x7573657220616c72656164792072656769737465720000000000000000000000\n        /* \"#utility.yul\":13627:13628   */\n      0x00\n        /* \"#utility.yul\":13619:13625   */\n      dup3\n        /* \"#utility.yul\":13615:13629   */\n      add\n        /* \"#utility.yul\":13608:13655   */\n      mstore\n        /* \"#utility.yul\":13491:13662   */\n      pop\n      jump\t// out\n        /* \"#utility.yul\":13668:13790   */\n    tag_144:\n        /* \"#utility.yul\":13741:13765   */\n      tag_307\n        /* \"#utility.yul\":13759:13764   */\n      dup2\n        /* \"#utility.yul\":13741:13765   */\n      tag_195\n      jump\t// in\n    tag_307:\n        /* \"#utility.yul\":13734:13739   */\n      dup2\n        /* \"#utility.yul\":13731:13766   */\n      eq\n        /* \"#utility.yul\":13721:13784   */\n      tag_308\n      jumpi\n        /* \"#utility.yul\":13780:13781   */\n      0x00\n        /* \"#utility.yul\":13777:13778   */\n      dup1\n        /* \"#utility.yul\":13770:13782   */\n      revert\n        /* \"#utility.yul\":13721:13784   */\n    tag_308:\n        /* \"#utility.yul\":13668:13790   */\n      pop\n      jump\t// out\n        /* \"#utility.yul\":13796:13934   */\n    tag_148:\n        /* \"#utility.yul\":13877:13909   */\n      tag_310\n        /* \"#utility.yul\":13903:13908   */\n      dup2\n        /* \"#utility.yul\":13877:13909   */\n      tag_191\n      jump\t// in\n    tag_310:\n        /* \"#utility.yul\":13870:13875   */\n      dup2\n        /* \"#utility.yul\":13867:13910   */\n      eq\n        /* \"#utility.yul\":13857:13928   */\n      tag_311\n      jumpi\n        /* \"#utility.yul\":13924:13925   */\n      0x00\n        /* \"#utility.yul\":13921:13922   */\n      dup1\n        /* \"#utility.yul\":13914:13926   */\n      revert\n        /* \"#utility.yul\":13857:13928   */\n    tag_311:\n        /* \"#utility.yul\":13796:13934   */\n      pop\n      jump\t// out\n        /* \"#utility.yul\":13940:14056   */\n    tag_152:\n        /* \"#utility.yul\":14010:14031   */\n      tag_313\n        /* \"#utility.yul\":14025:14030   */\n      dup2\n        /* \"#utility.yul\":14010:14031   */\n      tag_199\n      jump\t// in\n    tag_313:\n        /* \"#utility.yul\":14003:14008   */\n      dup2\n        /* \"#utility.yul\":14000:14032   */\n      eq\n        /* \"#utility.yul\":13990:14050   */\n      tag_314\n      jumpi\n        /* \"#utility.yul\":14046:14047   */\n      0x00\n        /* \"#utility.yul\":14043:14044   */\n      dup1\n        /* \"#utility.yul\":14036:14048   */\n      revert\n        /* \"#utility.yul\":13990:14050   */\n    tag_314:\n        /* \"#utility.yul\":13940:14056   */\n      pop\n      jump\t// out\n        /* \"#utility.yul\":14062:14184   */\n    tag_162:\n        /* \"#utility.yul\":14135:14159   */\n      tag_316\n        /* \"#utility.yul\":14153:14158   */\n      dup2\n        /* \"#utility.yul\":14135:14159   */\n      tag_233\n      jump\t// in\n    tag_316:\n        /* \"#utility.yul\":14128:14133   */\n      dup2\n        /* \"#utility.yul\":14125:14160   */\n      eq\n        /* \"#utility.yul\":14115:14178   */\n      tag_317\n      jumpi\n        /* \"#utility.yul\":14174:14175   */\n      0x00\n        /* \"#utility.yul\":14171:14172   */\n      dup1\n        /* \"#utility.yul\":14164:14176   */\n      revert\n        /* \"#utility.yul\":14115:14178   */\n    tag_317:\n        /* \"#utility.yul\":14062:14184   */\n      pop\n      jump\t// out\n\n    auxdata: 0xa2646970667358221220f8d136a775ba90c2a555da16db82ba400da4f085ab5103d927b6adab6c212f4164736f6c63430008070033\n}\n",
				"bytecode": {
					"linkReferences": {},
					"object": "608060405266470de4df820000600155666a94d74f43000060025534801561002657600080fd5b50336000806101000a81548173ffffffffffffffffffffffffffffffffffffffff021916908373ffffffffffffffffffffffffffffffffffffffff160217905550611337806100766000396000f3fe6080604052600436106100555760003560e01c806304b642a41461005a57806318c7a051146100715780637a7e4369146100a1578063b58f421c146100ca578063d17106b71461010b578063f851a4401461014c575b600080fd5b34801561006657600080fd5b5061006f610177565b005b61008b60048036038101906100869190610c51565b6103e6565b6040516100989190610f4b565b60405180910390f35b3480156100ad57600080fd5b506100c860048036038101906100c39190610c91565b61058a565b005b3480156100d657600080fd5b506100f160048036038101906100ec9190610d28565b610826565b604051610102959493929190610e71565b60405180910390f35b34801561011757600080fd5b50610132600480360381019061012d9190610c24565b610921565b604051610143959493929190610e71565b60405180910390f35b34801561015857600080fd5b50610161610a0c565b60405161016e9190610e56565b60405180910390f35b60008054906101000a900473ffffffffffffffffffffffffffffffffffffffff1673ffffffffffffffffffffffffffffffffffffffff163373ffffffffffffffffffffffffffffffffffffffff1614610205576040517f08c379a00000000000000000000000000000000000000000000000000000000081526004016101fc90610eeb565b60405180910390fd5b60005b6004805490508110156103e357600481815481106102295761022861117e565b5b906000526020600020906004020160030160149054906101000a900460ff166103d0576001600482815481106102625761026161117e565b5b906000526020600020906004020160010154141561030f576102cb600482815481106102915761029061117e565b5b906000526020600020906004020160030160009054906101000a900473ffffffffffffffffffffffffffffffffffffffff166001546103e6565b506001600482815481106102e2576102e161117e565b5b906000526020600020906004020160030160146101000a81548160ff0219169083151502179055506103cf565b6002600482815481106103255761032461117e565b5b90600052602060002090600402016001015414156103ce5761038e600482815481106103545761035361117e565b5b906000526020600020906004020160030160009054906101000a900473ffffffffffffffffffffffffffffffffffffffff166002546103e6565b506001600482815481106103a5576103a461117e565b5b906000526020600020906004020160030160146101000a81548160ff0219169083151502179055505b5b5b80806103db906110d7565b915050610208565b50565b60008060009054906101000a900473ffffffffffffffffffffffffffffffffffffffff1673ffffffffffffffffffffffffffffffffffffffff163373ffffffffffffffffffffffffffffffffffffffff1614610477576040517f08c379a000000000000000000000000000000000000000000000000000000000815260040161046e90610eeb565b60405180910390fd5b600360008473ffffffffffffffffffffffffffffffffffffffff1673ffffffffffffffffffffffffffffffffffffffff16815260200190815260200160002060030160149054906101000a900460ff1615610507576040517f08c379a00000000000000000000000000000000000000000000000000000000081526004016104fe90610f0b565b60405180910390fd5b60008373ffffffffffffffffffffffffffffffffffffffff166108fc849081150290604051600060405180830381858888f19350505050905080610580576040517f08c379a000000000000000000000000000000000000000000000000000000000815260040161057790610ecb565b60405180910390fd5b3491505092915050565b8173ffffffffffffffffffffffffffffffffffffffff16600360008473ffffffffffffffffffffffffffffffffffffffff1673ffffffffffffffffffffffffffffffffffffffff16815260200190815260200160002060030160009054906101000a900473ffffffffffffffffffffffffffffffffffffffff1673ffffffffffffffffffffffffffffffffffffffff16141561065b576040517f08c379a000000000000000000000000000000000000000000000000000000000815260040161065290610f2b565b60405180910390fd5b6000600360008473ffffffffffffffffffffffffffffffffffffffff1673ffffffffffffffffffffffffffffffffffffffff1681526020019081526020016000209050858160000190805190602001906106b6929190610a30565b50848160010181905550838160020181905550828160030160006101000a81548173ffffffffffffffffffffffffffffffffffffffff021916908373ffffffffffffffffffffffffffffffffffffffff160217905550818160030160146101000a81548160ff0219169083151502179055506004819080600181540180825580915050600190039060005260206000209060040201600090919091909150600082018160000190805461076890611074565b610773929190610ab6565b5060018201548160010155600282015481600201556003820160009054906101000a900473ffffffffffffffffffffffffffffffffffffffff168160030160006101000a81548173ffffffffffffffffffffffffffffffffffffffff021916908373ffffffffffffffffffffffffffffffffffffffff1602179055506003820160149054906101000a900460ff168160030160146101000a81548160ff0219169083151502179055505050505050505050565b6004818154811061083657600080fd5b906000526020600020906004020160009150905080600001805461085990611074565b80601f016020809104026020016040519081016040528092919081815260200182805461088590611074565b80156108d25780601f106108a7576101008083540402835291602001916108d2565b820191906000526020600020905b8154815290600101906020018083116108b557829003601f168201915b5050505050908060010154908060020154908060030160009054906101000a900473ffffffffffffffffffffffffffffffffffffffff16908060030160149054906101000a900460ff16905085565b600360205280600052604060002060009150905080600001805461094490611074565b80601f016020809104026020016040519081016040528092919081815260200182805461097090611074565b80156109bd5780601f10610992576101008083540402835291602001916109bd565b820191906000526020600020905b8154815290600101906020018083116109a057829003601f168201915b5050505050908060010154908060020154908060030160009054906101000a900473ffffffffffffffffffffffffffffffffffffffff16908060030160149054906101000a900460ff16905085565b60008054906101000a900473ffffffffffffffffffffffffffffffffffffffff1681565b828054610a3c90611074565b90600052602060002090601f016020900481019282610a5e5760008555610aa5565b82601f10610a7757805160ff1916838001178555610aa5565b82800160010185558215610aa5579182015b82811115610aa4578251825591602001919060010190610a89565b5b509050610ab29190610b43565b5090565b828054610ac290611074565b90600052602060002090601f016020900481019282610ae45760008555610b32565b82601f10610af55780548555610b32565b82800160010185558215610b3257600052602060002091601f016020900482015b82811115610b31578254825591600101919060010190610b16565b5b509050610b3f9190610b43565b5090565b5b80821115610b5c576000816000905550600101610b44565b5090565b6000610b73610b6e84610f8b565b610f66565b905082815260208101848484011115610b8f57610b8e6111e1565b5b610b9a848285611032565b509392505050565b600081359050610bb1816112a5565b92915050565b600081359050610bc6816112bc565b92915050565b600081359050610bdb816112d3565b92915050565b600082601f830112610bf657610bf56111dc565b5b8135610c06848260208601610b60565b91505092915050565b600081359050610c1e816112ea565b92915050565b600060208284031215610c3a57610c396111eb565b5b6000610c4884828501610ba2565b91505092915050565b60008060408385031215610c6857610c676111eb565b5b6000610c7685828601610bb7565b9250506020610c8785828601610c0f565b9150509250929050565b600080600080600060a08688031215610cad57610cac6111eb565b5b600086013567ffffffffffffffff811115610ccb57610cca6111e6565b5b610cd788828901610be1565b9550506020610ce888828901610c0f565b9450506040610cf988828901610c0f565b9350506060610d0a88828901610bb7565b9250506080610d1b88828901610bcc565b9150509295509295909350565b600060208284031215610d3e57610d3d6111eb565b5b6000610d4c84828501610c0f565b91505092915050565b610d5e81610fea565b82525050565b610d6d81610fd8565b82525050565b610d7c81610ffc565b82525050565b6000610d8d82610fbc565b610d978185610fc7565b9350610da7818560208601611041565b610db0816111f0565b840191505092915050565b6000610dc8601483610fc7565b9150610dd382611201565b602082019050919050565b6000610deb601683610fc7565b9150610df68261122a565b602082019050919050565b6000610e0e601983610fc7565b9150610e1982611253565b602082019050919050565b6000610e31601583610fc7565b9150610e3c8261127c565b602082019050919050565b610e5081611028565b82525050565b6000602082019050610e6b6000830184610d64565b92915050565b600060a0820190508181036000830152610e8b8188610d82565b9050610e9a6020830187610e47565b610ea76040830186610e47565b610eb46060830185610d55565b610ec16080830184610d73565b9695505050505050565b60006020820190508181036000830152610ee481610dbb565b9050919050565b60006020820190508181036000830152610f0481610dde565b9050919050565b60006020820190508181036000830152610f2481610e01565b9050919050565b60006020820190508181036000830152610f4481610e24565b9050919050565b6000602082019050610f606000830184610e47565b92915050565b6000610f70610f81565b9050610f7c82826110a6565b919050565b6000604051905090565b600067ffffffffffffffff821115610fa657610fa56111ad565b5b610faf826111f0565b9050602081019050919050565b600081519050919050565b600082825260208201905092915050565b6000610fe382611008565b9050919050565b6000610ff582611008565b9050919050565b60008115159050919050565b600073ffffffffffffffffffffffffffffffffffffffff82169050919050565b6000819050919050565b82818337600083830152505050565b60005b8381101561105f578082015181840152602081019050611044565b8381111561106e576000848401525b50505050565b6000600282049050600182168061108c57607f821691505b602082108114156110a05761109f61114f565b5b50919050565b6110af826111f0565b810181811067ffffffffffffffff821117156110ce576110cd6111ad565b5b80604052505050565b60006110e282611028565b91507fffffffffffffffffffffffffffffffffffffffffffffffffffffffffffffffff82141561111557611114611120565b5b600182019050919050565b7f4e487b7100000000000000000000000000000000000000000000000000000000600052601160045260246000fd5b7f4e487b7100000000000000000000000000000000000000000000000000000000600052602260045260246000fd5b7f4e487b7100000000000000000000000000000000000000000000000000000000600052603260045260246000fd5b7f4e487b7100000000000000000000000000000000000000000000000000000000600052604160045260246000fd5b600080fd5b600080fd5b600080fd5b600080fd5b6000601f19601f8301169050919050565b7f4661696c656420746f2073656e64204554484552000000000000000000000000600082015250565b7f796f7520646f6e27742068617665207269676874732000000000000000000000600082015250565b7f53616c61727920616c7265616479206973206372656974656400000000000000600082015250565b7f7573657220616c72656164792072656769737465720000000000000000000000600082015250565b6112ae81610fd8565b81146112b957600080fd5b50565b6112c581610fea565b81146112d057600080fd5b50565b6112dc81610ffc565b81146112e757600080fd5b50565b6112f381611028565b81146112fe57600080fd5b5056fea2646970667358221220f8d136a775ba90c2a555da16db82ba400da4f085ab5103d927b6adab6c212f4164736f6c63430008070033",
					"opcodes": "PUSH1 0x80 PUSH1 0x40 MSTORE PUSH7 0x470DE4DF820000 PUSH1 0x1 SSTORE PUSH7 0x6A94D74F430000 PUSH1 0x2 SSTORE CALLVALUE DUP1 ISZERO PUSH2 0x26 JUMPI PUSH1 0x0 DUP1 REVERT JUMPDEST POP CALLER PUSH1 0x0 DUP1 PUSH2 0x100 EXP DUP2 SLOAD DUP2 PUSH20 0xFFFFFFFFFFFFFFFFFFFFFFFFFFFFFFFFFFFFFFFF MUL NOT AND SWAP1 DUP4 PUSH20 0xFFFFFFFFFFFFFFFFFFFFFFFFFFFFFFFFFFFFFFFF AND MUL OR SWAP1 SSTORE POP PUSH2 0x1337 DUP1 PUSH2 0x76 PUSH1 0x0 CODECOPY PUSH1 0x0 RETURN INVALID PUSH1 0x80 PUSH1 0x40 MSTORE PUSH1 0x4 CALLDATASIZE LT PUSH2 0x55 JUMPI PUSH1 0x0 CALLDATALOAD PUSH1 0xE0 SHR DUP1 PUSH4 0x4B642A4 EQ PUSH2 0x5A JUMPI DUP1 PUSH4 0x18C7A051 EQ PUSH2 0x71 JUMPI DUP1 PUSH4 0x7A7E4369 EQ PUSH2 0xA1 JUMPI DUP1 PUSH4 0xB58F421C EQ PUSH2 0xCA JUMPI DUP1 PUSH4 0xD17106B7 EQ PUSH2 0x10B JUMPI DUP1 PUSH4 0xF851A440 EQ PUSH2 0x14C JUMPI JUMPDEST PUSH1 0x0 DUP1 REVERT JUMPDEST CALLVALUE DUP1 ISZERO PUSH2 0x66 JUMPI PUSH1 0x0 DUP1 REVERT JUMPDEST POP PUSH2 0x6F PUSH2 0x177 JUMP JUMPDEST STOP JUMPDEST PUSH2 0x8B PUSH1 0x4 DUP1 CALLDATASIZE SUB DUP2 ADD SWAP1 PUSH2 0x86 SWAP2 SWAP1 PUSH2 0xC51 JUMP JUMPDEST PUSH2 0x3E6 JUMP JUMPDEST PUSH1 0x40 MLOAD PUSH2 0x98 SWAP2 SWAP1 PUSH2 0xF4B JUMP JUMPDEST PUSH1 0x40 MLOAD DUP1 SWAP2 SUB SWAP1 RETURN JUMPDEST CALLVALUE DUP1 ISZERO PUSH2 0xAD JUMPI PUSH1 0x0 DUP1 REVERT JUMPDEST POP PUSH2 0xC8 PUSH1 0x4 DUP1 CALLDATASIZE SUB DUP2 ADD SWAP1 PUSH2 0xC3 SWAP2 SWAP1 PUSH2 0xC91 JUMP JUMPDEST PUSH2 0x58A JUMP JUMPDEST STOP JUMPDEST CALLVALUE DUP1 ISZERO PUSH2 0xD6 JUMPI PUSH1 0x0 DUP1 REVERT JUMPDEST POP PUSH2 0xF1 PUSH1 0x4 DUP1 CALLDATASIZE SUB DUP2 ADD SWAP1 PUSH2 0xEC SWAP2 SWAP1 PUSH2 0xD28 JUMP JUMPDEST PUSH2 0x826 JUMP JUMPDEST PUSH1 0x40 MLOAD PUSH2 0x102 SWAP6 SWAP5 SWAP4 SWAP3 SWAP2 SWAP1 PUSH2 0xE71 JUMP JUMPDEST PUSH1 0x40 MLOAD DUP1 SWAP2 SUB SWAP1 RETURN JUMPDEST CALLVALUE DUP1 ISZERO PUSH2 0x117 JUMPI PUSH1 0x0 DUP1 REVERT JUMPDEST POP PUSH2 0x132 PUSH1 0x4 DUP1 CALLDATASIZE SUB DUP2 ADD SWAP1 PUSH2 0x12D SWAP2 SWAP1 PUSH2 0xC24 JUMP JUMPDEST PUSH2 0x921 JUMP JUMPDEST PUSH1 0x40 MLOAD PUSH2 0x143 SWAP6 SWAP5 SWAP4 SWAP3 SWAP2 SWAP1 PUSH2 0xE71 JUMP JUMPDEST PUSH1 0x40 MLOAD DUP1 SWAP2 SUB SWAP1 RETURN JUMPDEST CALLVALUE DUP1 ISZERO PUSH2 0x158 JUMPI PUSH1 0x0 DUP1 REVERT JUMPDEST POP PUSH2 0x161 PUSH2 0xA0C JUMP JUMPDEST PUSH1 0x40 MLOAD PUSH2 0x16E SWAP2 SWAP1 PUSH2 0xE56 JUMP JUMPDEST PUSH1 0x40 MLOAD DUP1 SWAP2 SUB SWAP1 RETURN JUMPDEST PUSH1 0x0 DUP1 SLOAD SWAP1 PUSH2 0x100 EXP SWAP1 DIV PUSH20 0xFFFFFFFFFFFFFFFFFFFFFFFFFFFFFFFFFFFFFFFF AND PUSH20 0xFFFFFFFFFFFFFFFFFFFFFFFFFFFFFFFFFFFFFFFF AND CALLER PUSH20 0xFFFFFFFFFFFFFFFFFFFFFFFFFFFFFFFFFFFFFFFF AND EQ PUSH2 0x205 JUMPI PUSH1 0x40 MLOAD PUSH32 0x8C379A000000000000000000000000000000000000000000000000000000000 DUP2 MSTORE PUSH1 0x4 ADD PUSH2 0x1FC SWAP1 PUSH2 0xEEB JUMP JUMPDEST PUSH1 0x40 MLOAD DUP1 SWAP2 SUB SWAP1 REVERT JUMPDEST PUSH1 0x0 JUMPDEST PUSH1 0x4 DUP1 SLOAD SWAP1 POP DUP2 LT ISZERO PUSH2 0x3E3 JUMPI PUSH1 0x4 DUP2 DUP2 SLOAD DUP2 LT PUSH2 0x229 JUMPI PUSH2 0x228 PUSH2 0x117E JUMP JUMPDEST JUMPDEST SWAP1 PUSH1 0x0 MSTORE PUSH1 0x20 PUSH1 0x0 KECCAK256 SWAP1 PUSH1 0x4 MUL ADD PUSH1 0x3 ADD PUSH1 0x14 SWAP1 SLOAD SWAP1 PUSH2 0x100 EXP SWAP1 DIV PUSH1 0xFF AND PUSH2 0x3D0 JUMPI PUSH1 0x1 PUSH1 0x4 DUP3 DUP2 SLOAD DUP2 LT PUSH2 0x262 JUMPI PUSH2 0x261 PUSH2 0x117E JUMP JUMPDEST JUMPDEST SWAP1 PUSH1 0x0 MSTORE PUSH1 0x20 PUSH1 0x0 KECCAK256 SWAP1 PUSH1 0x4 MUL ADD PUSH1 0x1 ADD SLOAD EQ ISZERO PUSH2 0x30F JUMPI PUSH2 0x2CB PUSH1 0x4 DUP3 DUP2 SLOAD DUP2 LT PUSH2 0x291 JUMPI PUSH2 0x290 PUSH2 0x117E JUMP JUMPDEST JUMPDEST SWAP1 PUSH1 0x0 MSTORE PUSH1 0x20 PUSH1 0x0 KECCAK256 SWAP1 PUSH1 0x4 MUL ADD PUSH1 0x3 ADD PUSH1 0x0 SWAP1 SLOAD SWAP1 PUSH2 0x100 EXP SWAP1 DIV PUSH20 0xFFFFFFFFFFFFFFFFFFFFFFFFFFFFFFFFFFFFFFFF AND PUSH1 0x1 SLOAD PUSH2 0x3E6 JUMP JUMPDEST POP PUSH1 0x1 PUSH1 0x4 DUP3 DUP2 SLOAD DUP2 LT PUSH2 0x2E2 JUMPI PUSH2 0x2E1 PUSH2 0x117E JUMP JUMPDEST JUMPDEST SWAP1 PUSH1 0x0 MSTORE PUSH1 0x20 PUSH1 0x0 KECCAK256 SWAP1 PUSH1 0x4 MUL ADD PUSH1 0x3 ADD PUSH1 0x14 PUSH2 0x100 EXP DUP2 SLOAD DUP2 PUSH1 0xFF MUL NOT AND SWAP1 DUP4 ISZERO ISZERO MUL OR SWAP1 SSTORE POP PUSH2 0x3CF JUMP JUMPDEST PUSH1 0x2 PUSH1 0x4 DUP3 DUP2 SLOAD DUP2 LT PUSH2 0x325 JUMPI PUSH2 0x324 PUSH2 0x117E JUMP JUMPDEST JUMPDEST SWAP1 PUSH1 0x0 MSTORE PUSH1 0x20 PUSH1 0x0 KECCAK256 SWAP1 PUSH1 0x4 MUL ADD PUSH1 0x1 ADD SLOAD EQ ISZERO PUSH2 0x3CE JUMPI PUSH2 0x38E PUSH1 0x4 DUP3 DUP2 SLOAD DUP2 LT PUSH2 0x354 JUMPI PUSH2 0x353 PUSH2 0x117E JUMP JUMPDEST JUMPDEST SWAP1 PUSH1 0x0 MSTORE PUSH1 0x20 PUSH1 0x0 KECCAK256 SWAP1 PUSH1 0x4 MUL ADD PUSH1 0x3 ADD PUSH1 0x0 SWAP1 SLOAD SWAP1 PUSH2 0x100 EXP SWAP1 DIV PUSH20 0xFFFFFFFFFFFFFFFFFFFFFFFFFFFFFFFFFFFFFFFF AND PUSH1 0x2 SLOAD PUSH2 0x3E6 JUMP JUMPDEST POP PUSH1 0x1 PUSH1 0x4 DUP3 DUP2 SLOAD DUP2 LT PUSH2 0x3A5 JUMPI PUSH2 0x3A4 PUSH2 0x117E JUMP JUMPDEST JUMPDEST SWAP1 PUSH1 0x0 MSTORE PUSH1 0x20 PUSH1 0x0 KECCAK256 SWAP1 PUSH1 0x4 MUL ADD PUSH1 0x3 ADD PUSH1 0x14 PUSH2 0x100 EXP DUP2 SLOAD DUP2 PUSH1 0xFF MUL NOT AND SWAP1 DUP4 ISZERO ISZERO MUL OR SWAP1 SSTORE POP JUMPDEST JUMPDEST JUMPDEST DUP1 DUP1 PUSH2 0x3DB SWAP1 PUSH2 0x10D7 JUMP JUMPDEST SWAP2 POP POP PUSH2 0x208 JUMP JUMPDEST POP JUMP JUMPDEST PUSH1 0x0 DUP1 PUSH1 0x0 SWAP1 SLOAD SWAP1 PUSH2 0x100 EXP SWAP1 DIV PUSH20 0xFFFFFFFFFFFFFFFFFFFFFFFFFFFFFFFFFFFFFFFF AND PUSH20 0xFFFFFFFFFFFFFFFFFFFFFFFFFFFFFFFFFFFFFFFF AND CALLER PUSH20 0xFFFFFFFFFFFFFFFFFFFFFFFFFFFFFFFFFFFFFFFF AND EQ PUSH2 0x477 JUMPI PUSH1 0x40 MLOAD PUSH32 0x8C379A000000000000000000000000000000000000000000000000000000000 DUP2 MSTORE PUSH1 0x4 ADD PUSH2 0x46E SWAP1 PUSH2 0xEEB JUMP JUMPDEST PUSH1 0x40 MLOAD DUP1 SWAP2 SUB SWAP1 REVERT JUMPDEST PUSH1 0x3 PUSH1 0x0 DUP5 PUSH20 0xFFFFFFFFFFFFFFFFFFFFFFFFFFFFFFFFFFFFFFFF AND PUSH20 0xFFFFFFFFFFFFFFFFFFFFFFFFFFFFFFFFFFFFFFFF AND DUP2 MSTORE PUSH1 0x20 ADD SWAP1 DUP2 MSTORE PUSH1 0x20 ADD PUSH1 0x0 KECCAK256 PUSH1 0x3 ADD PUSH1 0x14 SWAP1 SLOAD SWAP1 PUSH2 0x100 EXP SWAP1 DIV PUSH1 0xFF AND ISZERO PUSH2 0x507 JUMPI PUSH1 0x40 MLOAD PUSH32 0x8C379A000000000000000000000000000000000000000000000000000000000 DUP2 MSTORE PUSH1 0x4 ADD PUSH2 0x4FE SWAP1 PUSH2 0xF0B JUMP JUMPDEST PUSH1 0x40 MLOAD DUP1 SWAP2 SUB SWAP1 REVERT JUMPDEST PUSH1 0x0 DUP4 PUSH20 0xFFFFFFFFFFFFFFFFFFFFFFFFFFFFFFFFFFFFFFFF AND PUSH2 0x8FC DUP5 SWAP1 DUP2 ISZERO MUL SWAP1 PUSH1 0x40 MLOAD PUSH1 0x0 PUSH1 0x40 MLOAD DUP1 DUP4 SUB DUP2 DUP6 DUP9 DUP9 CALL SWAP4 POP POP POP POP SWAP1 POP DUP1 PUSH2 0x580 JUMPI PUSH1 0x40 MLOAD PUSH32 0x8C379A000000000000000000000000000000000000000000000000000000000 DUP2 MSTORE PUSH1 0x4 ADD PUSH2 0x577 SWAP1 PUSH2 0xECB JUMP JUMPDEST PUSH1 0x40 MLOAD DUP1 SWAP2 SUB SWAP1 REVERT JUMPDEST CALLVALUE SWAP2 POP POP SWAP3 SWAP2 POP POP JUMP JUMPDEST DUP2 PUSH20 0xFFFFFFFFFFFFFFFFFFFFFFFFFFFFFFFFFFFFFFFF AND PUSH1 0x3 PUSH1 0x0 DUP5 PUSH20 0xFFFFFFFFFFFFFFFFFFFFFFFFFFFFFFFFFFFFFFFF AND PUSH20 0xFFFFFFFFFFFFFFFFFFFFFFFFFFFFFFFFFFFFFFFF AND DUP2 MSTORE PUSH1 0x20 ADD SWAP1 DUP2 MSTORE PUSH1 0x20 ADD PUSH1 0x0 KECCAK256 PUSH1 0x3 ADD PUSH1 0x0 SWAP1 SLOAD SWAP1 PUSH2 0x100 EXP SWAP1 DIV PUSH20 0xFFFFFFFFFFFFFFFFFFFFFFFFFFFFFFFFFFFFFFFF AND PUSH20 0xFFFFFFFFFFFFFFFFFFFFFFFFFFFFFFFFFFFFFFFF AND EQ ISZERO PUSH2 0x65B JUMPI PUSH1 0x40 MLOAD PUSH32 0x8C379A000000000000000000000000000000000000000000000000000000000 DUP2 MSTORE PUSH1 0x4 ADD PUSH2 0x652 SWAP1 PUSH2 0xF2B JUMP JUMPDEST PUSH1 0x40 MLOAD DUP1 SWAP2 SUB SWAP1 REVERT JUMPDEST PUSH1 0x0 PUSH1 0x3 PUSH1 0x0 DUP5 PUSH20 0xFFFFFFFFFFFFFFFFFFFFFFFFFFFFFFFFFFFFFFFF AND PUSH20 0xFFFFFFFFFFFFFFFFFFFFFFFFFFFFFFFFFFFFFFFF AND DUP2 MSTORE PUSH1 0x20 ADD SWAP1 DUP2 MSTORE PUSH1 0x20 ADD PUSH1 0x0 KECCAK256 SWAP1 POP DUP6 DUP2 PUSH1 0x0 ADD SWAP1 DUP1 MLOAD SWAP1 PUSH1 0x20 ADD SWAP1 PUSH2 0x6B6 SWAP3 SWAP2 SWAP1 PUSH2 0xA30 JUMP JUMPDEST POP DUP5 DUP2 PUSH1 0x1 ADD DUP2 SWAP1 SSTORE POP DUP4 DUP2 PUSH1 0x2 ADD DUP2 SWAP1 SSTORE POP DUP3 DUP2 PUSH1 0x3 ADD PUSH1 0x0 PUSH2 0x100 EXP DUP2 SLOAD DUP2 PUSH20 0xFFFFFFFFFFFFFFFFFFFFFFFFFFFFFFFFFFFFFFFF MUL NOT AND SWAP1 DUP4 PUSH20 0xFFFFFFFFFFFFFFFFFFFFFFFFFFFFFFFFFFFFFFFF AND MUL OR SWAP1 SSTORE POP DUP2 DUP2 PUSH1 0x3 ADD PUSH1 0x14 PUSH2 0x100 EXP DUP2 SLOAD DUP2 PUSH1 0xFF MUL NOT AND SWAP1 DUP4 ISZERO ISZERO MUL OR SWAP1 SSTORE POP PUSH1 0x4 DUP2 SWAP1 DUP1 PUSH1 0x1 DUP2 SLOAD ADD DUP1 DUP3 SSTORE DUP1 SWAP2 POP POP PUSH1 0x1 SWAP1 SUB SWAP1 PUSH1 0x0 MSTORE PUSH1 0x20 PUSH1 0x0 KECCAK256 SWAP1 PUSH1 0x4 MUL ADD PUSH1 0x0 SWAP1 SWAP2 SWAP1 SWAP2 SWAP1 SWAP2 POP PUSH1 0x0 DUP3 ADD DUP2 PUSH1 0x0 ADD SWAP1 DUP1 SLOAD PUSH2 0x768 SWAP1 PUSH2 0x1074 JUMP JUMPDEST PUSH2 0x773 SWAP3 SWAP2 SWAP1 PUSH2 0xAB6 JUMP JUMPDEST POP PUSH1 0x1 DUP3 ADD SLOAD DUP2 PUSH1 0x1 ADD SSTORE PUSH1 0x2 DUP3 ADD SLOAD DUP2 PUSH1 0x2 ADD SSTORE PUSH1 0x3 DUP3 ADD PUSH1 0x0 SWAP1 SLOAD SWAP1 PUSH2 0x100 EXP SWAP1 DIV PUSH20 0xFFFFFFFFFFFFFFFFFFFFFFFFFFFFFFFFFFFFFFFF AND DUP2 PUSH1 0x3 ADD PUSH1 0x0 PUSH2 0x100 EXP DUP2 SLOAD DUP2 PUSH20 0xFFFFFFFFFFFFFFFFFFFFFFFFFFFFFFFFFFFFFFFF MUL NOT AND SWAP1 DUP4 PUSH20 0xFFFFFFFFFFFFFFFFFFFFFFFFFFFFFFFFFFFFFFFF AND MUL OR SWAP1 SSTORE POP PUSH1 0x3 DUP3 ADD PUSH1 0x14 SWAP1 SLOAD SWAP1 PUSH2 0x100 EXP SWAP1 DIV PUSH1 0xFF AND DUP2 PUSH1 0x3 ADD PUSH1 0x14 PUSH2 0x100 EXP DUP2 SLOAD DUP2 PUSH1 0xFF MUL NOT AND SWAP1 DUP4 ISZERO ISZERO MUL OR SWAP1 SSTORE POP POP POP POP POP POP POP POP POP JUMP JUMPDEST PUSH1 0x4 DUP2 DUP2 SLOAD DUP2 LT PUSH2 0x836 JUMPI PUSH1 0x0 DUP1 REVERT JUMPDEST SWAP1 PUSH1 0x0 MSTORE PUSH1 0x20 PUSH1 0x0 KECCAK256 SWAP1 PUSH1 0x4 MUL ADD PUSH1 0x0 SWAP2 POP SWAP1 POP DUP1 PUSH1 0x0 ADD DUP1 SLOAD PUSH2 0x859 SWAP1 PUSH2 0x1074 JUMP JUMPDEST DUP1 PUSH1 0x1F ADD PUSH1 0x20 DUP1 SWAP2 DIV MUL PUSH1 0x20 ADD PUSH1 0x40 MLOAD SWAP1 DUP2 ADD PUSH1 0x40 MSTORE DUP1 SWAP3 SWAP2 SWAP1 DUP2 DUP2 MSTORE PUSH1 0x20 ADD DUP3 DUP1 SLOAD PUSH2 0x885 SWAP1 PUSH2 0x1074 JUMP JUMPDEST DUP1 ISZERO PUSH2 0x8D2 JUMPI DUP1 PUSH1 0x1F LT PUSH2 0x8A7 JUMPI PUSH2 0x100 DUP1 DUP4 SLOAD DIV MUL DUP4 MSTORE SWAP2 PUSH1 0x20 ADD SWAP2 PUSH2 0x8D2 JUMP JUMPDEST DUP3 ADD SWAP2 SWAP1 PUSH1 0x0 MSTORE PUSH1 0x20 PUSH1 0x0 KECCAK256 SWAP1 JUMPDEST DUP2 SLOAD DUP2 MSTORE SWAP1 PUSH1 0x1 ADD SWAP1 PUSH1 0x20 ADD DUP1 DUP4 GT PUSH2 0x8B5 JUMPI DUP3 SWAP1 SUB PUSH1 0x1F AND DUP3 ADD SWAP2 JUMPDEST POP POP POP POP POP SWAP1 DUP1 PUSH1 0x1 ADD SLOAD SWAP1 DUP1 PUSH1 0x2 ADD SLOAD SWAP1 DUP1 PUSH1 0x3 ADD PUSH1 0x0 SWAP1 SLOAD SWAP1 PUSH2 0x100 EXP SWAP1 DIV PUSH20 0xFFFFFFFFFFFFFFFFFFFFFFFFFFFFFFFFFFFFFFFF AND SWAP1 DUP1 PUSH1 0x3 ADD PUSH1 0x14 SWAP1 SLOAD SWAP1 PUSH2 0x100 EXP SWAP1 DIV PUSH1 0xFF AND SWAP1 POP DUP6 JUMP JUMPDEST PUSH1 0x3 PUSH1 0x20 MSTORE DUP1 PUSH1 0x0 MSTORE PUSH1 0x40 PUSH1 0x0 KECCAK256 PUSH1 0x0 SWAP2 POP SWAP1 POP DUP1 PUSH1 0x0 ADD DUP1 SLOAD PUSH2 0x944 SWAP1 PUSH2 0x1074 JUMP JUMPDEST DUP1 PUSH1 0x1F ADD PUSH1 0x20 DUP1 SWAP2 DIV MUL PUSH1 0x20 ADD PUSH1 0x40 MLOAD SWAP1 DUP2 ADD PUSH1 0x40 MSTORE DUP1 SWAP3 SWAP2 SWAP1 DUP2 DUP2 MSTORE PUSH1 0x20 ADD DUP3 DUP1 SLOAD PUSH2 0x970 SWAP1 PUSH2 0x1074 JUMP JUMPDEST DUP1 ISZERO PUSH2 0x9BD JUMPI DUP1 PUSH1 0x1F LT PUSH2 0x992 JUMPI PUSH2 0x100 DUP1 DUP4 SLOAD DIV MUL DUP4 MSTORE SWAP2 PUSH1 0x20 ADD SWAP2 PUSH2 0x9BD JUMP JUMPDEST DUP3 ADD SWAP2 SWAP1 PUSH1 0x0 MSTORE PUSH1 0x20 PUSH1 0x0 KECCAK256 SWAP1 JUMPDEST DUP2 SLOAD DUP2 MSTORE SWAP1 PUSH1 0x1 ADD SWAP1 PUSH1 0x20 ADD DUP1 DUP4 GT PUSH2 0x9A0 JUMPI DUP3 SWAP1 SUB PUSH1 0x1F AND DUP3 ADD SWAP2 JUMPDEST POP POP POP POP POP SWAP1 DUP1 PUSH1 0x1 ADD SLOAD SWAP1 DUP1 PUSH1 0x2 ADD SLOAD SWAP1 DUP1 PUSH1 0x3 ADD PUSH1 0x0 SWAP1 SLOAD SWAP1 PUSH2 0x100 EXP SWAP1 DIV PUSH20 0xFFFFFFFFFFFFFFFFFFFFFFFFFFFFFFFFFFFFFFFF AND SWAP1 DUP1 PUSH1 0x3 ADD PUSH1 0x14 SWAP1 SLOAD SWAP1 PUSH2 0x100 EXP SWAP1 DIV PUSH1 0xFF AND SWAP1 POP DUP6 JUMP JUMPDEST PUSH1 0x0 DUP1 SLOAD SWAP1 PUSH2 0x100 EXP SWAP1 DIV PUSH20 0xFFFFFFFFFFFFFFFFFFFFFFFFFFFFFFFFFFFFFFFF AND DUP2 JUMP JUMPDEST DUP3 DUP1 SLOAD PUSH2 0xA3C SWAP1 PUSH2 0x1074 JUMP JUMPDEST SWAP1 PUSH1 0x0 MSTORE PUSH1 0x20 PUSH1 0x0 KECCAK256 SWAP1 PUSH1 0x1F ADD PUSH1 0x20 SWAP1 DIV DUP2 ADD SWAP3 DUP3 PUSH2 0xA5E JUMPI PUSH1 0x0 DUP6 SSTORE PUSH2 0xAA5 JUMP JUMPDEST DUP3 PUSH1 0x1F LT PUSH2 0xA77 JUMPI DUP1 MLOAD PUSH1 0xFF NOT AND DUP4 DUP1 ADD OR DUP6 SSTORE PUSH2 0xAA5 JUMP JUMPDEST DUP3 DUP1 ADD PUSH1 0x1 ADD DUP6 SSTORE DUP3 ISZERO PUSH2 0xAA5 JUMPI SWAP2 DUP3 ADD JUMPDEST DUP3 DUP2 GT ISZERO PUSH2 0xAA4 JUMPI DUP3 MLOAD DUP3 SSTORE SWAP2 PUSH1 0x20 ADD SWAP2 SWAP1 PUSH1 0x1 ADD SWAP1 PUSH2 0xA89 JUMP JUMPDEST JUMPDEST POP SWAP1 POP PUSH2 0xAB2 SWAP2 SWAP1 PUSH2 0xB43 JUMP JUMPDEST POP SWAP1 JUMP JUMPDEST DUP3 DUP1 SLOAD PUSH2 0xAC2 SWAP1 PUSH2 0x1074 JUMP JUMPDEST SWAP1 PUSH1 0x0 MSTORE PUSH1 0x20 PUSH1 0x0 KECCAK256 SWAP1 PUSH1 0x1F ADD PUSH1 0x20 SWAP1 DIV DUP2 ADD SWAP3 DUP3 PUSH2 0xAE4 JUMPI PUSH1 0x0 DUP6 SSTORE PUSH2 0xB32 JUMP JUMPDEST DUP3 PUSH1 0x1F LT PUSH2 0xAF5 JUMPI DUP1 SLOAD DUP6 SSTORE PUSH2 0xB32 JUMP JUMPDEST DUP3 DUP1 ADD PUSH1 0x1 ADD DUP6 SSTORE DUP3 ISZERO PUSH2 0xB32 JUMPI PUSH1 0x0 MSTORE PUSH1 0x20 PUSH1 0x0 KECCAK256 SWAP2 PUSH1 0x1F ADD PUSH1 0x20 SWAP1 DIV DUP3 ADD JUMPDEST DUP3 DUP2 GT ISZERO PUSH2 0xB31 JUMPI DUP3 SLOAD DUP3 SSTORE SWAP2 PUSH1 0x1 ADD SWAP2 SWAP1 PUSH1 0x1 ADD SWAP1 PUSH2 0xB16 JUMP JUMPDEST JUMPDEST POP SWAP1 POP PUSH2 0xB3F SWAP2 SWAP1 PUSH2 0xB43 JUMP JUMPDEST POP SWAP1 JUMP JUMPDEST JUMPDEST DUP1 DUP3 GT ISZERO PUSH2 0xB5C JUMPI PUSH1 0x0 DUP2 PUSH1 0x0 SWAP1 SSTORE POP PUSH1 0x1 ADD PUSH2 0xB44 JUMP JUMPDEST POP SWAP1 JUMP JUMPDEST PUSH1 0x0 PUSH2 0xB73 PUSH2 0xB6E DUP5 PUSH2 0xF8B JUMP JUMPDEST PUSH2 0xF66 JUMP JUMPDEST SWAP1 POP DUP3 DUP2 MSTORE PUSH1 0x20 DUP2 ADD DUP5 DUP5 DUP5 ADD GT ISZERO PUSH2 0xB8F JUMPI PUSH2 0xB8E PUSH2 0x11E1 JUMP JUMPDEST JUMPDEST PUSH2 0xB9A DUP5 DUP3 DUP6 PUSH2 0x1032 JUMP JUMPDEST POP SWAP4 SWAP3 POP POP POP JUMP JUMPDEST PUSH1 0x0 DUP2 CALLDATALOAD SWAP1 POP PUSH2 0xBB1 DUP2 PUSH2 0x12A5 JUMP JUMPDEST SWAP3 SWAP2 POP POP JUMP JUMPDEST PUSH1 0x0 DUP2 CALLDATALOAD SWAP1 POP PUSH2 0xBC6 DUP2 PUSH2 0x12BC JUMP JUMPDEST SWAP3 SWAP2 POP POP JUMP JUMPDEST PUSH1 0x0 DUP2 CALLDATALOAD SWAP1 POP PUSH2 0xBDB DUP2 PUSH2 0x12D3 JUMP JUMPDEST SWAP3 SWAP2 POP POP JUMP JUMPDEST PUSH1 0x0 DUP3 PUSH1 0x1F DUP4 ADD SLT PUSH2 0xBF6 JUMPI PUSH2 0xBF5 PUSH2 0x11DC JUMP JUMPDEST JUMPDEST DUP2 CALLDATALOAD PUSH2 0xC06 DUP5 DUP3 PUSH1 0x20 DUP7 ADD PUSH2 0xB60 JUMP JUMPDEST SWAP2 POP POP SWAP3 SWAP2 POP POP JUMP JUMPDEST PUSH1 0x0 DUP2 CALLDATALOAD SWAP1 POP PUSH2 0xC1E DUP2 PUSH2 0x12EA JUMP JUMPDEST SWAP3 SWAP2 POP POP JUMP JUMPDEST PUSH1 0x0 PUSH1 0x20 DUP3 DUP5 SUB SLT ISZERO PUSH2 0xC3A JUMPI PUSH2 0xC39 PUSH2 0x11EB JUMP JUMPDEST JUMPDEST PUSH1 0x0 PUSH2 0xC48 DUP5 DUP3 DUP6 ADD PUSH2 0xBA2 JUMP JUMPDEST SWAP2 POP POP SWAP3 SWAP2 POP POP JUMP JUMPDEST PUSH1 0x0 DUP1 PUSH1 0x40 DUP4 DUP6 SUB SLT ISZERO PUSH2 0xC68 JUMPI PUSH2 0xC67 PUSH2 0x11EB JUMP JUMPDEST JUMPDEST PUSH1 0x0 PUSH2 0xC76 DUP6 DUP3 DUP7 ADD PUSH2 0xBB7 JUMP JUMPDEST SWAP3 POP POP PUSH1 0x20 PUSH2 0xC87 DUP6 DUP3 DUP7 ADD PUSH2 0xC0F JUMP JUMPDEST SWAP2 POP POP SWAP3 POP SWAP3 SWAP1 POP JUMP JUMPDEST PUSH1 0x0 DUP1 PUSH1 0x0 DUP1 PUSH1 0x0 PUSH1 0xA0 DUP7 DUP9 SUB SLT ISZERO PUSH2 0xCAD JUMPI PUSH2 0xCAC PUSH2 0x11EB JUMP JUMPDEST JUMPDEST PUSH1 0x0 DUP7 ADD CALLDATALOAD PUSH8 0xFFFFFFFFFFFFFFFF DUP2 GT ISZERO PUSH2 0xCCB JUMPI PUSH2 0xCCA PUSH2 0x11E6 JUMP JUMPDEST JUMPDEST PUSH2 0xCD7 DUP9 DUP3 DUP10 ADD PUSH2 0xBE1 JUMP JUMPDEST SWAP6 POP POP PUSH1 0x20 PUSH2 0xCE8 DUP9 DUP3 DUP10 ADD PUSH2 0xC0F JUMP JUMPDEST SWAP5 POP POP PUSH1 0x40 PUSH2 0xCF9 DUP9 DUP3 DUP10 ADD PUSH2 0xC0F JUMP JUMPDEST SWAP4 POP POP PUSH1 0x60 PUSH2 0xD0A DUP9 DUP3 DUP10 ADD PUSH2 0xBB7 JUMP JUMPDEST SWAP3 POP POP PUSH1 0x80 PUSH2 0xD1B DUP9 DUP3 DUP10 ADD PUSH2 0xBCC JUMP JUMPDEST SWAP2 POP POP SWAP3 SWAP6 POP SWAP3 SWAP6 SWAP1 SWAP4 POP JUMP JUMPDEST PUSH1 0x0 PUSH1 0x20 DUP3 DUP5 SUB SLT ISZERO PUSH2 0xD3E JUMPI PUSH2 0xD3D PUSH2 0x11EB JUMP JUMPDEST JUMPDEST PUSH1 0x0 PUSH2 0xD4C DUP5 DUP3 DUP6 ADD PUSH2 0xC0F JUMP JUMPDEST SWAP2 POP POP SWAP3 SWAP2 POP POP JUMP JUMPDEST PUSH2 0xD5E DUP2 PUSH2 0xFEA JUMP JUMPDEST DUP3 MSTORE POP POP JUMP JUMPDEST PUSH2 0xD6D DUP2 PUSH2 0xFD8 JUMP JUMPDEST DUP3 MSTORE POP POP JUMP JUMPDEST PUSH2 0xD7C DUP2 PUSH2 0xFFC JUMP JUMPDEST DUP3 MSTORE POP POP JUMP JUMPDEST PUSH1 0x0 PUSH2 0xD8D DUP3 PUSH2 0xFBC JUMP JUMPDEST PUSH2 0xD97 DUP2 DUP6 PUSH2 0xFC7 JUMP JUMPDEST SWAP4 POP PUSH2 0xDA7 DUP2 DUP6 PUSH1 0x20 DUP7 ADD PUSH2 0x1041 JUMP JUMPDEST PUSH2 0xDB0 DUP2 PUSH2 0x11F0 JUMP JUMPDEST DUP5 ADD SWAP2 POP POP SWAP3 SWAP2 POP POP JUMP JUMPDEST PUSH1 0x0 PUSH2 0xDC8 PUSH1 0x14 DUP4 PUSH2 0xFC7 JUMP JUMPDEST SWAP2 POP PUSH2 0xDD3 DUP3 PUSH2 0x1201 JUMP JUMPDEST PUSH1 0x20 DUP3 ADD SWAP1 POP SWAP2 SWAP1 POP JUMP JUMPDEST PUSH1 0x0 PUSH2 0xDEB PUSH1 0x16 DUP4 PUSH2 0xFC7 JUMP JUMPDEST SWAP2 POP PUSH2 0xDF6 DUP3 PUSH2 0x122A JUMP JUMPDEST PUSH1 0x20 DUP3 ADD SWAP1 POP SWAP2 SWAP1 POP JUMP JUMPDEST PUSH1 0x0 PUSH2 0xE0E PUSH1 0x19 DUP4 PUSH2 0xFC7 JUMP JUMPDEST SWAP2 POP PUSH2 0xE19 DUP3 PUSH2 0x1253 JUMP JUMPDEST PUSH1 0x20 DUP3 ADD SWAP1 POP SWAP2 SWAP1 POP JUMP JUMPDEST PUSH1 0x0 PUSH2 0xE31 PUSH1 0x15 DUP4 PUSH2 0xFC7 JUMP JUMPDEST SWAP2 POP PUSH2 0xE3C DUP3 PUSH2 0x127C JUMP JUMPDEST PUSH1 0x20 DUP3 ADD SWAP1 POP SWAP2 SWAP1 POP JUMP JUMPDEST PUSH2 0xE50 DUP2 PUSH2 0x1028 JUMP JUMPDEST DUP3 MSTORE POP POP JUMP JUMPDEST PUSH1 0x0 PUSH1 0x20 DUP3 ADD SWAP1 POP PUSH2 0xE6B PUSH1 0x0 DUP4 ADD DUP5 PUSH2 0xD64 JUMP JUMPDEST SWAP3 SWAP2 POP POP JUMP JUMPDEST PUSH1 0x0 PUSH1 0xA0 DUP3 ADD SWAP1 POP DUP2 DUP2 SUB PUSH1 0x0 DUP4 ADD MSTORE PUSH2 0xE8B DUP2 DUP9 PUSH2 0xD82 JUMP JUMPDEST SWAP1 POP PUSH2 0xE9A PUSH1 0x20 DUP4 ADD DUP8 PUSH2 0xE47 JUMP JUMPDEST PUSH2 0xEA7 PUSH1 0x40 DUP4 ADD DUP7 PUSH2 0xE47 JUMP JUMPDEST PUSH2 0xEB4 PUSH1 0x60 DUP4 ADD DUP6 PUSH2 0xD55 JUMP JUMPDEST PUSH2 0xEC1 PUSH1 0x80 DUP4 ADD DUP5 PUSH2 0xD73 JUMP JUMPDEST SWAP7 SWAP6 POP POP POP POP POP POP JUMP JUMPDEST PUSH1 0x0 PUSH1 0x20 DUP3 ADD SWAP1 POP DUP2 DUP2 SUB PUSH1 0x0 DUP4 ADD MSTORE PUSH2 0xEE4 DUP2 PUSH2 0xDBB JUMP JUMPDEST SWAP1 POP SWAP2 SWAP1 POP JUMP JUMPDEST PUSH1 0x0 PUSH1 0x20 DUP3 ADD SWAP1 POP DUP2 DUP2 SUB PUSH1 0x0 DUP4 ADD MSTORE PUSH2 0xF04 DUP2 PUSH2 0xDDE JUMP JUMPDEST SWAP1 POP SWAP2 SWAP1 POP JUMP JUMPDEST PUSH1 0x0 PUSH1 0x20 DUP3 ADD SWAP1 POP DUP2 DUP2 SUB PUSH1 0x0 DUP4 ADD MSTORE PUSH2 0xF24 DUP2 PUSH2 0xE01 JUMP JUMPDEST SWAP1 POP SWAP2 SWAP1 POP JUMP JUMPDEST PUSH1 0x0 PUSH1 0x20 DUP3 ADD SWAP1 POP DUP2 DUP2 SUB PUSH1 0x0 DUP4 ADD MSTORE PUSH2 0xF44 DUP2 PUSH2 0xE24 JUMP JUMPDEST SWAP1 POP SWAP2 SWAP1 POP JUMP JUMPDEST PUSH1 0x0 PUSH1 0x20 DUP3 ADD SWAP1 POP PUSH2 0xF60 PUSH1 0x0 DUP4 ADD DUP5 PUSH2 0xE47 JUMP JUMPDEST SWAP3 SWAP2 POP POP JUMP JUMPDEST PUSH1 0x0 PUSH2 0xF70 PUSH2 0xF81 JUMP JUMPDEST SWAP1 POP PUSH2 0xF7C DUP3 DUP3 PUSH2 0x10A6 JUMP JUMPDEST SWAP2 SWAP1 POP JUMP JUMPDEST PUSH1 0x0 PUSH1 0x40 MLOAD SWAP1 POP SWAP1 JUMP JUMPDEST PUSH1 0x0 PUSH8 0xFFFFFFFFFFFFFFFF DUP3 GT ISZERO PUSH2 0xFA6 JUMPI PUSH2 0xFA5 PUSH2 0x11AD JUMP JUMPDEST JUMPDEST PUSH2 0xFAF DUP3 PUSH2 0x11F0 JUMP JUMPDEST SWAP1 POP PUSH1 0x20 DUP2 ADD SWAP1 POP SWAP2 SWAP1 POP JUMP JUMPDEST PUSH1 0x0 DUP2 MLOAD SWAP1 POP SWAP2 SWAP1 POP JUMP JUMPDEST PUSH1 0x0 DUP3 DUP3 MSTORE PUSH1 0x20 DUP3 ADD SWAP1 POP SWAP3 SWAP2 POP POP JUMP JUMPDEST PUSH1 0x0 PUSH2 0xFE3 DUP3 PUSH2 0x1008 JUMP JUMPDEST SWAP1 POP SWAP2 SWAP1 POP JUMP JUMPDEST PUSH1 0x0 PUSH2 0xFF5 DUP3 PUSH2 0x1008 JUMP JUMPDEST SWAP1 POP SWAP2 SWAP1 POP JUMP JUMPDEST PUSH1 0x0 DUP2 ISZERO ISZERO SWAP1 POP SWAP2 SWAP1 POP JUMP JUMPDEST PUSH1 0x0 PUSH20 0xFFFFFFFFFFFFFFFFFFFFFFFFFFFFFFFFFFFFFFFF DUP3 AND SWAP1 POP SWAP2 SWAP1 POP JUMP JUMPDEST PUSH1 0x0 DUP2 SWAP1 POP SWAP2 SWAP1 POP JUMP JUMPDEST DUP3 DUP2 DUP4 CALLDATACOPY PUSH1 0x0 DUP4 DUP4 ADD MSTORE POP POP POP JUMP JUMPDEST PUSH1 0x0 JUMPDEST DUP4 DUP2 LT ISZERO PUSH2 0x105F JUMPI DUP1 DUP3 ADD MLOAD DUP2 DUP5 ADD MSTORE PUSH1 0x20 DUP2 ADD SWAP1 POP PUSH2 0x1044 JUMP JUMPDEST DUP4 DUP2 GT ISZERO PUSH2 0x106E JUMPI PUSH1 0x0 DUP5 DUP5 ADD MSTORE JUMPDEST POP POP POP POP JUMP JUMPDEST PUSH1 0x0 PUSH1 0x2 DUP3 DIV SWAP1 POP PUSH1 0x1 DUP3 AND DUP1 PUSH2 0x108C JUMPI PUSH1 0x7F DUP3 AND SWAP2 POP JUMPDEST PUSH1 0x20 DUP3 LT DUP2 EQ ISZERO PUSH2 0x10A0 JUMPI PUSH2 0x109F PUSH2 0x114F JUMP JUMPDEST JUMPDEST POP SWAP2 SWAP1 POP JUMP JUMPDEST PUSH2 0x10AF DUP3 PUSH2 0x11F0 JUMP JUMPDEST DUP2 ADD DUP2 DUP2 LT PUSH8 0xFFFFFFFFFFFFFFFF DUP3 GT OR ISZERO PUSH2 0x10CE JUMPI PUSH2 0x10CD PUSH2 0x11AD JUMP JUMPDEST JUMPDEST DUP1 PUSH1 0x40 MSTORE POP POP POP JUMP JUMPDEST PUSH1 0x0 PUSH2 0x10E2 DUP3 PUSH2 0x1028 JUMP JUMPDEST SWAP2 POP PUSH32 0xFFFFFFFFFFFFFFFFFFFFFFFFFFFFFFFFFFFFFFFFFFFFFFFFFFFFFFFFFFFFFFFF DUP3 EQ ISZERO PUSH2 0x1115 JUMPI PUSH2 0x1114 PUSH2 0x1120 JUMP JUMPDEST JUMPDEST PUSH1 0x1 DUP3 ADD SWAP1 POP SWAP2 SWAP1 POP JUMP JUMPDEST PUSH32 0x4E487B7100000000000000000000000000000000000000000000000000000000 PUSH1 0x0 MSTORE PUSH1 0x11 PUSH1 0x4 MSTORE PUSH1 0x24 PUSH1 0x0 REVERT JUMPDEST PUSH32 0x4E487B7100000000000000000000000000000000000000000000000000000000 PUSH1 0x0 MSTORE PUSH1 0x22 PUSH1 0x4 MSTORE PUSH1 0x24 PUSH1 0x0 REVERT JUMPDEST PUSH32 0x4E487B7100000000000000000000000000000000000000000000000000000000 PUSH1 0x0 MSTORE PUSH1 0x32 PUSH1 0x4 MSTORE PUSH1 0x24 PUSH1 0x0 REVERT JUMPDEST PUSH32 0x4E487B7100000000000000000000000000000000000000000000000000000000 PUSH1 0x0 MSTORE PUSH1 0x41 PUSH1 0x4 MSTORE PUSH1 0x24 PUSH1 0x0 REVERT JUMPDEST PUSH1 0x0 DUP1 REVERT JUMPDEST PUSH1 0x0 DUP1 REVERT JUMPDEST PUSH1 0x0 DUP1 REVERT JUMPDEST PUSH1 0x0 DUP1 REVERT JUMPDEST PUSH1 0x0 PUSH1 0x1F NOT PUSH1 0x1F DUP4 ADD AND SWAP1 POP SWAP2 SWAP1 POP JUMP JUMPDEST PUSH32 0x4661696C656420746F2073656E64204554484552000000000000000000000000 PUSH1 0x0 DUP3 ADD MSTORE POP JUMP JUMPDEST PUSH32 0x796F7520646F6E27742068617665207269676874732000000000000000000000 PUSH1 0x0 DUP3 ADD MSTORE POP JUMP JUMPDEST PUSH32 0x53616C61727920616C7265616479206973206372656974656400000000000000 PUSH1 0x0 DUP3 ADD MSTORE POP JUMP JUMPDEST PUSH32 0x7573657220616C72656164792072656769737465720000000000000000000000 PUSH1 0x0 DUP3 ADD MSTORE POP JUMP JUMPDEST PUSH2 0x12AE DUP2 PUSH2 0xFD8 JUMP JUMPDEST DUP2 EQ PUSH2 0x12B9 JUMPI PUSH1 0x0 DUP1 REVERT JUMPDEST POP JUMP JUMPDEST PUSH2 0x12C5 DUP2 PUSH2 0xFEA JUMP JUMPDEST DUP2 EQ PUSH2 0x12D0 JUMPI PUSH1 0x0 DUP1 REVERT JUMPDEST POP JUMP JUMPDEST PUSH2 0x12DC DUP2 PUSH2 0xFFC JUMP JUMPDEST DUP2 EQ PUSH2 0x12E7 JUMPI PUSH1 0x0 DUP1 REVERT JUMPDEST POP JUMP JUMPDEST PUSH2 0x12F3 DUP2 PUSH2 0x1028 JUMP JUMPDEST DUP2 EQ PUSH2 0x12FE JUMPI PUSH1 0x0 DUP1 REVERT JUMPDEST POP JUMP INVALID LOG2 PUSH5 0x6970667358 0x22 SLT KECCAK256 0xF8 0xD1 CALLDATASIZE 0xA7 PUSH22 0xBA90C2A555DA16DB82BA400DA4F085AB5103D927B6AD 0xAB PUSH13 0x212F4164736F6C634300080700 CALLER "
				},
				"gasEstimates": {
					"creation": {
						"codeDepositCost": "983800",
						"executionCost": "69499",
						"totalCost": "1053299"
					},
					"external": {
						"AllEmployes(uint256)": "infinite",
						"Employe_Registration(string,uint256,uint256,address,bool)": "infinite",
						"GetEmployeeDetails(address)": "infinite",
						"admin()": "2599",
						"sendingSalaries(address,uint256)": "infinite",
						"sendingSalariesToEmployee()": "infinite"
					}
				},
				"methodIdentifiers": {
					"AllEmployes(uint256)": "b58f421c",
					"Employe_Registration(string,uint256,uint256,address,bool)": "7a7e4369",
					"GetEmployeeDetails(address)": "d17106b7",
					"admin()": "f851a440",
					"sendingSalaries(address,uint256)": "18c7a051",
					"sendingSalariesToEmployee()": "04b642a4"
				}
			},
			"storageLayout": {
				"storage": [
					{
						"astId": 3,
						"contract": "contracts/salary.sol:salary",
						"label": "admin",
						"offset": 0,
						"slot": "0",
						"type": "t_address"
					},
					{
						"astId": 15,
						"contract": "contracts/salary.sol:salary",
						"label": "SalaryOfP1",
						"offset": 0,
						"slot": "1",
						"type": "t_uint256"
					},
					{
						"astId": 18,
						"contract": "contracts/salary.sol:salary",
						"label": "SalaryOfP2",
						"offset": 0,
						"slot": "2",
						"type": "t_uint256"
					},
					{
						"astId": 34,
						"contract": "contracts/salary.sol:salary",
						"label": "GetEmployeeDetails",
						"offset": 0,
						"slot": "3",
						"type": "t_mapping(t_address,t_struct(Employe)29_storage)"
					},
					{
						"astId": 38,
						"contract": "contracts/salary.sol:salary",
						"label": "AllEmployes",
						"offset": 0,
						"slot": "4",
						"type": "t_array(t_struct(Employe)29_storage)dyn_storage"
					}
				],
				"types": {
					"t_address": {
						"encoding": "inplace",
						"label": "address",
						"numberOfBytes": "20"
					},
					"t_address_payable": {
						"encoding": "inplace",
						"label": "address payable",
						"numberOfBytes": "20"
					},
					"t_array(t_struct(Employe)29_storage)dyn_storage": {
						"base": "t_struct(Employe)29_storage",
						"encoding": "dynamic_array",
						"label": "struct salary.Employe[]",
						"numberOfBytes": "32"
					},
					"t_bool": {
						"encoding": "inplace",
						"label": "bool",
						"numberOfBytes": "1"
					},
					"t_mapping(t_address,t_struct(Employe)29_storage)": {
						"encoding": "mapping",
						"key": "t_address",
						"label": "mapping(address => struct salary.Employe)",
						"numberOfBytes": "32",
						"value": "t_struct(Employe)29_storage"
					},
					"t_string_storage": {
						"encoding": "bytes",
						"label": "string",
						"numberOfBytes": "32"
					},
					"t_struct(Employe)29_storage": {
						"encoding": "inplace",
						"label": "struct salary.Employe",
						"members": [
							{
								"astId": 20,
								"contract": "contracts/salary.sol:salary",
								"label": "name",
								"offset": 0,
								"slot": "0",
								"type": "t_string_storage"
							},
							{
								"astId": 22,
								"contract": "contracts/salary.sol:salary",
								"label": "role",
								"offset": 0,
								"slot": "1",
								"type": "t_uint256"
							},
							{
								"astId": 24,
								"contract": "contracts/salary.sol:salary",
								"label": "Id_No",
								"offset": 0,
								"slot": "2",
								"type": "t_uint256"
							},
							{
								"astId": 26,
								"contract": "contracts/salary.sol:salary",
								"label": "account_No",
								"offset": 0,
								"slot": "3",
								"type": "t_address_payable"
							},
							{
								"astId": 28,
								"contract": "contracts/salary.sol:salary",
								"label": "paid_status",
								"offset": 20,
								"slot": "3",
								"type": "t_bool"
							}
						],
						"numberOfBytes": "128"
					},
					"t_uint256": {
						"encoding": "inplace",
						"label": "uint256",
						"numberOfBytes": "32"
					}
				}
			},
			"userdoc": {
				"kind": "user",
				"methods": {
					"Employe_Registration(string,uint256,uint256,address,bool)": {
						"notice": "0xb2309adF6FD227cd04fcAa5546E1375B2BC65Da0"
					}
				},
				"version": 1
			}
		}
	}
}