{
	"contracts/salary.sol": {
		"salary": {
			"abi": [
				{
					"inputs": [],
					"stateMutability": "nonpayable",
					"type": "constructor"
				},
				{
					"inputs": [
						{
							"internalType": "uint256",
							"name": "",
							"type": "uint256"
						}
					],
					"name": "AllEmployes",
					"outputs": [
						{
							"internalType": "string",
							"name": "name",
							"type": "string"
						},
						{
							"internalType": "uint256",
							"name": "role",
							"type": "uint256"
						},
						{
							"internalType": "uint256",
							"name": "Id_No",
							"type": "uint256"
						},
						{
							"internalType": "address payable",
							"name": "account_No",
							"type": "address"
						},
						{
							"internalType": "bool",
							"name": "paid_status",
							"type": "bool"
						}
					],
					"stateMutability": "view",
					"type": "function"
				},
				{
					"inputs": [
						{
							"internalType": "address",
							"name": "",
							"type": "address"
						}
					],
					"name": "GetEmployeeDetails",
					"outputs": [
						{
							"internalType": "string",
							"name": "name",
							"type": "string"
						},
						{
							"internalType": "uint256",
							"name": "role",
							"type": "uint256"
						},
						{
							"internalType": "uint256",
							"name": "Id_No",
							"type": "uint256"
						},
						{
							"internalType": "address payable",
							"name": "account_No",
							"type": "address"
						},
						{
							"internalType": "bool",
							"name": "paid_status",
							"type": "bool"
						}
					],
					"stateMutability": "view",
					"type": "function"
				},
				{
					"inputs": [],
					"name": "admin",
					"outputs": [
						{
							"internalType": "address",
							"name": "",
							"type": "address"
						}
					],
					"stateMutability": "view",
					"type": "function"
				},
				{
					"inputs": [
						{
							"internalType": "address payable",
							"name": "_ToEmployeAddress",
							"type": "address"
						},
						{
							"internalType": "uint256",
							"name": "_amount",
							"type": "uint256"
						}
					],
					"name": "sendingSalaries",
					"outputs": [
						{
							"internalType": "bool",
							"name": "",
							"type": "bool"
						}
					],
					"stateMutability": "payable",
					"type": "function"
				},
				{
					"inputs": [],
					"name": "sendingSalariesToEmployee",
					"outputs": [],
					"stateMutability": "nonpayable",
					"type": "function"
				}
			],
			"devdoc": {
				"kind": "dev",
				"methods": {},
				"version": 1
			},
			"evm": {
				"assembly": "    /* \"contracts/salary.sol\":65:4877  contract salary{\r... */\n  mstore(0x40, 0x80)\n    /* \"contracts/salary.sol\":329:346  20000000000000000 */\n  0x470de4df820000\n    /* \"contracts/salary.sol\":311:346  uint  SalaryOfP1= 20000000000000000 */\n  0x01\n  sstore\n    /* \"contracts/salary.sol\":379:396  30000000000000000 */\n  0x6a94d74f430000\n    /* \"contracts/salary.sol\":362:396  uint  SalaryOfP2=30000000000000000 */\n  0x02\n  sstore\n    /* \"contracts/salary.sol\":160:210  constructor (){\r... */\n  callvalue\n  dup1\n  iszero\n  tag_1\n  jumpi\n  0x00\n  dup1\n  revert\ntag_1:\n  pop\n    /* \"contracts/salary.sol\":196:206  msg.sender */\n  caller\n    /* \"contracts/salary.sol\":189:194  admin */\n  0x00\n  dup1\n    /* \"contracts/salary.sol\":189:206  admin= msg.sender */\n  0x0100\n  exp\n  dup2\n  sload\n  dup2\n  0xffffffffffffffffffffffffffffffffffffffff\n  mul\n  not\n  and\n  swap1\n  dup4\n  0xffffffffffffffffffffffffffffffffffffffff\n  and\n  mul\n  or\n  swap1\n  sstore\n  pop\n    /* \"contracts/salary.sol\":65:4877  contract salary{\r... */\n  dataSize(sub_0)\n  dup1\n  dataOffset(sub_0)\n  0x00\n  codecopy\n  0x00\n  return\nstop\n\nsub_0: assembly {\n        /* \"contracts/salary.sol\":65:4877  contract salary{\r... */\n      mstore(0x40, 0x80)\n      jumpi(tag_1, lt(calldatasize, 0x04))\n      shr(0xe0, calldataload(0x00))\n      dup1\n      0x04b642a4\n      eq\n      tag_2\n      jumpi\n      dup1\n      0x18c7a051\n      eq\n      tag_3\n      jumpi\n      dup1\n      0xb58f421c\n      eq\n      tag_4\n      jumpi\n      dup1\n      0xd17106b7\n      eq\n      tag_5\n      jumpi\n      dup1\n      0xf851a440\n      eq\n      tag_6\n      jumpi\n    tag_1:\n      0x00\n      dup1\n      revert\n        /* \"contracts/salary.sol\":1760:2355  function sendingSalariesToEmployee() public   onlyAdmin {\r... */\n    tag_2:\n      callvalue\n      dup1\n      iszero\n      tag_7\n      jumpi\n      0x00\n      dup1\n      revert\n    tag_7:\n      pop\n      tag_8\n      tag_9\n      jump\t// in\n    tag_8:\n      stop\n        /* \"contracts/salary.sol\":2383:2815  function sendingSalaries(address payable  _ToEmployeAddress ,uint _amount)  public onlyAdmin  payable   returns  (bool){\r... */\n    tag_3:\n      tag_10\n      0x04\n      dup1\n      calldatasize\n      sub\n      dup2\n      add\n      swap1\n      tag_11\n      swap2\n      swap1\n      tag_12\n      jump\t// in\n    tag_11:\n      tag_13\n      jump\t// in\n    tag_10:\n      mload(0x40)\n      tag_14\n      swap2\n      swap1\n      tag_15\n      jump\t// in\n    tag_14:\n      mload(0x40)\n      dup1\n      swap2\n      sub\n      swap1\n      return\n        /* \"contracts/salary.sol\":700:729  Employe [] public AllEmployes */\n    tag_4:\n      callvalue\n      dup1\n      iszero\n      tag_16\n      jumpi\n      0x00\n      dup1\n      revert\n    tag_16:\n      pop\n      tag_17\n      0x04\n      dup1\n      calldatasize\n      sub\n      dup2\n      add\n      swap1\n      tag_18\n      swap2\n      swap1\n      tag_19\n      jump\t// in\n    tag_18:\n      tag_20\n      jump\t// in\n    tag_17:\n      mload(0x40)\n      tag_21\n      swap6\n      swap5\n      swap4\n      swap3\n      swap2\n      swap1\n      tag_22\n      jump\t// in\n    tag_21:\n      mload(0x40)\n      dup1\n      swap2\n      sub\n      swap1\n      return\n        /* \"contracts/salary.sol\":618:670  mapping (address=>Employe) public GetEmployeeDetails */\n    tag_5:\n      callvalue\n      dup1\n      iszero\n      tag_23\n      jumpi\n      0x00\n      dup1\n      revert\n    tag_23:\n      pop\n      tag_24\n      0x04\n      dup1\n      calldatasize\n      sub\n      dup2\n      add\n      swap1\n      tag_25\n      swap2\n      swap1\n      tag_26\n      jump\t// in\n    tag_25:\n      tag_27\n      jump\t// in\n    tag_24:\n      mload(0x40)\n      tag_28\n      swap6\n      swap5\n      swap4\n      swap3\n      swap2\n      swap1\n      tag_22\n      jump\t// in\n    tag_28:\n      mload(0x40)\n      dup1\n      swap2\n      sub\n      swap1\n      return\n        /* \"contracts/salary.sol\":123:143  address public admin */\n    tag_6:\n      callvalue\n      dup1\n      iszero\n      tag_29\n      jumpi\n      0x00\n      dup1\n      revert\n    tag_29:\n      pop\n      tag_30\n      tag_31\n      jump\t// in\n    tag_30:\n      mload(0x40)\n      tag_32\n      swap2\n      swap1\n      tag_33\n      jump\t// in\n    tag_32:\n      mload(0x40)\n      dup1\n      swap2\n      sub\n      swap1\n      return\n        /* \"contracts/salary.sol\":1760:2355  function sendingSalariesToEmployee() public   onlyAdmin {\r... */\n    tag_9:\n        /* \"contracts/salary.sol\":795:800  admin */\n      0x00\n      dup1\n      sload\n      swap1\n      0x0100\n      exp\n      swap1\n      div\n      0xffffffffffffffffffffffffffffffffffffffff\n      and\n        /* \"contracts/salary.sol\":783:800  msg.sender==admin */\n      0xffffffffffffffffffffffffffffffffffffffff\n      and\n        /* \"contracts/salary.sol\":783:793  msg.sender */\n      caller\n        /* \"contracts/salary.sol\":783:800  msg.sender==admin */\n      0xffffffffffffffffffffffffffffffffffffffff\n      and\n      eq\n        /* \"contracts/salary.sol\":775:826  require(msg.sender==admin,\"you don't have rights \") */\n      tag_35\n      jumpi\n      mload(0x40)\n      0x08c379a000000000000000000000000000000000000000000000000000000000\n      dup2\n      mstore\n      0x04\n      add\n      tag_36\n      swap1\n      tag_37\n      jump\t// in\n    tag_36:\n      mload(0x40)\n      dup1\n      swap2\n      sub\n      swap1\n      revert\n    tag_35:\n        /* \"contracts/salary.sol\":1841:1850  uint256 i */\n      0x00\n        /* \"contracts/salary.sol\":1837:2348  for(uint256 i= 0; i<AllEmployes.length; i++){\r... */\n    tag_39:\n        /* \"contracts/salary.sol\":1857:1868  AllEmployes */\n      0x04\n        /* \"contracts/salary.sol\":1857:1875  AllEmployes.length */\n      dup1\n      sload\n      swap1\n      pop\n        /* \"contracts/salary.sol\":1855:1856  i */\n      dup2\n        /* \"contracts/salary.sol\":1855:1875  i<AllEmployes.length */\n      lt\n        /* \"contracts/salary.sol\":1837:2348  for(uint256 i= 0; i<AllEmployes.length; i++){\r... */\n      iszero\n      tag_40\n      jumpi\n        /* \"contracts/salary.sol\":1898:1909  AllEmployes */\n      0x04\n        /* \"contracts/salary.sol\":1910:1911  i */\n      dup2\n        /* \"contracts/salary.sol\":1898:1912  AllEmployes[i] */\n      dup2\n      sload\n      dup2\n      lt\n      tag_42\n      jumpi\n      tag_43\n      tag_44\n      jump\t// in\n    tag_43:\n    tag_42:\n      swap1\n      0x00\n      mstore\n      keccak256(0x00, 0x20)\n      swap1\n      0x04\n      mul\n      add\n        /* \"contracts/salary.sol\":1898:1924  AllEmployes[i].paid_status */\n      0x03\n      add\n      0x14\n      swap1\n      sload\n      swap1\n      0x0100\n      exp\n      swap1\n      div\n      0xff\n      and\n        /* \"contracts/salary.sol\":1893:2337  if (!AllEmployes[i].paid_status)\r... */\n      tag_46\n      jumpi\n        /* \"contracts/salary.sol\":1980:1981  1 */\n      0x01\n        /* \"contracts/salary.sol\":1957:1968  AllEmployes */\n      0x04\n        /* \"contracts/salary.sol\":1969:1970  i */\n      dup3\n        /* \"contracts/salary.sol\":1957:1971  AllEmployes[i] */\n      dup2\n      sload\n      dup2\n      lt\n      tag_47\n      jumpi\n      tag_48\n      tag_44\n      jump\t// in\n    tag_48:\n    tag_47:\n      swap1\n      0x00\n      mstore\n      keccak256(0x00, 0x20)\n      swap1\n      0x04\n      mul\n      add\n        /* \"contracts/salary.sol\":1957:1976  AllEmployes[i].role */\n      0x01\n      add\n      sload\n        /* \"contracts/salary.sol\":1957:1981  AllEmployes[i].role == 1 */\n      eq\n        /* \"contracts/salary.sol\":1953:2326  if( AllEmployes[i].role == 1)\r... */\n      iszero\n      tag_50\n      jumpi\n        /* \"contracts/salary.sol\":2015:2068  sendingSalaries(AllEmployes[i].account_No,SalaryOfP1) */\n      tag_51\n        /* \"contracts/salary.sol\":2031:2042  AllEmployes */\n      0x04\n        /* \"contracts/salary.sol\":2043:2044  i */\n      dup3\n        /* \"contracts/salary.sol\":2031:2045  AllEmployes[i] */\n      dup2\n      sload\n      dup2\n      lt\n      tag_52\n      jumpi\n      tag_53\n      tag_44\n      jump\t// in\n    tag_53:\n    tag_52:\n      swap1\n      0x00\n      mstore\n      keccak256(0x00, 0x20)\n      swap1\n      0x04\n      mul\n      add\n        /* \"contracts/salary.sol\":2031:2056  AllEmployes[i].account_No */\n      0x03\n      add\n      0x00\n      swap1\n      sload\n      swap1\n      0x0100\n      exp\n      swap1\n      div\n      0xffffffffffffffffffffffffffffffffffffffff\n      and\n        /* \"contracts/salary.sol\":2057:2067  SalaryOfP1 */\n      sload(0x01)\n        /* \"contracts/salary.sol\":2015:2030  sendingSalaries */\n      tag_13\n        /* \"contracts/salary.sol\":2015:2068  sendingSalaries(AllEmployes[i].account_No,SalaryOfP1) */\n      jump\t// in\n    tag_51:\n      pop\n        /* \"contracts/salary.sol\":2114:2118  true */\n      0x01\n        /* \"contracts/salary.sol\":2087:2098  AllEmployes */\n      0x04\n        /* \"contracts/salary.sol\":2099:2100  i */\n      dup3\n        /* \"contracts/salary.sol\":2087:2101  AllEmployes[i] */\n      dup2\n      sload\n      dup2\n      lt\n      tag_55\n      jumpi\n      tag_56\n      tag_44\n      jump\t// in\n    tag_56:\n    tag_55:\n      swap1\n      0x00\n      mstore\n      keccak256(0x00, 0x20)\n      swap1\n      0x04\n      mul\n      add\n        /* \"contracts/salary.sol\":2087:2113  AllEmployes[i].paid_status */\n      0x03\n      add\n      0x14\n        /* \"contracts/salary.sol\":2087:2118  AllEmployes[i].paid_status=true */\n      0x0100\n      exp\n      dup2\n      sload\n      dup2\n      0xff\n      mul\n      not\n      and\n      swap1\n      dup4\n      iszero\n      iszero\n      mul\n      or\n      swap1\n      sstore\n      pop\n        /* \"contracts/salary.sol\":1953:2326  if( AllEmployes[i].role == 1)\r... */\n      jump(tag_58)\n    tag_50:\n        /* \"contracts/salary.sol\":2184:2185  2 */\n      0x02\n        /* \"contracts/salary.sol\":2161:2172  AllEmployes */\n      0x04\n        /* \"contracts/salary.sol\":2173:2174  i */\n      dup3\n        /* \"contracts/salary.sol\":2161:2175  AllEmployes[i] */\n      dup2\n      sload\n      dup2\n      lt\n      tag_59\n      jumpi\n      tag_60\n      tag_44\n      jump\t// in\n    tag_60:\n    tag_59:\n      swap1\n      0x00\n      mstore\n      keccak256(0x00, 0x20)\n      swap1\n      0x04\n      mul\n      add\n        /* \"contracts/salary.sol\":2161:2180  AllEmployes[i].role */\n      0x01\n      add\n      sload\n        /* \"contracts/salary.sol\":2161:2185  AllEmployes[i].role == 2 */\n      eq\n        /* \"contracts/salary.sol\":2157:2326  if (AllEmployes[i].role == 2 ){\r... */\n      iszero\n      tag_62\n      jumpi\n        /* \"contracts/salary.sol\":2206:2259  sendingSalaries(AllEmployes[i].account_No,SalaryOfP2) */\n      tag_63\n        /* \"contracts/salary.sol\":2222:2233  AllEmployes */\n      0x04\n        /* \"contracts/salary.sol\":2234:2235  i */\n      dup3\n        /* \"contracts/salary.sol\":2222:2236  AllEmployes[i] */\n      dup2\n      sload\n      dup2\n      lt\n      tag_64\n      jumpi\n      tag_65\n      tag_44\n      jump\t// in\n    tag_65:\n    tag_64:\n      swap1\n      0x00\n      mstore\n      keccak256(0x00, 0x20)\n      swap1\n      0x04\n      mul\n      add\n        /* \"contracts/salary.sol\":2222:2247  AllEmployes[i].account_No */\n      0x03\n      add\n      0x00\n      swap1\n      sload\n      swap1\n      0x0100\n      exp\n      swap1\n      div\n      0xffffffffffffffffffffffffffffffffffffffff\n      and\n        /* \"contracts/salary.sol\":2248:2258  SalaryOfP2 */\n      sload(0x02)\n        /* \"contracts/salary.sol\":2206:2221  sendingSalaries */\n      tag_13\n        /* \"contracts/salary.sol\":2206:2259  sendingSalaries(AllEmployes[i].account_No,SalaryOfP2) */\n      jump\t// in\n    tag_63:\n      pop\n        /* \"contracts/salary.sol\":2305:2309  true */\n      0x01\n        /* \"contracts/salary.sol\":2278:2289  AllEmployes */\n      0x04\n        /* \"contracts/salary.sol\":2290:2291  i */\n      dup3\n        /* \"contracts/salary.sol\":2278:2292  AllEmployes[i] */\n      dup2\n      sload\n      dup2\n      lt\n      tag_67\n      jumpi\n      tag_68\n      tag_44\n      jump\t// in\n    tag_68:\n    tag_67:\n      swap1\n      0x00\n      mstore\n      keccak256(0x00, 0x20)\n      swap1\n      0x04\n      mul\n      add\n        /* \"contracts/salary.sol\":2278:2304  AllEmployes[i].paid_status */\n      0x03\n      add\n      0x14\n        /* \"contracts/salary.sol\":2278:2309  AllEmployes[i].paid_status=true */\n      0x0100\n      exp\n      dup2\n      sload\n      dup2\n      0xff\n      mul\n      not\n      and\n      swap1\n      dup4\n      iszero\n      iszero\n      mul\n      or\n      swap1\n      sstore\n      pop\n        /* \"contracts/salary.sol\":2157:2326  if (AllEmployes[i].role == 2 ){\r... */\n    tag_62:\n        /* \"contracts/salary.sol\":1953:2326  if( AllEmployes[i].role == 1)\r... */\n    tag_58:\n        /* \"contracts/salary.sol\":1893:2337  if (!AllEmployes[i].paid_status)\r... */\n    tag_46:\n        /* \"contracts/salary.sol\":1877:1880  i++ */\n      dup1\n      dup1\n      tag_70\n      swap1\n      tag_71\n      jump\t// in\n    tag_70:\n      swap2\n      pop\n      pop\n        /* \"contracts/salary.sol\":1837:2348  for(uint256 i= 0; i<AllEmployes.length; i++){\r... */\n      jump(tag_39)\n    tag_40:\n      pop\n        /* \"contracts/salary.sol\":1760:2355  function sendingSalariesToEmployee() public   onlyAdmin {\r... */\n      jump\t// out\n        /* \"contracts/salary.sol\":2383:2815  function sendingSalaries(address payable  _ToEmployeAddress ,uint _amount)  public onlyAdmin  payable   returns  (bool){\r... */\n    tag_13:\n        /* \"contracts/salary.sol\":2497:2501  bool */\n      0x00\n        /* \"contracts/salary.sol\":795:800  admin */\n      dup1\n      0x00\n      swap1\n      sload\n      swap1\n      0x0100\n      exp\n      swap1\n      div\n      0xffffffffffffffffffffffffffffffffffffffff\n      and\n        /* \"contracts/salary.sol\":783:800  msg.sender==admin */\n      0xffffffffffffffffffffffffffffffffffffffff\n      and\n        /* \"contracts/salary.sol\":783:793  msg.sender */\n      caller\n        /* \"contracts/salary.sol\":783:800  msg.sender==admin */\n      0xffffffffffffffffffffffffffffffffffffffff\n      and\n      eq\n        /* \"contracts/salary.sol\":775:826  require(msg.sender==admin,\"you don't have rights \") */\n      tag_73\n      jumpi\n      mload(0x40)\n      0x08c379a000000000000000000000000000000000000000000000000000000000\n      dup2\n      mstore\n      0x04\n      add\n      tag_74\n      swap1\n      tag_37\n      jump\t// in\n    tag_74:\n      mload(0x40)\n      dup1\n      swap2\n      sub\n      swap1\n      revert\n    tag_73:\n        /* \"contracts/salary.sol\":2522:2540  GetEmployeeDetails */\n      0x03\n        /* \"contracts/salary.sol\":2522:2559  GetEmployeeDetails[_ToEmployeAddress] */\n      0x00\n        /* \"contracts/salary.sol\":2541:2558  _ToEmployeAddress */\n      dup5\n        /* \"contracts/salary.sol\":2522:2559  GetEmployeeDetails[_ToEmployeAddress] */\n      0xffffffffffffffffffffffffffffffffffffffff\n      and\n      0xffffffffffffffffffffffffffffffffffffffff\n      and\n      dup2\n      mstore\n      0x20\n      add\n      swap1\n      dup2\n      mstore\n      0x20\n      add\n      0x00\n      keccak256\n        /* \"contracts/salary.sol\":2522:2571  GetEmployeeDetails[_ToEmployeAddress].paid_status */\n      0x03\n      add\n      0x14\n      swap1\n      sload\n      swap1\n      0x0100\n      exp\n      swap1\n      div\n      0xff\n      and\n        /* \"contracts/salary.sol\":2521:2571  !GetEmployeeDetails[_ToEmployeAddress].paid_status */\n      iszero\n        /* \"contracts/salary.sol\":2513:2600  require(!GetEmployeeDetails[_ToEmployeAddress].paid_status,\"Salary already is creited\") */\n      tag_76\n      jumpi\n      mload(0x40)\n      0x08c379a000000000000000000000000000000000000000000000000000000000\n      dup2\n      mstore\n      0x04\n      add\n      tag_77\n      swap1\n      tag_78\n      jump\t// in\n    tag_77:\n      mload(0x40)\n      dup1\n      swap2\n      sub\n      swap1\n      revert\n    tag_76:\n        /* \"contracts/salary.sol\":2613:2625  bool sending */\n      0x00\n        /* \"contracts/salary.sol\":2628:2645  _ToEmployeAddress */\n      dup4\n        /* \"contracts/salary.sol\":2628:2650  _ToEmployeAddress.send */\n      0xffffffffffffffffffffffffffffffffffffffff\n      and\n        /* \"contracts/salary.sol\":2628:2659  _ToEmployeAddress.send(_amount) */\n      0x08fc\n        /* \"contracts/salary.sol\":2651:2658  _amount */\n      dup5\n        /* \"contracts/salary.sol\":2628:2659  _ToEmployeAddress.send(_amount) */\n      swap1\n      dup2\n      iszero\n      mul\n      swap1\n      mload(0x40)\n      0x00\n      mload(0x40)\n      dup1\n      dup4\n      sub\n      dup2\n      dup6\n      dup9\n      dup9\n      call\n      swap4\n      pop\n      pop\n      pop\n      pop\n        /* \"contracts/salary.sol\":2613:2659  bool sending = _ToEmployeAddress.send(_amount) */\n      swap1\n      pop\n        /* \"contracts/salary.sol\":2678:2685  sending */\n      dup1\n        /* \"contracts/salary.sol\":2670:2709  require(sending,\"Failed to send ETHER\") */\n      tag_80\n      jumpi\n      mload(0x40)\n      0x08c379a000000000000000000000000000000000000000000000000000000000\n      dup2\n      mstore\n      0x04\n      add\n      tag_81\n      swap1\n      tag_82\n      jump\t// in\n    tag_81:\n      mload(0x40)\n      dup1\n      swap2\n      sub\n      swap1\n      revert\n    tag_80:\n        /* \"contracts/salary.sol\":2795:2802  sending */\n      dup1\n        /* \"contracts/salary.sol\":2788:2802  return sending */\n      swap2\n      pop\n      pop\n        /* \"contracts/salary.sol\":2383:2815  function sendingSalaries(address payable  _ToEmployeAddress ,uint _amount)  public onlyAdmin  payable   returns  (bool){\r... */\n      swap3\n      swap2\n      pop\n      pop\n      jump\t// out\n        /* \"contracts/salary.sol\":700:729  Employe [] public AllEmployes */\n    tag_20:\n      0x04\n      dup2\n      dup2\n      sload\n      dup2\n      lt\n      tag_83\n      jumpi\n      0x00\n      dup1\n      revert\n    tag_83:\n      swap1\n      0x00\n      mstore\n      keccak256(0x00, 0x20)\n      swap1\n      0x04\n      mul\n      add\n      0x00\n      swap2\n      pop\n      swap1\n      pop\n      dup1\n      0x00\n      add\n      dup1\n      sload\n      tag_85\n      swap1\n      tag_86\n      jump\t// in\n    tag_85:\n      dup1\n      0x1f\n      add\n      0x20\n      dup1\n      swap2\n      div\n      mul\n      0x20\n      add\n      mload(0x40)\n      swap1\n      dup2\n      add\n      0x40\n      mstore\n      dup1\n      swap3\n      swap2\n      swap1\n      dup2\n      dup2\n      mstore\n      0x20\n      add\n      dup3\n      dup1\n      sload\n      tag_87\n      swap1\n      tag_86\n      jump\t// in\n    tag_87:\n      dup1\n      iszero\n      tag_88\n      jumpi\n      dup1\n      0x1f\n      lt\n      tag_89\n      jumpi\n      0x0100\n      dup1\n      dup4\n      sload\n      div\n      mul\n      dup4\n      mstore\n      swap2\n      0x20\n      add\n      swap2\n      jump(tag_88)\n    tag_89:\n      dup3\n      add\n      swap2\n      swap1\n      0x00\n      mstore\n      keccak256(0x00, 0x20)\n      swap1\n    tag_90:\n      dup2\n      sload\n      dup2\n      mstore\n      swap1\n      0x01\n      add\n      swap1\n      0x20\n      add\n      dup1\n      dup4\n      gt\n      tag_90\n      jumpi\n      dup3\n      swap1\n      sub\n      0x1f\n      and\n      dup3\n      add\n      swap2\n    tag_88:\n      pop\n      pop\n      pop\n      pop\n      pop\n      swap1\n      dup1\n      0x01\n      add\n      sload\n      swap1\n      dup1\n      0x02\n      add\n      sload\n      swap1\n      dup1\n      0x03\n      add\n      0x00\n      swap1\n      sload\n      swap1\n      0x0100\n      exp\n      swap1\n      div\n      0xffffffffffffffffffffffffffffffffffffffff\n      and\n      swap1\n      dup1\n      0x03\n      add\n      0x14\n      swap1\n      sload\n      swap1\n      0x0100\n      exp\n      swap1\n      div\n      0xff\n      and\n      swap1\n      pop\n      dup6\n      jump\t// out\n        /* \"contracts/salary.sol\":618:670  mapping (address=>Employe) public GetEmployeeDetails */\n    tag_27:\n      mstore(0x20, 0x03)\n      dup1\n      0x00\n      mstore\n      keccak256(0x00, 0x40)\n      0x00\n      swap2\n      pop\n      swap1\n      pop\n      dup1\n      0x00\n      add\n      dup1\n      sload\n      tag_91\n      swap1\n      tag_86\n      jump\t// in\n    tag_91:\n      dup1\n      0x1f\n      add\n      0x20\n      dup1\n      swap2\n      div\n      mul\n      0x20\n      add\n      mload(0x40)\n      swap1\n      dup2\n      add\n      0x40\n      mstore\n      dup1\n      swap3\n      swap2\n      swap1\n      dup2\n      dup2\n      mstore\n      0x20\n      add\n      dup3\n      dup1\n      sload\n      tag_92\n      swap1\n      tag_86\n      jump\t// in\n    tag_92:\n      dup1\n      iszero\n      tag_93\n      jumpi\n      dup1\n      0x1f\n      lt\n      tag_94\n      jumpi\n      0x0100\n      dup1\n      dup4\n      sload\n      div\n      mul\n      dup4\n      mstore\n      swap2\n      0x20\n      add\n      swap2\n      jump(tag_93)\n    tag_94:\n      dup3\n      add\n      swap2\n      swap1\n      0x00\n      mstore\n      keccak256(0x00, 0x20)\n      swap1\n    tag_95:\n      dup2\n      sload\n      dup2\n      mstore\n      swap1\n      0x01\n      add\n      swap1\n      0x20\n      add\n      dup1\n      dup4\n      gt\n      tag_95\n      jumpi\n      dup3\n      swap1\n      sub\n      0x1f\n      and\n      dup3\n      add\n      swap2\n    tag_93:\n      pop\n      pop\n      pop\n      pop\n      pop\n      swap1\n      dup1\n      0x01\n      add\n      sload\n      swap1\n      dup1\n      0x02\n      add\n      sload\n      swap1\n      dup1\n      0x03\n      add\n      0x00\n      swap1\n      sload\n      swap1\n      0x0100\n      exp\n      swap1\n      div\n      0xffffffffffffffffffffffffffffffffffffffff\n      and\n      swap1\n      dup1\n      0x03\n      add\n      0x14\n      swap1\n      sload\n      swap1\n      0x0100\n      exp\n      swap1\n      div\n      0xff\n      and\n      swap1\n      pop\n      dup6\n      jump\t// out\n        /* \"contracts/salary.sol\":123:143  address public admin */\n    tag_31:\n      0x00\n      dup1\n      sload\n      swap1\n      0x0100\n      exp\n      swap1\n      div\n      0xffffffffffffffffffffffffffffffffffffffff\n      and\n      dup2\n      jump\t// out\n        /* \"#utility.yul\":7:146   */\n    tag_97:\n        /* \"#utility.yul\":53:58   */\n      0x00\n        /* \"#utility.yul\":91:97   */\n      dup2\n        /* \"#utility.yul\":78:98   */\n      calldataload\n        /* \"#utility.yul\":69:98   */\n      swap1\n      pop\n        /* \"#utility.yul\":107:140   */\n      tag_99\n        /* \"#utility.yul\":134:139   */\n      dup2\n        /* \"#utility.yul\":107:140   */\n      tag_100\n      jump\t// in\n    tag_99:\n        /* \"#utility.yul\":7:146   */\n      swap3\n      swap2\n      pop\n      pop\n      jump\t// out\n        /* \"#utility.yul\":152:307   */\n    tag_101:\n        /* \"#utility.yul\":206:211   */\n      0x00\n        /* \"#utility.yul\":244:250   */\n      dup2\n        /* \"#utility.yul\":231:251   */\n      calldataload\n        /* \"#utility.yul\":222:251   */\n      swap1\n      pop\n        /* \"#utility.yul\":260:301   */\n      tag_103\n        /* \"#utility.yul\":295:300   */\n      dup2\n        /* \"#utility.yul\":260:301   */\n      tag_104\n      jump\t// in\n    tag_103:\n        /* \"#utility.yul\":152:307   */\n      swap3\n      swap2\n      pop\n      pop\n      jump\t// out\n        /* \"#utility.yul\":313:452   */\n    tag_105:\n        /* \"#utility.yul\":359:364   */\n      0x00\n        /* \"#utility.yul\":397:403   */\n      dup2\n        /* \"#utility.yul\":384:404   */\n      calldataload\n        /* \"#utility.yul\":375:404   */\n      swap1\n      pop\n        /* \"#utility.yul\":413:446   */\n      tag_107\n        /* \"#utility.yul\":440:445   */\n      dup2\n        /* \"#utility.yul\":413:446   */\n      tag_108\n      jump\t// in\n    tag_107:\n        /* \"#utility.yul\":313:452   */\n      swap3\n      swap2\n      pop\n      pop\n      jump\t// out\n        /* \"#utility.yul\":458:787   */\n    tag_26:\n        /* \"#utility.yul\":517:523   */\n      0x00\n        /* \"#utility.yul\":566:568   */\n      0x20\n        /* \"#utility.yul\":554:563   */\n      dup3\n        /* \"#utility.yul\":545:552   */\n      dup5\n        /* \"#utility.yul\":541:564   */\n      sub\n        /* \"#utility.yul\":537:569   */\n      slt\n        /* \"#utility.yul\":534:653   */\n      iszero\n      tag_110\n      jumpi\n        /* \"#utility.yul\":572:651   */\n      tag_111\n      tag_112\n      jump\t// in\n    tag_111:\n        /* \"#utility.yul\":534:653   */\n    tag_110:\n        /* \"#utility.yul\":692:693   */\n      0x00\n        /* \"#utility.yul\":717:770   */\n      tag_113\n        /* \"#utility.yul\":762:769   */\n      dup5\n        /* \"#utility.yul\":753:759   */\n      dup3\n        /* \"#utility.yul\":742:751   */\n      dup6\n        /* \"#utility.yul\":738:760   */\n      add\n        /* \"#utility.yul\":717:770   */\n      tag_97\n      jump\t// in\n    tag_113:\n        /* \"#utility.yul\":707:770   */\n      swap2\n      pop\n        /* \"#utility.yul\":663:780   */\n      pop\n        /* \"#utility.yul\":458:787   */\n      swap3\n      swap2\n      pop\n      pop\n      jump\t// out\n        /* \"#utility.yul\":793:1283   */\n    tag_12:\n        /* \"#utility.yul\":869:875   */\n      0x00\n        /* \"#utility.yul\":877:883   */\n      dup1\n        /* \"#utility.yul\":926:928   */\n      0x40\n        /* \"#utility.yul\":914:923   */\n      dup4\n        /* \"#utility.yul\":905:912   */\n      dup6\n        /* \"#utility.yul\":901:924   */\n      sub\n        /* \"#utility.yul\":897:929   */\n      slt\n        /* \"#utility.yul\":894:1013   */\n      iszero\n      tag_115\n      jumpi\n        /* \"#utility.yul\":932:1011   */\n      tag_116\n      tag_112\n      jump\t// in\n    tag_116:\n        /* \"#utility.yul\":894:1013   */\n    tag_115:\n        /* \"#utility.yul\":1052:1053   */\n      0x00\n        /* \"#utility.yul\":1077:1138   */\n      tag_117\n        /* \"#utility.yul\":1130:1137   */\n      dup6\n        /* \"#utility.yul\":1121:1127   */\n      dup3\n        /* \"#utility.yul\":1110:1119   */\n      dup7\n        /* \"#utility.yul\":1106:1128   */\n      add\n        /* \"#utility.yul\":1077:1138   */\n      tag_101\n      jump\t// in\n    tag_117:\n        /* \"#utility.yul\":1067:1138   */\n      swap3\n      pop\n        /* \"#utility.yul\":1023:1148   */\n      pop\n        /* \"#utility.yul\":1187:1189   */\n      0x20\n        /* \"#utility.yul\":1213:1266   */\n      tag_118\n        /* \"#utility.yul\":1258:1265   */\n      dup6\n        /* \"#utility.yul\":1249:1255   */\n      dup3\n        /* \"#utility.yul\":1238:1247   */\n      dup7\n        /* \"#utility.yul\":1234:1256   */\n      add\n        /* \"#utility.yul\":1213:1266   */\n      tag_105\n      jump\t// in\n    tag_118:\n        /* \"#utility.yul\":1203:1266   */\n      swap2\n      pop\n        /* \"#utility.yul\":1158:1276   */\n      pop\n        /* \"#utility.yul\":793:1283   */\n      swap3\n      pop\n      swap3\n      swap1\n      pop\n      jump\t// out\n        /* \"#utility.yul\":1289:1618   */\n    tag_19:\n        /* \"#utility.yul\":1348:1354   */\n      0x00\n        /* \"#utility.yul\":1397:1399   */\n      0x20\n        /* \"#utility.yul\":1385:1394   */\n      dup3\n        /* \"#utility.yul\":1376:1383   */\n      dup5\n        /* \"#utility.yul\":1372:1395   */\n      sub\n        /* \"#utility.yul\":1368:1400   */\n      slt\n        /* \"#utility.yul\":1365:1484   */\n      iszero\n      tag_120\n      jumpi\n        /* \"#utility.yul\":1403:1482   */\n      tag_121\n      tag_112\n      jump\t// in\n    tag_121:\n        /* \"#utility.yul\":1365:1484   */\n    tag_120:\n        /* \"#utility.yul\":1523:1524   */\n      0x00\n        /* \"#utility.yul\":1548:1601   */\n      tag_122\n        /* \"#utility.yul\":1593:1600   */\n      dup5\n        /* \"#utility.yul\":1584:1590   */\n      dup3\n        /* \"#utility.yul\":1573:1582   */\n      dup6\n        /* \"#utility.yul\":1569:1591   */\n      add\n        /* \"#utility.yul\":1548:1601   */\n      tag_105\n      jump\t// in\n    tag_122:\n        /* \"#utility.yul\":1538:1601   */\n      swap2\n      pop\n        /* \"#utility.yul\":1494:1611   */\n      pop\n        /* \"#utility.yul\":1289:1618   */\n      swap3\n      swap2\n      pop\n      pop\n      jump\t// out\n        /* \"#utility.yul\":1624:1766   */\n    tag_123:\n        /* \"#utility.yul\":1727:1759   */\n      tag_125\n        /* \"#utility.yul\":1753:1758   */\n      dup2\n        /* \"#utility.yul\":1727:1759   */\n      tag_126\n      jump\t// in\n    tag_125:\n        /* \"#utility.yul\":1722:1725   */\n      dup3\n        /* \"#utility.yul\":1715:1760   */\n      mstore\n        /* \"#utility.yul\":1624:1766   */\n      pop\n      pop\n      jump\t// out\n        /* \"#utility.yul\":1772:1890   */\n    tag_127:\n        /* \"#utility.yul\":1859:1883   */\n      tag_129\n        /* \"#utility.yul\":1877:1882   */\n      dup2\n        /* \"#utility.yul\":1859:1883   */\n      tag_130\n      jump\t// in\n    tag_129:\n        /* \"#utility.yul\":1854:1857   */\n      dup3\n        /* \"#utility.yul\":1847:1884   */\n      mstore\n        /* \"#utility.yul\":1772:1890   */\n      pop\n      pop\n      jump\t// out\n        /* \"#utility.yul\":1896:2005   */\n    tag_131:\n        /* \"#utility.yul\":1977:1998   */\n      tag_133\n        /* \"#utility.yul\":1992:1997   */\n      dup2\n        /* \"#utility.yul\":1977:1998   */\n      tag_134\n      jump\t// in\n    tag_133:\n        /* \"#utility.yul\":1972:1975   */\n      dup3\n        /* \"#utility.yul\":1965:1999   */\n      mstore\n        /* \"#utility.yul\":1896:2005   */\n      pop\n      pop\n      jump\t// out\n        /* \"#utility.yul\":2011:2375   */\n    tag_135:\n        /* \"#utility.yul\":2099:2102   */\n      0x00\n        /* \"#utility.yul\":2127:2166   */\n      tag_137\n        /* \"#utility.yul\":2160:2165   */\n      dup3\n        /* \"#utility.yul\":2127:2166   */\n      tag_138\n      jump\t// in\n    tag_137:\n        /* \"#utility.yul\":2182:2253   */\n      tag_139\n        /* \"#utility.yul\":2246:2252   */\n      dup2\n        /* \"#utility.yul\":2241:2244   */\n      dup6\n        /* \"#utility.yul\":2182:2253   */\n      tag_140\n      jump\t// in\n    tag_139:\n        /* \"#utility.yul\":2175:2253   */\n      swap4\n      pop\n        /* \"#utility.yul\":2262:2314   */\n      tag_141\n        /* \"#utility.yul\":2307:2313   */\n      dup2\n        /* \"#utility.yul\":2302:2305   */\n      dup6\n        /* \"#utility.yul\":2295:2299   */\n      0x20\n        /* \"#utility.yul\":2288:2293   */\n      dup7\n        /* \"#utility.yul\":2284:2300   */\n      add\n        /* \"#utility.yul\":2262:2314   */\n      tag_142\n      jump\t// in\n    tag_141:\n        /* \"#utility.yul\":2339:2368   */\n      tag_143\n        /* \"#utility.yul\":2361:2367   */\n      dup2\n        /* \"#utility.yul\":2339:2368   */\n      tag_144\n      jump\t// in\n    tag_143:\n        /* \"#utility.yul\":2334:2337   */\n      dup5\n        /* \"#utility.yul\":2330:2369   */\n      add\n        /* \"#utility.yul\":2323:2369   */\n      swap2\n      pop\n        /* \"#utility.yul\":2103:2375   */\n      pop\n        /* \"#utility.yul\":2011:2375   */\n      swap3\n      swap2\n      pop\n      pop\n      jump\t// out\n        /* \"#utility.yul\":2381:2747   */\n    tag_145:\n        /* \"#utility.yul\":2523:2526   */\n      0x00\n        /* \"#utility.yul\":2544:2611   */\n      tag_147\n        /* \"#utility.yul\":2608:2610   */\n      0x14\n        /* \"#utility.yul\":2603:2606   */\n      dup4\n        /* \"#utility.yul\":2544:2611   */\n      tag_140\n      jump\t// in\n    tag_147:\n        /* \"#utility.yul\":2537:2611   */\n      swap2\n      pop\n        /* \"#utility.yul\":2620:2713   */\n      tag_148\n        /* \"#utility.yul\":2709:2712   */\n      dup3\n        /* \"#utility.yul\":2620:2713   */\n      tag_149\n      jump\t// in\n    tag_148:\n        /* \"#utility.yul\":2738:2740   */\n      0x20\n        /* \"#utility.yul\":2733:2736   */\n      dup3\n        /* \"#utility.yul\":2729:2741   */\n      add\n        /* \"#utility.yul\":2722:2741   */\n      swap1\n      pop\n        /* \"#utility.yul\":2381:2747   */\n      swap2\n      swap1\n      pop\n      jump\t// out\n        /* \"#utility.yul\":2753:3119   */\n    tag_150:\n        /* \"#utility.yul\":2895:2898   */\n      0x00\n        /* \"#utility.yul\":2916:2983   */\n      tag_152\n        /* \"#utility.yul\":2980:2982   */\n      0x16\n        /* \"#utility.yul\":2975:2978   */\n      dup4\n        /* \"#utility.yul\":2916:2983   */\n      tag_140\n      jump\t// in\n    tag_152:\n        /* \"#utility.yul\":2909:2983   */\n      swap2\n      pop\n        /* \"#utility.yul\":2992:3085   */\n      tag_153\n        /* \"#utility.yul\":3081:3084   */\n      dup3\n        /* \"#utility.yul\":2992:3085   */\n      tag_154\n      jump\t// in\n    tag_153:\n        /* \"#utility.yul\":3110:3112   */\n      0x20\n        /* \"#utility.yul\":3105:3108   */\n      dup3\n        /* \"#utility.yul\":3101:3113   */\n      add\n        /* \"#utility.yul\":3094:3113   */\n      swap1\n      pop\n        /* \"#utility.yul\":2753:3119   */\n      swap2\n      swap1\n      pop\n      jump\t// out\n        /* \"#utility.yul\":3125:3491   */\n    tag_155:\n        /* \"#utility.yul\":3267:3270   */\n      0x00\n        /* \"#utility.yul\":3288:3355   */\n      tag_157\n        /* \"#utility.yul\":3352:3354   */\n      0x19\n        /* \"#utility.yul\":3347:3350   */\n      dup4\n        /* \"#utility.yul\":3288:3355   */\n      tag_140\n      jump\t// in\n    tag_157:\n        /* \"#utility.yul\":3281:3355   */\n      swap2\n      pop\n        /* \"#utility.yul\":3364:3457   */\n      tag_158\n        /* \"#utility.yul\":3453:3456   */\n      dup3\n        /* \"#utility.yul\":3364:3457   */\n      tag_159\n      jump\t// in\n    tag_158:\n        /* \"#utility.yul\":3482:3484   */\n      0x20\n        /* \"#utility.yul\":3477:3480   */\n      dup3\n        /* \"#utility.yul\":3473:3485   */\n      add\n        /* \"#utility.yul\":3466:3485   */\n      swap1\n      pop\n        /* \"#utility.yul\":3125:3491   */\n      swap2\n      swap1\n      pop\n      jump\t// out\n        /* \"#utility.yul\":3497:3615   */\n    tag_160:\n        /* \"#utility.yul\":3584:3608   */\n      tag_162\n        /* \"#utility.yul\":3602:3607   */\n      dup2\n        /* \"#utility.yul\":3584:3608   */\n      tag_163\n      jump\t// in\n    tag_162:\n        /* \"#utility.yul\":3579:3582   */\n      dup3\n        /* \"#utility.yul\":3572:3609   */\n      mstore\n        /* \"#utility.yul\":3497:3615   */\n      pop\n      pop\n      jump\t// out\n        /* \"#utility.yul\":3621:3843   */\n    tag_33:\n        /* \"#utility.yul\":3714:3718   */\n      0x00\n        /* \"#utility.yul\":3752:3754   */\n      0x20\n        /* \"#utility.yul\":3741:3750   */\n      dup3\n        /* \"#utility.yul\":3737:3755   */\n      add\n        /* \"#utility.yul\":3729:3755   */\n      swap1\n      pop\n        /* \"#utility.yul\":3765:3836   */\n      tag_165\n        /* \"#utility.yul\":3833:3834   */\n      0x00\n        /* \"#utility.yul\":3822:3831   */\n      dup4\n        /* \"#utility.yul\":3818:3835   */\n      add\n        /* \"#utility.yul\":3809:3815   */\n      dup5\n        /* \"#utility.yul\":3765:3836   */\n      tag_127\n      jump\t// in\n    tag_165:\n        /* \"#utility.yul\":3621:3843   */\n      swap3\n      swap2\n      pop\n      pop\n      jump\t// out\n        /* \"#utility.yul\":3849:4059   */\n    tag_15:\n        /* \"#utility.yul\":3936:3940   */\n      0x00\n        /* \"#utility.yul\":3974:3976   */\n      0x20\n        /* \"#utility.yul\":3963:3972   */\n      dup3\n        /* \"#utility.yul\":3959:3977   */\n      add\n        /* \"#utility.yul\":3951:3977   */\n      swap1\n      pop\n        /* \"#utility.yul\":3987:4052   */\n      tag_167\n        /* \"#utility.yul\":4049:4050   */\n      0x00\n        /* \"#utility.yul\":4038:4047   */\n      dup4\n        /* \"#utility.yul\":4034:4051   */\n      add\n        /* \"#utility.yul\":4025:4031   */\n      dup5\n        /* \"#utility.yul\":3987:4052   */\n      tag_131\n      jump\t// in\n    tag_167:\n        /* \"#utility.yul\":3849:4059   */\n      swap3\n      swap2\n      pop\n      pop\n      jump\t// out\n        /* \"#utility.yul\":4065:4840   */\n    tag_22:\n        /* \"#utility.yul\":4300:4304   */\n      0x00\n        /* \"#utility.yul\":4338:4341   */\n      0xa0\n        /* \"#utility.yul\":4327:4336   */\n      dup3\n        /* \"#utility.yul\":4323:4342   */\n      add\n        /* \"#utility.yul\":4315:4342   */\n      swap1\n      pop\n        /* \"#utility.yul\":4388:4397   */\n      dup2\n        /* \"#utility.yul\":4382:4386   */\n      dup2\n        /* \"#utility.yul\":4378:4398   */\n      sub\n        /* \"#utility.yul\":4374:4375   */\n      0x00\n        /* \"#utility.yul\":4363:4372   */\n      dup4\n        /* \"#utility.yul\":4359:4376   */\n      add\n        /* \"#utility.yul\":4352:4399   */\n      mstore\n        /* \"#utility.yul\":4416:4494   */\n      tag_169\n        /* \"#utility.yul\":4489:4493   */\n      dup2\n        /* \"#utility.yul\":4480:4486   */\n      dup9\n        /* \"#utility.yul\":4416:4494   */\n      tag_135\n      jump\t// in\n    tag_169:\n        /* \"#utility.yul\":4408:4494   */\n      swap1\n      pop\n        /* \"#utility.yul\":4504:4576   */\n      tag_170\n        /* \"#utility.yul\":4572:4574   */\n      0x20\n        /* \"#utility.yul\":4561:4570   */\n      dup4\n        /* \"#utility.yul\":4557:4575   */\n      add\n        /* \"#utility.yul\":4548:4554   */\n      dup8\n        /* \"#utility.yul\":4504:4576   */\n      tag_160\n      jump\t// in\n    tag_170:\n        /* \"#utility.yul\":4586:4658   */\n      tag_171\n        /* \"#utility.yul\":4654:4656   */\n      0x40\n        /* \"#utility.yul\":4643:4652   */\n      dup4\n        /* \"#utility.yul\":4639:4657   */\n      add\n        /* \"#utility.yul\":4630:4636   */\n      dup7\n        /* \"#utility.yul\":4586:4658   */\n      tag_160\n      jump\t// in\n    tag_171:\n        /* \"#utility.yul\":4668:4756   */\n      tag_172\n        /* \"#utility.yul\":4752:4754   */\n      0x60\n        /* \"#utility.yul\":4741:4750   */\n      dup4\n        /* \"#utility.yul\":4737:4755   */\n      add\n        /* \"#utility.yul\":4728:4734   */\n      dup6\n        /* \"#utility.yul\":4668:4756   */\n      tag_123\n      jump\t// in\n    tag_172:\n        /* \"#utility.yul\":4766:4833   */\n      tag_173\n        /* \"#utility.yul\":4828:4831   */\n      0x80\n        /* \"#utility.yul\":4817:4826   */\n      dup4\n        /* \"#utility.yul\":4813:4832   */\n      add\n        /* \"#utility.yul\":4804:4810   */\n      dup5\n        /* \"#utility.yul\":4766:4833   */\n      tag_131\n      jump\t// in\n    tag_173:\n        /* \"#utility.yul\":4065:4840   */\n      swap7\n      swap6\n      pop\n      pop\n      pop\n      pop\n      pop\n      pop\n      jump\t// out\n        /* \"#utility.yul\":4846:5265   */\n    tag_82:\n        /* \"#utility.yul\":5012:5016   */\n      0x00\n        /* \"#utility.yul\":5050:5052   */\n      0x20\n        /* \"#utility.yul\":5039:5048   */\n      dup3\n        /* \"#utility.yul\":5035:5053   */\n      add\n        /* \"#utility.yul\":5027:5053   */\n      swap1\n      pop\n        /* \"#utility.yul\":5099:5108   */\n      dup2\n        /* \"#utility.yul\":5093:5097   */\n      dup2\n        /* \"#utility.yul\":5089:5109   */\n      sub\n        /* \"#utility.yul\":5085:5086   */\n      0x00\n        /* \"#utility.yul\":5074:5083   */\n      dup4\n        /* \"#utility.yul\":5070:5087   */\n      add\n        /* \"#utility.yul\":5063:5110   */\n      mstore\n        /* \"#utility.yul\":5127:5258   */\n      tag_175\n        /* \"#utility.yul\":5253:5257   */\n      dup2\n        /* \"#utility.yul\":5127:5258   */\n      tag_145\n      jump\t// in\n    tag_175:\n        /* \"#utility.yul\":5119:5258   */\n      swap1\n      pop\n        /* \"#utility.yul\":4846:5265   */\n      swap2\n      swap1\n      pop\n      jump\t// out\n        /* \"#utility.yul\":5271:5690   */\n    tag_37:\n        /* \"#utility.yul\":5437:5441   */\n      0x00\n        /* \"#utility.yul\":5475:5477   */\n      0x20\n        /* \"#utility.yul\":5464:5473   */\n      dup3\n        /* \"#utility.yul\":5460:5478   */\n      add\n        /* \"#utility.yul\":5452:5478   */\n      swap1\n      pop\n        /* \"#utility.yul\":5524:5533   */\n      dup2\n        /* \"#utility.yul\":5518:5522   */\n      dup2\n        /* \"#utility.yul\":5514:5534   */\n      sub\n        /* \"#utility.yul\":5510:5511   */\n      0x00\n        /* \"#utility.yul\":5499:5508   */\n      dup4\n        /* \"#utility.yul\":5495:5512   */\n      add\n        /* \"#utility.yul\":5488:5535   */\n      mstore\n        /* \"#utility.yul\":5552:5683   */\n      tag_177\n        /* \"#utility.yul\":5678:5682   */\n      dup2\n        /* \"#utility.yul\":5552:5683   */\n      tag_150\n      jump\t// in\n    tag_177:\n        /* \"#utility.yul\":5544:5683   */\n      swap1\n      pop\n        /* \"#utility.yul\":5271:5690   */\n      swap2\n      swap1\n      pop\n      jump\t// out\n        /* \"#utility.yul\":5696:6115   */\n    tag_78:\n        /* \"#utility.yul\":5862:5866   */\n      0x00\n        /* \"#utility.yul\":5900:5902   */\n      0x20\n        /* \"#utility.yul\":5889:5898   */\n      dup3\n        /* \"#utility.yul\":5885:5903   */\n      add\n        /* \"#utility.yul\":5877:5903   */\n      swap1\n      pop\n        /* \"#utility.yul\":5949:5958   */\n      dup2\n        /* \"#utility.yul\":5943:5947   */\n      dup2\n        /* \"#utility.yul\":5939:5959   */\n      sub\n        /* \"#utility.yul\":5935:5936   */\n      0x00\n        /* \"#utility.yul\":5924:5933   */\n      dup4\n        /* \"#utility.yul\":5920:5937   */\n      add\n        /* \"#utility.yul\":5913:5960   */\n      mstore\n        /* \"#utility.yul\":5977:6108   */\n      tag_179\n        /* \"#utility.yul\":6103:6107   */\n      dup2\n        /* \"#utility.yul\":5977:6108   */\n      tag_155\n      jump\t// in\n    tag_179:\n        /* \"#utility.yul\":5969:6108   */\n      swap1\n      pop\n        /* \"#utility.yul\":5696:6115   */\n      swap2\n      swap1\n      pop\n      jump\t// out\n        /* \"#utility.yul\":6202:6301   */\n    tag_138:\n        /* \"#utility.yul\":6254:6260   */\n      0x00\n        /* \"#utility.yul\":6288:6293   */\n      dup2\n        /* \"#utility.yul\":6282:6294   */\n      mload\n        /* \"#utility.yul\":6272:6294   */\n      swap1\n      pop\n        /* \"#utility.yul\":6202:6301   */\n      swap2\n      swap1\n      pop\n      jump\t// out\n        /* \"#utility.yul\":6307:6476   */\n    tag_140:\n        /* \"#utility.yul\":6391:6402   */\n      0x00\n        /* \"#utility.yul\":6425:6431   */\n      dup3\n        /* \"#utility.yul\":6420:6423   */\n      dup3\n        /* \"#utility.yul\":6413:6432   */\n      mstore\n        /* \"#utility.yul\":6465:6469   */\n      0x20\n        /* \"#utility.yul\":6460:6463   */\n      dup3\n        /* \"#utility.yul\":6456:6470   */\n      add\n        /* \"#utility.yul\":6441:6470   */\n      swap1\n      pop\n        /* \"#utility.yul\":6307:6476   */\n      swap3\n      swap2\n      pop\n      pop\n      jump\t// out\n        /* \"#utility.yul\":6482:6578   */\n    tag_130:\n        /* \"#utility.yul\":6519:6526   */\n      0x00\n        /* \"#utility.yul\":6548:6572   */\n      tag_185\n        /* \"#utility.yul\":6566:6571   */\n      dup3\n        /* \"#utility.yul\":6548:6572   */\n      tag_186\n      jump\t// in\n    tag_185:\n        /* \"#utility.yul\":6537:6572   */\n      swap1\n      pop\n        /* \"#utility.yul\":6482:6578   */\n      swap2\n      swap1\n      pop\n      jump\t// out\n        /* \"#utility.yul\":6584:6688   */\n    tag_126:\n        /* \"#utility.yul\":6629:6636   */\n      0x00\n        /* \"#utility.yul\":6658:6682   */\n      tag_188\n        /* \"#utility.yul\":6676:6681   */\n      dup3\n        /* \"#utility.yul\":6658:6682   */\n      tag_186\n      jump\t// in\n    tag_188:\n        /* \"#utility.yul\":6647:6682   */\n      swap1\n      pop\n        /* \"#utility.yul\":6584:6688   */\n      swap2\n      swap1\n      pop\n      jump\t// out\n        /* \"#utility.yul\":6694:6784   */\n    tag_134:\n        /* \"#utility.yul\":6728:6735   */\n      0x00\n        /* \"#utility.yul\":6771:6776   */\n      dup2\n        /* \"#utility.yul\":6764:6777   */\n      iszero\n        /* \"#utility.yul\":6757:6778   */\n      iszero\n        /* \"#utility.yul\":6746:6778   */\n      swap1\n      pop\n        /* \"#utility.yul\":6694:6784   */\n      swap2\n      swap1\n      pop\n      jump\t// out\n        /* \"#utility.yul\":6790:6916   */\n    tag_186:\n        /* \"#utility.yul\":6827:6834   */\n      0x00\n        /* \"#utility.yul\":6867:6909   */\n      0xffffffffffffffffffffffffffffffffffffffff\n        /* \"#utility.yul\":6860:6865   */\n      dup3\n        /* \"#utility.yul\":6856:6910   */\n      and\n        /* \"#utility.yul\":6845:6910   */\n      swap1\n      pop\n        /* \"#utility.yul\":6790:6916   */\n      swap2\n      swap1\n      pop\n      jump\t// out\n        /* \"#utility.yul\":6922:6999   */\n    tag_163:\n        /* \"#utility.yul\":6959:6966   */\n      0x00\n        /* \"#utility.yul\":6988:6993   */\n      dup2\n        /* \"#utility.yul\":6977:6993   */\n      swap1\n      pop\n        /* \"#utility.yul\":6922:6999   */\n      swap2\n      swap1\n      pop\n      jump\t// out\n        /* \"#utility.yul\":7005:7312   */\n    tag_142:\n        /* \"#utility.yul\":7073:7074   */\n      0x00\n        /* \"#utility.yul\":7083:7196   */\n    tag_193:\n        /* \"#utility.yul\":7097:7103   */\n      dup4\n        /* \"#utility.yul\":7094:7095   */\n      dup2\n        /* \"#utility.yul\":7091:7104   */\n      lt\n        /* \"#utility.yul\":7083:7196   */\n      iszero\n      tag_195\n      jumpi\n        /* \"#utility.yul\":7182:7183   */\n      dup1\n        /* \"#utility.yul\":7177:7180   */\n      dup3\n        /* \"#utility.yul\":7173:7184   */\n      add\n        /* \"#utility.yul\":7167:7185   */\n      mload\n        /* \"#utility.yul\":7163:7164   */\n      dup2\n        /* \"#utility.yul\":7158:7161   */\n      dup5\n        /* \"#utility.yul\":7154:7165   */\n      add\n        /* \"#utility.yul\":7147:7186   */\n      mstore\n        /* \"#utility.yul\":7119:7121   */\n      0x20\n        /* \"#utility.yul\":7116:7117   */\n      dup2\n        /* \"#utility.yul\":7112:7122   */\n      add\n        /* \"#utility.yul\":7107:7122   */\n      swap1\n      pop\n        /* \"#utility.yul\":7083:7196   */\n      jump(tag_193)\n    tag_195:\n        /* \"#utility.yul\":7214:7220   */\n      dup4\n        /* \"#utility.yul\":7211:7212   */\n      dup2\n        /* \"#utility.yul\":7208:7221   */\n      gt\n        /* \"#utility.yul\":7205:7306   */\n      iszero\n      tag_196\n      jumpi\n        /* \"#utility.yul\":7294:7295   */\n      0x00\n        /* \"#utility.yul\":7285:7291   */\n      dup5\n        /* \"#utility.yul\":7280:7283   */\n      dup5\n        /* \"#utility.yul\":7276:7292   */\n      add\n        /* \"#utility.yul\":7269:7296   */\n      mstore\n        /* \"#utility.yul\":7205:7306   */\n    tag_196:\n        /* \"#utility.yul\":7054:7312   */\n      pop\n        /* \"#utility.yul\":7005:7312   */\n      pop\n      pop\n      pop\n      jump\t// out\n        /* \"#utility.yul\":7318:7638   */\n    tag_86:\n        /* \"#utility.yul\":7362:7368   */\n      0x00\n        /* \"#utility.yul\":7399:7400   */\n      0x02\n        /* \"#utility.yul\":7393:7397   */\n      dup3\n        /* \"#utility.yul\":7389:7401   */\n      div\n        /* \"#utility.yul\":7379:7401   */\n      swap1\n      pop\n        /* \"#utility.yul\":7446:7447   */\n      0x01\n        /* \"#utility.yul\":7440:7444   */\n      dup3\n        /* \"#utility.yul\":7436:7448   */\n      and\n        /* \"#utility.yul\":7467:7485   */\n      dup1\n        /* \"#utility.yul\":7457:7538   */\n      tag_198\n      jumpi\n        /* \"#utility.yul\":7523:7527   */\n      0x7f\n        /* \"#utility.yul\":7515:7521   */\n      dup3\n        /* \"#utility.yul\":7511:7528   */\n      and\n        /* \"#utility.yul\":7501:7528   */\n      swap2\n      pop\n        /* \"#utility.yul\":7457:7538   */\n    tag_198:\n        /* \"#utility.yul\":7585:7587   */\n      0x20\n        /* \"#utility.yul\":7577:7583   */\n      dup3\n        /* \"#utility.yul\":7574:7588   */\n      lt\n        /* \"#utility.yul\":7554:7572   */\n      dup2\n        /* \"#utility.yul\":7551:7589   */\n      eq\n        /* \"#utility.yul\":7548:7632   */\n      iszero\n      tag_199\n      jumpi\n        /* \"#utility.yul\":7604:7622   */\n      tag_200\n      tag_201\n      jump\t// in\n    tag_200:\n        /* \"#utility.yul\":7548:7632   */\n    tag_199:\n        /* \"#utility.yul\":7369:7638   */\n      pop\n        /* \"#utility.yul\":7318:7638   */\n      swap2\n      swap1\n      pop\n      jump\t// out\n        /* \"#utility.yul\":7644:7877   */\n    tag_71:\n        /* \"#utility.yul\":7683:7686   */\n      0x00\n        /* \"#utility.yul\":7706:7730   */\n      tag_203\n        /* \"#utility.yul\":7724:7729   */\n      dup3\n        /* \"#utility.yul\":7706:7730   */\n      tag_163\n      jump\t// in\n    tag_203:\n        /* \"#utility.yul\":7697:7730   */\n      swap2\n      pop\n        /* \"#utility.yul\":7752:7818   */\n      0xffffffffffffffffffffffffffffffffffffffffffffffffffffffffffffffff\n        /* \"#utility.yul\":7745:7750   */\n      dup3\n        /* \"#utility.yul\":7742:7819   */\n      eq\n        /* \"#utility.yul\":7739:7842   */\n      iszero\n      tag_204\n      jumpi\n        /* \"#utility.yul\":7822:7840   */\n      tag_205\n      tag_206\n      jump\t// in\n    tag_205:\n        /* \"#utility.yul\":7739:7842   */\n    tag_204:\n        /* \"#utility.yul\":7869:7870   */\n      0x01\n        /* \"#utility.yul\":7862:7867   */\n      dup3\n        /* \"#utility.yul\":7858:7871   */\n      add\n        /* \"#utility.yul\":7851:7871   */\n      swap1\n      pop\n        /* \"#utility.yul\":7644:7877   */\n      swap2\n      swap1\n      pop\n      jump\t// out\n        /* \"#utility.yul\":7883:8063   */\n    tag_206:\n        /* \"#utility.yul\":7931:8008   */\n      0x4e487b7100000000000000000000000000000000000000000000000000000000\n        /* \"#utility.yul\":7928:7929   */\n      0x00\n        /* \"#utility.yul\":7921:8009   */\n      mstore\n        /* \"#utility.yul\":8028:8032   */\n      0x11\n        /* \"#utility.yul\":8025:8026   */\n      0x04\n        /* \"#utility.yul\":8018:8033   */\n      mstore\n        /* \"#utility.yul\":8052:8056   */\n      0x24\n        /* \"#utility.yul\":8049:8050   */\n      0x00\n        /* \"#utility.yul\":8042:8057   */\n      revert\n        /* \"#utility.yul\":8069:8249   */\n    tag_201:\n        /* \"#utility.yul\":8117:8194   */\n      0x4e487b7100000000000000000000000000000000000000000000000000000000\n        /* \"#utility.yul\":8114:8115   */\n      0x00\n        /* \"#utility.yul\":8107:8195   */\n      mstore\n        /* \"#utility.yul\":8214:8218   */\n      0x22\n        /* \"#utility.yul\":8211:8212   */\n      0x04\n        /* \"#utility.yul\":8204:8219   */\n      mstore\n        /* \"#utility.yul\":8238:8242   */\n      0x24\n        /* \"#utility.yul\":8235:8236   */\n      0x00\n        /* \"#utility.yul\":8228:8243   */\n      revert\n        /* \"#utility.yul\":8255:8435   */\n    tag_44:\n        /* \"#utility.yul\":8303:8380   */\n      0x4e487b7100000000000000000000000000000000000000000000000000000000\n        /* \"#utility.yul\":8300:8301   */\n      0x00\n        /* \"#utility.yul\":8293:8381   */\n      mstore\n        /* \"#utility.yul\":8400:8404   */\n      0x32\n        /* \"#utility.yul\":8397:8398   */\n      0x04\n        /* \"#utility.yul\":8390:8405   */\n      mstore\n        /* \"#utility.yul\":8424:8428   */\n      0x24\n        /* \"#utility.yul\":8421:8422   */\n      0x00\n        /* \"#utility.yul\":8414:8429   */\n      revert\n        /* \"#utility.yul\":8564:8681   */\n    tag_112:\n        /* \"#utility.yul\":8673:8674   */\n      0x00\n        /* \"#utility.yul\":8670:8671   */\n      dup1\n        /* \"#utility.yul\":8663:8675   */\n      revert\n        /* \"#utility.yul\":8687:8789   */\n    tag_144:\n        /* \"#utility.yul\":8728:8734   */\n      0x00\n        /* \"#utility.yul\":8779:8781   */\n      0x1f\n        /* \"#utility.yul\":8775:8782   */\n      not\n        /* \"#utility.yul\":8770:8772   */\n      0x1f\n        /* \"#utility.yul\":8763:8768   */\n      dup4\n        /* \"#utility.yul\":8759:8773   */\n      add\n        /* \"#utility.yul\":8755:8783   */\n      and\n        /* \"#utility.yul\":8745:8783   */\n      swap1\n      pop\n        /* \"#utility.yul\":8687:8789   */\n      swap2\n      swap1\n      pop\n      jump\t// out\n        /* \"#utility.yul\":8795:8965   */\n    tag_149:\n        /* \"#utility.yul\":8935:8957   */\n      0x4661696c656420746f2073656e64204554484552000000000000000000000000\n        /* \"#utility.yul\":8931:8932   */\n      0x00\n        /* \"#utility.yul\":8923:8929   */\n      dup3\n        /* \"#utility.yul\":8919:8933   */\n      add\n        /* \"#utility.yul\":8912:8958   */\n      mstore\n        /* \"#utility.yul\":8795:8965   */\n      pop\n      jump\t// out\n        /* \"#utility.yul\":8971:9143   */\n    tag_154:\n        /* \"#utility.yul\":9111:9135   */\n      0x796f7520646f6e27742068617665207269676874732000000000000000000000\n        /* \"#utility.yul\":9107:9108   */\n      0x00\n        /* \"#utility.yul\":9099:9105   */\n      dup3\n        /* \"#utility.yul\":9095:9109   */\n      add\n        /* \"#utility.yul\":9088:9136   */\n      mstore\n        /* \"#utility.yul\":8971:9143   */\n      pop\n      jump\t// out\n        /* \"#utility.yul\":9149:9324   */\n    tag_159:\n        /* \"#utility.yul\":9289:9316   */\n      0x53616c61727920616c7265616479206973206372656974656400000000000000\n        /* \"#utility.yul\":9285:9286   */\n      0x00\n        /* \"#utility.yul\":9277:9283   */\n      dup3\n        /* \"#utility.yul\":9273:9287   */\n      add\n        /* \"#utility.yul\":9266:9317   */\n      mstore\n        /* \"#utility.yul\":9149:9324   */\n      pop\n      jump\t// out\n        /* \"#utility.yul\":9330:9452   */\n    tag_100:\n        /* \"#utility.yul\":9403:9427   */\n      tag_218\n        /* \"#utility.yul\":9421:9426   */\n      dup2\n        /* \"#utility.yul\":9403:9427   */\n      tag_130\n      jump\t// in\n    tag_218:\n        /* \"#utility.yul\":9396:9401   */\n      dup2\n        /* \"#utility.yul\":9393:9428   */\n      eq\n        /* \"#utility.yul\":9383:9446   */\n      tag_219\n      jumpi\n        /* \"#utility.yul\":9442:9443   */\n      0x00\n        /* \"#utility.yul\":9439:9440   */\n      dup1\n        /* \"#utility.yul\":9432:9444   */\n      revert\n        /* \"#utility.yul\":9383:9446   */\n    tag_219:\n        /* \"#utility.yul\":9330:9452   */\n      pop\n      jump\t// out\n        /* \"#utility.yul\":9458:9596   */\n    tag_104:\n        /* \"#utility.yul\":9539:9571   */\n      tag_221\n        /* \"#utility.yul\":9565:9570   */\n      dup2\n        /* \"#utility.yul\":9539:9571   */\n      tag_126\n      jump\t// in\n    tag_221:\n        /* \"#utility.yul\":9532:9537   */\n      dup2\n        /* \"#utility.yul\":9529:9572   */\n      eq\n        /* \"#utility.yul\":9519:9590   */\n      tag_222\n      jumpi\n        /* \"#utility.yul\":9586:9587   */\n      0x00\n        /* \"#utility.yul\":9583:9584   */\n      dup1\n        /* \"#utility.yul\":9576:9588   */\n      revert\n        /* \"#utility.yul\":9519:9590   */\n    tag_222:\n        /* \"#utility.yul\":9458:9596   */\n      pop\n      jump\t// out\n        /* \"#utility.yul\":9602:9724   */\n    tag_108:\n        /* \"#utility.yul\":9675:9699   */\n      tag_224\n        /* \"#utility.yul\":9693:9698   */\n      dup2\n        /* \"#utility.yul\":9675:9699   */\n      tag_163\n      jump\t// in\n    tag_224:\n        /* \"#utility.yul\":9668:9673   */\n      dup2\n        /* \"#utility.yul\":9665:9700   */\n      eq\n        /* \"#utility.yul\":9655:9718   */\n      tag_225\n      jumpi\n        /* \"#utility.yul\":9714:9715   */\n      0x00\n        /* \"#utility.yul\":9711:9712   */\n      dup1\n        /* \"#utility.yul\":9704:9716   */\n      revert\n        /* \"#utility.yul\":9655:9718   */\n    tag_225:\n        /* \"#utility.yul\":9602:9724   */\n      pop\n      jump\t// out\n\n    auxdata: 0xa2646970667358221220cca9e194393ce7b6e0080d2453d59786c1e3575c18ec5a80953abb16f730eec364736f6c63430008070033\n}\n",
				"bytecode": {
					"linkReferences": {},
					"object": "608060405266470de4df820000600155666a94d74f43000060025534801561002657600080fd5b50336000806101000a81548173ffffffffffffffffffffffffffffffffffffffff021916908373ffffffffffffffffffffffffffffffffffffffff160217905550610cc4806100766000396000f3fe60806040526004361061004a5760003560e01c806304b642a41461004f57806318c7a05114610066578063b58f421c14610096578063d17106b7146100d7578063f851a44014610118575b600080fd5b34801561005b57600080fd5b50610064610143565b005b610080600480360381019061007b91906107cc565b6103b2565b60405161008d9190610932565b60405180910390f35b3480156100a257600080fd5b506100bd60048036038101906100b8919061080c565b610556565b6040516100ce95949392919061094d565b60405180910390f35b3480156100e357600080fd5b506100fe60048036038101906100f9919061079f565b610651565b60405161010f95949392919061094d565b60405180910390f35b34801561012457600080fd5b5061012d61073c565b60405161013a9190610917565b60405180910390f35b60008054906101000a900473ffffffffffffffffffffffffffffffffffffffff1673ffffffffffffffffffffffffffffffffffffffff163373ffffffffffffffffffffffffffffffffffffffff16146101d1576040517f08c379a00000000000000000000000000000000000000000000000000000000081526004016101c8906109c7565b60405180910390fd5b60005b6004805490508110156103af57600481815481106101f5576101f4610b89565b5b906000526020600020906004020160030160149054906101000a900460ff1661039c5760016004828154811061022e5761022d610b89565b5b90600052602060002090600402016001015414156102db576102976004828154811061025d5761025c610b89565b5b906000526020600020906004020160030160009054906101000a900473ffffffffffffffffffffffffffffffffffffffff166001546103b2565b506001600482815481106102ae576102ad610b89565b5b906000526020600020906004020160030160146101000a81548160ff02191690831515021790555061039b565b6002600482815481106102f1576102f0610b89565b5b906000526020600020906004020160010154141561039a5761035a600482815481106103205761031f610b89565b5b906000526020600020906004020160030160009054906101000a900473ffffffffffffffffffffffffffffffffffffffff166002546103b2565b5060016004828154811061037157610370610b89565b5b906000526020600020906004020160030160146101000a81548160ff0219169083151502179055505b5b5b80806103a790610ae2565b9150506101d4565b50565b60008060009054906101000a900473ffffffffffffffffffffffffffffffffffffffff1673ffffffffffffffffffffffffffffffffffffffff163373ffffffffffffffffffffffffffffffffffffffff1614610443576040517f08c379a000000000000000000000000000000000000000000000000000000000815260040161043a906109c7565b60405180910390fd5b600360008473ffffffffffffffffffffffffffffffffffffffff1673ffffffffffffffffffffffffffffffffffffffff16815260200190815260200160002060030160149054906101000a900460ff16156104d3576040517f08c379a00000000000000000000000000000000000000000000000000000000081526004016104ca906109e7565b60405180910390fd5b60008373ffffffffffffffffffffffffffffffffffffffff166108fc849081150290604051600060405180830381858888f1935050505090508061054c576040517f08c379a0000000000000000000000000000000000000000000000000000000008152600401610543906109a7565b60405180910390fd5b8091505092915050565b6004818154811061056657600080fd5b906000526020600020906004020160009150905080600001805461058990610ab0565b80601f01602080910402602001604051908101604052809291908181526020018280546105b590610ab0565b80156106025780601f106105d757610100808354040283529160200191610602565b820191906000526020600020905b8154815290600101906020018083116105e557829003601f168201915b5050505050908060010154908060020154908060030160009054906101000a900473ffffffffffffffffffffffffffffffffffffffff16908060030160149054906101000a900460ff16905085565b600360205280600052604060002060009150905080600001805461067490610ab0565b80601f01602080910402602001604051908101604052809291908181526020018280546106a090610ab0565b80156106ed5780601f106106c2576101008083540402835291602001916106ed565b820191906000526020600020905b8154815290600101906020018083116106d057829003601f168201915b5050505050908060010154908060020154908060030160009054906101000a900473ffffffffffffffffffffffffffffffffffffffff16908060030160149054906101000a900460ff16905085565b60008054906101000a900473ffffffffffffffffffffffffffffffffffffffff1681565b60008135905061076f81610c49565b92915050565b60008135905061078481610c60565b92915050565b60008135905061079981610c77565b92915050565b6000602082840312156107b5576107b4610bb8565b5b60006107c384828501610760565b91505092915050565b600080604083850312156107e3576107e2610bb8565b5b60006107f185828601610775565b92505060206108028582860161078a565b9150509250929050565b60006020828403121561082257610821610bb8565b5b60006108308482850161078a565b91505092915050565b61084281610a35565b82525050565b61085181610a23565b82525050565b61086081610a47565b82525050565b600061087182610a07565b61087b8185610a12565b935061088b818560208601610a7d565b61089481610bbd565b840191505092915050565b60006108ac601483610a12565b91506108b782610bce565b602082019050919050565b60006108cf601683610a12565b91506108da82610bf7565b602082019050919050565b60006108f2601983610a12565b91506108fd82610c20565b602082019050919050565b61091181610a73565b82525050565b600060208201905061092c6000830184610848565b92915050565b60006020820190506109476000830184610857565b92915050565b600060a08201905081810360008301526109678188610866565b90506109766020830187610908565b6109836040830186610908565b6109906060830185610839565b61099d6080830184610857565b9695505050505050565b600060208201905081810360008301526109c08161089f565b9050919050565b600060208201905081810360008301526109e0816108c2565b9050919050565b60006020820190508181036000830152610a00816108e5565b9050919050565b600081519050919050565b600082825260208201905092915050565b6000610a2e82610a53565b9050919050565b6000610a4082610a53565b9050919050565b60008115159050919050565b600073ffffffffffffffffffffffffffffffffffffffff82169050919050565b6000819050919050565b60005b83811015610a9b578082015181840152602081019050610a80565b83811115610aaa576000848401525b50505050565b60006002820490506001821680610ac857607f821691505b60208210811415610adc57610adb610b5a565b5b50919050565b6000610aed82610a73565b91507fffffffffffffffffffffffffffffffffffffffffffffffffffffffffffffffff821415610b2057610b1f610b2b565b5b600182019050919050565b7f4e487b7100000000000000000000000000000000000000000000000000000000600052601160045260246000fd5b7f4e487b7100000000000000000000000000000000000000000000000000000000600052602260045260246000fd5b7f4e487b7100000000000000000000000000000000000000000000000000000000600052603260045260246000fd5b600080fd5b6000601f19601f8301169050919050565b7f4661696c656420746f2073656e64204554484552000000000000000000000000600082015250565b7f796f7520646f6e27742068617665207269676874732000000000000000000000600082015250565b7f53616c61727920616c7265616479206973206372656974656400000000000000600082015250565b610c5281610a23565b8114610c5d57600080fd5b50565b610c6981610a35565b8114610c7457600080fd5b50565b610c8081610a73565b8114610c8b57600080fd5b5056fea2646970667358221220cca9e194393ce7b6e0080d2453d59786c1e3575c18ec5a80953abb16f730eec364736f6c63430008070033",
					"opcodes": "PUSH1 0x80 PUSH1 0x40 MSTORE PUSH7 0x470DE4DF820000 PUSH1 0x1 SSTORE PUSH7 0x6A94D74F430000 PUSH1 0x2 SSTORE CALLVALUE DUP1 ISZERO PUSH2 0x26 JUMPI PUSH1 0x0 DUP1 REVERT JUMPDEST POP CALLER PUSH1 0x0 DUP1 PUSH2 0x100 EXP DUP2 SLOAD DUP2 PUSH20 0xFFFFFFFFFFFFFFFFFFFFFFFFFFFFFFFFFFFFFFFF MUL NOT AND SWAP1 DUP4 PUSH20 0xFFFFFFFFFFFFFFFFFFFFFFFFFFFFFFFFFFFFFFFF AND MUL OR SWAP1 SSTORE POP PUSH2 0xCC4 DUP1 PUSH2 0x76 PUSH1 0x0 CODECOPY PUSH1 0x0 RETURN INVALID PUSH1 0x80 PUSH1 0x40 MSTORE PUSH1 0x4 CALLDATASIZE LT PUSH2 0x4A JUMPI PUSH1 0x0 CALLDATALOAD PUSH1 0xE0 SHR DUP1 PUSH4 0x4B642A4 EQ PUSH2 0x4F JUMPI DUP1 PUSH4 0x18C7A051 EQ PUSH2 0x66 JUMPI DUP1 PUSH4 0xB58F421C EQ PUSH2 0x96 JUMPI DUP1 PUSH4 0xD17106B7 EQ PUSH2 0xD7 JUMPI DUP1 PUSH4 0xF851A440 EQ PUSH2 0x118 JUMPI JUMPDEST PUSH1 0x0 DUP1 REVERT JUMPDEST CALLVALUE DUP1 ISZERO PUSH2 0x5B JUMPI PUSH1 0x0 DUP1 REVERT JUMPDEST POP PUSH2 0x64 PUSH2 0x143 JUMP JUMPDEST STOP JUMPDEST PUSH2 0x80 PUSH1 0x4 DUP1 CALLDATASIZE SUB DUP2 ADD SWAP1 PUSH2 0x7B SWAP2 SWAP1 PUSH2 0x7CC JUMP JUMPDEST PUSH2 0x3B2 JUMP JUMPDEST PUSH1 0x40 MLOAD PUSH2 0x8D SWAP2 SWAP1 PUSH2 0x932 JUMP JUMPDEST PUSH1 0x40 MLOAD DUP1 SWAP2 SUB SWAP1 RETURN JUMPDEST CALLVALUE DUP1 ISZERO PUSH2 0xA2 JUMPI PUSH1 0x0 DUP1 REVERT JUMPDEST POP PUSH2 0xBD PUSH1 0x4 DUP1 CALLDATASIZE SUB DUP2 ADD SWAP1 PUSH2 0xB8 SWAP2 SWAP1 PUSH2 0x80C JUMP JUMPDEST PUSH2 0x556 JUMP JUMPDEST PUSH1 0x40 MLOAD PUSH2 0xCE SWAP6 SWAP5 SWAP4 SWAP3 SWAP2 SWAP1 PUSH2 0x94D JUMP JUMPDEST PUSH1 0x40 MLOAD DUP1 SWAP2 SUB SWAP1 RETURN JUMPDEST CALLVALUE DUP1 ISZERO PUSH2 0xE3 JUMPI PUSH1 0x0 DUP1 REVERT JUMPDEST POP PUSH2 0xFE PUSH1 0x4 DUP1 CALLDATASIZE SUB DUP2 ADD SWAP1 PUSH2 0xF9 SWAP2 SWAP1 PUSH2 0x79F JUMP JUMPDEST PUSH2 0x651 JUMP JUMPDEST PUSH1 0x40 MLOAD PUSH2 0x10F SWAP6 SWAP5 SWAP4 SWAP3 SWAP2 SWAP1 PUSH2 0x94D JUMP JUMPDEST PUSH1 0x40 MLOAD DUP1 SWAP2 SUB SWAP1 RETURN JUMPDEST CALLVALUE DUP1 ISZERO PUSH2 0x124 JUMPI PUSH1 0x0 DUP1 REVERT JUMPDEST POP PUSH2 0x12D PUSH2 0x73C JUMP JUMPDEST PUSH1 0x40 MLOAD PUSH2 0x13A SWAP2 SWAP1 PUSH2 0x917 JUMP JUMPDEST PUSH1 0x40 MLOAD DUP1 SWAP2 SUB SWAP1 RETURN JUMPDEST PUSH1 0x0 DUP1 SLOAD SWAP1 PUSH2 0x100 EXP SWAP1 DIV PUSH20 0xFFFFFFFFFFFFFFFFFFFFFFFFFFFFFFFFFFFFFFFF AND PUSH20 0xFFFFFFFFFFFFFFFFFFFFFFFFFFFFFFFFFFFFFFFF AND CALLER PUSH20 0xFFFFFFFFFFFFFFFFFFFFFFFFFFFFFFFFFFFFFFFF AND EQ PUSH2 0x1D1 JUMPI PUSH1 0x40 MLOAD PUSH32 0x8C379A000000000000000000000000000000000000000000000000000000000 DUP2 MSTORE PUSH1 0x4 ADD PUSH2 0x1C8 SWAP1 PUSH2 0x9C7 JUMP JUMPDEST PUSH1 0x40 MLOAD DUP1 SWAP2 SUB SWAP1 REVERT JUMPDEST PUSH1 0x0 JUMPDEST PUSH1 0x4 DUP1 SLOAD SWAP1 POP DUP2 LT ISZERO PUSH2 0x3AF JUMPI PUSH1 0x4 DUP2 DUP2 SLOAD DUP2 LT PUSH2 0x1F5 JUMPI PUSH2 0x1F4 PUSH2 0xB89 JUMP JUMPDEST JUMPDEST SWAP1 PUSH1 0x0 MSTORE PUSH1 0x20 PUSH1 0x0 KECCAK256 SWAP1 PUSH1 0x4 MUL ADD PUSH1 0x3 ADD PUSH1 0x14 SWAP1 SLOAD SWAP1 PUSH2 0x100 EXP SWAP1 DIV PUSH1 0xFF AND PUSH2 0x39C JUMPI PUSH1 0x1 PUSH1 0x4 DUP3 DUP2 SLOAD DUP2 LT PUSH2 0x22E JUMPI PUSH2 0x22D PUSH2 0xB89 JUMP JUMPDEST JUMPDEST SWAP1 PUSH1 0x0 MSTORE PUSH1 0x20 PUSH1 0x0 KECCAK256 SWAP1 PUSH1 0x4 MUL ADD PUSH1 0x1 ADD SLOAD EQ ISZERO PUSH2 0x2DB JUMPI PUSH2 0x297 PUSH1 0x4 DUP3 DUP2 SLOAD DUP2 LT PUSH2 0x25D JUMPI PUSH2 0x25C PUSH2 0xB89 JUMP JUMPDEST JUMPDEST SWAP1 PUSH1 0x0 MSTORE PUSH1 0x20 PUSH1 0x0 KECCAK256 SWAP1 PUSH1 0x4 MUL ADD PUSH1 0x3 ADD PUSH1 0x0 SWAP1 SLOAD SWAP1 PUSH2 0x100 EXP SWAP1 DIV PUSH20 0xFFFFFFFFFFFFFFFFFFFFFFFFFFFFFFFFFFFFFFFF AND PUSH1 0x1 SLOAD PUSH2 0x3B2 JUMP JUMPDEST POP PUSH1 0x1 PUSH1 0x4 DUP3 DUP2 SLOAD DUP2 LT PUSH2 0x2AE JUMPI PUSH2 0x2AD PUSH2 0xB89 JUMP JUMPDEST JUMPDEST SWAP1 PUSH1 0x0 MSTORE PUSH1 0x20 PUSH1 0x0 KECCAK256 SWAP1 PUSH1 0x4 MUL ADD PUSH1 0x3 ADD PUSH1 0x14 PUSH2 0x100 EXP DUP2 SLOAD DUP2 PUSH1 0xFF MUL NOT AND SWAP1 DUP4 ISZERO ISZERO MUL OR SWAP1 SSTORE POP PUSH2 0x39B JUMP JUMPDEST PUSH1 0x2 PUSH1 0x4 DUP3 DUP2 SLOAD DUP2 LT PUSH2 0x2F1 JUMPI PUSH2 0x2F0 PUSH2 0xB89 JUMP JUMPDEST JUMPDEST SWAP1 PUSH1 0x0 MSTORE PUSH1 0x20 PUSH1 0x0 KECCAK256 SWAP1 PUSH1 0x4 MUL ADD PUSH1 0x1 ADD SLOAD EQ ISZERO PUSH2 0x39A JUMPI PUSH2 0x35A PUSH1 0x4 DUP3 DUP2 SLOAD DUP2 LT PUSH2 0x320 JUMPI PUSH2 0x31F PUSH2 0xB89 JUMP JUMPDEST JUMPDEST SWAP1 PUSH1 0x0 MSTORE PUSH1 0x20 PUSH1 0x0 KECCAK256 SWAP1 PUSH1 0x4 MUL ADD PUSH1 0x3 ADD PUSH1 0x0 SWAP1 SLOAD SWAP1 PUSH2 0x100 EXP SWAP1 DIV PUSH20 0xFFFFFFFFFFFFFFFFFFFFFFFFFFFFFFFFFFFFFFFF AND PUSH1 0x2 SLOAD PUSH2 0x3B2 JUMP JUMPDEST POP PUSH1 0x1 PUSH1 0x4 DUP3 DUP2 SLOAD DUP2 LT PUSH2 0x371 JUMPI PUSH2 0x370 PUSH2 0xB89 JUMP JUMPDEST JUMPDEST SWAP1 PUSH1 0x0 MSTORE PUSH1 0x20 PUSH1 0x0 KECCAK256 SWAP1 PUSH1 0x4 MUL ADD PUSH1 0x3 ADD PUSH1 0x14 PUSH2 0x100 EXP DUP2 SLOAD DUP2 PUSH1 0xFF MUL NOT AND SWAP1 DUP4 ISZERO ISZERO MUL OR SWAP1 SSTORE POP JUMPDEST JUMPDEST JUMPDEST DUP1 DUP1 PUSH2 0x3A7 SWAP1 PUSH2 0xAE2 JUMP JUMPDEST SWAP2 POP POP PUSH2 0x1D4 JUMP JUMPDEST POP JUMP JUMPDEST PUSH1 0x0 DUP1 PUSH1 0x0 SWAP1 SLOAD SWAP1 PUSH2 0x100 EXP SWAP1 DIV PUSH20 0xFFFFFFFFFFFFFFFFFFFFFFFFFFFFFFFFFFFFFFFF AND PUSH20 0xFFFFFFFFFFFFFFFFFFFFFFFFFFFFFFFFFFFFFFFF AND CALLER PUSH20 0xFFFFFFFFFFFFFFFFFFFFFFFFFFFFFFFFFFFFFFFF AND EQ PUSH2 0x443 JUMPI PUSH1 0x40 MLOAD PUSH32 0x8C379A000000000000000000000000000000000000000000000000000000000 DUP2 MSTORE PUSH1 0x4 ADD PUSH2 0x43A SWAP1 PUSH2 0x9C7 JUMP JUMPDEST PUSH1 0x40 MLOAD DUP1 SWAP2 SUB SWAP1 REVERT JUMPDEST PUSH1 0x3 PUSH1 0x0 DUP5 PUSH20 0xFFFFFFFFFFFFFFFFFFFFFFFFFFFFFFFFFFFFFFFF AND PUSH20 0xFFFFFFFFFFFFFFFFFFFFFFFFFFFFFFFFFFFFFFFF AND DUP2 MSTORE PUSH1 0x20 ADD SWAP1 DUP2 MSTORE PUSH1 0x20 ADD PUSH1 0x0 KECCAK256 PUSH1 0x3 ADD PUSH1 0x14 SWAP1 SLOAD SWAP1 PUSH2 0x100 EXP SWAP1 DIV PUSH1 0xFF AND ISZERO PUSH2 0x4D3 JUMPI PUSH1 0x40 MLOAD PUSH32 0x8C379A000000000000000000000000000000000000000000000000000000000 DUP2 MSTORE PUSH1 0x4 ADD PUSH2 0x4CA SWAP1 PUSH2 0x9E7 JUMP JUMPDEST PUSH1 0x40 MLOAD DUP1 SWAP2 SUB SWAP1 REVERT JUMPDEST PUSH1 0x0 DUP4 PUSH20 0xFFFFFFFFFFFFFFFFFFFFFFFFFFFFFFFFFFFFFFFF AND PUSH2 0x8FC DUP5 SWAP1 DUP2 ISZERO MUL SWAP1 PUSH1 0x40 MLOAD PUSH1 0x0 PUSH1 0x40 MLOAD DUP1 DUP4 SUB DUP2 DUP6 DUP9 DUP9 CALL SWAP4 POP POP POP POP SWAP1 POP DUP1 PUSH2 0x54C JUMPI PUSH1 0x40 MLOAD PUSH32 0x8C379A000000000000000000000000000000000000000000000000000000000 DUP2 MSTORE PUSH1 0x4 ADD PUSH2 0x543 SWAP1 PUSH2 0x9A7 JUMP JUMPDEST PUSH1 0x40 MLOAD DUP1 SWAP2 SUB SWAP1 REVERT JUMPDEST DUP1 SWAP2 POP POP SWAP3 SWAP2 POP POP JUMP JUMPDEST PUSH1 0x4 DUP2 DUP2 SLOAD DUP2 LT PUSH2 0x566 JUMPI PUSH1 0x0 DUP1 REVERT JUMPDEST SWAP1 PUSH1 0x0 MSTORE PUSH1 0x20 PUSH1 0x0 KECCAK256 SWAP1 PUSH1 0x4 MUL ADD PUSH1 0x0 SWAP2 POP SWAP1 POP DUP1 PUSH1 0x0 ADD DUP1 SLOAD PUSH2 0x589 SWAP1 PUSH2 0xAB0 JUMP JUMPDEST DUP1 PUSH1 0x1F ADD PUSH1 0x20 DUP1 SWAP2 DIV MUL PUSH1 0x20 ADD PUSH1 0x40 MLOAD SWAP1 DUP2 ADD PUSH1 0x40 MSTORE DUP1 SWAP3 SWAP2 SWAP1 DUP2 DUP2 MSTORE PUSH1 0x20 ADD DUP3 DUP1 SLOAD PUSH2 0x5B5 SWAP1 PUSH2 0xAB0 JUMP JUMPDEST DUP1 ISZERO PUSH2 0x602 JUMPI DUP1 PUSH1 0x1F LT PUSH2 0x5D7 JUMPI PUSH2 0x100 DUP1 DUP4 SLOAD DIV MUL DUP4 MSTORE SWAP2 PUSH1 0x20 ADD SWAP2 PUSH2 0x602 JUMP JUMPDEST DUP3 ADD SWAP2 SWAP1 PUSH1 0x0 MSTORE PUSH1 0x20 PUSH1 0x0 KECCAK256 SWAP1 JUMPDEST DUP2 SLOAD DUP2 MSTORE SWAP1 PUSH1 0x1 ADD SWAP1 PUSH1 0x20 ADD DUP1 DUP4 GT PUSH2 0x5E5 JUMPI DUP3 SWAP1 SUB PUSH1 0x1F AND DUP3 ADD SWAP2 JUMPDEST POP POP POP POP POP SWAP1 DUP1 PUSH1 0x1 ADD SLOAD SWAP1 DUP1 PUSH1 0x2 ADD SLOAD SWAP1 DUP1 PUSH1 0x3 ADD PUSH1 0x0 SWAP1 SLOAD SWAP1 PUSH2 0x100 EXP SWAP1 DIV PUSH20 0xFFFFFFFFFFFFFFFFFFFFFFFFFFFFFFFFFFFFFFFF AND SWAP1 DUP1 PUSH1 0x3 ADD PUSH1 0x14 SWAP1 SLOAD SWAP1 PUSH2 0x100 EXP SWAP1 DIV PUSH1 0xFF AND SWAP1 POP DUP6 JUMP JUMPDEST PUSH1 0x3 PUSH1 0x20 MSTORE DUP1 PUSH1 0x0 MSTORE PUSH1 0x40 PUSH1 0x0 KECCAK256 PUSH1 0x0 SWAP2 POP SWAP1 POP DUP1 PUSH1 0x0 ADD DUP1 SLOAD PUSH2 0x674 SWAP1 PUSH2 0xAB0 JUMP JUMPDEST DUP1 PUSH1 0x1F ADD PUSH1 0x20 DUP1 SWAP2 DIV MUL PUSH1 0x20 ADD PUSH1 0x40 MLOAD SWAP1 DUP2 ADD PUSH1 0x40 MSTORE DUP1 SWAP3 SWAP2 SWAP1 DUP2 DUP2 MSTORE PUSH1 0x20 ADD DUP3 DUP1 SLOAD PUSH2 0x6A0 SWAP1 PUSH2 0xAB0 JUMP JUMPDEST DUP1 ISZERO PUSH2 0x6ED JUMPI DUP1 PUSH1 0x1F LT PUSH2 0x6C2 JUMPI PUSH2 0x100 DUP1 DUP4 SLOAD DIV MUL DUP4 MSTORE SWAP2 PUSH1 0x20 ADD SWAP2 PUSH2 0x6ED JUMP JUMPDEST DUP3 ADD SWAP2 SWAP1 PUSH1 0x0 MSTORE PUSH1 0x20 PUSH1 0x0 KECCAK256 SWAP1 JUMPDEST DUP2 SLOAD DUP2 MSTORE SWAP1 PUSH1 0x1 ADD SWAP1 PUSH1 0x20 ADD DUP1 DUP4 GT PUSH2 0x6D0 JUMPI DUP3 SWAP1 SUB PUSH1 0x1F AND DUP3 ADD SWAP2 JUMPDEST POP POP POP POP POP SWAP1 DUP1 PUSH1 0x1 ADD SLOAD SWAP1 DUP1 PUSH1 0x2 ADD SLOAD SWAP1 DUP1 PUSH1 0x3 ADD PUSH1 0x0 SWAP1 SLOAD SWAP1 PUSH2 0x100 EXP SWAP1 DIV PUSH20 0xFFFFFFFFFFFFFFFFFFFFFFFFFFFFFFFFFFFFFFFF AND SWAP1 DUP1 PUSH1 0x3 ADD PUSH1 0x14 SWAP1 SLOAD SWAP1 PUSH2 0x100 EXP SWAP1 DIV PUSH1 0xFF AND SWAP1 POP DUP6 JUMP JUMPDEST PUSH1 0x0 DUP1 SLOAD SWAP1 PUSH2 0x100 EXP SWAP1 DIV PUSH20 0xFFFFFFFFFFFFFFFFFFFFFFFFFFFFFFFFFFFFFFFF AND DUP2 JUMP JUMPDEST PUSH1 0x0 DUP2 CALLDATALOAD SWAP1 POP PUSH2 0x76F DUP2 PUSH2 0xC49 JUMP JUMPDEST SWAP3 SWAP2 POP POP JUMP JUMPDEST PUSH1 0x0 DUP2 CALLDATALOAD SWAP1 POP PUSH2 0x784 DUP2 PUSH2 0xC60 JUMP JUMPDEST SWAP3 SWAP2 POP POP JUMP JUMPDEST PUSH1 0x0 DUP2 CALLDATALOAD SWAP1 POP PUSH2 0x799 DUP2 PUSH2 0xC77 JUMP JUMPDEST SWAP3 SWAP2 POP POP JUMP JUMPDEST PUSH1 0x0 PUSH1 0x20 DUP3 DUP5 SUB SLT ISZERO PUSH2 0x7B5 JUMPI PUSH2 0x7B4 PUSH2 0xBB8 JUMP JUMPDEST JUMPDEST PUSH1 0x0 PUSH2 0x7C3 DUP5 DUP3 DUP6 ADD PUSH2 0x760 JUMP JUMPDEST SWAP2 POP POP SWAP3 SWAP2 POP POP JUMP JUMPDEST PUSH1 0x0 DUP1 PUSH1 0x40 DUP4 DUP6 SUB SLT ISZERO PUSH2 0x7E3 JUMPI PUSH2 0x7E2 PUSH2 0xBB8 JUMP JUMPDEST JUMPDEST PUSH1 0x0 PUSH2 0x7F1 DUP6 DUP3 DUP7 ADD PUSH2 0x775 JUMP JUMPDEST SWAP3 POP POP PUSH1 0x20 PUSH2 0x802 DUP6 DUP3 DUP7 ADD PUSH2 0x78A JUMP JUMPDEST SWAP2 POP POP SWAP3 POP SWAP3 SWAP1 POP JUMP JUMPDEST PUSH1 0x0 PUSH1 0x20 DUP3 DUP5 SUB SLT ISZERO PUSH2 0x822 JUMPI PUSH2 0x821 PUSH2 0xBB8 JUMP JUMPDEST JUMPDEST PUSH1 0x0 PUSH2 0x830 DUP5 DUP3 DUP6 ADD PUSH2 0x78A JUMP JUMPDEST SWAP2 POP POP SWAP3 SWAP2 POP POP JUMP JUMPDEST PUSH2 0x842 DUP2 PUSH2 0xA35 JUMP JUMPDEST DUP3 MSTORE POP POP JUMP JUMPDEST PUSH2 0x851 DUP2 PUSH2 0xA23 JUMP JUMPDEST DUP3 MSTORE POP POP JUMP JUMPDEST PUSH2 0x860 DUP2 PUSH2 0xA47 JUMP JUMPDEST DUP3 MSTORE POP POP JUMP JUMPDEST PUSH1 0x0 PUSH2 0x871 DUP3 PUSH2 0xA07 JUMP JUMPDEST PUSH2 0x87B DUP2 DUP6 PUSH2 0xA12 JUMP JUMPDEST SWAP4 POP PUSH2 0x88B DUP2 DUP6 PUSH1 0x20 DUP7 ADD PUSH2 0xA7D JUMP JUMPDEST PUSH2 0x894 DUP2 PUSH2 0xBBD JUMP JUMPDEST DUP5 ADD SWAP2 POP POP SWAP3 SWAP2 POP POP JUMP JUMPDEST PUSH1 0x0 PUSH2 0x8AC PUSH1 0x14 DUP4 PUSH2 0xA12 JUMP JUMPDEST SWAP2 POP PUSH2 0x8B7 DUP3 PUSH2 0xBCE JUMP JUMPDEST PUSH1 0x20 DUP3 ADD SWAP1 POP SWAP2 SWAP1 POP JUMP JUMPDEST PUSH1 0x0 PUSH2 0x8CF PUSH1 0x16 DUP4 PUSH2 0xA12 JUMP JUMPDEST SWAP2 POP PUSH2 0x8DA DUP3 PUSH2 0xBF7 JUMP JUMPDEST PUSH1 0x20 DUP3 ADD SWAP1 POP SWAP2 SWAP1 POP JUMP JUMPDEST PUSH1 0x0 PUSH2 0x8F2 PUSH1 0x19 DUP4 PUSH2 0xA12 JUMP JUMPDEST SWAP2 POP PUSH2 0x8FD DUP3 PUSH2 0xC20 JUMP JUMPDEST PUSH1 0x20 DUP3 ADD SWAP1 POP SWAP2 SWAP1 POP JUMP JUMPDEST PUSH2 0x911 DUP2 PUSH2 0xA73 JUMP JUMPDEST DUP3 MSTORE POP POP JUMP JUMPDEST PUSH1 0x0 PUSH1 0x20 DUP3 ADD SWAP1 POP PUSH2 0x92C PUSH1 0x0 DUP4 ADD DUP5 PUSH2 0x848 JUMP JUMPDEST SWAP3 SWAP2 POP POP JUMP JUMPDEST PUSH1 0x0 PUSH1 0x20 DUP3 ADD SWAP1 POP PUSH2 0x947 PUSH1 0x0 DUP4 ADD DUP5 PUSH2 0x857 JUMP JUMPDEST SWAP3 SWAP2 POP POP JUMP JUMPDEST PUSH1 0x0 PUSH1 0xA0 DUP3 ADD SWAP1 POP DUP2 DUP2 SUB PUSH1 0x0 DUP4 ADD MSTORE PUSH2 0x967 DUP2 DUP9 PUSH2 0x866 JUMP JUMPDEST SWAP1 POP PUSH2 0x976 PUSH1 0x20 DUP4 ADD DUP8 PUSH2 0x908 JUMP JUMPDEST PUSH2 0x983 PUSH1 0x40 DUP4 ADD DUP7 PUSH2 0x908 JUMP JUMPDEST PUSH2 0x990 PUSH1 0x60 DUP4 ADD DUP6 PUSH2 0x839 JUMP JUMPDEST PUSH2 0x99D PUSH1 0x80 DUP4 ADD DUP5 PUSH2 0x857 JUMP JUMPDEST SWAP7 SWAP6 POP POP POP POP POP POP JUMP JUMPDEST PUSH1 0x0 PUSH1 0x20 DUP3 ADD SWAP1 POP DUP2 DUP2 SUB PUSH1 0x0 DUP4 ADD MSTORE PUSH2 0x9C0 DUP2 PUSH2 0x89F JUMP JUMPDEST SWAP1 POP SWAP2 SWAP1 POP JUMP JUMPDEST PUSH1 0x0 PUSH1 0x20 DUP3 ADD SWAP1 POP DUP2 DUP2 SUB PUSH1 0x0 DUP4 ADD MSTORE PUSH2 0x9E0 DUP2 PUSH2 0x8C2 JUMP JUMPDEST SWAP1 POP SWAP2 SWAP1 POP JUMP JUMPDEST PUSH1 0x0 PUSH1 0x20 DUP3 ADD SWAP1 POP DUP2 DUP2 SUB PUSH1 0x0 DUP4 ADD MSTORE PUSH2 0xA00 DUP2 PUSH2 0x8E5 JUMP JUMPDEST SWAP1 POP SWAP2 SWAP1 POP JUMP JUMPDEST PUSH1 0x0 DUP2 MLOAD SWAP1 POP SWAP2 SWAP1 POP JUMP JUMPDEST PUSH1 0x0 DUP3 DUP3 MSTORE PUSH1 0x20 DUP3 ADD SWAP1 POP SWAP3 SWAP2 POP POP JUMP JUMPDEST PUSH1 0x0 PUSH2 0xA2E DUP3 PUSH2 0xA53 JUMP JUMPDEST SWAP1 POP SWAP2 SWAP1 POP JUMP JUMPDEST PUSH1 0x0 PUSH2 0xA40 DUP3 PUSH2 0xA53 JUMP JUMPDEST SWAP1 POP SWAP2 SWAP1 POP JUMP JUMPDEST PUSH1 0x0 DUP2 ISZERO ISZERO SWAP1 POP SWAP2 SWAP1 POP JUMP JUMPDEST PUSH1 0x0 PUSH20 0xFFFFFFFFFFFFFFFFFFFFFFFFFFFFFFFFFFFFFFFF DUP3 AND SWAP1 POP SWAP2 SWAP1 POP JUMP JUMPDEST PUSH1 0x0 DUP2 SWAP1 POP SWAP2 SWAP1 POP JUMP JUMPDEST PUSH1 0x0 JUMPDEST DUP4 DUP2 LT ISZERO PUSH2 0xA9B JUMPI DUP1 DUP3 ADD MLOAD DUP2 DUP5 ADD MSTORE PUSH1 0x20 DUP2 ADD SWAP1 POP PUSH2 0xA80 JUMP JUMPDEST DUP4 DUP2 GT ISZERO PUSH2 0xAAA JUMPI PUSH1 0x0 DUP5 DUP5 ADD MSTORE JUMPDEST POP POP POP POP JUMP JUMPDEST PUSH1 0x0 PUSH1 0x2 DUP3 DIV SWAP1 POP PUSH1 0x1 DUP3 AND DUP1 PUSH2 0xAC8 JUMPI PUSH1 0x7F DUP3 AND SWAP2 POP JUMPDEST PUSH1 0x20 DUP3 LT DUP2 EQ ISZERO PUSH2 0xADC JUMPI PUSH2 0xADB PUSH2 0xB5A JUMP JUMPDEST JUMPDEST POP SWAP2 SWAP1 POP JUMP JUMPDEST PUSH1 0x0 PUSH2 0xAED DUP3 PUSH2 0xA73 JUMP JUMPDEST SWAP2 POP PUSH32 0xFFFFFFFFFFFFFFFFFFFFFFFFFFFFFFFFFFFFFFFFFFFFFFFFFFFFFFFFFFFFFFFF DUP3 EQ ISZERO PUSH2 0xB20 JUMPI PUSH2 0xB1F PUSH2 0xB2B JUMP JUMPDEST JUMPDEST PUSH1 0x1 DUP3 ADD SWAP1 POP SWAP2 SWAP1 POP JUMP JUMPDEST PUSH32 0x4E487B7100000000000000000000000000000000000000000000000000000000 PUSH1 0x0 MSTORE PUSH1 0x11 PUSH1 0x4 MSTORE PUSH1 0x24 PUSH1 0x0 REVERT JUMPDEST PUSH32 0x4E487B7100000000000000000000000000000000000000000000000000000000 PUSH1 0x0 MSTORE PUSH1 0x22 PUSH1 0x4 MSTORE PUSH1 0x24 PUSH1 0x0 REVERT JUMPDEST PUSH32 0x4E487B7100000000000000000000000000000000000000000000000000000000 PUSH1 0x0 MSTORE PUSH1 0x32 PUSH1 0x4 MSTORE PUSH1 0x24 PUSH1 0x0 REVERT JUMPDEST PUSH1 0x0 DUP1 REVERT JUMPDEST PUSH1 0x0 PUSH1 0x1F NOT PUSH1 0x1F DUP4 ADD AND SWAP1 POP SWAP2 SWAP1 POP JUMP JUMPDEST PUSH32 0x4661696C656420746F2073656E64204554484552000000000000000000000000 PUSH1 0x0 DUP3 ADD MSTORE POP JUMP JUMPDEST PUSH32 0x796F7520646F6E27742068617665207269676874732000000000000000000000 PUSH1 0x0 DUP3 ADD MSTORE POP JUMP JUMPDEST PUSH32 0x53616C61727920616C7265616479206973206372656974656400000000000000 PUSH1 0x0 DUP3 ADD MSTORE POP JUMP JUMPDEST PUSH2 0xC52 DUP2 PUSH2 0xA23 JUMP JUMPDEST DUP2 EQ PUSH2 0xC5D JUMPI PUSH1 0x0 DUP1 REVERT JUMPDEST POP JUMP JUMPDEST PUSH2 0xC69 DUP2 PUSH2 0xA35 JUMP JUMPDEST DUP2 EQ PUSH2 0xC74 JUMPI PUSH1 0x0 DUP1 REVERT JUMPDEST POP JUMP JUMPDEST PUSH2 0xC80 DUP2 PUSH2 0xA73 JUMP JUMPDEST DUP2 EQ PUSH2 0xC8B JUMPI PUSH1 0x0 DUP1 REVERT JUMPDEST POP JUMP INVALID LOG2 PUSH5 0x6970667358 0x22 SLT KECCAK256 0xCC 0xA9 0xE1 SWAP5 CODECOPY EXTCODECOPY 0xE7 0xB6 0xE0 ADDMOD 0xD 0x24 MSTORE8 0xD5 SWAP8 DUP7 0xC1 0xE3 JUMPI 0x5C XOR 0xEC GAS DUP1 SWAP6 GASPRICE 0xBB AND 0xF7 ADDRESS 0xEE 0xC3 PUSH5 0x736F6C6343 STOP ADDMOD SMOD STOP CALLER "
				},
				"gasEstimates": {
					"creation": {
						"codeDepositCost": "653600",
						"executionCost": "69167",
						"totalCost": "722767"
					},
					"external": {
						"AllEmployes(uint256)": "infinite",
						"GetEmployeeDetails(address)": "infinite",
						"admin()": "2577",
						"sendingSalaries(address,uint256)": "infinite",
						"sendingSalariesToEmployee()": "infinite"
					}
				},
				"methodIdentifiers": {
					"AllEmployes(uint256)": "b58f421c",
					"GetEmployeeDetails(address)": "d17106b7",
					"admin()": "f851a440",
					"sendingSalaries(address,uint256)": "18c7a051",
					"sendingSalariesToEmployee()": "04b642a4"
				}
			},
			"storageLayout": {
				"storage": [
					{
						"astId": 3,
						"contract": "contracts/salary.sol:salary",
						"label": "admin",
						"offset": 0,
						"slot": "0",
						"type": "t_address"
					},
					{
						"astId": 15,
						"contract": "contracts/salary.sol:salary",
						"label": "SalaryOfP1",
						"offset": 0,
						"slot": "1",
						"type": "t_uint256"
					},
					{
						"astId": 18,
						"contract": "contracts/salary.sol:salary",
						"label": "SalaryOfP2",
						"offset": 0,
						"slot": "2",
						"type": "t_uint256"
					},
					{
						"astId": 34,
						"contract": "contracts/salary.sol:salary",
						"label": "GetEmployeeDetails",
						"offset": 0,
						"slot": "3",
						"type": "t_mapping(t_address,t_struct(Employe)29_storage)"
					},
					{
						"astId": 38,
						"contract": "contracts/salary.sol:salary",
						"label": "AllEmployes",
						"offset": 0,
						"slot": "4",
						"type": "t_array(t_struct(Employe)29_storage)dyn_storage"
					}
				],
				"types": {
					"t_address": {
						"encoding": "inplace",
						"label": "address",
						"numberOfBytes": "20"
					},
					"t_address_payable": {
						"encoding": "inplace",
						"label": "address payable",
						"numberOfBytes": "20"
					},
					"t_array(t_struct(Employe)29_storage)dyn_storage": {
						"base": "t_struct(Employe)29_storage",
						"encoding": "dynamic_array",
						"label": "struct salary.Employe[]",
						"numberOfBytes": "32"
					},
					"t_bool": {
						"encoding": "inplace",
						"label": "bool",
						"numberOfBytes": "1"
					},
					"t_mapping(t_address,t_struct(Employe)29_storage)": {
						"encoding": "mapping",
						"key": "t_address",
						"label": "mapping(address => struct salary.Employe)",
						"numberOfBytes": "32",
						"value": "t_struct(Employe)29_storage"
					},
					"t_string_storage": {
						"encoding": "bytes",
						"label": "string",
						"numberOfBytes": "32"
					},
					"t_struct(Employe)29_storage": {
						"encoding": "inplace",
						"label": "struct salary.Employe",
						"members": [
							{
								"astId": 20,
								"contract": "contracts/salary.sol:salary",
								"label": "name",
								"offset": 0,
								"slot": "0",
								"type": "t_string_storage"
							},
							{
								"astId": 22,
								"contract": "contracts/salary.sol:salary",
								"label": "role",
								"offset": 0,
								"slot": "1",
								"type": "t_uint256"
							},
							{
								"astId": 24,
								"contract": "contracts/salary.sol:salary",
								"label": "Id_No",
								"offset": 0,
								"slot": "2",
								"type": "t_uint256"
							},
							{
								"astId": 26,
								"contract": "contracts/salary.sol:salary",
								"label": "account_No",
								"offset": 0,
								"slot": "3",
								"type": "t_address_payable"
							},
							{
								"astId": 28,
								"contract": "contracts/salary.sol:salary",
								"label": "paid_status",
								"offset": 20,
								"slot": "3",
								"type": "t_bool"
							}
						],
						"numberOfBytes": "128"
					},
					"t_uint256": {
						"encoding": "inplace",
						"label": "uint256",
						"numberOfBytes": "32"
					}
				}
			},
			"userdoc": {
				"kind": "user",
				"methods": {
					"sendingSalariesToEmployee()": {
						"notice": "0xb2309adF6FD227cd04fcAa5546E1375B2BC65Da0"
					}
				},
				"version": 1
			}
		}
	}
}