{
	"contracts/salary.sol": {
		"salary": {
			"abi": [
				{
					"inputs": [],
					"stateMutability": "nonpayable",
					"type": "constructor"
				},
				{
					"inputs": [
						{
							"internalType": "uint256",
							"name": "",
							"type": "uint256"
						}
					],
					"name": "AllEmployes",
					"outputs": [
						{
							"internalType": "string",
							"name": "name",
							"type": "string"
						},
						{
							"internalType": "uint256",
							"name": "role",
							"type": "uint256"
						},
						{
							"internalType": "uint256",
							"name": "Id_No",
							"type": "uint256"
						},
						{
							"internalType": "address payable",
							"name": "account_No",
							"type": "address"
						},
						{
							"internalType": "bool",
							"name": "paid_status",
							"type": "bool"
						}
					],
					"stateMutability": "view",
					"type": "function"
				},
				{
					"inputs": [
						{
							"internalType": "address",
							"name": "_account_No",
							"type": "address"
						},
						{
							"internalType": "uint256",
							"name": "ChangePosition",
							"type": "uint256"
						}
					],
					"name": "ChangePostion",
					"outputs": [],
					"stateMutability": "nonpayable",
					"type": "function"
				},
				{
					"inputs": [
						{
							"internalType": "address",
							"name": "_account_No",
							"type": "address"
						}
					],
					"name": "CheckSalaryStatus",
					"outputs": [
						{
							"internalType": "bool",
							"name": "status",
							"type": "bool"
						}
					],
					"stateMutability": "view",
					"type": "function"
				},
				{
					"inputs": [
						{
							"internalType": "string",
							"name": "name",
							"type": "string"
						},
						{
							"internalType": "uint256",
							"name": "role",
							"type": "uint256"
						},
						{
							"internalType": "uint256",
							"name": "_Id_No",
							"type": "uint256"
						},
						{
							"internalType": "address payable",
							"name": "_account_No",
							"type": "address"
						},
						{
							"internalType": "bool",
							"name": "_paidStatus",
							"type": "bool"
						}
					],
					"name": "Employe_Registration",
					"outputs": [],
					"stateMutability": "nonpayable",
					"type": "function"
				},
				{
					"inputs": [
						{
							"internalType": "address",
							"name": "",
							"type": "address"
						}
					],
					"name": "GetEmployeeDetails",
					"outputs": [
						{
							"internalType": "string",
							"name": "name",
							"type": "string"
						},
						{
							"internalType": "uint256",
							"name": "role",
							"type": "uint256"
						},
						{
							"internalType": "uint256",
							"name": "Id_No",
							"type": "uint256"
						},
						{
							"internalType": "address payable",
							"name": "account_No",
							"type": "address"
						},
						{
							"internalType": "bool",
							"name": "paid_status",
							"type": "bool"
						}
					],
					"stateMutability": "view",
					"type": "function"
				},
				{
					"inputs": [
						{
							"internalType": "address",
							"name": "_account_No",
							"type": "address"
						}
					],
					"name": "RemoveEmployee",
					"outputs": [
						{
							"internalType": "bool",
							"name": "status",
							"type": "bool"
						}
					],
					"stateMutability": "nonpayable",
					"type": "function"
				},
				{
					"inputs": [],
					"name": "admin",
					"outputs": [
						{
							"internalType": "address",
							"name": "",
							"type": "address"
						}
					],
					"stateMutability": "view",
					"type": "function"
				},
				{
					"inputs": [],
					"name": "changePaidStatus",
					"outputs": [],
					"stateMutability": "nonpayable",
					"type": "function"
				},
				{
					"inputs": [
						{
							"internalType": "address payable",
							"name": "_ToEmployeAddress",
							"type": "address"
						},
						{
							"internalType": "uint256",
							"name": "_amount",
							"type": "uint256"
						}
					],
					"name": "sendingSalaries",
					"outputs": [
						{
							"internalType": "bool",
							"name": "",
							"type": "bool"
						}
					],
					"stateMutability": "payable",
					"type": "function"
				},
				{
					"inputs": [],
					"name": "sendingSalariesToEmployee",
					"outputs": [],
					"stateMutability": "nonpayable",
					"type": "function"
				}
			],
			"devdoc": {
				"kind": "dev",
				"methods": {},
				"version": 1
			},
			"evm": {
				"assembly": "    /* \"contracts/salary.sol\":65:4604  contract salary{\r... */\n  mstore(0x40, 0x80)\n    /* \"contracts/salary.sol\":329:346  20000000000000000 */\n  0x470de4df820000\n    /* \"contracts/salary.sol\":311:346  uint  SalaryOfP1= 20000000000000000 */\n  0x01\n  sstore\n    /* \"contracts/salary.sol\":379:396  30000000000000000 */\n  0x6a94d74f430000\n    /* \"contracts/salary.sol\":362:396  uint  SalaryOfP2=30000000000000000 */\n  0x02\n  sstore\n    /* \"contracts/salary.sol\":160:210  constructor (){\r... */\n  callvalue\n  dup1\n  iszero\n  tag_1\n  jumpi\n  0x00\n  dup1\n  revert\ntag_1:\n  pop\n    /* \"contracts/salary.sol\":196:206  msg.sender */\n  caller\n    /* \"contracts/salary.sol\":189:194  admin */\n  0x00\n  dup1\n    /* \"contracts/salary.sol\":189:206  admin= msg.sender */\n  0x0100\n  exp\n  dup2\n  sload\n  dup2\n  0xffffffffffffffffffffffffffffffffffffffff\n  mul\n  not\n  and\n  swap1\n  dup4\n  0xffffffffffffffffffffffffffffffffffffffff\n  and\n  mul\n  or\n  swap1\n  sstore\n  pop\n    /* \"contracts/salary.sol\":65:4604  contract salary{\r... */\n  dataSize(sub_0)\n  dup1\n  dataOffset(sub_0)\n  0x00\n  codecopy\n  0x00\n  return\nstop\n\nsub_0: assembly {\n        /* \"contracts/salary.sol\":65:4604  contract salary{\r... */\n      mstore(0x40, 0x80)\n      jumpi(tag_1, lt(calldatasize, 0x04))\n      shr(0xe0, calldataload(0x00))\n      dup1\n      0xb58f421c\n      gt\n      tag_12\n      jumpi\n      dup1\n      0xb58f421c\n      eq\n      tag_7\n      jumpi\n      dup1\n      0xba0ce2bb\n      eq\n      tag_8\n      jumpi\n      dup1\n      0xd17106b7\n      eq\n      tag_9\n      jumpi\n      dup1\n      0xe66a458e\n      eq\n      tag_10\n      jumpi\n      dup1\n      0xf851a440\n      eq\n      tag_11\n      jumpi\n      jump(tag_1)\n    tag_12:\n      dup1\n      0x026f119a\n      eq\n      tag_2\n      jumpi\n      dup1\n      0x04b642a4\n      eq\n      tag_3\n      jumpi\n      dup1\n      0x18c7a051\n      eq\n      tag_4\n      jumpi\n      dup1\n      0x52d6abdc\n      eq\n      tag_5\n      jumpi\n      dup1\n      0x7a7e4369\n      eq\n      tag_6\n      jumpi\n    tag_1:\n      0x00\n      dup1\n      revert\n        /* \"contracts/salary.sol\":2821:3004  function changePaidStatus() public  onlyAdmin{\r... */\n    tag_2:\n      callvalue\n      dup1\n      iszero\n      tag_13\n      jumpi\n      0x00\n      dup1\n      revert\n    tag_13:\n      pop\n      tag_14\n      tag_15\n      jump\t// in\n    tag_14:\n      stop\n        /* \"contracts/salary.sol\":1732:2317  function sendingSalariesToEmployee() public   onlyAdmin {\r... */\n    tag_3:\n      callvalue\n      dup1\n      iszero\n      tag_16\n      jumpi\n      0x00\n      dup1\n      revert\n    tag_16:\n      pop\n      tag_17\n      tag_18\n      jump\t// in\n    tag_17:\n      stop\n        /* \"contracts/salary.sol\":2345:2777  function sendingSalaries(address payable  _ToEmployeAddress ,uint _amount)  public onlyAdmin  payable   returns  (bool){\r... */\n    tag_4:\n      tag_19\n      0x04\n      dup1\n      calldatasize\n      sub\n      dup2\n      add\n      swap1\n      tag_20\n      swap2\n      swap1\n      tag_21\n      jump\t// in\n    tag_20:\n      tag_22\n      jump\t// in\n    tag_19:\n      mload(0x40)\n      tag_23\n      swap2\n      swap1\n      tag_24\n      jump\t// in\n    tag_23:\n      mload(0x40)\n      dup1\n      swap2\n      sub\n      swap1\n      return\n        /* \"contracts/salary.sol\":3969:4599  function RemoveEmployee ( address  _account_No) public onlyAdmin returns (bool status){\r... */\n    tag_5:\n      callvalue\n      dup1\n      iszero\n      tag_25\n      jumpi\n      0x00\n      dup1\n      revert\n    tag_25:\n      pop\n      tag_26\n      0x04\n      dup1\n      calldatasize\n      sub\n      dup2\n      add\n      swap1\n      tag_27\n      swap2\n      swap1\n      tag_28\n      jump\t// in\n    tag_27:\n      tag_29\n      jump\t// in\n    tag_26:\n      mload(0x40)\n      tag_30\n      swap2\n      swap1\n      tag_24\n      jump\t// in\n    tag_30:\n      mload(0x40)\n      dup1\n      swap2\n      sub\n      swap1\n      return\n        /* \"contracts/salary.sol\":1133:1672  function Employe_Registration (string memory name, uint256 role,uint _Id_No,address payable _account_No, bool _paidStatus) public   {\r... */\n    tag_6:\n      callvalue\n      dup1\n      iszero\n      tag_31\n      jumpi\n      0x00\n      dup1\n      revert\n    tag_31:\n      pop\n      tag_32\n      0x04\n      dup1\n      calldatasize\n      sub\n      dup2\n      add\n      swap1\n      tag_33\n      swap2\n      swap1\n      tag_34\n      jump\t// in\n    tag_33:\n      tag_35\n      jump\t// in\n    tag_32:\n      stop\n        /* \"contracts/salary.sol\":700:729  Employe [] public AllEmployes */\n    tag_7:\n      callvalue\n      dup1\n      iszero\n      tag_36\n      jumpi\n      0x00\n      dup1\n      revert\n    tag_36:\n      pop\n      tag_37\n      0x04\n      dup1\n      calldatasize\n      sub\n      dup2\n      add\n      swap1\n      tag_38\n      swap2\n      swap1\n      tag_39\n      jump\t// in\n    tag_38:\n      tag_40\n      jump\t// in\n    tag_37:\n      mload(0x40)\n      tag_41\n      swap6\n      swap5\n      swap4\n      swap3\n      swap2\n      swap1\n      tag_42\n      jump\t// in\n    tag_41:\n      mload(0x40)\n      dup1\n      swap2\n      sub\n      swap1\n      return\n        /* \"contracts/salary.sol\":3062:3471  function CheckSalaryStatus (address _account_No)  public onlyAdmin view  returns (bool status){\r... */\n    tag_8:\n      callvalue\n      dup1\n      iszero\n      tag_43\n      jumpi\n      0x00\n      dup1\n      revert\n    tag_43:\n      pop\n      tag_44\n      0x04\n      dup1\n      calldatasize\n      sub\n      dup2\n      add\n      swap1\n      tag_45\n      swap2\n      swap1\n      tag_28\n      jump\t// in\n    tag_45:\n      tag_46\n      jump\t// in\n    tag_44:\n      mload(0x40)\n      tag_47\n      swap2\n      swap1\n      tag_24\n      jump\t// in\n    tag_47:\n      mload(0x40)\n      dup1\n      swap2\n      sub\n      swap1\n      return\n        /* \"contracts/salary.sol\":618:670  mapping (address=>Employe) public GetEmployeeDetails */\n    tag_9:\n      callvalue\n      dup1\n      iszero\n      tag_48\n      jumpi\n      0x00\n      dup1\n      revert\n    tag_48:\n      pop\n      tag_49\n      0x04\n      dup1\n      calldatasize\n      sub\n      dup2\n      add\n      swap1\n      tag_50\n      swap2\n      swap1\n      tag_28\n      jump\t// in\n    tag_50:\n      tag_51\n      jump\t// in\n    tag_49:\n      mload(0x40)\n      tag_52\n      swap6\n      swap5\n      swap4\n      swap3\n      swap2\n      swap1\n      tag_42\n      jump\t// in\n    tag_52:\n      mload(0x40)\n      dup1\n      swap2\n      sub\n      swap1\n      return\n        /* \"contracts/salary.sol\":3522:3932  function ChangePostion( address _account_No, uint   ChangePosition) public onlyAdmin {\r... */\n    tag_10:\n      callvalue\n      dup1\n      iszero\n      tag_53\n      jumpi\n      0x00\n      dup1\n      revert\n    tag_53:\n      pop\n      tag_54\n      0x04\n      dup1\n      calldatasize\n      sub\n      dup2\n      add\n      swap1\n      tag_55\n      swap2\n      swap1\n      tag_56\n      jump\t// in\n    tag_55:\n      tag_57\n      jump\t// in\n    tag_54:\n      stop\n        /* \"contracts/salary.sol\":123:143  address public admin */\n    tag_11:\n      callvalue\n      dup1\n      iszero\n      tag_58\n      jumpi\n      0x00\n      dup1\n      revert\n    tag_58:\n      pop\n      tag_59\n      tag_60\n      jump\t// in\n    tag_59:\n      mload(0x40)\n      tag_61\n      swap2\n      swap1\n      tag_62\n      jump\t// in\n    tag_61:\n      mload(0x40)\n      dup1\n      swap2\n      sub\n      swap1\n      return\n        /* \"contracts/salary.sol\":2821:3004  function changePaidStatus() public  onlyAdmin{\r... */\n    tag_15:\n        /* \"contracts/salary.sol\":795:800  admin */\n      0x00\n      dup1\n      sload\n      swap1\n      0x0100\n      exp\n      swap1\n      div\n      0xffffffffffffffffffffffffffffffffffffffff\n      and\n        /* \"contracts/salary.sol\":783:800  msg.sender==admin */\n      0xffffffffffffffffffffffffffffffffffffffff\n      and\n        /* \"contracts/salary.sol\":783:793  msg.sender */\n      caller\n        /* \"contracts/salary.sol\":783:800  msg.sender==admin */\n      0xffffffffffffffffffffffffffffffffffffffff\n      and\n      eq\n        /* \"contracts/salary.sol\":775:826  require(msg.sender==admin,\"you don't have rights \") */\n      tag_64\n      jumpi\n      mload(0x40)\n      0x08c379a000000000000000000000000000000000000000000000000000000000\n      dup2\n      mstore\n      0x04\n      add\n      tag_65\n      swap1\n      tag_66\n      jump\t// in\n    tag_65:\n      mload(0x40)\n      dup1\n      swap2\n      sub\n      swap1\n      revert\n    tag_64:\n        /* \"contracts/salary.sol\":2881:2887  uint i */\n      0x00\n        /* \"contracts/salary.sol\":2877:2997  for(uint i=0; i<AllEmployes.length;i++){\r... */\n    tag_68:\n        /* \"contracts/salary.sol\":2893:2904  AllEmployes */\n      0x04\n        /* \"contracts/salary.sol\":2893:2911  AllEmployes.length */\n      dup1\n      sload\n      swap1\n      pop\n        /* \"contracts/salary.sol\":2891:2892  i */\n      dup2\n        /* \"contracts/salary.sol\":2891:2911  i<AllEmployes.length */\n      lt\n        /* \"contracts/salary.sol\":2877:2997  for(uint i=0; i<AllEmployes.length;i++){\r... */\n      iszero\n      tag_69\n      jumpi\n        /* \"contracts/salary.sol\":2959:2970  AllEmployes */\n      0x04\n        /* \"contracts/salary.sol\":2971:2972  i */\n      dup2\n        /* \"contracts/salary.sol\":2959:2973  AllEmployes[i] */\n      dup2\n      sload\n      dup2\n      lt\n      tag_71\n      jumpi\n      tag_72\n      tag_73\n      jump\t// in\n    tag_72:\n    tag_71:\n      swap1\n      0x00\n      mstore\n      keccak256(0x00, 0x20)\n      swap1\n      0x04\n      mul\n      add\n        /* \"contracts/salary.sol\":2959:2985  AllEmployes[i].paid_status */\n      0x03\n      add\n      0x14\n      swap1\n      sload\n      swap1\n      0x0100\n      exp\n      swap1\n      div\n      0xff\n      and\n        /* \"contracts/salary.sol\":2958:2985  !AllEmployes[i].paid_status */\n      iszero\n        /* \"contracts/salary.sol\":2931:2942  AllEmployes */\n      0x04\n        /* \"contracts/salary.sol\":2943:2944  i */\n      dup3\n        /* \"contracts/salary.sol\":2931:2945  AllEmployes[i] */\n      dup2\n      sload\n      dup2\n      lt\n      tag_75\n      jumpi\n      tag_76\n      tag_73\n      jump\t// in\n    tag_76:\n    tag_75:\n      swap1\n      0x00\n      mstore\n      keccak256(0x00, 0x20)\n      swap1\n      0x04\n      mul\n      add\n        /* \"contracts/salary.sol\":2931:2957  AllEmployes[i].paid_status */\n      0x03\n      add\n      0x14\n        /* \"contracts/salary.sol\":2931:2985  AllEmployes[i].paid_status=!AllEmployes[i].paid_status */\n      0x0100\n      exp\n      dup2\n      sload\n      dup2\n      0xff\n      mul\n      not\n      and\n      swap1\n      dup4\n      iszero\n      iszero\n      mul\n      or\n      swap1\n      sstore\n      pop\n        /* \"contracts/salary.sol\":2912:2915  i++ */\n      dup1\n      dup1\n      tag_78\n      swap1\n      tag_79\n      jump\t// in\n    tag_78:\n      swap2\n      pop\n      pop\n        /* \"contracts/salary.sol\":2877:2997  for(uint i=0; i<AllEmployes.length;i++){\r... */\n      jump(tag_68)\n    tag_69:\n      pop\n        /* \"contracts/salary.sol\":2821:3004  function changePaidStatus() public  onlyAdmin{\r... */\n      jump\t// out\n        /* \"contracts/salary.sol\":1732:2317  function sendingSalariesToEmployee() public   onlyAdmin {\r... */\n    tag_18:\n        /* \"contracts/salary.sol\":795:800  admin */\n      0x00\n      dup1\n      sload\n      swap1\n      0x0100\n      exp\n      swap1\n      div\n      0xffffffffffffffffffffffffffffffffffffffff\n      and\n        /* \"contracts/salary.sol\":783:800  msg.sender==admin */\n      0xffffffffffffffffffffffffffffffffffffffff\n      and\n        /* \"contracts/salary.sol\":783:793  msg.sender */\n      caller\n        /* \"contracts/salary.sol\":783:800  msg.sender==admin */\n      0xffffffffffffffffffffffffffffffffffffffff\n      and\n      eq\n        /* \"contracts/salary.sol\":775:826  require(msg.sender==admin,\"you don't have rights \") */\n      tag_81\n      jumpi\n      mload(0x40)\n      0x08c379a000000000000000000000000000000000000000000000000000000000\n      dup2\n      mstore\n      0x04\n      add\n      tag_82\n      swap1\n      tag_66\n      jump\t// in\n    tag_82:\n      mload(0x40)\n      dup1\n      swap2\n      sub\n      swap1\n      revert\n    tag_81:\n        /* \"contracts/salary.sol\":1816:1825  uint256 i */\n      0x00\n        /* \"contracts/salary.sol\":1812:2310  for(uint256 i= 0; i<AllEmployes.length; i++){\r... */\n    tag_84:\n        /* \"contracts/salary.sol\":1832:1843  AllEmployes */\n      0x04\n        /* \"contracts/salary.sol\":1832:1850  AllEmployes.length */\n      dup1\n      sload\n      swap1\n      pop\n        /* \"contracts/salary.sol\":1830:1831  i */\n      dup2\n        /* \"contracts/salary.sol\":1830:1850  i<AllEmployes.length */\n      lt\n        /* \"contracts/salary.sol\":1812:2310  for(uint256 i= 0; i<AllEmployes.length; i++){\r... */\n      iszero\n      tag_85\n      jumpi\n        /* \"contracts/salary.sol\":1873:1884  AllEmployes */\n      0x04\n        /* \"contracts/salary.sol\":1885:1886  i */\n      dup2\n        /* \"contracts/salary.sol\":1873:1887  AllEmployes[i] */\n      dup2\n      sload\n      dup2\n      lt\n      tag_87\n      jumpi\n      tag_88\n      tag_73\n      jump\t// in\n    tag_88:\n    tag_87:\n      swap1\n      0x00\n      mstore\n      keccak256(0x00, 0x20)\n      swap1\n      0x04\n      mul\n      add\n        /* \"contracts/salary.sol\":1873:1899  AllEmployes[i].paid_status */\n      0x03\n      add\n      0x14\n      swap1\n      sload\n      swap1\n      0x0100\n      exp\n      swap1\n      div\n      0xff\n      and\n        /* \"contracts/salary.sol\":1868:2299  if (!AllEmployes[i].paid_status)\r... */\n      tag_90\n      jumpi\n        /* \"contracts/salary.sol\":1954:1955  1 */\n      0x01\n        /* \"contracts/salary.sol\":1931:1942  AllEmployes */\n      0x04\n        /* \"contracts/salary.sol\":1943:1944  i */\n      dup3\n        /* \"contracts/salary.sol\":1931:1945  AllEmployes[i] */\n      dup2\n      sload\n      dup2\n      lt\n      tag_91\n      jumpi\n      tag_92\n      tag_73\n      jump\t// in\n    tag_92:\n    tag_91:\n      swap1\n      0x00\n      mstore\n      keccak256(0x00, 0x20)\n      swap1\n      0x04\n      mul\n      add\n        /* \"contracts/salary.sol\":1931:1950  AllEmployes[i].role */\n      0x01\n      add\n      sload\n        /* \"contracts/salary.sol\":1931:1955  AllEmployes[i].role == 1 */\n      eq\n        /* \"contracts/salary.sol\":1928:2288  if(AllEmployes[i].role == 1)\r... */\n      iszero\n      tag_94\n      jumpi\n        /* \"contracts/salary.sol\":1989:2042  sendingSalaries(AllEmployes[i].account_No,SalaryOfP1) */\n      tag_95\n        /* \"contracts/salary.sol\":2005:2016  AllEmployes */\n      0x04\n        /* \"contracts/salary.sol\":2017:2018  i */\n      dup3\n        /* \"contracts/salary.sol\":2005:2019  AllEmployes[i] */\n      dup2\n      sload\n      dup2\n      lt\n      tag_96\n      jumpi\n      tag_97\n      tag_73\n      jump\t// in\n    tag_97:\n    tag_96:\n      swap1\n      0x00\n      mstore\n      keccak256(0x00, 0x20)\n      swap1\n      0x04\n      mul\n      add\n        /* \"contracts/salary.sol\":2005:2030  AllEmployes[i].account_No */\n      0x03\n      add\n      0x00\n      swap1\n      sload\n      swap1\n      0x0100\n      exp\n      swap1\n      div\n      0xffffffffffffffffffffffffffffffffffffffff\n      and\n        /* \"contracts/salary.sol\":2031:2041  SalaryOfP1 */\n      sload(0x01)\n        /* \"contracts/salary.sol\":1989:2004  sendingSalaries */\n      tag_22\n        /* \"contracts/salary.sol\":1989:2042  sendingSalaries(AllEmployes[i].account_No,SalaryOfP1) */\n      jump\t// in\n    tag_95:\n      pop\n        /* \"contracts/salary.sol\":2088:2092  true */\n      0x01\n        /* \"contracts/salary.sol\":2061:2072  AllEmployes */\n      0x04\n        /* \"contracts/salary.sol\":2073:2074  i */\n      dup3\n        /* \"contracts/salary.sol\":2061:2075  AllEmployes[i] */\n      dup2\n      sload\n      dup2\n      lt\n      tag_99\n      jumpi\n      tag_100\n      tag_73\n      jump\t// in\n    tag_100:\n    tag_99:\n      swap1\n      0x00\n      mstore\n      keccak256(0x00, 0x20)\n      swap1\n      0x04\n      mul\n      add\n        /* \"contracts/salary.sol\":2061:2087  AllEmployes[i].paid_status */\n      0x03\n      add\n      0x14\n        /* \"contracts/salary.sol\":2061:2092  AllEmployes[i].paid_status=true */\n      0x0100\n      exp\n      dup2\n      sload\n      dup2\n      0xff\n      mul\n      not\n      and\n      swap1\n      dup4\n      iszero\n      iszero\n      mul\n      or\n      swap1\n      sstore\n      pop\n        /* \"contracts/salary.sol\":1928:2288  if(AllEmployes[i].role == 1)\r... */\n      jump(tag_102)\n    tag_94:\n        /* \"contracts/salary.sol\":2146:2147  2 */\n      0x02\n        /* \"contracts/salary.sol\":2123:2134  AllEmployes */\n      0x04\n        /* \"contracts/salary.sol\":2135:2136  i */\n      dup3\n        /* \"contracts/salary.sol\":2123:2137  AllEmployes[i] */\n      dup2\n      sload\n      dup2\n      lt\n      tag_103\n      jumpi\n      tag_104\n      tag_73\n      jump\t// in\n    tag_104:\n    tag_103:\n      swap1\n      0x00\n      mstore\n      keccak256(0x00, 0x20)\n      swap1\n      0x04\n      mul\n      add\n        /* \"contracts/salary.sol\":2123:2142  AllEmployes[i].role */\n      0x01\n      add\n      sload\n        /* \"contracts/salary.sol\":2123:2147  AllEmployes[i].role == 2 */\n      eq\n        /* \"contracts/salary.sol\":2119:2288  if (AllEmployes[i].role == 2 ){\r... */\n      iszero\n      tag_106\n      jumpi\n        /* \"contracts/salary.sol\":2168:2221  sendingSalaries(AllEmployes[i].account_No,SalaryOfP2) */\n      tag_107\n        /* \"contracts/salary.sol\":2184:2195  AllEmployes */\n      0x04\n        /* \"contracts/salary.sol\":2196:2197  i */\n      dup3\n        /* \"contracts/salary.sol\":2184:2198  AllEmployes[i] */\n      dup2\n      sload\n      dup2\n      lt\n      tag_108\n      jumpi\n      tag_109\n      tag_73\n      jump\t// in\n    tag_109:\n    tag_108:\n      swap1\n      0x00\n      mstore\n      keccak256(0x00, 0x20)\n      swap1\n      0x04\n      mul\n      add\n        /* \"contracts/salary.sol\":2184:2209  AllEmployes[i].account_No */\n      0x03\n      add\n      0x00\n      swap1\n      sload\n      swap1\n      0x0100\n      exp\n      swap1\n      div\n      0xffffffffffffffffffffffffffffffffffffffff\n      and\n        /* \"contracts/salary.sol\":2210:2220  SalaryOfP2 */\n      sload(0x02)\n        /* \"contracts/salary.sol\":2168:2183  sendingSalaries */\n      tag_22\n        /* \"contracts/salary.sol\":2168:2221  sendingSalaries(AllEmployes[i].account_No,SalaryOfP2) */\n      jump\t// in\n    tag_107:\n      pop\n        /* \"contracts/salary.sol\":2267:2271  true */\n      0x01\n        /* \"contracts/salary.sol\":2240:2251  AllEmployes */\n      0x04\n        /* \"contracts/salary.sol\":2252:2253  i */\n      dup3\n        /* \"contracts/salary.sol\":2240:2254  AllEmployes[i] */\n      dup2\n      sload\n      dup2\n      lt\n      tag_111\n      jumpi\n      tag_112\n      tag_73\n      jump\t// in\n    tag_112:\n    tag_111:\n      swap1\n      0x00\n      mstore\n      keccak256(0x00, 0x20)\n      swap1\n      0x04\n      mul\n      add\n        /* \"contracts/salary.sol\":2240:2266  AllEmployes[i].paid_status */\n      0x03\n      add\n      0x14\n        /* \"contracts/salary.sol\":2240:2271  AllEmployes[i].paid_status=true */\n      0x0100\n      exp\n      dup2\n      sload\n      dup2\n      0xff\n      mul\n      not\n      and\n      swap1\n      dup4\n      iszero\n      iszero\n      mul\n      or\n      swap1\n      sstore\n      pop\n        /* \"contracts/salary.sol\":2119:2288  if (AllEmployes[i].role == 2 ){\r... */\n    tag_106:\n        /* \"contracts/salary.sol\":1928:2288  if(AllEmployes[i].role == 1)\r... */\n    tag_102:\n        /* \"contracts/salary.sol\":1868:2299  if (!AllEmployes[i].paid_status)\r... */\n    tag_90:\n        /* \"contracts/salary.sol\":1852:1855  i++ */\n      dup1\n      dup1\n      tag_114\n      swap1\n      tag_79\n      jump\t// in\n    tag_114:\n      swap2\n      pop\n      pop\n        /* \"contracts/salary.sol\":1812:2310  for(uint256 i= 0; i<AllEmployes.length; i++){\r... */\n      jump(tag_84)\n    tag_85:\n      pop\n        /* \"contracts/salary.sol\":1732:2317  function sendingSalariesToEmployee() public   onlyAdmin {\r... */\n      jump\t// out\n        /* \"contracts/salary.sol\":2345:2777  function sendingSalaries(address payable  _ToEmployeAddress ,uint _amount)  public onlyAdmin  payable   returns  (bool){\r... */\n    tag_22:\n        /* \"contracts/salary.sol\":2459:2463  bool */\n      0x00\n        /* \"contracts/salary.sol\":795:800  admin */\n      dup1\n      0x00\n      swap1\n      sload\n      swap1\n      0x0100\n      exp\n      swap1\n      div\n      0xffffffffffffffffffffffffffffffffffffffff\n      and\n        /* \"contracts/salary.sol\":783:800  msg.sender==admin */\n      0xffffffffffffffffffffffffffffffffffffffff\n      and\n        /* \"contracts/salary.sol\":783:793  msg.sender */\n      caller\n        /* \"contracts/salary.sol\":783:800  msg.sender==admin */\n      0xffffffffffffffffffffffffffffffffffffffff\n      and\n      eq\n        /* \"contracts/salary.sol\":775:826  require(msg.sender==admin,\"you don't have rights \") */\n      tag_116\n      jumpi\n      mload(0x40)\n      0x08c379a000000000000000000000000000000000000000000000000000000000\n      dup2\n      mstore\n      0x04\n      add\n      tag_117\n      swap1\n      tag_66\n      jump\t// in\n    tag_117:\n      mload(0x40)\n      dup1\n      swap2\n      sub\n      swap1\n      revert\n    tag_116:\n        /* \"contracts/salary.sol\":2484:2502  GetEmployeeDetails */\n      0x03\n        /* \"contracts/salary.sol\":2484:2521  GetEmployeeDetails[_ToEmployeAddress] */\n      0x00\n        /* \"contracts/salary.sol\":2503:2520  _ToEmployeAddress */\n      dup5\n        /* \"contracts/salary.sol\":2484:2521  GetEmployeeDetails[_ToEmployeAddress] */\n      0xffffffffffffffffffffffffffffffffffffffff\n      and\n      0xffffffffffffffffffffffffffffffffffffffff\n      and\n      dup2\n      mstore\n      0x20\n      add\n      swap1\n      dup2\n      mstore\n      0x20\n      add\n      0x00\n      keccak256\n        /* \"contracts/salary.sol\":2484:2533  GetEmployeeDetails[_ToEmployeAddress].paid_status */\n      0x03\n      add\n      0x14\n      swap1\n      sload\n      swap1\n      0x0100\n      exp\n      swap1\n      div\n      0xff\n      and\n        /* \"contracts/salary.sol\":2483:2533  !GetEmployeeDetails[_ToEmployeAddress].paid_status */\n      iszero\n        /* \"contracts/salary.sol\":2475:2562  require(!GetEmployeeDetails[_ToEmployeAddress].paid_status,\"Salary already is creited\") */\n      tag_119\n      jumpi\n      mload(0x40)\n      0x08c379a000000000000000000000000000000000000000000000000000000000\n      dup2\n      mstore\n      0x04\n      add\n      tag_120\n      swap1\n      tag_121\n      jump\t// in\n    tag_120:\n      mload(0x40)\n      dup1\n      swap2\n      sub\n      swap1\n      revert\n    tag_119:\n        /* \"contracts/salary.sol\":2575:2587  bool sending */\n      0x00\n        /* \"contracts/salary.sol\":2590:2607  _ToEmployeAddress */\n      dup4\n        /* \"contracts/salary.sol\":2590:2612  _ToEmployeAddress.send */\n      0xffffffffffffffffffffffffffffffffffffffff\n      and\n        /* \"contracts/salary.sol\":2590:2621  _ToEmployeAddress.send(_amount) */\n      0x08fc\n        /* \"contracts/salary.sol\":2613:2620  _amount */\n      dup5\n        /* \"contracts/salary.sol\":2590:2621  _ToEmployeAddress.send(_amount) */\n      swap1\n      dup2\n      iszero\n      mul\n      swap1\n      mload(0x40)\n      0x00\n      mload(0x40)\n      dup1\n      dup4\n      sub\n      dup2\n      dup6\n      dup9\n      dup9\n      call\n      swap4\n      pop\n      pop\n      pop\n      pop\n        /* \"contracts/salary.sol\":2575:2621  bool sending = _ToEmployeAddress.send(_amount) */\n      swap1\n      pop\n        /* \"contracts/salary.sol\":2640:2647  sending */\n      dup1\n        /* \"contracts/salary.sol\":2632:2671  require(sending,\"Failed to send ETHER\") */\n      tag_123\n      jumpi\n      mload(0x40)\n      0x08c379a000000000000000000000000000000000000000000000000000000000\n      dup2\n      mstore\n      0x04\n      add\n      tag_124\n      swap1\n      tag_125\n      jump\t// in\n    tag_124:\n      mload(0x40)\n      dup1\n      swap2\n      sub\n      swap1\n      revert\n    tag_123:\n        /* \"contracts/salary.sol\":2757:2764  sending */\n      dup1\n        /* \"contracts/salary.sol\":2750:2764  return sending */\n      swap2\n      pop\n      pop\n        /* \"contracts/salary.sol\":2345:2777  function sendingSalaries(address payable  _ToEmployeAddress ,uint _amount)  public onlyAdmin  payable   returns  (bool){\r... */\n      swap3\n      swap2\n      pop\n      pop\n      jump\t// out\n        /* \"contracts/salary.sol\":3969:4599  function RemoveEmployee ( address  _account_No) public onlyAdmin returns (bool status){\r... */\n    tag_29:\n        /* \"contracts/salary.sol\":4043:4054  bool status */\n      0x00\n        /* \"contracts/salary.sol\":795:800  admin */\n      dup1\n      0x00\n      swap1\n      sload\n      swap1\n      0x0100\n      exp\n      swap1\n      div\n      0xffffffffffffffffffffffffffffffffffffffff\n      and\n        /* \"contracts/salary.sol\":783:800  msg.sender==admin */\n      0xffffffffffffffffffffffffffffffffffffffff\n      and\n        /* \"contracts/salary.sol\":783:793  msg.sender */\n      caller\n        /* \"contracts/salary.sol\":783:800  msg.sender==admin */\n      0xffffffffffffffffffffffffffffffffffffffff\n      and\n      eq\n        /* \"contracts/salary.sol\":775:826  require(msg.sender==admin,\"you don't have rights \") */\n      tag_127\n      jumpi\n      mload(0x40)\n      0x08c379a000000000000000000000000000000000000000000000000000000000\n      dup2\n      mstore\n      0x04\n      add\n      tag_128\n      swap1\n      tag_66\n      jump\t// in\n    tag_128:\n      mload(0x40)\n      dup1\n      swap2\n      sub\n      swap1\n      revert\n    tag_127:\n        /* \"contracts/salary.sol\":4063:4076  uint256 count */\n      0x00\n        /* \"contracts/salary.sol\":4086:4114  Employe memory RemoveEmploye */\n      tag_130\n      tag_131\n      jump\t// in\n    tag_130:\n        /* \"contracts/salary.sol\":4129:4138  uint256 i */\n      0x00\n        /* \"contracts/salary.sol\":4143:4154  AllEmployes */\n      0x04\n        /* \"contracts/salary.sol\":4143:4161  AllEmployes.length */\n      dup1\n      sload\n      swap1\n      pop\n        /* \"contracts/salary.sol\":4141:4142  i */\n      dup2\n        /* \"contracts/salary.sol\":4141:4161  i<AllEmployes.length */\n      lt\n        /* \"contracts/salary.sol\":4124:4595  for (uint256 i=0;i<AllEmployes.length; i++ ){\r... */\n      iszero\n      tag_133\n      jumpi\n        /* \"contracts/salary.sol\":4215:4226  _account_No */\n      dup5\n        /* \"contracts/salary.sol\":4187:4226  AllEmployes[i].account_No ==_account_No */\n      0xffffffffffffffffffffffffffffffffffffffff\n      and\n        /* \"contracts/salary.sol\":4187:4198  AllEmployes */\n      0x04\n        /* \"contracts/salary.sol\":4199:4200  i */\n      dup3\n        /* \"contracts/salary.sol\":4187:4201  AllEmployes[i] */\n      dup2\n      sload\n      dup2\n      lt\n      tag_135\n      jumpi\n      tag_136\n      tag_73\n      jump\t// in\n    tag_136:\n    tag_135:\n      swap1\n      0x00\n      mstore\n      keccak256(0x00, 0x20)\n      swap1\n      0x04\n      mul\n      add\n        /* \"contracts/salary.sol\":4187:4212  AllEmployes[i].account_No */\n      0x03\n      add\n      0x00\n      swap1\n      sload\n      swap1\n      0x0100\n      exp\n      swap1\n      div\n      0xffffffffffffffffffffffffffffffffffffffff\n      and\n        /* \"contracts/salary.sol\":4187:4226  AllEmployes[i].account_No ==_account_No */\n      0xffffffffffffffffffffffffffffffffffffffff\n      and\n      eq\n        /* \"contracts/salary.sol\":4184:4444  if(AllEmployes[i].account_No ==_account_No){\r... */\n      iszero\n      tag_138\n      jumpi\n        /* \"contracts/salary.sol\":4258:4271  RemoveEmploye */\n      dup2\n        /* \"contracts/salary.sol\":4243:4254  AllEmployes */\n      0x04\n        /* \"contracts/salary.sol\":4255:4256  i */\n      dup3\n        /* \"contracts/salary.sol\":4243:4257  AllEmployes[i] */\n      dup2\n      sload\n      dup2\n      lt\n      tag_139\n      jumpi\n      tag_140\n      tag_73\n      jump\t// in\n    tag_140:\n    tag_139:\n      swap1\n      0x00\n      mstore\n      keccak256(0x00, 0x20)\n      swap1\n      0x04\n      mul\n      add\n        /* \"contracts/salary.sol\":4243:4271  AllEmployes[i]=RemoveEmploye */\n      0x00\n      dup3\n      add\n      mload\n      dup2\n      0x00\n      add\n      swap1\n      dup1\n      mload\n      swap1\n      0x20\n      add\n      swap1\n      tag_142\n      swap3\n      swap2\n      swap1\n      tag_143\n      jump\t// in\n    tag_142:\n      pop\n      0x20\n      dup3\n      add\n      mload\n      dup2\n      0x01\n      add\n      sstore\n      0x40\n      dup3\n      add\n      mload\n      dup2\n      0x02\n      add\n      sstore\n      0x60\n      dup3\n      add\n      mload\n      dup2\n      0x03\n      add\n      exp(0x0100, 0x00)\n      dup2\n      sload\n      dup2\n      0xffffffffffffffffffffffffffffffffffffffff\n      mul\n      not\n      and\n      swap1\n      dup4\n      0xffffffffffffffffffffffffffffffffffffffff\n      and\n      mul\n      or\n      swap1\n      sstore\n      pop\n      0x80\n      dup3\n      add\n      mload\n      dup2\n      0x03\n      add\n      exp(0x0100, 0x14)\n      dup2\n      sload\n      dup2\n      0xff\n      mul\n      not\n      and\n      swap1\n      dup4\n      iszero\n      iszero\n      mul\n      or\n      swap1\n      sstore\n      pop\n      swap1\n      pop\n      pop\n        /* \"contracts/salary.sol\":4302:4313  AllEmployes */\n      0x04\n        /* \"contracts/salary.sol\":4333:4334  1 */\n      0x01\n        /* \"contracts/salary.sol\":4314:4325  AllEmployes */\n      0x04\n        /* \"contracts/salary.sol\":4314:4332  AllEmployes.length */\n      dup1\n      sload\n      swap1\n      pop\n        /* \"contracts/salary.sol\":4314:4334  AllEmployes.length-1 */\n      tag_144\n      swap2\n      swap1\n      tag_145\n      jump\t// in\n    tag_144:\n        /* \"contracts/salary.sol\":4302:4335  AllEmployes[AllEmployes.length-1] */\n      dup2\n      sload\n      dup2\n      lt\n      tag_146\n      jumpi\n      tag_147\n      tag_73\n      jump\t// in\n    tag_147:\n    tag_146:\n      swap1\n      0x00\n      mstore\n      keccak256(0x00, 0x20)\n      swap1\n      0x04\n      mul\n      add\n        /* \"contracts/salary.sol\":4287:4298  AllEmployes */\n      0x04\n        /* \"contracts/salary.sol\":4299:4300  i */\n      dup3\n        /* \"contracts/salary.sol\":4287:4301  AllEmployes[i] */\n      dup2\n      sload\n      dup2\n      lt\n      tag_149\n      jumpi\n      tag_150\n      tag_73\n      jump\t// in\n    tag_150:\n    tag_149:\n      swap1\n      0x00\n      mstore\n      keccak256(0x00, 0x20)\n      swap1\n      0x04\n      mul\n      add\n        /* \"contracts/salary.sol\":4287:4335  AllEmployes[i]=AllEmployes[AllEmployes.length-1] */\n      0x00\n      dup3\n      add\n      dup2\n      0x00\n      add\n      swap1\n      dup1\n      sload\n      tag_152\n      swap1\n      tag_153\n      jump\t// in\n    tag_152:\n      tag_154\n      swap3\n      swap2\n      swap1\n      tag_155\n      jump\t// in\n    tag_154:\n      pop\n      0x01\n      dup3\n      add\n      sload\n      dup2\n      0x01\n      add\n      sstore\n      0x02\n      dup3\n      add\n      sload\n      dup2\n      0x02\n      add\n      sstore\n      0x03\n      dup3\n      add\n      0x00\n      swap1\n      sload\n      swap1\n      0x0100\n      exp\n      swap1\n      div\n      0xffffffffffffffffffffffffffffffffffffffff\n      and\n      dup2\n      0x03\n      add\n      exp(0x0100, 0x00)\n      dup2\n      sload\n      dup2\n      0xffffffffffffffffffffffffffffffffffffffff\n      mul\n      not\n      and\n      swap1\n      dup4\n      0xffffffffffffffffffffffffffffffffffffffff\n      and\n      mul\n      or\n      swap1\n      sstore\n      pop\n      0x03\n      dup3\n      add\n      0x14\n      swap1\n      sload\n      swap1\n      0x0100\n      exp\n      swap1\n      div\n      0xff\n      and\n      dup2\n      0x03\n      add\n      exp(0x0100, 0x14)\n      dup2\n      sload\n      dup2\n      0xff\n      mul\n      not\n      and\n      swap1\n      dup4\n      iszero\n      iszero\n      mul\n      or\n      swap1\n      sstore\n      pop\n      swap1\n      pop\n      pop\n        /* \"contracts/salary.sol\":4385:4398  RemoveEmploye */\n      dup2\n        /* \"contracts/salary.sol\":4351:4362  AllEmployes */\n      0x04\n        /* \"contracts/salary.sol\":4382:4383  1 */\n      0x01\n        /* \"contracts/salary.sol\":4363:4374  AllEmployes */\n      0x04\n        /* \"contracts/salary.sol\":4363:4381  AllEmployes.length */\n      dup1\n      sload\n      swap1\n      pop\n        /* \"contracts/salary.sol\":4363:4383  AllEmployes.length-1 */\n      tag_156\n      swap2\n      swap1\n      tag_145\n      jump\t// in\n    tag_156:\n        /* \"contracts/salary.sol\":4351:4384  AllEmployes[AllEmployes.length-1] */\n      dup2\n      sload\n      dup2\n      lt\n      tag_157\n      jumpi\n      tag_158\n      tag_73\n      jump\t// in\n    tag_158:\n    tag_157:\n      swap1\n      0x00\n      mstore\n      keccak256(0x00, 0x20)\n      swap1\n      0x04\n      mul\n      add\n        /* \"contracts/salary.sol\":4351:4398  AllEmployes[AllEmployes.length-1]=RemoveEmploye */\n      0x00\n      dup3\n      add\n      mload\n      dup2\n      0x00\n      add\n      swap1\n      dup1\n      mload\n      swap1\n      0x20\n      add\n      swap1\n      tag_160\n      swap3\n      swap2\n      swap1\n      tag_143\n      jump\t// in\n    tag_160:\n      pop\n      0x20\n      dup3\n      add\n      mload\n      dup2\n      0x01\n      add\n      sstore\n      0x40\n      dup3\n      add\n      mload\n      dup2\n      0x02\n      add\n      sstore\n      0x60\n      dup3\n      add\n      mload\n      dup2\n      0x03\n      add\n      exp(0x0100, 0x00)\n      dup2\n      sload\n      dup2\n      0xffffffffffffffffffffffffffffffffffffffff\n      mul\n      not\n      and\n      swap1\n      dup4\n      0xffffffffffffffffffffffffffffffffffffffff\n      and\n      mul\n      or\n      swap1\n      sstore\n      pop\n      0x80\n      dup3\n      add\n      mload\n      dup2\n      0x03\n      add\n      exp(0x0100, 0x14)\n      dup2\n      sload\n      dup2\n      0xff\n      mul\n      not\n      and\n      swap1\n      dup4\n      iszero\n      iszero\n      mul\n      or\n      swap1\n      sstore\n      pop\n      swap1\n      pop\n      pop\n        /* \"contracts/salary.sol\":4414:4425  AllEmployes */\n      0x04\n        /* \"contracts/salary.sol\":4414:4431  AllEmployes.pop() */\n      dup1\n      sload\n      dup1\n      tag_161\n      jumpi\n      tag_162\n      tag_163\n      jump\t// in\n    tag_162:\n    tag_161:\n      0x01\n      swap1\n      sub\n      dup2\n      dup2\n      swap1\n      0x00\n      mstore\n      keccak256(0x00, 0x20)\n      swap1\n      0x04\n      mul\n      add\n      0x00\n      dup1\n      dup3\n      add\n      0x00\n      tag_165\n      swap2\n      swap1\n      tag_166\n      jump\t// in\n    tag_165:\n      0x01\n      dup3\n      add\n      0x00\n      swap1\n      sstore\n      0x02\n      dup3\n      add\n      0x00\n      swap1\n      sstore\n      0x03\n      dup3\n      add\n      exp(0x0100, 0x00)\n      dup2\n      sload\n      swap1\n      0xffffffffffffffffffffffffffffffffffffffff\n      mul\n      not\n      and\n      swap1\n      sstore\n      0x03\n      dup3\n      add\n      exp(0x0100, 0x14)\n      dup2\n      sload\n      swap1\n      0xff\n      mul\n      not\n      and\n      swap1\n      sstore\n      pop\n      pop\n      swap1\n      sstore\n        /* \"contracts/salary.sol\":4184:4444  if(AllEmployes[i].account_No ==_account_No){\r... */\n    tag_138:\n        /* \"contracts/salary.sol\":4462:4463  1 */\n      0x01\n        /* \"contracts/salary.sol\":4455:4463  count+=1 */\n      dup4\n      tag_167\n      swap2\n      swap1\n      tag_168\n      jump\t// in\n    tag_167:\n      swap3\n      pop\n        /* \"contracts/salary.sol\":4502:4507  count */\n      dup3\n        /* \"contracts/salary.sol\":4480:4491  AllEmployes */\n      0x04\n        /* \"contracts/salary.sol\":4480:4498  AllEmployes.length */\n      dup1\n      sload\n      swap1\n      pop\n        /* \"contracts/salary.sol\":4480:4507  AllEmployes.length == count */\n      eq\n        /* \"contracts/salary.sol\":4477:4565  if(AllEmployes.length == count){\r... */\n      iszero\n      tag_169\n      jumpi\n        /* \"contracts/salary.sol\":4524:4552  revert(\"employee not found\") */\n      mload(0x40)\n      0x08c379a000000000000000000000000000000000000000000000000000000000\n      dup2\n      mstore\n      0x04\n      add\n      tag_170\n      swap1\n      tag_171\n      jump\t// in\n    tag_170:\n      mload(0x40)\n      dup1\n      swap2\n      sub\n      swap1\n      revert\n        /* \"contracts/salary.sol\":4477:4565  if(AllEmployes.length == count){\r... */\n    tag_169:\n        /* \"contracts/salary.sol\":4582:4586  true */\n      0x01\n        /* \"contracts/salary.sol\":4575:4586  return true */\n      swap4\n      pop\n      pop\n      pop\n      pop\n      jump(tag_129)\n        /* \"contracts/salary.sol\":4124:4595  for (uint256 i=0;i<AllEmployes.length; i++ ){\r... */\n    tag_133:\n      pop\n        /* \"contracts/salary.sol\":4055:4599  {\r... */\n      pop\n      pop\n        /* \"contracts/salary.sol\":838:839  _ */\n    tag_129:\n        /* \"contracts/salary.sol\":3969:4599  function RemoveEmployee ( address  _account_No) public onlyAdmin returns (bool status){\r... */\n      swap2\n      swap1\n      pop\n      jump\t// out\n        /* \"contracts/salary.sol\":1133:1672  function Employe_Registration (string memory name, uint256 role,uint _Id_No,address payable _account_No, bool _paidStatus) public   {\r... */\n    tag_35:\n        /* \"contracts/salary.sol\":1330:1341  _account_No */\n      dup2\n        /* \"contracts/salary.sol\":1284:1341  GetEmployeeDetails[_account_No].account_No != _account_No */\n      0xffffffffffffffffffffffffffffffffffffffff\n      and\n        /* \"contracts/salary.sol\":1284:1302  GetEmployeeDetails */\n      0x03\n        /* \"contracts/salary.sol\":1284:1315  GetEmployeeDetails[_account_No] */\n      0x00\n        /* \"contracts/salary.sol\":1303:1314  _account_No */\n      dup5\n        /* \"contracts/salary.sol\":1284:1315  GetEmployeeDetails[_account_No] */\n      0xffffffffffffffffffffffffffffffffffffffff\n      and\n      0xffffffffffffffffffffffffffffffffffffffff\n      and\n      dup2\n      mstore\n      0x20\n      add\n      swap1\n      dup2\n      mstore\n      0x20\n      add\n      0x00\n      keccak256\n        /* \"contracts/salary.sol\":1284:1326  GetEmployeeDetails[_account_No].account_No */\n      0x03\n      add\n      0x00\n      swap1\n      sload\n      swap1\n      0x0100\n      exp\n      swap1\n      div\n      0xffffffffffffffffffffffffffffffffffffffff\n      and\n        /* \"contracts/salary.sol\":1284:1341  GetEmployeeDetails[_account_No].account_No != _account_No */\n      0xffffffffffffffffffffffffffffffffffffffff\n      and\n      eq\n      iszero\n        /* \"contracts/salary.sol\":1276:1366  require(GetEmployeeDetails[_account_No].account_No != _account_No,\"user already register\") */\n      tag_174\n      jumpi\n      mload(0x40)\n      0x08c379a000000000000000000000000000000000000000000000000000000000\n      dup2\n      mstore\n      0x04\n      add\n      tag_175\n      swap1\n      tag_176\n      jump\t// in\n    tag_175:\n      mload(0x40)\n      dup1\n      swap2\n      sub\n      swap1\n      revert\n    tag_174:\n        /* \"contracts/salary.sol\":1377:1401  Employe storage  employe */\n      0x00\n        /* \"contracts/salary.sol\":1404:1422  GetEmployeeDetails */\n      0x03\n        /* \"contracts/salary.sol\":1404:1435  GetEmployeeDetails[_account_No] */\n      0x00\n        /* \"contracts/salary.sol\":1423:1434  _account_No */\n      dup5\n        /* \"contracts/salary.sol\":1404:1435  GetEmployeeDetails[_account_No] */\n      0xffffffffffffffffffffffffffffffffffffffff\n      and\n      0xffffffffffffffffffffffffffffffffffffffff\n      and\n      dup2\n      mstore\n      0x20\n      add\n      swap1\n      dup2\n      mstore\n      0x20\n      add\n      0x00\n      keccak256\n        /* \"contracts/salary.sol\":1377:1435  Employe storage  employe = GetEmployeeDetails[_account_No] */\n      swap1\n      pop\n        /* \"contracts/salary.sol\":1459:1463  name */\n      dup6\n        /* \"contracts/salary.sol\":1446:1453  employe */\n      dup2\n        /* \"contracts/salary.sol\":1446:1458  employe.name */\n      0x00\n      add\n        /* \"contracts/salary.sol\":1446:1463  employe.name=name */\n      swap1\n      dup1\n      mload\n      swap1\n      0x20\n      add\n      swap1\n      tag_177\n      swap3\n      swap2\n      swap1\n      tag_143\n      jump\t// in\n    tag_177:\n      pop\n        /* \"contracts/salary.sol\":1487:1491  role */\n      dup5\n        /* \"contracts/salary.sol\":1474:1481  employe */\n      dup2\n        /* \"contracts/salary.sol\":1474:1486  employe.role */\n      0x01\n      add\n        /* \"contracts/salary.sol\":1474:1491  employe.role=role */\n      dup2\n      swap1\n      sstore\n      pop\n        /* \"contracts/salary.sol\":1516:1522  _Id_No */\n      dup4\n        /* \"contracts/salary.sol\":1502:1509  employe */\n      dup2\n        /* \"contracts/salary.sol\":1502:1515  employe.Id_No */\n      0x02\n      add\n        /* \"contracts/salary.sol\":1502:1522  employe.Id_No=_Id_No */\n      dup2\n      swap1\n      sstore\n      pop\n        /* \"contracts/salary.sol\":1552:1563  _account_No */\n      dup3\n        /* \"contracts/salary.sol\":1533:1540  employe */\n      dup2\n        /* \"contracts/salary.sol\":1533:1551  employe.account_No */\n      0x03\n      add\n      0x00\n        /* \"contracts/salary.sol\":1533:1563  employe.account_No=_account_No */\n      0x0100\n      exp\n      dup2\n      sload\n      dup2\n      0xffffffffffffffffffffffffffffffffffffffff\n      mul\n      not\n      and\n      swap1\n      dup4\n      0xffffffffffffffffffffffffffffffffffffffff\n      and\n      mul\n      or\n      swap1\n      sstore\n      pop\n        /* \"contracts/salary.sol\":1594:1605  _paidStatus */\n      dup2\n        /* \"contracts/salary.sol\":1574:1581  employe */\n      dup2\n        /* \"contracts/salary.sol\":1574:1593  employe.paid_status */\n      0x03\n      add\n      0x14\n        /* \"contracts/salary.sol\":1574:1605  employe.paid_status=_paidStatus */\n      0x0100\n      exp\n      dup2\n      sload\n      dup2\n      0xff\n      mul\n      not\n      and\n      swap1\n      dup4\n      iszero\n      iszero\n      mul\n      or\n      swap1\n      sstore\n      pop\n        /* \"contracts/salary.sol\":1629:1640  AllEmployes */\n      0x04\n        /* \"contracts/salary.sol\":1646:1653  employe */\n      dup2\n        /* \"contracts/salary.sol\":1629:1654  AllEmployes.push(employe) */\n      swap1\n      dup1\n      0x01\n      dup2\n      sload\n      add\n      dup1\n      dup3\n      sstore\n      dup1\n      swap2\n      pop\n      pop\n      0x01\n      swap1\n      sub\n      swap1\n      0x00\n      mstore\n      keccak256(0x00, 0x20)\n      swap1\n      0x04\n      mul\n      add\n      0x00\n      swap1\n      swap2\n      swap1\n      swap2\n      swap1\n      swap2\n      pop\n      0x00\n      dup3\n      add\n      dup2\n      0x00\n      add\n      swap1\n      dup1\n      sload\n      tag_179\n      swap1\n      tag_153\n      jump\t// in\n    tag_179:\n      tag_180\n      swap3\n      swap2\n      swap1\n      tag_155\n      jump\t// in\n    tag_180:\n      pop\n      0x01\n      dup3\n      add\n      sload\n      dup2\n      0x01\n      add\n      sstore\n      0x02\n      dup3\n      add\n      sload\n      dup2\n      0x02\n      add\n      sstore\n      0x03\n      dup3\n      add\n      0x00\n      swap1\n      sload\n      swap1\n      0x0100\n      exp\n      swap1\n      div\n      0xffffffffffffffffffffffffffffffffffffffff\n      and\n      dup2\n      0x03\n      add\n      exp(0x0100, 0x00)\n      dup2\n      sload\n      dup2\n      0xffffffffffffffffffffffffffffffffffffffff\n      mul\n      not\n      and\n      swap1\n      dup4\n      0xffffffffffffffffffffffffffffffffffffffff\n      and\n      mul\n      or\n      swap1\n      sstore\n      pop\n      0x03\n      dup3\n      add\n      0x14\n      swap1\n      sload\n      swap1\n      0x0100\n      exp\n      swap1\n      div\n      0xff\n      and\n      dup2\n      0x03\n      add\n      exp(0x0100, 0x14)\n      dup2\n      sload\n      dup2\n      0xff\n      mul\n      not\n      and\n      swap1\n      dup4\n      iszero\n      iszero\n      mul\n      or\n      swap1\n      sstore\n      pop\n      pop\n      pop\n        /* \"contracts/salary.sol\":1265:1672  {\r... */\n      pop\n        /* \"contracts/salary.sol\":1133:1672  function Employe_Registration (string memory name, uint256 role,uint _Id_No,address payable _account_No, bool _paidStatus) public   {\r... */\n      pop\n      pop\n      pop\n      pop\n      pop\n      jump\t// out\n        /* \"contracts/salary.sol\":700:729  Employe [] public AllEmployes */\n    tag_40:\n      0x04\n      dup2\n      dup2\n      sload\n      dup2\n      lt\n      tag_181\n      jumpi\n      0x00\n      dup1\n      revert\n    tag_181:\n      swap1\n      0x00\n      mstore\n      keccak256(0x00, 0x20)\n      swap1\n      0x04\n      mul\n      add\n      0x00\n      swap2\n      pop\n      swap1\n      pop\n      dup1\n      0x00\n      add\n      dup1\n      sload\n      tag_183\n      swap1\n      tag_153\n      jump\t// in\n    tag_183:\n      dup1\n      0x1f\n      add\n      0x20\n      dup1\n      swap2\n      div\n      mul\n      0x20\n      add\n      mload(0x40)\n      swap1\n      dup2\n      add\n      0x40\n      mstore\n      dup1\n      swap3\n      swap2\n      swap1\n      dup2\n      dup2\n      mstore\n      0x20\n      add\n      dup3\n      dup1\n      sload\n      tag_184\n      swap1\n      tag_153\n      jump\t// in\n    tag_184:\n      dup1\n      iszero\n      tag_185\n      jumpi\n      dup1\n      0x1f\n      lt\n      tag_186\n      jumpi\n      0x0100\n      dup1\n      dup4\n      sload\n      div\n      mul\n      dup4\n      mstore\n      swap2\n      0x20\n      add\n      swap2\n      jump(tag_185)\n    tag_186:\n      dup3\n      add\n      swap2\n      swap1\n      0x00\n      mstore\n      keccak256(0x00, 0x20)\n      swap1\n    tag_187:\n      dup2\n      sload\n      dup2\n      mstore\n      swap1\n      0x01\n      add\n      swap1\n      0x20\n      add\n      dup1\n      dup4\n      gt\n      tag_187\n      jumpi\n      dup3\n      swap1\n      sub\n      0x1f\n      and\n      dup3\n      add\n      swap2\n    tag_185:\n      pop\n      pop\n      pop\n      pop\n      pop\n      swap1\n      dup1\n      0x01\n      add\n      sload\n      swap1\n      dup1\n      0x02\n      add\n      sload\n      swap1\n      dup1\n      0x03\n      add\n      0x00\n      swap1\n      sload\n      swap1\n      0x0100\n      exp\n      swap1\n      div\n      0xffffffffffffffffffffffffffffffffffffffff\n      and\n      swap1\n      dup1\n      0x03\n      add\n      0x14\n      swap1\n      sload\n      swap1\n      0x0100\n      exp\n      swap1\n      div\n      0xff\n      and\n      swap1\n      pop\n      dup6\n      jump\t// out\n        /* \"contracts/salary.sol\":3062:3471  function CheckSalaryStatus (address _account_No)  public onlyAdmin view  returns (bool status){\r... */\n    tag_46:\n        /* \"contracts/salary.sol\":3144:3155  bool status */\n      0x00\n        /* \"contracts/salary.sol\":795:800  admin */\n      dup1\n      0x00\n      swap1\n      sload\n      swap1\n      0x0100\n      exp\n      swap1\n      div\n      0xffffffffffffffffffffffffffffffffffffffff\n      and\n        /* \"contracts/salary.sol\":783:800  msg.sender==admin */\n      0xffffffffffffffffffffffffffffffffffffffff\n      and\n        /* \"contracts/salary.sol\":783:793  msg.sender */\n      caller\n        /* \"contracts/salary.sol\":783:800  msg.sender==admin */\n      0xffffffffffffffffffffffffffffffffffffffff\n      and\n      eq\n        /* \"contracts/salary.sol\":775:826  require(msg.sender==admin,\"you don't have rights \") */\n      tag_189\n      jumpi\n      mload(0x40)\n      0x08c379a000000000000000000000000000000000000000000000000000000000\n      dup2\n      mstore\n      0x04\n      add\n      tag_190\n      swap1\n      tag_66\n      jump\t// in\n    tag_190:\n      mload(0x40)\n      dup1\n      swap2\n      sub\n      swap1\n      revert\n    tag_189:\n        /* \"contracts/salary.sol\":3165:3178  uint256 count */\n      0x00\n        /* \"contracts/salary.sol\":3197:3203  uint i */\n      dup1\n        /* \"contracts/salary.sol\":3192:3466  for (uint i=0;i<AllEmployes.length; i++ ){\r... */\n    tag_192:\n        /* \"contracts/salary.sol\":3208:3219  AllEmployes */\n      0x04\n        /* \"contracts/salary.sol\":3208:3226  AllEmployes.length */\n      dup1\n      sload\n      swap1\n      pop\n        /* \"contracts/salary.sol\":3206:3207  i */\n      dup2\n        /* \"contracts/salary.sol\":3206:3226  i<AllEmployes.length */\n      lt\n        /* \"contracts/salary.sol\":3192:3466  for (uint i=0;i<AllEmployes.length; i++ ){\r... */\n      iszero\n      tag_193\n      jumpi\n        /* \"contracts/salary.sol\":3276:3287  _account_No */\n      dup4\n        /* \"contracts/salary.sol\":3248:3287  AllEmployes[i].account_No ==_account_No */\n      0xffffffffffffffffffffffffffffffffffffffff\n      and\n        /* \"contracts/salary.sol\":3248:3259  AllEmployes */\n      0x04\n        /* \"contracts/salary.sol\":3260:3261  i */\n      dup3\n        /* \"contracts/salary.sol\":3248:3262  AllEmployes[i] */\n      dup2\n      sload\n      dup2\n      lt\n      tag_195\n      jumpi\n      tag_196\n      tag_73\n      jump\t// in\n    tag_196:\n    tag_195:\n      swap1\n      0x00\n      mstore\n      keccak256(0x00, 0x20)\n      swap1\n      0x04\n      mul\n      add\n        /* \"contracts/salary.sol\":3248:3273  AllEmployes[i].account_No */\n      0x03\n      add\n      0x00\n      swap1\n      sload\n      swap1\n      0x0100\n      exp\n      swap1\n      div\n      0xffffffffffffffffffffffffffffffffffffffff\n      and\n        /* \"contracts/salary.sol\":3248:3287  AllEmployes[i].account_No ==_account_No */\n      0xffffffffffffffffffffffffffffffffffffffff\n      and\n      eq\n        /* \"contracts/salary.sol\":3245:3349  if(AllEmployes[i].account_No ==_account_No){\r... */\n      iszero\n      tag_198\n      jumpi\n        /* \"contracts/salary.sol\":3310:3321  AllEmployes */\n      0x04\n        /* \"contracts/salary.sol\":3322:3323  i */\n      dup2\n        /* \"contracts/salary.sol\":3310:3324  AllEmployes[i] */\n      dup2\n      sload\n      dup2\n      lt\n      tag_199\n      jumpi\n      tag_200\n      tag_73\n      jump\t// in\n    tag_200:\n    tag_199:\n      swap1\n      0x00\n      mstore\n      keccak256(0x00, 0x20)\n      swap1\n      0x04\n      mul\n      add\n        /* \"contracts/salary.sol\":3310:3336  AllEmployes[i].paid_status */\n      0x03\n      add\n      0x14\n      swap1\n      sload\n      swap1\n      0x0100\n      exp\n      swap1\n      div\n      0xff\n      and\n        /* \"contracts/salary.sol\":3303:3336  return AllEmployes[i].paid_status */\n      swap3\n      pop\n      pop\n      pop\n      jump(tag_191)\n        /* \"contracts/salary.sol\":3245:3349  if(AllEmployes[i].account_No ==_account_No){\r... */\n    tag_198:\n        /* \"contracts/salary.sol\":3365:3366  1 */\n      0x01\n        /* \"contracts/salary.sol\":3358:3366  count+=1 */\n      dup3\n      tag_202\n      swap2\n      swap1\n      tag_168\n      jump\t// in\n    tag_202:\n      swap2\n      pop\n        /* \"contracts/salary.sol\":3398:3403  count */\n      dup2\n        /* \"contracts/salary.sol\":3376:3387  AllEmployes */\n      0x04\n        /* \"contracts/salary.sol\":3376:3394  AllEmployes.length */\n      dup1\n      sload\n      swap1\n      pop\n        /* \"contracts/salary.sol\":3376:3403  AllEmployes.length == count */\n      eq\n        /* \"contracts/salary.sol\":3373:3461  if(AllEmployes.length == count){\r... */\n      iszero\n      tag_203\n      jumpi\n        /* \"contracts/salary.sol\":3420:3448  revert(\"employee not found\") */\n      mload(0x40)\n      0x08c379a000000000000000000000000000000000000000000000000000000000\n      dup2\n      mstore\n      0x04\n      add\n      tag_204\n      swap1\n      tag_171\n      jump\t// in\n    tag_204:\n      mload(0x40)\n      dup1\n      swap2\n      sub\n      swap1\n      revert\n        /* \"contracts/salary.sol\":3373:3461  if(AllEmployes.length == count){\r... */\n    tag_203:\n        /* \"contracts/salary.sol\":3228:3231  i++ */\n      dup1\n      dup1\n      tag_205\n      swap1\n      tag_79\n      jump\t// in\n    tag_205:\n      swap2\n      pop\n      pop\n        /* \"contracts/salary.sol\":3192:3466  for (uint i=0;i<AllEmployes.length; i++ ){\r... */\n      jump(tag_192)\n    tag_193:\n      pop\n        /* \"contracts/salary.sol\":3156:3471  {\r... */\n      pop\n        /* \"contracts/salary.sol\":838:839  _ */\n    tag_191:\n        /* \"contracts/salary.sol\":3062:3471  function CheckSalaryStatus (address _account_No)  public onlyAdmin view  returns (bool status){\r... */\n      swap2\n      swap1\n      pop\n      jump\t// out\n        /* \"contracts/salary.sol\":618:670  mapping (address=>Employe) public GetEmployeeDetails */\n    tag_51:\n      mstore(0x20, 0x03)\n      dup1\n      0x00\n      mstore\n      keccak256(0x00, 0x40)\n      0x00\n      swap2\n      pop\n      swap1\n      pop\n      dup1\n      0x00\n      add\n      dup1\n      sload\n      tag_206\n      swap1\n      tag_153\n      jump\t// in\n    tag_206:\n      dup1\n      0x1f\n      add\n      0x20\n      dup1\n      swap2\n      div\n      mul\n      0x20\n      add\n      mload(0x40)\n      swap1\n      dup2\n      add\n      0x40\n      mstore\n      dup1\n      swap3\n      swap2\n      swap1\n      dup2\n      dup2\n      mstore\n      0x20\n      add\n      dup3\n      dup1\n      sload\n      tag_207\n      swap1\n      tag_153\n      jump\t// in\n    tag_207:\n      dup1\n      iszero\n      tag_208\n      jumpi\n      dup1\n      0x1f\n      lt\n      tag_209\n      jumpi\n      0x0100\n      dup1\n      dup4\n      sload\n      div\n      mul\n      dup4\n      mstore\n      swap2\n      0x20\n      add\n      swap2\n      jump(tag_208)\n    tag_209:\n      dup3\n      add\n      swap2\n      swap1\n      0x00\n      mstore\n      keccak256(0x00, 0x20)\n      swap1\n    tag_210:\n      dup2\n      sload\n      dup2\n      mstore\n      swap1\n      0x01\n      add\n      swap1\n      0x20\n      add\n      dup1\n      dup4\n      gt\n      tag_210\n      jumpi\n      dup3\n      swap1\n      sub\n      0x1f\n      and\n      dup3\n      add\n      swap2\n    tag_208:\n      pop\n      pop\n      pop\n      pop\n      pop\n      swap1\n      dup1\n      0x01\n      add\n      sload\n      swap1\n      dup1\n      0x02\n      add\n      sload\n      swap1\n      dup1\n      0x03\n      add\n      0x00\n      swap1\n      sload\n      swap1\n      0x0100\n      exp\n      swap1\n      div\n      0xffffffffffffffffffffffffffffffffffffffff\n      and\n      swap1\n      dup1\n      0x03\n      add\n      0x14\n      swap1\n      sload\n      swap1\n      0x0100\n      exp\n      swap1\n      div\n      0xff\n      and\n      swap1\n      pop\n      dup6\n      jump\t// out\n        /* \"contracts/salary.sol\":3522:3932  function ChangePostion( address _account_No, uint   ChangePosition) public onlyAdmin {\r... */\n    tag_57:\n        /* \"contracts/salary.sol\":795:800  admin */\n      0x00\n      dup1\n      sload\n      swap1\n      0x0100\n      exp\n      swap1\n      div\n      0xffffffffffffffffffffffffffffffffffffffff\n      and\n        /* \"contracts/salary.sol\":783:800  msg.sender==admin */\n      0xffffffffffffffffffffffffffffffffffffffff\n      and\n        /* \"contracts/salary.sol\":783:793  msg.sender */\n      caller\n        /* \"contracts/salary.sol\":783:800  msg.sender==admin */\n      0xffffffffffffffffffffffffffffffffffffffff\n      and\n      eq\n        /* \"contracts/salary.sol\":775:826  require(msg.sender==admin,\"you don't have rights \") */\n      tag_212\n      jumpi\n      mload(0x40)\n      0x08c379a000000000000000000000000000000000000000000000000000000000\n      dup2\n      mstore\n      0x04\n      add\n      tag_213\n      swap1\n      tag_66\n      jump\t// in\n    tag_213:\n      mload(0x40)\n      dup1\n      swap2\n      sub\n      swap1\n      revert\n    tag_212:\n        /* \"contracts/salary.sol\":3615:3628  uint256 count */\n      0x00\n        /* \"contracts/salary.sol\":3647:3653  uint i */\n      dup1\n        /* \"contracts/salary.sol\":3642:3916  for (uint i=0;i<AllEmployes.length; i++ ){\r... */\n    tag_215:\n        /* \"contracts/salary.sol\":3658:3669  AllEmployes */\n      0x04\n        /* \"contracts/salary.sol\":3658:3676  AllEmployes.length */\n      dup1\n      sload\n      swap1\n      pop\n        /* \"contracts/salary.sol\":3656:3657  i */\n      dup2\n        /* \"contracts/salary.sol\":3656:3676  i<AllEmployes.length */\n      lt\n        /* \"contracts/salary.sol\":3642:3916  for (uint i=0;i<AllEmployes.length; i++ ){\r... */\n      iszero\n      tag_216\n      jumpi\n        /* \"contracts/salary.sol\":3726:3737  _account_No */\n      dup4\n        /* \"contracts/salary.sol\":3698:3737  AllEmployes[i].account_No ==_account_No */\n      0xffffffffffffffffffffffffffffffffffffffff\n      and\n        /* \"contracts/salary.sol\":3698:3709  AllEmployes */\n      0x04\n        /* \"contracts/salary.sol\":3710:3711  i */\n      dup3\n        /* \"contracts/salary.sol\":3698:3712  AllEmployes[i] */\n      dup2\n      sload\n      dup2\n      lt\n      tag_218\n      jumpi\n      tag_219\n      tag_73\n      jump\t// in\n    tag_219:\n    tag_218:\n      swap1\n      0x00\n      mstore\n      keccak256(0x00, 0x20)\n      swap1\n      0x04\n      mul\n      add\n        /* \"contracts/salary.sol\":3698:3723  AllEmployes[i].account_No */\n      0x03\n      add\n      0x00\n      swap1\n      sload\n      swap1\n      0x0100\n      exp\n      swap1\n      div\n      0xffffffffffffffffffffffffffffffffffffffff\n      and\n        /* \"contracts/salary.sol\":3698:3737  AllEmployes[i].account_No ==_account_No */\n      0xffffffffffffffffffffffffffffffffffffffff\n      and\n      eq\n        /* \"contracts/salary.sol\":3695:3799  if(AllEmployes[i].account_No ==_account_No){\r... */\n      iszero\n      tag_221\n      jumpi\n        /* \"contracts/salary.sol\":3772:3786  ChangePosition */\n      dup3\n        /* \"contracts/salary.sol\":3752:3763  AllEmployes */\n      0x04\n        /* \"contracts/salary.sol\":3764:3765  i */\n      dup3\n        /* \"contracts/salary.sol\":3752:3766  AllEmployes[i] */\n      dup2\n      sload\n      dup2\n      lt\n      tag_222\n      jumpi\n      tag_223\n      tag_73\n      jump\t// in\n    tag_223:\n    tag_222:\n      swap1\n      0x00\n      mstore\n      keccak256(0x00, 0x20)\n      swap1\n      0x04\n      mul\n      add\n        /* \"contracts/salary.sol\":3752:3771  AllEmployes[i].role */\n      0x01\n      add\n        /* \"contracts/salary.sol\":3752:3786  AllEmployes[i].role=ChangePosition */\n      dup2\n      swap1\n      sstore\n      pop\n        /* \"contracts/salary.sol\":3695:3799  if(AllEmployes[i].account_No ==_account_No){\r... */\n    tag_221:\n        /* \"contracts/salary.sol\":3815:3816  1 */\n      0x01\n        /* \"contracts/salary.sol\":3808:3816  count+=1 */\n      dup3\n      tag_225\n      swap2\n      swap1\n      tag_168\n      jump\t// in\n    tag_225:\n      swap2\n      pop\n        /* \"contracts/salary.sol\":3848:3853  count */\n      dup2\n        /* \"contracts/salary.sol\":3826:3837  AllEmployes */\n      0x04\n        /* \"contracts/salary.sol\":3826:3844  AllEmployes.length */\n      dup1\n      sload\n      swap1\n      pop\n        /* \"contracts/salary.sol\":3826:3853  AllEmployes.length == count */\n      eq\n        /* \"contracts/salary.sol\":3823:3911  if(AllEmployes.length == count){\r... */\n      iszero\n      tag_226\n      jumpi\n        /* \"contracts/salary.sol\":3870:3898  revert(\"employee not found\") */\n      mload(0x40)\n      0x08c379a000000000000000000000000000000000000000000000000000000000\n      dup2\n      mstore\n      0x04\n      add\n      tag_227\n      swap1\n      tag_171\n      jump\t// in\n    tag_227:\n      mload(0x40)\n      dup1\n      swap2\n      sub\n      swap1\n      revert\n        /* \"contracts/salary.sol\":3823:3911  if(AllEmployes.length == count){\r... */\n    tag_226:\n        /* \"contracts/salary.sol\":3678:3681  i++ */\n      dup1\n      dup1\n      tag_228\n      swap1\n      tag_79\n      jump\t// in\n    tag_228:\n      swap2\n      pop\n      pop\n        /* \"contracts/salary.sol\":3642:3916  for (uint i=0;i<AllEmployes.length; i++ ){\r... */\n      jump(tag_215)\n    tag_216:\n      pop\n        /* \"contracts/salary.sol\":3607:3932  {\r... */\n      pop\n        /* \"contracts/salary.sol\":3522:3932  function ChangePostion( address _account_No, uint   ChangePosition) public onlyAdmin {\r... */\n      pop\n      pop\n      jump\t// out\n        /* \"contracts/salary.sol\":123:143  address public admin */\n    tag_60:\n      0x00\n      dup1\n      sload\n      swap1\n      0x0100\n      exp\n      swap1\n      div\n      0xffffffffffffffffffffffffffffffffffffffff\n      and\n      dup2\n      jump\t// out\n    tag_131:\n      mload(0x40)\n      dup1\n      0xa0\n      add\n      0x40\n      mstore\n      dup1\n      0x60\n      dup2\n      mstore\n      0x20\n      add\n      0x00\n      dup2\n      mstore\n      0x20\n      add\n      0x00\n      dup2\n      mstore\n      0x20\n      add\n      and(0xffffffffffffffffffffffffffffffffffffffff, 0x00)\n      dup2\n      mstore\n      0x20\n      add\n      iszero(iszero(0x00))\n      dup2\n      mstore\n      pop\n      swap1\n      jump\t// out\n    tag_143:\n      dup3\n      dup1\n      sload\n      tag_229\n      swap1\n      tag_153\n      jump\t// in\n    tag_229:\n      swap1\n      0x00\n      mstore\n      keccak256(0x00, 0x20)\n      swap1\n      0x1f\n      add\n      0x20\n      swap1\n      div\n      dup2\n      add\n      swap3\n      dup3\n      tag_231\n      jumpi\n      0x00\n      dup6\n      sstore\n      jump(tag_230)\n    tag_231:\n      dup3\n      0x1f\n      lt\n      tag_232\n      jumpi\n      dup1\n      mload\n      not(0xff)\n      and\n      dup4\n      dup1\n      add\n      or\n      dup6\n      sstore\n      jump(tag_230)\n    tag_232:\n      dup3\n      dup1\n      add\n      0x01\n      add\n      dup6\n      sstore\n      dup3\n      iszero\n      tag_230\n      jumpi\n      swap2\n      dup3\n      add\n    tag_233:\n      dup3\n      dup2\n      gt\n      iszero\n      tag_234\n      jumpi\n      dup3\n      mload\n      dup3\n      sstore\n      swap2\n      0x20\n      add\n      swap2\n      swap1\n      0x01\n      add\n      swap1\n      jump(tag_233)\n    tag_234:\n    tag_230:\n      pop\n      swap1\n      pop\n      tag_235\n      swap2\n      swap1\n      tag_236\n      jump\t// in\n    tag_235:\n      pop\n      swap1\n      jump\t// out\n    tag_155:\n      dup3\n      dup1\n      sload\n      tag_237\n      swap1\n      tag_153\n      jump\t// in\n    tag_237:\n      swap1\n      0x00\n      mstore\n      keccak256(0x00, 0x20)\n      swap1\n      0x1f\n      add\n      0x20\n      swap1\n      div\n      dup2\n      add\n      swap3\n      dup3\n      tag_239\n      jumpi\n      0x00\n      dup6\n      sstore\n      jump(tag_238)\n    tag_239:\n      dup3\n      0x1f\n      lt\n      tag_240\n      jumpi\n      dup1\n      sload\n      dup6\n      sstore\n      jump(tag_238)\n    tag_240:\n      dup3\n      dup1\n      add\n      0x01\n      add\n      dup6\n      sstore\n      dup3\n      iszero\n      tag_238\n      jumpi\n      0x00\n      mstore\n      keccak256(0x00, 0x20)\n      swap2\n      0x1f\n      add\n      0x20\n      swap1\n      div\n      dup3\n      add\n    tag_241:\n      dup3\n      dup2\n      gt\n      iszero\n      tag_242\n      jumpi\n      dup3\n      sload\n      dup3\n      sstore\n      swap2\n      0x01\n      add\n      swap2\n      swap1\n      0x01\n      add\n      swap1\n      jump(tag_241)\n    tag_242:\n    tag_238:\n      pop\n      swap1\n      pop\n      tag_243\n      swap2\n      swap1\n      tag_236\n      jump\t// in\n    tag_243:\n      pop\n      swap1\n      jump\t// out\n    tag_166:\n      pop\n      dup1\n      sload\n      tag_244\n      swap1\n      tag_153\n      jump\t// in\n    tag_244:\n      0x00\n      dup3\n      sstore\n      dup1\n      0x1f\n      lt\n      tag_246\n      jumpi\n      pop\n      jump(tag_245)\n    tag_246:\n      0x1f\n      add\n      0x20\n      swap1\n      div\n      swap1\n      0x00\n      mstore\n      keccak256(0x00, 0x20)\n      swap1\n      dup2\n      add\n      swap1\n      tag_247\n      swap2\n      swap1\n      tag_236\n      jump\t// in\n    tag_247:\n    tag_245:\n      pop\n      jump\t// out\n    tag_236:\n    tag_248:\n      dup1\n      dup3\n      gt\n      iszero\n      tag_249\n      jumpi\n      0x00\n      dup2\n      0x00\n      swap1\n      sstore\n      pop\n      0x01\n      add\n      jump(tag_248)\n    tag_249:\n      pop\n      swap1\n      jump\t// out\n        /* \"#utility.yul\":7:419   */\n    tag_251:\n        /* \"#utility.yul\":85:90   */\n      0x00\n        /* \"#utility.yul\":110:176   */\n      tag_253\n        /* \"#utility.yul\":126:175   */\n      tag_254\n        /* \"#utility.yul\":168:174   */\n      dup5\n        /* \"#utility.yul\":126:175   */\n      tag_255\n      jump\t// in\n    tag_254:\n        /* \"#utility.yul\":110:176   */\n      tag_256\n      jump\t// in\n    tag_253:\n        /* \"#utility.yul\":101:176   */\n      swap1\n      pop\n        /* \"#utility.yul\":199:205   */\n      dup3\n        /* \"#utility.yul\":192:197   */\n      dup2\n        /* \"#utility.yul\":185:206   */\n      mstore\n        /* \"#utility.yul\":237:241   */\n      0x20\n        /* \"#utility.yul\":230:235   */\n      dup2\n        /* \"#utility.yul\":226:242   */\n      add\n        /* \"#utility.yul\":275:278   */\n      dup5\n        /* \"#utility.yul\":266:272   */\n      dup5\n        /* \"#utility.yul\":261:264   */\n      dup5\n        /* \"#utility.yul\":257:273   */\n      add\n        /* \"#utility.yul\":254:279   */\n      gt\n        /* \"#utility.yul\":251:363   */\n      iszero\n      tag_257\n      jumpi\n        /* \"#utility.yul\":282:361   */\n      tag_258\n      tag_259\n      jump\t// in\n    tag_258:\n        /* \"#utility.yul\":251:363   */\n    tag_257:\n        /* \"#utility.yul\":372:413   */\n      tag_260\n        /* \"#utility.yul\":406:412   */\n      dup5\n        /* \"#utility.yul\":401:404   */\n      dup3\n        /* \"#utility.yul\":396:399   */\n      dup6\n        /* \"#utility.yul\":372:413   */\n      tag_261\n      jump\t// in\n    tag_260:\n        /* \"#utility.yul\":91:419   */\n      pop\n        /* \"#utility.yul\":7:419   */\n      swap4\n      swap3\n      pop\n      pop\n      pop\n      jump\t// out\n        /* \"#utility.yul\":425:564   */\n    tag_262:\n        /* \"#utility.yul\":471:476   */\n      0x00\n        /* \"#utility.yul\":509:515   */\n      dup2\n        /* \"#utility.yul\":496:516   */\n      calldataload\n        /* \"#utility.yul\":487:516   */\n      swap1\n      pop\n        /* \"#utility.yul\":525:558   */\n      tag_264\n        /* \"#utility.yul\":552:557   */\n      dup2\n        /* \"#utility.yul\":525:558   */\n      tag_265\n      jump\t// in\n    tag_264:\n        /* \"#utility.yul\":425:564   */\n      swap3\n      swap2\n      pop\n      pop\n      jump\t// out\n        /* \"#utility.yul\":570:725   */\n    tag_266:\n        /* \"#utility.yul\":624:629   */\n      0x00\n        /* \"#utility.yul\":662:668   */\n      dup2\n        /* \"#utility.yul\":649:669   */\n      calldataload\n        /* \"#utility.yul\":640:669   */\n      swap1\n      pop\n        /* \"#utility.yul\":678:719   */\n      tag_268\n        /* \"#utility.yul\":713:718   */\n      dup2\n        /* \"#utility.yul\":678:719   */\n      tag_269\n      jump\t// in\n    tag_268:\n        /* \"#utility.yul\":570:725   */\n      swap3\n      swap2\n      pop\n      pop\n      jump\t// out\n        /* \"#utility.yul\":731:864   */\n    tag_270:\n        /* \"#utility.yul\":774:779   */\n      0x00\n        /* \"#utility.yul\":812:818   */\n      dup2\n        /* \"#utility.yul\":799:819   */\n      calldataload\n        /* \"#utility.yul\":790:819   */\n      swap1\n      pop\n        /* \"#utility.yul\":828:858   */\n      tag_272\n        /* \"#utility.yul\":852:857   */\n      dup2\n        /* \"#utility.yul\":828:858   */\n      tag_273\n      jump\t// in\n    tag_272:\n        /* \"#utility.yul\":731:864   */\n      swap3\n      swap2\n      pop\n      pop\n      jump\t// out\n        /* \"#utility.yul\":884:1224   */\n    tag_274:\n        /* \"#utility.yul\":940:945   */\n      0x00\n        /* \"#utility.yul\":989:992   */\n      dup3\n        /* \"#utility.yul\":982:986   */\n      0x1f\n        /* \"#utility.yul\":974:980   */\n      dup4\n        /* \"#utility.yul\":970:987   */\n      add\n        /* \"#utility.yul\":966:993   */\n      slt\n        /* \"#utility.yul\":956:1078   */\n      tag_276\n      jumpi\n        /* \"#utility.yul\":997:1076   */\n      tag_277\n      tag_278\n      jump\t// in\n    tag_277:\n        /* \"#utility.yul\":956:1078   */\n    tag_276:\n        /* \"#utility.yul\":1114:1120   */\n      dup2\n        /* \"#utility.yul\":1101:1121   */\n      calldataload\n        /* \"#utility.yul\":1139:1218   */\n      tag_279\n        /* \"#utility.yul\":1214:1217   */\n      dup5\n        /* \"#utility.yul\":1206:1212   */\n      dup3\n        /* \"#utility.yul\":1199:1203   */\n      0x20\n        /* \"#utility.yul\":1191:1197   */\n      dup7\n        /* \"#utility.yul\":1187:1204   */\n      add\n        /* \"#utility.yul\":1139:1218   */\n      tag_251\n      jump\t// in\n    tag_279:\n        /* \"#utility.yul\":1130:1218   */\n      swap2\n      pop\n        /* \"#utility.yul\":946:1224   */\n      pop\n        /* \"#utility.yul\":884:1224   */\n      swap3\n      swap2\n      pop\n      pop\n      jump\t// out\n        /* \"#utility.yul\":1230:1369   */\n    tag_280:\n        /* \"#utility.yul\":1276:1281   */\n      0x00\n        /* \"#utility.yul\":1314:1320   */\n      dup2\n        /* \"#utility.yul\":1301:1321   */\n      calldataload\n        /* \"#utility.yul\":1292:1321   */\n      swap1\n      pop\n        /* \"#utility.yul\":1330:1363   */\n      tag_282\n        /* \"#utility.yul\":1357:1362   */\n      dup2\n        /* \"#utility.yul\":1330:1363   */\n      tag_283\n      jump\t// in\n    tag_282:\n        /* \"#utility.yul\":1230:1369   */\n      swap3\n      swap2\n      pop\n      pop\n      jump\t// out\n        /* \"#utility.yul\":1375:1704   */\n    tag_28:\n        /* \"#utility.yul\":1434:1440   */\n      0x00\n        /* \"#utility.yul\":1483:1485   */\n      0x20\n        /* \"#utility.yul\":1471:1480   */\n      dup3\n        /* \"#utility.yul\":1462:1469   */\n      dup5\n        /* \"#utility.yul\":1458:1481   */\n      sub\n        /* \"#utility.yul\":1454:1486   */\n      slt\n        /* \"#utility.yul\":1451:1570   */\n      iszero\n      tag_285\n      jumpi\n        /* \"#utility.yul\":1489:1568   */\n      tag_286\n      tag_287\n      jump\t// in\n    tag_286:\n        /* \"#utility.yul\":1451:1570   */\n    tag_285:\n        /* \"#utility.yul\":1609:1610   */\n      0x00\n        /* \"#utility.yul\":1634:1687   */\n      tag_288\n        /* \"#utility.yul\":1679:1686   */\n      dup5\n        /* \"#utility.yul\":1670:1676   */\n      dup3\n        /* \"#utility.yul\":1659:1668   */\n      dup6\n        /* \"#utility.yul\":1655:1677   */\n      add\n        /* \"#utility.yul\":1634:1687   */\n      tag_262\n      jump\t// in\n    tag_288:\n        /* \"#utility.yul\":1624:1687   */\n      swap2\n      pop\n        /* \"#utility.yul\":1580:1697   */\n      pop\n        /* \"#utility.yul\":1375:1704   */\n      swap3\n      swap2\n      pop\n      pop\n      jump\t// out\n        /* \"#utility.yul\":1710:2200   */\n    tag_21:\n        /* \"#utility.yul\":1786:1792   */\n      0x00\n        /* \"#utility.yul\":1794:1800   */\n      dup1\n        /* \"#utility.yul\":1843:1845   */\n      0x40\n        /* \"#utility.yul\":1831:1840   */\n      dup4\n        /* \"#utility.yul\":1822:1829   */\n      dup6\n        /* \"#utility.yul\":1818:1841   */\n      sub\n        /* \"#utility.yul\":1814:1846   */\n      slt\n        /* \"#utility.yul\":1811:1930   */\n      iszero\n      tag_290\n      jumpi\n        /* \"#utility.yul\":1849:1928   */\n      tag_291\n      tag_287\n      jump\t// in\n    tag_291:\n        /* \"#utility.yul\":1811:1930   */\n    tag_290:\n        /* \"#utility.yul\":1969:1970   */\n      0x00\n        /* \"#utility.yul\":1994:2055   */\n      tag_292\n        /* \"#utility.yul\":2047:2054   */\n      dup6\n        /* \"#utility.yul\":2038:2044   */\n      dup3\n        /* \"#utility.yul\":2027:2036   */\n      dup7\n        /* \"#utility.yul\":2023:2045   */\n      add\n        /* \"#utility.yul\":1994:2055   */\n      tag_266\n      jump\t// in\n    tag_292:\n        /* \"#utility.yul\":1984:2055   */\n      swap3\n      pop\n        /* \"#utility.yul\":1940:2065   */\n      pop\n        /* \"#utility.yul\":2104:2106   */\n      0x20\n        /* \"#utility.yul\":2130:2183   */\n      tag_293\n        /* \"#utility.yul\":2175:2182   */\n      dup6\n        /* \"#utility.yul\":2166:2172   */\n      dup3\n        /* \"#utility.yul\":2155:2164   */\n      dup7\n        /* \"#utility.yul\":2151:2173   */\n      add\n        /* \"#utility.yul\":2130:2183   */\n      tag_280\n      jump\t// in\n    tag_293:\n        /* \"#utility.yul\":2120:2183   */\n      swap2\n      pop\n        /* \"#utility.yul\":2075:2193   */\n      pop\n        /* \"#utility.yul\":1710:2200   */\n      swap3\n      pop\n      swap3\n      swap1\n      pop\n      jump\t// out\n        /* \"#utility.yul\":2206:2680   */\n    tag_56:\n        /* \"#utility.yul\":2274:2280   */\n      0x00\n        /* \"#utility.yul\":2282:2288   */\n      dup1\n        /* \"#utility.yul\":2331:2333   */\n      0x40\n        /* \"#utility.yul\":2319:2328   */\n      dup4\n        /* \"#utility.yul\":2310:2317   */\n      dup6\n        /* \"#utility.yul\":2306:2329   */\n      sub\n        /* \"#utility.yul\":2302:2334   */\n      slt\n        /* \"#utility.yul\":2299:2418   */\n      iszero\n      tag_295\n      jumpi\n        /* \"#utility.yul\":2337:2416   */\n      tag_296\n      tag_287\n      jump\t// in\n    tag_296:\n        /* \"#utility.yul\":2299:2418   */\n    tag_295:\n        /* \"#utility.yul\":2457:2458   */\n      0x00\n        /* \"#utility.yul\":2482:2535   */\n      tag_297\n        /* \"#utility.yul\":2527:2534   */\n      dup6\n        /* \"#utility.yul\":2518:2524   */\n      dup3\n        /* \"#utility.yul\":2507:2516   */\n      dup7\n        /* \"#utility.yul\":2503:2525   */\n      add\n        /* \"#utility.yul\":2482:2535   */\n      tag_262\n      jump\t// in\n    tag_297:\n        /* \"#utility.yul\":2472:2535   */\n      swap3\n      pop\n        /* \"#utility.yul\":2428:2545   */\n      pop\n        /* \"#utility.yul\":2584:2586   */\n      0x20\n        /* \"#utility.yul\":2610:2663   */\n      tag_298\n        /* \"#utility.yul\":2655:2662   */\n      dup6\n        /* \"#utility.yul\":2646:2652   */\n      dup3\n        /* \"#utility.yul\":2635:2644   */\n      dup7\n        /* \"#utility.yul\":2631:2653   */\n      add\n        /* \"#utility.yul\":2610:2663   */\n      tag_280\n      jump\t// in\n    tag_298:\n        /* \"#utility.yul\":2600:2663   */\n      swap2\n      pop\n        /* \"#utility.yul\":2555:2673   */\n      pop\n        /* \"#utility.yul\":2206:2680   */\n      swap3\n      pop\n      swap3\n      swap1\n      pop\n      jump\t// out\n        /* \"#utility.yul\":2686:3787   */\n    tag_34:\n        /* \"#utility.yul\":2796:2802   */\n      0x00\n        /* \"#utility.yul\":2804:2810   */\n      dup1\n        /* \"#utility.yul\":2812:2818   */\n      0x00\n        /* \"#utility.yul\":2820:2826   */\n      dup1\n        /* \"#utility.yul\":2828:2834   */\n      0x00\n        /* \"#utility.yul\":2877:2880   */\n      0xa0\n        /* \"#utility.yul\":2865:2874   */\n      dup7\n        /* \"#utility.yul\":2856:2863   */\n      dup9\n        /* \"#utility.yul\":2852:2875   */\n      sub\n        /* \"#utility.yul\":2848:2881   */\n      slt\n        /* \"#utility.yul\":2845:2965   */\n      iszero\n      tag_300\n      jumpi\n        /* \"#utility.yul\":2884:2963   */\n      tag_301\n      tag_287\n      jump\t// in\n    tag_301:\n        /* \"#utility.yul\":2845:2965   */\n    tag_300:\n        /* \"#utility.yul\":3032:3033   */\n      0x00\n        /* \"#utility.yul\":3021:3030   */\n      dup7\n        /* \"#utility.yul\":3017:3034   */\n      add\n        /* \"#utility.yul\":3004:3035   */\n      calldataload\n        /* \"#utility.yul\":3062:3080   */\n      0xffffffffffffffff\n        /* \"#utility.yul\":3054:3060   */\n      dup2\n        /* \"#utility.yul\":3051:3081   */\n      gt\n        /* \"#utility.yul\":3048:3165   */\n      iszero\n      tag_302\n      jumpi\n        /* \"#utility.yul\":3084:3163   */\n      tag_303\n      tag_304\n      jump\t// in\n    tag_303:\n        /* \"#utility.yul\":3048:3165   */\n    tag_302:\n        /* \"#utility.yul\":3189:3252   */\n      tag_305\n        /* \"#utility.yul\":3244:3251   */\n      dup9\n        /* \"#utility.yul\":3235:3241   */\n      dup3\n        /* \"#utility.yul\":3224:3233   */\n      dup10\n        /* \"#utility.yul\":3220:3242   */\n      add\n        /* \"#utility.yul\":3189:3252   */\n      tag_274\n      jump\t// in\n    tag_305:\n        /* \"#utility.yul\":3179:3252   */\n      swap6\n      pop\n        /* \"#utility.yul\":2975:3262   */\n      pop\n        /* \"#utility.yul\":3301:3303   */\n      0x20\n        /* \"#utility.yul\":3327:3380   */\n      tag_306\n        /* \"#utility.yul\":3372:3379   */\n      dup9\n        /* \"#utility.yul\":3363:3369   */\n      dup3\n        /* \"#utility.yul\":3352:3361   */\n      dup10\n        /* \"#utility.yul\":3348:3370   */\n      add\n        /* \"#utility.yul\":3327:3380   */\n      tag_280\n      jump\t// in\n    tag_306:\n        /* \"#utility.yul\":3317:3380   */\n      swap5\n      pop\n        /* \"#utility.yul\":3272:3390   */\n      pop\n        /* \"#utility.yul\":3429:3431   */\n      0x40\n        /* \"#utility.yul\":3455:3508   */\n      tag_307\n        /* \"#utility.yul\":3500:3507   */\n      dup9\n        /* \"#utility.yul\":3491:3497   */\n      dup3\n        /* \"#utility.yul\":3480:3489   */\n      dup10\n        /* \"#utility.yul\":3476:3498   */\n      add\n        /* \"#utility.yul\":3455:3508   */\n      tag_280\n      jump\t// in\n    tag_307:\n        /* \"#utility.yul\":3445:3508   */\n      swap4\n      pop\n        /* \"#utility.yul\":3400:3518   */\n      pop\n        /* \"#utility.yul\":3557:3559   */\n      0x60\n        /* \"#utility.yul\":3583:3644   */\n      tag_308\n        /* \"#utility.yul\":3636:3643   */\n      dup9\n        /* \"#utility.yul\":3627:3633   */\n      dup3\n        /* \"#utility.yul\":3616:3625   */\n      dup10\n        /* \"#utility.yul\":3612:3634   */\n      add\n        /* \"#utility.yul\":3583:3644   */\n      tag_266\n      jump\t// in\n    tag_308:\n        /* \"#utility.yul\":3573:3644   */\n      swap3\n      pop\n        /* \"#utility.yul\":3528:3654   */\n      pop\n        /* \"#utility.yul\":3693:3696   */\n      0x80\n        /* \"#utility.yul\":3720:3770   */\n      tag_309\n        /* \"#utility.yul\":3762:3769   */\n      dup9\n        /* \"#utility.yul\":3753:3759   */\n      dup3\n        /* \"#utility.yul\":3742:3751   */\n      dup10\n        /* \"#utility.yul\":3738:3760   */\n      add\n        /* \"#utility.yul\":3720:3770   */\n      tag_270\n      jump\t// in\n    tag_309:\n        /* \"#utility.yul\":3710:3770   */\n      swap2\n      pop\n        /* \"#utility.yul\":3664:3780   */\n      pop\n        /* \"#utility.yul\":2686:3787   */\n      swap3\n      swap6\n      pop\n      swap3\n      swap6\n      swap1\n      swap4\n      pop\n      jump\t// out\n        /* \"#utility.yul\":3793:4122   */\n    tag_39:\n        /* \"#utility.yul\":3852:3858   */\n      0x00\n        /* \"#utility.yul\":3901:3903   */\n      0x20\n        /* \"#utility.yul\":3889:3898   */\n      dup3\n        /* \"#utility.yul\":3880:3887   */\n      dup5\n        /* \"#utility.yul\":3876:3899   */\n      sub\n        /* \"#utility.yul\":3872:3904   */\n      slt\n        /* \"#utility.yul\":3869:3988   */\n      iszero\n      tag_311\n      jumpi\n        /* \"#utility.yul\":3907:3986   */\n      tag_312\n      tag_287\n      jump\t// in\n    tag_312:\n        /* \"#utility.yul\":3869:3988   */\n    tag_311:\n        /* \"#utility.yul\":4027:4028   */\n      0x00\n        /* \"#utility.yul\":4052:4105   */\n      tag_313\n        /* \"#utility.yul\":4097:4104   */\n      dup5\n        /* \"#utility.yul\":4088:4094   */\n      dup3\n        /* \"#utility.yul\":4077:4086   */\n      dup6\n        /* \"#utility.yul\":4073:4095   */\n      add\n        /* \"#utility.yul\":4052:4105   */\n      tag_280\n      jump\t// in\n    tag_313:\n        /* \"#utility.yul\":4042:4105   */\n      swap2\n      pop\n        /* \"#utility.yul\":3998:4115   */\n      pop\n        /* \"#utility.yul\":3793:4122   */\n      swap3\n      swap2\n      pop\n      pop\n      jump\t// out\n        /* \"#utility.yul\":4128:4270   */\n    tag_314:\n        /* \"#utility.yul\":4231:4263   */\n      tag_316\n        /* \"#utility.yul\":4257:4262   */\n      dup2\n        /* \"#utility.yul\":4231:4263   */\n      tag_317\n      jump\t// in\n    tag_316:\n        /* \"#utility.yul\":4226:4229   */\n      dup3\n        /* \"#utility.yul\":4219:4264   */\n      mstore\n        /* \"#utility.yul\":4128:4270   */\n      pop\n      pop\n      jump\t// out\n        /* \"#utility.yul\":4276:4394   */\n    tag_318:\n        /* \"#utility.yul\":4363:4387   */\n      tag_320\n        /* \"#utility.yul\":4381:4386   */\n      dup2\n        /* \"#utility.yul\":4363:4387   */\n      tag_321\n      jump\t// in\n    tag_320:\n        /* \"#utility.yul\":4358:4361   */\n      dup3\n        /* \"#utility.yul\":4351:4388   */\n      mstore\n        /* \"#utility.yul\":4276:4394   */\n      pop\n      pop\n      jump\t// out\n        /* \"#utility.yul\":4400:4509   */\n    tag_322:\n        /* \"#utility.yul\":4481:4502   */\n      tag_324\n        /* \"#utility.yul\":4496:4501   */\n      dup2\n        /* \"#utility.yul\":4481:4502   */\n      tag_325\n      jump\t// in\n    tag_324:\n        /* \"#utility.yul\":4476:4479   */\n      dup3\n        /* \"#utility.yul\":4469:4503   */\n      mstore\n        /* \"#utility.yul\":4400:4509   */\n      pop\n      pop\n      jump\t// out\n        /* \"#utility.yul\":4515:4879   */\n    tag_326:\n        /* \"#utility.yul\":4603:4606   */\n      0x00\n        /* \"#utility.yul\":4631:4670   */\n      tag_328\n        /* \"#utility.yul\":4664:4669   */\n      dup3\n        /* \"#utility.yul\":4631:4670   */\n      tag_329\n      jump\t// in\n    tag_328:\n        /* \"#utility.yul\":4686:4757   */\n      tag_330\n        /* \"#utility.yul\":4750:4756   */\n      dup2\n        /* \"#utility.yul\":4745:4748   */\n      dup6\n        /* \"#utility.yul\":4686:4757   */\n      tag_331\n      jump\t// in\n    tag_330:\n        /* \"#utility.yul\":4679:4757   */\n      swap4\n      pop\n        /* \"#utility.yul\":4766:4818   */\n      tag_332\n        /* \"#utility.yul\":4811:4817   */\n      dup2\n        /* \"#utility.yul\":4806:4809   */\n      dup6\n        /* \"#utility.yul\":4799:4803   */\n      0x20\n        /* \"#utility.yul\":4792:4797   */\n      dup7\n        /* \"#utility.yul\":4788:4804   */\n      add\n        /* \"#utility.yul\":4766:4818   */\n      tag_333\n      jump\t// in\n    tag_332:\n        /* \"#utility.yul\":4843:4872   */\n      tag_334\n        /* \"#utility.yul\":4865:4871   */\n      dup2\n        /* \"#utility.yul\":4843:4872   */\n      tag_335\n      jump\t// in\n    tag_334:\n        /* \"#utility.yul\":4838:4841   */\n      dup5\n        /* \"#utility.yul\":4834:4873   */\n      add\n        /* \"#utility.yul\":4827:4873   */\n      swap2\n      pop\n        /* \"#utility.yul\":4607:4879   */\n      pop\n        /* \"#utility.yul\":4515:4879   */\n      swap3\n      swap2\n      pop\n      pop\n      jump\t// out\n        /* \"#utility.yul\":4885:5251   */\n    tag_336:\n        /* \"#utility.yul\":5027:5030   */\n      0x00\n        /* \"#utility.yul\":5048:5115   */\n      tag_338\n        /* \"#utility.yul\":5112:5114   */\n      0x14\n        /* \"#utility.yul\":5107:5110   */\n      dup4\n        /* \"#utility.yul\":5048:5115   */\n      tag_331\n      jump\t// in\n    tag_338:\n        /* \"#utility.yul\":5041:5115   */\n      swap2\n      pop\n        /* \"#utility.yul\":5124:5217   */\n      tag_339\n        /* \"#utility.yul\":5213:5216   */\n      dup3\n        /* \"#utility.yul\":5124:5217   */\n      tag_340\n      jump\t// in\n    tag_339:\n        /* \"#utility.yul\":5242:5244   */\n      0x20\n        /* \"#utility.yul\":5237:5240   */\n      dup3\n        /* \"#utility.yul\":5233:5245   */\n      add\n        /* \"#utility.yul\":5226:5245   */\n      swap1\n      pop\n        /* \"#utility.yul\":4885:5251   */\n      swap2\n      swap1\n      pop\n      jump\t// out\n        /* \"#utility.yul\":5257:5623   */\n    tag_341:\n        /* \"#utility.yul\":5399:5402   */\n      0x00\n        /* \"#utility.yul\":5420:5487   */\n      tag_343\n        /* \"#utility.yul\":5484:5486   */\n      0x16\n        /* \"#utility.yul\":5479:5482   */\n      dup4\n        /* \"#utility.yul\":5420:5487   */\n      tag_331\n      jump\t// in\n    tag_343:\n        /* \"#utility.yul\":5413:5487   */\n      swap2\n      pop\n        /* \"#utility.yul\":5496:5589   */\n      tag_344\n        /* \"#utility.yul\":5585:5588   */\n      dup3\n        /* \"#utility.yul\":5496:5589   */\n      tag_345\n      jump\t// in\n    tag_344:\n        /* \"#utility.yul\":5614:5616   */\n      0x20\n        /* \"#utility.yul\":5609:5612   */\n      dup3\n        /* \"#utility.yul\":5605:5617   */\n      add\n        /* \"#utility.yul\":5598:5617   */\n      swap1\n      pop\n        /* \"#utility.yul\":5257:5623   */\n      swap2\n      swap1\n      pop\n      jump\t// out\n        /* \"#utility.yul\":5629:5995   */\n    tag_346:\n        /* \"#utility.yul\":5771:5774   */\n      0x00\n        /* \"#utility.yul\":5792:5859   */\n      tag_348\n        /* \"#utility.yul\":5856:5858   */\n      0x19\n        /* \"#utility.yul\":5851:5854   */\n      dup4\n        /* \"#utility.yul\":5792:5859   */\n      tag_331\n      jump\t// in\n    tag_348:\n        /* \"#utility.yul\":5785:5859   */\n      swap2\n      pop\n        /* \"#utility.yul\":5868:5961   */\n      tag_349\n        /* \"#utility.yul\":5957:5960   */\n      dup3\n        /* \"#utility.yul\":5868:5961   */\n      tag_350\n      jump\t// in\n    tag_349:\n        /* \"#utility.yul\":5986:5988   */\n      0x20\n        /* \"#utility.yul\":5981:5984   */\n      dup3\n        /* \"#utility.yul\":5977:5989   */\n      add\n        /* \"#utility.yul\":5970:5989   */\n      swap1\n      pop\n        /* \"#utility.yul\":5629:5995   */\n      swap2\n      swap1\n      pop\n      jump\t// out\n        /* \"#utility.yul\":6001:6367   */\n    tag_351:\n        /* \"#utility.yul\":6143:6146   */\n      0x00\n        /* \"#utility.yul\":6164:6231   */\n      tag_353\n        /* \"#utility.yul\":6228:6230   */\n      0x15\n        /* \"#utility.yul\":6223:6226   */\n      dup4\n        /* \"#utility.yul\":6164:6231   */\n      tag_331\n      jump\t// in\n    tag_353:\n        /* \"#utility.yul\":6157:6231   */\n      swap2\n      pop\n        /* \"#utility.yul\":6240:6333   */\n      tag_354\n        /* \"#utility.yul\":6329:6332   */\n      dup3\n        /* \"#utility.yul\":6240:6333   */\n      tag_355\n      jump\t// in\n    tag_354:\n        /* \"#utility.yul\":6358:6360   */\n      0x20\n        /* \"#utility.yul\":6353:6356   */\n      dup3\n        /* \"#utility.yul\":6349:6361   */\n      add\n        /* \"#utility.yul\":6342:6361   */\n      swap1\n      pop\n        /* \"#utility.yul\":6001:6367   */\n      swap2\n      swap1\n      pop\n      jump\t// out\n        /* \"#utility.yul\":6373:6739   */\n    tag_356:\n        /* \"#utility.yul\":6515:6518   */\n      0x00\n        /* \"#utility.yul\":6536:6603   */\n      tag_358\n        /* \"#utility.yul\":6600:6602   */\n      0x12\n        /* \"#utility.yul\":6595:6598   */\n      dup4\n        /* \"#utility.yul\":6536:6603   */\n      tag_331\n      jump\t// in\n    tag_358:\n        /* \"#utility.yul\":6529:6603   */\n      swap2\n      pop\n        /* \"#utility.yul\":6612:6705   */\n      tag_359\n        /* \"#utility.yul\":6701:6704   */\n      dup3\n        /* \"#utility.yul\":6612:6705   */\n      tag_360\n      jump\t// in\n    tag_359:\n        /* \"#utility.yul\":6730:6732   */\n      0x20\n        /* \"#utility.yul\":6725:6728   */\n      dup3\n        /* \"#utility.yul\":6721:6733   */\n      add\n        /* \"#utility.yul\":6714:6733   */\n      swap1\n      pop\n        /* \"#utility.yul\":6373:6739   */\n      swap2\n      swap1\n      pop\n      jump\t// out\n        /* \"#utility.yul\":6745:6863   */\n    tag_361:\n        /* \"#utility.yul\":6832:6856   */\n      tag_363\n        /* \"#utility.yul\":6850:6855   */\n      dup2\n        /* \"#utility.yul\":6832:6856   */\n      tag_364\n      jump\t// in\n    tag_363:\n        /* \"#utility.yul\":6827:6830   */\n      dup3\n        /* \"#utility.yul\":6820:6857   */\n      mstore\n        /* \"#utility.yul\":6745:6863   */\n      pop\n      pop\n      jump\t// out\n        /* \"#utility.yul\":6869:7091   */\n    tag_62:\n        /* \"#utility.yul\":6962:6966   */\n      0x00\n        /* \"#utility.yul\":7000:7002   */\n      0x20\n        /* \"#utility.yul\":6989:6998   */\n      dup3\n        /* \"#utility.yul\":6985:7003   */\n      add\n        /* \"#utility.yul\":6977:7003   */\n      swap1\n      pop\n        /* \"#utility.yul\":7013:7084   */\n      tag_366\n        /* \"#utility.yul\":7081:7082   */\n      0x00\n        /* \"#utility.yul\":7070:7079   */\n      dup4\n        /* \"#utility.yul\":7066:7083   */\n      add\n        /* \"#utility.yul\":7057:7063   */\n      dup5\n        /* \"#utility.yul\":7013:7084   */\n      tag_318\n      jump\t// in\n    tag_366:\n        /* \"#utility.yul\":6869:7091   */\n      swap3\n      swap2\n      pop\n      pop\n      jump\t// out\n        /* \"#utility.yul\":7097:7307   */\n    tag_24:\n        /* \"#utility.yul\":7184:7188   */\n      0x00\n        /* \"#utility.yul\":7222:7224   */\n      0x20\n        /* \"#utility.yul\":7211:7220   */\n      dup3\n        /* \"#utility.yul\":7207:7225   */\n      add\n        /* \"#utility.yul\":7199:7225   */\n      swap1\n      pop\n        /* \"#utility.yul\":7235:7300   */\n      tag_368\n        /* \"#utility.yul\":7297:7298   */\n      0x00\n        /* \"#utility.yul\":7286:7295   */\n      dup4\n        /* \"#utility.yul\":7282:7299   */\n      add\n        /* \"#utility.yul\":7273:7279   */\n      dup5\n        /* \"#utility.yul\":7235:7300   */\n      tag_322\n      jump\t// in\n    tag_368:\n        /* \"#utility.yul\":7097:7307   */\n      swap3\n      swap2\n      pop\n      pop\n      jump\t// out\n        /* \"#utility.yul\":7313:8088   */\n    tag_42:\n        /* \"#utility.yul\":7548:7552   */\n      0x00\n        /* \"#utility.yul\":7586:7589   */\n      0xa0\n        /* \"#utility.yul\":7575:7584   */\n      dup3\n        /* \"#utility.yul\":7571:7590   */\n      add\n        /* \"#utility.yul\":7563:7590   */\n      swap1\n      pop\n        /* \"#utility.yul\":7636:7645   */\n      dup2\n        /* \"#utility.yul\":7630:7634   */\n      dup2\n        /* \"#utility.yul\":7626:7646   */\n      sub\n        /* \"#utility.yul\":7622:7623   */\n      0x00\n        /* \"#utility.yul\":7611:7620   */\n      dup4\n        /* \"#utility.yul\":7607:7624   */\n      add\n        /* \"#utility.yul\":7600:7647   */\n      mstore\n        /* \"#utility.yul\":7664:7742   */\n      tag_370\n        /* \"#utility.yul\":7737:7741   */\n      dup2\n        /* \"#utility.yul\":7728:7734   */\n      dup9\n        /* \"#utility.yul\":7664:7742   */\n      tag_326\n      jump\t// in\n    tag_370:\n        /* \"#utility.yul\":7656:7742   */\n      swap1\n      pop\n        /* \"#utility.yul\":7752:7824   */\n      tag_371\n        /* \"#utility.yul\":7820:7822   */\n      0x20\n        /* \"#utility.yul\":7809:7818   */\n      dup4\n        /* \"#utility.yul\":7805:7823   */\n      add\n        /* \"#utility.yul\":7796:7802   */\n      dup8\n        /* \"#utility.yul\":7752:7824   */\n      tag_361\n      jump\t// in\n    tag_371:\n        /* \"#utility.yul\":7834:7906   */\n      tag_372\n        /* \"#utility.yul\":7902:7904   */\n      0x40\n        /* \"#utility.yul\":7891:7900   */\n      dup4\n        /* \"#utility.yul\":7887:7905   */\n      add\n        /* \"#utility.yul\":7878:7884   */\n      dup7\n        /* \"#utility.yul\":7834:7906   */\n      tag_361\n      jump\t// in\n    tag_372:\n        /* \"#utility.yul\":7916:8004   */\n      tag_373\n        /* \"#utility.yul\":8000:8002   */\n      0x60\n        /* \"#utility.yul\":7989:7998   */\n      dup4\n        /* \"#utility.yul\":7985:8003   */\n      add\n        /* \"#utility.yul\":7976:7982   */\n      dup6\n        /* \"#utility.yul\":7916:8004   */\n      tag_314\n      jump\t// in\n    tag_373:\n        /* \"#utility.yul\":8014:8081   */\n      tag_374\n        /* \"#utility.yul\":8076:8079   */\n      0x80\n        /* \"#utility.yul\":8065:8074   */\n      dup4\n        /* \"#utility.yul\":8061:8080   */\n      add\n        /* \"#utility.yul\":8052:8058   */\n      dup5\n        /* \"#utility.yul\":8014:8081   */\n      tag_322\n      jump\t// in\n    tag_374:\n        /* \"#utility.yul\":7313:8088   */\n      swap7\n      swap6\n      pop\n      pop\n      pop\n      pop\n      pop\n      pop\n      jump\t// out\n        /* \"#utility.yul\":8094:8513   */\n    tag_125:\n        /* \"#utility.yul\":8260:8264   */\n      0x00\n        /* \"#utility.yul\":8298:8300   */\n      0x20\n        /* \"#utility.yul\":8287:8296   */\n      dup3\n        /* \"#utility.yul\":8283:8301   */\n      add\n        /* \"#utility.yul\":8275:8301   */\n      swap1\n      pop\n        /* \"#utility.yul\":8347:8356   */\n      dup2\n        /* \"#utility.yul\":8341:8345   */\n      dup2\n        /* \"#utility.yul\":8337:8357   */\n      sub\n        /* \"#utility.yul\":8333:8334   */\n      0x00\n        /* \"#utility.yul\":8322:8331   */\n      dup4\n        /* \"#utility.yul\":8318:8335   */\n      add\n        /* \"#utility.yul\":8311:8358   */\n      mstore\n        /* \"#utility.yul\":8375:8506   */\n      tag_376\n        /* \"#utility.yul\":8501:8505   */\n      dup2\n        /* \"#utility.yul\":8375:8506   */\n      tag_336\n      jump\t// in\n    tag_376:\n        /* \"#utility.yul\":8367:8506   */\n      swap1\n      pop\n        /* \"#utility.yul\":8094:8513   */\n      swap2\n      swap1\n      pop\n      jump\t// out\n        /* \"#utility.yul\":8519:8938   */\n    tag_66:\n        /* \"#utility.yul\":8685:8689   */\n      0x00\n        /* \"#utility.yul\":8723:8725   */\n      0x20\n        /* \"#utility.yul\":8712:8721   */\n      dup3\n        /* \"#utility.yul\":8708:8726   */\n      add\n        /* \"#utility.yul\":8700:8726   */\n      swap1\n      pop\n        /* \"#utility.yul\":8772:8781   */\n      dup2\n        /* \"#utility.yul\":8766:8770   */\n      dup2\n        /* \"#utility.yul\":8762:8782   */\n      sub\n        /* \"#utility.yul\":8758:8759   */\n      0x00\n        /* \"#utility.yul\":8747:8756   */\n      dup4\n        /* \"#utility.yul\":8743:8760   */\n      add\n        /* \"#utility.yul\":8736:8783   */\n      mstore\n        /* \"#utility.yul\":8800:8931   */\n      tag_378\n        /* \"#utility.yul\":8926:8930   */\n      dup2\n        /* \"#utility.yul\":8800:8931   */\n      tag_341\n      jump\t// in\n    tag_378:\n        /* \"#utility.yul\":8792:8931   */\n      swap1\n      pop\n        /* \"#utility.yul\":8519:8938   */\n      swap2\n      swap1\n      pop\n      jump\t// out\n        /* \"#utility.yul\":8944:9363   */\n    tag_121:\n        /* \"#utility.yul\":9110:9114   */\n      0x00\n        /* \"#utility.yul\":9148:9150   */\n      0x20\n        /* \"#utility.yul\":9137:9146   */\n      dup3\n        /* \"#utility.yul\":9133:9151   */\n      add\n        /* \"#utility.yul\":9125:9151   */\n      swap1\n      pop\n        /* \"#utility.yul\":9197:9206   */\n      dup2\n        /* \"#utility.yul\":9191:9195   */\n      dup2\n        /* \"#utility.yul\":9187:9207   */\n      sub\n        /* \"#utility.yul\":9183:9184   */\n      0x00\n        /* \"#utility.yul\":9172:9181   */\n      dup4\n        /* \"#utility.yul\":9168:9185   */\n      add\n        /* \"#utility.yul\":9161:9208   */\n      mstore\n        /* \"#utility.yul\":9225:9356   */\n      tag_380\n        /* \"#utility.yul\":9351:9355   */\n      dup2\n        /* \"#utility.yul\":9225:9356   */\n      tag_346\n      jump\t// in\n    tag_380:\n        /* \"#utility.yul\":9217:9356   */\n      swap1\n      pop\n        /* \"#utility.yul\":8944:9363   */\n      swap2\n      swap1\n      pop\n      jump\t// out\n        /* \"#utility.yul\":9369:9788   */\n    tag_176:\n        /* \"#utility.yul\":9535:9539   */\n      0x00\n        /* \"#utility.yul\":9573:9575   */\n      0x20\n        /* \"#utility.yul\":9562:9571   */\n      dup3\n        /* \"#utility.yul\":9558:9576   */\n      add\n        /* \"#utility.yul\":9550:9576   */\n      swap1\n      pop\n        /* \"#utility.yul\":9622:9631   */\n      dup2\n        /* \"#utility.yul\":9616:9620   */\n      dup2\n        /* \"#utility.yul\":9612:9632   */\n      sub\n        /* \"#utility.yul\":9608:9609   */\n      0x00\n        /* \"#utility.yul\":9597:9606   */\n      dup4\n        /* \"#utility.yul\":9593:9610   */\n      add\n        /* \"#utility.yul\":9586:9633   */\n      mstore\n        /* \"#utility.yul\":9650:9781   */\n      tag_382\n        /* \"#utility.yul\":9776:9780   */\n      dup2\n        /* \"#utility.yul\":9650:9781   */\n      tag_351\n      jump\t// in\n    tag_382:\n        /* \"#utility.yul\":9642:9781   */\n      swap1\n      pop\n        /* \"#utility.yul\":9369:9788   */\n      swap2\n      swap1\n      pop\n      jump\t// out\n        /* \"#utility.yul\":9794:10213   */\n    tag_171:\n        /* \"#utility.yul\":9960:9964   */\n      0x00\n        /* \"#utility.yul\":9998:10000   */\n      0x20\n        /* \"#utility.yul\":9987:9996   */\n      dup3\n        /* \"#utility.yul\":9983:10001   */\n      add\n        /* \"#utility.yul\":9975:10001   */\n      swap1\n      pop\n        /* \"#utility.yul\":10047:10056   */\n      dup2\n        /* \"#utility.yul\":10041:10045   */\n      dup2\n        /* \"#utility.yul\":10037:10057   */\n      sub\n        /* \"#utility.yul\":10033:10034   */\n      0x00\n        /* \"#utility.yul\":10022:10031   */\n      dup4\n        /* \"#utility.yul\":10018:10035   */\n      add\n        /* \"#utility.yul\":10011:10058   */\n      mstore\n        /* \"#utility.yul\":10075:10206   */\n      tag_384\n        /* \"#utility.yul\":10201:10205   */\n      dup2\n        /* \"#utility.yul\":10075:10206   */\n      tag_356\n      jump\t// in\n    tag_384:\n        /* \"#utility.yul\":10067:10206   */\n      swap1\n      pop\n        /* \"#utility.yul\":9794:10213   */\n      swap2\n      swap1\n      pop\n      jump\t// out\n        /* \"#utility.yul\":10219:10348   */\n    tag_256:\n        /* \"#utility.yul\":10253:10259   */\n      0x00\n        /* \"#utility.yul\":10280:10300   */\n      tag_386\n      tag_387\n      jump\t// in\n    tag_386:\n        /* \"#utility.yul\":10270:10300   */\n      swap1\n      pop\n        /* \"#utility.yul\":10309:10342   */\n      tag_388\n        /* \"#utility.yul\":10337:10341   */\n      dup3\n        /* \"#utility.yul\":10329:10335   */\n      dup3\n        /* \"#utility.yul\":10309:10342   */\n      tag_389\n      jump\t// in\n    tag_388:\n        /* \"#utility.yul\":10219:10348   */\n      swap2\n      swap1\n      pop\n      jump\t// out\n        /* \"#utility.yul\":10354:10429   */\n    tag_387:\n        /* \"#utility.yul\":10387:10393   */\n      0x00\n        /* \"#utility.yul\":10420:10422   */\n      0x40\n        /* \"#utility.yul\":10414:10423   */\n      mload\n        /* \"#utility.yul\":10404:10423   */\n      swap1\n      pop\n        /* \"#utility.yul\":10354:10429   */\n      swap1\n      jump\t// out\n        /* \"#utility.yul\":10435:10743   */\n    tag_255:\n        /* \"#utility.yul\":10497:10501   */\n      0x00\n        /* \"#utility.yul\":10587:10605   */\n      0xffffffffffffffff\n        /* \"#utility.yul\":10579:10585   */\n      dup3\n        /* \"#utility.yul\":10576:10606   */\n      gt\n        /* \"#utility.yul\":10573:10629   */\n      iszero\n      tag_392\n      jumpi\n        /* \"#utility.yul\":10609:10627   */\n      tag_393\n      tag_394\n      jump\t// in\n    tag_393:\n        /* \"#utility.yul\":10573:10629   */\n    tag_392:\n        /* \"#utility.yul\":10647:10676   */\n      tag_395\n        /* \"#utility.yul\":10669:10675   */\n      dup3\n        /* \"#utility.yul\":10647:10676   */\n      tag_335\n      jump\t// in\n    tag_395:\n        /* \"#utility.yul\":10639:10676   */\n      swap1\n      pop\n        /* \"#utility.yul\":10731:10735   */\n      0x20\n        /* \"#utility.yul\":10725:10729   */\n      dup2\n        /* \"#utility.yul\":10721:10736   */\n      add\n        /* \"#utility.yul\":10713:10736   */\n      swap1\n      pop\n        /* \"#utility.yul\":10435:10743   */\n      swap2\n      swap1\n      pop\n      jump\t// out\n        /* \"#utility.yul\":10749:10848   */\n    tag_329:\n        /* \"#utility.yul\":10801:10807   */\n      0x00\n        /* \"#utility.yul\":10835:10840   */\n      dup2\n        /* \"#utility.yul\":10829:10841   */\n      mload\n        /* \"#utility.yul\":10819:10841   */\n      swap1\n      pop\n        /* \"#utility.yul\":10749:10848   */\n      swap2\n      swap1\n      pop\n      jump\t// out\n        /* \"#utility.yul\":10854:11023   */\n    tag_331:\n        /* \"#utility.yul\":10938:10949   */\n      0x00\n        /* \"#utility.yul\":10972:10978   */\n      dup3\n        /* \"#utility.yul\":10967:10970   */\n      dup3\n        /* \"#utility.yul\":10960:10979   */\n      mstore\n        /* \"#utility.yul\":11012:11016   */\n      0x20\n        /* \"#utility.yul\":11007:11010   */\n      dup3\n        /* \"#utility.yul\":11003:11017   */\n      add\n        /* \"#utility.yul\":10988:11017   */\n      swap1\n      pop\n        /* \"#utility.yul\":10854:11023   */\n      swap3\n      swap2\n      pop\n      pop\n      jump\t// out\n        /* \"#utility.yul\":11029:11334   */\n    tag_168:\n        /* \"#utility.yul\":11069:11072   */\n      0x00\n        /* \"#utility.yul\":11088:11108   */\n      tag_399\n        /* \"#utility.yul\":11106:11107   */\n      dup3\n        /* \"#utility.yul\":11088:11108   */\n      tag_364\n      jump\t// in\n    tag_399:\n        /* \"#utility.yul\":11083:11108   */\n      swap2\n      pop\n        /* \"#utility.yul\":11122:11142   */\n      tag_400\n        /* \"#utility.yul\":11140:11141   */\n      dup4\n        /* \"#utility.yul\":11122:11142   */\n      tag_364\n      jump\t// in\n    tag_400:\n        /* \"#utility.yul\":11117:11142   */\n      swap3\n      pop\n        /* \"#utility.yul\":11276:11277   */\n      dup3\n        /* \"#utility.yul\":11208:11274   */\n      0xffffffffffffffffffffffffffffffffffffffffffffffffffffffffffffffff\n        /* \"#utility.yul\":11204:11278   */\n      sub\n        /* \"#utility.yul\":11201:11202   */\n      dup3\n        /* \"#utility.yul\":11198:11279   */\n      gt\n        /* \"#utility.yul\":11195:11302   */\n      iszero\n      tag_401\n      jumpi\n        /* \"#utility.yul\":11282:11300   */\n      tag_402\n      tag_403\n      jump\t// in\n    tag_402:\n        /* \"#utility.yul\":11195:11302   */\n    tag_401:\n        /* \"#utility.yul\":11326:11327   */\n      dup3\n        /* \"#utility.yul\":11323:11324   */\n      dup3\n        /* \"#utility.yul\":11319:11328   */\n      add\n        /* \"#utility.yul\":11312:11328   */\n      swap1\n      pop\n        /* \"#utility.yul\":11029:11334   */\n      swap3\n      swap2\n      pop\n      pop\n      jump\t// out\n        /* \"#utility.yul\":11340:11531   */\n    tag_145:\n        /* \"#utility.yul\":11380:11384   */\n      0x00\n        /* \"#utility.yul\":11400:11420   */\n      tag_405\n        /* \"#utility.yul\":11418:11419   */\n      dup3\n        /* \"#utility.yul\":11400:11420   */\n      tag_364\n      jump\t// in\n    tag_405:\n        /* \"#utility.yul\":11395:11420   */\n      swap2\n      pop\n        /* \"#utility.yul\":11434:11454   */\n      tag_406\n        /* \"#utility.yul\":11452:11453   */\n      dup4\n        /* \"#utility.yul\":11434:11454   */\n      tag_364\n      jump\t// in\n    tag_406:\n        /* \"#utility.yul\":11429:11454   */\n      swap3\n      pop\n        /* \"#utility.yul\":11473:11474   */\n      dup3\n        /* \"#utility.yul\":11470:11471   */\n      dup3\n        /* \"#utility.yul\":11467:11475   */\n      lt\n        /* \"#utility.yul\":11464:11498   */\n      iszero\n      tag_407\n      jumpi\n        /* \"#utility.yul\":11478:11496   */\n      tag_408\n      tag_403\n      jump\t// in\n    tag_408:\n        /* \"#utility.yul\":11464:11498   */\n    tag_407:\n        /* \"#utility.yul\":11523:11524   */\n      dup3\n        /* \"#utility.yul\":11520:11521   */\n      dup3\n        /* \"#utility.yul\":11516:11525   */\n      sub\n        /* \"#utility.yul\":11508:11525   */\n      swap1\n      pop\n        /* \"#utility.yul\":11340:11531   */\n      swap3\n      swap2\n      pop\n      pop\n      jump\t// out\n        /* \"#utility.yul\":11537:11633   */\n    tag_321:\n        /* \"#utility.yul\":11574:11581   */\n      0x00\n        /* \"#utility.yul\":11603:11627   */\n      tag_410\n        /* \"#utility.yul\":11621:11626   */\n      dup3\n        /* \"#utility.yul\":11603:11627   */\n      tag_411\n      jump\t// in\n    tag_410:\n        /* \"#utility.yul\":11592:11627   */\n      swap1\n      pop\n        /* \"#utility.yul\":11537:11633   */\n      swap2\n      swap1\n      pop\n      jump\t// out\n        /* \"#utility.yul\":11639:11743   */\n    tag_317:\n        /* \"#utility.yul\":11684:11691   */\n      0x00\n        /* \"#utility.yul\":11713:11737   */\n      tag_413\n        /* \"#utility.yul\":11731:11736   */\n      dup3\n        /* \"#utility.yul\":11713:11737   */\n      tag_411\n      jump\t// in\n    tag_413:\n        /* \"#utility.yul\":11702:11737   */\n      swap1\n      pop\n        /* \"#utility.yul\":11639:11743   */\n      swap2\n      swap1\n      pop\n      jump\t// out\n        /* \"#utility.yul\":11749:11839   */\n    tag_325:\n        /* \"#utility.yul\":11783:11790   */\n      0x00\n        /* \"#utility.yul\":11826:11831   */\n      dup2\n        /* \"#utility.yul\":11819:11832   */\n      iszero\n        /* \"#utility.yul\":11812:11833   */\n      iszero\n        /* \"#utility.yul\":11801:11833   */\n      swap1\n      pop\n        /* \"#utility.yul\":11749:11839   */\n      swap2\n      swap1\n      pop\n      jump\t// out\n        /* \"#utility.yul\":11845:11971   */\n    tag_411:\n        /* \"#utility.yul\":11882:11889   */\n      0x00\n        /* \"#utility.yul\":11922:11964   */\n      0xffffffffffffffffffffffffffffffffffffffff\n        /* \"#utility.yul\":11915:11920   */\n      dup3\n        /* \"#utility.yul\":11911:11965   */\n      and\n        /* \"#utility.yul\":11900:11965   */\n      swap1\n      pop\n        /* \"#utility.yul\":11845:11971   */\n      swap2\n      swap1\n      pop\n      jump\t// out\n        /* \"#utility.yul\":11977:12054   */\n    tag_364:\n        /* \"#utility.yul\":12014:12021   */\n      0x00\n        /* \"#utility.yul\":12043:12048   */\n      dup2\n        /* \"#utility.yul\":12032:12048   */\n      swap1\n      pop\n        /* \"#utility.yul\":11977:12054   */\n      swap2\n      swap1\n      pop\n      jump\t// out\n        /* \"#utility.yul\":12060:12214   */\n    tag_261:\n        /* \"#utility.yul\":12144:12150   */\n      dup3\n        /* \"#utility.yul\":12139:12142   */\n      dup2\n        /* \"#utility.yul\":12134:12137   */\n      dup4\n        /* \"#utility.yul\":12121:12151   */\n      calldatacopy\n        /* \"#utility.yul\":12206:12207   */\n      0x00\n        /* \"#utility.yul\":12197:12203   */\n      dup4\n        /* \"#utility.yul\":12192:12195   */\n      dup4\n        /* \"#utility.yul\":12188:12204   */\n      add\n        /* \"#utility.yul\":12181:12208   */\n      mstore\n        /* \"#utility.yul\":12060:12214   */\n      pop\n      pop\n      pop\n      jump\t// out\n        /* \"#utility.yul\":12220:12527   */\n    tag_333:\n        /* \"#utility.yul\":12288:12289   */\n      0x00\n        /* \"#utility.yul\":12298:12411   */\n    tag_419:\n        /* \"#utility.yul\":12312:12318   */\n      dup4\n        /* \"#utility.yul\":12309:12310   */\n      dup2\n        /* \"#utility.yul\":12306:12319   */\n      lt\n        /* \"#utility.yul\":12298:12411   */\n      iszero\n      tag_421\n      jumpi\n        /* \"#utility.yul\":12397:12398   */\n      dup1\n        /* \"#utility.yul\":12392:12395   */\n      dup3\n        /* \"#utility.yul\":12388:12399   */\n      add\n        /* \"#utility.yul\":12382:12400   */\n      mload\n        /* \"#utility.yul\":12378:12379   */\n      dup2\n        /* \"#utility.yul\":12373:12376   */\n      dup5\n        /* \"#utility.yul\":12369:12380   */\n      add\n        /* \"#utility.yul\":12362:12401   */\n      mstore\n        /* \"#utility.yul\":12334:12336   */\n      0x20\n        /* \"#utility.yul\":12331:12332   */\n      dup2\n        /* \"#utility.yul\":12327:12337   */\n      add\n        /* \"#utility.yul\":12322:12337   */\n      swap1\n      pop\n        /* \"#utility.yul\":12298:12411   */\n      jump(tag_419)\n    tag_421:\n        /* \"#utility.yul\":12429:12435   */\n      dup4\n        /* \"#utility.yul\":12426:12427   */\n      dup2\n        /* \"#utility.yul\":12423:12436   */\n      gt\n        /* \"#utility.yul\":12420:12521   */\n      iszero\n      tag_422\n      jumpi\n        /* \"#utility.yul\":12509:12510   */\n      0x00\n        /* \"#utility.yul\":12500:12506   */\n      dup5\n        /* \"#utility.yul\":12495:12498   */\n      dup5\n        /* \"#utility.yul\":12491:12507   */\n      add\n        /* \"#utility.yul\":12484:12511   */\n      mstore\n        /* \"#utility.yul\":12420:12521   */\n    tag_422:\n        /* \"#utility.yul\":12269:12527   */\n      pop\n        /* \"#utility.yul\":12220:12527   */\n      pop\n      pop\n      pop\n      jump\t// out\n        /* \"#utility.yul\":12533:12853   */\n    tag_153:\n        /* \"#utility.yul\":12577:12583   */\n      0x00\n        /* \"#utility.yul\":12614:12615   */\n      0x02\n        /* \"#utility.yul\":12608:12612   */\n      dup3\n        /* \"#utility.yul\":12604:12616   */\n      div\n        /* \"#utility.yul\":12594:12616   */\n      swap1\n      pop\n        /* \"#utility.yul\":12661:12662   */\n      0x01\n        /* \"#utility.yul\":12655:12659   */\n      dup3\n        /* \"#utility.yul\":12651:12663   */\n      and\n        /* \"#utility.yul\":12682:12700   */\n      dup1\n        /* \"#utility.yul\":12672:12753   */\n      tag_424\n      jumpi\n        /* \"#utility.yul\":12738:12742   */\n      0x7f\n        /* \"#utility.yul\":12730:12736   */\n      dup3\n        /* \"#utility.yul\":12726:12743   */\n      and\n        /* \"#utility.yul\":12716:12743   */\n      swap2\n      pop\n        /* \"#utility.yul\":12672:12753   */\n    tag_424:\n        /* \"#utility.yul\":12800:12802   */\n      0x20\n        /* \"#utility.yul\":12792:12798   */\n      dup3\n        /* \"#utility.yul\":12789:12803   */\n      lt\n        /* \"#utility.yul\":12769:12787   */\n      dup2\n        /* \"#utility.yul\":12766:12804   */\n      eq\n        /* \"#utility.yul\":12763:12847   */\n      iszero\n      tag_425\n      jumpi\n        /* \"#utility.yul\":12819:12837   */\n      tag_426\n      tag_427\n      jump\t// in\n    tag_426:\n        /* \"#utility.yul\":12763:12847   */\n    tag_425:\n        /* \"#utility.yul\":12584:12853   */\n      pop\n        /* \"#utility.yul\":12533:12853   */\n      swap2\n      swap1\n      pop\n      jump\t// out\n        /* \"#utility.yul\":12859:13140   */\n    tag_389:\n        /* \"#utility.yul\":12942:12969   */\n      tag_429\n        /* \"#utility.yul\":12964:12968   */\n      dup3\n        /* \"#utility.yul\":12942:12969   */\n      tag_335\n      jump\t// in\n    tag_429:\n        /* \"#utility.yul\":12934:12940   */\n      dup2\n        /* \"#utility.yul\":12930:12970   */\n      add\n        /* \"#utility.yul\":13072:13078   */\n      dup2\n        /* \"#utility.yul\":13060:13070   */\n      dup2\n        /* \"#utility.yul\":13057:13079   */\n      lt\n        /* \"#utility.yul\":13036:13054   */\n      0xffffffffffffffff\n        /* \"#utility.yul\":13024:13034   */\n      dup3\n        /* \"#utility.yul\":13021:13055   */\n      gt\n        /* \"#utility.yul\":13018:13080   */\n      or\n        /* \"#utility.yul\":13015:13103   */\n      iszero\n      tag_430\n      jumpi\n        /* \"#utility.yul\":13083:13101   */\n      tag_431\n      tag_394\n      jump\t// in\n    tag_431:\n        /* \"#utility.yul\":13015:13103   */\n    tag_430:\n        /* \"#utility.yul\":13123:13133   */\n      dup1\n        /* \"#utility.yul\":13119:13121   */\n      0x40\n        /* \"#utility.yul\":13112:13134   */\n      mstore\n        /* \"#utility.yul\":12902:13140   */\n      pop\n        /* \"#utility.yul\":12859:13140   */\n      pop\n      pop\n      jump\t// out\n        /* \"#utility.yul\":13146:13379   */\n    tag_79:\n        /* \"#utility.yul\":13185:13188   */\n      0x00\n        /* \"#utility.yul\":13208:13232   */\n      tag_433\n        /* \"#utility.yul\":13226:13231   */\n      dup3\n        /* \"#utility.yul\":13208:13232   */\n      tag_364\n      jump\t// in\n    tag_433:\n        /* \"#utility.yul\":13199:13232   */\n      swap2\n      pop\n        /* \"#utility.yul\":13254:13320   */\n      0xffffffffffffffffffffffffffffffffffffffffffffffffffffffffffffffff\n        /* \"#utility.yul\":13247:13252   */\n      dup3\n        /* \"#utility.yul\":13244:13321   */\n      eq\n        /* \"#utility.yul\":13241:13344   */\n      iszero\n      tag_434\n      jumpi\n        /* \"#utility.yul\":13324:13342   */\n      tag_435\n      tag_403\n      jump\t// in\n    tag_435:\n        /* \"#utility.yul\":13241:13344   */\n    tag_434:\n        /* \"#utility.yul\":13371:13372   */\n      0x01\n        /* \"#utility.yul\":13364:13369   */\n      dup3\n        /* \"#utility.yul\":13360:13373   */\n      add\n        /* \"#utility.yul\":13353:13373   */\n      swap1\n      pop\n        /* \"#utility.yul\":13146:13379   */\n      swap2\n      swap1\n      pop\n      jump\t// out\n        /* \"#utility.yul\":13385:13565   */\n    tag_403:\n        /* \"#utility.yul\":13433:13510   */\n      0x4e487b7100000000000000000000000000000000000000000000000000000000\n        /* \"#utility.yul\":13430:13431   */\n      0x00\n        /* \"#utility.yul\":13423:13511   */\n      mstore\n        /* \"#utility.yul\":13530:13534   */\n      0x11\n        /* \"#utility.yul\":13527:13528   */\n      0x04\n        /* \"#utility.yul\":13520:13535   */\n      mstore\n        /* \"#utility.yul\":13554:13558   */\n      0x24\n        /* \"#utility.yul\":13551:13552   */\n      0x00\n        /* \"#utility.yul\":13544:13559   */\n      revert\n        /* \"#utility.yul\":13571:13751   */\n    tag_427:\n        /* \"#utility.yul\":13619:13696   */\n      0x4e487b7100000000000000000000000000000000000000000000000000000000\n        /* \"#utility.yul\":13616:13617   */\n      0x00\n        /* \"#utility.yul\":13609:13697   */\n      mstore\n        /* \"#utility.yul\":13716:13720   */\n      0x22\n        /* \"#utility.yul\":13713:13714   */\n      0x04\n        /* \"#utility.yul\":13706:13721   */\n      mstore\n        /* \"#utility.yul\":13740:13744   */\n      0x24\n        /* \"#utility.yul\":13737:13738   */\n      0x00\n        /* \"#utility.yul\":13730:13745   */\n      revert\n        /* \"#utility.yul\":13757:13937   */\n    tag_163:\n        /* \"#utility.yul\":13805:13882   */\n      0x4e487b7100000000000000000000000000000000000000000000000000000000\n        /* \"#utility.yul\":13802:13803   */\n      0x00\n        /* \"#utility.yul\":13795:13883   */\n      mstore\n        /* \"#utility.yul\":13902:13906   */\n      0x31\n        /* \"#utility.yul\":13899:13900   */\n      0x04\n        /* \"#utility.yul\":13892:13907   */\n      mstore\n        /* \"#utility.yul\":13926:13930   */\n      0x24\n        /* \"#utility.yul\":13923:13924   */\n      0x00\n        /* \"#utility.yul\":13916:13931   */\n      revert\n        /* \"#utility.yul\":13943:14123   */\n    tag_73:\n        /* \"#utility.yul\":13991:14068   */\n      0x4e487b7100000000000000000000000000000000000000000000000000000000\n        /* \"#utility.yul\":13988:13989   */\n      0x00\n        /* \"#utility.yul\":13981:14069   */\n      mstore\n        /* \"#utility.yul\":14088:14092   */\n      0x32\n        /* \"#utility.yul\":14085:14086   */\n      0x04\n        /* \"#utility.yul\":14078:14093   */\n      mstore\n        /* \"#utility.yul\":14112:14116   */\n      0x24\n        /* \"#utility.yul\":14109:14110   */\n      0x00\n        /* \"#utility.yul\":14102:14117   */\n      revert\n        /* \"#utility.yul\":14129:14309   */\n    tag_394:\n        /* \"#utility.yul\":14177:14254   */\n      0x4e487b7100000000000000000000000000000000000000000000000000000000\n        /* \"#utility.yul\":14174:14175   */\n      0x00\n        /* \"#utility.yul\":14167:14255   */\n      mstore\n        /* \"#utility.yul\":14274:14278   */\n      0x41\n        /* \"#utility.yul\":14271:14272   */\n      0x04\n        /* \"#utility.yul\":14264:14279   */\n      mstore\n        /* \"#utility.yul\":14298:14302   */\n      0x24\n        /* \"#utility.yul\":14295:14296   */\n      0x00\n        /* \"#utility.yul\":14288:14303   */\n      revert\n        /* \"#utility.yul\":14315:14432   */\n    tag_278:\n        /* \"#utility.yul\":14424:14425   */\n      0x00\n        /* \"#utility.yul\":14421:14422   */\n      dup1\n        /* \"#utility.yul\":14414:14426   */\n      revert\n        /* \"#utility.yul\":14438:14555   */\n    tag_259:\n        /* \"#utility.yul\":14547:14548   */\n      0x00\n        /* \"#utility.yul\":14544:14545   */\n      dup1\n        /* \"#utility.yul\":14537:14549   */\n      revert\n        /* \"#utility.yul\":14561:14678   */\n    tag_304:\n        /* \"#utility.yul\":14670:14671   */\n      0x00\n        /* \"#utility.yul\":14667:14668   */\n      dup1\n        /* \"#utility.yul\":14660:14672   */\n      revert\n        /* \"#utility.yul\":14684:14801   */\n    tag_287:\n        /* \"#utility.yul\":14793:14794   */\n      0x00\n        /* \"#utility.yul\":14790:14791   */\n      dup1\n        /* \"#utility.yul\":14783:14795   */\n      revert\n        /* \"#utility.yul\":14807:14909   */\n    tag_335:\n        /* \"#utility.yul\":14848:14854   */\n      0x00\n        /* \"#utility.yul\":14899:14901   */\n      0x1f\n        /* \"#utility.yul\":14895:14902   */\n      not\n        /* \"#utility.yul\":14890:14892   */\n      0x1f\n        /* \"#utility.yul\":14883:14888   */\n      dup4\n        /* \"#utility.yul\":14879:14893   */\n      add\n        /* \"#utility.yul\":14875:14903   */\n      and\n        /* \"#utility.yul\":14865:14903   */\n      swap1\n      pop\n        /* \"#utility.yul\":14807:14909   */\n      swap2\n      swap1\n      pop\n      jump\t// out\n        /* \"#utility.yul\":14915:15085   */\n    tag_340:\n        /* \"#utility.yul\":15055:15077   */\n      0x4661696c656420746f2073656e64204554484552000000000000000000000000\n        /* \"#utility.yul\":15051:15052   */\n      0x00\n        /* \"#utility.yul\":15043:15049   */\n      dup3\n        /* \"#utility.yul\":15039:15053   */\n      add\n        /* \"#utility.yul\":15032:15078   */\n      mstore\n        /* \"#utility.yul\":14915:15085   */\n      pop\n      jump\t// out\n        /* \"#utility.yul\":15091:15263   */\n    tag_345:\n        /* \"#utility.yul\":15231:15255   */\n      0x796f7520646f6e27742068617665207269676874732000000000000000000000\n        /* \"#utility.yul\":15227:15228   */\n      0x00\n        /* \"#utility.yul\":15219:15225   */\n      dup3\n        /* \"#utility.yul\":15215:15229   */\n      add\n        /* \"#utility.yul\":15208:15256   */\n      mstore\n        /* \"#utility.yul\":15091:15263   */\n      pop\n      jump\t// out\n        /* \"#utility.yul\":15269:15444   */\n    tag_350:\n        /* \"#utility.yul\":15409:15436   */\n      0x53616c61727920616c7265616479206973206372656974656400000000000000\n        /* \"#utility.yul\":15405:15406   */\n      0x00\n        /* \"#utility.yul\":15397:15403   */\n      dup3\n        /* \"#utility.yul\":15393:15407   */\n      add\n        /* \"#utility.yul\":15386:15437   */\n      mstore\n        /* \"#utility.yul\":15269:15444   */\n      pop\n      jump\t// out\n        /* \"#utility.yul\":15450:15621   */\n    tag_355:\n        /* \"#utility.yul\":15590:15613   */\n      0x7573657220616c72656164792072656769737465720000000000000000000000\n        /* \"#utility.yul\":15586:15587   */\n      0x00\n        /* \"#utility.yul\":15578:15584   */\n      dup3\n        /* \"#utility.yul\":15574:15588   */\n      add\n        /* \"#utility.yul\":15567:15614   */\n      mstore\n        /* \"#utility.yul\":15450:15621   */\n      pop\n      jump\t// out\n        /* \"#utility.yul\":15627:15795   */\n    tag_360:\n        /* \"#utility.yul\":15767:15787   */\n      0x656d706c6f796565206e6f7420666f756e640000000000000000000000000000\n        /* \"#utility.yul\":15763:15764   */\n      0x00\n        /* \"#utility.yul\":15755:15761   */\n      dup3\n        /* \"#utility.yul\":15751:15765   */\n      add\n        /* \"#utility.yul\":15744:15788   */\n      mstore\n        /* \"#utility.yul\":15627:15795   */\n      pop\n      jump\t// out\n        /* \"#utility.yul\":15801:15923   */\n    tag_265:\n        /* \"#utility.yul\":15874:15898   */\n      tag_452\n        /* \"#utility.yul\":15892:15897   */\n      dup2\n        /* \"#utility.yul\":15874:15898   */\n      tag_321\n      jump\t// in\n    tag_452:\n        /* \"#utility.yul\":15867:15872   */\n      dup2\n        /* \"#utility.yul\":15864:15899   */\n      eq\n        /* \"#utility.yul\":15854:15917   */\n      tag_453\n      jumpi\n        /* \"#utility.yul\":15913:15914   */\n      0x00\n        /* \"#utility.yul\":15910:15911   */\n      dup1\n        /* \"#utility.yul\":15903:15915   */\n      revert\n        /* \"#utility.yul\":15854:15917   */\n    tag_453:\n        /* \"#utility.yul\":15801:15923   */\n      pop\n      jump\t// out\n        /* \"#utility.yul\":15929:16067   */\n    tag_269:\n        /* \"#utility.yul\":16010:16042   */\n      tag_455\n        /* \"#utility.yul\":16036:16041   */\n      dup2\n        /* \"#utility.yul\":16010:16042   */\n      tag_317\n      jump\t// in\n    tag_455:\n        /* \"#utility.yul\":16003:16008   */\n      dup2\n        /* \"#utility.yul\":16000:16043   */\n      eq\n        /* \"#utility.yul\":15990:16061   */\n      tag_456\n      jumpi\n        /* \"#utility.yul\":16057:16058   */\n      0x00\n        /* \"#utility.yul\":16054:16055   */\n      dup1\n        /* \"#utility.yul\":16047:16059   */\n      revert\n        /* \"#utility.yul\":15990:16061   */\n    tag_456:\n        /* \"#utility.yul\":15929:16067   */\n      pop\n      jump\t// out\n        /* \"#utility.yul\":16073:16189   */\n    tag_273:\n        /* \"#utility.yul\":16143:16164   */\n      tag_458\n        /* \"#utility.yul\":16158:16163   */\n      dup2\n        /* \"#utility.yul\":16143:16164   */\n      tag_325\n      jump\t// in\n    tag_458:\n        /* \"#utility.yul\":16136:16141   */\n      dup2\n        /* \"#utility.yul\":16133:16165   */\n      eq\n        /* \"#utility.yul\":16123:16183   */\n      tag_459\n      jumpi\n        /* \"#utility.yul\":16179:16180   */\n      0x00\n        /* \"#utility.yul\":16176:16177   */\n      dup1\n        /* \"#utility.yul\":16169:16181   */\n      revert\n        /* \"#utility.yul\":16123:16183   */\n    tag_459:\n        /* \"#utility.yul\":16073:16189   */\n      pop\n      jump\t// out\n        /* \"#utility.yul\":16195:16317   */\n    tag_283:\n        /* \"#utility.yul\":16268:16292   */\n      tag_461\n        /* \"#utility.yul\":16286:16291   */\n      dup2\n        /* \"#utility.yul\":16268:16292   */\n      tag_364\n      jump\t// in\n    tag_461:\n        /* \"#utility.yul\":16261:16266   */\n      dup2\n        /* \"#utility.yul\":16258:16293   */\n      eq\n        /* \"#utility.yul\":16248:16311   */\n      tag_462\n      jumpi\n        /* \"#utility.yul\":16307:16308   */\n      0x00\n        /* \"#utility.yul\":16304:16305   */\n      dup1\n        /* \"#utility.yul\":16297:16309   */\n      revert\n        /* \"#utility.yul\":16248:16311   */\n    tag_462:\n        /* \"#utility.yul\":16195:16317   */\n      pop\n      jump\t// out\n\n    auxdata: 0xa26469706673582212207b34f2a2cdefaba1bb20ac39126fee8e2dbf1a06f6c403a300cf308c4d5c363a64736f6c63430008070033\n}\n",
				"bytecode": {
					"linkReferences": {},
					"object": "608060405266470de4df820000600155666a94d74f43000060025534801561002657600080fd5b50336000806101000a81548173ffffffffffffffffffffffffffffffffffffffff021916908373ffffffffffffffffffffffffffffffffffffffff160217905550611f7c806100766000396000f3fe6080604052600436106100915760003560e01c8063b58f421c11610059578063b58f421c1461015a578063ba0ce2bb1461019b578063d17106b7146101d8578063e66a458e14610219578063f851a4401461024257610091565b8063026f119a1461009657806304b642a4146100ad57806318c7a051146100c457806352d6abdc146100f45780637a7e436914610131575b600080fd5b3480156100a257600080fd5b506100ab61026d565b005b3480156100b957600080fd5b506100c2610391565b005b6100de60048036038101906100d99190611731565b610600565b6040516100eb91906119b4565b60405180910390f35b34801561010057600080fd5b5061011b60048036038101906101169190611704565b6107a4565b60405161012891906119b4565b60405180910390f35b34801561013d57600080fd5b50610158600480360381019061015391906117b1565b610c67565b005b34801561016657600080fd5b50610181600480360381019061017c9190611848565b610f03565b6040516101929594939291906119cf565b60405180910390f35b3480156101a757600080fd5b506101c260048036038101906101bd9190611704565b610ffe565b6040516101cf91906119b4565b60405180910390f35b3480156101e457600080fd5b506101ff60048036038101906101fa9190611704565b6111c7565b6040516102109594939291906119cf565b60405180910390f35b34801561022557600080fd5b50610240600480360381019061023b9190611771565b6112b2565b005b34801561024e57600080fd5b50610257611465565b6040516102649190611999565b60405180910390f35b60008054906101000a900473ffffffffffffffffffffffffffffffffffffffff1673ffffffffffffffffffffffffffffffffffffffff163373ffffffffffffffffffffffffffffffffffffffff16146102fb576040517f08c379a00000000000000000000000000000000000000000000000000000000081526004016102f290611a49565b60405180910390fd5b60005b60048054905081101561038e576004818154811061031f5761031e611d9a565b5b906000526020600020906004020160030160149054906101000a900460ff16156004828154811061035357610352611d9a565b5b906000526020600020906004020160030160146101000a81548160ff021916908315150217905550808061038690611cc4565b9150506102fe565b50565b60008054906101000a900473ffffffffffffffffffffffffffffffffffffffff1673ffffffffffffffffffffffffffffffffffffffff163373ffffffffffffffffffffffffffffffffffffffff161461041f576040517f08c379a000000000000000000000000000000000000000000000000000000000815260040161041690611a49565b60405180910390fd5b60005b6004805490508110156105fd576004818154811061044357610442611d9a565b5b906000526020600020906004020160030160149054906101000a900460ff166105ea5760016004828154811061047c5761047b611d9a565b5b9060005260206000209060040201600101541415610529576104e5600482815481106104ab576104aa611d9a565b5b906000526020600020906004020160030160009054906101000a900473ffffffffffffffffffffffffffffffffffffffff16600154610600565b506001600482815481106104fc576104fb611d9a565b5b906000526020600020906004020160030160146101000a81548160ff0219169083151502179055506105e9565b60026004828154811061053f5761053e611d9a565b5b90600052602060002090600402016001015414156105e8576105a86004828154811061056e5761056d611d9a565b5b906000526020600020906004020160030160009054906101000a900473ffffffffffffffffffffffffffffffffffffffff16600254610600565b506001600482815481106105bf576105be611d9a565b5b906000526020600020906004020160030160146101000a81548160ff0219169083151502179055505b5b5b80806105f590611cc4565b915050610422565b50565b60008060009054906101000a900473ffffffffffffffffffffffffffffffffffffffff1673ffffffffffffffffffffffffffffffffffffffff163373ffffffffffffffffffffffffffffffffffffffff1614610691576040517f08c379a000000000000000000000000000000000000000000000000000000000815260040161068890611a49565b60405180910390fd5b600360008473ffffffffffffffffffffffffffffffffffffffff1673ffffffffffffffffffffffffffffffffffffffff16815260200190815260200160002060030160149054906101000a900460ff1615610721576040517f08c379a000000000000000000000000000000000000000000000000000000000815260040161071890611a69565b60405180910390fd5b60008373ffffffffffffffffffffffffffffffffffffffff166108fc849081150290604051600060405180830381858888f1935050505090508061079a576040517f08c379a000000000000000000000000000000000000000000000000000000000815260040161079190611a29565b60405180910390fd5b8091505092915050565b60008060009054906101000a900473ffffffffffffffffffffffffffffffffffffffff1673ffffffffffffffffffffffffffffffffffffffff163373ffffffffffffffffffffffffffffffffffffffff1614610835576040517f08c379a000000000000000000000000000000000000000000000000000000000815260040161082c90611a49565b60405180910390fd5b600061083f611489565b6000600480549050811015610c5e578473ffffffffffffffffffffffffffffffffffffffff166004828154811061087957610878611d9a565b5b906000526020600020906004020160030160009054906101000a900473ffffffffffffffffffffffffffffffffffffffff1673ffffffffffffffffffffffffffffffffffffffff161415610bfb5781600482815481106108dc576108db611d9a565b5b906000526020600020906004020160008201518160000190805190602001906109069291906114d0565b50602082015181600101556040820151816002015560608201518160030160006101000a81548173ffffffffffffffffffffffffffffffffffffffff021916908373ffffffffffffffffffffffffffffffffffffffff16021790555060808201518160030160146101000a81548160ff021916908315150217905550905050600460016004805490506109999190611b91565b815481106109aa576109a9611d9a565b5b9060005260206000209060040201600482815481106109cc576109cb611d9a565b5b906000526020600020906004020160008201816000019080546109ee90611c61565b6109f9929190611556565b5060018201548160010155600282015481600201556003820160009054906101000a900473ffffffffffffffffffffffffffffffffffffffff168160030160006101000a81548173ffffffffffffffffffffffffffffffffffffffff021916908373ffffffffffffffffffffffffffffffffffffffff1602179055506003820160149054906101000a900460ff168160030160146101000a81548160ff0219169083151502179055509050508160046001600480549050610aba9190611b91565b81548110610acb57610aca611d9a565b5b90600052602060002090600402016000820151816000019080519060200190610af59291906114d0565b50602082015181600101556040820151816002015560608201518160030160006101000a81548173ffffffffffffffffffffffffffffffffffffffff021916908373ffffffffffffffffffffffffffffffffffffffff16021790555060808201518160030160146101000a81548160ff0219169083151502179055509050506004805480610b8657610b85611d6b565b5b600190038181906000526020600020906004020160008082016000610bab91906115e3565b600182016000905560028201600090556003820160006101000a81549073ffffffffffffffffffffffffffffffffffffffff02191690556003820160146101000a81549060ff0219169055505090555b600183610c089190611b3b565b9250826004805490501415610c52576040517f08c379a0000000000000000000000000000000000000000000000000000000008152600401610c4990611aa9565b60405180910390fd5b60019350505050610c62565b5050505b919050565b8173ffffffffffffffffffffffffffffffffffffffff16600360008473ffffffffffffffffffffffffffffffffffffffff1673ffffffffffffffffffffffffffffffffffffffff16815260200190815260200160002060030160009054906101000a900473ffffffffffffffffffffffffffffffffffffffff1673ffffffffffffffffffffffffffffffffffffffff161415610d38576040517f08c379a0000000000000000000000000000000000000000000000000000000008152600401610d2f90611a89565b60405180910390fd5b6000600360008473ffffffffffffffffffffffffffffffffffffffff1673ffffffffffffffffffffffffffffffffffffffff168152602001908152602001600020905085816000019080519060200190610d939291906114d0565b50848160010181905550838160020181905550828160030160006101000a81548173ffffffffffffffffffffffffffffffffffffffff021916908373ffffffffffffffffffffffffffffffffffffffff160217905550818160030160146101000a81548160ff02191690831515021790555060048190806001815401808255809150506001900390600052602060002090600402016000909190919091506000820181600001908054610e4590611c61565b610e50929190611556565b5060018201548160010155600282015481600201556003820160009054906101000a900473ffffffffffffffffffffffffffffffffffffffff168160030160006101000a81548173ffffffffffffffffffffffffffffffffffffffff021916908373ffffffffffffffffffffffffffffffffffffffff1602179055506003820160149054906101000a900460ff168160030160146101000a81548160ff0219169083151502179055505050505050505050565b60048181548110610f1357600080fd5b9060005260206000209060040201600091509050806000018054610f3690611c61565b80601f0160208091040260200160405190810160405280929190818152602001828054610f6290611c61565b8015610faf5780601f10610f8457610100808354040283529160200191610faf565b820191906000526020600020905b815481529060010190602001808311610f9257829003601f168201915b5050505050908060010154908060020154908060030160009054906101000a900473ffffffffffffffffffffffffffffffffffffffff16908060030160149054906101000a900460ff16905085565b60008060009054906101000a900473ffffffffffffffffffffffffffffffffffffffff1673ffffffffffffffffffffffffffffffffffffffff163373ffffffffffffffffffffffffffffffffffffffff161461108f576040517f08c379a000000000000000000000000000000000000000000000000000000000815260040161108690611a49565b60405180910390fd5b6000805b6004805490508110156111bf578373ffffffffffffffffffffffffffffffffffffffff16600482815481106110cb576110ca611d9a565b5b906000526020600020906004020160030160009054906101000a900473ffffffffffffffffffffffffffffffffffffffff1673ffffffffffffffffffffffffffffffffffffffff161415611155576004818154811061112d5761112c611d9a565b5b906000526020600020906004020160030160149054906101000a900460ff16925050506111c2565b6001826111629190611b3b565b91508160048054905014156111ac576040517f08c379a00000000000000000000000000000000000000000000000000000000081526004016111a390611aa9565b60405180910390fd5b80806111b790611cc4565b915050611093565b50505b919050565b60036020528060005260406000206000915090508060000180546111ea90611c61565b80601f016020809104026020016040519081016040528092919081815260200182805461121690611c61565b80156112635780601f1061123857610100808354040283529160200191611263565b820191906000526020600020905b81548152906001019060200180831161124657829003601f168201915b5050505050908060010154908060020154908060030160009054906101000a900473ffffffffffffffffffffffffffffffffffffffff16908060030160149054906101000a900460ff16905085565b60008054906101000a900473ffffffffffffffffffffffffffffffffffffffff1673ffffffffffffffffffffffffffffffffffffffff163373ffffffffffffffffffffffffffffffffffffffff1614611340576040517f08c379a000000000000000000000000000000000000000000000000000000000815260040161133790611a49565b60405180910390fd5b6000805b60048054905081101561145f578373ffffffffffffffffffffffffffffffffffffffff166004828154811061137c5761137b611d9a565b5b906000526020600020906004020160030160009054906101000a900473ffffffffffffffffffffffffffffffffffffffff1673ffffffffffffffffffffffffffffffffffffffff1614156113f55782600482815481106113df576113de611d9a565b5b9060005260206000209060040201600101819055505b6001826114029190611b3b565b915081600480549050141561144c576040517f08c379a000000000000000000000000000000000000000000000000000000000815260040161144390611aa9565b60405180910390fd5b808061145790611cc4565b915050611344565b50505050565b60008054906101000a900473ffffffffffffffffffffffffffffffffffffffff1681565b6040518060a00160405280606081526020016000815260200160008152602001600073ffffffffffffffffffffffffffffffffffffffff1681526020016000151581525090565b8280546114dc90611c61565b90600052602060002090601f0160209004810192826114fe5760008555611545565b82601f1061151757805160ff1916838001178555611545565b82800160010185558215611545579182015b82811115611544578251825591602001919060010190611529565b5b5090506115529190611623565b5090565b82805461156290611c61565b90600052602060002090601f01602090048101928261158457600085556115d2565b82601f1061159557805485556115d2565b828001600101855582156115d257600052602060002091601f016020900482015b828111156115d15782548255916001019190600101906115b6565b5b5090506115df9190611623565b5090565b5080546115ef90611c61565b6000825580601f106116015750611620565b601f01602090049060005260206000209081019061161f9190611623565b5b50565b5b8082111561163c576000816000905550600101611624565b5090565b600061165361164e84611aee565b611ac9565b90508281526020810184848401111561166f5761166e611dfd565b5b61167a848285611c1f565b509392505050565b60008135905061169181611eea565b92915050565b6000813590506116a681611f01565b92915050565b6000813590506116bb81611f18565b92915050565b600082601f8301126116d6576116d5611df8565b5b81356116e6848260208601611640565b91505092915050565b6000813590506116fe81611f2f565b92915050565b60006020828403121561171a57611719611e07565b5b600061172884828501611682565b91505092915050565b6000806040838503121561174857611747611e07565b5b600061175685828601611697565b9250506020611767858286016116ef565b9150509250929050565b6000806040838503121561178857611787611e07565b5b600061179685828601611682565b92505060206117a7858286016116ef565b9150509250929050565b600080600080600060a086880312156117cd576117cc611e07565b5b600086013567ffffffffffffffff8111156117eb576117ea611e02565b5b6117f7888289016116c1565b9550506020611808888289016116ef565b9450506040611819888289016116ef565b935050606061182a88828901611697565b925050608061183b888289016116ac565b9150509295509295909350565b60006020828403121561185e5761185d611e07565b5b600061186c848285016116ef565b91505092915050565b61187e81611bd7565b82525050565b61188d81611bc5565b82525050565b61189c81611be9565b82525050565b60006118ad82611b1f565b6118b78185611b2a565b93506118c7818560208601611c2e565b6118d081611e0c565b840191505092915050565b60006118e8601483611b2a565b91506118f382611e1d565b602082019050919050565b600061190b601683611b2a565b915061191682611e46565b602082019050919050565b600061192e601983611b2a565b915061193982611e6f565b602082019050919050565b6000611951601583611b2a565b915061195c82611e98565b602082019050919050565b6000611974601283611b2a565b915061197f82611ec1565b602082019050919050565b61199381611c15565b82525050565b60006020820190506119ae6000830184611884565b92915050565b60006020820190506119c96000830184611893565b92915050565b600060a08201905081810360008301526119e981886118a2565b90506119f8602083018761198a565b611a05604083018661198a565b611a126060830185611875565b611a1f6080830184611893565b9695505050505050565b60006020820190508181036000830152611a42816118db565b9050919050565b60006020820190508181036000830152611a62816118fe565b9050919050565b60006020820190508181036000830152611a8281611921565b9050919050565b60006020820190508181036000830152611aa281611944565b9050919050565b60006020820190508181036000830152611ac281611967565b9050919050565b6000611ad3611ae4565b9050611adf8282611c93565b919050565b6000604051905090565b600067ffffffffffffffff821115611b0957611b08611dc9565b5b611b1282611e0c565b9050602081019050919050565b600081519050919050565b600082825260208201905092915050565b6000611b4682611c15565b9150611b5183611c15565b9250827fffffffffffffffffffffffffffffffffffffffffffffffffffffffffffffffff03821115611b8657611b85611d0d565b5b828201905092915050565b6000611b9c82611c15565b9150611ba783611c15565b925082821015611bba57611bb9611d0d565b5b828203905092915050565b6000611bd082611bf5565b9050919050565b6000611be282611bf5565b9050919050565b60008115159050919050565b600073ffffffffffffffffffffffffffffffffffffffff82169050919050565b6000819050919050565b82818337600083830152505050565b60005b83811015611c4c578082015181840152602081019050611c31565b83811115611c5b576000848401525b50505050565b60006002820490506001821680611c7957607f821691505b60208210811415611c8d57611c8c611d3c565b5b50919050565b611c9c82611e0c565b810181811067ffffffffffffffff82111715611cbb57611cba611dc9565b5b80604052505050565b6000611ccf82611c15565b91507fffffffffffffffffffffffffffffffffffffffffffffffffffffffffffffffff821415611d0257611d01611d0d565b5b600182019050919050565b7f4e487b7100000000000000000000000000000000000000000000000000000000600052601160045260246000fd5b7f4e487b7100000000000000000000000000000000000000000000000000000000600052602260045260246000fd5b7f4e487b7100000000000000000000000000000000000000000000000000000000600052603160045260246000fd5b7f4e487b7100000000000000000000000000000000000000000000000000000000600052603260045260246000fd5b7f4e487b7100000000000000000000000000000000000000000000000000000000600052604160045260246000fd5b600080fd5b600080fd5b600080fd5b600080fd5b6000601f19601f8301169050919050565b7f4661696c656420746f2073656e64204554484552000000000000000000000000600082015250565b7f796f7520646f6e27742068617665207269676874732000000000000000000000600082015250565b7f53616c61727920616c7265616479206973206372656974656400000000000000600082015250565b7f7573657220616c72656164792072656769737465720000000000000000000000600082015250565b7f656d706c6f796565206e6f7420666f756e640000000000000000000000000000600082015250565b611ef381611bc5565b8114611efe57600080fd5b50565b611f0a81611bd7565b8114611f1557600080fd5b50565b611f2181611be9565b8114611f2c57600080fd5b50565b611f3881611c15565b8114611f4357600080fd5b5056fea26469706673582212207b34f2a2cdefaba1bb20ac39126fee8e2dbf1a06f6c403a300cf308c4d5c363a64736f6c63430008070033",
					"opcodes": "PUSH1 0x80 PUSH1 0x40 MSTORE PUSH7 0x470DE4DF820000 PUSH1 0x1 SSTORE PUSH7 0x6A94D74F430000 PUSH1 0x2 SSTORE CALLVALUE DUP1 ISZERO PUSH2 0x26 JUMPI PUSH1 0x0 DUP1 REVERT JUMPDEST POP CALLER PUSH1 0x0 DUP1 PUSH2 0x100 EXP DUP2 SLOAD DUP2 PUSH20 0xFFFFFFFFFFFFFFFFFFFFFFFFFFFFFFFFFFFFFFFF MUL NOT AND SWAP1 DUP4 PUSH20 0xFFFFFFFFFFFFFFFFFFFFFFFFFFFFFFFFFFFFFFFF AND MUL OR SWAP1 SSTORE POP PUSH2 0x1F7C DUP1 PUSH2 0x76 PUSH1 0x0 CODECOPY PUSH1 0x0 RETURN INVALID PUSH1 0x80 PUSH1 0x40 MSTORE PUSH1 0x4 CALLDATASIZE LT PUSH2 0x91 JUMPI PUSH1 0x0 CALLDATALOAD PUSH1 0xE0 SHR DUP1 PUSH4 0xB58F421C GT PUSH2 0x59 JUMPI DUP1 PUSH4 0xB58F421C EQ PUSH2 0x15A JUMPI DUP1 PUSH4 0xBA0CE2BB EQ PUSH2 0x19B JUMPI DUP1 PUSH4 0xD17106B7 EQ PUSH2 0x1D8 JUMPI DUP1 PUSH4 0xE66A458E EQ PUSH2 0x219 JUMPI DUP1 PUSH4 0xF851A440 EQ PUSH2 0x242 JUMPI PUSH2 0x91 JUMP JUMPDEST DUP1 PUSH4 0x26F119A EQ PUSH2 0x96 JUMPI DUP1 PUSH4 0x4B642A4 EQ PUSH2 0xAD JUMPI DUP1 PUSH4 0x18C7A051 EQ PUSH2 0xC4 JUMPI DUP1 PUSH4 0x52D6ABDC EQ PUSH2 0xF4 JUMPI DUP1 PUSH4 0x7A7E4369 EQ PUSH2 0x131 JUMPI JUMPDEST PUSH1 0x0 DUP1 REVERT JUMPDEST CALLVALUE DUP1 ISZERO PUSH2 0xA2 JUMPI PUSH1 0x0 DUP1 REVERT JUMPDEST POP PUSH2 0xAB PUSH2 0x26D JUMP JUMPDEST STOP JUMPDEST CALLVALUE DUP1 ISZERO PUSH2 0xB9 JUMPI PUSH1 0x0 DUP1 REVERT JUMPDEST POP PUSH2 0xC2 PUSH2 0x391 JUMP JUMPDEST STOP JUMPDEST PUSH2 0xDE PUSH1 0x4 DUP1 CALLDATASIZE SUB DUP2 ADD SWAP1 PUSH2 0xD9 SWAP2 SWAP1 PUSH2 0x1731 JUMP JUMPDEST PUSH2 0x600 JUMP JUMPDEST PUSH1 0x40 MLOAD PUSH2 0xEB SWAP2 SWAP1 PUSH2 0x19B4 JUMP JUMPDEST PUSH1 0x40 MLOAD DUP1 SWAP2 SUB SWAP1 RETURN JUMPDEST CALLVALUE DUP1 ISZERO PUSH2 0x100 JUMPI PUSH1 0x0 DUP1 REVERT JUMPDEST POP PUSH2 0x11B PUSH1 0x4 DUP1 CALLDATASIZE SUB DUP2 ADD SWAP1 PUSH2 0x116 SWAP2 SWAP1 PUSH2 0x1704 JUMP JUMPDEST PUSH2 0x7A4 JUMP JUMPDEST PUSH1 0x40 MLOAD PUSH2 0x128 SWAP2 SWAP1 PUSH2 0x19B4 JUMP JUMPDEST PUSH1 0x40 MLOAD DUP1 SWAP2 SUB SWAP1 RETURN JUMPDEST CALLVALUE DUP1 ISZERO PUSH2 0x13D JUMPI PUSH1 0x0 DUP1 REVERT JUMPDEST POP PUSH2 0x158 PUSH1 0x4 DUP1 CALLDATASIZE SUB DUP2 ADD SWAP1 PUSH2 0x153 SWAP2 SWAP1 PUSH2 0x17B1 JUMP JUMPDEST PUSH2 0xC67 JUMP JUMPDEST STOP JUMPDEST CALLVALUE DUP1 ISZERO PUSH2 0x166 JUMPI PUSH1 0x0 DUP1 REVERT JUMPDEST POP PUSH2 0x181 PUSH1 0x4 DUP1 CALLDATASIZE SUB DUP2 ADD SWAP1 PUSH2 0x17C SWAP2 SWAP1 PUSH2 0x1848 JUMP JUMPDEST PUSH2 0xF03 JUMP JUMPDEST PUSH1 0x40 MLOAD PUSH2 0x192 SWAP6 SWAP5 SWAP4 SWAP3 SWAP2 SWAP1 PUSH2 0x19CF JUMP JUMPDEST PUSH1 0x40 MLOAD DUP1 SWAP2 SUB SWAP1 RETURN JUMPDEST CALLVALUE DUP1 ISZERO PUSH2 0x1A7 JUMPI PUSH1 0x0 DUP1 REVERT JUMPDEST POP PUSH2 0x1C2 PUSH1 0x4 DUP1 CALLDATASIZE SUB DUP2 ADD SWAP1 PUSH2 0x1BD SWAP2 SWAP1 PUSH2 0x1704 JUMP JUMPDEST PUSH2 0xFFE JUMP JUMPDEST PUSH1 0x40 MLOAD PUSH2 0x1CF SWAP2 SWAP1 PUSH2 0x19B4 JUMP JUMPDEST PUSH1 0x40 MLOAD DUP1 SWAP2 SUB SWAP1 RETURN JUMPDEST CALLVALUE DUP1 ISZERO PUSH2 0x1E4 JUMPI PUSH1 0x0 DUP1 REVERT JUMPDEST POP PUSH2 0x1FF PUSH1 0x4 DUP1 CALLDATASIZE SUB DUP2 ADD SWAP1 PUSH2 0x1FA SWAP2 SWAP1 PUSH2 0x1704 JUMP JUMPDEST PUSH2 0x11C7 JUMP JUMPDEST PUSH1 0x40 MLOAD PUSH2 0x210 SWAP6 SWAP5 SWAP4 SWAP3 SWAP2 SWAP1 PUSH2 0x19CF JUMP JUMPDEST PUSH1 0x40 MLOAD DUP1 SWAP2 SUB SWAP1 RETURN JUMPDEST CALLVALUE DUP1 ISZERO PUSH2 0x225 JUMPI PUSH1 0x0 DUP1 REVERT JUMPDEST POP PUSH2 0x240 PUSH1 0x4 DUP1 CALLDATASIZE SUB DUP2 ADD SWAP1 PUSH2 0x23B SWAP2 SWAP1 PUSH2 0x1771 JUMP JUMPDEST PUSH2 0x12B2 JUMP JUMPDEST STOP JUMPDEST CALLVALUE DUP1 ISZERO PUSH2 0x24E JUMPI PUSH1 0x0 DUP1 REVERT JUMPDEST POP PUSH2 0x257 PUSH2 0x1465 JUMP JUMPDEST PUSH1 0x40 MLOAD PUSH2 0x264 SWAP2 SWAP1 PUSH2 0x1999 JUMP JUMPDEST PUSH1 0x40 MLOAD DUP1 SWAP2 SUB SWAP1 RETURN JUMPDEST PUSH1 0x0 DUP1 SLOAD SWAP1 PUSH2 0x100 EXP SWAP1 DIV PUSH20 0xFFFFFFFFFFFFFFFFFFFFFFFFFFFFFFFFFFFFFFFF AND PUSH20 0xFFFFFFFFFFFFFFFFFFFFFFFFFFFFFFFFFFFFFFFF AND CALLER PUSH20 0xFFFFFFFFFFFFFFFFFFFFFFFFFFFFFFFFFFFFFFFF AND EQ PUSH2 0x2FB JUMPI PUSH1 0x40 MLOAD PUSH32 0x8C379A000000000000000000000000000000000000000000000000000000000 DUP2 MSTORE PUSH1 0x4 ADD PUSH2 0x2F2 SWAP1 PUSH2 0x1A49 JUMP JUMPDEST PUSH1 0x40 MLOAD DUP1 SWAP2 SUB SWAP1 REVERT JUMPDEST PUSH1 0x0 JUMPDEST PUSH1 0x4 DUP1 SLOAD SWAP1 POP DUP2 LT ISZERO PUSH2 0x38E JUMPI PUSH1 0x4 DUP2 DUP2 SLOAD DUP2 LT PUSH2 0x31F JUMPI PUSH2 0x31E PUSH2 0x1D9A JUMP JUMPDEST JUMPDEST SWAP1 PUSH1 0x0 MSTORE PUSH1 0x20 PUSH1 0x0 KECCAK256 SWAP1 PUSH1 0x4 MUL ADD PUSH1 0x3 ADD PUSH1 0x14 SWAP1 SLOAD SWAP1 PUSH2 0x100 EXP SWAP1 DIV PUSH1 0xFF AND ISZERO PUSH1 0x4 DUP3 DUP2 SLOAD DUP2 LT PUSH2 0x353 JUMPI PUSH2 0x352 PUSH2 0x1D9A JUMP JUMPDEST JUMPDEST SWAP1 PUSH1 0x0 MSTORE PUSH1 0x20 PUSH1 0x0 KECCAK256 SWAP1 PUSH1 0x4 MUL ADD PUSH1 0x3 ADD PUSH1 0x14 PUSH2 0x100 EXP DUP2 SLOAD DUP2 PUSH1 0xFF MUL NOT AND SWAP1 DUP4 ISZERO ISZERO MUL OR SWAP1 SSTORE POP DUP1 DUP1 PUSH2 0x386 SWAP1 PUSH2 0x1CC4 JUMP JUMPDEST SWAP2 POP POP PUSH2 0x2FE JUMP JUMPDEST POP JUMP JUMPDEST PUSH1 0x0 DUP1 SLOAD SWAP1 PUSH2 0x100 EXP SWAP1 DIV PUSH20 0xFFFFFFFFFFFFFFFFFFFFFFFFFFFFFFFFFFFFFFFF AND PUSH20 0xFFFFFFFFFFFFFFFFFFFFFFFFFFFFFFFFFFFFFFFF AND CALLER PUSH20 0xFFFFFFFFFFFFFFFFFFFFFFFFFFFFFFFFFFFFFFFF AND EQ PUSH2 0x41F JUMPI PUSH1 0x40 MLOAD PUSH32 0x8C379A000000000000000000000000000000000000000000000000000000000 DUP2 MSTORE PUSH1 0x4 ADD PUSH2 0x416 SWAP1 PUSH2 0x1A49 JUMP JUMPDEST PUSH1 0x40 MLOAD DUP1 SWAP2 SUB SWAP1 REVERT JUMPDEST PUSH1 0x0 JUMPDEST PUSH1 0x4 DUP1 SLOAD SWAP1 POP DUP2 LT ISZERO PUSH2 0x5FD JUMPI PUSH1 0x4 DUP2 DUP2 SLOAD DUP2 LT PUSH2 0x443 JUMPI PUSH2 0x442 PUSH2 0x1D9A JUMP JUMPDEST JUMPDEST SWAP1 PUSH1 0x0 MSTORE PUSH1 0x20 PUSH1 0x0 KECCAK256 SWAP1 PUSH1 0x4 MUL ADD PUSH1 0x3 ADD PUSH1 0x14 SWAP1 SLOAD SWAP1 PUSH2 0x100 EXP SWAP1 DIV PUSH1 0xFF AND PUSH2 0x5EA JUMPI PUSH1 0x1 PUSH1 0x4 DUP3 DUP2 SLOAD DUP2 LT PUSH2 0x47C JUMPI PUSH2 0x47B PUSH2 0x1D9A JUMP JUMPDEST JUMPDEST SWAP1 PUSH1 0x0 MSTORE PUSH1 0x20 PUSH1 0x0 KECCAK256 SWAP1 PUSH1 0x4 MUL ADD PUSH1 0x1 ADD SLOAD EQ ISZERO PUSH2 0x529 JUMPI PUSH2 0x4E5 PUSH1 0x4 DUP3 DUP2 SLOAD DUP2 LT PUSH2 0x4AB JUMPI PUSH2 0x4AA PUSH2 0x1D9A JUMP JUMPDEST JUMPDEST SWAP1 PUSH1 0x0 MSTORE PUSH1 0x20 PUSH1 0x0 KECCAK256 SWAP1 PUSH1 0x4 MUL ADD PUSH1 0x3 ADD PUSH1 0x0 SWAP1 SLOAD SWAP1 PUSH2 0x100 EXP SWAP1 DIV PUSH20 0xFFFFFFFFFFFFFFFFFFFFFFFFFFFFFFFFFFFFFFFF AND PUSH1 0x1 SLOAD PUSH2 0x600 JUMP JUMPDEST POP PUSH1 0x1 PUSH1 0x4 DUP3 DUP2 SLOAD DUP2 LT PUSH2 0x4FC JUMPI PUSH2 0x4FB PUSH2 0x1D9A JUMP JUMPDEST JUMPDEST SWAP1 PUSH1 0x0 MSTORE PUSH1 0x20 PUSH1 0x0 KECCAK256 SWAP1 PUSH1 0x4 MUL ADD PUSH1 0x3 ADD PUSH1 0x14 PUSH2 0x100 EXP DUP2 SLOAD DUP2 PUSH1 0xFF MUL NOT AND SWAP1 DUP4 ISZERO ISZERO MUL OR SWAP1 SSTORE POP PUSH2 0x5E9 JUMP JUMPDEST PUSH1 0x2 PUSH1 0x4 DUP3 DUP2 SLOAD DUP2 LT PUSH2 0x53F JUMPI PUSH2 0x53E PUSH2 0x1D9A JUMP JUMPDEST JUMPDEST SWAP1 PUSH1 0x0 MSTORE PUSH1 0x20 PUSH1 0x0 KECCAK256 SWAP1 PUSH1 0x4 MUL ADD PUSH1 0x1 ADD SLOAD EQ ISZERO PUSH2 0x5E8 JUMPI PUSH2 0x5A8 PUSH1 0x4 DUP3 DUP2 SLOAD DUP2 LT PUSH2 0x56E JUMPI PUSH2 0x56D PUSH2 0x1D9A JUMP JUMPDEST JUMPDEST SWAP1 PUSH1 0x0 MSTORE PUSH1 0x20 PUSH1 0x0 KECCAK256 SWAP1 PUSH1 0x4 MUL ADD PUSH1 0x3 ADD PUSH1 0x0 SWAP1 SLOAD SWAP1 PUSH2 0x100 EXP SWAP1 DIV PUSH20 0xFFFFFFFFFFFFFFFFFFFFFFFFFFFFFFFFFFFFFFFF AND PUSH1 0x2 SLOAD PUSH2 0x600 JUMP JUMPDEST POP PUSH1 0x1 PUSH1 0x4 DUP3 DUP2 SLOAD DUP2 LT PUSH2 0x5BF JUMPI PUSH2 0x5BE PUSH2 0x1D9A JUMP JUMPDEST JUMPDEST SWAP1 PUSH1 0x0 MSTORE PUSH1 0x20 PUSH1 0x0 KECCAK256 SWAP1 PUSH1 0x4 MUL ADD PUSH1 0x3 ADD PUSH1 0x14 PUSH2 0x100 EXP DUP2 SLOAD DUP2 PUSH1 0xFF MUL NOT AND SWAP1 DUP4 ISZERO ISZERO MUL OR SWAP1 SSTORE POP JUMPDEST JUMPDEST JUMPDEST DUP1 DUP1 PUSH2 0x5F5 SWAP1 PUSH2 0x1CC4 JUMP JUMPDEST SWAP2 POP POP PUSH2 0x422 JUMP JUMPDEST POP JUMP JUMPDEST PUSH1 0x0 DUP1 PUSH1 0x0 SWAP1 SLOAD SWAP1 PUSH2 0x100 EXP SWAP1 DIV PUSH20 0xFFFFFFFFFFFFFFFFFFFFFFFFFFFFFFFFFFFFFFFF AND PUSH20 0xFFFFFFFFFFFFFFFFFFFFFFFFFFFFFFFFFFFFFFFF AND CALLER PUSH20 0xFFFFFFFFFFFFFFFFFFFFFFFFFFFFFFFFFFFFFFFF AND EQ PUSH2 0x691 JUMPI PUSH1 0x40 MLOAD PUSH32 0x8C379A000000000000000000000000000000000000000000000000000000000 DUP2 MSTORE PUSH1 0x4 ADD PUSH2 0x688 SWAP1 PUSH2 0x1A49 JUMP JUMPDEST PUSH1 0x40 MLOAD DUP1 SWAP2 SUB SWAP1 REVERT JUMPDEST PUSH1 0x3 PUSH1 0x0 DUP5 PUSH20 0xFFFFFFFFFFFFFFFFFFFFFFFFFFFFFFFFFFFFFFFF AND PUSH20 0xFFFFFFFFFFFFFFFFFFFFFFFFFFFFFFFFFFFFFFFF AND DUP2 MSTORE PUSH1 0x20 ADD SWAP1 DUP2 MSTORE PUSH1 0x20 ADD PUSH1 0x0 KECCAK256 PUSH1 0x3 ADD PUSH1 0x14 SWAP1 SLOAD SWAP1 PUSH2 0x100 EXP SWAP1 DIV PUSH1 0xFF AND ISZERO PUSH2 0x721 JUMPI PUSH1 0x40 MLOAD PUSH32 0x8C379A000000000000000000000000000000000000000000000000000000000 DUP2 MSTORE PUSH1 0x4 ADD PUSH2 0x718 SWAP1 PUSH2 0x1A69 JUMP JUMPDEST PUSH1 0x40 MLOAD DUP1 SWAP2 SUB SWAP1 REVERT JUMPDEST PUSH1 0x0 DUP4 PUSH20 0xFFFFFFFFFFFFFFFFFFFFFFFFFFFFFFFFFFFFFFFF AND PUSH2 0x8FC DUP5 SWAP1 DUP2 ISZERO MUL SWAP1 PUSH1 0x40 MLOAD PUSH1 0x0 PUSH1 0x40 MLOAD DUP1 DUP4 SUB DUP2 DUP6 DUP9 DUP9 CALL SWAP4 POP POP POP POP SWAP1 POP DUP1 PUSH2 0x79A JUMPI PUSH1 0x40 MLOAD PUSH32 0x8C379A000000000000000000000000000000000000000000000000000000000 DUP2 MSTORE PUSH1 0x4 ADD PUSH2 0x791 SWAP1 PUSH2 0x1A29 JUMP JUMPDEST PUSH1 0x40 MLOAD DUP1 SWAP2 SUB SWAP1 REVERT JUMPDEST DUP1 SWAP2 POP POP SWAP3 SWAP2 POP POP JUMP JUMPDEST PUSH1 0x0 DUP1 PUSH1 0x0 SWAP1 SLOAD SWAP1 PUSH2 0x100 EXP SWAP1 DIV PUSH20 0xFFFFFFFFFFFFFFFFFFFFFFFFFFFFFFFFFFFFFFFF AND PUSH20 0xFFFFFFFFFFFFFFFFFFFFFFFFFFFFFFFFFFFFFFFF AND CALLER PUSH20 0xFFFFFFFFFFFFFFFFFFFFFFFFFFFFFFFFFFFFFFFF AND EQ PUSH2 0x835 JUMPI PUSH1 0x40 MLOAD PUSH32 0x8C379A000000000000000000000000000000000000000000000000000000000 DUP2 MSTORE PUSH1 0x4 ADD PUSH2 0x82C SWAP1 PUSH2 0x1A49 JUMP JUMPDEST PUSH1 0x40 MLOAD DUP1 SWAP2 SUB SWAP1 REVERT JUMPDEST PUSH1 0x0 PUSH2 0x83F PUSH2 0x1489 JUMP JUMPDEST PUSH1 0x0 PUSH1 0x4 DUP1 SLOAD SWAP1 POP DUP2 LT ISZERO PUSH2 0xC5E JUMPI DUP5 PUSH20 0xFFFFFFFFFFFFFFFFFFFFFFFFFFFFFFFFFFFFFFFF AND PUSH1 0x4 DUP3 DUP2 SLOAD DUP2 LT PUSH2 0x879 JUMPI PUSH2 0x878 PUSH2 0x1D9A JUMP JUMPDEST JUMPDEST SWAP1 PUSH1 0x0 MSTORE PUSH1 0x20 PUSH1 0x0 KECCAK256 SWAP1 PUSH1 0x4 MUL ADD PUSH1 0x3 ADD PUSH1 0x0 SWAP1 SLOAD SWAP1 PUSH2 0x100 EXP SWAP1 DIV PUSH20 0xFFFFFFFFFFFFFFFFFFFFFFFFFFFFFFFFFFFFFFFF AND PUSH20 0xFFFFFFFFFFFFFFFFFFFFFFFFFFFFFFFFFFFFFFFF AND EQ ISZERO PUSH2 0xBFB JUMPI DUP2 PUSH1 0x4 DUP3 DUP2 SLOAD DUP2 LT PUSH2 0x8DC JUMPI PUSH2 0x8DB PUSH2 0x1D9A JUMP JUMPDEST JUMPDEST SWAP1 PUSH1 0x0 MSTORE PUSH1 0x20 PUSH1 0x0 KECCAK256 SWAP1 PUSH1 0x4 MUL ADD PUSH1 0x0 DUP3 ADD MLOAD DUP2 PUSH1 0x0 ADD SWAP1 DUP1 MLOAD SWAP1 PUSH1 0x20 ADD SWAP1 PUSH2 0x906 SWAP3 SWAP2 SWAP1 PUSH2 0x14D0 JUMP JUMPDEST POP PUSH1 0x20 DUP3 ADD MLOAD DUP2 PUSH1 0x1 ADD SSTORE PUSH1 0x40 DUP3 ADD MLOAD DUP2 PUSH1 0x2 ADD SSTORE PUSH1 0x60 DUP3 ADD MLOAD DUP2 PUSH1 0x3 ADD PUSH1 0x0 PUSH2 0x100 EXP DUP2 SLOAD DUP2 PUSH20 0xFFFFFFFFFFFFFFFFFFFFFFFFFFFFFFFFFFFFFFFF MUL NOT AND SWAP1 DUP4 PUSH20 0xFFFFFFFFFFFFFFFFFFFFFFFFFFFFFFFFFFFFFFFF AND MUL OR SWAP1 SSTORE POP PUSH1 0x80 DUP3 ADD MLOAD DUP2 PUSH1 0x3 ADD PUSH1 0x14 PUSH2 0x100 EXP DUP2 SLOAD DUP2 PUSH1 0xFF MUL NOT AND SWAP1 DUP4 ISZERO ISZERO MUL OR SWAP1 SSTORE POP SWAP1 POP POP PUSH1 0x4 PUSH1 0x1 PUSH1 0x4 DUP1 SLOAD SWAP1 POP PUSH2 0x999 SWAP2 SWAP1 PUSH2 0x1B91 JUMP JUMPDEST DUP2 SLOAD DUP2 LT PUSH2 0x9AA JUMPI PUSH2 0x9A9 PUSH2 0x1D9A JUMP JUMPDEST JUMPDEST SWAP1 PUSH1 0x0 MSTORE PUSH1 0x20 PUSH1 0x0 KECCAK256 SWAP1 PUSH1 0x4 MUL ADD PUSH1 0x4 DUP3 DUP2 SLOAD DUP2 LT PUSH2 0x9CC JUMPI PUSH2 0x9CB PUSH2 0x1D9A JUMP JUMPDEST JUMPDEST SWAP1 PUSH1 0x0 MSTORE PUSH1 0x20 PUSH1 0x0 KECCAK256 SWAP1 PUSH1 0x4 MUL ADD PUSH1 0x0 DUP3 ADD DUP2 PUSH1 0x0 ADD SWAP1 DUP1 SLOAD PUSH2 0x9EE SWAP1 PUSH2 0x1C61 JUMP JUMPDEST PUSH2 0x9F9 SWAP3 SWAP2 SWAP1 PUSH2 0x1556 JUMP JUMPDEST POP PUSH1 0x1 DUP3 ADD SLOAD DUP2 PUSH1 0x1 ADD SSTORE PUSH1 0x2 DUP3 ADD SLOAD DUP2 PUSH1 0x2 ADD SSTORE PUSH1 0x3 DUP3 ADD PUSH1 0x0 SWAP1 SLOAD SWAP1 PUSH2 0x100 EXP SWAP1 DIV PUSH20 0xFFFFFFFFFFFFFFFFFFFFFFFFFFFFFFFFFFFFFFFF AND DUP2 PUSH1 0x3 ADD PUSH1 0x0 PUSH2 0x100 EXP DUP2 SLOAD DUP2 PUSH20 0xFFFFFFFFFFFFFFFFFFFFFFFFFFFFFFFFFFFFFFFF MUL NOT AND SWAP1 DUP4 PUSH20 0xFFFFFFFFFFFFFFFFFFFFFFFFFFFFFFFFFFFFFFFF AND MUL OR SWAP1 SSTORE POP PUSH1 0x3 DUP3 ADD PUSH1 0x14 SWAP1 SLOAD SWAP1 PUSH2 0x100 EXP SWAP1 DIV PUSH1 0xFF AND DUP2 PUSH1 0x3 ADD PUSH1 0x14 PUSH2 0x100 EXP DUP2 SLOAD DUP2 PUSH1 0xFF MUL NOT AND SWAP1 DUP4 ISZERO ISZERO MUL OR SWAP1 SSTORE POP SWAP1 POP POP DUP2 PUSH1 0x4 PUSH1 0x1 PUSH1 0x4 DUP1 SLOAD SWAP1 POP PUSH2 0xABA SWAP2 SWAP1 PUSH2 0x1B91 JUMP JUMPDEST DUP2 SLOAD DUP2 LT PUSH2 0xACB JUMPI PUSH2 0xACA PUSH2 0x1D9A JUMP JUMPDEST JUMPDEST SWAP1 PUSH1 0x0 MSTORE PUSH1 0x20 PUSH1 0x0 KECCAK256 SWAP1 PUSH1 0x4 MUL ADD PUSH1 0x0 DUP3 ADD MLOAD DUP2 PUSH1 0x0 ADD SWAP1 DUP1 MLOAD SWAP1 PUSH1 0x20 ADD SWAP1 PUSH2 0xAF5 SWAP3 SWAP2 SWAP1 PUSH2 0x14D0 JUMP JUMPDEST POP PUSH1 0x20 DUP3 ADD MLOAD DUP2 PUSH1 0x1 ADD SSTORE PUSH1 0x40 DUP3 ADD MLOAD DUP2 PUSH1 0x2 ADD SSTORE PUSH1 0x60 DUP3 ADD MLOAD DUP2 PUSH1 0x3 ADD PUSH1 0x0 PUSH2 0x100 EXP DUP2 SLOAD DUP2 PUSH20 0xFFFFFFFFFFFFFFFFFFFFFFFFFFFFFFFFFFFFFFFF MUL NOT AND SWAP1 DUP4 PUSH20 0xFFFFFFFFFFFFFFFFFFFFFFFFFFFFFFFFFFFFFFFF AND MUL OR SWAP1 SSTORE POP PUSH1 0x80 DUP3 ADD MLOAD DUP2 PUSH1 0x3 ADD PUSH1 0x14 PUSH2 0x100 EXP DUP2 SLOAD DUP2 PUSH1 0xFF MUL NOT AND SWAP1 DUP4 ISZERO ISZERO MUL OR SWAP1 SSTORE POP SWAP1 POP POP PUSH1 0x4 DUP1 SLOAD DUP1 PUSH2 0xB86 JUMPI PUSH2 0xB85 PUSH2 0x1D6B JUMP JUMPDEST JUMPDEST PUSH1 0x1 SWAP1 SUB DUP2 DUP2 SWAP1 PUSH1 0x0 MSTORE PUSH1 0x20 PUSH1 0x0 KECCAK256 SWAP1 PUSH1 0x4 MUL ADD PUSH1 0x0 DUP1 DUP3 ADD PUSH1 0x0 PUSH2 0xBAB SWAP2 SWAP1 PUSH2 0x15E3 JUMP JUMPDEST PUSH1 0x1 DUP3 ADD PUSH1 0x0 SWAP1 SSTORE PUSH1 0x2 DUP3 ADD PUSH1 0x0 SWAP1 SSTORE PUSH1 0x3 DUP3 ADD PUSH1 0x0 PUSH2 0x100 EXP DUP2 SLOAD SWAP1 PUSH20 0xFFFFFFFFFFFFFFFFFFFFFFFFFFFFFFFFFFFFFFFF MUL NOT AND SWAP1 SSTORE PUSH1 0x3 DUP3 ADD PUSH1 0x14 PUSH2 0x100 EXP DUP2 SLOAD SWAP1 PUSH1 0xFF MUL NOT AND SWAP1 SSTORE POP POP SWAP1 SSTORE JUMPDEST PUSH1 0x1 DUP4 PUSH2 0xC08 SWAP2 SWAP1 PUSH2 0x1B3B JUMP JUMPDEST SWAP3 POP DUP3 PUSH1 0x4 DUP1 SLOAD SWAP1 POP EQ ISZERO PUSH2 0xC52 JUMPI PUSH1 0x40 MLOAD PUSH32 0x8C379A000000000000000000000000000000000000000000000000000000000 DUP2 MSTORE PUSH1 0x4 ADD PUSH2 0xC49 SWAP1 PUSH2 0x1AA9 JUMP JUMPDEST PUSH1 0x40 MLOAD DUP1 SWAP2 SUB SWAP1 REVERT JUMPDEST PUSH1 0x1 SWAP4 POP POP POP POP PUSH2 0xC62 JUMP JUMPDEST POP POP POP JUMPDEST SWAP2 SWAP1 POP JUMP JUMPDEST DUP2 PUSH20 0xFFFFFFFFFFFFFFFFFFFFFFFFFFFFFFFFFFFFFFFF AND PUSH1 0x3 PUSH1 0x0 DUP5 PUSH20 0xFFFFFFFFFFFFFFFFFFFFFFFFFFFFFFFFFFFFFFFF AND PUSH20 0xFFFFFFFFFFFFFFFFFFFFFFFFFFFFFFFFFFFFFFFF AND DUP2 MSTORE PUSH1 0x20 ADD SWAP1 DUP2 MSTORE PUSH1 0x20 ADD PUSH1 0x0 KECCAK256 PUSH1 0x3 ADD PUSH1 0x0 SWAP1 SLOAD SWAP1 PUSH2 0x100 EXP SWAP1 DIV PUSH20 0xFFFFFFFFFFFFFFFFFFFFFFFFFFFFFFFFFFFFFFFF AND PUSH20 0xFFFFFFFFFFFFFFFFFFFFFFFFFFFFFFFFFFFFFFFF AND EQ ISZERO PUSH2 0xD38 JUMPI PUSH1 0x40 MLOAD PUSH32 0x8C379A000000000000000000000000000000000000000000000000000000000 DUP2 MSTORE PUSH1 0x4 ADD PUSH2 0xD2F SWAP1 PUSH2 0x1A89 JUMP JUMPDEST PUSH1 0x40 MLOAD DUP1 SWAP2 SUB SWAP1 REVERT JUMPDEST PUSH1 0x0 PUSH1 0x3 PUSH1 0x0 DUP5 PUSH20 0xFFFFFFFFFFFFFFFFFFFFFFFFFFFFFFFFFFFFFFFF AND PUSH20 0xFFFFFFFFFFFFFFFFFFFFFFFFFFFFFFFFFFFFFFFF AND DUP2 MSTORE PUSH1 0x20 ADD SWAP1 DUP2 MSTORE PUSH1 0x20 ADD PUSH1 0x0 KECCAK256 SWAP1 POP DUP6 DUP2 PUSH1 0x0 ADD SWAP1 DUP1 MLOAD SWAP1 PUSH1 0x20 ADD SWAP1 PUSH2 0xD93 SWAP3 SWAP2 SWAP1 PUSH2 0x14D0 JUMP JUMPDEST POP DUP5 DUP2 PUSH1 0x1 ADD DUP2 SWAP1 SSTORE POP DUP4 DUP2 PUSH1 0x2 ADD DUP2 SWAP1 SSTORE POP DUP3 DUP2 PUSH1 0x3 ADD PUSH1 0x0 PUSH2 0x100 EXP DUP2 SLOAD DUP2 PUSH20 0xFFFFFFFFFFFFFFFFFFFFFFFFFFFFFFFFFFFFFFFF MUL NOT AND SWAP1 DUP4 PUSH20 0xFFFFFFFFFFFFFFFFFFFFFFFFFFFFFFFFFFFFFFFF AND MUL OR SWAP1 SSTORE POP DUP2 DUP2 PUSH1 0x3 ADD PUSH1 0x14 PUSH2 0x100 EXP DUP2 SLOAD DUP2 PUSH1 0xFF MUL NOT AND SWAP1 DUP4 ISZERO ISZERO MUL OR SWAP1 SSTORE POP PUSH1 0x4 DUP2 SWAP1 DUP1 PUSH1 0x1 DUP2 SLOAD ADD DUP1 DUP3 SSTORE DUP1 SWAP2 POP POP PUSH1 0x1 SWAP1 SUB SWAP1 PUSH1 0x0 MSTORE PUSH1 0x20 PUSH1 0x0 KECCAK256 SWAP1 PUSH1 0x4 MUL ADD PUSH1 0x0 SWAP1 SWAP2 SWAP1 SWAP2 SWAP1 SWAP2 POP PUSH1 0x0 DUP3 ADD DUP2 PUSH1 0x0 ADD SWAP1 DUP1 SLOAD PUSH2 0xE45 SWAP1 PUSH2 0x1C61 JUMP JUMPDEST PUSH2 0xE50 SWAP3 SWAP2 SWAP1 PUSH2 0x1556 JUMP JUMPDEST POP PUSH1 0x1 DUP3 ADD SLOAD DUP2 PUSH1 0x1 ADD SSTORE PUSH1 0x2 DUP3 ADD SLOAD DUP2 PUSH1 0x2 ADD SSTORE PUSH1 0x3 DUP3 ADD PUSH1 0x0 SWAP1 SLOAD SWAP1 PUSH2 0x100 EXP SWAP1 DIV PUSH20 0xFFFFFFFFFFFFFFFFFFFFFFFFFFFFFFFFFFFFFFFF AND DUP2 PUSH1 0x3 ADD PUSH1 0x0 PUSH2 0x100 EXP DUP2 SLOAD DUP2 PUSH20 0xFFFFFFFFFFFFFFFFFFFFFFFFFFFFFFFFFFFFFFFF MUL NOT AND SWAP1 DUP4 PUSH20 0xFFFFFFFFFFFFFFFFFFFFFFFFFFFFFFFFFFFFFFFF AND MUL OR SWAP1 SSTORE POP PUSH1 0x3 DUP3 ADD PUSH1 0x14 SWAP1 SLOAD SWAP1 PUSH2 0x100 EXP SWAP1 DIV PUSH1 0xFF AND DUP2 PUSH1 0x3 ADD PUSH1 0x14 PUSH2 0x100 EXP DUP2 SLOAD DUP2 PUSH1 0xFF MUL NOT AND SWAP1 DUP4 ISZERO ISZERO MUL OR SWAP1 SSTORE POP POP POP POP POP POP POP POP POP JUMP JUMPDEST PUSH1 0x4 DUP2 DUP2 SLOAD DUP2 LT PUSH2 0xF13 JUMPI PUSH1 0x0 DUP1 REVERT JUMPDEST SWAP1 PUSH1 0x0 MSTORE PUSH1 0x20 PUSH1 0x0 KECCAK256 SWAP1 PUSH1 0x4 MUL ADD PUSH1 0x0 SWAP2 POP SWAP1 POP DUP1 PUSH1 0x0 ADD DUP1 SLOAD PUSH2 0xF36 SWAP1 PUSH2 0x1C61 JUMP JUMPDEST DUP1 PUSH1 0x1F ADD PUSH1 0x20 DUP1 SWAP2 DIV MUL PUSH1 0x20 ADD PUSH1 0x40 MLOAD SWAP1 DUP2 ADD PUSH1 0x40 MSTORE DUP1 SWAP3 SWAP2 SWAP1 DUP2 DUP2 MSTORE PUSH1 0x20 ADD DUP3 DUP1 SLOAD PUSH2 0xF62 SWAP1 PUSH2 0x1C61 JUMP JUMPDEST DUP1 ISZERO PUSH2 0xFAF JUMPI DUP1 PUSH1 0x1F LT PUSH2 0xF84 JUMPI PUSH2 0x100 DUP1 DUP4 SLOAD DIV MUL DUP4 MSTORE SWAP2 PUSH1 0x20 ADD SWAP2 PUSH2 0xFAF JUMP JUMPDEST DUP3 ADD SWAP2 SWAP1 PUSH1 0x0 MSTORE PUSH1 0x20 PUSH1 0x0 KECCAK256 SWAP1 JUMPDEST DUP2 SLOAD DUP2 MSTORE SWAP1 PUSH1 0x1 ADD SWAP1 PUSH1 0x20 ADD DUP1 DUP4 GT PUSH2 0xF92 JUMPI DUP3 SWAP1 SUB PUSH1 0x1F AND DUP3 ADD SWAP2 JUMPDEST POP POP POP POP POP SWAP1 DUP1 PUSH1 0x1 ADD SLOAD SWAP1 DUP1 PUSH1 0x2 ADD SLOAD SWAP1 DUP1 PUSH1 0x3 ADD PUSH1 0x0 SWAP1 SLOAD SWAP1 PUSH2 0x100 EXP SWAP1 DIV PUSH20 0xFFFFFFFFFFFFFFFFFFFFFFFFFFFFFFFFFFFFFFFF AND SWAP1 DUP1 PUSH1 0x3 ADD PUSH1 0x14 SWAP1 SLOAD SWAP1 PUSH2 0x100 EXP SWAP1 DIV PUSH1 0xFF AND SWAP1 POP DUP6 JUMP JUMPDEST PUSH1 0x0 DUP1 PUSH1 0x0 SWAP1 SLOAD SWAP1 PUSH2 0x100 EXP SWAP1 DIV PUSH20 0xFFFFFFFFFFFFFFFFFFFFFFFFFFFFFFFFFFFFFFFF AND PUSH20 0xFFFFFFFFFFFFFFFFFFFFFFFFFFFFFFFFFFFFFFFF AND CALLER PUSH20 0xFFFFFFFFFFFFFFFFFFFFFFFFFFFFFFFFFFFFFFFF AND EQ PUSH2 0x108F JUMPI PUSH1 0x40 MLOAD PUSH32 0x8C379A000000000000000000000000000000000000000000000000000000000 DUP2 MSTORE PUSH1 0x4 ADD PUSH2 0x1086 SWAP1 PUSH2 0x1A49 JUMP JUMPDEST PUSH1 0x40 MLOAD DUP1 SWAP2 SUB SWAP1 REVERT JUMPDEST PUSH1 0x0 DUP1 JUMPDEST PUSH1 0x4 DUP1 SLOAD SWAP1 POP DUP2 LT ISZERO PUSH2 0x11BF JUMPI DUP4 PUSH20 0xFFFFFFFFFFFFFFFFFFFFFFFFFFFFFFFFFFFFFFFF AND PUSH1 0x4 DUP3 DUP2 SLOAD DUP2 LT PUSH2 0x10CB JUMPI PUSH2 0x10CA PUSH2 0x1D9A JUMP JUMPDEST JUMPDEST SWAP1 PUSH1 0x0 MSTORE PUSH1 0x20 PUSH1 0x0 KECCAK256 SWAP1 PUSH1 0x4 MUL ADD PUSH1 0x3 ADD PUSH1 0x0 SWAP1 SLOAD SWAP1 PUSH2 0x100 EXP SWAP1 DIV PUSH20 0xFFFFFFFFFFFFFFFFFFFFFFFFFFFFFFFFFFFFFFFF AND PUSH20 0xFFFFFFFFFFFFFFFFFFFFFFFFFFFFFFFFFFFFFFFF AND EQ ISZERO PUSH2 0x1155 JUMPI PUSH1 0x4 DUP2 DUP2 SLOAD DUP2 LT PUSH2 0x112D JUMPI PUSH2 0x112C PUSH2 0x1D9A JUMP JUMPDEST JUMPDEST SWAP1 PUSH1 0x0 MSTORE PUSH1 0x20 PUSH1 0x0 KECCAK256 SWAP1 PUSH1 0x4 MUL ADD PUSH1 0x3 ADD PUSH1 0x14 SWAP1 SLOAD SWAP1 PUSH2 0x100 EXP SWAP1 DIV PUSH1 0xFF AND SWAP3 POP POP POP PUSH2 0x11C2 JUMP JUMPDEST PUSH1 0x1 DUP3 PUSH2 0x1162 SWAP2 SWAP1 PUSH2 0x1B3B JUMP JUMPDEST SWAP2 POP DUP2 PUSH1 0x4 DUP1 SLOAD SWAP1 POP EQ ISZERO PUSH2 0x11AC JUMPI PUSH1 0x40 MLOAD PUSH32 0x8C379A000000000000000000000000000000000000000000000000000000000 DUP2 MSTORE PUSH1 0x4 ADD PUSH2 0x11A3 SWAP1 PUSH2 0x1AA9 JUMP JUMPDEST PUSH1 0x40 MLOAD DUP1 SWAP2 SUB SWAP1 REVERT JUMPDEST DUP1 DUP1 PUSH2 0x11B7 SWAP1 PUSH2 0x1CC4 JUMP JUMPDEST SWAP2 POP POP PUSH2 0x1093 JUMP JUMPDEST POP POP JUMPDEST SWAP2 SWAP1 POP JUMP JUMPDEST PUSH1 0x3 PUSH1 0x20 MSTORE DUP1 PUSH1 0x0 MSTORE PUSH1 0x40 PUSH1 0x0 KECCAK256 PUSH1 0x0 SWAP2 POP SWAP1 POP DUP1 PUSH1 0x0 ADD DUP1 SLOAD PUSH2 0x11EA SWAP1 PUSH2 0x1C61 JUMP JUMPDEST DUP1 PUSH1 0x1F ADD PUSH1 0x20 DUP1 SWAP2 DIV MUL PUSH1 0x20 ADD PUSH1 0x40 MLOAD SWAP1 DUP2 ADD PUSH1 0x40 MSTORE DUP1 SWAP3 SWAP2 SWAP1 DUP2 DUP2 MSTORE PUSH1 0x20 ADD DUP3 DUP1 SLOAD PUSH2 0x1216 SWAP1 PUSH2 0x1C61 JUMP JUMPDEST DUP1 ISZERO PUSH2 0x1263 JUMPI DUP1 PUSH1 0x1F LT PUSH2 0x1238 JUMPI PUSH2 0x100 DUP1 DUP4 SLOAD DIV MUL DUP4 MSTORE SWAP2 PUSH1 0x20 ADD SWAP2 PUSH2 0x1263 JUMP JUMPDEST DUP3 ADD SWAP2 SWAP1 PUSH1 0x0 MSTORE PUSH1 0x20 PUSH1 0x0 KECCAK256 SWAP1 JUMPDEST DUP2 SLOAD DUP2 MSTORE SWAP1 PUSH1 0x1 ADD SWAP1 PUSH1 0x20 ADD DUP1 DUP4 GT PUSH2 0x1246 JUMPI DUP3 SWAP1 SUB PUSH1 0x1F AND DUP3 ADD SWAP2 JUMPDEST POP POP POP POP POP SWAP1 DUP1 PUSH1 0x1 ADD SLOAD SWAP1 DUP1 PUSH1 0x2 ADD SLOAD SWAP1 DUP1 PUSH1 0x3 ADD PUSH1 0x0 SWAP1 SLOAD SWAP1 PUSH2 0x100 EXP SWAP1 DIV PUSH20 0xFFFFFFFFFFFFFFFFFFFFFFFFFFFFFFFFFFFFFFFF AND SWAP1 DUP1 PUSH1 0x3 ADD PUSH1 0x14 SWAP1 SLOAD SWAP1 PUSH2 0x100 EXP SWAP1 DIV PUSH1 0xFF AND SWAP1 POP DUP6 JUMP JUMPDEST PUSH1 0x0 DUP1 SLOAD SWAP1 PUSH2 0x100 EXP SWAP1 DIV PUSH20 0xFFFFFFFFFFFFFFFFFFFFFFFFFFFFFFFFFFFFFFFF AND PUSH20 0xFFFFFFFFFFFFFFFFFFFFFFFFFFFFFFFFFFFFFFFF AND CALLER PUSH20 0xFFFFFFFFFFFFFFFFFFFFFFFFFFFFFFFFFFFFFFFF AND EQ PUSH2 0x1340 JUMPI PUSH1 0x40 MLOAD PUSH32 0x8C379A000000000000000000000000000000000000000000000000000000000 DUP2 MSTORE PUSH1 0x4 ADD PUSH2 0x1337 SWAP1 PUSH2 0x1A49 JUMP JUMPDEST PUSH1 0x40 MLOAD DUP1 SWAP2 SUB SWAP1 REVERT JUMPDEST PUSH1 0x0 DUP1 JUMPDEST PUSH1 0x4 DUP1 SLOAD SWAP1 POP DUP2 LT ISZERO PUSH2 0x145F JUMPI DUP4 PUSH20 0xFFFFFFFFFFFFFFFFFFFFFFFFFFFFFFFFFFFFFFFF AND PUSH1 0x4 DUP3 DUP2 SLOAD DUP2 LT PUSH2 0x137C JUMPI PUSH2 0x137B PUSH2 0x1D9A JUMP JUMPDEST JUMPDEST SWAP1 PUSH1 0x0 MSTORE PUSH1 0x20 PUSH1 0x0 KECCAK256 SWAP1 PUSH1 0x4 MUL ADD PUSH1 0x3 ADD PUSH1 0x0 SWAP1 SLOAD SWAP1 PUSH2 0x100 EXP SWAP1 DIV PUSH20 0xFFFFFFFFFFFFFFFFFFFFFFFFFFFFFFFFFFFFFFFF AND PUSH20 0xFFFFFFFFFFFFFFFFFFFFFFFFFFFFFFFFFFFFFFFF AND EQ ISZERO PUSH2 0x13F5 JUMPI DUP3 PUSH1 0x4 DUP3 DUP2 SLOAD DUP2 LT PUSH2 0x13DF JUMPI PUSH2 0x13DE PUSH2 0x1D9A JUMP JUMPDEST JUMPDEST SWAP1 PUSH1 0x0 MSTORE PUSH1 0x20 PUSH1 0x0 KECCAK256 SWAP1 PUSH1 0x4 MUL ADD PUSH1 0x1 ADD DUP2 SWAP1 SSTORE POP JUMPDEST PUSH1 0x1 DUP3 PUSH2 0x1402 SWAP2 SWAP1 PUSH2 0x1B3B JUMP JUMPDEST SWAP2 POP DUP2 PUSH1 0x4 DUP1 SLOAD SWAP1 POP EQ ISZERO PUSH2 0x144C JUMPI PUSH1 0x40 MLOAD PUSH32 0x8C379A000000000000000000000000000000000000000000000000000000000 DUP2 MSTORE PUSH1 0x4 ADD PUSH2 0x1443 SWAP1 PUSH2 0x1AA9 JUMP JUMPDEST PUSH1 0x40 MLOAD DUP1 SWAP2 SUB SWAP1 REVERT JUMPDEST DUP1 DUP1 PUSH2 0x1457 SWAP1 PUSH2 0x1CC4 JUMP JUMPDEST SWAP2 POP POP PUSH2 0x1344 JUMP JUMPDEST POP POP POP POP JUMP JUMPDEST PUSH1 0x0 DUP1 SLOAD SWAP1 PUSH2 0x100 EXP SWAP1 DIV PUSH20 0xFFFFFFFFFFFFFFFFFFFFFFFFFFFFFFFFFFFFFFFF AND DUP2 JUMP JUMPDEST PUSH1 0x40 MLOAD DUP1 PUSH1 0xA0 ADD PUSH1 0x40 MSTORE DUP1 PUSH1 0x60 DUP2 MSTORE PUSH1 0x20 ADD PUSH1 0x0 DUP2 MSTORE PUSH1 0x20 ADD PUSH1 0x0 DUP2 MSTORE PUSH1 0x20 ADD PUSH1 0x0 PUSH20 0xFFFFFFFFFFFFFFFFFFFFFFFFFFFFFFFFFFFFFFFF AND DUP2 MSTORE PUSH1 0x20 ADD PUSH1 0x0 ISZERO ISZERO DUP2 MSTORE POP SWAP1 JUMP JUMPDEST DUP3 DUP1 SLOAD PUSH2 0x14DC SWAP1 PUSH2 0x1C61 JUMP JUMPDEST SWAP1 PUSH1 0x0 MSTORE PUSH1 0x20 PUSH1 0x0 KECCAK256 SWAP1 PUSH1 0x1F ADD PUSH1 0x20 SWAP1 DIV DUP2 ADD SWAP3 DUP3 PUSH2 0x14FE JUMPI PUSH1 0x0 DUP6 SSTORE PUSH2 0x1545 JUMP JUMPDEST DUP3 PUSH1 0x1F LT PUSH2 0x1517 JUMPI DUP1 MLOAD PUSH1 0xFF NOT AND DUP4 DUP1 ADD OR DUP6 SSTORE PUSH2 0x1545 JUMP JUMPDEST DUP3 DUP1 ADD PUSH1 0x1 ADD DUP6 SSTORE DUP3 ISZERO PUSH2 0x1545 JUMPI SWAP2 DUP3 ADD JUMPDEST DUP3 DUP2 GT ISZERO PUSH2 0x1544 JUMPI DUP3 MLOAD DUP3 SSTORE SWAP2 PUSH1 0x20 ADD SWAP2 SWAP1 PUSH1 0x1 ADD SWAP1 PUSH2 0x1529 JUMP JUMPDEST JUMPDEST POP SWAP1 POP PUSH2 0x1552 SWAP2 SWAP1 PUSH2 0x1623 JUMP JUMPDEST POP SWAP1 JUMP JUMPDEST DUP3 DUP1 SLOAD PUSH2 0x1562 SWAP1 PUSH2 0x1C61 JUMP JUMPDEST SWAP1 PUSH1 0x0 MSTORE PUSH1 0x20 PUSH1 0x0 KECCAK256 SWAP1 PUSH1 0x1F ADD PUSH1 0x20 SWAP1 DIV DUP2 ADD SWAP3 DUP3 PUSH2 0x1584 JUMPI PUSH1 0x0 DUP6 SSTORE PUSH2 0x15D2 JUMP JUMPDEST DUP3 PUSH1 0x1F LT PUSH2 0x1595 JUMPI DUP1 SLOAD DUP6 SSTORE PUSH2 0x15D2 JUMP JUMPDEST DUP3 DUP1 ADD PUSH1 0x1 ADD DUP6 SSTORE DUP3 ISZERO PUSH2 0x15D2 JUMPI PUSH1 0x0 MSTORE PUSH1 0x20 PUSH1 0x0 KECCAK256 SWAP2 PUSH1 0x1F ADD PUSH1 0x20 SWAP1 DIV DUP3 ADD JUMPDEST DUP3 DUP2 GT ISZERO PUSH2 0x15D1 JUMPI DUP3 SLOAD DUP3 SSTORE SWAP2 PUSH1 0x1 ADD SWAP2 SWAP1 PUSH1 0x1 ADD SWAP1 PUSH2 0x15B6 JUMP JUMPDEST JUMPDEST POP SWAP1 POP PUSH2 0x15DF SWAP2 SWAP1 PUSH2 0x1623 JUMP JUMPDEST POP SWAP1 JUMP JUMPDEST POP DUP1 SLOAD PUSH2 0x15EF SWAP1 PUSH2 0x1C61 JUMP JUMPDEST PUSH1 0x0 DUP3 SSTORE DUP1 PUSH1 0x1F LT PUSH2 0x1601 JUMPI POP PUSH2 0x1620 JUMP JUMPDEST PUSH1 0x1F ADD PUSH1 0x20 SWAP1 DIV SWAP1 PUSH1 0x0 MSTORE PUSH1 0x20 PUSH1 0x0 KECCAK256 SWAP1 DUP2 ADD SWAP1 PUSH2 0x161F SWAP2 SWAP1 PUSH2 0x1623 JUMP JUMPDEST JUMPDEST POP JUMP JUMPDEST JUMPDEST DUP1 DUP3 GT ISZERO PUSH2 0x163C JUMPI PUSH1 0x0 DUP2 PUSH1 0x0 SWAP1 SSTORE POP PUSH1 0x1 ADD PUSH2 0x1624 JUMP JUMPDEST POP SWAP1 JUMP JUMPDEST PUSH1 0x0 PUSH2 0x1653 PUSH2 0x164E DUP5 PUSH2 0x1AEE JUMP JUMPDEST PUSH2 0x1AC9 JUMP JUMPDEST SWAP1 POP DUP3 DUP2 MSTORE PUSH1 0x20 DUP2 ADD DUP5 DUP5 DUP5 ADD GT ISZERO PUSH2 0x166F JUMPI PUSH2 0x166E PUSH2 0x1DFD JUMP JUMPDEST JUMPDEST PUSH2 0x167A DUP5 DUP3 DUP6 PUSH2 0x1C1F JUMP JUMPDEST POP SWAP4 SWAP3 POP POP POP JUMP JUMPDEST PUSH1 0x0 DUP2 CALLDATALOAD SWAP1 POP PUSH2 0x1691 DUP2 PUSH2 0x1EEA JUMP JUMPDEST SWAP3 SWAP2 POP POP JUMP JUMPDEST PUSH1 0x0 DUP2 CALLDATALOAD SWAP1 POP PUSH2 0x16A6 DUP2 PUSH2 0x1F01 JUMP JUMPDEST SWAP3 SWAP2 POP POP JUMP JUMPDEST PUSH1 0x0 DUP2 CALLDATALOAD SWAP1 POP PUSH2 0x16BB DUP2 PUSH2 0x1F18 JUMP JUMPDEST SWAP3 SWAP2 POP POP JUMP JUMPDEST PUSH1 0x0 DUP3 PUSH1 0x1F DUP4 ADD SLT PUSH2 0x16D6 JUMPI PUSH2 0x16D5 PUSH2 0x1DF8 JUMP JUMPDEST JUMPDEST DUP2 CALLDATALOAD PUSH2 0x16E6 DUP5 DUP3 PUSH1 0x20 DUP7 ADD PUSH2 0x1640 JUMP JUMPDEST SWAP2 POP POP SWAP3 SWAP2 POP POP JUMP JUMPDEST PUSH1 0x0 DUP2 CALLDATALOAD SWAP1 POP PUSH2 0x16FE DUP2 PUSH2 0x1F2F JUMP JUMPDEST SWAP3 SWAP2 POP POP JUMP JUMPDEST PUSH1 0x0 PUSH1 0x20 DUP3 DUP5 SUB SLT ISZERO PUSH2 0x171A JUMPI PUSH2 0x1719 PUSH2 0x1E07 JUMP JUMPDEST JUMPDEST PUSH1 0x0 PUSH2 0x1728 DUP5 DUP3 DUP6 ADD PUSH2 0x1682 JUMP JUMPDEST SWAP2 POP POP SWAP3 SWAP2 POP POP JUMP JUMPDEST PUSH1 0x0 DUP1 PUSH1 0x40 DUP4 DUP6 SUB SLT ISZERO PUSH2 0x1748 JUMPI PUSH2 0x1747 PUSH2 0x1E07 JUMP JUMPDEST JUMPDEST PUSH1 0x0 PUSH2 0x1756 DUP6 DUP3 DUP7 ADD PUSH2 0x1697 JUMP JUMPDEST SWAP3 POP POP PUSH1 0x20 PUSH2 0x1767 DUP6 DUP3 DUP7 ADD PUSH2 0x16EF JUMP JUMPDEST SWAP2 POP POP SWAP3 POP SWAP3 SWAP1 POP JUMP JUMPDEST PUSH1 0x0 DUP1 PUSH1 0x40 DUP4 DUP6 SUB SLT ISZERO PUSH2 0x1788 JUMPI PUSH2 0x1787 PUSH2 0x1E07 JUMP JUMPDEST JUMPDEST PUSH1 0x0 PUSH2 0x1796 DUP6 DUP3 DUP7 ADD PUSH2 0x1682 JUMP JUMPDEST SWAP3 POP POP PUSH1 0x20 PUSH2 0x17A7 DUP6 DUP3 DUP7 ADD PUSH2 0x16EF JUMP JUMPDEST SWAP2 POP POP SWAP3 POP SWAP3 SWAP1 POP JUMP JUMPDEST PUSH1 0x0 DUP1 PUSH1 0x0 DUP1 PUSH1 0x0 PUSH1 0xA0 DUP7 DUP9 SUB SLT ISZERO PUSH2 0x17CD JUMPI PUSH2 0x17CC PUSH2 0x1E07 JUMP JUMPDEST JUMPDEST PUSH1 0x0 DUP7 ADD CALLDATALOAD PUSH8 0xFFFFFFFFFFFFFFFF DUP2 GT ISZERO PUSH2 0x17EB JUMPI PUSH2 0x17EA PUSH2 0x1E02 JUMP JUMPDEST JUMPDEST PUSH2 0x17F7 DUP9 DUP3 DUP10 ADD PUSH2 0x16C1 JUMP JUMPDEST SWAP6 POP POP PUSH1 0x20 PUSH2 0x1808 DUP9 DUP3 DUP10 ADD PUSH2 0x16EF JUMP JUMPDEST SWAP5 POP POP PUSH1 0x40 PUSH2 0x1819 DUP9 DUP3 DUP10 ADD PUSH2 0x16EF JUMP JUMPDEST SWAP4 POP POP PUSH1 0x60 PUSH2 0x182A DUP9 DUP3 DUP10 ADD PUSH2 0x1697 JUMP JUMPDEST SWAP3 POP POP PUSH1 0x80 PUSH2 0x183B DUP9 DUP3 DUP10 ADD PUSH2 0x16AC JUMP JUMPDEST SWAP2 POP POP SWAP3 SWAP6 POP SWAP3 SWAP6 SWAP1 SWAP4 POP JUMP JUMPDEST PUSH1 0x0 PUSH1 0x20 DUP3 DUP5 SUB SLT ISZERO PUSH2 0x185E JUMPI PUSH2 0x185D PUSH2 0x1E07 JUMP JUMPDEST JUMPDEST PUSH1 0x0 PUSH2 0x186C DUP5 DUP3 DUP6 ADD PUSH2 0x16EF JUMP JUMPDEST SWAP2 POP POP SWAP3 SWAP2 POP POP JUMP JUMPDEST PUSH2 0x187E DUP2 PUSH2 0x1BD7 JUMP JUMPDEST DUP3 MSTORE POP POP JUMP JUMPDEST PUSH2 0x188D DUP2 PUSH2 0x1BC5 JUMP JUMPDEST DUP3 MSTORE POP POP JUMP JUMPDEST PUSH2 0x189C DUP2 PUSH2 0x1BE9 JUMP JUMPDEST DUP3 MSTORE POP POP JUMP JUMPDEST PUSH1 0x0 PUSH2 0x18AD DUP3 PUSH2 0x1B1F JUMP JUMPDEST PUSH2 0x18B7 DUP2 DUP6 PUSH2 0x1B2A JUMP JUMPDEST SWAP4 POP PUSH2 0x18C7 DUP2 DUP6 PUSH1 0x20 DUP7 ADD PUSH2 0x1C2E JUMP JUMPDEST PUSH2 0x18D0 DUP2 PUSH2 0x1E0C JUMP JUMPDEST DUP5 ADD SWAP2 POP POP SWAP3 SWAP2 POP POP JUMP JUMPDEST PUSH1 0x0 PUSH2 0x18E8 PUSH1 0x14 DUP4 PUSH2 0x1B2A JUMP JUMPDEST SWAP2 POP PUSH2 0x18F3 DUP3 PUSH2 0x1E1D JUMP JUMPDEST PUSH1 0x20 DUP3 ADD SWAP1 POP SWAP2 SWAP1 POP JUMP JUMPDEST PUSH1 0x0 PUSH2 0x190B PUSH1 0x16 DUP4 PUSH2 0x1B2A JUMP JUMPDEST SWAP2 POP PUSH2 0x1916 DUP3 PUSH2 0x1E46 JUMP JUMPDEST PUSH1 0x20 DUP3 ADD SWAP1 POP SWAP2 SWAP1 POP JUMP JUMPDEST PUSH1 0x0 PUSH2 0x192E PUSH1 0x19 DUP4 PUSH2 0x1B2A JUMP JUMPDEST SWAP2 POP PUSH2 0x1939 DUP3 PUSH2 0x1E6F JUMP JUMPDEST PUSH1 0x20 DUP3 ADD SWAP1 POP SWAP2 SWAP1 POP JUMP JUMPDEST PUSH1 0x0 PUSH2 0x1951 PUSH1 0x15 DUP4 PUSH2 0x1B2A JUMP JUMPDEST SWAP2 POP PUSH2 0x195C DUP3 PUSH2 0x1E98 JUMP JUMPDEST PUSH1 0x20 DUP3 ADD SWAP1 POP SWAP2 SWAP1 POP JUMP JUMPDEST PUSH1 0x0 PUSH2 0x1974 PUSH1 0x12 DUP4 PUSH2 0x1B2A JUMP JUMPDEST SWAP2 POP PUSH2 0x197F DUP3 PUSH2 0x1EC1 JUMP JUMPDEST PUSH1 0x20 DUP3 ADD SWAP1 POP SWAP2 SWAP1 POP JUMP JUMPDEST PUSH2 0x1993 DUP2 PUSH2 0x1C15 JUMP JUMPDEST DUP3 MSTORE POP POP JUMP JUMPDEST PUSH1 0x0 PUSH1 0x20 DUP3 ADD SWAP1 POP PUSH2 0x19AE PUSH1 0x0 DUP4 ADD DUP5 PUSH2 0x1884 JUMP JUMPDEST SWAP3 SWAP2 POP POP JUMP JUMPDEST PUSH1 0x0 PUSH1 0x20 DUP3 ADD SWAP1 POP PUSH2 0x19C9 PUSH1 0x0 DUP4 ADD DUP5 PUSH2 0x1893 JUMP JUMPDEST SWAP3 SWAP2 POP POP JUMP JUMPDEST PUSH1 0x0 PUSH1 0xA0 DUP3 ADD SWAP1 POP DUP2 DUP2 SUB PUSH1 0x0 DUP4 ADD MSTORE PUSH2 0x19E9 DUP2 DUP9 PUSH2 0x18A2 JUMP JUMPDEST SWAP1 POP PUSH2 0x19F8 PUSH1 0x20 DUP4 ADD DUP8 PUSH2 0x198A JUMP JUMPDEST PUSH2 0x1A05 PUSH1 0x40 DUP4 ADD DUP7 PUSH2 0x198A JUMP JUMPDEST PUSH2 0x1A12 PUSH1 0x60 DUP4 ADD DUP6 PUSH2 0x1875 JUMP JUMPDEST PUSH2 0x1A1F PUSH1 0x80 DUP4 ADD DUP5 PUSH2 0x1893 JUMP JUMPDEST SWAP7 SWAP6 POP POP POP POP POP POP JUMP JUMPDEST PUSH1 0x0 PUSH1 0x20 DUP3 ADD SWAP1 POP DUP2 DUP2 SUB PUSH1 0x0 DUP4 ADD MSTORE PUSH2 0x1A42 DUP2 PUSH2 0x18DB JUMP JUMPDEST SWAP1 POP SWAP2 SWAP1 POP JUMP JUMPDEST PUSH1 0x0 PUSH1 0x20 DUP3 ADD SWAP1 POP DUP2 DUP2 SUB PUSH1 0x0 DUP4 ADD MSTORE PUSH2 0x1A62 DUP2 PUSH2 0x18FE JUMP JUMPDEST SWAP1 POP SWAP2 SWAP1 POP JUMP JUMPDEST PUSH1 0x0 PUSH1 0x20 DUP3 ADD SWAP1 POP DUP2 DUP2 SUB PUSH1 0x0 DUP4 ADD MSTORE PUSH2 0x1A82 DUP2 PUSH2 0x1921 JUMP JUMPDEST SWAP1 POP SWAP2 SWAP1 POP JUMP JUMPDEST PUSH1 0x0 PUSH1 0x20 DUP3 ADD SWAP1 POP DUP2 DUP2 SUB PUSH1 0x0 DUP4 ADD MSTORE PUSH2 0x1AA2 DUP2 PUSH2 0x1944 JUMP JUMPDEST SWAP1 POP SWAP2 SWAP1 POP JUMP JUMPDEST PUSH1 0x0 PUSH1 0x20 DUP3 ADD SWAP1 POP DUP2 DUP2 SUB PUSH1 0x0 DUP4 ADD MSTORE PUSH2 0x1AC2 DUP2 PUSH2 0x1967 JUMP JUMPDEST SWAP1 POP SWAP2 SWAP1 POP JUMP JUMPDEST PUSH1 0x0 PUSH2 0x1AD3 PUSH2 0x1AE4 JUMP JUMPDEST SWAP1 POP PUSH2 0x1ADF DUP3 DUP3 PUSH2 0x1C93 JUMP JUMPDEST SWAP2 SWAP1 POP JUMP JUMPDEST PUSH1 0x0 PUSH1 0x40 MLOAD SWAP1 POP SWAP1 JUMP JUMPDEST PUSH1 0x0 PUSH8 0xFFFFFFFFFFFFFFFF DUP3 GT ISZERO PUSH2 0x1B09 JUMPI PUSH2 0x1B08 PUSH2 0x1DC9 JUMP JUMPDEST JUMPDEST PUSH2 0x1B12 DUP3 PUSH2 0x1E0C JUMP JUMPDEST SWAP1 POP PUSH1 0x20 DUP2 ADD SWAP1 POP SWAP2 SWAP1 POP JUMP JUMPDEST PUSH1 0x0 DUP2 MLOAD SWAP1 POP SWAP2 SWAP1 POP JUMP JUMPDEST PUSH1 0x0 DUP3 DUP3 MSTORE PUSH1 0x20 DUP3 ADD SWAP1 POP SWAP3 SWAP2 POP POP JUMP JUMPDEST PUSH1 0x0 PUSH2 0x1B46 DUP3 PUSH2 0x1C15 JUMP JUMPDEST SWAP2 POP PUSH2 0x1B51 DUP4 PUSH2 0x1C15 JUMP JUMPDEST SWAP3 POP DUP3 PUSH32 0xFFFFFFFFFFFFFFFFFFFFFFFFFFFFFFFFFFFFFFFFFFFFFFFFFFFFFFFFFFFFFFFF SUB DUP3 GT ISZERO PUSH2 0x1B86 JUMPI PUSH2 0x1B85 PUSH2 0x1D0D JUMP JUMPDEST JUMPDEST DUP3 DUP3 ADD SWAP1 POP SWAP3 SWAP2 POP POP JUMP JUMPDEST PUSH1 0x0 PUSH2 0x1B9C DUP3 PUSH2 0x1C15 JUMP JUMPDEST SWAP2 POP PUSH2 0x1BA7 DUP4 PUSH2 0x1C15 JUMP JUMPDEST SWAP3 POP DUP3 DUP3 LT ISZERO PUSH2 0x1BBA JUMPI PUSH2 0x1BB9 PUSH2 0x1D0D JUMP JUMPDEST JUMPDEST DUP3 DUP3 SUB SWAP1 POP SWAP3 SWAP2 POP POP JUMP JUMPDEST PUSH1 0x0 PUSH2 0x1BD0 DUP3 PUSH2 0x1BF5 JUMP JUMPDEST SWAP1 POP SWAP2 SWAP1 POP JUMP JUMPDEST PUSH1 0x0 PUSH2 0x1BE2 DUP3 PUSH2 0x1BF5 JUMP JUMPDEST SWAP1 POP SWAP2 SWAP1 POP JUMP JUMPDEST PUSH1 0x0 DUP2 ISZERO ISZERO SWAP1 POP SWAP2 SWAP1 POP JUMP JUMPDEST PUSH1 0x0 PUSH20 0xFFFFFFFFFFFFFFFFFFFFFFFFFFFFFFFFFFFFFFFF DUP3 AND SWAP1 POP SWAP2 SWAP1 POP JUMP JUMPDEST PUSH1 0x0 DUP2 SWAP1 POP SWAP2 SWAP1 POP JUMP JUMPDEST DUP3 DUP2 DUP4 CALLDATACOPY PUSH1 0x0 DUP4 DUP4 ADD MSTORE POP POP POP JUMP JUMPDEST PUSH1 0x0 JUMPDEST DUP4 DUP2 LT ISZERO PUSH2 0x1C4C JUMPI DUP1 DUP3 ADD MLOAD DUP2 DUP5 ADD MSTORE PUSH1 0x20 DUP2 ADD SWAP1 POP PUSH2 0x1C31 JUMP JUMPDEST DUP4 DUP2 GT ISZERO PUSH2 0x1C5B JUMPI PUSH1 0x0 DUP5 DUP5 ADD MSTORE JUMPDEST POP POP POP POP JUMP JUMPDEST PUSH1 0x0 PUSH1 0x2 DUP3 DIV SWAP1 POP PUSH1 0x1 DUP3 AND DUP1 PUSH2 0x1C79 JUMPI PUSH1 0x7F DUP3 AND SWAP2 POP JUMPDEST PUSH1 0x20 DUP3 LT DUP2 EQ ISZERO PUSH2 0x1C8D JUMPI PUSH2 0x1C8C PUSH2 0x1D3C JUMP JUMPDEST JUMPDEST POP SWAP2 SWAP1 POP JUMP JUMPDEST PUSH2 0x1C9C DUP3 PUSH2 0x1E0C JUMP JUMPDEST DUP2 ADD DUP2 DUP2 LT PUSH8 0xFFFFFFFFFFFFFFFF DUP3 GT OR ISZERO PUSH2 0x1CBB JUMPI PUSH2 0x1CBA PUSH2 0x1DC9 JUMP JUMPDEST JUMPDEST DUP1 PUSH1 0x40 MSTORE POP POP POP JUMP JUMPDEST PUSH1 0x0 PUSH2 0x1CCF DUP3 PUSH2 0x1C15 JUMP JUMPDEST SWAP2 POP PUSH32 0xFFFFFFFFFFFFFFFFFFFFFFFFFFFFFFFFFFFFFFFFFFFFFFFFFFFFFFFFFFFFFFFF DUP3 EQ ISZERO PUSH2 0x1D02 JUMPI PUSH2 0x1D01 PUSH2 0x1D0D JUMP JUMPDEST JUMPDEST PUSH1 0x1 DUP3 ADD SWAP1 POP SWAP2 SWAP1 POP JUMP JUMPDEST PUSH32 0x4E487B7100000000000000000000000000000000000000000000000000000000 PUSH1 0x0 MSTORE PUSH1 0x11 PUSH1 0x4 MSTORE PUSH1 0x24 PUSH1 0x0 REVERT JUMPDEST PUSH32 0x4E487B7100000000000000000000000000000000000000000000000000000000 PUSH1 0x0 MSTORE PUSH1 0x22 PUSH1 0x4 MSTORE PUSH1 0x24 PUSH1 0x0 REVERT JUMPDEST PUSH32 0x4E487B7100000000000000000000000000000000000000000000000000000000 PUSH1 0x0 MSTORE PUSH1 0x31 PUSH1 0x4 MSTORE PUSH1 0x24 PUSH1 0x0 REVERT JUMPDEST PUSH32 0x4E487B7100000000000000000000000000000000000000000000000000000000 PUSH1 0x0 MSTORE PUSH1 0x32 PUSH1 0x4 MSTORE PUSH1 0x24 PUSH1 0x0 REVERT JUMPDEST PUSH32 0x4E487B7100000000000000000000000000000000000000000000000000000000 PUSH1 0x0 MSTORE PUSH1 0x41 PUSH1 0x4 MSTORE PUSH1 0x24 PUSH1 0x0 REVERT JUMPDEST PUSH1 0x0 DUP1 REVERT JUMPDEST PUSH1 0x0 DUP1 REVERT JUMPDEST PUSH1 0x0 DUP1 REVERT JUMPDEST PUSH1 0x0 DUP1 REVERT JUMPDEST PUSH1 0x0 PUSH1 0x1F NOT PUSH1 0x1F DUP4 ADD AND SWAP1 POP SWAP2 SWAP1 POP JUMP JUMPDEST PUSH32 0x4661696C656420746F2073656E64204554484552000000000000000000000000 PUSH1 0x0 DUP3 ADD MSTORE POP JUMP JUMPDEST PUSH32 0x796F7520646F6E27742068617665207269676874732000000000000000000000 PUSH1 0x0 DUP3 ADD MSTORE POP JUMP JUMPDEST PUSH32 0x53616C61727920616C7265616479206973206372656974656400000000000000 PUSH1 0x0 DUP3 ADD MSTORE POP JUMP JUMPDEST PUSH32 0x7573657220616C72656164792072656769737465720000000000000000000000 PUSH1 0x0 DUP3 ADD MSTORE POP JUMP JUMPDEST PUSH32 0x656D706C6F796565206E6F7420666F756E640000000000000000000000000000 PUSH1 0x0 DUP3 ADD MSTORE POP JUMP JUMPDEST PUSH2 0x1EF3 DUP2 PUSH2 0x1BC5 JUMP JUMPDEST DUP2 EQ PUSH2 0x1EFE JUMPI PUSH1 0x0 DUP1 REVERT JUMPDEST POP JUMP JUMPDEST PUSH2 0x1F0A DUP2 PUSH2 0x1BD7 JUMP JUMPDEST DUP2 EQ PUSH2 0x1F15 JUMPI PUSH1 0x0 DUP1 REVERT JUMPDEST POP JUMP JUMPDEST PUSH2 0x1F21 DUP2 PUSH2 0x1BE9 JUMP JUMPDEST DUP2 EQ PUSH2 0x1F2C JUMPI PUSH1 0x0 DUP1 REVERT JUMPDEST POP JUMP JUMPDEST PUSH2 0x1F38 DUP2 PUSH2 0x1C15 JUMP JUMPDEST DUP2 EQ PUSH2 0x1F43 JUMPI PUSH1 0x0 DUP1 REVERT JUMPDEST POP JUMP INVALID LOG2 PUSH5 0x6970667358 0x22 SLT KECCAK256 PUSH28 0x34F2A2CDEFABA1BB20AC39126FEE8E2DBF1A06F6C403A300CF308C4D 0x5C CALLDATASIZE GASPRICE PUSH5 0x736F6C6343 STOP ADDMOD SMOD STOP CALLER "
				},
				"gasEstimates": {
					"creation": {
						"codeDepositCost": "1612000",
						"executionCost": "70165",
						"totalCost": "1682165"
					},
					"external": {
						"AllEmployes(uint256)": "infinite",
						"ChangePostion(address,uint256)": "infinite",
						"CheckSalaryStatus(address)": "infinite",
						"Employe_Registration(string,uint256,uint256,address,bool)": "infinite",
						"GetEmployeeDetails(address)": "infinite",
						"RemoveEmployee(address)": "infinite",
						"admin()": "2599",
						"changePaidStatus()": "infinite",
						"sendingSalaries(address,uint256)": "infinite",
						"sendingSalariesToEmployee()": "infinite"
					}
				},
				"methodIdentifiers": {
					"AllEmployes(uint256)": "b58f421c",
					"ChangePostion(address,uint256)": "e66a458e",
					"CheckSalaryStatus(address)": "ba0ce2bb",
					"Employe_Registration(string,uint256,uint256,address,bool)": "7a7e4369",
					"GetEmployeeDetails(address)": "d17106b7",
					"RemoveEmployee(address)": "52d6abdc",
					"admin()": "f851a440",
					"changePaidStatus()": "026f119a",
					"sendingSalaries(address,uint256)": "18c7a051",
					"sendingSalariesToEmployee()": "04b642a4"
				}
			},
			"storageLayout": {
				"storage": [
					{
						"astId": 3,
						"contract": "contracts/salary.sol:salary",
						"label": "admin",
						"offset": 0,
						"slot": "0",
						"type": "t_address"
					},
					{
						"astId": 15,
						"contract": "contracts/salary.sol:salary",
						"label": "SalaryOfP1",
						"offset": 0,
						"slot": "1",
						"type": "t_uint256"
					},
					{
						"astId": 18,
						"contract": "contracts/salary.sol:salary",
						"label": "SalaryOfP2",
						"offset": 0,
						"slot": "2",
						"type": "t_uint256"
					},
					{
						"astId": 34,
						"contract": "contracts/salary.sol:salary",
						"label": "GetEmployeeDetails",
						"offset": 0,
						"slot": "3",
						"type": "t_mapping(t_address,t_struct(Employe)29_storage)"
					},
					{
						"astId": 38,
						"contract": "contracts/salary.sol:salary",
						"label": "AllEmployes",
						"offset": 0,
						"slot": "4",
						"type": "t_array(t_struct(Employe)29_storage)dyn_storage"
					}
				],
				"types": {
					"t_address": {
						"encoding": "inplace",
						"label": "address",
						"numberOfBytes": "20"
					},
					"t_address_payable": {
						"encoding": "inplace",
						"label": "address payable",
						"numberOfBytes": "20"
					},
					"t_array(t_struct(Employe)29_storage)dyn_storage": {
						"base": "t_struct(Employe)29_storage",
						"encoding": "dynamic_array",
						"label": "struct salary.Employe[]",
						"numberOfBytes": "32"
					},
					"t_bool": {
						"encoding": "inplace",
						"label": "bool",
						"numberOfBytes": "1"
					},
					"t_mapping(t_address,t_struct(Employe)29_storage)": {
						"encoding": "mapping",
						"key": "t_address",
						"label": "mapping(address => struct salary.Employe)",
						"numberOfBytes": "32",
						"value": "t_struct(Employe)29_storage"
					},
					"t_string_storage": {
						"encoding": "bytes",
						"label": "string",
						"numberOfBytes": "32"
					},
					"t_struct(Employe)29_storage": {
						"encoding": "inplace",
						"label": "struct salary.Employe",
						"members": [
							{
								"astId": 20,
								"contract": "contracts/salary.sol:salary",
								"label": "name",
								"offset": 0,
								"slot": "0",
								"type": "t_string_storage"
							},
							{
								"astId": 22,
								"contract": "contracts/salary.sol:salary",
								"label": "role",
								"offset": 0,
								"slot": "1",
								"type": "t_uint256"
							},
							{
								"astId": 24,
								"contract": "contracts/salary.sol:salary",
								"label": "Id_No",
								"offset": 0,
								"slot": "2",
								"type": "t_uint256"
							},
							{
								"astId": 26,
								"contract": "contracts/salary.sol:salary",
								"label": "account_No",
								"offset": 0,
								"slot": "3",
								"type": "t_address_payable"
							},
							{
								"astId": 28,
								"contract": "contracts/salary.sol:salary",
								"label": "paid_status",
								"offset": 20,
								"slot": "3",
								"type": "t_bool"
							}
						],
						"numberOfBytes": "128"
					},
					"t_uint256": {
						"encoding": "inplace",
						"label": "uint256",
						"numberOfBytes": "32"
					}
				}
			},
			"userdoc": {
				"kind": "user",
				"methods": {
					"Employe_Registration(string,uint256,uint256,address,bool)": {
						"notice": "0xb2309adF6FD227cd04fcAa5546E1375B2BC65Da0"
					}
				},
				"version": 1
			}
		}
	}
}